{
  "contracts/Swapper.sol": {
    "Swapper": {
      "abi": [
        {
          "inputs": [],
          "stateMutability": "nonpayable",
          "type": "constructor"
        },
        {
          "inputs": [
            {
              "internalType": "uint256",
              "name": "_usdcAmount",
              "type": "uint256"
            }
          ],
          "name": "swapUSDCforUSDZ",
          "outputs": [],
          "stateMutability": "nonpayable",
          "type": "function"
        },
        {
          "inputs": [
            {
              "internalType": "uint256",
              "name": "_usdzAmount",
              "type": "uint256"
            }
          ],
          "name": "swapUSDZforUSDC",
          "outputs": [],
          "stateMutability": "nonpayable",
          "type": "function"
        }
      ],
      "evm": {
        "bytecode": {
          "linkReferences": {},
          "object": "608060405234801561001057600080fd5b5060fa8061001f6000396000f3fe6080604052348015600f57600080fd5b506004361060325760003560e01c80631d89b103146037578063cde5f67214604f575b600080fd5b604d6004803603810190604991906080565b6067565b005b60656004803603810190606191906080565b606a565b005b50565b50565b600081359050607a8160b0565b92915050565b600060208284031215609157600080fd5b6000609d84828501606d565b91505092915050565b6000819050919050565b60b78160a6565b811460c157600080fd5b5056fea2646970667358221220cdfa340bad9837b03536baf4f24da69c7419a33ceed2058b8b20a9c59c2f54ac64736f6c63430008000033",
          "opcodes": "PUSH1 0x80 PUSH1 0x40 MSTORE CALLVALUE DUP1 ISZERO PUSH2 0x10 JUMPI PUSH1 0x0 DUP1 REVERT JUMPDEST POP PUSH1 0xFA DUP1 PUSH2 0x1F PUSH1 0x0 CODECOPY PUSH1 0x0 RETURN INVALID PUSH1 0x80 PUSH1 0x40 MSTORE CALLVALUE DUP1 ISZERO PUSH1 0xF JUMPI PUSH1 0x0 DUP1 REVERT JUMPDEST POP PUSH1 0x4 CALLDATASIZE LT PUSH1 0x32 JUMPI PUSH1 0x0 CALLDATALOAD PUSH1 0xE0 SHR DUP1 PUSH4 0x1D89B103 EQ PUSH1 0x37 JUMPI DUP1 PUSH4 0xCDE5F672 EQ PUSH1 0x4F JUMPI JUMPDEST PUSH1 0x0 DUP1 REVERT JUMPDEST PUSH1 0x4D PUSH1 0x4 DUP1 CALLDATASIZE SUB DUP2 ADD SWAP1 PUSH1 0x49 SWAP2 SWAP1 PUSH1 0x80 JUMP JUMPDEST PUSH1 0x67 JUMP JUMPDEST STOP JUMPDEST PUSH1 0x65 PUSH1 0x4 DUP1 CALLDATASIZE SUB DUP2 ADD SWAP1 PUSH1 0x61 SWAP2 SWAP1 PUSH1 0x80 JUMP JUMPDEST PUSH1 0x6A JUMP JUMPDEST STOP JUMPDEST POP JUMP JUMPDEST POP JUMP JUMPDEST PUSH1 0x0 DUP2 CALLDATALOAD SWAP1 POP PUSH1 0x7A DUP2 PUSH1 0xB0 JUMP JUMPDEST SWAP3 SWAP2 POP POP JUMP JUMPDEST PUSH1 0x0 PUSH1 0x20 DUP3 DUP5 SUB SLT ISZERO PUSH1 0x91 JUMPI PUSH1 0x0 DUP1 REVERT JUMPDEST PUSH1 0x0 PUSH1 0x9D DUP5 DUP3 DUP6 ADD PUSH1 0x6D JUMP JUMPDEST SWAP2 POP POP SWAP3 SWAP2 POP POP JUMP JUMPDEST PUSH1 0x0 DUP2 SWAP1 POP SWAP2 SWAP1 POP JUMP JUMPDEST PUSH1 0xB7 DUP2 PUSH1 0xA6 JUMP JUMPDEST DUP2 EQ PUSH1 0xC1 JUMPI PUSH1 0x0 DUP1 REVERT JUMPDEST POP JUMP INVALID LOG2 PUSH5 0x6970667358 0x22 SLT KECCAK256 0xCD STATICCALL CALLVALUE SIGNEXTEND 0xAD SWAP9 CALLDATACOPY 0xB0 CALLDATALOAD CALLDATASIZE 0xBA DELEGATECALL CALLCODE 0x4D 0xA6 SWAP13 PUSH21 0x19A33CEED2058B8B20A9C59C2F54AC64736F6C6343 STOP ADDMOD STOP STOP CALLER "
        },
        "methodIdentifiers": {
          "swapUSDCforUSDZ(uint256)": "cde5f672",
          "swapUSDZforUSDC(uint256)": "1d89b103"
        }
      }
    }
  }
}