{
  "contracts/Controller.sol": {
    "Controller": {
      "abi": [
        {
          "inputs": [
            {
              "internalType": "address",
              "name": "_usdzAddress",
              "type": "address"
            },
            {
              "internalType": "address",
              "name": "_usdcAddress",
              "type": "address"
            },
            {
              "internalType": "address",
              "name": "_xSushiAddress",
              "type": "address"
            },
            {
              "internalType": "address",
              "name": "_routerAddress",
              "type": "address"
            },
            {
              "internalType": "uint256",
              "name": "_liqTotalFee",
              "type": "uint256"
            },
            {
              "internalType": "uint256",
              "name": "_liqFeeShare",
              "type": "uint256"
            },
            {
              "internalType": "uint256",
              "name": "_interestRate",
              "type": "uint256"
            },
            {
              "internalType": "uint256",
              "name": "_borrowThreshold",
              "type": "uint256"
            },
            {
              "internalType": "uint256",
              "name": "_liqThreshold",
              "type": "uint256"
            }
          ],
          "stateMutability": "nonpayable",
          "type": "constructor"
        },
        {
          "anonymous": false,
          "inputs": [
            {
              "indexed": true,
              "internalType": "address",
              "name": "account",
              "type": "address"
            },
            {
              "indexed": false,
              "internalType": "uint256",
              "name": "amountBorrowed",
              "type": "uint256"
            },
            {
              "indexed": false,
              "internalType": "uint256",
              "name": "totalDebt",
              "type": "uint256"
            },
            {
              "indexed": false,
              "internalType": "uint256",
              "name": "collateralAmount",
              "type": "uint256"
            }
          ],
          "name": "Borrow",
          "type": "event"
        },
        {
          "anonymous": false,
          "inputs": [
            {
              "indexed": true,
              "internalType": "address",
              "name": "account",
              "type": "address"
            },
            {
              "indexed": false,
              "internalType": "uint256",
              "name": "amount",
              "type": "uint256"
            }
          ],
          "name": "Deposit",
          "type": "event"
        },
        {
          "anonymous": false,
          "inputs": [
            {
              "indexed": true,
              "internalType": "address",
              "name": "account",
              "type": "address"
            },
            {
              "indexed": true,
              "internalType": "address",
              "name": "liquidator",
              "type": "address"
            },
            {
              "indexed": false,
              "internalType": "uint256",
              "name": "collateralLiquidated",
              "type": "uint256"
            },
            {
              "indexed": false,
              "internalType": "uint256",
              "name": "lastCollateralRatio",
              "type": "uint256"
            },
            {
              "indexed": false,
              "internalType": "uint256",
              "name": "lastDebtOutstanding",
              "type": "uint256"
            }
          ],
          "name": "Liquidation",
          "type": "event"
        },
        {
          "anonymous": false,
          "inputs": [
            {
              "indexed": true,
              "internalType": "address",
              "name": "previousOwner",
              "type": "address"
            },
            {
              "indexed": true,
              "internalType": "address",
              "name": "newOwner",
              "type": "address"
            }
          ],
          "name": "OwnershipTransferred",
          "type": "event"
        },
        {
          "anonymous": false,
          "inputs": [
            {
              "indexed": true,
              "internalType": "address",
              "name": "account",
              "type": "address"
            },
            {
              "indexed": false,
              "internalType": "uint256",
              "name": "debtRepaid",
              "type": "uint256"
            },
            {
              "indexed": false,
              "internalType": "uint256",
              "name": "debtRemaining",
              "type": "uint256"
            },
            {
              "indexed": false,
              "internalType": "uint256",
              "name": "collateralAmount",
              "type": "uint256"
            }
          ],
          "name": "Repay",
          "type": "event"
        },
        {
          "anonymous": false,
          "inputs": [
            {
              "indexed": true,
              "internalType": "address",
              "name": "account",
              "type": "address"
            },
            {
              "indexed": false,
              "internalType": "uint256",
              "name": "amount",
              "type": "uint256"
            }
          ],
          "name": "Withdraw",
          "type": "event"
        },
        {
          "inputs": [],
          "name": "SCALING_FACTOR",
          "outputs": [
            {
              "internalType": "uint256",
              "name": "",
              "type": "uint256"
            }
          ],
          "stateMutability": "view",
          "type": "function"
        },
        {
          "inputs": [],
          "name": "SECONDS_IN_YEAR",
          "outputs": [
            {
              "internalType": "int128",
              "name": "",
              "type": "int128"
            }
          ],
          "stateMutability": "view",
          "type": "function"
        },
        {
          "inputs": [
            {
              "internalType": "uint256",
              "name": "_amount",
              "type": "uint256"
            }
          ],
          "name": "borrow",
          "outputs": [],
          "stateMutability": "nonpayable",
          "type": "function"
        },
        {
          "inputs": [],
          "name": "borrowThreshold",
          "outputs": [
            {
              "internalType": "uint256",
              "name": "",
              "type": "uint256"
            }
          ],
          "stateMutability": "view",
          "type": "function"
        },
        {
          "inputs": [
            {
              "internalType": "address",
              "name": "_account",
              "type": "address"
            }
          ],
          "name": "calcInterest",
          "outputs": [
            {
              "internalType": "uint256",
              "name": "interest",
              "type": "uint256"
            }
          ],
          "stateMutability": "view",
          "type": "function"
        },
        {
          "inputs": [
            {
              "internalType": "uint256",
              "name": "_amount",
              "type": "uint256"
            }
          ],
          "name": "deposit",
          "outputs": [],
          "stateMutability": "nonpayable",
          "type": "function"
        },
        {
          "inputs": [
            {
              "internalType": "address",
              "name": "_account",
              "type": "address"
            }
          ],
          "name": "getCurrentCollateralRatio",
          "outputs": [
            {
              "internalType": "uint256",
              "name": "",
              "type": "uint256"
            }
          ],
          "stateMutability": "view",
          "type": "function"
        },
        {
          "inputs": [
            {
              "internalType": "address",
              "name": "_account",
              "type": "address"
            },
            {
              "internalType": "uint256",
              "name": "_totalDebt",
              "type": "uint256"
            }
          ],
          "name": "getForwardCollateralRatio",
          "outputs": [
            {
              "internalType": "uint256",
              "name": "",
              "type": "uint256"
            }
          ],
          "stateMutability": "view",
          "type": "function"
        },
        {
          "inputs": [],
          "name": "interestRate",
          "outputs": [
            {
              "internalType": "uint256",
              "name": "",
              "type": "uint256"
            }
          ],
          "stateMutability": "view",
          "type": "function"
        },
        {
          "inputs": [
            {
              "internalType": "address",
              "name": "_account",
              "type": "address"
            }
          ],
          "name": "liquidate",
          "outputs": [],
          "stateMutability": "nonpayable",
          "type": "function"
        },
        {
          "inputs": [],
          "name": "liquidationFee",
          "outputs": [
            {
              "internalType": "uint256",
              "name": "",
              "type": "uint256"
            }
          ],
          "stateMutability": "view",
          "type": "function"
        },
        {
          "inputs": [],
          "name": "liquidationThreshold",
          "outputs": [
            {
              "internalType": "uint256",
              "name": "",
              "type": "uint256"
            }
          ],
          "stateMutability": "view",
          "type": "function"
        },
        {
          "inputs": [],
          "name": "liquidatorFeeShare",
          "outputs": [
            {
              "internalType": "uint256",
              "name": "",
              "type": "uint256"
            }
          ],
          "stateMutability": "view",
          "type": "function"
        },
        {
          "inputs": [],
          "name": "owner",
          "outputs": [
            {
              "internalType": "address",
              "name": "",
              "type": "address"
            }
          ],
          "stateMutability": "view",
          "type": "function"
        },
        {
          "inputs": [],
          "name": "protocolShortfall",
          "outputs": [
            {
              "internalType": "uint256",
              "name": "",
              "type": "uint256"
            }
          ],
          "stateMutability": "view",
          "type": "function"
        },
        {
          "inputs": [],
          "name": "renounceOwnership",
          "outputs": [],
          "stateMutability": "nonpayable",
          "type": "function"
        },
        {
          "inputs": [
            {
              "internalType": "uint256",
              "name": "_amount",
              "type": "uint256"
            }
          ],
          "name": "repay",
          "outputs": [],
          "stateMutability": "nonpayable",
          "type": "function"
        },
        {
          "inputs": [
            {
              "internalType": "uint256",
              "name": "_liqTotalFee",
              "type": "uint256"
            },
            {
              "internalType": "uint256",
              "name": "_liqFeeShare",
              "type": "uint256"
            },
            {
              "internalType": "uint256",
              "name": "_interestRate",
              "type": "uint256"
            }
          ],
          "name": "setFeesAndRates",
          "outputs": [],
          "stateMutability": "nonpayable",
          "type": "function"
        },
        {
          "inputs": [
            {
              "internalType": "uint256",
              "name": "_borrowThreshold",
              "type": "uint256"
            },
            {
              "internalType": "uint256",
              "name": "_liqThreshold",
              "type": "uint256"
            }
          ],
          "name": "setThresholds",
          "outputs": [],
          "stateMutability": "nonpayable",
          "type": "function"
        },
        {
          "inputs": [
            {
              "internalType": "address",
              "name": "_newAddress",
              "type": "address"
            }
          ],
          "name": "setUSDZAddress",
          "outputs": [],
          "stateMutability": "nonpayable",
          "type": "function"
        },
        {
          "inputs": [
            {
              "internalType": "address",
              "name": "_newAddress",
              "type": "address"
            }
          ],
          "name": "setXSUSHIAddress",
          "outputs": [],
          "stateMutability": "nonpayable",
          "type": "function"
        },
        {
          "inputs": [],
          "name": "sushiRouterAddress",
          "outputs": [
            {
              "internalType": "address",
              "name": "",
              "type": "address"
            }
          ],
          "stateMutability": "view",
          "type": "function"
        },
        {
          "inputs": [
            {
              "internalType": "address",
              "name": "newOwner",
              "type": "address"
            }
          ],
          "name": "transferOwnership",
          "outputs": [],
          "stateMutability": "nonpayable",
          "type": "function"
        },
        {
          "inputs": [],
          "name": "usdcAddress",
          "outputs": [
            {
              "internalType": "address",
              "name": "",
              "type": "address"
            }
          ],
          "stateMutability": "view",
          "type": "function"
        },
        {
          "inputs": [],
          "name": "usdzAddress",
          "outputs": [
            {
              "internalType": "address",
              "name": "",
              "type": "address"
            }
          ],
          "stateMutability": "view",
          "type": "function"
        },
        {
          "inputs": [
            {
              "internalType": "uint256",
              "name": "_amount",
              "type": "uint256"
            }
          ],
          "name": "withdraw",
          "outputs": [],
          "stateMutability": "nonpayable",
          "type": "function"
        },
        {
          "inputs": [],
          "name": "xSushiAddress",
          "outputs": [
            {
              "internalType": "address",
              "name": "",
              "type": "address"
            }
          ],
          "stateMutability": "view",
          "type": "function"
        },
        {
          "inputs": [
            {
              "internalType": "uint256",
              "name": "",
              "type": "uint256"
            }
          ],
          "name": "xSushiToUsdcPath",
          "outputs": [
            {
              "internalType": "address",
              "name": "",
              "type": "address"
            }
          ],
          "stateMutability": "view",
          "type": "function"
        }
      ],
      "evm": {
        "bytecode": {
          "linkReferences": {},
          "object": "60806040523480156200001157600080fd5b50604051620040c6380380620040c683398181016040528101906200003791906200050e565b6000620000496200040660201b60201c565b9050806000806101000a81548173ffffffffffffffffffffffffffffffffffffffff021916908373ffffffffffffffffffffffffffffffffffffffff1602179055508073ffffffffffffffffffffffffffffffffffffffff16600073ffffffffffffffffffffffffffffffffffffffff167f8be0079c531659141344cd1fd0a4f28419497f9722a3daafe3b4186f6b6457e060405160405180910390a35088600360006101000a81548173ffffffffffffffffffffffffffffffffffffffff021916908373ffffffffffffffffffffffffffffffffffffffff16021790555087600460006101000a81548173ffffffffffffffffffffffffffffffffffffffff021916908373ffffffffffffffffffffffffffffffffffffffff16021790555086600560006101000a81548173ffffffffffffffffffffffffffffffffffffffff021916908373ffffffffffffffffffffffffffffffffffffffff16021790555085600660006101000a81548173ffffffffffffffffffffffffffffffffffffffff021916908373ffffffffffffffffffffffffffffffffffffffff160217905550846008819055508360098190555082600a8190555081600b8190555080600c81905550600267ffffffffffffffff81111562000250577f4e487b7100000000000000000000000000000000000000000000000000000000600052604160045260246000fd5b6040519080825280602002602001820160405280156200027f5781602001602082028036833780820191505090505b50600790805190602001906200029792919062000432565b50866007600081548110620002d5577f4e487b7100000000000000000000000000000000000000000000000000000000600052603260045260246000fd5b9060005260206000200160006101000a81548173ffffffffffffffffffffffffffffffffffffffff021916908373ffffffffffffffffffffffffffffffffffffffff1602179055508760076001815481106200035a577f4e487b7100000000000000000000000000000000000000000000000000000000600052603260045260246000fd5b9060005260206000200160006101000a81548173ffffffffffffffffffffffffffffffffffffffff021916908373ffffffffffffffffffffffffffffffffffffffff160217905550620003bc6301e185586200040e60201b62001aff1760201c565b600d60006101000a8154816fffffffffffffffffffffffffffffffff0219169083600f0b6fffffffffffffffffffffffffffffffff16021790555050505050505050505062000659565b600033905090565b6000677fffffffffffffff8211156200042657600080fd5b604082901b9050919050565b828054828255906000526020600020908101928215620004ae579160200282015b82811115620004ad5782518260006101000a81548173ffffffffffffffffffffffffffffffffffffffff021916908373ffffffffffffffffffffffffffffffffffffffff1602179055509160200191906001019062000453565b5b509050620004bd9190620004c1565b5090565b5b80821115620004dc576000816000905550600101620004c2565b5090565b600081519050620004f18162000625565b92915050565b60008151905062000508816200063f565b92915050565b60008060008060008060008060006101208a8c0312156200052e57600080fd5b60006200053e8c828d01620004e0565b9950506020620005518c828d01620004e0565b9850506040620005648c828d01620004e0565b9750506060620005778c828d01620004e0565b96505060806200058a8c828d01620004f7565b95505060a06200059d8c828d01620004f7565b94505060c0620005b08c828d01620004f7565b93505060e0620005c38c828d01620004f7565b925050610100620005d78c828d01620004f7565b9150509295985092959850929598565b6000620005f482620005fb565b9050919050565b600073ffffffffffffffffffffffffffffffffffffffff82169050919050565b6000819050919050565b6200063081620005e7565b81146200063c57600080fd5b50565b6200064a816200061b565b81146200065657600080fd5b50565b613a5d80620006696000396000f3fe608060405234801561001057600080fd5b50600436106101c45760003560e01c80637c3a00fd116100f9578063bdfccad311610097578063daf5539e11610071578063daf5539e146104ab578063e3064a77146104db578063ef4cadc5146104f7578063f2fde38b14610515576101c4565b8063bdfccad314610455578063bfaf48d414610473578063c5ebeaec1461048f576101c4565b80638f6ba29a116100d35780638f6ba29a146103e1578063a36a3630146103fd578063af1f556f1461041b578063b6b55f2514610439576101c4565b80637c3a00fd146103895780638456b755146103a75780638da5cb5b146103c3576101c4565b8063540548081161016657806369cb89c71161014057806369cb89c7146103015780637046b7a914610331578063715018a61461036157806379bbce8f1461036b576101c4565b806354054808146102a75780635ae547e3146102c55780635dcc9391146102e3576101c4565b80632f865568116101a25780632f86556814610221578063371fd8e61461023d5780634031234c146102595780634a63a5ce14610277576101c4565b806302d45457146101c957806320bdf800146101e75780632e1a7d4d14610205575b600080fd5b6101d1610531565b6040516101de9190613344565b60405180910390f35b6101ef610557565b6040516101fc9190613344565b60405180910390f35b61021f600480360381019061021a9190612c8a565b61057d565b005b61023b60048036038101906102369190612bbb565b610932565b005b61025760048036038101906102529190612c8a565b6109a0565b005b610261610ae7565b60405161026e9190613651565b60405180910390f35b610291600480360381019061028c9190612c8a565b610aed565b60405161029e9190613344565b60405180910390f35b6102af610b2c565b6040516102bc9190613651565b60405180910390f35b6102cd610b32565b6040516102da9190613651565b60405180910390f35b6102eb610b38565b6040516102f891906133bf565b60405180910390f35b61031b60048036038101906103169190612bbb565b610b4b565b6040516103289190613651565b60405180910390f35b61034b60048036038101906103469190612be4565b610dba565b6040516103589190613651565b60405180910390f35b610369610dce565b005b610373610f08565b6040516103809190613344565b60405180910390f35b610391610f2e565b60405161039e9190613651565b60405180910390f35b6103c160048036038101906103bc9190612bbb565b610f34565b005b6103cb611064565b6040516103d89190613344565b60405180910390f35b6103fb60048036038101906103f69190612bbb565b61108d565b005b6104056111bd565b6040516104129190613651565b60405180910390f35b6104236111c3565b6040516104309190613651565b60405180910390f35b610453600480360381019061044e9190612c8a565b6111c9565b005b61045d6113aa565b60405161046a9190613344565b60405180910390f35b61048d60048036038101906104889190612cef565b6113d0565b005b6104a960048036038101906104a49190612c8a565b611568565b005b6104c560048036038101906104c09190612bbb565b6117e3565b6040516104d29190613651565b60405180910390f35b6104f560048036038101906104f09190612cb3565b611838565b005b6104ff611950565b60405161050c9190613651565b60405180910390f35b61052f600480360381019061052a9190612bbb565b611956565b005b600460009054906101000a900473ffffffffffffffffffffffffffffffffffffffff1681565b600360009054906101000a900473ffffffffffffffffffffffffffffffffffffffff1681565b6000600160003373ffffffffffffffffffffffffffffffffffffffff1673ffffffffffffffffffffffffffffffffffffffff16815260200190815260200160002060000154905081811015610607576040517f08c379a00000000000000000000000000000000000000000000000000000000081526004016105fe90613631565b60405180910390fd5b600061061233610b4b565b905080600160003373ffffffffffffffffffffffffffffffffffffffff1673ffffffffffffffffffffffffffffffffffffffff1681526020019081526020016000206001016000828254610666919061377f565b9250508190555042600160003373ffffffffffffffffffffffffffffffffffffffff1673ffffffffffffffffffffffffffffffffffffffff1681526020019081526020016000206002018190555060006106bf336117e3565b9050600b548111610705576040517f08c379a00000000000000000000000000000000000000000000000000000000081526004016106fc90613511565b60405180910390fd5b6000837fffffffffffffffffffffffffffffffffffffffffffffffffffffffffffffffff612710600b5461073991906137d5565b846107449190613860565b61074e91906137d5565b6107589190613806565b90508481101561079d576040517f08c379a000000000000000000000000000000000000000000000000000000000815260040161079490613491565b60405180910390fd5b84846107a99190613860565b600160003373ffffffffffffffffffffffffffffffffffffffff1673ffffffffffffffffffffffffffffffffffffffff16815260200190815260200160002060000181905550600560009054906101000a900473ffffffffffffffffffffffffffffffffffffffff1673ffffffffffffffffffffffffffffffffffffffff1663a9059cbb33876040518363ffffffff1660e01b815260040161084c929190613396565b602060405180830381600087803b15801561086657600080fd5b505af115801561087a573d6000803e3d6000fd5b505050506040513d601f19601f8201168201806040525081019061089e9190612c61565b6108dd576040517f08c379a00000000000000000000000000000000000000000000000000000000081526004016108d4906134b1565b60405180910390fd5b3373ffffffffffffffffffffffffffffffffffffffff167f884edad9ce6fa2440d8a54cc123490eb96d2768479d49ff9c7366125a9424364866040516109239190613651565b60405180910390a25050505050565b3373ffffffffffffffffffffffffffffffffffffffff168173ffffffffffffffffffffffffffffffffffffffff167f5a821a618ddb1a1fd304234a69c9d7f20c129d122fcf35593d13a071926643076000806000604051610995939291906133da565b60405180910390a350565b600081116109e3576040517f08c379a00000000000000000000000000000000000000000000000000000000081526004016109da90613591565b60405180910390fd5b6000600160003373ffffffffffffffffffffffffffffffffffffffff1673ffffffffffffffffffffffffffffffffffffffff1681526020019081526020016000209050610a2f33610b4b565b816001016000828254610a42919061377f565b925050819055504281600201819055508181600101541115610a7e5781816001016000828254610a729190613860565b92505081905550610a89565b600081600101819055505b3373ffffffffffffffffffffffffffffffffffffffff167f2fe77b1c99aca6b022b8efc6e3e8dd1b48b30748709339b65c50ef3263443e098383600101548460000154604051610adb9392919061369c565b60405180910390a25050565b600c5481565b60078181548110610afd57600080fd5b906000526020600020016000915054906101000a900473ffffffffffffffffffffffffffffffffffffffff1681565b60095481565b600b5481565b600d60009054906101000a9004600f0b81565b600080600160008473ffffffffffffffffffffffffffffffffffffffff1673ffffffffffffffffffffffffffffffffffffffff168152602001908152602001600020600101541480610bdf57506000600160008473ffffffffffffffffffffffffffffffffffffffff1673ffffffffffffffffffffffffffffffffffffffff16815260200190815260200160002060020154145b80610bec57506000600a54145b80610c385750600160008373ffffffffffffffffffffffffffffffffffffffff1673ffffffffffffffffffffffffffffffffffffffff1681526020019081526020016000206002015442145b15610c465760009050610db5565b6000600160008473ffffffffffffffffffffffffffffffffffffffff1673ffffffffffffffffffffffffffffffffffffffff1681526020019081526020016000206002015442610c969190613860565b90506000610cbb610ca683611aff565b600d60009054906101000a9004600f0b611b22565b90506000610cdd610ccd600a54611aff565b610cd8612710611aff565b611b22565b90506000610d2c600160008873ffffffffffffffffffffffffffffffffffffffff1673ffffffffffffffffffffffffffffffffffffffff16815260200190815260200160002060010154611aff565b90506000610d53610d4e83610d49610d448789611bd2565b611c3d565b611bd2565b611cb6565b9050600160008873ffffffffffffffffffffffffffffffffffffffff1673ffffffffffffffffffffffffffffffffffffffff168152602001908152602001600020600101548167ffffffffffffffff16610dad9190613860565b955050505050505b919050565b6000610dc68383611cd7565b905092915050565b610dd6611ec9565b73ffffffffffffffffffffffffffffffffffffffff16610df4611064565b73ffffffffffffffffffffffffffffffffffffffff1614610e4a576040517f08c379a0000000000000000000000000000000000000000000000000000000008152600401610e4190613551565b60405180910390fd5b600073ffffffffffffffffffffffffffffffffffffffff1660008054906101000a900473ffffffffffffffffffffffffffffffffffffffff1673ffffffffffffffffffffffffffffffffffffffff167f8be0079c531659141344cd1fd0a4f28419497f9722a3daafe3b4186f6b6457e060405160405180910390a360008060006101000a81548173ffffffffffffffffffffffffffffffffffffffff021916908373ffffffffffffffffffffffffffffffffffffffff160217905550565b600660009054906101000a900473ffffffffffffffffffffffffffffffffffffffff1681565b600a5481565b610f3c611ec9565b73ffffffffffffffffffffffffffffffffffffffff16610f5a611064565b73ffffffffffffffffffffffffffffffffffffffff1614610fb0576040517f08c379a0000000000000000000000000000000000000000000000000000000008152600401610fa790613551565b60405180910390fd5b600073ffffffffffffffffffffffffffffffffffffffff168173ffffffffffffffffffffffffffffffffffffffff161415611020576040517f08c379a0000000000000000000000000000000000000000000000000000000008152600401611017906134d1565b60405180910390fd5b80600560006101000a81548173ffffffffffffffffffffffffffffffffffffffff021916908373ffffffffffffffffffffffffffffffffffffffff16021790555050565b60008060009054906101000a900473ffffffffffffffffffffffffffffffffffffffff16905090565b611095611ec9565b73ffffffffffffffffffffffffffffffffffffffff166110b3611064565b73ffffffffffffffffffffffffffffffffffffffff1614611109576040517f08c379a000000000000000000000000000000000000000000000000000000000815260040161110090613551565b60405180910390fd5b600073ffffffffffffffffffffffffffffffffffffffff168173ffffffffffffffffffffffffffffffffffffffff161415611179576040517f08c379a000000000000000000000000000000000000000000000000000000000815260040161117090613531565b60405180910390fd5b80600360006101000a81548173ffffffffffffffffffffffffffffffffffffffff021916908373ffffffffffffffffffffffffffffffffffffffff16021790555050565b60085481565b60025481565b6000600560009054906101000a900473ffffffffffffffffffffffffffffffffffffffff1690508073ffffffffffffffffffffffffffffffffffffffff166323b872dd3330856040518463ffffffff1660e01b815260040161122d9392919061335f565b602060405180830381600087803b15801561124757600080fd5b505af115801561125b573d6000803e3d6000fd5b505050506040513d601f19601f8201168201806040525081019061127f9190612c61565b6112be576040517f08c379a00000000000000000000000000000000000000000000000000000000081526004016112b5906135d1565b60405180910390fd5b6000600160003373ffffffffffffffffffffffffffffffffffffffff1673ffffffffffffffffffffffffffffffffffffffff1681526020019081526020016000206000015490508281611311919061377f565b600160003373ffffffffffffffffffffffffffffffffffffffff1673ffffffffffffffffffffffffffffffffffffffff168152602001908152602001600020600001819055503373ffffffffffffffffffffffffffffffffffffffff167fe1fffcc4923d04b559f4d29a8bfc6cda04eb5b0d3c460751c2402c5c5cc9109c8460405161139d9190613651565b60405180910390a2505050565b600560009054906101000a900473ffffffffffffffffffffffffffffffffffffffff1681565b6113d8611ec9565b73ffffffffffffffffffffffffffffffffffffffff166113f6611064565b73ffffffffffffffffffffffffffffffffffffffff161461144c576040517f08c379a000000000000000000000000000000000000000000000000000000000815260040161144390613551565b60405180910390fd5b612710831115801561145f575060008310155b61149e576040517f08c379a000000000000000000000000000000000000000000000000000000000815260040161149590613571565b60405180910390fd5b61271082111580156114b1575060008210155b80156114bd5750828211155b6114fc576040517f08c379a00000000000000000000000000000000000000000000000000000000081526004016114f390613451565b60405180910390fd5b8260088190555081600981905550612710811115801561151d575060008110155b61155c576040517f08c379a0000000000000000000000000000000000000000000000000000000008152600401611553906135f1565b60405180910390fd5b80600a81905550505050565b600081116115ab576040517f08c379a00000000000000000000000000000000000000000000000000000000081526004016115a290613471565b60405180910390fd5b60006115b633610b4b565b9050600b5461161d338484600160003373ffffffffffffffffffffffffffffffffffffffff1673ffffffffffffffffffffffffffffffffffffffff1681526020019081526020016000206001015461160e919061377f565b611618919061377f565b610dba565b101561165e576040517f08c379a000000000000000000000000000000000000000000000000000000000815260040161165590613411565b60405180910390fd5b808261166a919061377f565b600160003373ffffffffffffffffffffffffffffffffffffffff1673ffffffffffffffffffffffffffffffffffffffff16815260200190815260200160002060010160008282546116bb919061377f565b9250508190555042600160003373ffffffffffffffffffffffffffffffffffffffff1673ffffffffffffffffffffffffffffffffffffffff168152602001908152602001600020600201819055503373ffffffffffffffffffffffffffffffffffffffff167f13ed6866d4e1ee6da46f845c46d7e54120883d75c5ea9a2dacc1c4ca8984ab8083600160003373ffffffffffffffffffffffffffffffffffffffff1673ffffffffffffffffffffffffffffffffffffffff16815260200190815260200160002060010154600160003373ffffffffffffffffffffffffffffffffffffffff1673ffffffffffffffffffffffffffffffffffffffff168152602001908152602001600020600001546040516117d79392919061369c565b60405180910390a25050565b600061183182600160008573ffffffffffffffffffffffffffffffffffffffff1673ffffffffffffffffffffffffffffffffffffffff16815260200190815260200160002060010154611cd7565b9050919050565b611840611ec9565b73ffffffffffffffffffffffffffffffffffffffff1661185e611064565b73ffffffffffffffffffffffffffffffffffffffff16146118b4576040517f08c379a00000000000000000000000000000000000000000000000000000000081526004016118ab90613551565b60405180910390fd5b6127108210156118f9576040517f08c379a00000000000000000000000000000000000000000000000000000000081526004016118f0906134f1565b60405180910390fd5b61271081101561193e576040517f08c379a000000000000000000000000000000000000000000000000000000000815260040161193590613611565b60405180910390fd5b81600b8190555080600c819055505050565b61271081565b61195e611ec9565b73ffffffffffffffffffffffffffffffffffffffff1661197c611064565b73ffffffffffffffffffffffffffffffffffffffff16146119d2576040517f08c379a00000000000000000000000000000000000000000000000000000000081526004016119c990613551565b60405180910390fd5b600073ffffffffffffffffffffffffffffffffffffffff168173ffffffffffffffffffffffffffffffffffffffff161415611a42576040517f08c379a0000000000000000000000000000000000000000000000000000000008152600401611a3990613431565b60405180910390fd5b8073ffffffffffffffffffffffffffffffffffffffff1660008054906101000a900473ffffffffffffffffffffffffffffffffffffffff1673ffffffffffffffffffffffffffffffffffffffff167f8be0079c531659141344cd1fd0a4f28419497f9722a3daafe3b4186f6b6457e060405160405180910390a3806000806101000a81548173ffffffffffffffffffffffffffffffffffffffff021916908373ffffffffffffffffffffffffffffffffffffffff16021790555050565b6000677fffffffffffffff821115611b1657600080fd5b604082901b9050919050565b60008082600f0b1415611b3457600080fd5b600082600f0b604085600f0b901b81611b76577f4e487b7100000000000000000000000000000000000000000000000000000000600052601260045260246000fd5b0590507fffffffffffffffffffffffffffffffff80000000000000000000000000000000600f0b8112158015611bbf57506f7fffffffffffffffffffffffffffffff600f0b8113155b611bc857600080fd5b8091505092915050565b600080604083600f0b85600f0b02901d90507fffffffffffffffffffffffffffffffff80000000000000000000000000000000600f0b8112158015611c2a57506f7fffffffffffffffffffffffffffffff600f0b8113155b611c3357600080fd5b8091505092915050565b60006840000000000000000082600f0b12611c5757600080fd5b7fffffffffffffffffffffffffffffffffffffffffffffffc0000000000000000082600f0b1215611c8b5760009050611cb1565b611cae6080700171547652b82fe1777d0ffda0d23a7d1284600f0b02901d611ed1565b90505b919050565b60008082600f0b1215611cc857600080fd5b604082600f0b901d9050919050565b600080600160008573ffffffffffffffffffffffffffffffffffffffff1673ffffffffffffffffffffffffffffffffffffffff1681526020019081526020016000206000015490506000811415611d32576000915050611ec3565b6000831415611d64577fffffffffffffffffffffffffffffffffffffffffffffffffffffffffffffffff915050611ec3565b60008111611da7576040517f08c379a0000000000000000000000000000000000000000000000000000000008152600401611d9e906135b1565b60405180910390fd5b6000600660009054906101000a900473ffffffffffffffffffffffffffffffffffffffff16905060008173ffffffffffffffffffffffffffffffffffffffff1663d06ca61f8460076040518363ffffffff1660e01b8152600401611e0c92919061366c565b60006040518083038186803b158015611e2457600080fd5b505afa158015611e38573d6000803e3d6000fd5b505050506040513d6000823e3d601f19601f82011682018060405250810190611e619190612c20565b600181518110611e9a577f4e487b7100000000000000000000000000000000000000000000000000000000600052603260045260246000fd5b602002602001015190508461271082611eb39190613806565b611ebd91906137d5565b93505050505b92915050565b600033905090565b60006840000000000000000082600f0b12611eeb57600080fd5b7fffffffffffffffffffffffffffffffffffffffffffffffc0000000000000000082600f0b1215611f1f5760009050612acc565b60006f80000000000000000000000000000000905060006780000000000000008416600f0b1315611f6557608070016a09e667f3bcc908b2fb1366ea957d3e8202901c90505b60006740000000000000008416600f0b1315611f965760807001306fe0a31b7152de8d5a46305c85edec8202901c90505b60006720000000000000008416600f0b1315611fc75760807001172b83c7d517adcdf7c8c50eb14a791f8202901c90505b60006710000000000000008416600f0b1315611ff857608070010b5586cf9890f6298b92b71842a983638202901c90505b60006708000000000000008416600f0b13156120295760807001059b0d31585743ae7c548eb68ca417fd8202901c90505b60006704000000000000008416600f0b131561205a576080700102c9a3e778060ee6f7caca4f7a29bde88202901c90505b60006702000000000000008416600f0b131561208b57608070010163da9fb33356d84a66ae336dcdfa3f8202901c90505b60006701000000000000008416600f0b13156120bc576080700100b1afa5abcbed6129ab13ec11dc95438202901c90505b600066800000000000008416600f0b13156120ec57608070010058c86da1c09ea1ff19d294cf2f679b8202901c90505b600066400000000000008416600f0b131561211c5760807001002c605e2e8cec506d21bfc89a23a00f8202901c90505b600066200000000000008416600f0b131561214c576080700100162f3904051fa128bca9c55c31e5df8202901c90505b600066100000000000008416600f0b131561217c5760807001000b175effdc76ba38e31671ca9397258202901c90505b600066080000000000008416600f0b13156121ac576080700100058ba01fb9f96d6cacd4b180917c3d8202901c90505b600066040000000000008416600f0b13156121dc57608070010002c5cc37da9491d0985c348c68e7b38202901c90505b600066020000000000008416600f0b131561220c5760807001000162e525ee054754457d59952920268202901c90505b600066010000000000008416600f0b131561223c57608070010000b17255775c040618bf4a4ade83fc8202901c90505b6000658000000000008416600f0b131561226b5760807001000058b91b5bc9ae2eed81e9b7d4cfab8202901c90505b6000654000000000008416600f0b131561229a576080700100002c5c89d5ec6ca4d7c8acc017b7c98202901c90505b6000652000000000008416600f0b13156122c957608070010000162e43f4f831060e02d839a9d16d8202901c90505b6000651000000000008416600f0b13156122f8576080700100000b1721bcfc99d9f890ea069117638202901c90505b6000650800000000008416600f0b131561232757608070010000058b90cf1e6d97f9ca14dbcc16288202901c90505b6000650400000000008416600f0b13156123565760807001000002c5c863b73f016468f6bac5ca2b8202901c90505b6000650200000000008416600f0b1315612385576080700100000162e430e5a18f6119e3c02282a58202901c90505b6000650100000000008416600f0b13156123b45760807001000000b1721835514b86e6d96efd1bfe8202901c90505b60006480000000008416600f0b13156123e2576080700100000058b90c0b48c6be5df846c5b2ef8202901c90505b60006440000000008416600f0b131561241057608070010000002c5c8601cc6b9e94213c72737a8202901c90505b60006420000000008416600f0b131561243e5760807001000000162e42fff037df38aa2b219f068202901c90505b60006410000000008416600f0b131561246c57608070010000000b17217fba9c739aa5819f44f98202901c90505b60006408000000008416600f0b131561249a5760807001000000058b90bfcdee5acd3c1cedc8238202901c90505b60006404000000008416600f0b13156124c8576080700100000002c5c85fe31f35a6a30da1be508202901c90505b60006402000000008416600f0b13156124f657608070010000000162e42ff0999ce3541b9fffcf8202901c90505b60006401000000008416600f0b1315612524576080700100000000b17217f80f4ef5aadda455548202901c90505b600063800000008416600f0b131561255157608070010000000058b90bfbf8479bd5a81b51ad8202901c90505b600063400000008416600f0b131561257e5760807001000000002c5c85fdf84bd62ae30a74cc8202901c90505b600063200000008416600f0b13156125ab576080700100000000162e42fefb2fed257559bdaa8202901c90505b600063100000008416600f0b13156125d85760807001000000000b17217f7d5a7716bba4a9ae8202901c90505b600063080000008416600f0b1315612605576080700100000000058b90bfbe9ddbac5e109cce8202901c90505b600063040000008416600f0b131561263257608070010000000002c5c85fdf4b15de6f17eb0d8202901c90505b600063020000008416600f0b131561265f5760807001000000000162e42fefa494f1478fde058202901c90505b600063010000008416600f0b131561268c57608070010000000000b17217f7d20cf927c8e94c8202901c90505b6000628000008416600f0b13156126b85760807001000000000058b90bfbe8f71cb4e4b33d8202901c90505b6000624000008416600f0b13156126e4576080700100000000002c5c85fdf477b662b269458202901c90505b6000622000008416600f0b131561271057608070010000000000162e42fefa3ae53369388c8202901c90505b6000621000008416600f0b131561273c576080700100000000000b17217f7d1d351a389d408202901c90505b6000620800008416600f0b131561276857608070010000000000058b90bfbe8e8b2d3d4ede8202901c90505b6000620400008416600f0b13156127945760807001000000000002c5c85fdf4741bea6e77e8202901c90505b6000620200008416600f0b13156127c0576080700100000000000162e42fefa39fe95583c28202901c90505b6000620100008416600f0b13156127ec5760807001000000000000b17217f7d1cfb72b45e18202901c90505b60006180008416600f0b1315612817576080700100000000000058b90bfbe8e7cc35c3f08202901c90505b60006140008416600f0b131561284257608070010000000000002c5c85fdf473e242ea388202901c90505b60006120008416600f0b131561286d5760807001000000000000162e42fefa39f02b772c8202901c90505b60006110008416600f0b131561289857608070010000000000000b17217f7d1cf7d83c1a8202901c90505b60006108008416600f0b13156128c35760807001000000000000058b90bfbe8e7bdcbe2e8202901c90505b60006104008416600f0b13156128ee576080700100000000000002c5c85fdf473dea871f8202901c90505b60006102008416600f0b131561291957608070010000000000000162e42fefa39ef44d918202901c90505b60006101008416600f0b1315612944576080700100000000000000b17217f7d1cf79e9498202901c90505b600060808416600f0b131561296e57608070010000000000000058b90bfbe8e7bce5448202901c90505b600060408416600f0b13156129985760807001000000000000002c5c85fdf473de6eca8202901c90505b600060208416600f0b13156129c2576080700100000000000000162e42fefa39ef366f8202901c90505b600060108416600f0b13156129ec5760807001000000000000000b17217f7d1cf79afa8202901c90505b600060088416600f0b1315612a16576080700100000000000000058b90bfbe8e7bcd6d8202901c90505b600060048416600f0b1315612a4057608070010000000000000002c5c85fdf473de6b28202901c90505b600060028416600f0b1315612a6a5760807001000000000000000162e42fefa39ef3588202901c90505b600060018416600f0b1315612a9457608070010000000000000000b17217f7d1cf79ab8202901c90505b604083600f0b901d603f03600f0b81901c90506f7fffffffffffffffffffffffffffffff600f0b811115612ac757600080fd5b809150505b919050565b6000612ae4612adf84613704565b6136d3565b90508083825260208201905082856020860282011115612b0357600080fd5b60005b85811015612b335781612b198882612ba6565b845260208401935060208301925050600181019050612b06565b5050509392505050565b600081359050612b4c816139e2565b92915050565b600082601f830112612b6357600080fd5b8151612b73848260208601612ad1565b91505092915050565b600081519050612b8b816139f9565b92915050565b600081359050612ba081613a10565b92915050565b600081519050612bb581613a10565b92915050565b600060208284031215612bcd57600080fd5b6000612bdb84828501612b3d565b91505092915050565b60008060408385031215612bf757600080fd5b6000612c0585828601612b3d565b9250506020612c1685828601612b91565b9150509250929050565b600060208284031215612c3257600080fd5b600082015167ffffffffffffffff811115612c4c57600080fd5b612c5884828501612b52565b91505092915050565b600060208284031215612c7357600080fd5b6000612c8184828501612b7c565b91505092915050565b600060208284031215612c9c57600080fd5b6000612caa84828501612b91565b91505092915050565b60008060408385031215612cc657600080fd5b6000612cd485828601612b91565b9250506020612ce585828601612b91565b9150509250929050565b600080600060608486031215612d0457600080fd5b6000612d1286828701612b91565b9350506020612d2386828701612b91565b9250506040612d3486828701612b91565b9150509250925092565b6000612d4a8383612d56565b60208301905092915050565b612d5f816138b4565b82525050565b612d6e816138b4565b82525050565b6000612d7f82613745565b612d89818561375d565b9350612d9483613730565b8060005b83811015612dcc57612da9826139c2565b612db38882612d3e565b9750612dbe83613750565b925050600181019050612d98565b5085935050505092915050565b612de2816138d2565b82525050565b612df181613909565b82525050565b6000612e0460298361376e565b91507f6e6f7420656e6f75676820636f6c6c61746572616c20746f20626f72726f772060008301527f74686174206d75636800000000000000000000000000000000000000000000006020830152604082019050919050565b6000612e6a60268361376e565b91507f4f776e61626c653a206e6577206f776e657220697320746865207a65726f206160008301527f64647265737300000000000000000000000000000000000000000000000000006020830152604082019050919050565b6000612ed060188361376e565b91507f6c69714665655368617265206f7574206f662072616e676500000000000000006000830152602082019050919050565b6000612f10600e8361376e565b91507f63616e277420626f72726f7720300000000000000000000000000000000000006000830152602082019050919050565b6000612f5060308361376e565b91507f7769746864726177206c657373206f6620636f6c6c61746572616c207261746960008301527f6f206265636f6d657320756e73616665000000000000000000000000000000006020830152604082019050919050565b6000612fb660188361376e565b91507f7769746864726177207472616e73666572206661696c656400000000000000006000830152602082019050919050565b6000612ff660208361376e565b91507f78535553484920636f6e7472616374206e6f74207a65726f20616464726573736000830152602082019050919050565b600061303660298361376e565b91507f626f72726f77207468726573686f6c64206d757374206265203e207363616c6960008301527f6e6720666163746f7200000000000000000000000000000000000000000000006020830152604082019050919050565b600061309c60278361376e565b91507f636f6c6c61746572616c20726174696f206973203c3d20626f72726f7720746860008301527f726573686f6c64000000000000000000000000000000000000000000000000006020830152604082019050919050565b6000613102601e8361376e565b91507f7573647a20636f6e7472616374206e6f74207a65726f206164647265737300006000830152602082019050919050565b600061314260208361376e565b91507f4f776e61626c653a2063616c6c6572206973206e6f7420746865206f776e65726000830152602082019050919050565b600061318260188361376e565b91507f6c6971546f74616c466565206f7574206f662072616e676500000000000000006000830152602082019050919050565b60006131c2600d8361376e565b91507f63616e27742072657061792030000000000000000000000000000000000000006000830152602082019050919050565b600061320260008361376e565b9150600082019050919050565b600061321c600e8361376e565b91507f6465706f736974206661696c65640000000000000000000000000000000000006000830152602082019050919050565b600061325c60198361376e565b91507f696e74657265737452617465206f7574206f662072616e6765000000000000006000830152602082019050919050565b600061329c60268361376e565b91507f6c6971207468726573686f6c64206d757374206265203e207363616c696e672060008301527f666163746f7200000000000000000000000000000000000000000000000000006020830152604082019050919050565b600061330260208361376e565b91507f6e6f7420656e6f75676820636f6c6c61746572616c20696e206163636f756e746000830152602082019050919050565b61333e816138ff565b82525050565b60006020820190506133596000830184612d65565b92915050565b60006060820190506133746000830186612d65565b6133816020830185612d65565b61338e6040830184613335565b949350505050565b60006040820190506133ab6000830185612d65565b6133b86020830184613335565b9392505050565b60006020820190506133d46000830184612dd9565b92915050565b60006060820190506133ef6000830186612de8565b6133fc6020830185612de8565b6134096040830184612de8565b949350505050565b6000602082019050818103600083015261342a81612df7565b9050919050565b6000602082019050818103600083015261344a81612e5d565b9050919050565b6000602082019050818103600083015261346a81612ec3565b9050919050565b6000602082019050818103600083015261348a81612f03565b9050919050565b600060208201905081810360008301526134aa81612f43565b9050919050565b600060208201905081810360008301526134ca81612fa9565b9050919050565b600060208201905081810360008301526134ea81612fe9565b9050919050565b6000602082019050818103600083015261350a81613029565b9050919050565b6000602082019050818103600083015261352a8161308f565b9050919050565b6000602082019050818103600083015261354a816130f5565b9050919050565b6000602082019050818103600083015261356a81613135565b9050919050565b6000602082019050818103600083015261358a81613175565b9050919050565b600060208201905081810360008301526135aa816131b5565b9050919050565b600060208201905081810360008301526135ca816131f5565b9050919050565b600060208201905081810360008301526135ea8161320f565b9050919050565b6000602082019050818103600083015261360a8161324f565b9050919050565b6000602082019050818103600083015261362a8161328f565b9050919050565b6000602082019050818103600083015261364a816132f5565b9050919050565b60006020820190506136666000830184613335565b92915050565b60006040820190506136816000830185613335565b81810360208301526136938184612d74565b90509392505050565b60006060820190506136b16000830186613335565b6136be6020830185613335565b6136cb6040830184613335565b949350505050565b6000604051905081810181811067ffffffffffffffff821117156136fa576136f9613993565b5b8060405250919050565b600067ffffffffffffffff82111561371f5761371e613993565b5b602082029050602081019050919050565b60008190508160005260206000209050919050565b600081549050919050565b6000600182019050919050565b600082825260208201905092915050565b600082825260208201905092915050565b600061378a826138ff565b9150613795836138ff565b9250827fffffffffffffffffffffffffffffffffffffffffffffffffffffffffffffffff038211156137ca576137c9613935565b5b828201905092915050565b60006137e0826138ff565b91506137eb836138ff565b9250826137fb576137fa613964565b5b828204905092915050565b6000613811826138ff565b915061381c836138ff565b9250817fffffffffffffffffffffffffffffffffffffffffffffffffffffffffffffffff048311821515161561385557613854613935565b5b828202905092915050565b600061386b826138ff565b9150613876836138ff565b92508282101561388957613888613935565b5b828203905092915050565b600073ffffffffffffffffffffffffffffffffffffffff82169050919050565b60006138bf826138df565b9050919050565b60008115159050919050565b600081600f0b9050919050565b600073ffffffffffffffffffffffffffffffffffffffff82169050919050565b6000819050919050565b6000613914826138ff565b9050919050565b600061392e613929836139d5565b613894565b9050919050565b7f4e487b7100000000000000000000000000000000000000000000000000000000600052601160045260246000fd5b7f4e487b7100000000000000000000000000000000000000000000000000000000600052601260045260246000fd5b7f4e487b7100000000000000000000000000000000000000000000000000000000600052604160045260246000fd5b60006139ce825461391b565b9050919050565b60008160001c9050919050565b6139eb816138b4565b81146139f657600080fd5b50565b613a02816138c6565b8114613a0d57600080fd5b50565b613a19816138ff565b8114613a2457600080fd5b5056fea2646970667358221220fcc64f9c9f5e92e9dfc55ed5f5e1e284a9de4ac6bcf3a4ea1314dcf7010ad34364736f6c63430008000033",
          "opcodes": "PUSH1 0x80 PUSH1 0x40 MSTORE CALLVALUE DUP1 ISZERO PUSH3 0x11 JUMPI PUSH1 0x0 DUP1 REVERT JUMPDEST POP PUSH1 0x40 MLOAD PUSH3 0x40C6 CODESIZE SUB DUP1 PUSH3 0x40C6 DUP4 CODECOPY DUP2 DUP2 ADD PUSH1 0x40 MSTORE DUP2 ADD SWAP1 PUSH3 0x37 SWAP2 SWAP1 PUSH3 0x50E JUMP JUMPDEST PUSH1 0x0 PUSH3 0x49 PUSH3 0x406 PUSH1 0x20 SHL PUSH1 0x20 SHR JUMP JUMPDEST SWAP1 POP DUP1 PUSH1 0x0 DUP1 PUSH2 0x100 EXP DUP2 SLOAD DUP2 PUSH20 0xFFFFFFFFFFFFFFFFFFFFFFFFFFFFFFFFFFFFFFFF MUL NOT AND SWAP1 DUP4 PUSH20 0xFFFFFFFFFFFFFFFFFFFFFFFFFFFFFFFFFFFFFFFF AND MUL OR SWAP1 SSTORE POP DUP1 PUSH20 0xFFFFFFFFFFFFFFFFFFFFFFFFFFFFFFFFFFFFFFFF AND PUSH1 0x0 PUSH20 0xFFFFFFFFFFFFFFFFFFFFFFFFFFFFFFFFFFFFFFFF AND PUSH32 0x8BE0079C531659141344CD1FD0A4F28419497F9722A3DAAFE3B4186F6B6457E0 PUSH1 0x40 MLOAD PUSH1 0x40 MLOAD DUP1 SWAP2 SUB SWAP1 LOG3 POP DUP9 PUSH1 0x3 PUSH1 0x0 PUSH2 0x100 EXP DUP2 SLOAD DUP2 PUSH20 0xFFFFFFFFFFFFFFFFFFFFFFFFFFFFFFFFFFFFFFFF MUL NOT AND SWAP1 DUP4 PUSH20 0xFFFFFFFFFFFFFFFFFFFFFFFFFFFFFFFFFFFFFFFF AND MUL OR SWAP1 SSTORE POP DUP8 PUSH1 0x4 PUSH1 0x0 PUSH2 0x100 EXP DUP2 SLOAD DUP2 PUSH20 0xFFFFFFFFFFFFFFFFFFFFFFFFFFFFFFFFFFFFFFFF MUL NOT AND SWAP1 DUP4 PUSH20 0xFFFFFFFFFFFFFFFFFFFFFFFFFFFFFFFFFFFFFFFF AND MUL OR SWAP1 SSTORE POP DUP7 PUSH1 0x5 PUSH1 0x0 PUSH2 0x100 EXP DUP2 SLOAD DUP2 PUSH20 0xFFFFFFFFFFFFFFFFFFFFFFFFFFFFFFFFFFFFFFFF MUL NOT AND SWAP1 DUP4 PUSH20 0xFFFFFFFFFFFFFFFFFFFFFFFFFFFFFFFFFFFFFFFF AND MUL OR SWAP1 SSTORE POP DUP6 PUSH1 0x6 PUSH1 0x0 PUSH2 0x100 EXP DUP2 SLOAD DUP2 PUSH20 0xFFFFFFFFFFFFFFFFFFFFFFFFFFFFFFFFFFFFFFFF MUL NOT AND SWAP1 DUP4 PUSH20 0xFFFFFFFFFFFFFFFFFFFFFFFFFFFFFFFFFFFFFFFF AND MUL OR SWAP1 SSTORE POP DUP5 PUSH1 0x8 DUP2 SWAP1 SSTORE POP DUP4 PUSH1 0x9 DUP2 SWAP1 SSTORE POP DUP3 PUSH1 0xA DUP2 SWAP1 SSTORE POP DUP2 PUSH1 0xB DUP2 SWAP1 SSTORE POP DUP1 PUSH1 0xC DUP2 SWAP1 SSTORE POP PUSH1 0x2 PUSH8 0xFFFFFFFFFFFFFFFF DUP2 GT ISZERO PUSH3 0x250 JUMPI PUSH32 0x4E487B7100000000000000000000000000000000000000000000000000000000 PUSH1 0x0 MSTORE PUSH1 0x41 PUSH1 0x4 MSTORE PUSH1 0x24 PUSH1 0x0 REVERT JUMPDEST PUSH1 0x40 MLOAD SWAP1 DUP1 DUP3 MSTORE DUP1 PUSH1 0x20 MUL PUSH1 0x20 ADD DUP3 ADD PUSH1 0x40 MSTORE DUP1 ISZERO PUSH3 0x27F JUMPI DUP2 PUSH1 0x20 ADD PUSH1 0x20 DUP3 MUL DUP1 CALLDATASIZE DUP4 CALLDATACOPY DUP1 DUP3 ADD SWAP2 POP POP SWAP1 POP JUMPDEST POP PUSH1 0x7 SWAP1 DUP1 MLOAD SWAP1 PUSH1 0x20 ADD SWAP1 PUSH3 0x297 SWAP3 SWAP2 SWAP1 PUSH3 0x432 JUMP JUMPDEST POP DUP7 PUSH1 0x7 PUSH1 0x0 DUP2 SLOAD DUP2 LT PUSH3 0x2D5 JUMPI PUSH32 0x4E487B7100000000000000000000000000000000000000000000000000000000 PUSH1 0x0 MSTORE PUSH1 0x32 PUSH1 0x4 MSTORE PUSH1 0x24 PUSH1 0x0 REVERT JUMPDEST SWAP1 PUSH1 0x0 MSTORE PUSH1 0x20 PUSH1 0x0 KECCAK256 ADD PUSH1 0x0 PUSH2 0x100 EXP DUP2 SLOAD DUP2 PUSH20 0xFFFFFFFFFFFFFFFFFFFFFFFFFFFFFFFFFFFFFFFF MUL NOT AND SWAP1 DUP4 PUSH20 0xFFFFFFFFFFFFFFFFFFFFFFFFFFFFFFFFFFFFFFFF AND MUL OR SWAP1 SSTORE POP DUP8 PUSH1 0x7 PUSH1 0x1 DUP2 SLOAD DUP2 LT PUSH3 0x35A JUMPI PUSH32 0x4E487B7100000000000000000000000000000000000000000000000000000000 PUSH1 0x0 MSTORE PUSH1 0x32 PUSH1 0x4 MSTORE PUSH1 0x24 PUSH1 0x0 REVERT JUMPDEST SWAP1 PUSH1 0x0 MSTORE PUSH1 0x20 PUSH1 0x0 KECCAK256 ADD PUSH1 0x0 PUSH2 0x100 EXP DUP2 SLOAD DUP2 PUSH20 0xFFFFFFFFFFFFFFFFFFFFFFFFFFFFFFFFFFFFFFFF MUL NOT AND SWAP1 DUP4 PUSH20 0xFFFFFFFFFFFFFFFFFFFFFFFFFFFFFFFFFFFFFFFF AND MUL OR SWAP1 SSTORE POP PUSH3 0x3BC PUSH4 0x1E18558 PUSH3 0x40E PUSH1 0x20 SHL PUSH3 0x1AFF OR PUSH1 0x20 SHR JUMP JUMPDEST PUSH1 0xD PUSH1 0x0 PUSH2 0x100 EXP DUP2 SLOAD DUP2 PUSH16 0xFFFFFFFFFFFFFFFFFFFFFFFFFFFFFFFF MUL NOT AND SWAP1 DUP4 PUSH1 0xF SIGNEXTEND PUSH16 0xFFFFFFFFFFFFFFFFFFFFFFFFFFFFFFFF AND MUL OR SWAP1 SSTORE POP POP POP POP POP POP POP POP POP POP PUSH3 0x659 JUMP JUMPDEST PUSH1 0x0 CALLER SWAP1 POP SWAP1 JUMP JUMPDEST PUSH1 0x0 PUSH8 0x7FFFFFFFFFFFFFFF DUP3 GT ISZERO PUSH3 0x426 JUMPI PUSH1 0x0 DUP1 REVERT JUMPDEST PUSH1 0x40 DUP3 SWAP1 SHL SWAP1 POP SWAP2 SWAP1 POP JUMP JUMPDEST DUP3 DUP1 SLOAD DUP3 DUP3 SSTORE SWAP1 PUSH1 0x0 MSTORE PUSH1 0x20 PUSH1 0x0 KECCAK256 SWAP1 DUP2 ADD SWAP3 DUP3 ISZERO PUSH3 0x4AE JUMPI SWAP2 PUSH1 0x20 MUL DUP3 ADD JUMPDEST DUP3 DUP2 GT ISZERO PUSH3 0x4AD JUMPI DUP3 MLOAD DUP3 PUSH1 0x0 PUSH2 0x100 EXP DUP2 SLOAD DUP2 PUSH20 0xFFFFFFFFFFFFFFFFFFFFFFFFFFFFFFFFFFFFFFFF MUL NOT AND SWAP1 DUP4 PUSH20 0xFFFFFFFFFFFFFFFFFFFFFFFFFFFFFFFFFFFFFFFF AND MUL OR SWAP1 SSTORE POP SWAP2 PUSH1 0x20 ADD SWAP2 SWAP1 PUSH1 0x1 ADD SWAP1 PUSH3 0x453 JUMP JUMPDEST JUMPDEST POP SWAP1 POP PUSH3 0x4BD SWAP2 SWAP1 PUSH3 0x4C1 JUMP JUMPDEST POP SWAP1 JUMP JUMPDEST JUMPDEST DUP1 DUP3 GT ISZERO PUSH3 0x4DC JUMPI PUSH1 0x0 DUP2 PUSH1 0x0 SWAP1 SSTORE POP PUSH1 0x1 ADD PUSH3 0x4C2 JUMP JUMPDEST POP SWAP1 JUMP JUMPDEST PUSH1 0x0 DUP2 MLOAD SWAP1 POP PUSH3 0x4F1 DUP2 PUSH3 0x625 JUMP JUMPDEST SWAP3 SWAP2 POP POP JUMP JUMPDEST PUSH1 0x0 DUP2 MLOAD SWAP1 POP PUSH3 0x508 DUP2 PUSH3 0x63F JUMP JUMPDEST SWAP3 SWAP2 POP POP JUMP JUMPDEST PUSH1 0x0 DUP1 PUSH1 0x0 DUP1 PUSH1 0x0 DUP1 PUSH1 0x0 DUP1 PUSH1 0x0 PUSH2 0x120 DUP11 DUP13 SUB SLT ISZERO PUSH3 0x52E JUMPI PUSH1 0x0 DUP1 REVERT JUMPDEST PUSH1 0x0 PUSH3 0x53E DUP13 DUP3 DUP14 ADD PUSH3 0x4E0 JUMP JUMPDEST SWAP10 POP POP PUSH1 0x20 PUSH3 0x551 DUP13 DUP3 DUP14 ADD PUSH3 0x4E0 JUMP JUMPDEST SWAP9 POP POP PUSH1 0x40 PUSH3 0x564 DUP13 DUP3 DUP14 ADD PUSH3 0x4E0 JUMP JUMPDEST SWAP8 POP POP PUSH1 0x60 PUSH3 0x577 DUP13 DUP3 DUP14 ADD PUSH3 0x4E0 JUMP JUMPDEST SWAP7 POP POP PUSH1 0x80 PUSH3 0x58A DUP13 DUP3 DUP14 ADD PUSH3 0x4F7 JUMP JUMPDEST SWAP6 POP POP PUSH1 0xA0 PUSH3 0x59D DUP13 DUP3 DUP14 ADD PUSH3 0x4F7 JUMP JUMPDEST SWAP5 POP POP PUSH1 0xC0 PUSH3 0x5B0 DUP13 DUP3 DUP14 ADD PUSH3 0x4F7 JUMP JUMPDEST SWAP4 POP POP PUSH1 0xE0 PUSH3 0x5C3 DUP13 DUP3 DUP14 ADD PUSH3 0x4F7 JUMP JUMPDEST SWAP3 POP POP PUSH2 0x100 PUSH3 0x5D7 DUP13 DUP3 DUP14 ADD PUSH3 0x4F7 JUMP JUMPDEST SWAP2 POP POP SWAP3 SWAP6 SWAP9 POP SWAP3 SWAP6 SWAP9 POP SWAP3 SWAP6 SWAP9 JUMP JUMPDEST PUSH1 0x0 PUSH3 0x5F4 DUP3 PUSH3 0x5FB JUMP JUMPDEST SWAP1 POP SWAP2 SWAP1 POP JUMP JUMPDEST PUSH1 0x0 PUSH20 0xFFFFFFFFFFFFFFFFFFFFFFFFFFFFFFFFFFFFFFFF DUP3 AND SWAP1 POP SWAP2 SWAP1 POP JUMP JUMPDEST PUSH1 0x0 DUP2 SWAP1 POP SWAP2 SWAP1 POP JUMP JUMPDEST PUSH3 0x630 DUP2 PUSH3 0x5E7 JUMP JUMPDEST DUP2 EQ PUSH3 0x63C JUMPI PUSH1 0x0 DUP1 REVERT JUMPDEST POP JUMP JUMPDEST PUSH3 0x64A DUP2 PUSH3 0x61B JUMP JUMPDEST DUP2 EQ PUSH3 0x656 JUMPI PUSH1 0x0 DUP1 REVERT JUMPDEST POP JUMP JUMPDEST PUSH2 0x3A5D DUP1 PUSH3 0x669 PUSH1 0x0 CODECOPY PUSH1 0x0 RETURN INVALID PUSH1 0x80 PUSH1 0x40 MSTORE CALLVALUE DUP1 ISZERO PUSH2 0x10 JUMPI PUSH1 0x0 DUP1 REVERT JUMPDEST POP PUSH1 0x4 CALLDATASIZE LT PUSH2 0x1C4 JUMPI PUSH1 0x0 CALLDATALOAD PUSH1 0xE0 SHR DUP1 PUSH4 0x7C3A00FD GT PUSH2 0xF9 JUMPI DUP1 PUSH4 0xBDFCCAD3 GT PUSH2 0x97 JUMPI DUP1 PUSH4 0xDAF5539E GT PUSH2 0x71 JUMPI DUP1 PUSH4 0xDAF5539E EQ PUSH2 0x4AB JUMPI DUP1 PUSH4 0xE3064A77 EQ PUSH2 0x4DB JUMPI DUP1 PUSH4 0xEF4CADC5 EQ PUSH2 0x4F7 JUMPI DUP1 PUSH4 0xF2FDE38B EQ PUSH2 0x515 JUMPI PUSH2 0x1C4 JUMP JUMPDEST DUP1 PUSH4 0xBDFCCAD3 EQ PUSH2 0x455 JUMPI DUP1 PUSH4 0xBFAF48D4 EQ PUSH2 0x473 JUMPI DUP1 PUSH4 0xC5EBEAEC EQ PUSH2 0x48F JUMPI PUSH2 0x1C4 JUMP JUMPDEST DUP1 PUSH4 0x8F6BA29A GT PUSH2 0xD3 JUMPI DUP1 PUSH4 0x8F6BA29A EQ PUSH2 0x3E1 JUMPI DUP1 PUSH4 0xA36A3630 EQ PUSH2 0x3FD JUMPI DUP1 PUSH4 0xAF1F556F EQ PUSH2 0x41B JUMPI DUP1 PUSH4 0xB6B55F25 EQ PUSH2 0x439 JUMPI PUSH2 0x1C4 JUMP JUMPDEST DUP1 PUSH4 0x7C3A00FD EQ PUSH2 0x389 JUMPI DUP1 PUSH4 0x8456B755 EQ PUSH2 0x3A7 JUMPI DUP1 PUSH4 0x8DA5CB5B EQ PUSH2 0x3C3 JUMPI PUSH2 0x1C4 JUMP JUMPDEST DUP1 PUSH4 0x54054808 GT PUSH2 0x166 JUMPI DUP1 PUSH4 0x69CB89C7 GT PUSH2 0x140 JUMPI DUP1 PUSH4 0x69CB89C7 EQ PUSH2 0x301 JUMPI DUP1 PUSH4 0x7046B7A9 EQ PUSH2 0x331 JUMPI DUP1 PUSH4 0x715018A6 EQ PUSH2 0x361 JUMPI DUP1 PUSH4 0x79BBCE8F EQ PUSH2 0x36B JUMPI PUSH2 0x1C4 JUMP JUMPDEST DUP1 PUSH4 0x54054808 EQ PUSH2 0x2A7 JUMPI DUP1 PUSH4 0x5AE547E3 EQ PUSH2 0x2C5 JUMPI DUP1 PUSH4 0x5DCC9391 EQ PUSH2 0x2E3 JUMPI PUSH2 0x1C4 JUMP JUMPDEST DUP1 PUSH4 0x2F865568 GT PUSH2 0x1A2 JUMPI DUP1 PUSH4 0x2F865568 EQ PUSH2 0x221 JUMPI DUP1 PUSH4 0x371FD8E6 EQ PUSH2 0x23D JUMPI DUP1 PUSH4 0x4031234C EQ PUSH2 0x259 JUMPI DUP1 PUSH4 0x4A63A5CE EQ PUSH2 0x277 JUMPI PUSH2 0x1C4 JUMP JUMPDEST DUP1 PUSH4 0x2D45457 EQ PUSH2 0x1C9 JUMPI DUP1 PUSH4 0x20BDF800 EQ PUSH2 0x1E7 JUMPI DUP1 PUSH4 0x2E1A7D4D EQ PUSH2 0x205 JUMPI JUMPDEST PUSH1 0x0 DUP1 REVERT JUMPDEST PUSH2 0x1D1 PUSH2 0x531 JUMP JUMPDEST PUSH1 0x40 MLOAD PUSH2 0x1DE SWAP2 SWAP1 PUSH2 0x3344 JUMP JUMPDEST PUSH1 0x40 MLOAD DUP1 SWAP2 SUB SWAP1 RETURN JUMPDEST PUSH2 0x1EF PUSH2 0x557 JUMP JUMPDEST PUSH1 0x40 MLOAD PUSH2 0x1FC SWAP2 SWAP1 PUSH2 0x3344 JUMP JUMPDEST PUSH1 0x40 MLOAD DUP1 SWAP2 SUB SWAP1 RETURN JUMPDEST PUSH2 0x21F PUSH1 0x4 DUP1 CALLDATASIZE SUB DUP2 ADD SWAP1 PUSH2 0x21A SWAP2 SWAP1 PUSH2 0x2C8A JUMP JUMPDEST PUSH2 0x57D JUMP JUMPDEST STOP JUMPDEST PUSH2 0x23B PUSH1 0x4 DUP1 CALLDATASIZE SUB DUP2 ADD SWAP1 PUSH2 0x236 SWAP2 SWAP1 PUSH2 0x2BBB JUMP JUMPDEST PUSH2 0x932 JUMP JUMPDEST STOP JUMPDEST PUSH2 0x257 PUSH1 0x4 DUP1 CALLDATASIZE SUB DUP2 ADD SWAP1 PUSH2 0x252 SWAP2 SWAP1 PUSH2 0x2C8A JUMP JUMPDEST PUSH2 0x9A0 JUMP JUMPDEST STOP JUMPDEST PUSH2 0x261 PUSH2 0xAE7 JUMP JUMPDEST PUSH1 0x40 MLOAD PUSH2 0x26E SWAP2 SWAP1 PUSH2 0x3651 JUMP JUMPDEST PUSH1 0x40 MLOAD DUP1 SWAP2 SUB SWAP1 RETURN JUMPDEST PUSH2 0x291 PUSH1 0x4 DUP1 CALLDATASIZE SUB DUP2 ADD SWAP1 PUSH2 0x28C SWAP2 SWAP1 PUSH2 0x2C8A JUMP JUMPDEST PUSH2 0xAED JUMP JUMPDEST PUSH1 0x40 MLOAD PUSH2 0x29E SWAP2 SWAP1 PUSH2 0x3344 JUMP JUMPDEST PUSH1 0x40 MLOAD DUP1 SWAP2 SUB SWAP1 RETURN JUMPDEST PUSH2 0x2AF PUSH2 0xB2C JUMP JUMPDEST PUSH1 0x40 MLOAD PUSH2 0x2BC SWAP2 SWAP1 PUSH2 0x3651 JUMP JUMPDEST PUSH1 0x40 MLOAD DUP1 SWAP2 SUB SWAP1 RETURN JUMPDEST PUSH2 0x2CD PUSH2 0xB32 JUMP JUMPDEST PUSH1 0x40 MLOAD PUSH2 0x2DA SWAP2 SWAP1 PUSH2 0x3651 JUMP JUMPDEST PUSH1 0x40 MLOAD DUP1 SWAP2 SUB SWAP1 RETURN JUMPDEST PUSH2 0x2EB PUSH2 0xB38 JUMP JUMPDEST PUSH1 0x40 MLOAD PUSH2 0x2F8 SWAP2 SWAP1 PUSH2 0x33BF JUMP JUMPDEST PUSH1 0x40 MLOAD DUP1 SWAP2 SUB SWAP1 RETURN JUMPDEST PUSH2 0x31B PUSH1 0x4 DUP1 CALLDATASIZE SUB DUP2 ADD SWAP1 PUSH2 0x316 SWAP2 SWAP1 PUSH2 0x2BBB JUMP JUMPDEST PUSH2 0xB4B JUMP JUMPDEST PUSH1 0x40 MLOAD PUSH2 0x328 SWAP2 SWAP1 PUSH2 0x3651 JUMP JUMPDEST PUSH1 0x40 MLOAD DUP1 SWAP2 SUB SWAP1 RETURN JUMPDEST PUSH2 0x34B PUSH1 0x4 DUP1 CALLDATASIZE SUB DUP2 ADD SWAP1 PUSH2 0x346 SWAP2 SWAP1 PUSH2 0x2BE4 JUMP JUMPDEST PUSH2 0xDBA JUMP JUMPDEST PUSH1 0x40 MLOAD PUSH2 0x358 SWAP2 SWAP1 PUSH2 0x3651 JUMP JUMPDEST PUSH1 0x40 MLOAD DUP1 SWAP2 SUB SWAP1 RETURN JUMPDEST PUSH2 0x369 PUSH2 0xDCE JUMP JUMPDEST STOP JUMPDEST PUSH2 0x373 PUSH2 0xF08 JUMP JUMPDEST PUSH1 0x40 MLOAD PUSH2 0x380 SWAP2 SWAP1 PUSH2 0x3344 JUMP JUMPDEST PUSH1 0x40 MLOAD DUP1 SWAP2 SUB SWAP1 RETURN JUMPDEST PUSH2 0x391 PUSH2 0xF2E JUMP JUMPDEST PUSH1 0x40 MLOAD PUSH2 0x39E SWAP2 SWAP1 PUSH2 0x3651 JUMP JUMPDEST PUSH1 0x40 MLOAD DUP1 SWAP2 SUB SWAP1 RETURN JUMPDEST PUSH2 0x3C1 PUSH1 0x4 DUP1 CALLDATASIZE SUB DUP2 ADD SWAP1 PUSH2 0x3BC SWAP2 SWAP1 PUSH2 0x2BBB JUMP JUMPDEST PUSH2 0xF34 JUMP JUMPDEST STOP JUMPDEST PUSH2 0x3CB PUSH2 0x1064 JUMP JUMPDEST PUSH1 0x40 MLOAD PUSH2 0x3D8 SWAP2 SWAP1 PUSH2 0x3344 JUMP JUMPDEST PUSH1 0x40 MLOAD DUP1 SWAP2 SUB SWAP1 RETURN JUMPDEST PUSH2 0x3FB PUSH1 0x4 DUP1 CALLDATASIZE SUB DUP2 ADD SWAP1 PUSH2 0x3F6 SWAP2 SWAP1 PUSH2 0x2BBB JUMP JUMPDEST PUSH2 0x108D JUMP JUMPDEST STOP JUMPDEST PUSH2 0x405 PUSH2 0x11BD JUMP JUMPDEST PUSH1 0x40 MLOAD PUSH2 0x412 SWAP2 SWAP1 PUSH2 0x3651 JUMP JUMPDEST PUSH1 0x40 MLOAD DUP1 SWAP2 SUB SWAP1 RETURN JUMPDEST PUSH2 0x423 PUSH2 0x11C3 JUMP JUMPDEST PUSH1 0x40 MLOAD PUSH2 0x430 SWAP2 SWAP1 PUSH2 0x3651 JUMP JUMPDEST PUSH1 0x40 MLOAD DUP1 SWAP2 SUB SWAP1 RETURN JUMPDEST PUSH2 0x453 PUSH1 0x4 DUP1 CALLDATASIZE SUB DUP2 ADD SWAP1 PUSH2 0x44E SWAP2 SWAP1 PUSH2 0x2C8A JUMP JUMPDEST PUSH2 0x11C9 JUMP JUMPDEST STOP JUMPDEST PUSH2 0x45D PUSH2 0x13AA JUMP JUMPDEST PUSH1 0x40 MLOAD PUSH2 0x46A SWAP2 SWAP1 PUSH2 0x3344 JUMP JUMPDEST PUSH1 0x40 MLOAD DUP1 SWAP2 SUB SWAP1 RETURN JUMPDEST PUSH2 0x48D PUSH1 0x4 DUP1 CALLDATASIZE SUB DUP2 ADD SWAP1 PUSH2 0x488 SWAP2 SWAP1 PUSH2 0x2CEF JUMP JUMPDEST PUSH2 0x13D0 JUMP JUMPDEST STOP JUMPDEST PUSH2 0x4A9 PUSH1 0x4 DUP1 CALLDATASIZE SUB DUP2 ADD SWAP1 PUSH2 0x4A4 SWAP2 SWAP1 PUSH2 0x2C8A JUMP JUMPDEST PUSH2 0x1568 JUMP JUMPDEST STOP JUMPDEST PUSH2 0x4C5 PUSH1 0x4 DUP1 CALLDATASIZE SUB DUP2 ADD SWAP1 PUSH2 0x4C0 SWAP2 SWAP1 PUSH2 0x2BBB JUMP JUMPDEST PUSH2 0x17E3 JUMP JUMPDEST PUSH1 0x40 MLOAD PUSH2 0x4D2 SWAP2 SWAP1 PUSH2 0x3651 JUMP JUMPDEST PUSH1 0x40 MLOAD DUP1 SWAP2 SUB SWAP1 RETURN JUMPDEST PUSH2 0x4F5 PUSH1 0x4 DUP1 CALLDATASIZE SUB DUP2 ADD SWAP1 PUSH2 0x4F0 SWAP2 SWAP1 PUSH2 0x2CB3 JUMP JUMPDEST PUSH2 0x1838 JUMP JUMPDEST STOP JUMPDEST PUSH2 0x4FF PUSH2 0x1950 JUMP JUMPDEST PUSH1 0x40 MLOAD PUSH2 0x50C SWAP2 SWAP1 PUSH2 0x3651 JUMP JUMPDEST PUSH1 0x40 MLOAD DUP1 SWAP2 SUB SWAP1 RETURN JUMPDEST PUSH2 0x52F PUSH1 0x4 DUP1 CALLDATASIZE SUB DUP2 ADD SWAP1 PUSH2 0x52A SWAP2 SWAP1 PUSH2 0x2BBB JUMP JUMPDEST PUSH2 0x1956 JUMP JUMPDEST STOP JUMPDEST PUSH1 0x4 PUSH1 0x0 SWAP1 SLOAD SWAP1 PUSH2 0x100 EXP SWAP1 DIV PUSH20 0xFFFFFFFFFFFFFFFFFFFFFFFFFFFFFFFFFFFFFFFF AND DUP2 JUMP JUMPDEST PUSH1 0x3 PUSH1 0x0 SWAP1 SLOAD SWAP1 PUSH2 0x100 EXP SWAP1 DIV PUSH20 0xFFFFFFFFFFFFFFFFFFFFFFFFFFFFFFFFFFFFFFFF AND DUP2 JUMP JUMPDEST PUSH1 0x0 PUSH1 0x1 PUSH1 0x0 CALLER PUSH20 0xFFFFFFFFFFFFFFFFFFFFFFFFFFFFFFFFFFFFFFFF AND PUSH20 0xFFFFFFFFFFFFFFFFFFFFFFFFFFFFFFFFFFFFFFFF AND DUP2 MSTORE PUSH1 0x20 ADD SWAP1 DUP2 MSTORE PUSH1 0x20 ADD PUSH1 0x0 KECCAK256 PUSH1 0x0 ADD SLOAD SWAP1 POP DUP2 DUP2 LT ISZERO PUSH2 0x607 JUMPI PUSH1 0x40 MLOAD PUSH32 0x8C379A000000000000000000000000000000000000000000000000000000000 DUP2 MSTORE PUSH1 0x4 ADD PUSH2 0x5FE SWAP1 PUSH2 0x3631 JUMP JUMPDEST PUSH1 0x40 MLOAD DUP1 SWAP2 SUB SWAP1 REVERT JUMPDEST PUSH1 0x0 PUSH2 0x612 CALLER PUSH2 0xB4B JUMP JUMPDEST SWAP1 POP DUP1 PUSH1 0x1 PUSH1 0x0 CALLER PUSH20 0xFFFFFFFFFFFFFFFFFFFFFFFFFFFFFFFFFFFFFFFF AND PUSH20 0xFFFFFFFFFFFFFFFFFFFFFFFFFFFFFFFFFFFFFFFF AND DUP2 MSTORE PUSH1 0x20 ADD SWAP1 DUP2 MSTORE PUSH1 0x20 ADD PUSH1 0x0 KECCAK256 PUSH1 0x1 ADD PUSH1 0x0 DUP3 DUP3 SLOAD PUSH2 0x666 SWAP2 SWAP1 PUSH2 0x377F JUMP JUMPDEST SWAP3 POP POP DUP2 SWAP1 SSTORE POP TIMESTAMP PUSH1 0x1 PUSH1 0x0 CALLER PUSH20 0xFFFFFFFFFFFFFFFFFFFFFFFFFFFFFFFFFFFFFFFF AND PUSH20 0xFFFFFFFFFFFFFFFFFFFFFFFFFFFFFFFFFFFFFFFF AND DUP2 MSTORE PUSH1 0x20 ADD SWAP1 DUP2 MSTORE PUSH1 0x20 ADD PUSH1 0x0 KECCAK256 PUSH1 0x2 ADD DUP2 SWAP1 SSTORE POP PUSH1 0x0 PUSH2 0x6BF CALLER PUSH2 0x17E3 JUMP JUMPDEST SWAP1 POP PUSH1 0xB SLOAD DUP2 GT PUSH2 0x705 JUMPI PUSH1 0x40 MLOAD PUSH32 0x8C379A000000000000000000000000000000000000000000000000000000000 DUP2 MSTORE PUSH1 0x4 ADD PUSH2 0x6FC SWAP1 PUSH2 0x3511 JUMP JUMPDEST PUSH1 0x40 MLOAD DUP1 SWAP2 SUB SWAP1 REVERT JUMPDEST PUSH1 0x0 DUP4 PUSH32 0xFFFFFFFFFFFFFFFFFFFFFFFFFFFFFFFFFFFFFFFFFFFFFFFFFFFFFFFFFFFFFFFF PUSH2 0x2710 PUSH1 0xB SLOAD PUSH2 0x739 SWAP2 SWAP1 PUSH2 0x37D5 JUMP JUMPDEST DUP5 PUSH2 0x744 SWAP2 SWAP1 PUSH2 0x3860 JUMP JUMPDEST PUSH2 0x74E SWAP2 SWAP1 PUSH2 0x37D5 JUMP JUMPDEST PUSH2 0x758 SWAP2 SWAP1 PUSH2 0x3806 JUMP JUMPDEST SWAP1 POP DUP5 DUP2 LT ISZERO PUSH2 0x79D JUMPI PUSH1 0x40 MLOAD PUSH32 0x8C379A000000000000000000000000000000000000000000000000000000000 DUP2 MSTORE PUSH1 0x4 ADD PUSH2 0x794 SWAP1 PUSH2 0x3491 JUMP JUMPDEST PUSH1 0x40 MLOAD DUP1 SWAP2 SUB SWAP1 REVERT JUMPDEST DUP5 DUP5 PUSH2 0x7A9 SWAP2 SWAP1 PUSH2 0x3860 JUMP JUMPDEST PUSH1 0x1 PUSH1 0x0 CALLER PUSH20 0xFFFFFFFFFFFFFFFFFFFFFFFFFFFFFFFFFFFFFFFF AND PUSH20 0xFFFFFFFFFFFFFFFFFFFFFFFFFFFFFFFFFFFFFFFF AND DUP2 MSTORE PUSH1 0x20 ADD SWAP1 DUP2 MSTORE PUSH1 0x20 ADD PUSH1 0x0 KECCAK256 PUSH1 0x0 ADD DUP2 SWAP1 SSTORE POP PUSH1 0x5 PUSH1 0x0 SWAP1 SLOAD SWAP1 PUSH2 0x100 EXP SWAP1 DIV PUSH20 0xFFFFFFFFFFFFFFFFFFFFFFFFFFFFFFFFFFFFFFFF AND PUSH20 0xFFFFFFFFFFFFFFFFFFFFFFFFFFFFFFFFFFFFFFFF AND PUSH4 0xA9059CBB CALLER DUP8 PUSH1 0x40 MLOAD DUP4 PUSH4 0xFFFFFFFF AND PUSH1 0xE0 SHL DUP2 MSTORE PUSH1 0x4 ADD PUSH2 0x84C SWAP3 SWAP2 SWAP1 PUSH2 0x3396 JUMP JUMPDEST PUSH1 0x20 PUSH1 0x40 MLOAD DUP1 DUP4 SUB DUP2 PUSH1 0x0 DUP8 DUP1 EXTCODESIZE ISZERO DUP1 ISZERO PUSH2 0x866 JUMPI PUSH1 0x0 DUP1 REVERT JUMPDEST POP GAS CALL ISZERO DUP1 ISZERO PUSH2 0x87A JUMPI RETURNDATASIZE PUSH1 0x0 DUP1 RETURNDATACOPY RETURNDATASIZE PUSH1 0x0 REVERT JUMPDEST POP POP POP POP PUSH1 0x40 MLOAD RETURNDATASIZE PUSH1 0x1F NOT PUSH1 0x1F DUP3 ADD AND DUP3 ADD DUP1 PUSH1 0x40 MSTORE POP DUP2 ADD SWAP1 PUSH2 0x89E SWAP2 SWAP1 PUSH2 0x2C61 JUMP JUMPDEST PUSH2 0x8DD JUMPI PUSH1 0x40 MLOAD PUSH32 0x8C379A000000000000000000000000000000000000000000000000000000000 DUP2 MSTORE PUSH1 0x4 ADD PUSH2 0x8D4 SWAP1 PUSH2 0x34B1 JUMP JUMPDEST PUSH1 0x40 MLOAD DUP1 SWAP2 SUB SWAP1 REVERT JUMPDEST CALLER PUSH20 0xFFFFFFFFFFFFFFFFFFFFFFFFFFFFFFFFFFFFFFFF AND PUSH32 0x884EDAD9CE6FA2440D8A54CC123490EB96D2768479D49FF9C7366125A9424364 DUP7 PUSH1 0x40 MLOAD PUSH2 0x923 SWAP2 SWAP1 PUSH2 0x3651 JUMP JUMPDEST PUSH1 0x40 MLOAD DUP1 SWAP2 SUB SWAP1 LOG2 POP POP POP POP POP JUMP JUMPDEST CALLER PUSH20 0xFFFFFFFFFFFFFFFFFFFFFFFFFFFFFFFFFFFFFFFF AND DUP2 PUSH20 0xFFFFFFFFFFFFFFFFFFFFFFFFFFFFFFFFFFFFFFFF AND PUSH32 0x5A821A618DDB1A1FD304234A69C9D7F20C129D122FCF35593D13A07192664307 PUSH1 0x0 DUP1 PUSH1 0x0 PUSH1 0x40 MLOAD PUSH2 0x995 SWAP4 SWAP3 SWAP2 SWAP1 PUSH2 0x33DA JUMP JUMPDEST PUSH1 0x40 MLOAD DUP1 SWAP2 SUB SWAP1 LOG3 POP JUMP JUMPDEST PUSH1 0x0 DUP2 GT PUSH2 0x9E3 JUMPI PUSH1 0x40 MLOAD PUSH32 0x8C379A000000000000000000000000000000000000000000000000000000000 DUP2 MSTORE PUSH1 0x4 ADD PUSH2 0x9DA SWAP1 PUSH2 0x3591 JUMP JUMPDEST PUSH1 0x40 MLOAD DUP1 SWAP2 SUB SWAP1 REVERT JUMPDEST PUSH1 0x0 PUSH1 0x1 PUSH1 0x0 CALLER PUSH20 0xFFFFFFFFFFFFFFFFFFFFFFFFFFFFFFFFFFFFFFFF AND PUSH20 0xFFFFFFFFFFFFFFFFFFFFFFFFFFFFFFFFFFFFFFFF AND DUP2 MSTORE PUSH1 0x20 ADD SWAP1 DUP2 MSTORE PUSH1 0x20 ADD PUSH1 0x0 KECCAK256 SWAP1 POP PUSH2 0xA2F CALLER PUSH2 0xB4B JUMP JUMPDEST DUP2 PUSH1 0x1 ADD PUSH1 0x0 DUP3 DUP3 SLOAD PUSH2 0xA42 SWAP2 SWAP1 PUSH2 0x377F JUMP JUMPDEST SWAP3 POP POP DUP2 SWAP1 SSTORE POP TIMESTAMP DUP2 PUSH1 0x2 ADD DUP2 SWAP1 SSTORE POP DUP2 DUP2 PUSH1 0x1 ADD SLOAD GT ISZERO PUSH2 0xA7E JUMPI DUP2 DUP2 PUSH1 0x1 ADD PUSH1 0x0 DUP3 DUP3 SLOAD PUSH2 0xA72 SWAP2 SWAP1 PUSH2 0x3860 JUMP JUMPDEST SWAP3 POP POP DUP2 SWAP1 SSTORE POP PUSH2 0xA89 JUMP JUMPDEST PUSH1 0x0 DUP2 PUSH1 0x1 ADD DUP2 SWAP1 SSTORE POP JUMPDEST CALLER PUSH20 0xFFFFFFFFFFFFFFFFFFFFFFFFFFFFFFFFFFFFFFFF AND PUSH32 0x2FE77B1C99ACA6B022B8EFC6E3E8DD1B48B30748709339B65C50EF3263443E09 DUP4 DUP4 PUSH1 0x1 ADD SLOAD DUP5 PUSH1 0x0 ADD SLOAD PUSH1 0x40 MLOAD PUSH2 0xADB SWAP4 SWAP3 SWAP2 SWAP1 PUSH2 0x369C JUMP JUMPDEST PUSH1 0x40 MLOAD DUP1 SWAP2 SUB SWAP1 LOG2 POP POP JUMP JUMPDEST PUSH1 0xC SLOAD DUP2 JUMP JUMPDEST PUSH1 0x7 DUP2 DUP2 SLOAD DUP2 LT PUSH2 0xAFD JUMPI PUSH1 0x0 DUP1 REVERT JUMPDEST SWAP1 PUSH1 0x0 MSTORE PUSH1 0x20 PUSH1 0x0 KECCAK256 ADD PUSH1 0x0 SWAP2 POP SLOAD SWAP1 PUSH2 0x100 EXP SWAP1 DIV PUSH20 0xFFFFFFFFFFFFFFFFFFFFFFFFFFFFFFFFFFFFFFFF AND DUP2 JUMP JUMPDEST PUSH1 0x9 SLOAD DUP2 JUMP JUMPDEST PUSH1 0xB SLOAD DUP2 JUMP JUMPDEST PUSH1 0xD PUSH1 0x0 SWAP1 SLOAD SWAP1 PUSH2 0x100 EXP SWAP1 DIV PUSH1 0xF SIGNEXTEND DUP2 JUMP JUMPDEST PUSH1 0x0 DUP1 PUSH1 0x1 PUSH1 0x0 DUP5 PUSH20 0xFFFFFFFFFFFFFFFFFFFFFFFFFFFFFFFFFFFFFFFF AND PUSH20 0xFFFFFFFFFFFFFFFFFFFFFFFFFFFFFFFFFFFFFFFF AND DUP2 MSTORE PUSH1 0x20 ADD SWAP1 DUP2 MSTORE PUSH1 0x20 ADD PUSH1 0x0 KECCAK256 PUSH1 0x1 ADD SLOAD EQ DUP1 PUSH2 0xBDF JUMPI POP PUSH1 0x0 PUSH1 0x1 PUSH1 0x0 DUP5 PUSH20 0xFFFFFFFFFFFFFFFFFFFFFFFFFFFFFFFFFFFFFFFF AND PUSH20 0xFFFFFFFFFFFFFFFFFFFFFFFFFFFFFFFFFFFFFFFF AND DUP2 MSTORE PUSH1 0x20 ADD SWAP1 DUP2 MSTORE PUSH1 0x20 ADD PUSH1 0x0 KECCAK256 PUSH1 0x2 ADD SLOAD EQ JUMPDEST DUP1 PUSH2 0xBEC JUMPI POP PUSH1 0x0 PUSH1 0xA SLOAD EQ JUMPDEST DUP1 PUSH2 0xC38 JUMPI POP PUSH1 0x1 PUSH1 0x0 DUP4 PUSH20 0xFFFFFFFFFFFFFFFFFFFFFFFFFFFFFFFFFFFFFFFF AND PUSH20 0xFFFFFFFFFFFFFFFFFFFFFFFFFFFFFFFFFFFFFFFF AND DUP2 MSTORE PUSH1 0x20 ADD SWAP1 DUP2 MSTORE PUSH1 0x20 ADD PUSH1 0x0 KECCAK256 PUSH1 0x2 ADD SLOAD TIMESTAMP EQ JUMPDEST ISZERO PUSH2 0xC46 JUMPI PUSH1 0x0 SWAP1 POP PUSH2 0xDB5 JUMP JUMPDEST PUSH1 0x0 PUSH1 0x1 PUSH1 0x0 DUP5 PUSH20 0xFFFFFFFFFFFFFFFFFFFFFFFFFFFFFFFFFFFFFFFF AND PUSH20 0xFFFFFFFFFFFFFFFFFFFFFFFFFFFFFFFFFFFFFFFF AND DUP2 MSTORE PUSH1 0x20 ADD SWAP1 DUP2 MSTORE PUSH1 0x20 ADD PUSH1 0x0 KECCAK256 PUSH1 0x2 ADD SLOAD TIMESTAMP PUSH2 0xC96 SWAP2 SWAP1 PUSH2 0x3860 JUMP JUMPDEST SWAP1 POP PUSH1 0x0 PUSH2 0xCBB PUSH2 0xCA6 DUP4 PUSH2 0x1AFF JUMP JUMPDEST PUSH1 0xD PUSH1 0x0 SWAP1 SLOAD SWAP1 PUSH2 0x100 EXP SWAP1 DIV PUSH1 0xF SIGNEXTEND PUSH2 0x1B22 JUMP JUMPDEST SWAP1 POP PUSH1 0x0 PUSH2 0xCDD PUSH2 0xCCD PUSH1 0xA SLOAD PUSH2 0x1AFF JUMP JUMPDEST PUSH2 0xCD8 PUSH2 0x2710 PUSH2 0x1AFF JUMP JUMPDEST PUSH2 0x1B22 JUMP JUMPDEST SWAP1 POP PUSH1 0x0 PUSH2 0xD2C PUSH1 0x1 PUSH1 0x0 DUP9 PUSH20 0xFFFFFFFFFFFFFFFFFFFFFFFFFFFFFFFFFFFFFFFF AND PUSH20 0xFFFFFFFFFFFFFFFFFFFFFFFFFFFFFFFFFFFFFFFF AND DUP2 MSTORE PUSH1 0x20 ADD SWAP1 DUP2 MSTORE PUSH1 0x20 ADD PUSH1 0x0 KECCAK256 PUSH1 0x1 ADD SLOAD PUSH2 0x1AFF JUMP JUMPDEST SWAP1 POP PUSH1 0x0 PUSH2 0xD53 PUSH2 0xD4E DUP4 PUSH2 0xD49 PUSH2 0xD44 DUP8 DUP10 PUSH2 0x1BD2 JUMP JUMPDEST PUSH2 0x1C3D JUMP JUMPDEST PUSH2 0x1BD2 JUMP JUMPDEST PUSH2 0x1CB6 JUMP JUMPDEST SWAP1 POP PUSH1 0x1 PUSH1 0x0 DUP9 PUSH20 0xFFFFFFFFFFFFFFFFFFFFFFFFFFFFFFFFFFFFFFFF AND PUSH20 0xFFFFFFFFFFFFFFFFFFFFFFFFFFFFFFFFFFFFFFFF AND DUP2 MSTORE PUSH1 0x20 ADD SWAP1 DUP2 MSTORE PUSH1 0x20 ADD PUSH1 0x0 KECCAK256 PUSH1 0x1 ADD SLOAD DUP2 PUSH8 0xFFFFFFFFFFFFFFFF AND PUSH2 0xDAD SWAP2 SWAP1 PUSH2 0x3860 JUMP JUMPDEST SWAP6 POP POP POP POP POP POP JUMPDEST SWAP2 SWAP1 POP JUMP JUMPDEST PUSH1 0x0 PUSH2 0xDC6 DUP4 DUP4 PUSH2 0x1CD7 JUMP JUMPDEST SWAP1 POP SWAP3 SWAP2 POP POP JUMP JUMPDEST PUSH2 0xDD6 PUSH2 0x1EC9 JUMP JUMPDEST PUSH20 0xFFFFFFFFFFFFFFFFFFFFFFFFFFFFFFFFFFFFFFFF AND PUSH2 0xDF4 PUSH2 0x1064 JUMP JUMPDEST PUSH20 0xFFFFFFFFFFFFFFFFFFFFFFFFFFFFFFFFFFFFFFFF AND EQ PUSH2 0xE4A JUMPI PUSH1 0x40 MLOAD PUSH32 0x8C379A000000000000000000000000000000000000000000000000000000000 DUP2 MSTORE PUSH1 0x4 ADD PUSH2 0xE41 SWAP1 PUSH2 0x3551 JUMP JUMPDEST PUSH1 0x40 MLOAD DUP1 SWAP2 SUB SWAP1 REVERT JUMPDEST PUSH1 0x0 PUSH20 0xFFFFFFFFFFFFFFFFFFFFFFFFFFFFFFFFFFFFFFFF AND PUSH1 0x0 DUP1 SLOAD SWAP1 PUSH2 0x100 EXP SWAP1 DIV PUSH20 0xFFFFFFFFFFFFFFFFFFFFFFFFFFFFFFFFFFFFFFFF AND PUSH20 0xFFFFFFFFFFFFFFFFFFFFFFFFFFFFFFFFFFFFFFFF AND PUSH32 0x8BE0079C531659141344CD1FD0A4F28419497F9722A3DAAFE3B4186F6B6457E0 PUSH1 0x40 MLOAD PUSH1 0x40 MLOAD DUP1 SWAP2 SUB SWAP1 LOG3 PUSH1 0x0 DUP1 PUSH1 0x0 PUSH2 0x100 EXP DUP2 SLOAD DUP2 PUSH20 0xFFFFFFFFFFFFFFFFFFFFFFFFFFFFFFFFFFFFFFFF MUL NOT AND SWAP1 DUP4 PUSH20 0xFFFFFFFFFFFFFFFFFFFFFFFFFFFFFFFFFFFFFFFF AND MUL OR SWAP1 SSTORE POP JUMP JUMPDEST PUSH1 0x6 PUSH1 0x0 SWAP1 SLOAD SWAP1 PUSH2 0x100 EXP SWAP1 DIV PUSH20 0xFFFFFFFFFFFFFFFFFFFFFFFFFFFFFFFFFFFFFFFF AND DUP2 JUMP JUMPDEST PUSH1 0xA SLOAD DUP2 JUMP JUMPDEST PUSH2 0xF3C PUSH2 0x1EC9 JUMP JUMPDEST PUSH20 0xFFFFFFFFFFFFFFFFFFFFFFFFFFFFFFFFFFFFFFFF AND PUSH2 0xF5A PUSH2 0x1064 JUMP JUMPDEST PUSH20 0xFFFFFFFFFFFFFFFFFFFFFFFFFFFFFFFFFFFFFFFF AND EQ PUSH2 0xFB0 JUMPI PUSH1 0x40 MLOAD PUSH32 0x8C379A000000000000000000000000000000000000000000000000000000000 DUP2 MSTORE PUSH1 0x4 ADD PUSH2 0xFA7 SWAP1 PUSH2 0x3551 JUMP JUMPDEST PUSH1 0x40 MLOAD DUP1 SWAP2 SUB SWAP1 REVERT JUMPDEST PUSH1 0x0 PUSH20 0xFFFFFFFFFFFFFFFFFFFFFFFFFFFFFFFFFFFFFFFF AND DUP2 PUSH20 0xFFFFFFFFFFFFFFFFFFFFFFFFFFFFFFFFFFFFFFFF AND EQ ISZERO PUSH2 0x1020 JUMPI PUSH1 0x40 MLOAD PUSH32 0x8C379A000000000000000000000000000000000000000000000000000000000 DUP2 MSTORE PUSH1 0x4 ADD PUSH2 0x1017 SWAP1 PUSH2 0x34D1 JUMP JUMPDEST PUSH1 0x40 MLOAD DUP1 SWAP2 SUB SWAP1 REVERT JUMPDEST DUP1 PUSH1 0x5 PUSH1 0x0 PUSH2 0x100 EXP DUP2 SLOAD DUP2 PUSH20 0xFFFFFFFFFFFFFFFFFFFFFFFFFFFFFFFFFFFFFFFF MUL NOT AND SWAP1 DUP4 PUSH20 0xFFFFFFFFFFFFFFFFFFFFFFFFFFFFFFFFFFFFFFFF AND MUL OR SWAP1 SSTORE POP POP JUMP JUMPDEST PUSH1 0x0 DUP1 PUSH1 0x0 SWAP1 SLOAD SWAP1 PUSH2 0x100 EXP SWAP1 DIV PUSH20 0xFFFFFFFFFFFFFFFFFFFFFFFFFFFFFFFFFFFFFFFF AND SWAP1 POP SWAP1 JUMP JUMPDEST PUSH2 0x1095 PUSH2 0x1EC9 JUMP JUMPDEST PUSH20 0xFFFFFFFFFFFFFFFFFFFFFFFFFFFFFFFFFFFFFFFF AND PUSH2 0x10B3 PUSH2 0x1064 JUMP JUMPDEST PUSH20 0xFFFFFFFFFFFFFFFFFFFFFFFFFFFFFFFFFFFFFFFF AND EQ PUSH2 0x1109 JUMPI PUSH1 0x40 MLOAD PUSH32 0x8C379A000000000000000000000000000000000000000000000000000000000 DUP2 MSTORE PUSH1 0x4 ADD PUSH2 0x1100 SWAP1 PUSH2 0x3551 JUMP JUMPDEST PUSH1 0x40 MLOAD DUP1 SWAP2 SUB SWAP1 REVERT JUMPDEST PUSH1 0x0 PUSH20 0xFFFFFFFFFFFFFFFFFFFFFFFFFFFFFFFFFFFFFFFF AND DUP2 PUSH20 0xFFFFFFFFFFFFFFFFFFFFFFFFFFFFFFFFFFFFFFFF AND EQ ISZERO PUSH2 0x1179 JUMPI PUSH1 0x40 MLOAD PUSH32 0x8C379A000000000000000000000000000000000000000000000000000000000 DUP2 MSTORE PUSH1 0x4 ADD PUSH2 0x1170 SWAP1 PUSH2 0x3531 JUMP JUMPDEST PUSH1 0x40 MLOAD DUP1 SWAP2 SUB SWAP1 REVERT JUMPDEST DUP1 PUSH1 0x3 PUSH1 0x0 PUSH2 0x100 EXP DUP2 SLOAD DUP2 PUSH20 0xFFFFFFFFFFFFFFFFFFFFFFFFFFFFFFFFFFFFFFFF MUL NOT AND SWAP1 DUP4 PUSH20 0xFFFFFFFFFFFFFFFFFFFFFFFFFFFFFFFFFFFFFFFF AND MUL OR SWAP1 SSTORE POP POP JUMP JUMPDEST PUSH1 0x8 SLOAD DUP2 JUMP JUMPDEST PUSH1 0x2 SLOAD DUP2 JUMP JUMPDEST PUSH1 0x0 PUSH1 0x5 PUSH1 0x0 SWAP1 SLOAD SWAP1 PUSH2 0x100 EXP SWAP1 DIV PUSH20 0xFFFFFFFFFFFFFFFFFFFFFFFFFFFFFFFFFFFFFFFF AND SWAP1 POP DUP1 PUSH20 0xFFFFFFFFFFFFFFFFFFFFFFFFFFFFFFFFFFFFFFFF AND PUSH4 0x23B872DD CALLER ADDRESS DUP6 PUSH1 0x40 MLOAD DUP5 PUSH4 0xFFFFFFFF AND PUSH1 0xE0 SHL DUP2 MSTORE PUSH1 0x4 ADD PUSH2 0x122D SWAP4 SWAP3 SWAP2 SWAP1 PUSH2 0x335F JUMP JUMPDEST PUSH1 0x20 PUSH1 0x40 MLOAD DUP1 DUP4 SUB DUP2 PUSH1 0x0 DUP8 DUP1 EXTCODESIZE ISZERO DUP1 ISZERO PUSH2 0x1247 JUMPI PUSH1 0x0 DUP1 REVERT JUMPDEST POP GAS CALL ISZERO DUP1 ISZERO PUSH2 0x125B JUMPI RETURNDATASIZE PUSH1 0x0 DUP1 RETURNDATACOPY RETURNDATASIZE PUSH1 0x0 REVERT JUMPDEST POP POP POP POP PUSH1 0x40 MLOAD RETURNDATASIZE PUSH1 0x1F NOT PUSH1 0x1F DUP3 ADD AND DUP3 ADD DUP1 PUSH1 0x40 MSTORE POP DUP2 ADD SWAP1 PUSH2 0x127F SWAP2 SWAP1 PUSH2 0x2C61 JUMP JUMPDEST PUSH2 0x12BE JUMPI PUSH1 0x40 MLOAD PUSH32 0x8C379A000000000000000000000000000000000000000000000000000000000 DUP2 MSTORE PUSH1 0x4 ADD PUSH2 0x12B5 SWAP1 PUSH2 0x35D1 JUMP JUMPDEST PUSH1 0x40 MLOAD DUP1 SWAP2 SUB SWAP1 REVERT JUMPDEST PUSH1 0x0 PUSH1 0x1 PUSH1 0x0 CALLER PUSH20 0xFFFFFFFFFFFFFFFFFFFFFFFFFFFFFFFFFFFFFFFF AND PUSH20 0xFFFFFFFFFFFFFFFFFFFFFFFFFFFFFFFFFFFFFFFF AND DUP2 MSTORE PUSH1 0x20 ADD SWAP1 DUP2 MSTORE PUSH1 0x20 ADD PUSH1 0x0 KECCAK256 PUSH1 0x0 ADD SLOAD SWAP1 POP DUP3 DUP2 PUSH2 0x1311 SWAP2 SWAP1 PUSH2 0x377F JUMP JUMPDEST PUSH1 0x1 PUSH1 0x0 CALLER PUSH20 0xFFFFFFFFFFFFFFFFFFFFFFFFFFFFFFFFFFFFFFFF AND PUSH20 0xFFFFFFFFFFFFFFFFFFFFFFFFFFFFFFFFFFFFFFFF AND DUP2 MSTORE PUSH1 0x20 ADD SWAP1 DUP2 MSTORE PUSH1 0x20 ADD PUSH1 0x0 KECCAK256 PUSH1 0x0 ADD DUP2 SWAP1 SSTORE POP CALLER PUSH20 0xFFFFFFFFFFFFFFFFFFFFFFFFFFFFFFFFFFFFFFFF AND PUSH32 0xE1FFFCC4923D04B559F4D29A8BFC6CDA04EB5B0D3C460751C2402C5C5CC9109C DUP5 PUSH1 0x40 MLOAD PUSH2 0x139D SWAP2 SWAP1 PUSH2 0x3651 JUMP JUMPDEST PUSH1 0x40 MLOAD DUP1 SWAP2 SUB SWAP1 LOG2 POP POP POP JUMP JUMPDEST PUSH1 0x5 PUSH1 0x0 SWAP1 SLOAD SWAP1 PUSH2 0x100 EXP SWAP1 DIV PUSH20 0xFFFFFFFFFFFFFFFFFFFFFFFFFFFFFFFFFFFFFFFF AND DUP2 JUMP JUMPDEST PUSH2 0x13D8 PUSH2 0x1EC9 JUMP JUMPDEST PUSH20 0xFFFFFFFFFFFFFFFFFFFFFFFFFFFFFFFFFFFFFFFF AND PUSH2 0x13F6 PUSH2 0x1064 JUMP JUMPDEST PUSH20 0xFFFFFFFFFFFFFFFFFFFFFFFFFFFFFFFFFFFFFFFF AND EQ PUSH2 0x144C JUMPI PUSH1 0x40 MLOAD PUSH32 0x8C379A000000000000000000000000000000000000000000000000000000000 DUP2 MSTORE PUSH1 0x4 ADD PUSH2 0x1443 SWAP1 PUSH2 0x3551 JUMP JUMPDEST PUSH1 0x40 MLOAD DUP1 SWAP2 SUB SWAP1 REVERT JUMPDEST PUSH2 0x2710 DUP4 GT ISZERO DUP1 ISZERO PUSH2 0x145F JUMPI POP PUSH1 0x0 DUP4 LT ISZERO JUMPDEST PUSH2 0x149E JUMPI PUSH1 0x40 MLOAD PUSH32 0x8C379A000000000000000000000000000000000000000000000000000000000 DUP2 MSTORE PUSH1 0x4 ADD PUSH2 0x1495 SWAP1 PUSH2 0x3571 JUMP JUMPDEST PUSH1 0x40 MLOAD DUP1 SWAP2 SUB SWAP1 REVERT JUMPDEST PUSH2 0x2710 DUP3 GT ISZERO DUP1 ISZERO PUSH2 0x14B1 JUMPI POP PUSH1 0x0 DUP3 LT ISZERO JUMPDEST DUP1 ISZERO PUSH2 0x14BD JUMPI POP DUP3 DUP3 GT ISZERO JUMPDEST PUSH2 0x14FC JUMPI PUSH1 0x40 MLOAD PUSH32 0x8C379A000000000000000000000000000000000000000000000000000000000 DUP2 MSTORE PUSH1 0x4 ADD PUSH2 0x14F3 SWAP1 PUSH2 0x3451 JUMP JUMPDEST PUSH1 0x40 MLOAD DUP1 SWAP2 SUB SWAP1 REVERT JUMPDEST DUP3 PUSH1 0x8 DUP2 SWAP1 SSTORE POP DUP2 PUSH1 0x9 DUP2 SWAP1 SSTORE POP PUSH2 0x2710 DUP2 GT ISZERO DUP1 ISZERO PUSH2 0x151D JUMPI POP PUSH1 0x0 DUP2 LT ISZERO JUMPDEST PUSH2 0x155C JUMPI PUSH1 0x40 MLOAD PUSH32 0x8C379A000000000000000000000000000000000000000000000000000000000 DUP2 MSTORE PUSH1 0x4 ADD PUSH2 0x1553 SWAP1 PUSH2 0x35F1 JUMP JUMPDEST PUSH1 0x40 MLOAD DUP1 SWAP2 SUB SWAP1 REVERT JUMPDEST DUP1 PUSH1 0xA DUP2 SWAP1 SSTORE POP POP POP POP JUMP JUMPDEST PUSH1 0x0 DUP2 GT PUSH2 0x15AB JUMPI PUSH1 0x40 MLOAD PUSH32 0x8C379A000000000000000000000000000000000000000000000000000000000 DUP2 MSTORE PUSH1 0x4 ADD PUSH2 0x15A2 SWAP1 PUSH2 0x3471 JUMP JUMPDEST PUSH1 0x40 MLOAD DUP1 SWAP2 SUB SWAP1 REVERT JUMPDEST PUSH1 0x0 PUSH2 0x15B6 CALLER PUSH2 0xB4B JUMP JUMPDEST SWAP1 POP PUSH1 0xB SLOAD PUSH2 0x161D CALLER DUP5 DUP5 PUSH1 0x1 PUSH1 0x0 CALLER PUSH20 0xFFFFFFFFFFFFFFFFFFFFFFFFFFFFFFFFFFFFFFFF AND PUSH20 0xFFFFFFFFFFFFFFFFFFFFFFFFFFFFFFFFFFFFFFFF AND DUP2 MSTORE PUSH1 0x20 ADD SWAP1 DUP2 MSTORE PUSH1 0x20 ADD PUSH1 0x0 KECCAK256 PUSH1 0x1 ADD SLOAD PUSH2 0x160E SWAP2 SWAP1 PUSH2 0x377F JUMP JUMPDEST PUSH2 0x1618 SWAP2 SWAP1 PUSH2 0x377F JUMP JUMPDEST PUSH2 0xDBA JUMP JUMPDEST LT ISZERO PUSH2 0x165E JUMPI PUSH1 0x40 MLOAD PUSH32 0x8C379A000000000000000000000000000000000000000000000000000000000 DUP2 MSTORE PUSH1 0x4 ADD PUSH2 0x1655 SWAP1 PUSH2 0x3411 JUMP JUMPDEST PUSH1 0x40 MLOAD DUP1 SWAP2 SUB SWAP1 REVERT JUMPDEST DUP1 DUP3 PUSH2 0x166A SWAP2 SWAP1 PUSH2 0x377F JUMP JUMPDEST PUSH1 0x1 PUSH1 0x0 CALLER PUSH20 0xFFFFFFFFFFFFFFFFFFFFFFFFFFFFFFFFFFFFFFFF AND PUSH20 0xFFFFFFFFFFFFFFFFFFFFFFFFFFFFFFFFFFFFFFFF AND DUP2 MSTORE PUSH1 0x20 ADD SWAP1 DUP2 MSTORE PUSH1 0x20 ADD PUSH1 0x0 KECCAK256 PUSH1 0x1 ADD PUSH1 0x0 DUP3 DUP3 SLOAD PUSH2 0x16BB SWAP2 SWAP1 PUSH2 0x377F JUMP JUMPDEST SWAP3 POP POP DUP2 SWAP1 SSTORE POP TIMESTAMP PUSH1 0x1 PUSH1 0x0 CALLER PUSH20 0xFFFFFFFFFFFFFFFFFFFFFFFFFFFFFFFFFFFFFFFF AND PUSH20 0xFFFFFFFFFFFFFFFFFFFFFFFFFFFFFFFFFFFFFFFF AND DUP2 MSTORE PUSH1 0x20 ADD SWAP1 DUP2 MSTORE PUSH1 0x20 ADD PUSH1 0x0 KECCAK256 PUSH1 0x2 ADD DUP2 SWAP1 SSTORE POP CALLER PUSH20 0xFFFFFFFFFFFFFFFFFFFFFFFFFFFFFFFFFFFFFFFF AND PUSH32 0x13ED6866D4E1EE6DA46F845C46D7E54120883D75C5EA9A2DACC1C4CA8984AB80 DUP4 PUSH1 0x1 PUSH1 0x0 CALLER PUSH20 0xFFFFFFFFFFFFFFFFFFFFFFFFFFFFFFFFFFFFFFFF AND PUSH20 0xFFFFFFFFFFFFFFFFFFFFFFFFFFFFFFFFFFFFFFFF AND DUP2 MSTORE PUSH1 0x20 ADD SWAP1 DUP2 MSTORE PUSH1 0x20 ADD PUSH1 0x0 KECCAK256 PUSH1 0x1 ADD SLOAD PUSH1 0x1 PUSH1 0x0 CALLER PUSH20 0xFFFFFFFFFFFFFFFFFFFFFFFFFFFFFFFFFFFFFFFF AND PUSH20 0xFFFFFFFFFFFFFFFFFFFFFFFFFFFFFFFFFFFFFFFF AND DUP2 MSTORE PUSH1 0x20 ADD SWAP1 DUP2 MSTORE PUSH1 0x20 ADD PUSH1 0x0 KECCAK256 PUSH1 0x0 ADD SLOAD PUSH1 0x40 MLOAD PUSH2 0x17D7 SWAP4 SWAP3 SWAP2 SWAP1 PUSH2 0x369C JUMP JUMPDEST PUSH1 0x40 MLOAD DUP1 SWAP2 SUB SWAP1 LOG2 POP POP JUMP JUMPDEST PUSH1 0x0 PUSH2 0x1831 DUP3 PUSH1 0x1 PUSH1 0x0 DUP6 PUSH20 0xFFFFFFFFFFFFFFFFFFFFFFFFFFFFFFFFFFFFFFFF AND PUSH20 0xFFFFFFFFFFFFFFFFFFFFFFFFFFFFFFFFFFFFFFFF AND DUP2 MSTORE PUSH1 0x20 ADD SWAP1 DUP2 MSTORE PUSH1 0x20 ADD PUSH1 0x0 KECCAK256 PUSH1 0x1 ADD SLOAD PUSH2 0x1CD7 JUMP JUMPDEST SWAP1 POP SWAP2 SWAP1 POP JUMP JUMPDEST PUSH2 0x1840 PUSH2 0x1EC9 JUMP JUMPDEST PUSH20 0xFFFFFFFFFFFFFFFFFFFFFFFFFFFFFFFFFFFFFFFF AND PUSH2 0x185E PUSH2 0x1064 JUMP JUMPDEST PUSH20 0xFFFFFFFFFFFFFFFFFFFFFFFFFFFFFFFFFFFFFFFF AND EQ PUSH2 0x18B4 JUMPI PUSH1 0x40 MLOAD PUSH32 0x8C379A000000000000000000000000000000000000000000000000000000000 DUP2 MSTORE PUSH1 0x4 ADD PUSH2 0x18AB SWAP1 PUSH2 0x3551 JUMP JUMPDEST PUSH1 0x40 MLOAD DUP1 SWAP2 SUB SWAP1 REVERT JUMPDEST PUSH2 0x2710 DUP3 LT ISZERO PUSH2 0x18F9 JUMPI PUSH1 0x40 MLOAD PUSH32 0x8C379A000000000000000000000000000000000000000000000000000000000 DUP2 MSTORE PUSH1 0x4 ADD PUSH2 0x18F0 SWAP1 PUSH2 0x34F1 JUMP JUMPDEST PUSH1 0x40 MLOAD DUP1 SWAP2 SUB SWAP1 REVERT JUMPDEST PUSH2 0x2710 DUP2 LT ISZERO PUSH2 0x193E JUMPI PUSH1 0x40 MLOAD PUSH32 0x8C379A000000000000000000000000000000000000000000000000000000000 DUP2 MSTORE PUSH1 0x4 ADD PUSH2 0x1935 SWAP1 PUSH2 0x3611 JUMP JUMPDEST PUSH1 0x40 MLOAD DUP1 SWAP2 SUB SWAP1 REVERT JUMPDEST DUP2 PUSH1 0xB DUP2 SWAP1 SSTORE POP DUP1 PUSH1 0xC DUP2 SWAP1 SSTORE POP POP POP JUMP JUMPDEST PUSH2 0x2710 DUP2 JUMP JUMPDEST PUSH2 0x195E PUSH2 0x1EC9 JUMP JUMPDEST PUSH20 0xFFFFFFFFFFFFFFFFFFFFFFFFFFFFFFFFFFFFFFFF AND PUSH2 0x197C PUSH2 0x1064 JUMP JUMPDEST PUSH20 0xFFFFFFFFFFFFFFFFFFFFFFFFFFFFFFFFFFFFFFFF AND EQ PUSH2 0x19D2 JUMPI PUSH1 0x40 MLOAD PUSH32 0x8C379A000000000000000000000000000000000000000000000000000000000 DUP2 MSTORE PUSH1 0x4 ADD PUSH2 0x19C9 SWAP1 PUSH2 0x3551 JUMP JUMPDEST PUSH1 0x40 MLOAD DUP1 SWAP2 SUB SWAP1 REVERT JUMPDEST PUSH1 0x0 PUSH20 0xFFFFFFFFFFFFFFFFFFFFFFFFFFFFFFFFFFFFFFFF AND DUP2 PUSH20 0xFFFFFFFFFFFFFFFFFFFFFFFFFFFFFFFFFFFFFFFF AND EQ ISZERO PUSH2 0x1A42 JUMPI PUSH1 0x40 MLOAD PUSH32 0x8C379A000000000000000000000000000000000000000000000000000000000 DUP2 MSTORE PUSH1 0x4 ADD PUSH2 0x1A39 SWAP1 PUSH2 0x3431 JUMP JUMPDEST PUSH1 0x40 MLOAD DUP1 SWAP2 SUB SWAP1 REVERT JUMPDEST DUP1 PUSH20 0xFFFFFFFFFFFFFFFFFFFFFFFFFFFFFFFFFFFFFFFF AND PUSH1 0x0 DUP1 SLOAD SWAP1 PUSH2 0x100 EXP SWAP1 DIV PUSH20 0xFFFFFFFFFFFFFFFFFFFFFFFFFFFFFFFFFFFFFFFF AND PUSH20 0xFFFFFFFFFFFFFFFFFFFFFFFFFFFFFFFFFFFFFFFF AND PUSH32 0x8BE0079C531659141344CD1FD0A4F28419497F9722A3DAAFE3B4186F6B6457E0 PUSH1 0x40 MLOAD PUSH1 0x40 MLOAD DUP1 SWAP2 SUB SWAP1 LOG3 DUP1 PUSH1 0x0 DUP1 PUSH2 0x100 EXP DUP2 SLOAD DUP2 PUSH20 0xFFFFFFFFFFFFFFFFFFFFFFFFFFFFFFFFFFFFFFFF MUL NOT AND SWAP1 DUP4 PUSH20 0xFFFFFFFFFFFFFFFFFFFFFFFFFFFFFFFFFFFFFFFF AND MUL OR SWAP1 SSTORE POP POP JUMP JUMPDEST PUSH1 0x0 PUSH8 0x7FFFFFFFFFFFFFFF DUP3 GT ISZERO PUSH2 0x1B16 JUMPI PUSH1 0x0 DUP1 REVERT JUMPDEST PUSH1 0x40 DUP3 SWAP1 SHL SWAP1 POP SWAP2 SWAP1 POP JUMP JUMPDEST PUSH1 0x0 DUP1 DUP3 PUSH1 0xF SIGNEXTEND EQ ISZERO PUSH2 0x1B34 JUMPI PUSH1 0x0 DUP1 REVERT JUMPDEST PUSH1 0x0 DUP3 PUSH1 0xF SIGNEXTEND PUSH1 0x40 DUP6 PUSH1 0xF SIGNEXTEND SWAP1 SHL DUP2 PUSH2 0x1B76 JUMPI PUSH32 0x4E487B7100000000000000000000000000000000000000000000000000000000 PUSH1 0x0 MSTORE PUSH1 0x12 PUSH1 0x4 MSTORE PUSH1 0x24 PUSH1 0x0 REVERT JUMPDEST SDIV SWAP1 POP PUSH32 0xFFFFFFFFFFFFFFFFFFFFFFFFFFFFFFFF80000000000000000000000000000000 PUSH1 0xF SIGNEXTEND DUP2 SLT ISZERO DUP1 ISZERO PUSH2 0x1BBF JUMPI POP PUSH16 0x7FFFFFFFFFFFFFFFFFFFFFFFFFFFFFFF PUSH1 0xF SIGNEXTEND DUP2 SGT ISZERO JUMPDEST PUSH2 0x1BC8 JUMPI PUSH1 0x0 DUP1 REVERT JUMPDEST DUP1 SWAP2 POP POP SWAP3 SWAP2 POP POP JUMP JUMPDEST PUSH1 0x0 DUP1 PUSH1 0x40 DUP4 PUSH1 0xF SIGNEXTEND DUP6 PUSH1 0xF SIGNEXTEND MUL SWAP1 SAR SWAP1 POP PUSH32 0xFFFFFFFFFFFFFFFFFFFFFFFFFFFFFFFF80000000000000000000000000000000 PUSH1 0xF SIGNEXTEND DUP2 SLT ISZERO DUP1 ISZERO PUSH2 0x1C2A JUMPI POP PUSH16 0x7FFFFFFFFFFFFFFFFFFFFFFFFFFFFFFF PUSH1 0xF SIGNEXTEND DUP2 SGT ISZERO JUMPDEST PUSH2 0x1C33 JUMPI PUSH1 0x0 DUP1 REVERT JUMPDEST DUP1 SWAP2 POP POP SWAP3 SWAP2 POP POP JUMP JUMPDEST PUSH1 0x0 PUSH9 0x400000000000000000 DUP3 PUSH1 0xF SIGNEXTEND SLT PUSH2 0x1C57 JUMPI PUSH1 0x0 DUP1 REVERT JUMPDEST PUSH32 0xFFFFFFFFFFFFFFFFFFFFFFFFFFFFFFFFFFFFFFFFFFFFFFC00000000000000000 DUP3 PUSH1 0xF SIGNEXTEND SLT ISZERO PUSH2 0x1C8B JUMPI PUSH1 0x0 SWAP1 POP PUSH2 0x1CB1 JUMP JUMPDEST PUSH2 0x1CAE PUSH1 0x80 PUSH17 0x171547652B82FE1777D0FFDA0D23A7D12 DUP5 PUSH1 0xF SIGNEXTEND MUL SWAP1 SAR PUSH2 0x1ED1 JUMP JUMPDEST SWAP1 POP JUMPDEST SWAP2 SWAP1 POP JUMP JUMPDEST PUSH1 0x0 DUP1 DUP3 PUSH1 0xF SIGNEXTEND SLT ISZERO PUSH2 0x1CC8 JUMPI PUSH1 0x0 DUP1 REVERT JUMPDEST PUSH1 0x40 DUP3 PUSH1 0xF SIGNEXTEND SWAP1 SAR SWAP1 POP SWAP2 SWAP1 POP JUMP JUMPDEST PUSH1 0x0 DUP1 PUSH1 0x1 PUSH1 0x0 DUP6 PUSH20 0xFFFFFFFFFFFFFFFFFFFFFFFFFFFFFFFFFFFFFFFF AND PUSH20 0xFFFFFFFFFFFFFFFFFFFFFFFFFFFFFFFFFFFFFFFF AND DUP2 MSTORE PUSH1 0x20 ADD SWAP1 DUP2 MSTORE PUSH1 0x20 ADD PUSH1 0x0 KECCAK256 PUSH1 0x0 ADD SLOAD SWAP1 POP PUSH1 0x0 DUP2 EQ ISZERO PUSH2 0x1D32 JUMPI PUSH1 0x0 SWAP2 POP POP PUSH2 0x1EC3 JUMP JUMPDEST PUSH1 0x0 DUP4 EQ ISZERO PUSH2 0x1D64 JUMPI PUSH32 0xFFFFFFFFFFFFFFFFFFFFFFFFFFFFFFFFFFFFFFFFFFFFFFFFFFFFFFFFFFFFFFFF SWAP2 POP POP PUSH2 0x1EC3 JUMP JUMPDEST PUSH1 0x0 DUP2 GT PUSH2 0x1DA7 JUMPI PUSH1 0x40 MLOAD PUSH32 0x8C379A000000000000000000000000000000000000000000000000000000000 DUP2 MSTORE PUSH1 0x4 ADD PUSH2 0x1D9E SWAP1 PUSH2 0x35B1 JUMP JUMPDEST PUSH1 0x40 MLOAD DUP1 SWAP2 SUB SWAP1 REVERT JUMPDEST PUSH1 0x0 PUSH1 0x6 PUSH1 0x0 SWAP1 SLOAD SWAP1 PUSH2 0x100 EXP SWAP1 DIV PUSH20 0xFFFFFFFFFFFFFFFFFFFFFFFFFFFFFFFFFFFFFFFF AND SWAP1 POP PUSH1 0x0 DUP2 PUSH20 0xFFFFFFFFFFFFFFFFFFFFFFFFFFFFFFFFFFFFFFFF AND PUSH4 0xD06CA61F DUP5 PUSH1 0x7 PUSH1 0x40 MLOAD DUP4 PUSH4 0xFFFFFFFF AND PUSH1 0xE0 SHL DUP2 MSTORE PUSH1 0x4 ADD PUSH2 0x1E0C SWAP3 SWAP2 SWAP1 PUSH2 0x366C JUMP JUMPDEST PUSH1 0x0 PUSH1 0x40 MLOAD DUP1 DUP4 SUB DUP2 DUP7 DUP1 EXTCODESIZE ISZERO DUP1 ISZERO PUSH2 0x1E24 JUMPI PUSH1 0x0 DUP1 REVERT JUMPDEST POP GAS STATICCALL ISZERO DUP1 ISZERO PUSH2 0x1E38 JUMPI RETURNDATASIZE PUSH1 0x0 DUP1 RETURNDATACOPY RETURNDATASIZE PUSH1 0x0 REVERT JUMPDEST POP POP POP POP PUSH1 0x40 MLOAD RETURNDATASIZE PUSH1 0x0 DUP3 RETURNDATACOPY RETURNDATASIZE PUSH1 0x1F NOT PUSH1 0x1F DUP3 ADD AND DUP3 ADD DUP1 PUSH1 0x40 MSTORE POP DUP2 ADD SWAP1 PUSH2 0x1E61 SWAP2 SWAP1 PUSH2 0x2C20 JUMP JUMPDEST PUSH1 0x1 DUP2 MLOAD DUP2 LT PUSH2 0x1E9A JUMPI PUSH32 0x4E487B7100000000000000000000000000000000000000000000000000000000 PUSH1 0x0 MSTORE PUSH1 0x32 PUSH1 0x4 MSTORE PUSH1 0x24 PUSH1 0x0 REVERT JUMPDEST PUSH1 0x20 MUL PUSH1 0x20 ADD ADD MLOAD SWAP1 POP DUP5 PUSH2 0x2710 DUP3 PUSH2 0x1EB3 SWAP2 SWAP1 PUSH2 0x3806 JUMP JUMPDEST PUSH2 0x1EBD SWAP2 SWAP1 PUSH2 0x37D5 JUMP JUMPDEST SWAP4 POP POP POP POP JUMPDEST SWAP3 SWAP2 POP POP JUMP JUMPDEST PUSH1 0x0 CALLER SWAP1 POP SWAP1 JUMP JUMPDEST PUSH1 0x0 PUSH9 0x400000000000000000 DUP3 PUSH1 0xF SIGNEXTEND SLT PUSH2 0x1EEB JUMPI PUSH1 0x0 DUP1 REVERT JUMPDEST PUSH32 0xFFFFFFFFFFFFFFFFFFFFFFFFFFFFFFFFFFFFFFFFFFFFFFC00000000000000000 DUP3 PUSH1 0xF SIGNEXTEND SLT ISZERO PUSH2 0x1F1F JUMPI PUSH1 0x0 SWAP1 POP PUSH2 0x2ACC JUMP JUMPDEST PUSH1 0x0 PUSH16 0x80000000000000000000000000000000 SWAP1 POP PUSH1 0x0 PUSH8 0x8000000000000000 DUP5 AND PUSH1 0xF SIGNEXTEND SGT ISZERO PUSH2 0x1F65 JUMPI PUSH1 0x80 PUSH17 0x16A09E667F3BCC908B2FB1366EA957D3E DUP3 MUL SWAP1 SHR SWAP1 POP JUMPDEST PUSH1 0x0 PUSH8 0x4000000000000000 DUP5 AND PUSH1 0xF SIGNEXTEND SGT ISZERO PUSH2 0x1F96 JUMPI PUSH1 0x80 PUSH17 0x1306FE0A31B7152DE8D5A46305C85EDEC DUP3 MUL SWAP1 SHR SWAP1 POP JUMPDEST PUSH1 0x0 PUSH8 0x2000000000000000 DUP5 AND PUSH1 0xF SIGNEXTEND SGT ISZERO PUSH2 0x1FC7 JUMPI PUSH1 0x80 PUSH17 0x1172B83C7D517ADCDF7C8C50EB14A791F DUP3 MUL SWAP1 SHR SWAP1 POP JUMPDEST PUSH1 0x0 PUSH8 0x1000000000000000 DUP5 AND PUSH1 0xF SIGNEXTEND SGT ISZERO PUSH2 0x1FF8 JUMPI PUSH1 0x80 PUSH17 0x10B5586CF9890F6298B92B71842A98363 DUP3 MUL SWAP1 SHR SWAP1 POP JUMPDEST PUSH1 0x0 PUSH8 0x800000000000000 DUP5 AND PUSH1 0xF SIGNEXTEND SGT ISZERO PUSH2 0x2029 JUMPI PUSH1 0x80 PUSH17 0x1059B0D31585743AE7C548EB68CA417FD DUP3 MUL SWAP1 SHR SWAP1 POP JUMPDEST PUSH1 0x0 PUSH8 0x400000000000000 DUP5 AND PUSH1 0xF SIGNEXTEND SGT ISZERO PUSH2 0x205A JUMPI PUSH1 0x80 PUSH17 0x102C9A3E778060EE6F7CACA4F7A29BDE8 DUP3 MUL SWAP1 SHR SWAP1 POP JUMPDEST PUSH1 0x0 PUSH8 0x200000000000000 DUP5 AND PUSH1 0xF SIGNEXTEND SGT ISZERO PUSH2 0x208B JUMPI PUSH1 0x80 PUSH17 0x10163DA9FB33356D84A66AE336DCDFA3F DUP3 MUL SWAP1 SHR SWAP1 POP JUMPDEST PUSH1 0x0 PUSH8 0x100000000000000 DUP5 AND PUSH1 0xF SIGNEXTEND SGT ISZERO PUSH2 0x20BC JUMPI PUSH1 0x80 PUSH17 0x100B1AFA5ABCBED6129AB13EC11DC9543 DUP3 MUL SWAP1 SHR SWAP1 POP JUMPDEST PUSH1 0x0 PUSH7 0x80000000000000 DUP5 AND PUSH1 0xF SIGNEXTEND SGT ISZERO PUSH2 0x20EC JUMPI PUSH1 0x80 PUSH17 0x10058C86DA1C09EA1FF19D294CF2F679B DUP3 MUL SWAP1 SHR SWAP1 POP JUMPDEST PUSH1 0x0 PUSH7 0x40000000000000 DUP5 AND PUSH1 0xF SIGNEXTEND SGT ISZERO PUSH2 0x211C JUMPI PUSH1 0x80 PUSH17 0x1002C605E2E8CEC506D21BFC89A23A00F DUP3 MUL SWAP1 SHR SWAP1 POP JUMPDEST PUSH1 0x0 PUSH7 0x20000000000000 DUP5 AND PUSH1 0xF SIGNEXTEND SGT ISZERO PUSH2 0x214C JUMPI PUSH1 0x80 PUSH17 0x100162F3904051FA128BCA9C55C31E5DF DUP3 MUL SWAP1 SHR SWAP1 POP JUMPDEST PUSH1 0x0 PUSH7 0x10000000000000 DUP5 AND PUSH1 0xF SIGNEXTEND SGT ISZERO PUSH2 0x217C JUMPI PUSH1 0x80 PUSH17 0x1000B175EFFDC76BA38E31671CA939725 DUP3 MUL SWAP1 SHR SWAP1 POP JUMPDEST PUSH1 0x0 PUSH7 0x8000000000000 DUP5 AND PUSH1 0xF SIGNEXTEND SGT ISZERO PUSH2 0x21AC JUMPI PUSH1 0x80 PUSH17 0x100058BA01FB9F96D6CACD4B180917C3D DUP3 MUL SWAP1 SHR SWAP1 POP JUMPDEST PUSH1 0x0 PUSH7 0x4000000000000 DUP5 AND PUSH1 0xF SIGNEXTEND SGT ISZERO PUSH2 0x21DC JUMPI PUSH1 0x80 PUSH17 0x10002C5CC37DA9491D0985C348C68E7B3 DUP3 MUL SWAP1 SHR SWAP1 POP JUMPDEST PUSH1 0x0 PUSH7 0x2000000000000 DUP5 AND PUSH1 0xF SIGNEXTEND SGT ISZERO PUSH2 0x220C JUMPI PUSH1 0x80 PUSH17 0x1000162E525EE054754457D5995292026 DUP3 MUL SWAP1 SHR SWAP1 POP JUMPDEST PUSH1 0x0 PUSH7 0x1000000000000 DUP5 AND PUSH1 0xF SIGNEXTEND SGT ISZERO PUSH2 0x223C JUMPI PUSH1 0x80 PUSH17 0x10000B17255775C040618BF4A4ADE83FC DUP3 MUL SWAP1 SHR SWAP1 POP JUMPDEST PUSH1 0x0 PUSH6 0x800000000000 DUP5 AND PUSH1 0xF SIGNEXTEND SGT ISZERO PUSH2 0x226B JUMPI PUSH1 0x80 PUSH17 0x1000058B91B5BC9AE2EED81E9B7D4CFAB DUP3 MUL SWAP1 SHR SWAP1 POP JUMPDEST PUSH1 0x0 PUSH6 0x400000000000 DUP5 AND PUSH1 0xF SIGNEXTEND SGT ISZERO PUSH2 0x229A JUMPI PUSH1 0x80 PUSH17 0x100002C5C89D5EC6CA4D7C8ACC017B7C9 DUP3 MUL SWAP1 SHR SWAP1 POP JUMPDEST PUSH1 0x0 PUSH6 0x200000000000 DUP5 AND PUSH1 0xF SIGNEXTEND SGT ISZERO PUSH2 0x22C9 JUMPI PUSH1 0x80 PUSH17 0x10000162E43F4F831060E02D839A9D16D DUP3 MUL SWAP1 SHR SWAP1 POP JUMPDEST PUSH1 0x0 PUSH6 0x100000000000 DUP5 AND PUSH1 0xF SIGNEXTEND SGT ISZERO PUSH2 0x22F8 JUMPI PUSH1 0x80 PUSH17 0x100000B1721BCFC99D9F890EA06911763 DUP3 MUL SWAP1 SHR SWAP1 POP JUMPDEST PUSH1 0x0 PUSH6 0x80000000000 DUP5 AND PUSH1 0xF SIGNEXTEND SGT ISZERO PUSH2 0x2327 JUMPI PUSH1 0x80 PUSH17 0x10000058B90CF1E6D97F9CA14DBCC1628 DUP3 MUL SWAP1 SHR SWAP1 POP JUMPDEST PUSH1 0x0 PUSH6 0x40000000000 DUP5 AND PUSH1 0xF SIGNEXTEND SGT ISZERO PUSH2 0x2356 JUMPI PUSH1 0x80 PUSH17 0x1000002C5C863B73F016468F6BAC5CA2B DUP3 MUL SWAP1 SHR SWAP1 POP JUMPDEST PUSH1 0x0 PUSH6 0x20000000000 DUP5 AND PUSH1 0xF SIGNEXTEND SGT ISZERO PUSH2 0x2385 JUMPI PUSH1 0x80 PUSH17 0x100000162E430E5A18F6119E3C02282A5 DUP3 MUL SWAP1 SHR SWAP1 POP JUMPDEST PUSH1 0x0 PUSH6 0x10000000000 DUP5 AND PUSH1 0xF SIGNEXTEND SGT ISZERO PUSH2 0x23B4 JUMPI PUSH1 0x80 PUSH17 0x1000000B1721835514B86E6D96EFD1BFE DUP3 MUL SWAP1 SHR SWAP1 POP JUMPDEST PUSH1 0x0 PUSH5 0x8000000000 DUP5 AND PUSH1 0xF SIGNEXTEND SGT ISZERO PUSH2 0x23E2 JUMPI PUSH1 0x80 PUSH17 0x100000058B90C0B48C6BE5DF846C5B2EF DUP3 MUL SWAP1 SHR SWAP1 POP JUMPDEST PUSH1 0x0 PUSH5 0x4000000000 DUP5 AND PUSH1 0xF SIGNEXTEND SGT ISZERO PUSH2 0x2410 JUMPI PUSH1 0x80 PUSH17 0x10000002C5C8601CC6B9E94213C72737A DUP3 MUL SWAP1 SHR SWAP1 POP JUMPDEST PUSH1 0x0 PUSH5 0x2000000000 DUP5 AND PUSH1 0xF SIGNEXTEND SGT ISZERO PUSH2 0x243E JUMPI PUSH1 0x80 PUSH17 0x1000000162E42FFF037DF38AA2B219F06 DUP3 MUL SWAP1 SHR SWAP1 POP JUMPDEST PUSH1 0x0 PUSH5 0x1000000000 DUP5 AND PUSH1 0xF SIGNEXTEND SGT ISZERO PUSH2 0x246C JUMPI PUSH1 0x80 PUSH17 0x10000000B17217FBA9C739AA5819F44F9 DUP3 MUL SWAP1 SHR SWAP1 POP JUMPDEST PUSH1 0x0 PUSH5 0x800000000 DUP5 AND PUSH1 0xF SIGNEXTEND SGT ISZERO PUSH2 0x249A JUMPI PUSH1 0x80 PUSH17 0x1000000058B90BFCDEE5ACD3C1CEDC823 DUP3 MUL SWAP1 SHR SWAP1 POP JUMPDEST PUSH1 0x0 PUSH5 0x400000000 DUP5 AND PUSH1 0xF SIGNEXTEND SGT ISZERO PUSH2 0x24C8 JUMPI PUSH1 0x80 PUSH17 0x100000002C5C85FE31F35A6A30DA1BE50 DUP3 MUL SWAP1 SHR SWAP1 POP JUMPDEST PUSH1 0x0 PUSH5 0x200000000 DUP5 AND PUSH1 0xF SIGNEXTEND SGT ISZERO PUSH2 0x24F6 JUMPI PUSH1 0x80 PUSH17 0x10000000162E42FF0999CE3541B9FFFCF DUP3 MUL SWAP1 SHR SWAP1 POP JUMPDEST PUSH1 0x0 PUSH5 0x100000000 DUP5 AND PUSH1 0xF SIGNEXTEND SGT ISZERO PUSH2 0x2524 JUMPI PUSH1 0x80 PUSH17 0x100000000B17217F80F4EF5AADDA45554 DUP3 MUL SWAP1 SHR SWAP1 POP JUMPDEST PUSH1 0x0 PUSH4 0x80000000 DUP5 AND PUSH1 0xF SIGNEXTEND SGT ISZERO PUSH2 0x2551 JUMPI PUSH1 0x80 PUSH17 0x10000000058B90BFBF8479BD5A81B51AD DUP3 MUL SWAP1 SHR SWAP1 POP JUMPDEST PUSH1 0x0 PUSH4 0x40000000 DUP5 AND PUSH1 0xF SIGNEXTEND SGT ISZERO PUSH2 0x257E JUMPI PUSH1 0x80 PUSH17 0x1000000002C5C85FDF84BD62AE30A74CC DUP3 MUL SWAP1 SHR SWAP1 POP JUMPDEST PUSH1 0x0 PUSH4 0x20000000 DUP5 AND PUSH1 0xF SIGNEXTEND SGT ISZERO PUSH2 0x25AB JUMPI PUSH1 0x80 PUSH17 0x100000000162E42FEFB2FED257559BDAA DUP3 MUL SWAP1 SHR SWAP1 POP JUMPDEST PUSH1 0x0 PUSH4 0x10000000 DUP5 AND PUSH1 0xF SIGNEXTEND SGT ISZERO PUSH2 0x25D8 JUMPI PUSH1 0x80 PUSH17 0x1000000000B17217F7D5A7716BBA4A9AE DUP3 MUL SWAP1 SHR SWAP1 POP JUMPDEST PUSH1 0x0 PUSH4 0x8000000 DUP5 AND PUSH1 0xF SIGNEXTEND SGT ISZERO PUSH2 0x2605 JUMPI PUSH1 0x80 PUSH17 0x100000000058B90BFBE9DDBAC5E109CCE DUP3 MUL SWAP1 SHR SWAP1 POP JUMPDEST PUSH1 0x0 PUSH4 0x4000000 DUP5 AND PUSH1 0xF SIGNEXTEND SGT ISZERO PUSH2 0x2632 JUMPI PUSH1 0x80 PUSH17 0x10000000002C5C85FDF4B15DE6F17EB0D DUP3 MUL SWAP1 SHR SWAP1 POP JUMPDEST PUSH1 0x0 PUSH4 0x2000000 DUP5 AND PUSH1 0xF SIGNEXTEND SGT ISZERO PUSH2 0x265F JUMPI PUSH1 0x80 PUSH17 0x1000000000162E42FEFA494F1478FDE05 DUP3 MUL SWAP1 SHR SWAP1 POP JUMPDEST PUSH1 0x0 PUSH4 0x1000000 DUP5 AND PUSH1 0xF SIGNEXTEND SGT ISZERO PUSH2 0x268C JUMPI PUSH1 0x80 PUSH17 0x10000000000B17217F7D20CF927C8E94C DUP3 MUL SWAP1 SHR SWAP1 POP JUMPDEST PUSH1 0x0 PUSH3 0x800000 DUP5 AND PUSH1 0xF SIGNEXTEND SGT ISZERO PUSH2 0x26B8 JUMPI PUSH1 0x80 PUSH17 0x1000000000058B90BFBE8F71CB4E4B33D DUP3 MUL SWAP1 SHR SWAP1 POP JUMPDEST PUSH1 0x0 PUSH3 0x400000 DUP5 AND PUSH1 0xF SIGNEXTEND SGT ISZERO PUSH2 0x26E4 JUMPI PUSH1 0x80 PUSH17 0x100000000002C5C85FDF477B662B26945 DUP3 MUL SWAP1 SHR SWAP1 POP JUMPDEST PUSH1 0x0 PUSH3 0x200000 DUP5 AND PUSH1 0xF SIGNEXTEND SGT ISZERO PUSH2 0x2710 JUMPI PUSH1 0x80 PUSH17 0x10000000000162E42FEFA3AE53369388C DUP3 MUL SWAP1 SHR SWAP1 POP JUMPDEST PUSH1 0x0 PUSH3 0x100000 DUP5 AND PUSH1 0xF SIGNEXTEND SGT ISZERO PUSH2 0x273C JUMPI PUSH1 0x80 PUSH17 0x100000000000B17217F7D1D351A389D40 DUP3 MUL SWAP1 SHR SWAP1 POP JUMPDEST PUSH1 0x0 PUSH3 0x80000 DUP5 AND PUSH1 0xF SIGNEXTEND SGT ISZERO PUSH2 0x2768 JUMPI PUSH1 0x80 PUSH17 0x10000000000058B90BFBE8E8B2D3D4EDE DUP3 MUL SWAP1 SHR SWAP1 POP JUMPDEST PUSH1 0x0 PUSH3 0x40000 DUP5 AND PUSH1 0xF SIGNEXTEND SGT ISZERO PUSH2 0x2794 JUMPI PUSH1 0x80 PUSH17 0x1000000000002C5C85FDF4741BEA6E77E DUP3 MUL SWAP1 SHR SWAP1 POP JUMPDEST PUSH1 0x0 PUSH3 0x20000 DUP5 AND PUSH1 0xF SIGNEXTEND SGT ISZERO PUSH2 0x27C0 JUMPI PUSH1 0x80 PUSH17 0x100000000000162E42FEFA39FE95583C2 DUP3 MUL SWAP1 SHR SWAP1 POP JUMPDEST PUSH1 0x0 PUSH3 0x10000 DUP5 AND PUSH1 0xF SIGNEXTEND SGT ISZERO PUSH2 0x27EC JUMPI PUSH1 0x80 PUSH17 0x1000000000000B17217F7D1CFB72B45E1 DUP3 MUL SWAP1 SHR SWAP1 POP JUMPDEST PUSH1 0x0 PUSH2 0x8000 DUP5 AND PUSH1 0xF SIGNEXTEND SGT ISZERO PUSH2 0x2817 JUMPI PUSH1 0x80 PUSH17 0x100000000000058B90BFBE8E7CC35C3F0 DUP3 MUL SWAP1 SHR SWAP1 POP JUMPDEST PUSH1 0x0 PUSH2 0x4000 DUP5 AND PUSH1 0xF SIGNEXTEND SGT ISZERO PUSH2 0x2842 JUMPI PUSH1 0x80 PUSH17 0x10000000000002C5C85FDF473E242EA38 DUP3 MUL SWAP1 SHR SWAP1 POP JUMPDEST PUSH1 0x0 PUSH2 0x2000 DUP5 AND PUSH1 0xF SIGNEXTEND SGT ISZERO PUSH2 0x286D JUMPI PUSH1 0x80 PUSH17 0x1000000000000162E42FEFA39F02B772C DUP3 MUL SWAP1 SHR SWAP1 POP JUMPDEST PUSH1 0x0 PUSH2 0x1000 DUP5 AND PUSH1 0xF SIGNEXTEND SGT ISZERO PUSH2 0x2898 JUMPI PUSH1 0x80 PUSH17 0x10000000000000B17217F7D1CF7D83C1A DUP3 MUL SWAP1 SHR SWAP1 POP JUMPDEST PUSH1 0x0 PUSH2 0x800 DUP5 AND PUSH1 0xF SIGNEXTEND SGT ISZERO PUSH2 0x28C3 JUMPI PUSH1 0x80 PUSH17 0x1000000000000058B90BFBE8E7BDCBE2E DUP3 MUL SWAP1 SHR SWAP1 POP JUMPDEST PUSH1 0x0 PUSH2 0x400 DUP5 AND PUSH1 0xF SIGNEXTEND SGT ISZERO PUSH2 0x28EE JUMPI PUSH1 0x80 PUSH17 0x100000000000002C5C85FDF473DEA871F DUP3 MUL SWAP1 SHR SWAP1 POP JUMPDEST PUSH1 0x0 PUSH2 0x200 DUP5 AND PUSH1 0xF SIGNEXTEND SGT ISZERO PUSH2 0x2919 JUMPI PUSH1 0x80 PUSH17 0x10000000000000162E42FEFA39EF44D91 DUP3 MUL SWAP1 SHR SWAP1 POP JUMPDEST PUSH1 0x0 PUSH2 0x100 DUP5 AND PUSH1 0xF SIGNEXTEND SGT ISZERO PUSH2 0x2944 JUMPI PUSH1 0x80 PUSH17 0x100000000000000B17217F7D1CF79E949 DUP3 MUL SWAP1 SHR SWAP1 POP JUMPDEST PUSH1 0x0 PUSH1 0x80 DUP5 AND PUSH1 0xF SIGNEXTEND SGT ISZERO PUSH2 0x296E JUMPI PUSH1 0x80 PUSH17 0x10000000000000058B90BFBE8E7BCE544 DUP3 MUL SWAP1 SHR SWAP1 POP JUMPDEST PUSH1 0x0 PUSH1 0x40 DUP5 AND PUSH1 0xF SIGNEXTEND SGT ISZERO PUSH2 0x2998 JUMPI PUSH1 0x80 PUSH17 0x1000000000000002C5C85FDF473DE6ECA DUP3 MUL SWAP1 SHR SWAP1 POP JUMPDEST PUSH1 0x0 PUSH1 0x20 DUP5 AND PUSH1 0xF SIGNEXTEND SGT ISZERO PUSH2 0x29C2 JUMPI PUSH1 0x80 PUSH17 0x100000000000000162E42FEFA39EF366F DUP3 MUL SWAP1 SHR SWAP1 POP JUMPDEST PUSH1 0x0 PUSH1 0x10 DUP5 AND PUSH1 0xF SIGNEXTEND SGT ISZERO PUSH2 0x29EC JUMPI PUSH1 0x80 PUSH17 0x1000000000000000B17217F7D1CF79AFA DUP3 MUL SWAP1 SHR SWAP1 POP JUMPDEST PUSH1 0x0 PUSH1 0x8 DUP5 AND PUSH1 0xF SIGNEXTEND SGT ISZERO PUSH2 0x2A16 JUMPI PUSH1 0x80 PUSH17 0x100000000000000058B90BFBE8E7BCD6D DUP3 MUL SWAP1 SHR SWAP1 POP JUMPDEST PUSH1 0x0 PUSH1 0x4 DUP5 AND PUSH1 0xF SIGNEXTEND SGT ISZERO PUSH2 0x2A40 JUMPI PUSH1 0x80 PUSH17 0x10000000000000002C5C85FDF473DE6B2 DUP3 MUL SWAP1 SHR SWAP1 POP JUMPDEST PUSH1 0x0 PUSH1 0x2 DUP5 AND PUSH1 0xF SIGNEXTEND SGT ISZERO PUSH2 0x2A6A JUMPI PUSH1 0x80 PUSH17 0x1000000000000000162E42FEFA39EF358 DUP3 MUL SWAP1 SHR SWAP1 POP JUMPDEST PUSH1 0x0 PUSH1 0x1 DUP5 AND PUSH1 0xF SIGNEXTEND SGT ISZERO PUSH2 0x2A94 JUMPI PUSH1 0x80 PUSH17 0x10000000000000000B17217F7D1CF79AB DUP3 MUL SWAP1 SHR SWAP1 POP JUMPDEST PUSH1 0x40 DUP4 PUSH1 0xF SIGNEXTEND SWAP1 SAR PUSH1 0x3F SUB PUSH1 0xF SIGNEXTEND DUP2 SWAP1 SHR SWAP1 POP PUSH16 0x7FFFFFFFFFFFFFFFFFFFFFFFFFFFFFFF PUSH1 0xF SIGNEXTEND DUP2 GT ISZERO PUSH2 0x2AC7 JUMPI PUSH1 0x0 DUP1 REVERT JUMPDEST DUP1 SWAP2 POP POP JUMPDEST SWAP2 SWAP1 POP JUMP JUMPDEST PUSH1 0x0 PUSH2 0x2AE4 PUSH2 0x2ADF DUP5 PUSH2 0x3704 JUMP JUMPDEST PUSH2 0x36D3 JUMP JUMPDEST SWAP1 POP DUP1 DUP4 DUP3 MSTORE PUSH1 0x20 DUP3 ADD SWAP1 POP DUP3 DUP6 PUSH1 0x20 DUP7 MUL DUP3 ADD GT ISZERO PUSH2 0x2B03 JUMPI PUSH1 0x0 DUP1 REVERT JUMPDEST PUSH1 0x0 JUMPDEST DUP6 DUP2 LT ISZERO PUSH2 0x2B33 JUMPI DUP2 PUSH2 0x2B19 DUP9 DUP3 PUSH2 0x2BA6 JUMP JUMPDEST DUP5 MSTORE PUSH1 0x20 DUP5 ADD SWAP4 POP PUSH1 0x20 DUP4 ADD SWAP3 POP POP PUSH1 0x1 DUP2 ADD SWAP1 POP PUSH2 0x2B06 JUMP JUMPDEST POP POP POP SWAP4 SWAP3 POP POP POP JUMP JUMPDEST PUSH1 0x0 DUP2 CALLDATALOAD SWAP1 POP PUSH2 0x2B4C DUP2 PUSH2 0x39E2 JUMP JUMPDEST SWAP3 SWAP2 POP POP JUMP JUMPDEST PUSH1 0x0 DUP3 PUSH1 0x1F DUP4 ADD SLT PUSH2 0x2B63 JUMPI PUSH1 0x0 DUP1 REVERT JUMPDEST DUP2 MLOAD PUSH2 0x2B73 DUP5 DUP3 PUSH1 0x20 DUP7 ADD PUSH2 0x2AD1 JUMP JUMPDEST SWAP2 POP POP SWAP3 SWAP2 POP POP JUMP JUMPDEST PUSH1 0x0 DUP2 MLOAD SWAP1 POP PUSH2 0x2B8B DUP2 PUSH2 0x39F9 JUMP JUMPDEST SWAP3 SWAP2 POP POP JUMP JUMPDEST PUSH1 0x0 DUP2 CALLDATALOAD SWAP1 POP PUSH2 0x2BA0 DUP2 PUSH2 0x3A10 JUMP JUMPDEST SWAP3 SWAP2 POP POP JUMP JUMPDEST PUSH1 0x0 DUP2 MLOAD SWAP1 POP PUSH2 0x2BB5 DUP2 PUSH2 0x3A10 JUMP JUMPDEST SWAP3 SWAP2 POP POP JUMP JUMPDEST PUSH1 0x0 PUSH1 0x20 DUP3 DUP5 SUB SLT ISZERO PUSH2 0x2BCD JUMPI PUSH1 0x0 DUP1 REVERT JUMPDEST PUSH1 0x0 PUSH2 0x2BDB DUP5 DUP3 DUP6 ADD PUSH2 0x2B3D JUMP JUMPDEST SWAP2 POP POP SWAP3 SWAP2 POP POP JUMP JUMPDEST PUSH1 0x0 DUP1 PUSH1 0x40 DUP4 DUP6 SUB SLT ISZERO PUSH2 0x2BF7 JUMPI PUSH1 0x0 DUP1 REVERT JUMPDEST PUSH1 0x0 PUSH2 0x2C05 DUP6 DUP3 DUP7 ADD PUSH2 0x2B3D JUMP JUMPDEST SWAP3 POP POP PUSH1 0x20 PUSH2 0x2C16 DUP6 DUP3 DUP7 ADD PUSH2 0x2B91 JUMP JUMPDEST SWAP2 POP POP SWAP3 POP SWAP3 SWAP1 POP JUMP JUMPDEST PUSH1 0x0 PUSH1 0x20 DUP3 DUP5 SUB SLT ISZERO PUSH2 0x2C32 JUMPI PUSH1 0x0 DUP1 REVERT JUMPDEST PUSH1 0x0 DUP3 ADD MLOAD PUSH8 0xFFFFFFFFFFFFFFFF DUP2 GT ISZERO PUSH2 0x2C4C JUMPI PUSH1 0x0 DUP1 REVERT JUMPDEST PUSH2 0x2C58 DUP5 DUP3 DUP6 ADD PUSH2 0x2B52 JUMP JUMPDEST SWAP2 POP POP SWAP3 SWAP2 POP POP JUMP JUMPDEST PUSH1 0x0 PUSH1 0x20 DUP3 DUP5 SUB SLT ISZERO PUSH2 0x2C73 JUMPI PUSH1 0x0 DUP1 REVERT JUMPDEST PUSH1 0x0 PUSH2 0x2C81 DUP5 DUP3 DUP6 ADD PUSH2 0x2B7C JUMP JUMPDEST SWAP2 POP POP SWAP3 SWAP2 POP POP JUMP JUMPDEST PUSH1 0x0 PUSH1 0x20 DUP3 DUP5 SUB SLT ISZERO PUSH2 0x2C9C JUMPI PUSH1 0x0 DUP1 REVERT JUMPDEST PUSH1 0x0 PUSH2 0x2CAA DUP5 DUP3 DUP6 ADD PUSH2 0x2B91 JUMP JUMPDEST SWAP2 POP POP SWAP3 SWAP2 POP POP JUMP JUMPDEST PUSH1 0x0 DUP1 PUSH1 0x40 DUP4 DUP6 SUB SLT ISZERO PUSH2 0x2CC6 JUMPI PUSH1 0x0 DUP1 REVERT JUMPDEST PUSH1 0x0 PUSH2 0x2CD4 DUP6 DUP3 DUP7 ADD PUSH2 0x2B91 JUMP JUMPDEST SWAP3 POP POP PUSH1 0x20 PUSH2 0x2CE5 DUP6 DUP3 DUP7 ADD PUSH2 0x2B91 JUMP JUMPDEST SWAP2 POP POP SWAP3 POP SWAP3 SWAP1 POP JUMP JUMPDEST PUSH1 0x0 DUP1 PUSH1 0x0 PUSH1 0x60 DUP5 DUP7 SUB SLT ISZERO PUSH2 0x2D04 JUMPI PUSH1 0x0 DUP1 REVERT JUMPDEST PUSH1 0x0 PUSH2 0x2D12 DUP7 DUP3 DUP8 ADD PUSH2 0x2B91 JUMP JUMPDEST SWAP4 POP POP PUSH1 0x20 PUSH2 0x2D23 DUP7 DUP3 DUP8 ADD PUSH2 0x2B91 JUMP JUMPDEST SWAP3 POP POP PUSH1 0x40 PUSH2 0x2D34 DUP7 DUP3 DUP8 ADD PUSH2 0x2B91 JUMP JUMPDEST SWAP2 POP POP SWAP3 POP SWAP3 POP SWAP3 JUMP JUMPDEST PUSH1 0x0 PUSH2 0x2D4A DUP4 DUP4 PUSH2 0x2D56 JUMP JUMPDEST PUSH1 0x20 DUP4 ADD SWAP1 POP SWAP3 SWAP2 POP POP JUMP JUMPDEST PUSH2 0x2D5F DUP2 PUSH2 0x38B4 JUMP JUMPDEST DUP3 MSTORE POP POP JUMP JUMPDEST PUSH2 0x2D6E DUP2 PUSH2 0x38B4 JUMP JUMPDEST DUP3 MSTORE POP POP JUMP JUMPDEST PUSH1 0x0 PUSH2 0x2D7F DUP3 PUSH2 0x3745 JUMP JUMPDEST PUSH2 0x2D89 DUP2 DUP6 PUSH2 0x375D JUMP JUMPDEST SWAP4 POP PUSH2 0x2D94 DUP4 PUSH2 0x3730 JUMP JUMPDEST DUP1 PUSH1 0x0 JUMPDEST DUP4 DUP2 LT ISZERO PUSH2 0x2DCC JUMPI PUSH2 0x2DA9 DUP3 PUSH2 0x39C2 JUMP JUMPDEST PUSH2 0x2DB3 DUP9 DUP3 PUSH2 0x2D3E JUMP JUMPDEST SWAP8 POP PUSH2 0x2DBE DUP4 PUSH2 0x3750 JUMP JUMPDEST SWAP3 POP POP PUSH1 0x1 DUP2 ADD SWAP1 POP PUSH2 0x2D98 JUMP JUMPDEST POP DUP6 SWAP4 POP POP POP POP SWAP3 SWAP2 POP POP JUMP JUMPDEST PUSH2 0x2DE2 DUP2 PUSH2 0x38D2 JUMP JUMPDEST DUP3 MSTORE POP POP JUMP JUMPDEST PUSH2 0x2DF1 DUP2 PUSH2 0x3909 JUMP JUMPDEST DUP3 MSTORE POP POP JUMP JUMPDEST PUSH1 0x0 PUSH2 0x2E04 PUSH1 0x29 DUP4 PUSH2 0x376E JUMP JUMPDEST SWAP2 POP PUSH32 0x6E6F7420656E6F75676820636F6C6C61746572616C20746F20626F72726F7720 PUSH1 0x0 DUP4 ADD MSTORE PUSH32 0x74686174206D7563680000000000000000000000000000000000000000000000 PUSH1 0x20 DUP4 ADD MSTORE PUSH1 0x40 DUP3 ADD SWAP1 POP SWAP2 SWAP1 POP JUMP JUMPDEST PUSH1 0x0 PUSH2 0x2E6A PUSH1 0x26 DUP4 PUSH2 0x376E JUMP JUMPDEST SWAP2 POP PUSH32 0x4F776E61626C653A206E6577206F776E657220697320746865207A65726F2061 PUSH1 0x0 DUP4 ADD MSTORE PUSH32 0x6464726573730000000000000000000000000000000000000000000000000000 PUSH1 0x20 DUP4 ADD MSTORE PUSH1 0x40 DUP3 ADD SWAP1 POP SWAP2 SWAP1 POP JUMP JUMPDEST PUSH1 0x0 PUSH2 0x2ED0 PUSH1 0x18 DUP4 PUSH2 0x376E JUMP JUMPDEST SWAP2 POP PUSH32 0x6C69714665655368617265206F7574206F662072616E67650000000000000000 PUSH1 0x0 DUP4 ADD MSTORE PUSH1 0x20 DUP3 ADD SWAP1 POP SWAP2 SWAP1 POP JUMP JUMPDEST PUSH1 0x0 PUSH2 0x2F10 PUSH1 0xE DUP4 PUSH2 0x376E JUMP JUMPDEST SWAP2 POP PUSH32 0x63616E277420626F72726F772030000000000000000000000000000000000000 PUSH1 0x0 DUP4 ADD MSTORE PUSH1 0x20 DUP3 ADD SWAP1 POP SWAP2 SWAP1 POP JUMP JUMPDEST PUSH1 0x0 PUSH2 0x2F50 PUSH1 0x30 DUP4 PUSH2 0x376E JUMP JUMPDEST SWAP2 POP PUSH32 0x7769746864726177206C657373206F6620636F6C6C61746572616C2072617469 PUSH1 0x0 DUP4 ADD MSTORE PUSH32 0x6F206265636F6D657320756E7361666500000000000000000000000000000000 PUSH1 0x20 DUP4 ADD MSTORE PUSH1 0x40 DUP3 ADD SWAP1 POP SWAP2 SWAP1 POP JUMP JUMPDEST PUSH1 0x0 PUSH2 0x2FB6 PUSH1 0x18 DUP4 PUSH2 0x376E JUMP JUMPDEST SWAP2 POP PUSH32 0x7769746864726177207472616E73666572206661696C65640000000000000000 PUSH1 0x0 DUP4 ADD MSTORE PUSH1 0x20 DUP3 ADD SWAP1 POP SWAP2 SWAP1 POP JUMP JUMPDEST PUSH1 0x0 PUSH2 0x2FF6 PUSH1 0x20 DUP4 PUSH2 0x376E JUMP JUMPDEST SWAP2 POP PUSH32 0x78535553484920636F6E7472616374206E6F74207A65726F2061646472657373 PUSH1 0x0 DUP4 ADD MSTORE PUSH1 0x20 DUP3 ADD SWAP1 POP SWAP2 SWAP1 POP JUMP JUMPDEST PUSH1 0x0 PUSH2 0x3036 PUSH1 0x29 DUP4 PUSH2 0x376E JUMP JUMPDEST SWAP2 POP PUSH32 0x626F72726F77207468726573686F6C64206D757374206265203E207363616C69 PUSH1 0x0 DUP4 ADD MSTORE PUSH32 0x6E6720666163746F720000000000000000000000000000000000000000000000 PUSH1 0x20 DUP4 ADD MSTORE PUSH1 0x40 DUP3 ADD SWAP1 POP SWAP2 SWAP1 POP JUMP JUMPDEST PUSH1 0x0 PUSH2 0x309C PUSH1 0x27 DUP4 PUSH2 0x376E JUMP JUMPDEST SWAP2 POP PUSH32 0x636F6C6C61746572616C20726174696F206973203C3D20626F72726F77207468 PUSH1 0x0 DUP4 ADD MSTORE PUSH32 0x726573686F6C6400000000000000000000000000000000000000000000000000 PUSH1 0x20 DUP4 ADD MSTORE PUSH1 0x40 DUP3 ADD SWAP1 POP SWAP2 SWAP1 POP JUMP JUMPDEST PUSH1 0x0 PUSH2 0x3102 PUSH1 0x1E DUP4 PUSH2 0x376E JUMP JUMPDEST SWAP2 POP PUSH32 0x7573647A20636F6E7472616374206E6F74207A65726F20616464726573730000 PUSH1 0x0 DUP4 ADD MSTORE PUSH1 0x20 DUP3 ADD SWAP1 POP SWAP2 SWAP1 POP JUMP JUMPDEST PUSH1 0x0 PUSH2 0x3142 PUSH1 0x20 DUP4 PUSH2 0x376E JUMP JUMPDEST SWAP2 POP PUSH32 0x4F776E61626C653A2063616C6C6572206973206E6F7420746865206F776E6572 PUSH1 0x0 DUP4 ADD MSTORE PUSH1 0x20 DUP3 ADD SWAP1 POP SWAP2 SWAP1 POP JUMP JUMPDEST PUSH1 0x0 PUSH2 0x3182 PUSH1 0x18 DUP4 PUSH2 0x376E JUMP JUMPDEST SWAP2 POP PUSH32 0x6C6971546F74616C466565206F7574206F662072616E67650000000000000000 PUSH1 0x0 DUP4 ADD MSTORE PUSH1 0x20 DUP3 ADD SWAP1 POP SWAP2 SWAP1 POP JUMP JUMPDEST PUSH1 0x0 PUSH2 0x31C2 PUSH1 0xD DUP4 PUSH2 0x376E JUMP JUMPDEST SWAP2 POP PUSH32 0x63616E2774207265706179203000000000000000000000000000000000000000 PUSH1 0x0 DUP4 ADD MSTORE PUSH1 0x20 DUP3 ADD SWAP1 POP SWAP2 SWAP1 POP JUMP JUMPDEST PUSH1 0x0 PUSH2 0x3202 PUSH1 0x0 DUP4 PUSH2 0x376E JUMP JUMPDEST SWAP2 POP PUSH1 0x0 DUP3 ADD SWAP1 POP SWAP2 SWAP1 POP JUMP JUMPDEST PUSH1 0x0 PUSH2 0x321C PUSH1 0xE DUP4 PUSH2 0x376E JUMP JUMPDEST SWAP2 POP PUSH32 0x6465706F736974206661696C6564000000000000000000000000000000000000 PUSH1 0x0 DUP4 ADD MSTORE PUSH1 0x20 DUP3 ADD SWAP1 POP SWAP2 SWAP1 POP JUMP JUMPDEST PUSH1 0x0 PUSH2 0x325C PUSH1 0x19 DUP4 PUSH2 0x376E JUMP JUMPDEST SWAP2 POP PUSH32 0x696E74657265737452617465206F7574206F662072616E676500000000000000 PUSH1 0x0 DUP4 ADD MSTORE PUSH1 0x20 DUP3 ADD SWAP1 POP SWAP2 SWAP1 POP JUMP JUMPDEST PUSH1 0x0 PUSH2 0x329C PUSH1 0x26 DUP4 PUSH2 0x376E JUMP JUMPDEST SWAP2 POP PUSH32 0x6C6971207468726573686F6C64206D757374206265203E207363616C696E6720 PUSH1 0x0 DUP4 ADD MSTORE PUSH32 0x666163746F720000000000000000000000000000000000000000000000000000 PUSH1 0x20 DUP4 ADD MSTORE PUSH1 0x40 DUP3 ADD SWAP1 POP SWAP2 SWAP1 POP JUMP JUMPDEST PUSH1 0x0 PUSH2 0x3302 PUSH1 0x20 DUP4 PUSH2 0x376E JUMP JUMPDEST SWAP2 POP PUSH32 0x6E6F7420656E6F75676820636F6C6C61746572616C20696E206163636F756E74 PUSH1 0x0 DUP4 ADD MSTORE PUSH1 0x20 DUP3 ADD SWAP1 POP SWAP2 SWAP1 POP JUMP JUMPDEST PUSH2 0x333E DUP2 PUSH2 0x38FF JUMP JUMPDEST DUP3 MSTORE POP POP JUMP JUMPDEST PUSH1 0x0 PUSH1 0x20 DUP3 ADD SWAP1 POP PUSH2 0x3359 PUSH1 0x0 DUP4 ADD DUP5 PUSH2 0x2D65 JUMP JUMPDEST SWAP3 SWAP2 POP POP JUMP JUMPDEST PUSH1 0x0 PUSH1 0x60 DUP3 ADD SWAP1 POP PUSH2 0x3374 PUSH1 0x0 DUP4 ADD DUP7 PUSH2 0x2D65 JUMP JUMPDEST PUSH2 0x3381 PUSH1 0x20 DUP4 ADD DUP6 PUSH2 0x2D65 JUMP JUMPDEST PUSH2 0x338E PUSH1 0x40 DUP4 ADD DUP5 PUSH2 0x3335 JUMP JUMPDEST SWAP5 SWAP4 POP POP POP POP JUMP JUMPDEST PUSH1 0x0 PUSH1 0x40 DUP3 ADD SWAP1 POP PUSH2 0x33AB PUSH1 0x0 DUP4 ADD DUP6 PUSH2 0x2D65 JUMP JUMPDEST PUSH2 0x33B8 PUSH1 0x20 DUP4 ADD DUP5 PUSH2 0x3335 JUMP JUMPDEST SWAP4 SWAP3 POP POP POP JUMP JUMPDEST PUSH1 0x0 PUSH1 0x20 DUP3 ADD SWAP1 POP PUSH2 0x33D4 PUSH1 0x0 DUP4 ADD DUP5 PUSH2 0x2DD9 JUMP JUMPDEST SWAP3 SWAP2 POP POP JUMP JUMPDEST PUSH1 0x0 PUSH1 0x60 DUP3 ADD SWAP1 POP PUSH2 0x33EF PUSH1 0x0 DUP4 ADD DUP7 PUSH2 0x2DE8 JUMP JUMPDEST PUSH2 0x33FC PUSH1 0x20 DUP4 ADD DUP6 PUSH2 0x2DE8 JUMP JUMPDEST PUSH2 0x3409 PUSH1 0x40 DUP4 ADD DUP5 PUSH2 0x2DE8 JUMP JUMPDEST SWAP5 SWAP4 POP POP POP POP JUMP JUMPDEST PUSH1 0x0 PUSH1 0x20 DUP3 ADD SWAP1 POP DUP2 DUP2 SUB PUSH1 0x0 DUP4 ADD MSTORE PUSH2 0x342A DUP2 PUSH2 0x2DF7 JUMP JUMPDEST SWAP1 POP SWAP2 SWAP1 POP JUMP JUMPDEST PUSH1 0x0 PUSH1 0x20 DUP3 ADD SWAP1 POP DUP2 DUP2 SUB PUSH1 0x0 DUP4 ADD MSTORE PUSH2 0x344A DUP2 PUSH2 0x2E5D JUMP JUMPDEST SWAP1 POP SWAP2 SWAP1 POP JUMP JUMPDEST PUSH1 0x0 PUSH1 0x20 DUP3 ADD SWAP1 POP DUP2 DUP2 SUB PUSH1 0x0 DUP4 ADD MSTORE PUSH2 0x346A DUP2 PUSH2 0x2EC3 JUMP JUMPDEST SWAP1 POP SWAP2 SWAP1 POP JUMP JUMPDEST PUSH1 0x0 PUSH1 0x20 DUP3 ADD SWAP1 POP DUP2 DUP2 SUB PUSH1 0x0 DUP4 ADD MSTORE PUSH2 0x348A DUP2 PUSH2 0x2F03 JUMP JUMPDEST SWAP1 POP SWAP2 SWAP1 POP JUMP JUMPDEST PUSH1 0x0 PUSH1 0x20 DUP3 ADD SWAP1 POP DUP2 DUP2 SUB PUSH1 0x0 DUP4 ADD MSTORE PUSH2 0x34AA DUP2 PUSH2 0x2F43 JUMP JUMPDEST SWAP1 POP SWAP2 SWAP1 POP JUMP JUMPDEST PUSH1 0x0 PUSH1 0x20 DUP3 ADD SWAP1 POP DUP2 DUP2 SUB PUSH1 0x0 DUP4 ADD MSTORE PUSH2 0x34CA DUP2 PUSH2 0x2FA9 JUMP JUMPDEST SWAP1 POP SWAP2 SWAP1 POP JUMP JUMPDEST PUSH1 0x0 PUSH1 0x20 DUP3 ADD SWAP1 POP DUP2 DUP2 SUB PUSH1 0x0 DUP4 ADD MSTORE PUSH2 0x34EA DUP2 PUSH2 0x2FE9 JUMP JUMPDEST SWAP1 POP SWAP2 SWAP1 POP JUMP JUMPDEST PUSH1 0x0 PUSH1 0x20 DUP3 ADD SWAP1 POP DUP2 DUP2 SUB PUSH1 0x0 DUP4 ADD MSTORE PUSH2 0x350A DUP2 PUSH2 0x3029 JUMP JUMPDEST SWAP1 POP SWAP2 SWAP1 POP JUMP JUMPDEST PUSH1 0x0 PUSH1 0x20 DUP3 ADD SWAP1 POP DUP2 DUP2 SUB PUSH1 0x0 DUP4 ADD MSTORE PUSH2 0x352A DUP2 PUSH2 0x308F JUMP JUMPDEST SWAP1 POP SWAP2 SWAP1 POP JUMP JUMPDEST PUSH1 0x0 PUSH1 0x20 DUP3 ADD SWAP1 POP DUP2 DUP2 SUB PUSH1 0x0 DUP4 ADD MSTORE PUSH2 0x354A DUP2 PUSH2 0x30F5 JUMP JUMPDEST SWAP1 POP SWAP2 SWAP1 POP JUMP JUMPDEST PUSH1 0x0 PUSH1 0x20 DUP3 ADD SWAP1 POP DUP2 DUP2 SUB PUSH1 0x0 DUP4 ADD MSTORE PUSH2 0x356A DUP2 PUSH2 0x3135 JUMP JUMPDEST SWAP1 POP SWAP2 SWAP1 POP JUMP JUMPDEST PUSH1 0x0 PUSH1 0x20 DUP3 ADD SWAP1 POP DUP2 DUP2 SUB PUSH1 0x0 DUP4 ADD MSTORE PUSH2 0x358A DUP2 PUSH2 0x3175 JUMP JUMPDEST SWAP1 POP SWAP2 SWAP1 POP JUMP JUMPDEST PUSH1 0x0 PUSH1 0x20 DUP3 ADD SWAP1 POP DUP2 DUP2 SUB PUSH1 0x0 DUP4 ADD MSTORE PUSH2 0x35AA DUP2 PUSH2 0x31B5 JUMP JUMPDEST SWAP1 POP SWAP2 SWAP1 POP JUMP JUMPDEST PUSH1 0x0 PUSH1 0x20 DUP3 ADD SWAP1 POP DUP2 DUP2 SUB PUSH1 0x0 DUP4 ADD MSTORE PUSH2 0x35CA DUP2 PUSH2 0x31F5 JUMP JUMPDEST SWAP1 POP SWAP2 SWAP1 POP JUMP JUMPDEST PUSH1 0x0 PUSH1 0x20 DUP3 ADD SWAP1 POP DUP2 DUP2 SUB PUSH1 0x0 DUP4 ADD MSTORE PUSH2 0x35EA DUP2 PUSH2 0x320F JUMP JUMPDEST SWAP1 POP SWAP2 SWAP1 POP JUMP JUMPDEST PUSH1 0x0 PUSH1 0x20 DUP3 ADD SWAP1 POP DUP2 DUP2 SUB PUSH1 0x0 DUP4 ADD MSTORE PUSH2 0x360A DUP2 PUSH2 0x324F JUMP JUMPDEST SWAP1 POP SWAP2 SWAP1 POP JUMP JUMPDEST PUSH1 0x0 PUSH1 0x20 DUP3 ADD SWAP1 POP DUP2 DUP2 SUB PUSH1 0x0 DUP4 ADD MSTORE PUSH2 0x362A DUP2 PUSH2 0x328F JUMP JUMPDEST SWAP1 POP SWAP2 SWAP1 POP JUMP JUMPDEST PUSH1 0x0 PUSH1 0x20 DUP3 ADD SWAP1 POP DUP2 DUP2 SUB PUSH1 0x0 DUP4 ADD MSTORE PUSH2 0x364A DUP2 PUSH2 0x32F5 JUMP JUMPDEST SWAP1 POP SWAP2 SWAP1 POP JUMP JUMPDEST PUSH1 0x0 PUSH1 0x20 DUP3 ADD SWAP1 POP PUSH2 0x3666 PUSH1 0x0 DUP4 ADD DUP5 PUSH2 0x3335 JUMP JUMPDEST SWAP3 SWAP2 POP POP JUMP JUMPDEST PUSH1 0x0 PUSH1 0x40 DUP3 ADD SWAP1 POP PUSH2 0x3681 PUSH1 0x0 DUP4 ADD DUP6 PUSH2 0x3335 JUMP JUMPDEST DUP2 DUP2 SUB PUSH1 0x20 DUP4 ADD MSTORE PUSH2 0x3693 DUP2 DUP5 PUSH2 0x2D74 JUMP JUMPDEST SWAP1 POP SWAP4 SWAP3 POP POP POP JUMP JUMPDEST PUSH1 0x0 PUSH1 0x60 DUP3 ADD SWAP1 POP PUSH2 0x36B1 PUSH1 0x0 DUP4 ADD DUP7 PUSH2 0x3335 JUMP JUMPDEST PUSH2 0x36BE PUSH1 0x20 DUP4 ADD DUP6 PUSH2 0x3335 JUMP JUMPDEST PUSH2 0x36CB PUSH1 0x40 DUP4 ADD DUP5 PUSH2 0x3335 JUMP JUMPDEST SWAP5 SWAP4 POP POP POP POP JUMP JUMPDEST PUSH1 0x0 PUSH1 0x40 MLOAD SWAP1 POP DUP2 DUP2 ADD DUP2 DUP2 LT PUSH8 0xFFFFFFFFFFFFFFFF DUP3 GT OR ISZERO PUSH2 0x36FA JUMPI PUSH2 0x36F9 PUSH2 0x3993 JUMP JUMPDEST JUMPDEST DUP1 PUSH1 0x40 MSTORE POP SWAP2 SWAP1 POP JUMP JUMPDEST PUSH1 0x0 PUSH8 0xFFFFFFFFFFFFFFFF DUP3 GT ISZERO PUSH2 0x371F JUMPI PUSH2 0x371E PUSH2 0x3993 JUMP JUMPDEST JUMPDEST PUSH1 0x20 DUP3 MUL SWAP1 POP PUSH1 0x20 DUP2 ADD SWAP1 POP SWAP2 SWAP1 POP JUMP JUMPDEST PUSH1 0x0 DUP2 SWAP1 POP DUP2 PUSH1 0x0 MSTORE PUSH1 0x20 PUSH1 0x0 KECCAK256 SWAP1 POP SWAP2 SWAP1 POP JUMP JUMPDEST PUSH1 0x0 DUP2 SLOAD SWAP1 POP SWAP2 SWAP1 POP JUMP JUMPDEST PUSH1 0x0 PUSH1 0x1 DUP3 ADD SWAP1 POP SWAP2 SWAP1 POP JUMP JUMPDEST PUSH1 0x0 DUP3 DUP3 MSTORE PUSH1 0x20 DUP3 ADD SWAP1 POP SWAP3 SWAP2 POP POP JUMP JUMPDEST PUSH1 0x0 DUP3 DUP3 MSTORE PUSH1 0x20 DUP3 ADD SWAP1 POP SWAP3 SWAP2 POP POP JUMP JUMPDEST PUSH1 0x0 PUSH2 0x378A DUP3 PUSH2 0x38FF JUMP JUMPDEST SWAP2 POP PUSH2 0x3795 DUP4 PUSH2 0x38FF JUMP JUMPDEST SWAP3 POP DUP3 PUSH32 0xFFFFFFFFFFFFFFFFFFFFFFFFFFFFFFFFFFFFFFFFFFFFFFFFFFFFFFFFFFFFFFFF SUB DUP3 GT ISZERO PUSH2 0x37CA JUMPI PUSH2 0x37C9 PUSH2 0x3935 JUMP JUMPDEST JUMPDEST DUP3 DUP3 ADD SWAP1 POP SWAP3 SWAP2 POP POP JUMP JUMPDEST PUSH1 0x0 PUSH2 0x37E0 DUP3 PUSH2 0x38FF JUMP JUMPDEST SWAP2 POP PUSH2 0x37EB DUP4 PUSH2 0x38FF JUMP JUMPDEST SWAP3 POP DUP3 PUSH2 0x37FB JUMPI PUSH2 0x37FA PUSH2 0x3964 JUMP JUMPDEST JUMPDEST DUP3 DUP3 DIV SWAP1 POP SWAP3 SWAP2 POP POP JUMP JUMPDEST PUSH1 0x0 PUSH2 0x3811 DUP3 PUSH2 0x38FF JUMP JUMPDEST SWAP2 POP PUSH2 0x381C DUP4 PUSH2 0x38FF JUMP JUMPDEST SWAP3 POP DUP2 PUSH32 0xFFFFFFFFFFFFFFFFFFFFFFFFFFFFFFFFFFFFFFFFFFFFFFFFFFFFFFFFFFFFFFFF DIV DUP4 GT DUP3 ISZERO ISZERO AND ISZERO PUSH2 0x3855 JUMPI PUSH2 0x3854 PUSH2 0x3935 JUMP JUMPDEST JUMPDEST DUP3 DUP3 MUL SWAP1 POP SWAP3 SWAP2 POP POP JUMP JUMPDEST PUSH1 0x0 PUSH2 0x386B DUP3 PUSH2 0x38FF JUMP JUMPDEST SWAP2 POP PUSH2 0x3876 DUP4 PUSH2 0x38FF JUMP JUMPDEST SWAP3 POP DUP3 DUP3 LT ISZERO PUSH2 0x3889 JUMPI PUSH2 0x3888 PUSH2 0x3935 JUMP JUMPDEST JUMPDEST DUP3 DUP3 SUB SWAP1 POP SWAP3 SWAP2 POP POP JUMP JUMPDEST PUSH1 0x0 PUSH20 0xFFFFFFFFFFFFFFFFFFFFFFFFFFFFFFFFFFFFFFFF DUP3 AND SWAP1 POP SWAP2 SWAP1 POP JUMP JUMPDEST PUSH1 0x0 PUSH2 0x38BF DUP3 PUSH2 0x38DF JUMP JUMPDEST SWAP1 POP SWAP2 SWAP1 POP JUMP JUMPDEST PUSH1 0x0 DUP2 ISZERO ISZERO SWAP1 POP SWAP2 SWAP1 POP JUMP JUMPDEST PUSH1 0x0 DUP2 PUSH1 0xF SIGNEXTEND SWAP1 POP SWAP2 SWAP1 POP JUMP JUMPDEST PUSH1 0x0 PUSH20 0xFFFFFFFFFFFFFFFFFFFFFFFFFFFFFFFFFFFFFFFF DUP3 AND SWAP1 POP SWAP2 SWAP1 POP JUMP JUMPDEST PUSH1 0x0 DUP2 SWAP1 POP SWAP2 SWAP1 POP JUMP JUMPDEST PUSH1 0x0 PUSH2 0x3914 DUP3 PUSH2 0x38FF JUMP JUMPDEST SWAP1 POP SWAP2 SWAP1 POP JUMP JUMPDEST PUSH1 0x0 PUSH2 0x392E PUSH2 0x3929 DUP4 PUSH2 0x39D5 JUMP JUMPDEST PUSH2 0x3894 JUMP JUMPDEST SWAP1 POP SWAP2 SWAP1 POP JUMP JUMPDEST PUSH32 0x4E487B7100000000000000000000000000000000000000000000000000000000 PUSH1 0x0 MSTORE PUSH1 0x11 PUSH1 0x4 MSTORE PUSH1 0x24 PUSH1 0x0 REVERT JUMPDEST PUSH32 0x4E487B7100000000000000000000000000000000000000000000000000000000 PUSH1 0x0 MSTORE PUSH1 0x12 PUSH1 0x4 MSTORE PUSH1 0x24 PUSH1 0x0 REVERT JUMPDEST PUSH32 0x4E487B7100000000000000000000000000000000000000000000000000000000 PUSH1 0x0 MSTORE PUSH1 0x41 PUSH1 0x4 MSTORE PUSH1 0x24 PUSH1 0x0 REVERT JUMPDEST PUSH1 0x0 PUSH2 0x39CE DUP3 SLOAD PUSH2 0x391B JUMP JUMPDEST SWAP1 POP SWAP2 SWAP1 POP JUMP JUMPDEST PUSH1 0x0 DUP2 PUSH1 0x0 SHR SWAP1 POP SWAP2 SWAP1 POP JUMP JUMPDEST PUSH2 0x39EB DUP2 PUSH2 0x38B4 JUMP JUMPDEST DUP2 EQ PUSH2 0x39F6 JUMPI PUSH1 0x0 DUP1 REVERT JUMPDEST POP JUMP JUMPDEST PUSH2 0x3A02 DUP2 PUSH2 0x38C6 JUMP JUMPDEST DUP2 EQ PUSH2 0x3A0D JUMPI PUSH1 0x0 DUP1 REVERT JUMPDEST POP JUMP JUMPDEST PUSH2 0x3A19 DUP2 PUSH2 0x38FF JUMP JUMPDEST DUP2 EQ PUSH2 0x3A24 JUMPI PUSH1 0x0 DUP1 REVERT JUMPDEST POP JUMP INVALID LOG2 PUSH5 0x6970667358 0x22 SLT KECCAK256 0xFC 0xC6 0x4F SWAP13 SWAP16 0x5E SWAP3 0xE9 0xDF 0xC5 0x5E 0xD5 CREATE2 0xE1 0xE2 DUP5 0xA9 0xDE 0x4A 0xC6 0xBC RETURN LOG4 0xEA SGT EQ 0xDC 0xF7 ADD EXP 0xD3 NUMBER PUSH5 0x736F6C6343 STOP ADDMOD STOP STOP CALLER "
        },
        "methodIdentifiers": {
          "SCALING_FACTOR()": "ef4cadc5",
          "SECONDS_IN_YEAR()": "5dcc9391",
          "borrow(uint256)": "c5ebeaec",
          "borrowThreshold()": "5ae547e3",
          "calcInterest(address)": "69cb89c7",
          "deposit(uint256)": "b6b55f25",
          "getCurrentCollateralRatio(address)": "daf5539e",
          "getForwardCollateralRatio(address,uint256)": "7046b7a9",
          "interestRate()": "7c3a00fd",
          "liquidate(address)": "2f865568",
          "liquidationFee()": "a36a3630",
          "liquidationThreshold()": "4031234c",
          "liquidatorFeeShare()": "54054808",
          "owner()": "8da5cb5b",
          "protocolShortfall()": "af1f556f",
          "renounceOwnership()": "715018a6",
          "repay(uint256)": "371fd8e6",
          "setFeesAndRates(uint256,uint256,uint256)": "bfaf48d4",
          "setThresholds(uint256,uint256)": "e3064a77",
          "setUSDZAddress(address)": "8f6ba29a",
          "setXSUSHIAddress(address)": "8456b755",
          "sushiRouterAddress()": "79bbce8f",
          "transferOwnership(address)": "f2fde38b",
          "usdcAddress()": "02d45457",
          "usdzAddress()": "20bdf800",
          "withdraw(uint256)": "2e1a7d4d",
          "xSushiAddress()": "bdfccad3",
          "xSushiToUsdcPath(uint256)": "4a63a5ce"
        }
      }
    }
  }
}