{
  "contracts/Controller.sol": {
    "Controller": {
      "abi": [
        {
          "inputs": [
            {
              "internalType": "address",
              "name": "_usdzAddress",
              "type": "address"
            },
            {
              "internalType": "address",
              "name": "_xSushiAddress",
              "type": "address"
            },
            {
              "internalType": "uint256",
              "name": "_liqTotalFee",
              "type": "uint256"
            },
            {
              "internalType": "uint256",
              "name": "_liqFeeShare",
              "type": "uint256"
            },
            {
              "internalType": "uint256",
              "name": "_totalIRate",
              "type": "uint256"
            },
            {
              "internalType": "uint256",
              "name": "_iRateShare",
              "type": "uint256"
            }
          ],
          "stateMutability": "nonpayable",
          "type": "constructor"
        },
        {
          "anonymous": false,
          "inputs": [
            {
              "indexed": true,
              "internalType": "address",
              "name": "sender",
              "type": "address"
            },
            {
              "indexed": true,
              "internalType": "address",
              "name": "token",
              "type": "address"
            },
            {
              "indexed": false,
              "internalType": "uint256",
              "name": "amount",
              "type": "uint256"
            }
          ],
          "name": "Deposit",
          "type": "event"
        },
        {
          "anonymous": false,
          "inputs": [
            {
              "indexed": true,
              "internalType": "address",
              "name": "previousOwner",
              "type": "address"
            },
            {
              "indexed": true,
              "internalType": "address",
              "name": "newOwner",
              "type": "address"
            }
          ],
          "name": "OwnershipTransferred",
          "type": "event"
        },
        {
          "anonymous": false,
          "inputs": [
            {
              "indexed": true,
              "internalType": "address",
              "name": "sender",
              "type": "address"
            },
            {
              "indexed": true,
              "internalType": "address",
              "name": "token",
              "type": "address"
            },
            {
              "indexed": false,
              "internalType": "uint256",
              "name": "amount",
              "type": "uint256"
            }
          ],
          "name": "Withdraw",
          "type": "event"
        },
        {
          "inputs": [],
          "name": "FEE_RATE_SCALING_FACTOR",
          "outputs": [
            {
              "internalType": "uint256",
              "name": "",
              "type": "uint256"
            }
          ],
          "stateMutability": "view",
          "type": "function"
        },
        {
          "inputs": [
            {
              "internalType": "uint256",
              "name": "_amount",
              "type": "uint256"
            }
          ],
          "name": "deposit",
          "outputs": [],
          "stateMutability": "nonpayable",
          "type": "function"
        },
        {
          "inputs": [],
          "name": "interestRate",
          "outputs": [
            {
              "internalType": "uint256",
              "name": "",
              "type": "uint256"
            }
          ],
          "stateMutability": "view",
          "type": "function"
        },
        {
          "inputs": [],
          "name": "lenderIRateShare",
          "outputs": [
            {
              "internalType": "uint256",
              "name": "",
              "type": "uint256"
            }
          ],
          "stateMutability": "view",
          "type": "function"
        },
        {
          "inputs": [],
          "name": "liquidationFee",
          "outputs": [
            {
              "internalType": "uint256",
              "name": "",
              "type": "uint256"
            }
          ],
          "stateMutability": "view",
          "type": "function"
        },
        {
          "inputs": [],
          "name": "liquidatorFeeShare",
          "outputs": [
            {
              "internalType": "uint256",
              "name": "",
              "type": "uint256"
            }
          ],
          "stateMutability": "view",
          "type": "function"
        },
        {
          "inputs": [],
          "name": "owner",
          "outputs": [
            {
              "internalType": "address",
              "name": "",
              "type": "address"
            }
          ],
          "stateMutability": "view",
          "type": "function"
        },
        {
          "inputs": [],
          "name": "renounceOwnership",
          "outputs": [],
          "stateMutability": "nonpayable",
          "type": "function"
        },
        {
          "inputs": [
            {
              "internalType": "uint256",
              "name": "_liqTotalFee",
              "type": "uint256"
            },
            {
              "internalType": "uint256",
              "name": "_liqFeeShare",
              "type": "uint256"
            },
            {
              "internalType": "uint256",
              "name": "_totalIRate",
              "type": "uint256"
            },
            {
              "internalType": "uint256",
              "name": "_iRateShare",
              "type": "uint256"
            }
          ],
          "name": "setFeesAndRates",
          "outputs": [],
          "stateMutability": "nonpayable",
          "type": "function"
        },
        {
          "inputs": [
            {
              "internalType": "address",
              "name": "_newAddress",
              "type": "address"
            }
          ],
          "name": "setUSDZAddress",
          "outputs": [],
          "stateMutability": "nonpayable",
          "type": "function"
        },
        {
          "inputs": [
            {
              "internalType": "address",
              "name": "_newAddress",
              "type": "address"
            }
          ],
          "name": "setXSUSHIAddress",
          "outputs": [],
          "stateMutability": "nonpayable",
          "type": "function"
        },
        {
          "inputs": [
            {
              "internalType": "address",
              "name": "newOwner",
              "type": "address"
            }
          ],
          "name": "transferOwnership",
          "outputs": [],
          "stateMutability": "nonpayable",
          "type": "function"
        },
        {
          "inputs": [],
          "name": "usdzAddress",
          "outputs": [
            {
              "internalType": "address",
              "name": "",
              "type": "address"
            }
          ],
          "stateMutability": "view",
          "type": "function"
        },
        {
          "inputs": [
            {
              "internalType": "uint256",
              "name": "_amount",
              "type": "uint256"
            }
          ],
          "name": "withdraw",
          "outputs": [],
          "stateMutability": "nonpayable",
          "type": "function"
        },
        {
          "inputs": [],
          "name": "xSushiAddress",
          "outputs": [
            {
              "internalType": "address",
              "name": "",
              "type": "address"
            }
          ],
          "stateMutability": "view",
          "type": "function"
        }
      ],
      "evm": {
        "bytecode": {
          "linkReferences": {},
          "object": "60806040526127106008553480156200001757600080fd5b50604051620015d5380380620015d583398181016040528101906200003d9190620001cd565b60006200004f6200019760201b60201c565b9050806000806101000a81548173ffffffffffffffffffffffffffffffffffffffff021916908373ffffffffffffffffffffffffffffffffffffffff1602179055508073ffffffffffffffffffffffffffffffffffffffff16600073ffffffffffffffffffffffffffffffffffffffff167f8be0079c531659141344cd1fd0a4f28419497f9722a3daafe3b4186f6b6457e060405160405180910390a35085600260006101000a81548173ffffffffffffffffffffffffffffffffffffffff021916908373ffffffffffffffffffffffffffffffffffffffff16021790555084600360006101000a81548173ffffffffffffffffffffffffffffffffffffffff021916908373ffffffffffffffffffffffffffffffffffffffff16021790555083600481905550826005819055508160068190555080600781905550505050505050620002d5565b600033905090565b600081519050620001b081620002a1565b92915050565b600081519050620001c781620002bb565b92915050565b60008060008060008060c08789031215620001e757600080fd5b6000620001f789828a016200019f565b96505060206200020a89828a016200019f565b95505060406200021d89828a01620001b6565b94505060606200023089828a01620001b6565b93505060806200024389828a01620001b6565b92505060a06200025689828a01620001b6565b9150509295509295509295565b6000620002708262000277565b9050919050565b600073ffffffffffffffffffffffffffffffffffffffff82169050919050565b6000819050919050565b620002ac8162000263565b8114620002b857600080fd5b50565b620002c68162000297565b8114620002d257600080fd5b50565b6112f080620002e56000396000f3fe608060405234801561001057600080fd5b50600436106100f55760003560e01c80637c3a00fd11610097578063a36a363011610066578063a36a363014610228578063b6b55f2514610246578063bdfccad314610262578063f2fde38b14610280576100f5565b80637c3a00fd146101b45780638456b755146101d25780638da5cb5b146101ee5780638f6ba29a1461020c576100f5565b806331c364a9116100d357806331c364a914610150578063540548081461016e57806359c1924c1461018c578063715018a6146101aa576100f5565b80631e2543d1146100fa57806320bdf800146101165780632e1a7d4d14610134575b600080fd5b610114600480360381019061010f9190610d3c565b61029c565b005b61011e61049a565b60405161012b9190610ef8565b60405180910390f35b61014e60048036038101906101499190610d13565b6104c0565b005b61015861054a565b604051610165919061106a565b60405180910390f35b610176610550565b604051610183919061106a565b60405180910390f35b610194610556565b6040516101a1919061106a565b60405180910390f35b6101b261055c565b005b6101bc610696565b6040516101c9919061106a565b60405180910390f35b6101ec60048036038101906101e79190610cc1565b61069c565b005b6101f66107cc565b6040516102039190610ef8565b60405180910390f35b61022660048036038101906102219190610cc1565b6107f5565b005b610230610925565b60405161023d919061106a565b60405180910390f35b610260600480360381019061025b9190610d13565b61092b565b005b61026a610aab565b6040516102779190610ef8565b60405180910390f35b61029a60048036038101906102959190610cc1565b610ad1565b005b6102a4610c7a565b73ffffffffffffffffffffffffffffffffffffffff166102c26107cc565b73ffffffffffffffffffffffffffffffffffffffff1614610318576040517f08c379a000000000000000000000000000000000000000000000000000000000815260040161030f9061102a565b60405180910390fd5b600854841115801561032b575060008410155b61036a576040517f08c379a00000000000000000000000000000000000000000000000000000000081526004016103619061104a565b60405180910390fd5b600854831115801561037d575060008310155b80156103895750838311155b6103c8576040517f08c379a00000000000000000000000000000000000000000000000000000000081526004016103bf90610f8a565b60405180910390fd5b836004819055508260058190555060085482111580156103e9575060008210155b610428576040517f08c379a000000000000000000000000000000000000000000000000000000000815260040161041f90610f4a565b60405180910390fd5b600854811115801561043b575060008110155b80156104475750818111155b610486576040517f08c379a000000000000000000000000000000000000000000000000000000000815260040161047d90610faa565b60405180910390fd5b816006819055508060078190555050505050565b600260009054906101000a900473ffffffffffffffffffffffffffffffffffffffff1681565b600360009054906101000a900473ffffffffffffffffffffffffffffffffffffffff1673ffffffffffffffffffffffffffffffffffffffff163373ffffffffffffffffffffffffffffffffffffffff167f9b1bfa7fa9ee420a16e124f794c35ac9f90472acc99140eb2f6447c714cad8eb8360405161053f919061106a565b60405180910390a350565b60075481565b60055481565b60085481565b610564610c7a565b73ffffffffffffffffffffffffffffffffffffffff166105826107cc565b73ffffffffffffffffffffffffffffffffffffffff16146105d8576040517f08c379a00000000000000000000000000000000000000000000000000000000081526004016105cf9061102a565b60405180910390fd5b600073ffffffffffffffffffffffffffffffffffffffff1660008054906101000a900473ffffffffffffffffffffffffffffffffffffffff1673ffffffffffffffffffffffffffffffffffffffff167f8be0079c531659141344cd1fd0a4f28419497f9722a3daafe3b4186f6b6457e060405160405180910390a360008060006101000a81548173ffffffffffffffffffffffffffffffffffffffff021916908373ffffffffffffffffffffffffffffffffffffffff160217905550565b60065481565b6106a4610c7a565b73ffffffffffffffffffffffffffffffffffffffff166106c26107cc565b73ffffffffffffffffffffffffffffffffffffffff1614610718576040517f08c379a000000000000000000000000000000000000000000000000000000000815260040161070f9061102a565b60405180910390fd5b600073ffffffffffffffffffffffffffffffffffffffff168173ffffffffffffffffffffffffffffffffffffffff161415610788576040517f08c379a000000000000000000000000000000000000000000000000000000000815260040161077f90610fea565b60405180910390fd5b80600360006101000a81548173ffffffffffffffffffffffffffffffffffffffff021916908373ffffffffffffffffffffffffffffffffffffffff16021790555050565b60008060009054906101000a900473ffffffffffffffffffffffffffffffffffffffff16905090565b6107fd610c7a565b73ffffffffffffffffffffffffffffffffffffffff1661081b6107cc565b73ffffffffffffffffffffffffffffffffffffffff1614610871576040517f08c379a00000000000000000000000000000000000000000000000000000000081526004016108689061102a565b60405180910390fd5b600073ffffffffffffffffffffffffffffffffffffffff168173ffffffffffffffffffffffffffffffffffffffff1614156108e1576040517f08c379a00000000000000000000000000000000000000000000000000000000081526004016108d89061100a565b60405180910390fd5b80600260006101000a81548173ffffffffffffffffffffffffffffffffffffffff021916908373ffffffffffffffffffffffffffffffffffffffff16021790555050565b60045481565b6000600260009054906101000a900473ffffffffffffffffffffffffffffffffffffffff1690508073ffffffffffffffffffffffffffffffffffffffff166323b872dd3330856040518463ffffffff1660e01b815260040161098f93929190610f13565b602060405180830381600087803b1580156109a957600080fd5b505af11580156109bd573d6000803e3d6000fd5b505050506040513d601f19601f820116820180604052508101906109e19190610cea565b610a20576040517f08c379a0000000000000000000000000000000000000000000000000000000008152600401610a1790610fca565b60405180910390fd5b600360009054906101000a900473ffffffffffffffffffffffffffffffffffffffff1673ffffffffffffffffffffffffffffffffffffffff163373ffffffffffffffffffffffffffffffffffffffff167f5548c837ab068cf56a2c2479df0882a4922fd203edb7517321831d95078c5f6284604051610a9f919061106a565b60405180910390a35050565b600360009054906101000a900473ffffffffffffffffffffffffffffffffffffffff1681565b610ad9610c7a565b73ffffffffffffffffffffffffffffffffffffffff16610af76107cc565b73ffffffffffffffffffffffffffffffffffffffff1614610b4d576040517f08c379a0000000000000000000000000000000000000000000000000000000008152600401610b449061102a565b60405180910390fd5b600073ffffffffffffffffffffffffffffffffffffffff168173ffffffffffffffffffffffffffffffffffffffff161415610bbd576040517f08c379a0000000000000000000000000000000000000000000000000000000008152600401610bb490610f6a565b60405180910390fd5b8073ffffffffffffffffffffffffffffffffffffffff1660008054906101000a900473ffffffffffffffffffffffffffffffffffffffff1673ffffffffffffffffffffffffffffffffffffffff167f8be0079c531659141344cd1fd0a4f28419497f9722a3daafe3b4186f6b6457e060405160405180910390a3806000806101000a81548173ffffffffffffffffffffffffffffffffffffffff021916908373ffffffffffffffffffffffffffffffffffffffff16021790555050565b600033905090565b600081359050610c9181611275565b92915050565b600081519050610ca68161128c565b92915050565b600081359050610cbb816112a3565b92915050565b600060208284031215610cd357600080fd5b6000610ce184828501610c82565b91505092915050565b600060208284031215610cfc57600080fd5b6000610d0a84828501610c97565b91505092915050565b600060208284031215610d2557600080fd5b6000610d3384828501610cac565b91505092915050565b60008060008060808587031215610d5257600080fd5b6000610d6087828801610cac565b9450506020610d7187828801610cac565b9350506040610d8287828801610cac565b9250506060610d9387828801610cac565b91505092959194509250565b610da881611096565b82525050565b6000610dbb601783611085565b9150610dc6826110de565b602082019050919050565b6000610dde602683611085565b9150610de982611107565b604082019050919050565b6000610e01601883611085565b9150610e0c82611156565b602082019050919050565b6000610e24601783611085565b9150610e2f8261117f565b602082019050919050565b6000610e47601783611085565b9150610e52826111a8565b602082019050919050565b6000610e6a602083611085565b9150610e75826111d1565b602082019050919050565b6000610e8d601e83611085565b9150610e98826111fa565b602082019050919050565b6000610eb0602083611085565b9150610ebb82611223565b602082019050919050565b6000610ed3601883611085565b9150610ede8261124c565b602082019050919050565b610ef2816110d4565b82525050565b6000602082019050610f0d6000830184610d9f565b92915050565b6000606082019050610f286000830186610d9f565b610f356020830185610d9f565b610f426040830184610ee9565b949350505050565b60006020820190508181036000830152610f6381610dae565b9050919050565b60006020820190508181036000830152610f8381610dd1565b9050919050565b60006020820190508181036000830152610fa381610df4565b9050919050565b60006020820190508181036000830152610fc381610e17565b9050919050565b60006020820190508181036000830152610fe381610e3a565b9050919050565b6000602082019050818103600083015261100381610e5d565b9050919050565b6000602082019050818103600083015261102381610e80565b9050919050565b6000602082019050818103600083015261104381610ea3565b9050919050565b6000602082019050818103600083015261106381610ec6565b9050919050565b600060208201905061107f6000830184610ee9565b92915050565b600082825260208201905092915050565b60006110a1826110b4565b9050919050565b60008115159050919050565b600073ffffffffffffffffffffffffffffffffffffffff82169050919050565b6000819050919050565b7f746f74616c4952617465206f7574206f662072616e6765000000000000000000600082015250565b7f4f776e61626c653a206e6577206f776e657220697320746865207a65726f206160008201527f6464726573730000000000000000000000000000000000000000000000000000602082015250565b7f6c69714665655368617265206f7574206f662072616e67650000000000000000600082015250565b7f69526174655368617265206f7574206f662072616e6765000000000000000000600082015250565b7f6465706f736974207472616e73666572206661696c6564000000000000000000600082015250565b7f78535553484920636f6e7472616374206e6f74207a65726f2061646472657373600082015250565b7f7573647a20636f6e7472616374206e6f74207a65726f20616464726573730000600082015250565b7f4f776e61626c653a2063616c6c6572206973206e6f7420746865206f776e6572600082015250565b7f6c6971546f74616c466565206f7574206f662072616e67650000000000000000600082015250565b61127e81611096565b811461128957600080fd5b50565b611295816110a8565b81146112a057600080fd5b50565b6112ac816110d4565b81146112b757600080fd5b5056fea2646970667358221220142cf1a28bba079c9b65e311206615a110fae36d11e74309ff622e03b687fe4e64736f6c63430008040033",
          "opcodes": "PUSH1 0x80 PUSH1 0x40 MSTORE PUSH2 0x2710 PUSH1 0x8 SSTORE CALLVALUE DUP1 ISZERO PUSH3 0x17 JUMPI PUSH1 0x0 DUP1 REVERT JUMPDEST POP PUSH1 0x40 MLOAD PUSH3 0x15D5 CODESIZE SUB DUP1 PUSH3 0x15D5 DUP4 CODECOPY DUP2 DUP2 ADD PUSH1 0x40 MSTORE DUP2 ADD SWAP1 PUSH3 0x3D SWAP2 SWAP1 PUSH3 0x1CD JUMP JUMPDEST PUSH1 0x0 PUSH3 0x4F PUSH3 0x197 PUSH1 0x20 SHL PUSH1 0x20 SHR JUMP JUMPDEST SWAP1 POP DUP1 PUSH1 0x0 DUP1 PUSH2 0x100 EXP DUP2 SLOAD DUP2 PUSH20 0xFFFFFFFFFFFFFFFFFFFFFFFFFFFFFFFFFFFFFFFF MUL NOT AND SWAP1 DUP4 PUSH20 0xFFFFFFFFFFFFFFFFFFFFFFFFFFFFFFFFFFFFFFFF AND MUL OR SWAP1 SSTORE POP DUP1 PUSH20 0xFFFFFFFFFFFFFFFFFFFFFFFFFFFFFFFFFFFFFFFF AND PUSH1 0x0 PUSH20 0xFFFFFFFFFFFFFFFFFFFFFFFFFFFFFFFFFFFFFFFF AND PUSH32 0x8BE0079C531659141344CD1FD0A4F28419497F9722A3DAAFE3B4186F6B6457E0 PUSH1 0x40 MLOAD PUSH1 0x40 MLOAD DUP1 SWAP2 SUB SWAP1 LOG3 POP DUP6 PUSH1 0x2 PUSH1 0x0 PUSH2 0x100 EXP DUP2 SLOAD DUP2 PUSH20 0xFFFFFFFFFFFFFFFFFFFFFFFFFFFFFFFFFFFFFFFF MUL NOT AND SWAP1 DUP4 PUSH20 0xFFFFFFFFFFFFFFFFFFFFFFFFFFFFFFFFFFFFFFFF AND MUL OR SWAP1 SSTORE POP DUP5 PUSH1 0x3 PUSH1 0x0 PUSH2 0x100 EXP DUP2 SLOAD DUP2 PUSH20 0xFFFFFFFFFFFFFFFFFFFFFFFFFFFFFFFFFFFFFFFF MUL NOT AND SWAP1 DUP4 PUSH20 0xFFFFFFFFFFFFFFFFFFFFFFFFFFFFFFFFFFFFFFFF AND MUL OR SWAP1 SSTORE POP DUP4 PUSH1 0x4 DUP2 SWAP1 SSTORE POP DUP3 PUSH1 0x5 DUP2 SWAP1 SSTORE POP DUP2 PUSH1 0x6 DUP2 SWAP1 SSTORE POP DUP1 PUSH1 0x7 DUP2 SWAP1 SSTORE POP POP POP POP POP POP POP PUSH3 0x2D5 JUMP JUMPDEST PUSH1 0x0 CALLER SWAP1 POP SWAP1 JUMP JUMPDEST PUSH1 0x0 DUP2 MLOAD SWAP1 POP PUSH3 0x1B0 DUP2 PUSH3 0x2A1 JUMP JUMPDEST SWAP3 SWAP2 POP POP JUMP JUMPDEST PUSH1 0x0 DUP2 MLOAD SWAP1 POP PUSH3 0x1C7 DUP2 PUSH3 0x2BB JUMP JUMPDEST SWAP3 SWAP2 POP POP JUMP JUMPDEST PUSH1 0x0 DUP1 PUSH1 0x0 DUP1 PUSH1 0x0 DUP1 PUSH1 0xC0 DUP8 DUP10 SUB SLT ISZERO PUSH3 0x1E7 JUMPI PUSH1 0x0 DUP1 REVERT JUMPDEST PUSH1 0x0 PUSH3 0x1F7 DUP10 DUP3 DUP11 ADD PUSH3 0x19F JUMP JUMPDEST SWAP7 POP POP PUSH1 0x20 PUSH3 0x20A DUP10 DUP3 DUP11 ADD PUSH3 0x19F JUMP JUMPDEST SWAP6 POP POP PUSH1 0x40 PUSH3 0x21D DUP10 DUP3 DUP11 ADD PUSH3 0x1B6 JUMP JUMPDEST SWAP5 POP POP PUSH1 0x60 PUSH3 0x230 DUP10 DUP3 DUP11 ADD PUSH3 0x1B6 JUMP JUMPDEST SWAP4 POP POP PUSH1 0x80 PUSH3 0x243 DUP10 DUP3 DUP11 ADD PUSH3 0x1B6 JUMP JUMPDEST SWAP3 POP POP PUSH1 0xA0 PUSH3 0x256 DUP10 DUP3 DUP11 ADD PUSH3 0x1B6 JUMP JUMPDEST SWAP2 POP POP SWAP3 SWAP6 POP SWAP3 SWAP6 POP SWAP3 SWAP6 JUMP JUMPDEST PUSH1 0x0 PUSH3 0x270 DUP3 PUSH3 0x277 JUMP JUMPDEST SWAP1 POP SWAP2 SWAP1 POP JUMP JUMPDEST PUSH1 0x0 PUSH20 0xFFFFFFFFFFFFFFFFFFFFFFFFFFFFFFFFFFFFFFFF DUP3 AND SWAP1 POP SWAP2 SWAP1 POP JUMP JUMPDEST PUSH1 0x0 DUP2 SWAP1 POP SWAP2 SWAP1 POP JUMP JUMPDEST PUSH3 0x2AC DUP2 PUSH3 0x263 JUMP JUMPDEST DUP2 EQ PUSH3 0x2B8 JUMPI PUSH1 0x0 DUP1 REVERT JUMPDEST POP JUMP JUMPDEST PUSH3 0x2C6 DUP2 PUSH3 0x297 JUMP JUMPDEST DUP2 EQ PUSH3 0x2D2 JUMPI PUSH1 0x0 DUP1 REVERT JUMPDEST POP JUMP JUMPDEST PUSH2 0x12F0 DUP1 PUSH3 0x2E5 PUSH1 0x0 CODECOPY PUSH1 0x0 RETURN INVALID PUSH1 0x80 PUSH1 0x40 MSTORE CALLVALUE DUP1 ISZERO PUSH2 0x10 JUMPI PUSH1 0x0 DUP1 REVERT JUMPDEST POP PUSH1 0x4 CALLDATASIZE LT PUSH2 0xF5 JUMPI PUSH1 0x0 CALLDATALOAD PUSH1 0xE0 SHR DUP1 PUSH4 0x7C3A00FD GT PUSH2 0x97 JUMPI DUP1 PUSH4 0xA36A3630 GT PUSH2 0x66 JUMPI DUP1 PUSH4 0xA36A3630 EQ PUSH2 0x228 JUMPI DUP1 PUSH4 0xB6B55F25 EQ PUSH2 0x246 JUMPI DUP1 PUSH4 0xBDFCCAD3 EQ PUSH2 0x262 JUMPI DUP1 PUSH4 0xF2FDE38B EQ PUSH2 0x280 JUMPI PUSH2 0xF5 JUMP JUMPDEST DUP1 PUSH4 0x7C3A00FD EQ PUSH2 0x1B4 JUMPI DUP1 PUSH4 0x8456B755 EQ PUSH2 0x1D2 JUMPI DUP1 PUSH4 0x8DA5CB5B EQ PUSH2 0x1EE JUMPI DUP1 PUSH4 0x8F6BA29A EQ PUSH2 0x20C JUMPI PUSH2 0xF5 JUMP JUMPDEST DUP1 PUSH4 0x31C364A9 GT PUSH2 0xD3 JUMPI DUP1 PUSH4 0x31C364A9 EQ PUSH2 0x150 JUMPI DUP1 PUSH4 0x54054808 EQ PUSH2 0x16E JUMPI DUP1 PUSH4 0x59C1924C EQ PUSH2 0x18C JUMPI DUP1 PUSH4 0x715018A6 EQ PUSH2 0x1AA JUMPI PUSH2 0xF5 JUMP JUMPDEST DUP1 PUSH4 0x1E2543D1 EQ PUSH2 0xFA JUMPI DUP1 PUSH4 0x20BDF800 EQ PUSH2 0x116 JUMPI DUP1 PUSH4 0x2E1A7D4D EQ PUSH2 0x134 JUMPI JUMPDEST PUSH1 0x0 DUP1 REVERT JUMPDEST PUSH2 0x114 PUSH1 0x4 DUP1 CALLDATASIZE SUB DUP2 ADD SWAP1 PUSH2 0x10F SWAP2 SWAP1 PUSH2 0xD3C JUMP JUMPDEST PUSH2 0x29C JUMP JUMPDEST STOP JUMPDEST PUSH2 0x11E PUSH2 0x49A JUMP JUMPDEST PUSH1 0x40 MLOAD PUSH2 0x12B SWAP2 SWAP1 PUSH2 0xEF8 JUMP JUMPDEST PUSH1 0x40 MLOAD DUP1 SWAP2 SUB SWAP1 RETURN JUMPDEST PUSH2 0x14E PUSH1 0x4 DUP1 CALLDATASIZE SUB DUP2 ADD SWAP1 PUSH2 0x149 SWAP2 SWAP1 PUSH2 0xD13 JUMP JUMPDEST PUSH2 0x4C0 JUMP JUMPDEST STOP JUMPDEST PUSH2 0x158 PUSH2 0x54A JUMP JUMPDEST PUSH1 0x40 MLOAD PUSH2 0x165 SWAP2 SWAP1 PUSH2 0x106A JUMP JUMPDEST PUSH1 0x40 MLOAD DUP1 SWAP2 SUB SWAP1 RETURN JUMPDEST PUSH2 0x176 PUSH2 0x550 JUMP JUMPDEST PUSH1 0x40 MLOAD PUSH2 0x183 SWAP2 SWAP1 PUSH2 0x106A JUMP JUMPDEST PUSH1 0x40 MLOAD DUP1 SWAP2 SUB SWAP1 RETURN JUMPDEST PUSH2 0x194 PUSH2 0x556 JUMP JUMPDEST PUSH1 0x40 MLOAD PUSH2 0x1A1 SWAP2 SWAP1 PUSH2 0x106A JUMP JUMPDEST PUSH1 0x40 MLOAD DUP1 SWAP2 SUB SWAP1 RETURN JUMPDEST PUSH2 0x1B2 PUSH2 0x55C JUMP JUMPDEST STOP JUMPDEST PUSH2 0x1BC PUSH2 0x696 JUMP JUMPDEST PUSH1 0x40 MLOAD PUSH2 0x1C9 SWAP2 SWAP1 PUSH2 0x106A JUMP JUMPDEST PUSH1 0x40 MLOAD DUP1 SWAP2 SUB SWAP1 RETURN JUMPDEST PUSH2 0x1EC PUSH1 0x4 DUP1 CALLDATASIZE SUB DUP2 ADD SWAP1 PUSH2 0x1E7 SWAP2 SWAP1 PUSH2 0xCC1 JUMP JUMPDEST PUSH2 0x69C JUMP JUMPDEST STOP JUMPDEST PUSH2 0x1F6 PUSH2 0x7CC JUMP JUMPDEST PUSH1 0x40 MLOAD PUSH2 0x203 SWAP2 SWAP1 PUSH2 0xEF8 JUMP JUMPDEST PUSH1 0x40 MLOAD DUP1 SWAP2 SUB SWAP1 RETURN JUMPDEST PUSH2 0x226 PUSH1 0x4 DUP1 CALLDATASIZE SUB DUP2 ADD SWAP1 PUSH2 0x221 SWAP2 SWAP1 PUSH2 0xCC1 JUMP JUMPDEST PUSH2 0x7F5 JUMP JUMPDEST STOP JUMPDEST PUSH2 0x230 PUSH2 0x925 JUMP JUMPDEST PUSH1 0x40 MLOAD PUSH2 0x23D SWAP2 SWAP1 PUSH2 0x106A JUMP JUMPDEST PUSH1 0x40 MLOAD DUP1 SWAP2 SUB SWAP1 RETURN JUMPDEST PUSH2 0x260 PUSH1 0x4 DUP1 CALLDATASIZE SUB DUP2 ADD SWAP1 PUSH2 0x25B SWAP2 SWAP1 PUSH2 0xD13 JUMP JUMPDEST PUSH2 0x92B JUMP JUMPDEST STOP JUMPDEST PUSH2 0x26A PUSH2 0xAAB JUMP JUMPDEST PUSH1 0x40 MLOAD PUSH2 0x277 SWAP2 SWAP1 PUSH2 0xEF8 JUMP JUMPDEST PUSH1 0x40 MLOAD DUP1 SWAP2 SUB SWAP1 RETURN JUMPDEST PUSH2 0x29A PUSH1 0x4 DUP1 CALLDATASIZE SUB DUP2 ADD SWAP1 PUSH2 0x295 SWAP2 SWAP1 PUSH2 0xCC1 JUMP JUMPDEST PUSH2 0xAD1 JUMP JUMPDEST STOP JUMPDEST PUSH2 0x2A4 PUSH2 0xC7A JUMP JUMPDEST PUSH20 0xFFFFFFFFFFFFFFFFFFFFFFFFFFFFFFFFFFFFFFFF AND PUSH2 0x2C2 PUSH2 0x7CC JUMP JUMPDEST PUSH20 0xFFFFFFFFFFFFFFFFFFFFFFFFFFFFFFFFFFFFFFFF AND EQ PUSH2 0x318 JUMPI PUSH1 0x40 MLOAD PUSH32 0x8C379A000000000000000000000000000000000000000000000000000000000 DUP2 MSTORE PUSH1 0x4 ADD PUSH2 0x30F SWAP1 PUSH2 0x102A JUMP JUMPDEST PUSH1 0x40 MLOAD DUP1 SWAP2 SUB SWAP1 REVERT JUMPDEST PUSH1 0x8 SLOAD DUP5 GT ISZERO DUP1 ISZERO PUSH2 0x32B JUMPI POP PUSH1 0x0 DUP5 LT ISZERO JUMPDEST PUSH2 0x36A JUMPI PUSH1 0x40 MLOAD PUSH32 0x8C379A000000000000000000000000000000000000000000000000000000000 DUP2 MSTORE PUSH1 0x4 ADD PUSH2 0x361 SWAP1 PUSH2 0x104A JUMP JUMPDEST PUSH1 0x40 MLOAD DUP1 SWAP2 SUB SWAP1 REVERT JUMPDEST PUSH1 0x8 SLOAD DUP4 GT ISZERO DUP1 ISZERO PUSH2 0x37D JUMPI POP PUSH1 0x0 DUP4 LT ISZERO JUMPDEST DUP1 ISZERO PUSH2 0x389 JUMPI POP DUP4 DUP4 GT ISZERO JUMPDEST PUSH2 0x3C8 JUMPI PUSH1 0x40 MLOAD PUSH32 0x8C379A000000000000000000000000000000000000000000000000000000000 DUP2 MSTORE PUSH1 0x4 ADD PUSH2 0x3BF SWAP1 PUSH2 0xF8A JUMP JUMPDEST PUSH1 0x40 MLOAD DUP1 SWAP2 SUB SWAP1 REVERT JUMPDEST DUP4 PUSH1 0x4 DUP2 SWAP1 SSTORE POP DUP3 PUSH1 0x5 DUP2 SWAP1 SSTORE POP PUSH1 0x8 SLOAD DUP3 GT ISZERO DUP1 ISZERO PUSH2 0x3E9 JUMPI POP PUSH1 0x0 DUP3 LT ISZERO JUMPDEST PUSH2 0x428 JUMPI PUSH1 0x40 MLOAD PUSH32 0x8C379A000000000000000000000000000000000000000000000000000000000 DUP2 MSTORE PUSH1 0x4 ADD PUSH2 0x41F SWAP1 PUSH2 0xF4A JUMP JUMPDEST PUSH1 0x40 MLOAD DUP1 SWAP2 SUB SWAP1 REVERT JUMPDEST PUSH1 0x8 SLOAD DUP2 GT ISZERO DUP1 ISZERO PUSH2 0x43B JUMPI POP PUSH1 0x0 DUP2 LT ISZERO JUMPDEST DUP1 ISZERO PUSH2 0x447 JUMPI POP DUP2 DUP2 GT ISZERO JUMPDEST PUSH2 0x486 JUMPI PUSH1 0x40 MLOAD PUSH32 0x8C379A000000000000000000000000000000000000000000000000000000000 DUP2 MSTORE PUSH1 0x4 ADD PUSH2 0x47D SWAP1 PUSH2 0xFAA JUMP JUMPDEST PUSH1 0x40 MLOAD DUP1 SWAP2 SUB SWAP1 REVERT JUMPDEST DUP2 PUSH1 0x6 DUP2 SWAP1 SSTORE POP DUP1 PUSH1 0x7 DUP2 SWAP1 SSTORE POP POP POP POP POP JUMP JUMPDEST PUSH1 0x2 PUSH1 0x0 SWAP1 SLOAD SWAP1 PUSH2 0x100 EXP SWAP1 DIV PUSH20 0xFFFFFFFFFFFFFFFFFFFFFFFFFFFFFFFFFFFFFFFF AND DUP2 JUMP JUMPDEST PUSH1 0x3 PUSH1 0x0 SWAP1 SLOAD SWAP1 PUSH2 0x100 EXP SWAP1 DIV PUSH20 0xFFFFFFFFFFFFFFFFFFFFFFFFFFFFFFFFFFFFFFFF AND PUSH20 0xFFFFFFFFFFFFFFFFFFFFFFFFFFFFFFFFFFFFFFFF AND CALLER PUSH20 0xFFFFFFFFFFFFFFFFFFFFFFFFFFFFFFFFFFFFFFFF AND PUSH32 0x9B1BFA7FA9EE420A16E124F794C35AC9F90472ACC99140EB2F6447C714CAD8EB DUP4 PUSH1 0x40 MLOAD PUSH2 0x53F SWAP2 SWAP1 PUSH2 0x106A JUMP JUMPDEST PUSH1 0x40 MLOAD DUP1 SWAP2 SUB SWAP1 LOG3 POP JUMP JUMPDEST PUSH1 0x7 SLOAD DUP2 JUMP JUMPDEST PUSH1 0x5 SLOAD DUP2 JUMP JUMPDEST PUSH1 0x8 SLOAD DUP2 JUMP JUMPDEST PUSH2 0x564 PUSH2 0xC7A JUMP JUMPDEST PUSH20 0xFFFFFFFFFFFFFFFFFFFFFFFFFFFFFFFFFFFFFFFF AND PUSH2 0x582 PUSH2 0x7CC JUMP JUMPDEST PUSH20 0xFFFFFFFFFFFFFFFFFFFFFFFFFFFFFFFFFFFFFFFF AND EQ PUSH2 0x5D8 JUMPI PUSH1 0x40 MLOAD PUSH32 0x8C379A000000000000000000000000000000000000000000000000000000000 DUP2 MSTORE PUSH1 0x4 ADD PUSH2 0x5CF SWAP1 PUSH2 0x102A JUMP JUMPDEST PUSH1 0x40 MLOAD DUP1 SWAP2 SUB SWAP1 REVERT JUMPDEST PUSH1 0x0 PUSH20 0xFFFFFFFFFFFFFFFFFFFFFFFFFFFFFFFFFFFFFFFF AND PUSH1 0x0 DUP1 SLOAD SWAP1 PUSH2 0x100 EXP SWAP1 DIV PUSH20 0xFFFFFFFFFFFFFFFFFFFFFFFFFFFFFFFFFFFFFFFF AND PUSH20 0xFFFFFFFFFFFFFFFFFFFFFFFFFFFFFFFFFFFFFFFF AND PUSH32 0x8BE0079C531659141344CD1FD0A4F28419497F9722A3DAAFE3B4186F6B6457E0 PUSH1 0x40 MLOAD PUSH1 0x40 MLOAD DUP1 SWAP2 SUB SWAP1 LOG3 PUSH1 0x0 DUP1 PUSH1 0x0 PUSH2 0x100 EXP DUP2 SLOAD DUP2 PUSH20 0xFFFFFFFFFFFFFFFFFFFFFFFFFFFFFFFFFFFFFFFF MUL NOT AND SWAP1 DUP4 PUSH20 0xFFFFFFFFFFFFFFFFFFFFFFFFFFFFFFFFFFFFFFFF AND MUL OR SWAP1 SSTORE POP JUMP JUMPDEST PUSH1 0x6 SLOAD DUP2 JUMP JUMPDEST PUSH2 0x6A4 PUSH2 0xC7A JUMP JUMPDEST PUSH20 0xFFFFFFFFFFFFFFFFFFFFFFFFFFFFFFFFFFFFFFFF AND PUSH2 0x6C2 PUSH2 0x7CC JUMP JUMPDEST PUSH20 0xFFFFFFFFFFFFFFFFFFFFFFFFFFFFFFFFFFFFFFFF AND EQ PUSH2 0x718 JUMPI PUSH1 0x40 MLOAD PUSH32 0x8C379A000000000000000000000000000000000000000000000000000000000 DUP2 MSTORE PUSH1 0x4 ADD PUSH2 0x70F SWAP1 PUSH2 0x102A JUMP JUMPDEST PUSH1 0x40 MLOAD DUP1 SWAP2 SUB SWAP1 REVERT JUMPDEST PUSH1 0x0 PUSH20 0xFFFFFFFFFFFFFFFFFFFFFFFFFFFFFFFFFFFFFFFF AND DUP2 PUSH20 0xFFFFFFFFFFFFFFFFFFFFFFFFFFFFFFFFFFFFFFFF AND EQ ISZERO PUSH2 0x788 JUMPI PUSH1 0x40 MLOAD PUSH32 0x8C379A000000000000000000000000000000000000000000000000000000000 DUP2 MSTORE PUSH1 0x4 ADD PUSH2 0x77F SWAP1 PUSH2 0xFEA JUMP JUMPDEST PUSH1 0x40 MLOAD DUP1 SWAP2 SUB SWAP1 REVERT JUMPDEST DUP1 PUSH1 0x3 PUSH1 0x0 PUSH2 0x100 EXP DUP2 SLOAD DUP2 PUSH20 0xFFFFFFFFFFFFFFFFFFFFFFFFFFFFFFFFFFFFFFFF MUL NOT AND SWAP1 DUP4 PUSH20 0xFFFFFFFFFFFFFFFFFFFFFFFFFFFFFFFFFFFFFFFF AND MUL OR SWAP1 SSTORE POP POP JUMP JUMPDEST PUSH1 0x0 DUP1 PUSH1 0x0 SWAP1 SLOAD SWAP1 PUSH2 0x100 EXP SWAP1 DIV PUSH20 0xFFFFFFFFFFFFFFFFFFFFFFFFFFFFFFFFFFFFFFFF AND SWAP1 POP SWAP1 JUMP JUMPDEST PUSH2 0x7FD PUSH2 0xC7A JUMP JUMPDEST PUSH20 0xFFFFFFFFFFFFFFFFFFFFFFFFFFFFFFFFFFFFFFFF AND PUSH2 0x81B PUSH2 0x7CC JUMP JUMPDEST PUSH20 0xFFFFFFFFFFFFFFFFFFFFFFFFFFFFFFFFFFFFFFFF AND EQ PUSH2 0x871 JUMPI PUSH1 0x40 MLOAD PUSH32 0x8C379A000000000000000000000000000000000000000000000000000000000 DUP2 MSTORE PUSH1 0x4 ADD PUSH2 0x868 SWAP1 PUSH2 0x102A JUMP JUMPDEST PUSH1 0x40 MLOAD DUP1 SWAP2 SUB SWAP1 REVERT JUMPDEST PUSH1 0x0 PUSH20 0xFFFFFFFFFFFFFFFFFFFFFFFFFFFFFFFFFFFFFFFF AND DUP2 PUSH20 0xFFFFFFFFFFFFFFFFFFFFFFFFFFFFFFFFFFFFFFFF AND EQ ISZERO PUSH2 0x8E1 JUMPI PUSH1 0x40 MLOAD PUSH32 0x8C379A000000000000000000000000000000000000000000000000000000000 DUP2 MSTORE PUSH1 0x4 ADD PUSH2 0x8D8 SWAP1 PUSH2 0x100A JUMP JUMPDEST PUSH1 0x40 MLOAD DUP1 SWAP2 SUB SWAP1 REVERT JUMPDEST DUP1 PUSH1 0x2 PUSH1 0x0 PUSH2 0x100 EXP DUP2 SLOAD DUP2 PUSH20 0xFFFFFFFFFFFFFFFFFFFFFFFFFFFFFFFFFFFFFFFF MUL NOT AND SWAP1 DUP4 PUSH20 0xFFFFFFFFFFFFFFFFFFFFFFFFFFFFFFFFFFFFFFFF AND MUL OR SWAP1 SSTORE POP POP JUMP JUMPDEST PUSH1 0x4 SLOAD DUP2 JUMP JUMPDEST PUSH1 0x0 PUSH1 0x2 PUSH1 0x0 SWAP1 SLOAD SWAP1 PUSH2 0x100 EXP SWAP1 DIV PUSH20 0xFFFFFFFFFFFFFFFFFFFFFFFFFFFFFFFFFFFFFFFF AND SWAP1 POP DUP1 PUSH20 0xFFFFFFFFFFFFFFFFFFFFFFFFFFFFFFFFFFFFFFFF AND PUSH4 0x23B872DD CALLER ADDRESS DUP6 PUSH1 0x40 MLOAD DUP5 PUSH4 0xFFFFFFFF AND PUSH1 0xE0 SHL DUP2 MSTORE PUSH1 0x4 ADD PUSH2 0x98F SWAP4 SWAP3 SWAP2 SWAP1 PUSH2 0xF13 JUMP JUMPDEST PUSH1 0x20 PUSH1 0x40 MLOAD DUP1 DUP4 SUB DUP2 PUSH1 0x0 DUP8 DUP1 EXTCODESIZE ISZERO DUP1 ISZERO PUSH2 0x9A9 JUMPI PUSH1 0x0 DUP1 REVERT JUMPDEST POP GAS CALL ISZERO DUP1 ISZERO PUSH2 0x9BD JUMPI RETURNDATASIZE PUSH1 0x0 DUP1 RETURNDATACOPY RETURNDATASIZE PUSH1 0x0 REVERT JUMPDEST POP POP POP POP PUSH1 0x40 MLOAD RETURNDATASIZE PUSH1 0x1F NOT PUSH1 0x1F DUP3 ADD AND DUP3 ADD DUP1 PUSH1 0x40 MSTORE POP DUP2 ADD SWAP1 PUSH2 0x9E1 SWAP2 SWAP1 PUSH2 0xCEA JUMP JUMPDEST PUSH2 0xA20 JUMPI PUSH1 0x40 MLOAD PUSH32 0x8C379A000000000000000000000000000000000000000000000000000000000 DUP2 MSTORE PUSH1 0x4 ADD PUSH2 0xA17 SWAP1 PUSH2 0xFCA JUMP JUMPDEST PUSH1 0x40 MLOAD DUP1 SWAP2 SUB SWAP1 REVERT JUMPDEST PUSH1 0x3 PUSH1 0x0 SWAP1 SLOAD SWAP1 PUSH2 0x100 EXP SWAP1 DIV PUSH20 0xFFFFFFFFFFFFFFFFFFFFFFFFFFFFFFFFFFFFFFFF AND PUSH20 0xFFFFFFFFFFFFFFFFFFFFFFFFFFFFFFFFFFFFFFFF AND CALLER PUSH20 0xFFFFFFFFFFFFFFFFFFFFFFFFFFFFFFFFFFFFFFFF AND PUSH32 0x5548C837AB068CF56A2C2479DF0882A4922FD203EDB7517321831D95078C5F62 DUP5 PUSH1 0x40 MLOAD PUSH2 0xA9F SWAP2 SWAP1 PUSH2 0x106A JUMP JUMPDEST PUSH1 0x40 MLOAD DUP1 SWAP2 SUB SWAP1 LOG3 POP POP JUMP JUMPDEST PUSH1 0x3 PUSH1 0x0 SWAP1 SLOAD SWAP1 PUSH2 0x100 EXP SWAP1 DIV PUSH20 0xFFFFFFFFFFFFFFFFFFFFFFFFFFFFFFFFFFFFFFFF AND DUP2 JUMP JUMPDEST PUSH2 0xAD9 PUSH2 0xC7A JUMP JUMPDEST PUSH20 0xFFFFFFFFFFFFFFFFFFFFFFFFFFFFFFFFFFFFFFFF AND PUSH2 0xAF7 PUSH2 0x7CC JUMP JUMPDEST PUSH20 0xFFFFFFFFFFFFFFFFFFFFFFFFFFFFFFFFFFFFFFFF AND EQ PUSH2 0xB4D JUMPI PUSH1 0x40 MLOAD PUSH32 0x8C379A000000000000000000000000000000000000000000000000000000000 DUP2 MSTORE PUSH1 0x4 ADD PUSH2 0xB44 SWAP1 PUSH2 0x102A JUMP JUMPDEST PUSH1 0x40 MLOAD DUP1 SWAP2 SUB SWAP1 REVERT JUMPDEST PUSH1 0x0 PUSH20 0xFFFFFFFFFFFFFFFFFFFFFFFFFFFFFFFFFFFFFFFF AND DUP2 PUSH20 0xFFFFFFFFFFFFFFFFFFFFFFFFFFFFFFFFFFFFFFFF AND EQ ISZERO PUSH2 0xBBD JUMPI PUSH1 0x40 MLOAD PUSH32 0x8C379A000000000000000000000000000000000000000000000000000000000 DUP2 MSTORE PUSH1 0x4 ADD PUSH2 0xBB4 SWAP1 PUSH2 0xF6A JUMP JUMPDEST PUSH1 0x40 MLOAD DUP1 SWAP2 SUB SWAP1 REVERT JUMPDEST DUP1 PUSH20 0xFFFFFFFFFFFFFFFFFFFFFFFFFFFFFFFFFFFFFFFF AND PUSH1 0x0 DUP1 SLOAD SWAP1 PUSH2 0x100 EXP SWAP1 DIV PUSH20 0xFFFFFFFFFFFFFFFFFFFFFFFFFFFFFFFFFFFFFFFF AND PUSH20 0xFFFFFFFFFFFFFFFFFFFFFFFFFFFFFFFFFFFFFFFF AND PUSH32 0x8BE0079C531659141344CD1FD0A4F28419497F9722A3DAAFE3B4186F6B6457E0 PUSH1 0x40 MLOAD PUSH1 0x40 MLOAD DUP1 SWAP2 SUB SWAP1 LOG3 DUP1 PUSH1 0x0 DUP1 PUSH2 0x100 EXP DUP2 SLOAD DUP2 PUSH20 0xFFFFFFFFFFFFFFFFFFFFFFFFFFFFFFFFFFFFFFFF MUL NOT AND SWAP1 DUP4 PUSH20 0xFFFFFFFFFFFFFFFFFFFFFFFFFFFFFFFFFFFFFFFF AND MUL OR SWAP1 SSTORE POP POP JUMP JUMPDEST PUSH1 0x0 CALLER SWAP1 POP SWAP1 JUMP JUMPDEST PUSH1 0x0 DUP2 CALLDATALOAD SWAP1 POP PUSH2 0xC91 DUP2 PUSH2 0x1275 JUMP JUMPDEST SWAP3 SWAP2 POP POP JUMP JUMPDEST PUSH1 0x0 DUP2 MLOAD SWAP1 POP PUSH2 0xCA6 DUP2 PUSH2 0x128C JUMP JUMPDEST SWAP3 SWAP2 POP POP JUMP JUMPDEST PUSH1 0x0 DUP2 CALLDATALOAD SWAP1 POP PUSH2 0xCBB DUP2 PUSH2 0x12A3 JUMP JUMPDEST SWAP3 SWAP2 POP POP JUMP JUMPDEST PUSH1 0x0 PUSH1 0x20 DUP3 DUP5 SUB SLT ISZERO PUSH2 0xCD3 JUMPI PUSH1 0x0 DUP1 REVERT JUMPDEST PUSH1 0x0 PUSH2 0xCE1 DUP5 DUP3 DUP6 ADD PUSH2 0xC82 JUMP JUMPDEST SWAP2 POP POP SWAP3 SWAP2 POP POP JUMP JUMPDEST PUSH1 0x0 PUSH1 0x20 DUP3 DUP5 SUB SLT ISZERO PUSH2 0xCFC JUMPI PUSH1 0x0 DUP1 REVERT JUMPDEST PUSH1 0x0 PUSH2 0xD0A DUP5 DUP3 DUP6 ADD PUSH2 0xC97 JUMP JUMPDEST SWAP2 POP POP SWAP3 SWAP2 POP POP JUMP JUMPDEST PUSH1 0x0 PUSH1 0x20 DUP3 DUP5 SUB SLT ISZERO PUSH2 0xD25 JUMPI PUSH1 0x0 DUP1 REVERT JUMPDEST PUSH1 0x0 PUSH2 0xD33 DUP5 DUP3 DUP6 ADD PUSH2 0xCAC JUMP JUMPDEST SWAP2 POP POP SWAP3 SWAP2 POP POP JUMP JUMPDEST PUSH1 0x0 DUP1 PUSH1 0x0 DUP1 PUSH1 0x80 DUP6 DUP8 SUB SLT ISZERO PUSH2 0xD52 JUMPI PUSH1 0x0 DUP1 REVERT JUMPDEST PUSH1 0x0 PUSH2 0xD60 DUP8 DUP3 DUP9 ADD PUSH2 0xCAC JUMP JUMPDEST SWAP5 POP POP PUSH1 0x20 PUSH2 0xD71 DUP8 DUP3 DUP9 ADD PUSH2 0xCAC JUMP JUMPDEST SWAP4 POP POP PUSH1 0x40 PUSH2 0xD82 DUP8 DUP3 DUP9 ADD PUSH2 0xCAC JUMP JUMPDEST SWAP3 POP POP PUSH1 0x60 PUSH2 0xD93 DUP8 DUP3 DUP9 ADD PUSH2 0xCAC JUMP JUMPDEST SWAP2 POP POP SWAP3 SWAP6 SWAP2 SWAP5 POP SWAP3 POP JUMP JUMPDEST PUSH2 0xDA8 DUP2 PUSH2 0x1096 JUMP JUMPDEST DUP3 MSTORE POP POP JUMP JUMPDEST PUSH1 0x0 PUSH2 0xDBB PUSH1 0x17 DUP4 PUSH2 0x1085 JUMP JUMPDEST SWAP2 POP PUSH2 0xDC6 DUP3 PUSH2 0x10DE JUMP JUMPDEST PUSH1 0x20 DUP3 ADD SWAP1 POP SWAP2 SWAP1 POP JUMP JUMPDEST PUSH1 0x0 PUSH2 0xDDE PUSH1 0x26 DUP4 PUSH2 0x1085 JUMP JUMPDEST SWAP2 POP PUSH2 0xDE9 DUP3 PUSH2 0x1107 JUMP JUMPDEST PUSH1 0x40 DUP3 ADD SWAP1 POP SWAP2 SWAP1 POP JUMP JUMPDEST PUSH1 0x0 PUSH2 0xE01 PUSH1 0x18 DUP4 PUSH2 0x1085 JUMP JUMPDEST SWAP2 POP PUSH2 0xE0C DUP3 PUSH2 0x1156 JUMP JUMPDEST PUSH1 0x20 DUP3 ADD SWAP1 POP SWAP2 SWAP1 POP JUMP JUMPDEST PUSH1 0x0 PUSH2 0xE24 PUSH1 0x17 DUP4 PUSH2 0x1085 JUMP JUMPDEST SWAP2 POP PUSH2 0xE2F DUP3 PUSH2 0x117F JUMP JUMPDEST PUSH1 0x20 DUP3 ADD SWAP1 POP SWAP2 SWAP1 POP JUMP JUMPDEST PUSH1 0x0 PUSH2 0xE47 PUSH1 0x17 DUP4 PUSH2 0x1085 JUMP JUMPDEST SWAP2 POP PUSH2 0xE52 DUP3 PUSH2 0x11A8 JUMP JUMPDEST PUSH1 0x20 DUP3 ADD SWAP1 POP SWAP2 SWAP1 POP JUMP JUMPDEST PUSH1 0x0 PUSH2 0xE6A PUSH1 0x20 DUP4 PUSH2 0x1085 JUMP JUMPDEST SWAP2 POP PUSH2 0xE75 DUP3 PUSH2 0x11D1 JUMP JUMPDEST PUSH1 0x20 DUP3 ADD SWAP1 POP SWAP2 SWAP1 POP JUMP JUMPDEST PUSH1 0x0 PUSH2 0xE8D PUSH1 0x1E DUP4 PUSH2 0x1085 JUMP JUMPDEST SWAP2 POP PUSH2 0xE98 DUP3 PUSH2 0x11FA JUMP JUMPDEST PUSH1 0x20 DUP3 ADD SWAP1 POP SWAP2 SWAP1 POP JUMP JUMPDEST PUSH1 0x0 PUSH2 0xEB0 PUSH1 0x20 DUP4 PUSH2 0x1085 JUMP JUMPDEST SWAP2 POP PUSH2 0xEBB DUP3 PUSH2 0x1223 JUMP JUMPDEST PUSH1 0x20 DUP3 ADD SWAP1 POP SWAP2 SWAP1 POP JUMP JUMPDEST PUSH1 0x0 PUSH2 0xED3 PUSH1 0x18 DUP4 PUSH2 0x1085 JUMP JUMPDEST SWAP2 POP PUSH2 0xEDE DUP3 PUSH2 0x124C JUMP JUMPDEST PUSH1 0x20 DUP3 ADD SWAP1 POP SWAP2 SWAP1 POP JUMP JUMPDEST PUSH2 0xEF2 DUP2 PUSH2 0x10D4 JUMP JUMPDEST DUP3 MSTORE POP POP JUMP JUMPDEST PUSH1 0x0 PUSH1 0x20 DUP3 ADD SWAP1 POP PUSH2 0xF0D PUSH1 0x0 DUP4 ADD DUP5 PUSH2 0xD9F JUMP JUMPDEST SWAP3 SWAP2 POP POP JUMP JUMPDEST PUSH1 0x0 PUSH1 0x60 DUP3 ADD SWAP1 POP PUSH2 0xF28 PUSH1 0x0 DUP4 ADD DUP7 PUSH2 0xD9F JUMP JUMPDEST PUSH2 0xF35 PUSH1 0x20 DUP4 ADD DUP6 PUSH2 0xD9F JUMP JUMPDEST PUSH2 0xF42 PUSH1 0x40 DUP4 ADD DUP5 PUSH2 0xEE9 JUMP JUMPDEST SWAP5 SWAP4 POP POP POP POP JUMP JUMPDEST PUSH1 0x0 PUSH1 0x20 DUP3 ADD SWAP1 POP DUP2 DUP2 SUB PUSH1 0x0 DUP4 ADD MSTORE PUSH2 0xF63 DUP2 PUSH2 0xDAE JUMP JUMPDEST SWAP1 POP SWAP2 SWAP1 POP JUMP JUMPDEST PUSH1 0x0 PUSH1 0x20 DUP3 ADD SWAP1 POP DUP2 DUP2 SUB PUSH1 0x0 DUP4 ADD MSTORE PUSH2 0xF83 DUP2 PUSH2 0xDD1 JUMP JUMPDEST SWAP1 POP SWAP2 SWAP1 POP JUMP JUMPDEST PUSH1 0x0 PUSH1 0x20 DUP3 ADD SWAP1 POP DUP2 DUP2 SUB PUSH1 0x0 DUP4 ADD MSTORE PUSH2 0xFA3 DUP2 PUSH2 0xDF4 JUMP JUMPDEST SWAP1 POP SWAP2 SWAP1 POP JUMP JUMPDEST PUSH1 0x0 PUSH1 0x20 DUP3 ADD SWAP1 POP DUP2 DUP2 SUB PUSH1 0x0 DUP4 ADD MSTORE PUSH2 0xFC3 DUP2 PUSH2 0xE17 JUMP JUMPDEST SWAP1 POP SWAP2 SWAP1 POP JUMP JUMPDEST PUSH1 0x0 PUSH1 0x20 DUP3 ADD SWAP1 POP DUP2 DUP2 SUB PUSH1 0x0 DUP4 ADD MSTORE PUSH2 0xFE3 DUP2 PUSH2 0xE3A JUMP JUMPDEST SWAP1 POP SWAP2 SWAP1 POP JUMP JUMPDEST PUSH1 0x0 PUSH1 0x20 DUP3 ADD SWAP1 POP DUP2 DUP2 SUB PUSH1 0x0 DUP4 ADD MSTORE PUSH2 0x1003 DUP2 PUSH2 0xE5D JUMP JUMPDEST SWAP1 POP SWAP2 SWAP1 POP JUMP JUMPDEST PUSH1 0x0 PUSH1 0x20 DUP3 ADD SWAP1 POP DUP2 DUP2 SUB PUSH1 0x0 DUP4 ADD MSTORE PUSH2 0x1023 DUP2 PUSH2 0xE80 JUMP JUMPDEST SWAP1 POP SWAP2 SWAP1 POP JUMP JUMPDEST PUSH1 0x0 PUSH1 0x20 DUP3 ADD SWAP1 POP DUP2 DUP2 SUB PUSH1 0x0 DUP4 ADD MSTORE PUSH2 0x1043 DUP2 PUSH2 0xEA3 JUMP JUMPDEST SWAP1 POP SWAP2 SWAP1 POP JUMP JUMPDEST PUSH1 0x0 PUSH1 0x20 DUP3 ADD SWAP1 POP DUP2 DUP2 SUB PUSH1 0x0 DUP4 ADD MSTORE PUSH2 0x1063 DUP2 PUSH2 0xEC6 JUMP JUMPDEST SWAP1 POP SWAP2 SWAP1 POP JUMP JUMPDEST PUSH1 0x0 PUSH1 0x20 DUP3 ADD SWAP1 POP PUSH2 0x107F PUSH1 0x0 DUP4 ADD DUP5 PUSH2 0xEE9 JUMP JUMPDEST SWAP3 SWAP2 POP POP JUMP JUMPDEST PUSH1 0x0 DUP3 DUP3 MSTORE PUSH1 0x20 DUP3 ADD SWAP1 POP SWAP3 SWAP2 POP POP JUMP JUMPDEST PUSH1 0x0 PUSH2 0x10A1 DUP3 PUSH2 0x10B4 JUMP JUMPDEST SWAP1 POP SWAP2 SWAP1 POP JUMP JUMPDEST PUSH1 0x0 DUP2 ISZERO ISZERO SWAP1 POP SWAP2 SWAP1 POP JUMP JUMPDEST PUSH1 0x0 PUSH20 0xFFFFFFFFFFFFFFFFFFFFFFFFFFFFFFFFFFFFFFFF DUP3 AND SWAP1 POP SWAP2 SWAP1 POP JUMP JUMPDEST PUSH1 0x0 DUP2 SWAP1 POP SWAP2 SWAP1 POP JUMP JUMPDEST PUSH32 0x746F74616C4952617465206F7574206F662072616E6765000000000000000000 PUSH1 0x0 DUP3 ADD MSTORE POP JUMP JUMPDEST PUSH32 0x4F776E61626C653A206E6577206F776E657220697320746865207A65726F2061 PUSH1 0x0 DUP3 ADD MSTORE PUSH32 0x6464726573730000000000000000000000000000000000000000000000000000 PUSH1 0x20 DUP3 ADD MSTORE POP JUMP JUMPDEST PUSH32 0x6C69714665655368617265206F7574206F662072616E67650000000000000000 PUSH1 0x0 DUP3 ADD MSTORE POP JUMP JUMPDEST PUSH32 0x69526174655368617265206F7574206F662072616E6765000000000000000000 PUSH1 0x0 DUP3 ADD MSTORE POP JUMP JUMPDEST PUSH32 0x6465706F736974207472616E73666572206661696C6564000000000000000000 PUSH1 0x0 DUP3 ADD MSTORE POP JUMP JUMPDEST PUSH32 0x78535553484920636F6E7472616374206E6F74207A65726F2061646472657373 PUSH1 0x0 DUP3 ADD MSTORE POP JUMP JUMPDEST PUSH32 0x7573647A20636F6E7472616374206E6F74207A65726F20616464726573730000 PUSH1 0x0 DUP3 ADD MSTORE POP JUMP JUMPDEST PUSH32 0x4F776E61626C653A2063616C6C6572206973206E6F7420746865206F776E6572 PUSH1 0x0 DUP3 ADD MSTORE POP JUMP JUMPDEST PUSH32 0x6C6971546F74616C466565206F7574206F662072616E67650000000000000000 PUSH1 0x0 DUP3 ADD MSTORE POP JUMP JUMPDEST PUSH2 0x127E DUP2 PUSH2 0x1096 JUMP JUMPDEST DUP2 EQ PUSH2 0x1289 JUMPI PUSH1 0x0 DUP1 REVERT JUMPDEST POP JUMP JUMPDEST PUSH2 0x1295 DUP2 PUSH2 0x10A8 JUMP JUMPDEST DUP2 EQ PUSH2 0x12A0 JUMPI PUSH1 0x0 DUP1 REVERT JUMPDEST POP JUMP JUMPDEST PUSH2 0x12AC DUP2 PUSH2 0x10D4 JUMP JUMPDEST DUP2 EQ PUSH2 0x12B7 JUMPI PUSH1 0x0 DUP1 REVERT JUMPDEST POP JUMP INVALID LOG2 PUSH5 0x6970667358 0x22 SLT KECCAK256 EQ 0x2C CALL LOG2 DUP12 0xBA SMOD SWAP13 SWAP12 PUSH6 0xE311206615A1 LT STATICCALL 0xE3 PUSH14 0x11E74309FF622E03B687FE4E6473 PUSH16 0x6C634300080400330000000000000000 "
        },
        "methodIdentifiers": {
          "FEE_RATE_SCALING_FACTOR()": "59c1924c",
          "deposit(uint256)": "b6b55f25",
          "interestRate()": "7c3a00fd",
          "lenderIRateShare()": "31c364a9",
          "liquidationFee()": "a36a3630",
          "liquidatorFeeShare()": "54054808",
          "owner()": "8da5cb5b",
          "renounceOwnership()": "715018a6",
          "setFeesAndRates(uint256,uint256,uint256,uint256)": "1e2543d1",
          "setUSDZAddress(address)": "8f6ba29a",
          "setXSUSHIAddress(address)": "8456b755",
          "transferOwnership(address)": "f2fde38b",
          "usdzAddress()": "20bdf800",
          "withdraw(uint256)": "2e1a7d4d",
          "xSushiAddress()": "bdfccad3"
        }
      }
    }
  }
}