{
  "contracts/Controller.sol": {
    "Controller": {
      "abi": [
        {
          "inputs": [
            {
              "internalType": "address",
              "name": "_usdzAddress",
              "type": "address"
            },
            {
              "internalType": "address",
              "name": "_xSushiAddress",
              "type": "address"
            },
            {
              "internalType": "address",
              "name": "_routerAddress",
              "type": "address"
            },
            {
              "internalType": "address[]",
              "name": "_swapPath",
              "type": "address[]"
            },
            {
              "internalType": "uint256",
              "name": "_liqTotalFee",
              "type": "uint256"
            },
            {
              "internalType": "uint256",
              "name": "_liqFeeShare",
              "type": "uint256"
            },
            {
              "internalType": "uint256",
              "name": "_interestRate",
              "type": "uint256"
            },
            {
              "internalType": "uint256",
              "name": "_borrowThreshold",
              "type": "uint256"
            },
            {
              "internalType": "uint256",
              "name": "_liqThreshold",
              "type": "uint256"
            }
          ],
          "stateMutability": "nonpayable",
          "type": "constructor"
        },
        {
          "anonymous": false,
          "inputs": [
            {
              "indexed": true,
              "internalType": "address",
              "name": "account",
              "type": "address"
            },
            {
              "indexed": false,
              "internalType": "uint256",
              "name": "amountBorrowed",
              "type": "uint256"
            },
            {
              "indexed": false,
              "internalType": "uint256",
              "name": "totalDebt",
              "type": "uint256"
            },
            {
              "indexed": false,
              "internalType": "uint256",
              "name": "collateralAmount",
              "type": "uint256"
            }
          ],
          "name": "Borrow",
          "type": "event"
        },
        {
          "anonymous": false,
          "inputs": [
            {
              "indexed": true,
              "internalType": "address",
              "name": "account",
              "type": "address"
            },
            {
              "indexed": false,
              "internalType": "uint256",
              "name": "amount",
              "type": "uint256"
            }
          ],
          "name": "Deposit",
          "type": "event"
        },
        {
          "anonymous": false,
          "inputs": [
            {
              "indexed": true,
              "internalType": "address",
              "name": "account",
              "type": "address"
            },
            {
              "indexed": true,
              "internalType": "address",
              "name": "liquidator",
              "type": "address"
            },
            {
              "indexed": false,
              "internalType": "uint256",
              "name": "collateralLiquidated",
              "type": "uint256"
            },
            {
              "indexed": false,
              "internalType": "uint256",
              "name": "lastCollateralRatio",
              "type": "uint256"
            },
            {
              "indexed": false,
              "internalType": "uint256",
              "name": "lastDebtOutstanding",
              "type": "uint256"
            }
          ],
          "name": "Liquidation",
          "type": "event"
        },
        {
          "anonymous": false,
          "inputs": [
            {
              "indexed": true,
              "internalType": "address",
              "name": "previousOwner",
              "type": "address"
            },
            {
              "indexed": true,
              "internalType": "address",
              "name": "newOwner",
              "type": "address"
            }
          ],
          "name": "OwnershipTransferred",
          "type": "event"
        },
        {
          "anonymous": false,
          "inputs": [
            {
              "indexed": true,
              "internalType": "address",
              "name": "account",
              "type": "address"
            },
            {
              "indexed": false,
              "internalType": "uint256",
              "name": "debtRepaid",
              "type": "uint256"
            },
            {
              "indexed": false,
              "internalType": "uint256",
              "name": "debtRemaining",
              "type": "uint256"
            },
            {
              "indexed": false,
              "internalType": "uint256",
              "name": "collateralAmount",
              "type": "uint256"
            }
          ],
          "name": "Repay",
          "type": "event"
        },
        {
          "anonymous": false,
          "inputs": [
            {
              "indexed": true,
              "internalType": "address",
              "name": "account",
              "type": "address"
            },
            {
              "indexed": false,
              "internalType": "uint256",
              "name": "amount",
              "type": "uint256"
            }
          ],
          "name": "Withdraw",
          "type": "event"
        },
        {
          "inputs": [],
          "name": "SCALING_FACTOR",
          "outputs": [
            {
              "internalType": "uint256",
              "name": "",
              "type": "uint256"
            }
          ],
          "stateMutability": "view",
          "type": "function"
        },
        {
          "inputs": [],
          "name": "SECONDS_IN_YEAR",
          "outputs": [
            {
              "internalType": "int128",
              "name": "",
              "type": "int128"
            }
          ],
          "stateMutability": "view",
          "type": "function"
        },
        {
          "inputs": [
            {
              "internalType": "uint256",
              "name": "_amount",
              "type": "uint256"
            }
          ],
          "name": "borrow",
          "outputs": [],
          "stateMutability": "nonpayable",
          "type": "function"
        },
        {
          "inputs": [],
          "name": "borrowThreshold",
          "outputs": [
            {
              "internalType": "uint256",
              "name": "",
              "type": "uint256"
            }
          ],
          "stateMutability": "view",
          "type": "function"
        },
        {
          "inputs": [
            {
              "internalType": "address",
              "name": "_account",
              "type": "address"
            }
          ],
          "name": "calcInterest",
          "outputs": [
            {
              "internalType": "uint256",
              "name": "interest",
              "type": "uint256"
            }
          ],
          "stateMutability": "view",
          "type": "function"
        },
        {
          "inputs": [
            {
              "internalType": "uint256",
              "name": "_amount",
              "type": "uint256"
            }
          ],
          "name": "deposit",
          "outputs": [],
          "stateMutability": "nonpayable",
          "type": "function"
        },
        {
          "inputs": [
            {
              "internalType": "address",
              "name": "_account",
              "type": "address"
            }
          ],
          "name": "getCurrentCollateralRatio",
          "outputs": [
            {
              "internalType": "uint256",
              "name": "",
              "type": "uint256"
            }
          ],
          "stateMutability": "view",
          "type": "function"
        },
        {
          "inputs": [
            {
              "internalType": "address",
              "name": "_account",
              "type": "address"
            },
            {
              "internalType": "uint256",
              "name": "_totalDebt",
              "type": "uint256"
            }
          ],
          "name": "getForwardCollateralRatio",
          "outputs": [
            {
              "internalType": "uint256",
              "name": "",
              "type": "uint256"
            }
          ],
          "stateMutability": "view",
          "type": "function"
        },
        {
          "inputs": [
            {
              "internalType": "address",
              "name": "_account",
              "type": "address"
            }
          ],
          "name": "getPosition",
          "outputs": [
            {
              "internalType": "uint256",
              "name": "",
              "type": "uint256"
            },
            {
              "internalType": "uint256",
              "name": "",
              "type": "uint256"
            },
            {
              "internalType": "uint256",
              "name": "",
              "type": "uint256"
            }
          ],
          "stateMutability": "view",
          "type": "function"
        },
        {
          "inputs": [],
          "name": "interestRate",
          "outputs": [
            {
              "internalType": "uint256",
              "name": "",
              "type": "uint256"
            }
          ],
          "stateMutability": "view",
          "type": "function"
        },
        {
          "inputs": [
            {
              "internalType": "address",
              "name": "_account",
              "type": "address"
            }
          ],
          "name": "liquidate",
          "outputs": [],
          "stateMutability": "nonpayable",
          "type": "function"
        },
        {
          "inputs": [],
          "name": "liquidationFee",
          "outputs": [
            {
              "internalType": "uint256",
              "name": "",
              "type": "uint256"
            }
          ],
          "stateMutability": "view",
          "type": "function"
        },
        {
          "inputs": [],
          "name": "liquidationThreshold",
          "outputs": [
            {
              "internalType": "uint256",
              "name": "",
              "type": "uint256"
            }
          ],
          "stateMutability": "view",
          "type": "function"
        },
        {
          "inputs": [],
          "name": "liquidatorFeeShare",
          "outputs": [
            {
              "internalType": "uint256",
              "name": "",
              "type": "uint256"
            }
          ],
          "stateMutability": "view",
          "type": "function"
        },
        {
          "inputs": [],
          "name": "owner",
          "outputs": [
            {
              "internalType": "address",
              "name": "",
              "type": "address"
            }
          ],
          "stateMutability": "view",
          "type": "function"
        },
        {
          "inputs": [],
          "name": "protocolShortfall",
          "outputs": [
            {
              "internalType": "uint256",
              "name": "",
              "type": "uint256"
            }
          ],
          "stateMutability": "view",
          "type": "function"
        },
        {
          "inputs": [],
          "name": "renounceOwnership",
          "outputs": [],
          "stateMutability": "nonpayable",
          "type": "function"
        },
        {
          "inputs": [
            {
              "internalType": "uint256",
              "name": "_amount",
              "type": "uint256"
            }
          ],
          "name": "repay",
          "outputs": [],
          "stateMutability": "nonpayable",
          "type": "function"
        },
        {
          "inputs": [
            {
              "internalType": "uint256",
              "name": "_liqTotalFee",
              "type": "uint256"
            },
            {
              "internalType": "uint256",
              "name": "_liqFeeShare",
              "type": "uint256"
            },
            {
              "internalType": "uint256",
              "name": "_interestRate",
              "type": "uint256"
            }
          ],
          "name": "setFeesAndRates",
          "outputs": [],
          "stateMutability": "nonpayable",
          "type": "function"
        },
        {
          "inputs": [
            {
              "internalType": "address",
              "name": "_sushiRouter",
              "type": "address"
            }
          ],
          "name": "setSushiAddresses",
          "outputs": [],
          "stateMutability": "nonpayable",
          "type": "function"
        },
        {
          "inputs": [
            {
              "internalType": "uint256",
              "name": "_borrowThreshold",
              "type": "uint256"
            },
            {
              "internalType": "uint256",
              "name": "_liqThreshold",
              "type": "uint256"
            }
          ],
          "name": "setThresholds",
          "outputs": [],
          "stateMutability": "nonpayable",
          "type": "function"
        },
        {
          "inputs": [
            {
              "internalType": "address",
              "name": "_usdz",
              "type": "address"
            },
            {
              "internalType": "address",
              "name": "_xsushi",
              "type": "address"
            }
          ],
          "name": "setTokenAddresses",
          "outputs": [],
          "stateMutability": "nonpayable",
          "type": "function"
        },
        {
          "inputs": [],
          "name": "sushiRouterAddress",
          "outputs": [
            {
              "internalType": "address",
              "name": "",
              "type": "address"
            }
          ],
          "stateMutability": "view",
          "type": "function"
        },
        {
          "inputs": [
            {
              "internalType": "address",
              "name": "newOwner",
              "type": "address"
            }
          ],
          "name": "transferOwnership",
          "outputs": [],
          "stateMutability": "nonpayable",
          "type": "function"
        },
        {
          "inputs": [],
          "name": "usdzAddress",
          "outputs": [
            {
              "internalType": "address",
              "name": "",
              "type": "address"
            }
          ],
          "stateMutability": "view",
          "type": "function"
        },
        {
          "inputs": [
            {
              "internalType": "uint256",
              "name": "_amount",
              "type": "uint256"
            }
          ],
          "name": "withdraw",
          "outputs": [],
          "stateMutability": "nonpayable",
          "type": "function"
        },
        {
          "inputs": [],
          "name": "xSushiAddress",
          "outputs": [
            {
              "internalType": "address",
              "name": "",
              "type": "address"
            }
          ],
          "stateMutability": "view",
          "type": "function"
        },
        {
          "inputs": [
            {
              "internalType": "uint256",
              "name": "",
              "type": "uint256"
            }
          ],
          "name": "xSushiToUsdcPath",
          "outputs": [
            {
              "internalType": "address",
              "name": "",
              "type": "address"
            }
          ],
          "stateMutability": "view",
          "type": "function"
        }
      ],
      "evm": {
        "bytecode": {
          "linkReferences": {},
          "object": "60806040523480156200001157600080fd5b50604051620041b2380380620041b28339818101604052810190620000379190620003f4565b6000620000496200024a60201b60201c565b9050806000806101000a81548173ffffffffffffffffffffffffffffffffffffffff021916908373ffffffffffffffffffffffffffffffffffffffff1602179055508073ffffffffffffffffffffffffffffffffffffffff16600073ffffffffffffffffffffffffffffffffffffffff167f8be0079c531659141344cd1fd0a4f28419497f9722a3daafe3b4186f6b6457e060405160405180910390a35088600360006101000a81548173ffffffffffffffffffffffffffffffffffffffff021916908373ffffffffffffffffffffffffffffffffffffffff16021790555087600460006101000a81548173ffffffffffffffffffffffffffffffffffffffff021916908373ffffffffffffffffffffffffffffffffffffffff16021790555086600560006101000a81548173ffffffffffffffffffffffffffffffffffffffff021916908373ffffffffffffffffffffffffffffffffffffffff16021790555084600781905550836008819055508260098190555081600a8190555080600b819055508560069080519060200190620001e592919062000276565b50620002006301e185586200025260201b62001c9b1760201c565b600c60006101000a8154816fffffffffffffffffffffffffffffffff0219169083600f0b6fffffffffffffffffffffffffffffffff160217905550505050505050505050620005ea565b600033905090565b6000677fffffffffffffff8211156200026a57600080fd5b604082901b9050919050565b828054828255906000526020600020908101928215620002f2579160200282015b82811115620002f15782518260006101000a81548173ffffffffffffffffffffffffffffffffffffffff021916908373ffffffffffffffffffffffffffffffffffffffff1602179055509160200191906001019062000297565b5b50905062000301919062000305565b5090565b5b808211156200032057600081600090555060010162000306565b5090565b60006200033b62000335846200051a565b620004e6565b905080838252602082019050828560208602820111156200035b57600080fd5b60005b858110156200038f578162000374888262000399565b8452602084019350602083019250506001810190506200035e565b5050509392505050565b600081519050620003aa81620005b6565b92915050565b600082601f830112620003c257600080fd5b8151620003d484826020860162000324565b91505092915050565b600081519050620003ee81620005d0565b92915050565b60008060008060008060008060006101208a8c0312156200041457600080fd5b6000620004248c828d0162000399565b9950506020620004378c828d0162000399565b98505060406200044a8c828d0162000399565b97505060608a015167ffffffffffffffff8111156200046857600080fd5b620004768c828d01620003b0565b9650506080620004898c828d01620003dd565b95505060a06200049c8c828d01620003dd565b94505060c0620004af8c828d01620003dd565b93505060e0620004c28c828d01620003dd565b925050610100620004d68c828d01620003dd565b9150509295985092959850929598565b6000604051905081810181811067ffffffffffffffff8211171562000510576200050f62000587565b5b8060405250919050565b600067ffffffffffffffff82111562000538576200053762000587565b5b602082029050602081019050919050565b600062000556826200055d565b9050919050565b600073ffffffffffffffffffffffffffffffffffffffff82169050919050565b6000819050919050565b7f4e487b7100000000000000000000000000000000000000000000000000000000600052604160045260246000fd5b620005c18162000549565b8114620005cd57600080fd5b50565b620005db816200057d565b8114620005e757600080fd5b50565b613bb880620005fa6000396000f3fe608060405234801561001057600080fd5b50600436106101c45760003560e01c80637c3a00fd116100f9578063bfaf48d411610097578063e3064a7711610071578063e3064a77146104d3578063ef4cadc5146104ef578063f248e7e81461050d578063f2fde38b14610529576101c4565b8063bfaf48d41461046b578063c5ebeaec14610487578063daf5539e146104a3576101c4565b8063a89c8c5e116100d3578063a89c8c5e146103f7578063af1f556f14610413578063b6b55f2514610431578063bdfccad31461044d576101c4565b80637c3a00fd1461039d5780638da5cb5b146103bb578063a36a3630146103d9576101c4565b8063540548081161016657806369cb89c71161014057806369cb89c7146103155780637046b7a914610345578063715018a61461037557806379bbce8f1461037f576101c4565b806354054808146102bb5780635ae547e3146102d95780635dcc9391146102f7576101c4565b80632f865568116101a25780632f86556814610235578063371fd8e6146102515780634031234c1461026d5780634a63a5ce1461028b576101c4565b806316c19739146101c957806320bdf800146101fb5780632e1a7d4d14610219575b600080fd5b6101e360048036038101906101de9190612d14565b610545565b6040516101f2939291906137f7565b60405180910390f35b610203610620565b60405161021091906134bf565b60405180910390f35b610233600480360381019061022e9190612e1f565b610646565b005b61024f600480360381019061024a9190612d14565b61094c565b005b61026b60048036038101906102669190612e1f565b6109ba565b005b610275610ce5565b60405161028291906137ac565b60405180910390f35b6102a560048036038101906102a09190612e1f565b610ceb565b6040516102b291906134bf565b60405180910390f35b6102c3610d2a565b6040516102d091906137ac565b60405180910390f35b6102e1610d30565b6040516102ee91906137ac565b60405180910390f35b6102ff610d36565b60405161030c919061353a565b60405180910390f35b61032f600480360381019061032a9190612d14565b610d49565b60405161033c91906137ac565b60405180910390f35b61035f600480360381019061035a9190612d79565b610fb8565b60405161036c91906137ac565b60405180910390f35b61037d610fcc565b005b610387611106565b60405161039491906134bf565b60405180910390f35b6103a561112c565b6040516103b291906137ac565b60405180910390f35b6103c3611132565b6040516103d091906134bf565b60405180910390f35b6103e161115b565b6040516103ee91906137ac565b60405180910390f35b610411600480360381019061040c9190612d3d565b611161565b005b61041b6112d3565b60405161042891906137ac565b60405180910390f35b61044b60048036038101906104469190612e1f565b6112d9565b005b610455611479565b60405161046291906134bf565b60405180910390f35b61048560048036038101906104809190612e84565b61149f565b005b6104a1600480360381019061049c9190612e1f565b611637565b005b6104bd60048036038101906104b89190612d14565b61184f565b6040516104ca91906137ac565b60405180910390f35b6104ed60048036038101906104e89190612e48565b6118a4565b005b6104f76119bc565b60405161050491906137ac565b60405180910390f35b61052760048036038101906105229190612d14565b6119c2565b005b610543600480360381019061053e9190612d14565b611af2565b005b6000806000600160008573ffffffffffffffffffffffffffffffffffffffff1673ffffffffffffffffffffffffffffffffffffffff16815260200190815260200160002060000154600160008673ffffffffffffffffffffffffffffffffffffffff1673ffffffffffffffffffffffffffffffffffffffff16815260200190815260200160002060010154600160008773ffffffffffffffffffffffffffffffffffffffff1673ffffffffffffffffffffffffffffffffffffffff168152602001908152602001600020600201549250925092509193909250565b600360009054906101000a900473ffffffffffffffffffffffffffffffffffffffff1681565b6000600160003373ffffffffffffffffffffffffffffffffffffffff1673ffffffffffffffffffffffffffffffffffffffff168152602001908152602001600020905081816000015410156106d0576040517f08c379a00000000000000000000000000000000000000000000000000000000081526004016106c79061378c565b60405180910390fd5b60006106db33610d49565b9050808260010160008282546106f191906138da565b92505081905550428260020181905550600061070c3361184f565b9050600a548111610752576040517f08c379a00000000000000000000000000000000000000000000000000000000081526004016107499061368c565b60405180910390fd5b600083600001547fffffffffffffffffffffffffffffffffffffffffffffffffffffffffffffffff612710600a5461078a9190613930565b8461079591906139bb565b61079f9190613930565b6107a99190613961565b9050848110156107ee576040517f08c379a00000000000000000000000000000000000000000000000000000000081526004016107e5906135ec565b60405180910390fd5b8484600001600082825461080291906139bb565b92505081905550600460009054906101000a900473ffffffffffffffffffffffffffffffffffffffff1673ffffffffffffffffffffffffffffffffffffffff1663a9059cbb33876040518363ffffffff1660e01b8152600401610866929190613511565b602060405180830381600087803b15801561088057600080fd5b505af1158015610894573d6000803e3d6000fd5b505050506040513d601f19601f820116820180604052508101906108b89190612df6565b6108f7576040517f08c379a00000000000000000000000000000000000000000000000000000000081526004016108ee9061362c565b60405180910390fd5b3373ffffffffffffffffffffffffffffffffffffffff167f884edad9ce6fa2440d8a54cc123490eb96d2768479d49ff9c7366125a94243648660405161093d91906137ac565b60405180910390a25050505050565b3373ffffffffffffffffffffffffffffffffffffffff168173ffffffffffffffffffffffffffffffffffffffff167f5a821a618ddb1a1fd304234a69c9d7f20c129d122fcf35593d13a0719266430760008060006040516109af93929190613555565b60405180910390a350565b600081116109fd576040517f08c379a00000000000000000000000000000000000000000000000000000000081526004016109f49061370c565b60405180910390fd5b6000600160003373ffffffffffffffffffffffffffffffffffffffff1673ffffffffffffffffffffffffffffffffffffffff1681526020019081526020016000209050610a4933610d49565b816001016000828254610a5c91906138da565b925050819055504281600201819055508181600101541115610b8857600360009054906101000a900473ffffffffffffffffffffffffffffffffffffffff1673ffffffffffffffffffffffffffffffffffffffff166323b872dd3330856040518463ffffffff1660e01b8152600401610ad7939291906134da565b602060405180830381600087803b158015610af157600080fd5b505af1158015610b05573d6000803e3d6000fd5b505050506040513d601f19601f82011682018060405250810190610b299190612df6565b610b68576040517f08c379a0000000000000000000000000000000000000000000000000000000008152600401610b5f906136ac565b60405180910390fd5b81816001016000828254610b7c91906139bb565b92505081905550610c87565b600360009054906101000a900473ffffffffffffffffffffffffffffffffffffffff1673ffffffffffffffffffffffffffffffffffffffff166323b872dd333084600101546040518463ffffffff1660e01b8152600401610beb939291906134da565b602060405180830381600087803b158015610c0557600080fd5b505af1158015610c19573d6000803e3d6000fd5b505050506040513d601f19601f82011682018060405250810190610c3d9190612df6565b610c7c576040517f08c379a0000000000000000000000000000000000000000000000000000000008152600401610c73906136ac565b60405180910390fd5b600081600101819055505b3373ffffffffffffffffffffffffffffffffffffffff167f2fe77b1c99aca6b022b8efc6e3e8dd1b48b30748709339b65c50ef3263443e098383600101548460000154604051610cd9939291906137f7565b60405180910390a25050565b600b5481565b60068181548110610cfb57600080fd5b906000526020600020016000915054906101000a900473ffffffffffffffffffffffffffffffffffffffff1681565b60085481565b600a5481565b600c60009054906101000a9004600f0b81565b600080600160008473ffffffffffffffffffffffffffffffffffffffff1673ffffffffffffffffffffffffffffffffffffffff168152602001908152602001600020600101541480610ddd57506000600160008473ffffffffffffffffffffffffffffffffffffffff1673ffffffffffffffffffffffffffffffffffffffff16815260200190815260200160002060020154145b80610dea57506000600954145b80610e365750600160008373ffffffffffffffffffffffffffffffffffffffff1673ffffffffffffffffffffffffffffffffffffffff1681526020019081526020016000206002015442145b15610e445760009050610fb3565b6000600160008473ffffffffffffffffffffffffffffffffffffffff1673ffffffffffffffffffffffffffffffffffffffff1681526020019081526020016000206002015442610e9491906139bb565b90506000610eb9610ea483611c9b565b600c60009054906101000a9004600f0b611cbe565b90506000610edb610ecb600954611c9b565b610ed6612710611c9b565b611cbe565b90506000610f2a600160008873ffffffffffffffffffffffffffffffffffffffff1673ffffffffffffffffffffffffffffffffffffffff16815260200190815260200160002060010154611c9b565b90506000610f51610f4c83610f47610f428789611d6e565b611dd9565b611d6e565b611e52565b9050600160008873ffffffffffffffffffffffffffffffffffffffff1673ffffffffffffffffffffffffffffffffffffffff168152602001908152602001600020600101548167ffffffffffffffff16610fab91906139bb565b955050505050505b919050565b6000610fc48383611e73565b905092915050565b610fd4612022565b73ffffffffffffffffffffffffffffffffffffffff16610ff2611132565b73ffffffffffffffffffffffffffffffffffffffff1614611048576040517f08c379a000000000000000000000000000000000000000000000000000000000815260040161103f906136cc565b60405180910390fd5b600073ffffffffffffffffffffffffffffffffffffffff1660008054906101000a900473ffffffffffffffffffffffffffffffffffffffff1673ffffffffffffffffffffffffffffffffffffffff167f8be0079c531659141344cd1fd0a4f28419497f9722a3daafe3b4186f6b6457e060405160405180910390a360008060006101000a81548173ffffffffffffffffffffffffffffffffffffffff021916908373ffffffffffffffffffffffffffffffffffffffff160217905550565b600560009054906101000a900473ffffffffffffffffffffffffffffffffffffffff1681565b60095481565b60008060009054906101000a900473ffffffffffffffffffffffffffffffffffffffff16905090565b60075481565b611169612022565b73ffffffffffffffffffffffffffffffffffffffff16611187611132565b73ffffffffffffffffffffffffffffffffffffffff16146111dd576040517f08c379a00000000000000000000000000000000000000000000000000000000081526004016111d4906136cc565b60405180910390fd5b600073ffffffffffffffffffffffffffffffffffffffff168273ffffffffffffffffffffffffffffffffffffffff16141561124d576040517f08c379a00000000000000000000000000000000000000000000000000000000081526004016112449061366c565b60405180910390fd5b81600360006101000a81548173ffffffffffffffffffffffffffffffffffffffff021916908373ffffffffffffffffffffffffffffffffffffffff16021790555080600460006101000a81548173ffffffffffffffffffffffffffffffffffffffff021916908373ffffffffffffffffffffffffffffffffffffffff1602179055505050565b60025481565b6000600460009054906101000a900473ffffffffffffffffffffffffffffffffffffffff1690508073ffffffffffffffffffffffffffffffffffffffff166323b872dd3330856040518463ffffffff1660e01b815260040161133d939291906134da565b602060405180830381600087803b15801561135757600080fd5b505af115801561136b573d6000803e3d6000fd5b505050506040513d601f19601f8201168201806040525081019061138f9190612df6565b6113ce576040517f08c379a00000000000000000000000000000000000000000000000000000000081526004016113c59061372c565b60405180910390fd5b81600160003373ffffffffffffffffffffffffffffffffffffffff1673ffffffffffffffffffffffffffffffffffffffff168152602001908152602001600020600001600082825461142091906138da565b925050819055503373ffffffffffffffffffffffffffffffffffffffff167fe1fffcc4923d04b559f4d29a8bfc6cda04eb5b0d3c460751c2402c5c5cc9109c8360405161146d91906137ac565b60405180910390a25050565b600460009054906101000a900473ffffffffffffffffffffffffffffffffffffffff1681565b6114a7612022565b73ffffffffffffffffffffffffffffffffffffffff166114c5611132565b73ffffffffffffffffffffffffffffffffffffffff161461151b576040517f08c379a0000000000000000000000000000000000000000000000000000000008152600401611512906136cc565b60405180910390fd5b612710831115801561152e575060008310155b61156d576040517f08c379a0000000000000000000000000000000000000000000000000000000008152600401611564906136ec565b60405180910390fd5b6127108211158015611580575060008210155b801561158c5750828211155b6115cb576040517f08c379a00000000000000000000000000000000000000000000000000000000081526004016115c2906135cc565b60405180910390fd5b826007819055508160088190555061271081111580156115ec575060008110155b61162b576040517f08c379a00000000000000000000000000000000000000000000000000000000081526004016116229061374c565b60405180910390fd5b80600981905550505050565b6000811161167a576040517f08c379a00000000000000000000000000000000000000000000000000000000081526004016116719061360c565b60405180910390fd5b6000600160003373ffffffffffffffffffffffffffffffffffffffff1673ffffffffffffffffffffffffffffffffffffffff168152602001908152602001600020905060006116c833610d49565b9050600a546116f133858486600101546116e291906138da565b6116ec91906138da565b610fb8565b1015611732576040517f08c379a00000000000000000000000000000000000000000000000000000000081526004016117299061358c565b60405180910390fd5b808361173e91906138da565b82600101600082825461175191906138da565b92505081905550428260020181905550600360009054906101000a900473ffffffffffffffffffffffffffffffffffffffff1673ffffffffffffffffffffffffffffffffffffffff166340c10f1933856040518363ffffffff1660e01b81526004016117be929190613511565b600060405180830381600087803b1580156117d857600080fd5b505af11580156117ec573d6000803e3d6000fd5b505050503373ffffffffffffffffffffffffffffffffffffffff167f13ed6866d4e1ee6da46f845c46d7e54120883d75c5ea9a2dacc1c4ca8984ab808484600101548560000154604051611842939291906137f7565b60405180910390a2505050565b600061189d82600160008573ffffffffffffffffffffffffffffffffffffffff1673ffffffffffffffffffffffffffffffffffffffff16815260200190815260200160002060010154611e73565b9050919050565b6118ac612022565b73ffffffffffffffffffffffffffffffffffffffff166118ca611132565b73ffffffffffffffffffffffffffffffffffffffff1614611920576040517f08c379a0000000000000000000000000000000000000000000000000000000008152600401611917906136cc565b60405180910390fd5b612710821015611965576040517f08c379a000000000000000000000000000000000000000000000000000000000815260040161195c9061364c565b60405180910390fd5b6127108110156119aa576040517f08c379a00000000000000000000000000000000000000000000000000000000081526004016119a19061376c565b60405180910390fd5b81600a8190555080600b819055505050565b61271081565b6119ca612022565b73ffffffffffffffffffffffffffffffffffffffff166119e8611132565b73ffffffffffffffffffffffffffffffffffffffff1614611a3e576040517f08c379a0000000000000000000000000000000000000000000000000000000008152600401611a35906136cc565b60405180910390fd5b600073ffffffffffffffffffffffffffffffffffffffff168173ffffffffffffffffffffffffffffffffffffffff161415611aae576040517f08c379a0000000000000000000000000000000000000000000000000000000008152600401611aa59061366c565b60405180910390fd5b80600560006101000a81548173ffffffffffffffffffffffffffffffffffffffff021916908373ffffffffffffffffffffffffffffffffffffffff16021790555050565b611afa612022565b73ffffffffffffffffffffffffffffffffffffffff16611b18611132565b73ffffffffffffffffffffffffffffffffffffffff1614611b6e576040517f08c379a0000000000000000000000000000000000000000000000000000000008152600401611b65906136cc565b60405180910390fd5b600073ffffffffffffffffffffffffffffffffffffffff168173ffffffffffffffffffffffffffffffffffffffff161415611bde576040517f08c379a0000000000000000000000000000000000000000000000000000000008152600401611bd5906135ac565b60405180910390fd5b8073ffffffffffffffffffffffffffffffffffffffff1660008054906101000a900473ffffffffffffffffffffffffffffffffffffffff1673ffffffffffffffffffffffffffffffffffffffff167f8be0079c531659141344cd1fd0a4f28419497f9722a3daafe3b4186f6b6457e060405160405180910390a3806000806101000a81548173ffffffffffffffffffffffffffffffffffffffff021916908373ffffffffffffffffffffffffffffffffffffffff16021790555050565b6000677fffffffffffffff821115611cb257600080fd5b604082901b9050919050565b60008082600f0b1415611cd057600080fd5b600082600f0b604085600f0b901b81611d12577f4e487b7100000000000000000000000000000000000000000000000000000000600052601260045260246000fd5b0590507fffffffffffffffffffffffffffffffff80000000000000000000000000000000600f0b8112158015611d5b57506f7fffffffffffffffffffffffffffffff600f0b8113155b611d6457600080fd5b8091505092915050565b600080604083600f0b85600f0b02901d90507fffffffffffffffffffffffffffffffff80000000000000000000000000000000600f0b8112158015611dc657506f7fffffffffffffffffffffffffffffff600f0b8113155b611dcf57600080fd5b8091505092915050565b60006840000000000000000082600f0b12611df357600080fd5b7fffffffffffffffffffffffffffffffffffffffffffffffc0000000000000000082600f0b1215611e275760009050611e4d565b611e4a6080700171547652b82fe1777d0ffda0d23a7d1284600f0b02901d61202a565b90505b919050565b60008082600f0b1215611e6457600080fd5b604082600f0b901d9050919050565b600080600160008573ffffffffffffffffffffffffffffffffffffffff1673ffffffffffffffffffffffffffffffffffffffff1681526020019081526020016000206000015490506000811415611ece57600091505061201c565b6000831415611f00577fffffffffffffffffffffffffffffffffffffffffffffffffffffffffffffffff91505061201c565b6000600560009054906101000a900473ffffffffffffffffffffffffffffffffffffffff16905060008173ffffffffffffffffffffffffffffffffffffffff1663d06ca61f8460066040518363ffffffff1660e01b8152600401611f659291906137c7565b60006040518083038186803b158015611f7d57600080fd5b505afa158015611f91573d6000803e3d6000fd5b505050506040513d6000823e3d601f19601f82011682018060405250810190611fba9190612db5565b600281518110611ff3577f4e487b7100000000000000000000000000000000000000000000000000000000600052603260045260246000fd5b60200260200101519050846127108261200c9190613961565b6120169190613930565b93505050505b92915050565b600033905090565b60006840000000000000000082600f0b1261204457600080fd5b7fffffffffffffffffffffffffffffffffffffffffffffffc0000000000000000082600f0b12156120785760009050612c25565b60006f80000000000000000000000000000000905060006780000000000000008416600f0b13156120be57608070016a09e667f3bcc908b2fb1366ea957d3e8202901c90505b60006740000000000000008416600f0b13156120ef5760807001306fe0a31b7152de8d5a46305c85edec8202901c90505b60006720000000000000008416600f0b13156121205760807001172b83c7d517adcdf7c8c50eb14a791f8202901c90505b60006710000000000000008416600f0b131561215157608070010b5586cf9890f6298b92b71842a983638202901c90505b60006708000000000000008416600f0b13156121825760807001059b0d31585743ae7c548eb68ca417fd8202901c90505b60006704000000000000008416600f0b13156121b3576080700102c9a3e778060ee6f7caca4f7a29bde88202901c90505b60006702000000000000008416600f0b13156121e457608070010163da9fb33356d84a66ae336dcdfa3f8202901c90505b60006701000000000000008416600f0b1315612215576080700100b1afa5abcbed6129ab13ec11dc95438202901c90505b600066800000000000008416600f0b131561224557608070010058c86da1c09ea1ff19d294cf2f679b8202901c90505b600066400000000000008416600f0b13156122755760807001002c605e2e8cec506d21bfc89a23a00f8202901c90505b600066200000000000008416600f0b13156122a5576080700100162f3904051fa128bca9c55c31e5df8202901c90505b600066100000000000008416600f0b13156122d55760807001000b175effdc76ba38e31671ca9397258202901c90505b600066080000000000008416600f0b1315612305576080700100058ba01fb9f96d6cacd4b180917c3d8202901c90505b600066040000000000008416600f0b131561233557608070010002c5cc37da9491d0985c348c68e7b38202901c90505b600066020000000000008416600f0b13156123655760807001000162e525ee054754457d59952920268202901c90505b600066010000000000008416600f0b131561239557608070010000b17255775c040618bf4a4ade83fc8202901c90505b6000658000000000008416600f0b13156123c45760807001000058b91b5bc9ae2eed81e9b7d4cfab8202901c90505b6000654000000000008416600f0b13156123f3576080700100002c5c89d5ec6ca4d7c8acc017b7c98202901c90505b6000652000000000008416600f0b131561242257608070010000162e43f4f831060e02d839a9d16d8202901c90505b6000651000000000008416600f0b1315612451576080700100000b1721bcfc99d9f890ea069117638202901c90505b6000650800000000008416600f0b131561248057608070010000058b90cf1e6d97f9ca14dbcc16288202901c90505b6000650400000000008416600f0b13156124af5760807001000002c5c863b73f016468f6bac5ca2b8202901c90505b6000650200000000008416600f0b13156124de576080700100000162e430e5a18f6119e3c02282a58202901c90505b6000650100000000008416600f0b131561250d5760807001000000b1721835514b86e6d96efd1bfe8202901c90505b60006480000000008416600f0b131561253b576080700100000058b90c0b48c6be5df846c5b2ef8202901c90505b60006440000000008416600f0b131561256957608070010000002c5c8601cc6b9e94213c72737a8202901c90505b60006420000000008416600f0b13156125975760807001000000162e42fff037df38aa2b219f068202901c90505b60006410000000008416600f0b13156125c557608070010000000b17217fba9c739aa5819f44f98202901c90505b60006408000000008416600f0b13156125f35760807001000000058b90bfcdee5acd3c1cedc8238202901c90505b60006404000000008416600f0b1315612621576080700100000002c5c85fe31f35a6a30da1be508202901c90505b60006402000000008416600f0b131561264f57608070010000000162e42ff0999ce3541b9fffcf8202901c90505b60006401000000008416600f0b131561267d576080700100000000b17217f80f4ef5aadda455548202901c90505b600063800000008416600f0b13156126aa57608070010000000058b90bfbf8479bd5a81b51ad8202901c90505b600063400000008416600f0b13156126d75760807001000000002c5c85fdf84bd62ae30a74cc8202901c90505b600063200000008416600f0b1315612704576080700100000000162e42fefb2fed257559bdaa8202901c90505b600063100000008416600f0b13156127315760807001000000000b17217f7d5a7716bba4a9ae8202901c90505b600063080000008416600f0b131561275e576080700100000000058b90bfbe9ddbac5e109cce8202901c90505b600063040000008416600f0b131561278b57608070010000000002c5c85fdf4b15de6f17eb0d8202901c90505b600063020000008416600f0b13156127b85760807001000000000162e42fefa494f1478fde058202901c90505b600063010000008416600f0b13156127e557608070010000000000b17217f7d20cf927c8e94c8202901c90505b6000628000008416600f0b13156128115760807001000000000058b90bfbe8f71cb4e4b33d8202901c90505b6000624000008416600f0b131561283d576080700100000000002c5c85fdf477b662b269458202901c90505b6000622000008416600f0b131561286957608070010000000000162e42fefa3ae53369388c8202901c90505b6000621000008416600f0b1315612895576080700100000000000b17217f7d1d351a389d408202901c90505b6000620800008416600f0b13156128c157608070010000000000058b90bfbe8e8b2d3d4ede8202901c90505b6000620400008416600f0b13156128ed5760807001000000000002c5c85fdf4741bea6e77e8202901c90505b6000620200008416600f0b1315612919576080700100000000000162e42fefa39fe95583c28202901c90505b6000620100008416600f0b13156129455760807001000000000000b17217f7d1cfb72b45e18202901c90505b60006180008416600f0b1315612970576080700100000000000058b90bfbe8e7cc35c3f08202901c90505b60006140008416600f0b131561299b57608070010000000000002c5c85fdf473e242ea388202901c90505b60006120008416600f0b13156129c65760807001000000000000162e42fefa39f02b772c8202901c90505b60006110008416600f0b13156129f157608070010000000000000b17217f7d1cf7d83c1a8202901c90505b60006108008416600f0b1315612a1c5760807001000000000000058b90bfbe8e7bdcbe2e8202901c90505b60006104008416600f0b1315612a47576080700100000000000002c5c85fdf473dea871f8202901c90505b60006102008416600f0b1315612a7257608070010000000000000162e42fefa39ef44d918202901c90505b60006101008416600f0b1315612a9d576080700100000000000000b17217f7d1cf79e9498202901c90505b600060808416600f0b1315612ac757608070010000000000000058b90bfbe8e7bce5448202901c90505b600060408416600f0b1315612af15760807001000000000000002c5c85fdf473de6eca8202901c90505b600060208416600f0b1315612b1b576080700100000000000000162e42fefa39ef366f8202901c90505b600060108416600f0b1315612b455760807001000000000000000b17217f7d1cf79afa8202901c90505b600060088416600f0b1315612b6f576080700100000000000000058b90bfbe8e7bcd6d8202901c90505b600060048416600f0b1315612b9957608070010000000000000002c5c85fdf473de6b28202901c90505b600060028416600f0b1315612bc35760807001000000000000000162e42fefa39ef3588202901c90505b600060018416600f0b1315612bed57608070010000000000000000b17217f7d1cf79ab8202901c90505b604083600f0b901d603f03600f0b81901c90506f7fffffffffffffffffffffffffffffff600f0b811115612c2057600080fd5b809150505b919050565b6000612c3d612c388461385f565b61382e565b90508083825260208201905082856020860282011115612c5c57600080fd5b60005b85811015612c8c5781612c728882612cff565b845260208401935060208301925050600181019050612c5f565b5050509392505050565b600081359050612ca581613b3d565b92915050565b600082601f830112612cbc57600080fd5b8151612ccc848260208601612c2a565b91505092915050565b600081519050612ce481613b54565b92915050565b600081359050612cf981613b6b565b92915050565b600081519050612d0e81613b6b565b92915050565b600060208284031215612d2657600080fd5b6000612d3484828501612c96565b91505092915050565b60008060408385031215612d5057600080fd5b6000612d5e85828601612c96565b9250506020612d6f85828601612c96565b9150509250929050565b60008060408385031215612d8c57600080fd5b6000612d9a85828601612c96565b9250506020612dab85828601612cea565b9150509250929050565b600060208284031215612dc757600080fd5b600082015167ffffffffffffffff811115612de157600080fd5b612ded84828501612cab565b91505092915050565b600060208284031215612e0857600080fd5b6000612e1684828501612cd5565b91505092915050565b600060208284031215612e3157600080fd5b6000612e3f84828501612cea565b91505092915050565b60008060408385031215612e5b57600080fd5b6000612e6985828601612cea565b9250506020612e7a85828601612cea565b9150509250929050565b600080600060608486031215612e9957600080fd5b6000612ea786828701612cea565b9350506020612eb886828701612cea565b9250506040612ec986828701612cea565b9150509250925092565b6000612edf8383612eeb565b60208301905092915050565b612ef481613a0f565b82525050565b612f0381613a0f565b82525050565b6000612f14826138a0565b612f1e81856138b8565b9350612f298361388b565b8060005b83811015612f6157612f3e82613b1d565b612f488882612ed3565b9750612f53836138ab565b925050600181019050612f2d565b5085935050505092915050565b612f7781613a2d565b82525050565b612f8681613a64565b82525050565b6000612f996029836138c9565b91507f6e6f7420656e6f75676820636f6c6c61746572616c20746f20626f72726f772060008301527f74686174206d75636800000000000000000000000000000000000000000000006020830152604082019050919050565b6000612fff6026836138c9565b91507f4f776e61626c653a206e6577206f776e657220697320746865207a65726f206160008301527f64647265737300000000000000000000000000000000000000000000000000006020830152604082019050919050565b60006130656018836138c9565b91507f6c69714665655368617265206f7574206f662072616e676500000000000000006000830152602082019050919050565b60006130a5602f836138c9565b91507f7769746864726177206c657373202d20636f6c6c61746572616c20726174696f60008301527f2077696c6c20626520756e7361666500000000000000000000000000000000006020830152604082019050919050565b600061310b600e836138c9565b91507f63616e277420626f72726f7720300000000000000000000000000000000000006000830152602082019050919050565b600061314b6018836138c9565b91507f7769746864726177207472616e73666572206661696c656400000000000000006000830152602082019050919050565b600061318b6029836138c9565b91507f626f72726f77207468726573686f6c64206d757374206265203e207363616c6960008301527f6e6720666163746f7200000000000000000000000000000000000000000000006020830152604082019050919050565b60006131f16018836138c9565b91507f7a65726f2061646472657373206e6f7420616c6c6f77656400000000000000006000830152602082019050919050565b60006132316027836138c9565b91507f636f6c6c61746572616c20726174696f206973203c3d20626f72726f7720746860008301527f726573686f6c64000000000000000000000000000000000000000000000000006020830152604082019050919050565b60006132976015836138c9565b91507f7265706179207472616e73666572206661696c656400000000000000000000006000830152602082019050919050565b60006132d76020836138c9565b91507f4f776e61626c653a2063616c6c6572206973206e6f7420746865206f776e65726000830152602082019050919050565b60006133176018836138c9565b91507f6c6971546f74616c466565206f7574206f662072616e676500000000000000006000830152602082019050919050565b6000613357600d836138c9565b91507f63616e27742072657061792030000000000000000000000000000000000000006000830152602082019050919050565b6000613397600e836138c9565b91507f6465706f736974206661696c65640000000000000000000000000000000000006000830152602082019050919050565b60006133d76019836138c9565b91507f696e74657265737452617465206f7574206f662072616e6765000000000000006000830152602082019050919050565b60006134176026836138c9565b91507f6c6971207468726573686f6c64206d757374206265203e207363616c696e672060008301527f666163746f7200000000000000000000000000000000000000000000000000006020830152604082019050919050565b600061347d6020836138c9565b91507f6e6f7420656e6f75676820636f6c6c61746572616c20696e206163636f756e746000830152602082019050919050565b6134b981613a5a565b82525050565b60006020820190506134d46000830184612efa565b92915050565b60006060820190506134ef6000830186612efa565b6134fc6020830185612efa565b61350960408301846134b0565b949350505050565b60006040820190506135266000830185612efa565b61353360208301846134b0565b9392505050565b600060208201905061354f6000830184612f6e565b92915050565b600060608201905061356a6000830186612f7d565b6135776020830185612f7d565b6135846040830184612f7d565b949350505050565b600060208201905081810360008301526135a581612f8c565b9050919050565b600060208201905081810360008301526135c581612ff2565b9050919050565b600060208201905081810360008301526135e581613058565b9050919050565b6000602082019050818103600083015261360581613098565b9050919050565b60006020820190508181036000830152613625816130fe565b9050919050565b600060208201905081810360008301526136458161313e565b9050919050565b600060208201905081810360008301526136658161317e565b9050919050565b60006020820190508181036000830152613685816131e4565b9050919050565b600060208201905081810360008301526136a581613224565b9050919050565b600060208201905081810360008301526136c58161328a565b9050919050565b600060208201905081810360008301526136e5816132ca565b9050919050565b600060208201905081810360008301526137058161330a565b9050919050565b600060208201905081810360008301526137258161334a565b9050919050565b600060208201905081810360008301526137458161338a565b9050919050565b60006020820190508181036000830152613765816133ca565b9050919050565b600060208201905081810360008301526137858161340a565b9050919050565b600060208201905081810360008301526137a581613470565b9050919050565b60006020820190506137c160008301846134b0565b92915050565b60006040820190506137dc60008301856134b0565b81810360208301526137ee8184612f09565b90509392505050565b600060608201905061380c60008301866134b0565b61381960208301856134b0565b61382660408301846134b0565b949350505050565b6000604051905081810181811067ffffffffffffffff8211171561385557613854613aee565b5b8060405250919050565b600067ffffffffffffffff82111561387a57613879613aee565b5b602082029050602081019050919050565b60008190508160005260206000209050919050565b600081549050919050565b6000600182019050919050565b600082825260208201905092915050565b600082825260208201905092915050565b60006138e582613a5a565b91506138f083613a5a565b9250827fffffffffffffffffffffffffffffffffffffffffffffffffffffffffffffffff0382111561392557613924613a90565b5b828201905092915050565b600061393b82613a5a565b915061394683613a5a565b92508261395657613955613abf565b5b828204905092915050565b600061396c82613a5a565b915061397783613a5a565b9250817fffffffffffffffffffffffffffffffffffffffffffffffffffffffffffffffff04831182151516156139b0576139af613a90565b5b828202905092915050565b60006139c682613a5a565b91506139d183613a5a565b9250828210156139e4576139e3613a90565b5b828203905092915050565b600073ffffffffffffffffffffffffffffffffffffffff82169050919050565b6000613a1a82613a3a565b9050919050565b60008115159050919050565b600081600f0b9050919050565b600073ffffffffffffffffffffffffffffffffffffffff82169050919050565b6000819050919050565b6000613a6f82613a5a565b9050919050565b6000613a89613a8483613b30565b6139ef565b9050919050565b7f4e487b7100000000000000000000000000000000000000000000000000000000600052601160045260246000fd5b7f4e487b7100000000000000000000000000000000000000000000000000000000600052601260045260246000fd5b7f4e487b7100000000000000000000000000000000000000000000000000000000600052604160045260246000fd5b6000613b298254613a76565b9050919050565b60008160001c9050919050565b613b4681613a0f565b8114613b5157600080fd5b50565b613b5d81613a21565b8114613b6857600080fd5b50565b613b7481613a5a565b8114613b7f57600080fd5b5056fea2646970667358221220861f730edee1de0bc9f646aa018267f7e39651e7b5157131643884acaf7d81bf64736f6c63430008000033",
          "opcodes": "PUSH1 0x80 PUSH1 0x40 MSTORE CALLVALUE DUP1 ISZERO PUSH3 0x11 JUMPI PUSH1 0x0 DUP1 REVERT JUMPDEST POP PUSH1 0x40 MLOAD PUSH3 0x41B2 CODESIZE SUB DUP1 PUSH3 0x41B2 DUP4 CODECOPY DUP2 DUP2 ADD PUSH1 0x40 MSTORE DUP2 ADD SWAP1 PUSH3 0x37 SWAP2 SWAP1 PUSH3 0x3F4 JUMP JUMPDEST PUSH1 0x0 PUSH3 0x49 PUSH3 0x24A PUSH1 0x20 SHL PUSH1 0x20 SHR JUMP JUMPDEST SWAP1 POP DUP1 PUSH1 0x0 DUP1 PUSH2 0x100 EXP DUP2 SLOAD DUP2 PUSH20 0xFFFFFFFFFFFFFFFFFFFFFFFFFFFFFFFFFFFFFFFF MUL NOT AND SWAP1 DUP4 PUSH20 0xFFFFFFFFFFFFFFFFFFFFFFFFFFFFFFFFFFFFFFFF AND MUL OR SWAP1 SSTORE POP DUP1 PUSH20 0xFFFFFFFFFFFFFFFFFFFFFFFFFFFFFFFFFFFFFFFF AND PUSH1 0x0 PUSH20 0xFFFFFFFFFFFFFFFFFFFFFFFFFFFFFFFFFFFFFFFF AND PUSH32 0x8BE0079C531659141344CD1FD0A4F28419497F9722A3DAAFE3B4186F6B6457E0 PUSH1 0x40 MLOAD PUSH1 0x40 MLOAD DUP1 SWAP2 SUB SWAP1 LOG3 POP DUP9 PUSH1 0x3 PUSH1 0x0 PUSH2 0x100 EXP DUP2 SLOAD DUP2 PUSH20 0xFFFFFFFFFFFFFFFFFFFFFFFFFFFFFFFFFFFFFFFF MUL NOT AND SWAP1 DUP4 PUSH20 0xFFFFFFFFFFFFFFFFFFFFFFFFFFFFFFFFFFFFFFFF AND MUL OR SWAP1 SSTORE POP DUP8 PUSH1 0x4 PUSH1 0x0 PUSH2 0x100 EXP DUP2 SLOAD DUP2 PUSH20 0xFFFFFFFFFFFFFFFFFFFFFFFFFFFFFFFFFFFFFFFF MUL NOT AND SWAP1 DUP4 PUSH20 0xFFFFFFFFFFFFFFFFFFFFFFFFFFFFFFFFFFFFFFFF AND MUL OR SWAP1 SSTORE POP DUP7 PUSH1 0x5 PUSH1 0x0 PUSH2 0x100 EXP DUP2 SLOAD DUP2 PUSH20 0xFFFFFFFFFFFFFFFFFFFFFFFFFFFFFFFFFFFFFFFF MUL NOT AND SWAP1 DUP4 PUSH20 0xFFFFFFFFFFFFFFFFFFFFFFFFFFFFFFFFFFFFFFFF AND MUL OR SWAP1 SSTORE POP DUP5 PUSH1 0x7 DUP2 SWAP1 SSTORE POP DUP4 PUSH1 0x8 DUP2 SWAP1 SSTORE POP DUP3 PUSH1 0x9 DUP2 SWAP1 SSTORE POP DUP2 PUSH1 0xA DUP2 SWAP1 SSTORE POP DUP1 PUSH1 0xB DUP2 SWAP1 SSTORE POP DUP6 PUSH1 0x6 SWAP1 DUP1 MLOAD SWAP1 PUSH1 0x20 ADD SWAP1 PUSH3 0x1E5 SWAP3 SWAP2 SWAP1 PUSH3 0x276 JUMP JUMPDEST POP PUSH3 0x200 PUSH4 0x1E18558 PUSH3 0x252 PUSH1 0x20 SHL PUSH3 0x1C9B OR PUSH1 0x20 SHR JUMP JUMPDEST PUSH1 0xC PUSH1 0x0 PUSH2 0x100 EXP DUP2 SLOAD DUP2 PUSH16 0xFFFFFFFFFFFFFFFFFFFFFFFFFFFFFFFF MUL NOT AND SWAP1 DUP4 PUSH1 0xF SIGNEXTEND PUSH16 0xFFFFFFFFFFFFFFFFFFFFFFFFFFFFFFFF AND MUL OR SWAP1 SSTORE POP POP POP POP POP POP POP POP POP POP PUSH3 0x5EA JUMP JUMPDEST PUSH1 0x0 CALLER SWAP1 POP SWAP1 JUMP JUMPDEST PUSH1 0x0 PUSH8 0x7FFFFFFFFFFFFFFF DUP3 GT ISZERO PUSH3 0x26A JUMPI PUSH1 0x0 DUP1 REVERT JUMPDEST PUSH1 0x40 DUP3 SWAP1 SHL SWAP1 POP SWAP2 SWAP1 POP JUMP JUMPDEST DUP3 DUP1 SLOAD DUP3 DUP3 SSTORE SWAP1 PUSH1 0x0 MSTORE PUSH1 0x20 PUSH1 0x0 KECCAK256 SWAP1 DUP2 ADD SWAP3 DUP3 ISZERO PUSH3 0x2F2 JUMPI SWAP2 PUSH1 0x20 MUL DUP3 ADD JUMPDEST DUP3 DUP2 GT ISZERO PUSH3 0x2F1 JUMPI DUP3 MLOAD DUP3 PUSH1 0x0 PUSH2 0x100 EXP DUP2 SLOAD DUP2 PUSH20 0xFFFFFFFFFFFFFFFFFFFFFFFFFFFFFFFFFFFFFFFF MUL NOT AND SWAP1 DUP4 PUSH20 0xFFFFFFFFFFFFFFFFFFFFFFFFFFFFFFFFFFFFFFFF AND MUL OR SWAP1 SSTORE POP SWAP2 PUSH1 0x20 ADD SWAP2 SWAP1 PUSH1 0x1 ADD SWAP1 PUSH3 0x297 JUMP JUMPDEST JUMPDEST POP SWAP1 POP PUSH3 0x301 SWAP2 SWAP1 PUSH3 0x305 JUMP JUMPDEST POP SWAP1 JUMP JUMPDEST JUMPDEST DUP1 DUP3 GT ISZERO PUSH3 0x320 JUMPI PUSH1 0x0 DUP2 PUSH1 0x0 SWAP1 SSTORE POP PUSH1 0x1 ADD PUSH3 0x306 JUMP JUMPDEST POP SWAP1 JUMP JUMPDEST PUSH1 0x0 PUSH3 0x33B PUSH3 0x335 DUP5 PUSH3 0x51A JUMP JUMPDEST PUSH3 0x4E6 JUMP JUMPDEST SWAP1 POP DUP1 DUP4 DUP3 MSTORE PUSH1 0x20 DUP3 ADD SWAP1 POP DUP3 DUP6 PUSH1 0x20 DUP7 MUL DUP3 ADD GT ISZERO PUSH3 0x35B JUMPI PUSH1 0x0 DUP1 REVERT JUMPDEST PUSH1 0x0 JUMPDEST DUP6 DUP2 LT ISZERO PUSH3 0x38F JUMPI DUP2 PUSH3 0x374 DUP9 DUP3 PUSH3 0x399 JUMP JUMPDEST DUP5 MSTORE PUSH1 0x20 DUP5 ADD SWAP4 POP PUSH1 0x20 DUP4 ADD SWAP3 POP POP PUSH1 0x1 DUP2 ADD SWAP1 POP PUSH3 0x35E JUMP JUMPDEST POP POP POP SWAP4 SWAP3 POP POP POP JUMP JUMPDEST PUSH1 0x0 DUP2 MLOAD SWAP1 POP PUSH3 0x3AA DUP2 PUSH3 0x5B6 JUMP JUMPDEST SWAP3 SWAP2 POP POP JUMP JUMPDEST PUSH1 0x0 DUP3 PUSH1 0x1F DUP4 ADD SLT PUSH3 0x3C2 JUMPI PUSH1 0x0 DUP1 REVERT JUMPDEST DUP2 MLOAD PUSH3 0x3D4 DUP5 DUP3 PUSH1 0x20 DUP7 ADD PUSH3 0x324 JUMP JUMPDEST SWAP2 POP POP SWAP3 SWAP2 POP POP JUMP JUMPDEST PUSH1 0x0 DUP2 MLOAD SWAP1 POP PUSH3 0x3EE DUP2 PUSH3 0x5D0 JUMP JUMPDEST SWAP3 SWAP2 POP POP JUMP JUMPDEST PUSH1 0x0 DUP1 PUSH1 0x0 DUP1 PUSH1 0x0 DUP1 PUSH1 0x0 DUP1 PUSH1 0x0 PUSH2 0x120 DUP11 DUP13 SUB SLT ISZERO PUSH3 0x414 JUMPI PUSH1 0x0 DUP1 REVERT JUMPDEST PUSH1 0x0 PUSH3 0x424 DUP13 DUP3 DUP14 ADD PUSH3 0x399 JUMP JUMPDEST SWAP10 POP POP PUSH1 0x20 PUSH3 0x437 DUP13 DUP3 DUP14 ADD PUSH3 0x399 JUMP JUMPDEST SWAP9 POP POP PUSH1 0x40 PUSH3 0x44A DUP13 DUP3 DUP14 ADD PUSH3 0x399 JUMP JUMPDEST SWAP8 POP POP PUSH1 0x60 DUP11 ADD MLOAD PUSH8 0xFFFFFFFFFFFFFFFF DUP2 GT ISZERO PUSH3 0x468 JUMPI PUSH1 0x0 DUP1 REVERT JUMPDEST PUSH3 0x476 DUP13 DUP3 DUP14 ADD PUSH3 0x3B0 JUMP JUMPDEST SWAP7 POP POP PUSH1 0x80 PUSH3 0x489 DUP13 DUP3 DUP14 ADD PUSH3 0x3DD JUMP JUMPDEST SWAP6 POP POP PUSH1 0xA0 PUSH3 0x49C DUP13 DUP3 DUP14 ADD PUSH3 0x3DD JUMP JUMPDEST SWAP5 POP POP PUSH1 0xC0 PUSH3 0x4AF DUP13 DUP3 DUP14 ADD PUSH3 0x3DD JUMP JUMPDEST SWAP4 POP POP PUSH1 0xE0 PUSH3 0x4C2 DUP13 DUP3 DUP14 ADD PUSH3 0x3DD JUMP JUMPDEST SWAP3 POP POP PUSH2 0x100 PUSH3 0x4D6 DUP13 DUP3 DUP14 ADD PUSH3 0x3DD JUMP JUMPDEST SWAP2 POP POP SWAP3 SWAP6 SWAP9 POP SWAP3 SWAP6 SWAP9 POP SWAP3 SWAP6 SWAP9 JUMP JUMPDEST PUSH1 0x0 PUSH1 0x40 MLOAD SWAP1 POP DUP2 DUP2 ADD DUP2 DUP2 LT PUSH8 0xFFFFFFFFFFFFFFFF DUP3 GT OR ISZERO PUSH3 0x510 JUMPI PUSH3 0x50F PUSH3 0x587 JUMP JUMPDEST JUMPDEST DUP1 PUSH1 0x40 MSTORE POP SWAP2 SWAP1 POP JUMP JUMPDEST PUSH1 0x0 PUSH8 0xFFFFFFFFFFFFFFFF DUP3 GT ISZERO PUSH3 0x538 JUMPI PUSH3 0x537 PUSH3 0x587 JUMP JUMPDEST JUMPDEST PUSH1 0x20 DUP3 MUL SWAP1 POP PUSH1 0x20 DUP2 ADD SWAP1 POP SWAP2 SWAP1 POP JUMP JUMPDEST PUSH1 0x0 PUSH3 0x556 DUP3 PUSH3 0x55D JUMP JUMPDEST SWAP1 POP SWAP2 SWAP1 POP JUMP JUMPDEST PUSH1 0x0 PUSH20 0xFFFFFFFFFFFFFFFFFFFFFFFFFFFFFFFFFFFFFFFF DUP3 AND SWAP1 POP SWAP2 SWAP1 POP JUMP JUMPDEST PUSH1 0x0 DUP2 SWAP1 POP SWAP2 SWAP1 POP JUMP JUMPDEST PUSH32 0x4E487B7100000000000000000000000000000000000000000000000000000000 PUSH1 0x0 MSTORE PUSH1 0x41 PUSH1 0x4 MSTORE PUSH1 0x24 PUSH1 0x0 REVERT JUMPDEST PUSH3 0x5C1 DUP2 PUSH3 0x549 JUMP JUMPDEST DUP2 EQ PUSH3 0x5CD JUMPI PUSH1 0x0 DUP1 REVERT JUMPDEST POP JUMP JUMPDEST PUSH3 0x5DB DUP2 PUSH3 0x57D JUMP JUMPDEST DUP2 EQ PUSH3 0x5E7 JUMPI PUSH1 0x0 DUP1 REVERT JUMPDEST POP JUMP JUMPDEST PUSH2 0x3BB8 DUP1 PUSH3 0x5FA PUSH1 0x0 CODECOPY PUSH1 0x0 RETURN INVALID PUSH1 0x80 PUSH1 0x40 MSTORE CALLVALUE DUP1 ISZERO PUSH2 0x10 JUMPI PUSH1 0x0 DUP1 REVERT JUMPDEST POP PUSH1 0x4 CALLDATASIZE LT PUSH2 0x1C4 JUMPI PUSH1 0x0 CALLDATALOAD PUSH1 0xE0 SHR DUP1 PUSH4 0x7C3A00FD GT PUSH2 0xF9 JUMPI DUP1 PUSH4 0xBFAF48D4 GT PUSH2 0x97 JUMPI DUP1 PUSH4 0xE3064A77 GT PUSH2 0x71 JUMPI DUP1 PUSH4 0xE3064A77 EQ PUSH2 0x4D3 JUMPI DUP1 PUSH4 0xEF4CADC5 EQ PUSH2 0x4EF JUMPI DUP1 PUSH4 0xF248E7E8 EQ PUSH2 0x50D JUMPI DUP1 PUSH4 0xF2FDE38B EQ PUSH2 0x529 JUMPI PUSH2 0x1C4 JUMP JUMPDEST DUP1 PUSH4 0xBFAF48D4 EQ PUSH2 0x46B JUMPI DUP1 PUSH4 0xC5EBEAEC EQ PUSH2 0x487 JUMPI DUP1 PUSH4 0xDAF5539E EQ PUSH2 0x4A3 JUMPI PUSH2 0x1C4 JUMP JUMPDEST DUP1 PUSH4 0xA89C8C5E GT PUSH2 0xD3 JUMPI DUP1 PUSH4 0xA89C8C5E EQ PUSH2 0x3F7 JUMPI DUP1 PUSH4 0xAF1F556F EQ PUSH2 0x413 JUMPI DUP1 PUSH4 0xB6B55F25 EQ PUSH2 0x431 JUMPI DUP1 PUSH4 0xBDFCCAD3 EQ PUSH2 0x44D JUMPI PUSH2 0x1C4 JUMP JUMPDEST DUP1 PUSH4 0x7C3A00FD EQ PUSH2 0x39D JUMPI DUP1 PUSH4 0x8DA5CB5B EQ PUSH2 0x3BB JUMPI DUP1 PUSH4 0xA36A3630 EQ PUSH2 0x3D9 JUMPI PUSH2 0x1C4 JUMP JUMPDEST DUP1 PUSH4 0x54054808 GT PUSH2 0x166 JUMPI DUP1 PUSH4 0x69CB89C7 GT PUSH2 0x140 JUMPI DUP1 PUSH4 0x69CB89C7 EQ PUSH2 0x315 JUMPI DUP1 PUSH4 0x7046B7A9 EQ PUSH2 0x345 JUMPI DUP1 PUSH4 0x715018A6 EQ PUSH2 0x375 JUMPI DUP1 PUSH4 0x79BBCE8F EQ PUSH2 0x37F JUMPI PUSH2 0x1C4 JUMP JUMPDEST DUP1 PUSH4 0x54054808 EQ PUSH2 0x2BB JUMPI DUP1 PUSH4 0x5AE547E3 EQ PUSH2 0x2D9 JUMPI DUP1 PUSH4 0x5DCC9391 EQ PUSH2 0x2F7 JUMPI PUSH2 0x1C4 JUMP JUMPDEST DUP1 PUSH4 0x2F865568 GT PUSH2 0x1A2 JUMPI DUP1 PUSH4 0x2F865568 EQ PUSH2 0x235 JUMPI DUP1 PUSH4 0x371FD8E6 EQ PUSH2 0x251 JUMPI DUP1 PUSH4 0x4031234C EQ PUSH2 0x26D JUMPI DUP1 PUSH4 0x4A63A5CE EQ PUSH2 0x28B JUMPI PUSH2 0x1C4 JUMP JUMPDEST DUP1 PUSH4 0x16C19739 EQ PUSH2 0x1C9 JUMPI DUP1 PUSH4 0x20BDF800 EQ PUSH2 0x1FB JUMPI DUP1 PUSH4 0x2E1A7D4D EQ PUSH2 0x219 JUMPI JUMPDEST PUSH1 0x0 DUP1 REVERT JUMPDEST PUSH2 0x1E3 PUSH1 0x4 DUP1 CALLDATASIZE SUB DUP2 ADD SWAP1 PUSH2 0x1DE SWAP2 SWAP1 PUSH2 0x2D14 JUMP JUMPDEST PUSH2 0x545 JUMP JUMPDEST PUSH1 0x40 MLOAD PUSH2 0x1F2 SWAP4 SWAP3 SWAP2 SWAP1 PUSH2 0x37F7 JUMP JUMPDEST PUSH1 0x40 MLOAD DUP1 SWAP2 SUB SWAP1 RETURN JUMPDEST PUSH2 0x203 PUSH2 0x620 JUMP JUMPDEST PUSH1 0x40 MLOAD PUSH2 0x210 SWAP2 SWAP1 PUSH2 0x34BF JUMP JUMPDEST PUSH1 0x40 MLOAD DUP1 SWAP2 SUB SWAP1 RETURN JUMPDEST PUSH2 0x233 PUSH1 0x4 DUP1 CALLDATASIZE SUB DUP2 ADD SWAP1 PUSH2 0x22E SWAP2 SWAP1 PUSH2 0x2E1F JUMP JUMPDEST PUSH2 0x646 JUMP JUMPDEST STOP JUMPDEST PUSH2 0x24F PUSH1 0x4 DUP1 CALLDATASIZE SUB DUP2 ADD SWAP1 PUSH2 0x24A SWAP2 SWAP1 PUSH2 0x2D14 JUMP JUMPDEST PUSH2 0x94C JUMP JUMPDEST STOP JUMPDEST PUSH2 0x26B PUSH1 0x4 DUP1 CALLDATASIZE SUB DUP2 ADD SWAP1 PUSH2 0x266 SWAP2 SWAP1 PUSH2 0x2E1F JUMP JUMPDEST PUSH2 0x9BA JUMP JUMPDEST STOP JUMPDEST PUSH2 0x275 PUSH2 0xCE5 JUMP JUMPDEST PUSH1 0x40 MLOAD PUSH2 0x282 SWAP2 SWAP1 PUSH2 0x37AC JUMP JUMPDEST PUSH1 0x40 MLOAD DUP1 SWAP2 SUB SWAP1 RETURN JUMPDEST PUSH2 0x2A5 PUSH1 0x4 DUP1 CALLDATASIZE SUB DUP2 ADD SWAP1 PUSH2 0x2A0 SWAP2 SWAP1 PUSH2 0x2E1F JUMP JUMPDEST PUSH2 0xCEB JUMP JUMPDEST PUSH1 0x40 MLOAD PUSH2 0x2B2 SWAP2 SWAP1 PUSH2 0x34BF JUMP JUMPDEST PUSH1 0x40 MLOAD DUP1 SWAP2 SUB SWAP1 RETURN JUMPDEST PUSH2 0x2C3 PUSH2 0xD2A JUMP JUMPDEST PUSH1 0x40 MLOAD PUSH2 0x2D0 SWAP2 SWAP1 PUSH2 0x37AC JUMP JUMPDEST PUSH1 0x40 MLOAD DUP1 SWAP2 SUB SWAP1 RETURN JUMPDEST PUSH2 0x2E1 PUSH2 0xD30 JUMP JUMPDEST PUSH1 0x40 MLOAD PUSH2 0x2EE SWAP2 SWAP1 PUSH2 0x37AC JUMP JUMPDEST PUSH1 0x40 MLOAD DUP1 SWAP2 SUB SWAP1 RETURN JUMPDEST PUSH2 0x2FF PUSH2 0xD36 JUMP JUMPDEST PUSH1 0x40 MLOAD PUSH2 0x30C SWAP2 SWAP1 PUSH2 0x353A JUMP JUMPDEST PUSH1 0x40 MLOAD DUP1 SWAP2 SUB SWAP1 RETURN JUMPDEST PUSH2 0x32F PUSH1 0x4 DUP1 CALLDATASIZE SUB DUP2 ADD SWAP1 PUSH2 0x32A SWAP2 SWAP1 PUSH2 0x2D14 JUMP JUMPDEST PUSH2 0xD49 JUMP JUMPDEST PUSH1 0x40 MLOAD PUSH2 0x33C SWAP2 SWAP1 PUSH2 0x37AC JUMP JUMPDEST PUSH1 0x40 MLOAD DUP1 SWAP2 SUB SWAP1 RETURN JUMPDEST PUSH2 0x35F PUSH1 0x4 DUP1 CALLDATASIZE SUB DUP2 ADD SWAP1 PUSH2 0x35A SWAP2 SWAP1 PUSH2 0x2D79 JUMP JUMPDEST PUSH2 0xFB8 JUMP JUMPDEST PUSH1 0x40 MLOAD PUSH2 0x36C SWAP2 SWAP1 PUSH2 0x37AC JUMP JUMPDEST PUSH1 0x40 MLOAD DUP1 SWAP2 SUB SWAP1 RETURN JUMPDEST PUSH2 0x37D PUSH2 0xFCC JUMP JUMPDEST STOP JUMPDEST PUSH2 0x387 PUSH2 0x1106 JUMP JUMPDEST PUSH1 0x40 MLOAD PUSH2 0x394 SWAP2 SWAP1 PUSH2 0x34BF JUMP JUMPDEST PUSH1 0x40 MLOAD DUP1 SWAP2 SUB SWAP1 RETURN JUMPDEST PUSH2 0x3A5 PUSH2 0x112C JUMP JUMPDEST PUSH1 0x40 MLOAD PUSH2 0x3B2 SWAP2 SWAP1 PUSH2 0x37AC JUMP JUMPDEST PUSH1 0x40 MLOAD DUP1 SWAP2 SUB SWAP1 RETURN JUMPDEST PUSH2 0x3C3 PUSH2 0x1132 JUMP JUMPDEST PUSH1 0x40 MLOAD PUSH2 0x3D0 SWAP2 SWAP1 PUSH2 0x34BF JUMP JUMPDEST PUSH1 0x40 MLOAD DUP1 SWAP2 SUB SWAP1 RETURN JUMPDEST PUSH2 0x3E1 PUSH2 0x115B JUMP JUMPDEST PUSH1 0x40 MLOAD PUSH2 0x3EE SWAP2 SWAP1 PUSH2 0x37AC JUMP JUMPDEST PUSH1 0x40 MLOAD DUP1 SWAP2 SUB SWAP1 RETURN JUMPDEST PUSH2 0x411 PUSH1 0x4 DUP1 CALLDATASIZE SUB DUP2 ADD SWAP1 PUSH2 0x40C SWAP2 SWAP1 PUSH2 0x2D3D JUMP JUMPDEST PUSH2 0x1161 JUMP JUMPDEST STOP JUMPDEST PUSH2 0x41B PUSH2 0x12D3 JUMP JUMPDEST PUSH1 0x40 MLOAD PUSH2 0x428 SWAP2 SWAP1 PUSH2 0x37AC JUMP JUMPDEST PUSH1 0x40 MLOAD DUP1 SWAP2 SUB SWAP1 RETURN JUMPDEST PUSH2 0x44B PUSH1 0x4 DUP1 CALLDATASIZE SUB DUP2 ADD SWAP1 PUSH2 0x446 SWAP2 SWAP1 PUSH2 0x2E1F JUMP JUMPDEST PUSH2 0x12D9 JUMP JUMPDEST STOP JUMPDEST PUSH2 0x455 PUSH2 0x1479 JUMP JUMPDEST PUSH1 0x40 MLOAD PUSH2 0x462 SWAP2 SWAP1 PUSH2 0x34BF JUMP JUMPDEST PUSH1 0x40 MLOAD DUP1 SWAP2 SUB SWAP1 RETURN JUMPDEST PUSH2 0x485 PUSH1 0x4 DUP1 CALLDATASIZE SUB DUP2 ADD SWAP1 PUSH2 0x480 SWAP2 SWAP1 PUSH2 0x2E84 JUMP JUMPDEST PUSH2 0x149F JUMP JUMPDEST STOP JUMPDEST PUSH2 0x4A1 PUSH1 0x4 DUP1 CALLDATASIZE SUB DUP2 ADD SWAP1 PUSH2 0x49C SWAP2 SWAP1 PUSH2 0x2E1F JUMP JUMPDEST PUSH2 0x1637 JUMP JUMPDEST STOP JUMPDEST PUSH2 0x4BD PUSH1 0x4 DUP1 CALLDATASIZE SUB DUP2 ADD SWAP1 PUSH2 0x4B8 SWAP2 SWAP1 PUSH2 0x2D14 JUMP JUMPDEST PUSH2 0x184F JUMP JUMPDEST PUSH1 0x40 MLOAD PUSH2 0x4CA SWAP2 SWAP1 PUSH2 0x37AC JUMP JUMPDEST PUSH1 0x40 MLOAD DUP1 SWAP2 SUB SWAP1 RETURN JUMPDEST PUSH2 0x4ED PUSH1 0x4 DUP1 CALLDATASIZE SUB DUP2 ADD SWAP1 PUSH2 0x4E8 SWAP2 SWAP1 PUSH2 0x2E48 JUMP JUMPDEST PUSH2 0x18A4 JUMP JUMPDEST STOP JUMPDEST PUSH2 0x4F7 PUSH2 0x19BC JUMP JUMPDEST PUSH1 0x40 MLOAD PUSH2 0x504 SWAP2 SWAP1 PUSH2 0x37AC JUMP JUMPDEST PUSH1 0x40 MLOAD DUP1 SWAP2 SUB SWAP1 RETURN JUMPDEST PUSH2 0x527 PUSH1 0x4 DUP1 CALLDATASIZE SUB DUP2 ADD SWAP1 PUSH2 0x522 SWAP2 SWAP1 PUSH2 0x2D14 JUMP JUMPDEST PUSH2 0x19C2 JUMP JUMPDEST STOP JUMPDEST PUSH2 0x543 PUSH1 0x4 DUP1 CALLDATASIZE SUB DUP2 ADD SWAP1 PUSH2 0x53E SWAP2 SWAP1 PUSH2 0x2D14 JUMP JUMPDEST PUSH2 0x1AF2 JUMP JUMPDEST STOP JUMPDEST PUSH1 0x0 DUP1 PUSH1 0x0 PUSH1 0x1 PUSH1 0x0 DUP6 PUSH20 0xFFFFFFFFFFFFFFFFFFFFFFFFFFFFFFFFFFFFFFFF AND PUSH20 0xFFFFFFFFFFFFFFFFFFFFFFFFFFFFFFFFFFFFFFFF AND DUP2 MSTORE PUSH1 0x20 ADD SWAP1 DUP2 MSTORE PUSH1 0x20 ADD PUSH1 0x0 KECCAK256 PUSH1 0x0 ADD SLOAD PUSH1 0x1 PUSH1 0x0 DUP7 PUSH20 0xFFFFFFFFFFFFFFFFFFFFFFFFFFFFFFFFFFFFFFFF AND PUSH20 0xFFFFFFFFFFFFFFFFFFFFFFFFFFFFFFFFFFFFFFFF AND DUP2 MSTORE PUSH1 0x20 ADD SWAP1 DUP2 MSTORE PUSH1 0x20 ADD PUSH1 0x0 KECCAK256 PUSH1 0x1 ADD SLOAD PUSH1 0x1 PUSH1 0x0 DUP8 PUSH20 0xFFFFFFFFFFFFFFFFFFFFFFFFFFFFFFFFFFFFFFFF AND PUSH20 0xFFFFFFFFFFFFFFFFFFFFFFFFFFFFFFFFFFFFFFFF AND DUP2 MSTORE PUSH1 0x20 ADD SWAP1 DUP2 MSTORE PUSH1 0x20 ADD PUSH1 0x0 KECCAK256 PUSH1 0x2 ADD SLOAD SWAP3 POP SWAP3 POP SWAP3 POP SWAP2 SWAP4 SWAP1 SWAP3 POP JUMP JUMPDEST PUSH1 0x3 PUSH1 0x0 SWAP1 SLOAD SWAP1 PUSH2 0x100 EXP SWAP1 DIV PUSH20 0xFFFFFFFFFFFFFFFFFFFFFFFFFFFFFFFFFFFFFFFF AND DUP2 JUMP JUMPDEST PUSH1 0x0 PUSH1 0x1 PUSH1 0x0 CALLER PUSH20 0xFFFFFFFFFFFFFFFFFFFFFFFFFFFFFFFFFFFFFFFF AND PUSH20 0xFFFFFFFFFFFFFFFFFFFFFFFFFFFFFFFFFFFFFFFF AND DUP2 MSTORE PUSH1 0x20 ADD SWAP1 DUP2 MSTORE PUSH1 0x20 ADD PUSH1 0x0 KECCAK256 SWAP1 POP DUP2 DUP2 PUSH1 0x0 ADD SLOAD LT ISZERO PUSH2 0x6D0 JUMPI PUSH1 0x40 MLOAD PUSH32 0x8C379A000000000000000000000000000000000000000000000000000000000 DUP2 MSTORE PUSH1 0x4 ADD PUSH2 0x6C7 SWAP1 PUSH2 0x378C JUMP JUMPDEST PUSH1 0x40 MLOAD DUP1 SWAP2 SUB SWAP1 REVERT JUMPDEST PUSH1 0x0 PUSH2 0x6DB CALLER PUSH2 0xD49 JUMP JUMPDEST SWAP1 POP DUP1 DUP3 PUSH1 0x1 ADD PUSH1 0x0 DUP3 DUP3 SLOAD PUSH2 0x6F1 SWAP2 SWAP1 PUSH2 0x38DA JUMP JUMPDEST SWAP3 POP POP DUP2 SWAP1 SSTORE POP TIMESTAMP DUP3 PUSH1 0x2 ADD DUP2 SWAP1 SSTORE POP PUSH1 0x0 PUSH2 0x70C CALLER PUSH2 0x184F JUMP JUMPDEST SWAP1 POP PUSH1 0xA SLOAD DUP2 GT PUSH2 0x752 JUMPI PUSH1 0x40 MLOAD PUSH32 0x8C379A000000000000000000000000000000000000000000000000000000000 DUP2 MSTORE PUSH1 0x4 ADD PUSH2 0x749 SWAP1 PUSH2 0x368C JUMP JUMPDEST PUSH1 0x40 MLOAD DUP1 SWAP2 SUB SWAP1 REVERT JUMPDEST PUSH1 0x0 DUP4 PUSH1 0x0 ADD SLOAD PUSH32 0xFFFFFFFFFFFFFFFFFFFFFFFFFFFFFFFFFFFFFFFFFFFFFFFFFFFFFFFFFFFFFFFF PUSH2 0x2710 PUSH1 0xA SLOAD PUSH2 0x78A SWAP2 SWAP1 PUSH2 0x3930 JUMP JUMPDEST DUP5 PUSH2 0x795 SWAP2 SWAP1 PUSH2 0x39BB JUMP JUMPDEST PUSH2 0x79F SWAP2 SWAP1 PUSH2 0x3930 JUMP JUMPDEST PUSH2 0x7A9 SWAP2 SWAP1 PUSH2 0x3961 JUMP JUMPDEST SWAP1 POP DUP5 DUP2 LT ISZERO PUSH2 0x7EE JUMPI PUSH1 0x40 MLOAD PUSH32 0x8C379A000000000000000000000000000000000000000000000000000000000 DUP2 MSTORE PUSH1 0x4 ADD PUSH2 0x7E5 SWAP1 PUSH2 0x35EC JUMP JUMPDEST PUSH1 0x40 MLOAD DUP1 SWAP2 SUB SWAP1 REVERT JUMPDEST DUP5 DUP5 PUSH1 0x0 ADD PUSH1 0x0 DUP3 DUP3 SLOAD PUSH2 0x802 SWAP2 SWAP1 PUSH2 0x39BB JUMP JUMPDEST SWAP3 POP POP DUP2 SWAP1 SSTORE POP PUSH1 0x4 PUSH1 0x0 SWAP1 SLOAD SWAP1 PUSH2 0x100 EXP SWAP1 DIV PUSH20 0xFFFFFFFFFFFFFFFFFFFFFFFFFFFFFFFFFFFFFFFF AND PUSH20 0xFFFFFFFFFFFFFFFFFFFFFFFFFFFFFFFFFFFFFFFF AND PUSH4 0xA9059CBB CALLER DUP8 PUSH1 0x40 MLOAD DUP4 PUSH4 0xFFFFFFFF AND PUSH1 0xE0 SHL DUP2 MSTORE PUSH1 0x4 ADD PUSH2 0x866 SWAP3 SWAP2 SWAP1 PUSH2 0x3511 JUMP JUMPDEST PUSH1 0x20 PUSH1 0x40 MLOAD DUP1 DUP4 SUB DUP2 PUSH1 0x0 DUP8 DUP1 EXTCODESIZE ISZERO DUP1 ISZERO PUSH2 0x880 JUMPI PUSH1 0x0 DUP1 REVERT JUMPDEST POP GAS CALL ISZERO DUP1 ISZERO PUSH2 0x894 JUMPI RETURNDATASIZE PUSH1 0x0 DUP1 RETURNDATACOPY RETURNDATASIZE PUSH1 0x0 REVERT JUMPDEST POP POP POP POP PUSH1 0x40 MLOAD RETURNDATASIZE PUSH1 0x1F NOT PUSH1 0x1F DUP3 ADD AND DUP3 ADD DUP1 PUSH1 0x40 MSTORE POP DUP2 ADD SWAP1 PUSH2 0x8B8 SWAP2 SWAP1 PUSH2 0x2DF6 JUMP JUMPDEST PUSH2 0x8F7 JUMPI PUSH1 0x40 MLOAD PUSH32 0x8C379A000000000000000000000000000000000000000000000000000000000 DUP2 MSTORE PUSH1 0x4 ADD PUSH2 0x8EE SWAP1 PUSH2 0x362C JUMP JUMPDEST PUSH1 0x40 MLOAD DUP1 SWAP2 SUB SWAP1 REVERT JUMPDEST CALLER PUSH20 0xFFFFFFFFFFFFFFFFFFFFFFFFFFFFFFFFFFFFFFFF AND PUSH32 0x884EDAD9CE6FA2440D8A54CC123490EB96D2768479D49FF9C7366125A9424364 DUP7 PUSH1 0x40 MLOAD PUSH2 0x93D SWAP2 SWAP1 PUSH2 0x37AC JUMP JUMPDEST PUSH1 0x40 MLOAD DUP1 SWAP2 SUB SWAP1 LOG2 POP POP POP POP POP JUMP JUMPDEST CALLER PUSH20 0xFFFFFFFFFFFFFFFFFFFFFFFFFFFFFFFFFFFFFFFF AND DUP2 PUSH20 0xFFFFFFFFFFFFFFFFFFFFFFFFFFFFFFFFFFFFFFFF AND PUSH32 0x5A821A618DDB1A1FD304234A69C9D7F20C129D122FCF35593D13A07192664307 PUSH1 0x0 DUP1 PUSH1 0x0 PUSH1 0x40 MLOAD PUSH2 0x9AF SWAP4 SWAP3 SWAP2 SWAP1 PUSH2 0x3555 JUMP JUMPDEST PUSH1 0x40 MLOAD DUP1 SWAP2 SUB SWAP1 LOG3 POP JUMP JUMPDEST PUSH1 0x0 DUP2 GT PUSH2 0x9FD JUMPI PUSH1 0x40 MLOAD PUSH32 0x8C379A000000000000000000000000000000000000000000000000000000000 DUP2 MSTORE PUSH1 0x4 ADD PUSH2 0x9F4 SWAP1 PUSH2 0x370C JUMP JUMPDEST PUSH1 0x40 MLOAD DUP1 SWAP2 SUB SWAP1 REVERT JUMPDEST PUSH1 0x0 PUSH1 0x1 PUSH1 0x0 CALLER PUSH20 0xFFFFFFFFFFFFFFFFFFFFFFFFFFFFFFFFFFFFFFFF AND PUSH20 0xFFFFFFFFFFFFFFFFFFFFFFFFFFFFFFFFFFFFFFFF AND DUP2 MSTORE PUSH1 0x20 ADD SWAP1 DUP2 MSTORE PUSH1 0x20 ADD PUSH1 0x0 KECCAK256 SWAP1 POP PUSH2 0xA49 CALLER PUSH2 0xD49 JUMP JUMPDEST DUP2 PUSH1 0x1 ADD PUSH1 0x0 DUP3 DUP3 SLOAD PUSH2 0xA5C SWAP2 SWAP1 PUSH2 0x38DA JUMP JUMPDEST SWAP3 POP POP DUP2 SWAP1 SSTORE POP TIMESTAMP DUP2 PUSH1 0x2 ADD DUP2 SWAP1 SSTORE POP DUP2 DUP2 PUSH1 0x1 ADD SLOAD GT ISZERO PUSH2 0xB88 JUMPI PUSH1 0x3 PUSH1 0x0 SWAP1 SLOAD SWAP1 PUSH2 0x100 EXP SWAP1 DIV PUSH20 0xFFFFFFFFFFFFFFFFFFFFFFFFFFFFFFFFFFFFFFFF AND PUSH20 0xFFFFFFFFFFFFFFFFFFFFFFFFFFFFFFFFFFFFFFFF AND PUSH4 0x23B872DD CALLER ADDRESS DUP6 PUSH1 0x40 MLOAD DUP5 PUSH4 0xFFFFFFFF AND PUSH1 0xE0 SHL DUP2 MSTORE PUSH1 0x4 ADD PUSH2 0xAD7 SWAP4 SWAP3 SWAP2 SWAP1 PUSH2 0x34DA JUMP JUMPDEST PUSH1 0x20 PUSH1 0x40 MLOAD DUP1 DUP4 SUB DUP2 PUSH1 0x0 DUP8 DUP1 EXTCODESIZE ISZERO DUP1 ISZERO PUSH2 0xAF1 JUMPI PUSH1 0x0 DUP1 REVERT JUMPDEST POP GAS CALL ISZERO DUP1 ISZERO PUSH2 0xB05 JUMPI RETURNDATASIZE PUSH1 0x0 DUP1 RETURNDATACOPY RETURNDATASIZE PUSH1 0x0 REVERT JUMPDEST POP POP POP POP PUSH1 0x40 MLOAD RETURNDATASIZE PUSH1 0x1F NOT PUSH1 0x1F DUP3 ADD AND DUP3 ADD DUP1 PUSH1 0x40 MSTORE POP DUP2 ADD SWAP1 PUSH2 0xB29 SWAP2 SWAP1 PUSH2 0x2DF6 JUMP JUMPDEST PUSH2 0xB68 JUMPI PUSH1 0x40 MLOAD PUSH32 0x8C379A000000000000000000000000000000000000000000000000000000000 DUP2 MSTORE PUSH1 0x4 ADD PUSH2 0xB5F SWAP1 PUSH2 0x36AC JUMP JUMPDEST PUSH1 0x40 MLOAD DUP1 SWAP2 SUB SWAP1 REVERT JUMPDEST DUP2 DUP2 PUSH1 0x1 ADD PUSH1 0x0 DUP3 DUP3 SLOAD PUSH2 0xB7C SWAP2 SWAP1 PUSH2 0x39BB JUMP JUMPDEST SWAP3 POP POP DUP2 SWAP1 SSTORE POP PUSH2 0xC87 JUMP JUMPDEST PUSH1 0x3 PUSH1 0x0 SWAP1 SLOAD SWAP1 PUSH2 0x100 EXP SWAP1 DIV PUSH20 0xFFFFFFFFFFFFFFFFFFFFFFFFFFFFFFFFFFFFFFFF AND PUSH20 0xFFFFFFFFFFFFFFFFFFFFFFFFFFFFFFFFFFFFFFFF AND PUSH4 0x23B872DD CALLER ADDRESS DUP5 PUSH1 0x1 ADD SLOAD PUSH1 0x40 MLOAD DUP5 PUSH4 0xFFFFFFFF AND PUSH1 0xE0 SHL DUP2 MSTORE PUSH1 0x4 ADD PUSH2 0xBEB SWAP4 SWAP3 SWAP2 SWAP1 PUSH2 0x34DA JUMP JUMPDEST PUSH1 0x20 PUSH1 0x40 MLOAD DUP1 DUP4 SUB DUP2 PUSH1 0x0 DUP8 DUP1 EXTCODESIZE ISZERO DUP1 ISZERO PUSH2 0xC05 JUMPI PUSH1 0x0 DUP1 REVERT JUMPDEST POP GAS CALL ISZERO DUP1 ISZERO PUSH2 0xC19 JUMPI RETURNDATASIZE PUSH1 0x0 DUP1 RETURNDATACOPY RETURNDATASIZE PUSH1 0x0 REVERT JUMPDEST POP POP POP POP PUSH1 0x40 MLOAD RETURNDATASIZE PUSH1 0x1F NOT PUSH1 0x1F DUP3 ADD AND DUP3 ADD DUP1 PUSH1 0x40 MSTORE POP DUP2 ADD SWAP1 PUSH2 0xC3D SWAP2 SWAP1 PUSH2 0x2DF6 JUMP JUMPDEST PUSH2 0xC7C JUMPI PUSH1 0x40 MLOAD PUSH32 0x8C379A000000000000000000000000000000000000000000000000000000000 DUP2 MSTORE PUSH1 0x4 ADD PUSH2 0xC73 SWAP1 PUSH2 0x36AC JUMP JUMPDEST PUSH1 0x40 MLOAD DUP1 SWAP2 SUB SWAP1 REVERT JUMPDEST PUSH1 0x0 DUP2 PUSH1 0x1 ADD DUP2 SWAP1 SSTORE POP JUMPDEST CALLER PUSH20 0xFFFFFFFFFFFFFFFFFFFFFFFFFFFFFFFFFFFFFFFF AND PUSH32 0x2FE77B1C99ACA6B022B8EFC6E3E8DD1B48B30748709339B65C50EF3263443E09 DUP4 DUP4 PUSH1 0x1 ADD SLOAD DUP5 PUSH1 0x0 ADD SLOAD PUSH1 0x40 MLOAD PUSH2 0xCD9 SWAP4 SWAP3 SWAP2 SWAP1 PUSH2 0x37F7 JUMP JUMPDEST PUSH1 0x40 MLOAD DUP1 SWAP2 SUB SWAP1 LOG2 POP POP JUMP JUMPDEST PUSH1 0xB SLOAD DUP2 JUMP JUMPDEST PUSH1 0x6 DUP2 DUP2 SLOAD DUP2 LT PUSH2 0xCFB JUMPI PUSH1 0x0 DUP1 REVERT JUMPDEST SWAP1 PUSH1 0x0 MSTORE PUSH1 0x20 PUSH1 0x0 KECCAK256 ADD PUSH1 0x0 SWAP2 POP SLOAD SWAP1 PUSH2 0x100 EXP SWAP1 DIV PUSH20 0xFFFFFFFFFFFFFFFFFFFFFFFFFFFFFFFFFFFFFFFF AND DUP2 JUMP JUMPDEST PUSH1 0x8 SLOAD DUP2 JUMP JUMPDEST PUSH1 0xA SLOAD DUP2 JUMP JUMPDEST PUSH1 0xC PUSH1 0x0 SWAP1 SLOAD SWAP1 PUSH2 0x100 EXP SWAP1 DIV PUSH1 0xF SIGNEXTEND DUP2 JUMP JUMPDEST PUSH1 0x0 DUP1 PUSH1 0x1 PUSH1 0x0 DUP5 PUSH20 0xFFFFFFFFFFFFFFFFFFFFFFFFFFFFFFFFFFFFFFFF AND PUSH20 0xFFFFFFFFFFFFFFFFFFFFFFFFFFFFFFFFFFFFFFFF AND DUP2 MSTORE PUSH1 0x20 ADD SWAP1 DUP2 MSTORE PUSH1 0x20 ADD PUSH1 0x0 KECCAK256 PUSH1 0x1 ADD SLOAD EQ DUP1 PUSH2 0xDDD JUMPI POP PUSH1 0x0 PUSH1 0x1 PUSH1 0x0 DUP5 PUSH20 0xFFFFFFFFFFFFFFFFFFFFFFFFFFFFFFFFFFFFFFFF AND PUSH20 0xFFFFFFFFFFFFFFFFFFFFFFFFFFFFFFFFFFFFFFFF AND DUP2 MSTORE PUSH1 0x20 ADD SWAP1 DUP2 MSTORE PUSH1 0x20 ADD PUSH1 0x0 KECCAK256 PUSH1 0x2 ADD SLOAD EQ JUMPDEST DUP1 PUSH2 0xDEA JUMPI POP PUSH1 0x0 PUSH1 0x9 SLOAD EQ JUMPDEST DUP1 PUSH2 0xE36 JUMPI POP PUSH1 0x1 PUSH1 0x0 DUP4 PUSH20 0xFFFFFFFFFFFFFFFFFFFFFFFFFFFFFFFFFFFFFFFF AND PUSH20 0xFFFFFFFFFFFFFFFFFFFFFFFFFFFFFFFFFFFFFFFF AND DUP2 MSTORE PUSH1 0x20 ADD SWAP1 DUP2 MSTORE PUSH1 0x20 ADD PUSH1 0x0 KECCAK256 PUSH1 0x2 ADD SLOAD TIMESTAMP EQ JUMPDEST ISZERO PUSH2 0xE44 JUMPI PUSH1 0x0 SWAP1 POP PUSH2 0xFB3 JUMP JUMPDEST PUSH1 0x0 PUSH1 0x1 PUSH1 0x0 DUP5 PUSH20 0xFFFFFFFFFFFFFFFFFFFFFFFFFFFFFFFFFFFFFFFF AND PUSH20 0xFFFFFFFFFFFFFFFFFFFFFFFFFFFFFFFFFFFFFFFF AND DUP2 MSTORE PUSH1 0x20 ADD SWAP1 DUP2 MSTORE PUSH1 0x20 ADD PUSH1 0x0 KECCAK256 PUSH1 0x2 ADD SLOAD TIMESTAMP PUSH2 0xE94 SWAP2 SWAP1 PUSH2 0x39BB JUMP JUMPDEST SWAP1 POP PUSH1 0x0 PUSH2 0xEB9 PUSH2 0xEA4 DUP4 PUSH2 0x1C9B JUMP JUMPDEST PUSH1 0xC PUSH1 0x0 SWAP1 SLOAD SWAP1 PUSH2 0x100 EXP SWAP1 DIV PUSH1 0xF SIGNEXTEND PUSH2 0x1CBE JUMP JUMPDEST SWAP1 POP PUSH1 0x0 PUSH2 0xEDB PUSH2 0xECB PUSH1 0x9 SLOAD PUSH2 0x1C9B JUMP JUMPDEST PUSH2 0xED6 PUSH2 0x2710 PUSH2 0x1C9B JUMP JUMPDEST PUSH2 0x1CBE JUMP JUMPDEST SWAP1 POP PUSH1 0x0 PUSH2 0xF2A PUSH1 0x1 PUSH1 0x0 DUP9 PUSH20 0xFFFFFFFFFFFFFFFFFFFFFFFFFFFFFFFFFFFFFFFF AND PUSH20 0xFFFFFFFFFFFFFFFFFFFFFFFFFFFFFFFFFFFFFFFF AND DUP2 MSTORE PUSH1 0x20 ADD SWAP1 DUP2 MSTORE PUSH1 0x20 ADD PUSH1 0x0 KECCAK256 PUSH1 0x1 ADD SLOAD PUSH2 0x1C9B JUMP JUMPDEST SWAP1 POP PUSH1 0x0 PUSH2 0xF51 PUSH2 0xF4C DUP4 PUSH2 0xF47 PUSH2 0xF42 DUP8 DUP10 PUSH2 0x1D6E JUMP JUMPDEST PUSH2 0x1DD9 JUMP JUMPDEST PUSH2 0x1D6E JUMP JUMPDEST PUSH2 0x1E52 JUMP JUMPDEST SWAP1 POP PUSH1 0x1 PUSH1 0x0 DUP9 PUSH20 0xFFFFFFFFFFFFFFFFFFFFFFFFFFFFFFFFFFFFFFFF AND PUSH20 0xFFFFFFFFFFFFFFFFFFFFFFFFFFFFFFFFFFFFFFFF AND DUP2 MSTORE PUSH1 0x20 ADD SWAP1 DUP2 MSTORE PUSH1 0x20 ADD PUSH1 0x0 KECCAK256 PUSH1 0x1 ADD SLOAD DUP2 PUSH8 0xFFFFFFFFFFFFFFFF AND PUSH2 0xFAB SWAP2 SWAP1 PUSH2 0x39BB JUMP JUMPDEST SWAP6 POP POP POP POP POP POP JUMPDEST SWAP2 SWAP1 POP JUMP JUMPDEST PUSH1 0x0 PUSH2 0xFC4 DUP4 DUP4 PUSH2 0x1E73 JUMP JUMPDEST SWAP1 POP SWAP3 SWAP2 POP POP JUMP JUMPDEST PUSH2 0xFD4 PUSH2 0x2022 JUMP JUMPDEST PUSH20 0xFFFFFFFFFFFFFFFFFFFFFFFFFFFFFFFFFFFFFFFF AND PUSH2 0xFF2 PUSH2 0x1132 JUMP JUMPDEST PUSH20 0xFFFFFFFFFFFFFFFFFFFFFFFFFFFFFFFFFFFFFFFF AND EQ PUSH2 0x1048 JUMPI PUSH1 0x40 MLOAD PUSH32 0x8C379A000000000000000000000000000000000000000000000000000000000 DUP2 MSTORE PUSH1 0x4 ADD PUSH2 0x103F SWAP1 PUSH2 0x36CC JUMP JUMPDEST PUSH1 0x40 MLOAD DUP1 SWAP2 SUB SWAP1 REVERT JUMPDEST PUSH1 0x0 PUSH20 0xFFFFFFFFFFFFFFFFFFFFFFFFFFFFFFFFFFFFFFFF AND PUSH1 0x0 DUP1 SLOAD SWAP1 PUSH2 0x100 EXP SWAP1 DIV PUSH20 0xFFFFFFFFFFFFFFFFFFFFFFFFFFFFFFFFFFFFFFFF AND PUSH20 0xFFFFFFFFFFFFFFFFFFFFFFFFFFFFFFFFFFFFFFFF AND PUSH32 0x8BE0079C531659141344CD1FD0A4F28419497F9722A3DAAFE3B4186F6B6457E0 PUSH1 0x40 MLOAD PUSH1 0x40 MLOAD DUP1 SWAP2 SUB SWAP1 LOG3 PUSH1 0x0 DUP1 PUSH1 0x0 PUSH2 0x100 EXP DUP2 SLOAD DUP2 PUSH20 0xFFFFFFFFFFFFFFFFFFFFFFFFFFFFFFFFFFFFFFFF MUL NOT AND SWAP1 DUP4 PUSH20 0xFFFFFFFFFFFFFFFFFFFFFFFFFFFFFFFFFFFFFFFF AND MUL OR SWAP1 SSTORE POP JUMP JUMPDEST PUSH1 0x5 PUSH1 0x0 SWAP1 SLOAD SWAP1 PUSH2 0x100 EXP SWAP1 DIV PUSH20 0xFFFFFFFFFFFFFFFFFFFFFFFFFFFFFFFFFFFFFFFF AND DUP2 JUMP JUMPDEST PUSH1 0x9 SLOAD DUP2 JUMP JUMPDEST PUSH1 0x0 DUP1 PUSH1 0x0 SWAP1 SLOAD SWAP1 PUSH2 0x100 EXP SWAP1 DIV PUSH20 0xFFFFFFFFFFFFFFFFFFFFFFFFFFFFFFFFFFFFFFFF AND SWAP1 POP SWAP1 JUMP JUMPDEST PUSH1 0x7 SLOAD DUP2 JUMP JUMPDEST PUSH2 0x1169 PUSH2 0x2022 JUMP JUMPDEST PUSH20 0xFFFFFFFFFFFFFFFFFFFFFFFFFFFFFFFFFFFFFFFF AND PUSH2 0x1187 PUSH2 0x1132 JUMP JUMPDEST PUSH20 0xFFFFFFFFFFFFFFFFFFFFFFFFFFFFFFFFFFFFFFFF AND EQ PUSH2 0x11DD JUMPI PUSH1 0x40 MLOAD PUSH32 0x8C379A000000000000000000000000000000000000000000000000000000000 DUP2 MSTORE PUSH1 0x4 ADD PUSH2 0x11D4 SWAP1 PUSH2 0x36CC JUMP JUMPDEST PUSH1 0x40 MLOAD DUP1 SWAP2 SUB SWAP1 REVERT JUMPDEST PUSH1 0x0 PUSH20 0xFFFFFFFFFFFFFFFFFFFFFFFFFFFFFFFFFFFFFFFF AND DUP3 PUSH20 0xFFFFFFFFFFFFFFFFFFFFFFFFFFFFFFFFFFFFFFFF AND EQ ISZERO PUSH2 0x124D JUMPI PUSH1 0x40 MLOAD PUSH32 0x8C379A000000000000000000000000000000000000000000000000000000000 DUP2 MSTORE PUSH1 0x4 ADD PUSH2 0x1244 SWAP1 PUSH2 0x366C JUMP JUMPDEST PUSH1 0x40 MLOAD DUP1 SWAP2 SUB SWAP1 REVERT JUMPDEST DUP2 PUSH1 0x3 PUSH1 0x0 PUSH2 0x100 EXP DUP2 SLOAD DUP2 PUSH20 0xFFFFFFFFFFFFFFFFFFFFFFFFFFFFFFFFFFFFFFFF MUL NOT AND SWAP1 DUP4 PUSH20 0xFFFFFFFFFFFFFFFFFFFFFFFFFFFFFFFFFFFFFFFF AND MUL OR SWAP1 SSTORE POP DUP1 PUSH1 0x4 PUSH1 0x0 PUSH2 0x100 EXP DUP2 SLOAD DUP2 PUSH20 0xFFFFFFFFFFFFFFFFFFFFFFFFFFFFFFFFFFFFFFFF MUL NOT AND SWAP1 DUP4 PUSH20 0xFFFFFFFFFFFFFFFFFFFFFFFFFFFFFFFFFFFFFFFF AND MUL OR SWAP1 SSTORE POP POP POP JUMP JUMPDEST PUSH1 0x2 SLOAD DUP2 JUMP JUMPDEST PUSH1 0x0 PUSH1 0x4 PUSH1 0x0 SWAP1 SLOAD SWAP1 PUSH2 0x100 EXP SWAP1 DIV PUSH20 0xFFFFFFFFFFFFFFFFFFFFFFFFFFFFFFFFFFFFFFFF AND SWAP1 POP DUP1 PUSH20 0xFFFFFFFFFFFFFFFFFFFFFFFFFFFFFFFFFFFFFFFF AND PUSH4 0x23B872DD CALLER ADDRESS DUP6 PUSH1 0x40 MLOAD DUP5 PUSH4 0xFFFFFFFF AND PUSH1 0xE0 SHL DUP2 MSTORE PUSH1 0x4 ADD PUSH2 0x133D SWAP4 SWAP3 SWAP2 SWAP1 PUSH2 0x34DA JUMP JUMPDEST PUSH1 0x20 PUSH1 0x40 MLOAD DUP1 DUP4 SUB DUP2 PUSH1 0x0 DUP8 DUP1 EXTCODESIZE ISZERO DUP1 ISZERO PUSH2 0x1357 JUMPI PUSH1 0x0 DUP1 REVERT JUMPDEST POP GAS CALL ISZERO DUP1 ISZERO PUSH2 0x136B JUMPI RETURNDATASIZE PUSH1 0x0 DUP1 RETURNDATACOPY RETURNDATASIZE PUSH1 0x0 REVERT JUMPDEST POP POP POP POP PUSH1 0x40 MLOAD RETURNDATASIZE PUSH1 0x1F NOT PUSH1 0x1F DUP3 ADD AND DUP3 ADD DUP1 PUSH1 0x40 MSTORE POP DUP2 ADD SWAP1 PUSH2 0x138F SWAP2 SWAP1 PUSH2 0x2DF6 JUMP JUMPDEST PUSH2 0x13CE JUMPI PUSH1 0x40 MLOAD PUSH32 0x8C379A000000000000000000000000000000000000000000000000000000000 DUP2 MSTORE PUSH1 0x4 ADD PUSH2 0x13C5 SWAP1 PUSH2 0x372C JUMP JUMPDEST PUSH1 0x40 MLOAD DUP1 SWAP2 SUB SWAP1 REVERT JUMPDEST DUP2 PUSH1 0x1 PUSH1 0x0 CALLER PUSH20 0xFFFFFFFFFFFFFFFFFFFFFFFFFFFFFFFFFFFFFFFF AND PUSH20 0xFFFFFFFFFFFFFFFFFFFFFFFFFFFFFFFFFFFFFFFF AND DUP2 MSTORE PUSH1 0x20 ADD SWAP1 DUP2 MSTORE PUSH1 0x20 ADD PUSH1 0x0 KECCAK256 PUSH1 0x0 ADD PUSH1 0x0 DUP3 DUP3 SLOAD PUSH2 0x1420 SWAP2 SWAP1 PUSH2 0x38DA JUMP JUMPDEST SWAP3 POP POP DUP2 SWAP1 SSTORE POP CALLER PUSH20 0xFFFFFFFFFFFFFFFFFFFFFFFFFFFFFFFFFFFFFFFF AND PUSH32 0xE1FFFCC4923D04B559F4D29A8BFC6CDA04EB5B0D3C460751C2402C5C5CC9109C DUP4 PUSH1 0x40 MLOAD PUSH2 0x146D SWAP2 SWAP1 PUSH2 0x37AC JUMP JUMPDEST PUSH1 0x40 MLOAD DUP1 SWAP2 SUB SWAP1 LOG2 POP POP JUMP JUMPDEST PUSH1 0x4 PUSH1 0x0 SWAP1 SLOAD SWAP1 PUSH2 0x100 EXP SWAP1 DIV PUSH20 0xFFFFFFFFFFFFFFFFFFFFFFFFFFFFFFFFFFFFFFFF AND DUP2 JUMP JUMPDEST PUSH2 0x14A7 PUSH2 0x2022 JUMP JUMPDEST PUSH20 0xFFFFFFFFFFFFFFFFFFFFFFFFFFFFFFFFFFFFFFFF AND PUSH2 0x14C5 PUSH2 0x1132 JUMP JUMPDEST PUSH20 0xFFFFFFFFFFFFFFFFFFFFFFFFFFFFFFFFFFFFFFFF AND EQ PUSH2 0x151B JUMPI PUSH1 0x40 MLOAD PUSH32 0x8C379A000000000000000000000000000000000000000000000000000000000 DUP2 MSTORE PUSH1 0x4 ADD PUSH2 0x1512 SWAP1 PUSH2 0x36CC JUMP JUMPDEST PUSH1 0x40 MLOAD DUP1 SWAP2 SUB SWAP1 REVERT JUMPDEST PUSH2 0x2710 DUP4 GT ISZERO DUP1 ISZERO PUSH2 0x152E JUMPI POP PUSH1 0x0 DUP4 LT ISZERO JUMPDEST PUSH2 0x156D JUMPI PUSH1 0x40 MLOAD PUSH32 0x8C379A000000000000000000000000000000000000000000000000000000000 DUP2 MSTORE PUSH1 0x4 ADD PUSH2 0x1564 SWAP1 PUSH2 0x36EC JUMP JUMPDEST PUSH1 0x40 MLOAD DUP1 SWAP2 SUB SWAP1 REVERT JUMPDEST PUSH2 0x2710 DUP3 GT ISZERO DUP1 ISZERO PUSH2 0x1580 JUMPI POP PUSH1 0x0 DUP3 LT ISZERO JUMPDEST DUP1 ISZERO PUSH2 0x158C JUMPI POP DUP3 DUP3 GT ISZERO JUMPDEST PUSH2 0x15CB JUMPI PUSH1 0x40 MLOAD PUSH32 0x8C379A000000000000000000000000000000000000000000000000000000000 DUP2 MSTORE PUSH1 0x4 ADD PUSH2 0x15C2 SWAP1 PUSH2 0x35CC JUMP JUMPDEST PUSH1 0x40 MLOAD DUP1 SWAP2 SUB SWAP1 REVERT JUMPDEST DUP3 PUSH1 0x7 DUP2 SWAP1 SSTORE POP DUP2 PUSH1 0x8 DUP2 SWAP1 SSTORE POP PUSH2 0x2710 DUP2 GT ISZERO DUP1 ISZERO PUSH2 0x15EC JUMPI POP PUSH1 0x0 DUP2 LT ISZERO JUMPDEST PUSH2 0x162B JUMPI PUSH1 0x40 MLOAD PUSH32 0x8C379A000000000000000000000000000000000000000000000000000000000 DUP2 MSTORE PUSH1 0x4 ADD PUSH2 0x1622 SWAP1 PUSH2 0x374C JUMP JUMPDEST PUSH1 0x40 MLOAD DUP1 SWAP2 SUB SWAP1 REVERT JUMPDEST DUP1 PUSH1 0x9 DUP2 SWAP1 SSTORE POP POP POP POP JUMP JUMPDEST PUSH1 0x0 DUP2 GT PUSH2 0x167A JUMPI PUSH1 0x40 MLOAD PUSH32 0x8C379A000000000000000000000000000000000000000000000000000000000 DUP2 MSTORE PUSH1 0x4 ADD PUSH2 0x1671 SWAP1 PUSH2 0x360C JUMP JUMPDEST PUSH1 0x40 MLOAD DUP1 SWAP2 SUB SWAP1 REVERT JUMPDEST PUSH1 0x0 PUSH1 0x1 PUSH1 0x0 CALLER PUSH20 0xFFFFFFFFFFFFFFFFFFFFFFFFFFFFFFFFFFFFFFFF AND PUSH20 0xFFFFFFFFFFFFFFFFFFFFFFFFFFFFFFFFFFFFFFFF AND DUP2 MSTORE PUSH1 0x20 ADD SWAP1 DUP2 MSTORE PUSH1 0x20 ADD PUSH1 0x0 KECCAK256 SWAP1 POP PUSH1 0x0 PUSH2 0x16C8 CALLER PUSH2 0xD49 JUMP JUMPDEST SWAP1 POP PUSH1 0xA SLOAD PUSH2 0x16F1 CALLER DUP6 DUP5 DUP7 PUSH1 0x1 ADD SLOAD PUSH2 0x16E2 SWAP2 SWAP1 PUSH2 0x38DA JUMP JUMPDEST PUSH2 0x16EC SWAP2 SWAP1 PUSH2 0x38DA JUMP JUMPDEST PUSH2 0xFB8 JUMP JUMPDEST LT ISZERO PUSH2 0x1732 JUMPI PUSH1 0x40 MLOAD PUSH32 0x8C379A000000000000000000000000000000000000000000000000000000000 DUP2 MSTORE PUSH1 0x4 ADD PUSH2 0x1729 SWAP1 PUSH2 0x358C JUMP JUMPDEST PUSH1 0x40 MLOAD DUP1 SWAP2 SUB SWAP1 REVERT JUMPDEST DUP1 DUP4 PUSH2 0x173E SWAP2 SWAP1 PUSH2 0x38DA JUMP JUMPDEST DUP3 PUSH1 0x1 ADD PUSH1 0x0 DUP3 DUP3 SLOAD PUSH2 0x1751 SWAP2 SWAP1 PUSH2 0x38DA JUMP JUMPDEST SWAP3 POP POP DUP2 SWAP1 SSTORE POP TIMESTAMP DUP3 PUSH1 0x2 ADD DUP2 SWAP1 SSTORE POP PUSH1 0x3 PUSH1 0x0 SWAP1 SLOAD SWAP1 PUSH2 0x100 EXP SWAP1 DIV PUSH20 0xFFFFFFFFFFFFFFFFFFFFFFFFFFFFFFFFFFFFFFFF AND PUSH20 0xFFFFFFFFFFFFFFFFFFFFFFFFFFFFFFFFFFFFFFFF AND PUSH4 0x40C10F19 CALLER DUP6 PUSH1 0x40 MLOAD DUP4 PUSH4 0xFFFFFFFF AND PUSH1 0xE0 SHL DUP2 MSTORE PUSH1 0x4 ADD PUSH2 0x17BE SWAP3 SWAP2 SWAP1 PUSH2 0x3511 JUMP JUMPDEST PUSH1 0x0 PUSH1 0x40 MLOAD DUP1 DUP4 SUB DUP2 PUSH1 0x0 DUP8 DUP1 EXTCODESIZE ISZERO DUP1 ISZERO PUSH2 0x17D8 JUMPI PUSH1 0x0 DUP1 REVERT JUMPDEST POP GAS CALL ISZERO DUP1 ISZERO PUSH2 0x17EC JUMPI RETURNDATASIZE PUSH1 0x0 DUP1 RETURNDATACOPY RETURNDATASIZE PUSH1 0x0 REVERT JUMPDEST POP POP POP POP CALLER PUSH20 0xFFFFFFFFFFFFFFFFFFFFFFFFFFFFFFFFFFFFFFFF AND PUSH32 0x13ED6866D4E1EE6DA46F845C46D7E54120883D75C5EA9A2DACC1C4CA8984AB80 DUP5 DUP5 PUSH1 0x1 ADD SLOAD DUP6 PUSH1 0x0 ADD SLOAD PUSH1 0x40 MLOAD PUSH2 0x1842 SWAP4 SWAP3 SWAP2 SWAP1 PUSH2 0x37F7 JUMP JUMPDEST PUSH1 0x40 MLOAD DUP1 SWAP2 SUB SWAP1 LOG2 POP POP POP JUMP JUMPDEST PUSH1 0x0 PUSH2 0x189D DUP3 PUSH1 0x1 PUSH1 0x0 DUP6 PUSH20 0xFFFFFFFFFFFFFFFFFFFFFFFFFFFFFFFFFFFFFFFF AND PUSH20 0xFFFFFFFFFFFFFFFFFFFFFFFFFFFFFFFFFFFFFFFF AND DUP2 MSTORE PUSH1 0x20 ADD SWAP1 DUP2 MSTORE PUSH1 0x20 ADD PUSH1 0x0 KECCAK256 PUSH1 0x1 ADD SLOAD PUSH2 0x1E73 JUMP JUMPDEST SWAP1 POP SWAP2 SWAP1 POP JUMP JUMPDEST PUSH2 0x18AC PUSH2 0x2022 JUMP JUMPDEST PUSH20 0xFFFFFFFFFFFFFFFFFFFFFFFFFFFFFFFFFFFFFFFF AND PUSH2 0x18CA PUSH2 0x1132 JUMP JUMPDEST PUSH20 0xFFFFFFFFFFFFFFFFFFFFFFFFFFFFFFFFFFFFFFFF AND EQ PUSH2 0x1920 JUMPI PUSH1 0x40 MLOAD PUSH32 0x8C379A000000000000000000000000000000000000000000000000000000000 DUP2 MSTORE PUSH1 0x4 ADD PUSH2 0x1917 SWAP1 PUSH2 0x36CC JUMP JUMPDEST PUSH1 0x40 MLOAD DUP1 SWAP2 SUB SWAP1 REVERT JUMPDEST PUSH2 0x2710 DUP3 LT ISZERO PUSH2 0x1965 JUMPI PUSH1 0x40 MLOAD PUSH32 0x8C379A000000000000000000000000000000000000000000000000000000000 DUP2 MSTORE PUSH1 0x4 ADD PUSH2 0x195C SWAP1 PUSH2 0x364C JUMP JUMPDEST PUSH1 0x40 MLOAD DUP1 SWAP2 SUB SWAP1 REVERT JUMPDEST PUSH2 0x2710 DUP2 LT ISZERO PUSH2 0x19AA JUMPI PUSH1 0x40 MLOAD PUSH32 0x8C379A000000000000000000000000000000000000000000000000000000000 DUP2 MSTORE PUSH1 0x4 ADD PUSH2 0x19A1 SWAP1 PUSH2 0x376C JUMP JUMPDEST PUSH1 0x40 MLOAD DUP1 SWAP2 SUB SWAP1 REVERT JUMPDEST DUP2 PUSH1 0xA DUP2 SWAP1 SSTORE POP DUP1 PUSH1 0xB DUP2 SWAP1 SSTORE POP POP POP JUMP JUMPDEST PUSH2 0x2710 DUP2 JUMP JUMPDEST PUSH2 0x19CA PUSH2 0x2022 JUMP JUMPDEST PUSH20 0xFFFFFFFFFFFFFFFFFFFFFFFFFFFFFFFFFFFFFFFF AND PUSH2 0x19E8 PUSH2 0x1132 JUMP JUMPDEST PUSH20 0xFFFFFFFFFFFFFFFFFFFFFFFFFFFFFFFFFFFFFFFF AND EQ PUSH2 0x1A3E JUMPI PUSH1 0x40 MLOAD PUSH32 0x8C379A000000000000000000000000000000000000000000000000000000000 DUP2 MSTORE PUSH1 0x4 ADD PUSH2 0x1A35 SWAP1 PUSH2 0x36CC JUMP JUMPDEST PUSH1 0x40 MLOAD DUP1 SWAP2 SUB SWAP1 REVERT JUMPDEST PUSH1 0x0 PUSH20 0xFFFFFFFFFFFFFFFFFFFFFFFFFFFFFFFFFFFFFFFF AND DUP2 PUSH20 0xFFFFFFFFFFFFFFFFFFFFFFFFFFFFFFFFFFFFFFFF AND EQ ISZERO PUSH2 0x1AAE JUMPI PUSH1 0x40 MLOAD PUSH32 0x8C379A000000000000000000000000000000000000000000000000000000000 DUP2 MSTORE PUSH1 0x4 ADD PUSH2 0x1AA5 SWAP1 PUSH2 0x366C JUMP JUMPDEST PUSH1 0x40 MLOAD DUP1 SWAP2 SUB SWAP1 REVERT JUMPDEST DUP1 PUSH1 0x5 PUSH1 0x0 PUSH2 0x100 EXP DUP2 SLOAD DUP2 PUSH20 0xFFFFFFFFFFFFFFFFFFFFFFFFFFFFFFFFFFFFFFFF MUL NOT AND SWAP1 DUP4 PUSH20 0xFFFFFFFFFFFFFFFFFFFFFFFFFFFFFFFFFFFFFFFF AND MUL OR SWAP1 SSTORE POP POP JUMP JUMPDEST PUSH2 0x1AFA PUSH2 0x2022 JUMP JUMPDEST PUSH20 0xFFFFFFFFFFFFFFFFFFFFFFFFFFFFFFFFFFFFFFFF AND PUSH2 0x1B18 PUSH2 0x1132 JUMP JUMPDEST PUSH20 0xFFFFFFFFFFFFFFFFFFFFFFFFFFFFFFFFFFFFFFFF AND EQ PUSH2 0x1B6E JUMPI PUSH1 0x40 MLOAD PUSH32 0x8C379A000000000000000000000000000000000000000000000000000000000 DUP2 MSTORE PUSH1 0x4 ADD PUSH2 0x1B65 SWAP1 PUSH2 0x36CC JUMP JUMPDEST PUSH1 0x40 MLOAD DUP1 SWAP2 SUB SWAP1 REVERT JUMPDEST PUSH1 0x0 PUSH20 0xFFFFFFFFFFFFFFFFFFFFFFFFFFFFFFFFFFFFFFFF AND DUP2 PUSH20 0xFFFFFFFFFFFFFFFFFFFFFFFFFFFFFFFFFFFFFFFF AND EQ ISZERO PUSH2 0x1BDE JUMPI PUSH1 0x40 MLOAD PUSH32 0x8C379A000000000000000000000000000000000000000000000000000000000 DUP2 MSTORE PUSH1 0x4 ADD PUSH2 0x1BD5 SWAP1 PUSH2 0x35AC JUMP JUMPDEST PUSH1 0x40 MLOAD DUP1 SWAP2 SUB SWAP1 REVERT JUMPDEST DUP1 PUSH20 0xFFFFFFFFFFFFFFFFFFFFFFFFFFFFFFFFFFFFFFFF AND PUSH1 0x0 DUP1 SLOAD SWAP1 PUSH2 0x100 EXP SWAP1 DIV PUSH20 0xFFFFFFFFFFFFFFFFFFFFFFFFFFFFFFFFFFFFFFFF AND PUSH20 0xFFFFFFFFFFFFFFFFFFFFFFFFFFFFFFFFFFFFFFFF AND PUSH32 0x8BE0079C531659141344CD1FD0A4F28419497F9722A3DAAFE3B4186F6B6457E0 PUSH1 0x40 MLOAD PUSH1 0x40 MLOAD DUP1 SWAP2 SUB SWAP1 LOG3 DUP1 PUSH1 0x0 DUP1 PUSH2 0x100 EXP DUP2 SLOAD DUP2 PUSH20 0xFFFFFFFFFFFFFFFFFFFFFFFFFFFFFFFFFFFFFFFF MUL NOT AND SWAP1 DUP4 PUSH20 0xFFFFFFFFFFFFFFFFFFFFFFFFFFFFFFFFFFFFFFFF AND MUL OR SWAP1 SSTORE POP POP JUMP JUMPDEST PUSH1 0x0 PUSH8 0x7FFFFFFFFFFFFFFF DUP3 GT ISZERO PUSH2 0x1CB2 JUMPI PUSH1 0x0 DUP1 REVERT JUMPDEST PUSH1 0x40 DUP3 SWAP1 SHL SWAP1 POP SWAP2 SWAP1 POP JUMP JUMPDEST PUSH1 0x0 DUP1 DUP3 PUSH1 0xF SIGNEXTEND EQ ISZERO PUSH2 0x1CD0 JUMPI PUSH1 0x0 DUP1 REVERT JUMPDEST PUSH1 0x0 DUP3 PUSH1 0xF SIGNEXTEND PUSH1 0x40 DUP6 PUSH1 0xF SIGNEXTEND SWAP1 SHL DUP2 PUSH2 0x1D12 JUMPI PUSH32 0x4E487B7100000000000000000000000000000000000000000000000000000000 PUSH1 0x0 MSTORE PUSH1 0x12 PUSH1 0x4 MSTORE PUSH1 0x24 PUSH1 0x0 REVERT JUMPDEST SDIV SWAP1 POP PUSH32 0xFFFFFFFFFFFFFFFFFFFFFFFFFFFFFFFF80000000000000000000000000000000 PUSH1 0xF SIGNEXTEND DUP2 SLT ISZERO DUP1 ISZERO PUSH2 0x1D5B JUMPI POP PUSH16 0x7FFFFFFFFFFFFFFFFFFFFFFFFFFFFFFF PUSH1 0xF SIGNEXTEND DUP2 SGT ISZERO JUMPDEST PUSH2 0x1D64 JUMPI PUSH1 0x0 DUP1 REVERT JUMPDEST DUP1 SWAP2 POP POP SWAP3 SWAP2 POP POP JUMP JUMPDEST PUSH1 0x0 DUP1 PUSH1 0x40 DUP4 PUSH1 0xF SIGNEXTEND DUP6 PUSH1 0xF SIGNEXTEND MUL SWAP1 SAR SWAP1 POP PUSH32 0xFFFFFFFFFFFFFFFFFFFFFFFFFFFFFFFF80000000000000000000000000000000 PUSH1 0xF SIGNEXTEND DUP2 SLT ISZERO DUP1 ISZERO PUSH2 0x1DC6 JUMPI POP PUSH16 0x7FFFFFFFFFFFFFFFFFFFFFFFFFFFFFFF PUSH1 0xF SIGNEXTEND DUP2 SGT ISZERO JUMPDEST PUSH2 0x1DCF JUMPI PUSH1 0x0 DUP1 REVERT JUMPDEST DUP1 SWAP2 POP POP SWAP3 SWAP2 POP POP JUMP JUMPDEST PUSH1 0x0 PUSH9 0x400000000000000000 DUP3 PUSH1 0xF SIGNEXTEND SLT PUSH2 0x1DF3 JUMPI PUSH1 0x0 DUP1 REVERT JUMPDEST PUSH32 0xFFFFFFFFFFFFFFFFFFFFFFFFFFFFFFFFFFFFFFFFFFFFFFC00000000000000000 DUP3 PUSH1 0xF SIGNEXTEND SLT ISZERO PUSH2 0x1E27 JUMPI PUSH1 0x0 SWAP1 POP PUSH2 0x1E4D JUMP JUMPDEST PUSH2 0x1E4A PUSH1 0x80 PUSH17 0x171547652B82FE1777D0FFDA0D23A7D12 DUP5 PUSH1 0xF SIGNEXTEND MUL SWAP1 SAR PUSH2 0x202A JUMP JUMPDEST SWAP1 POP JUMPDEST SWAP2 SWAP1 POP JUMP JUMPDEST PUSH1 0x0 DUP1 DUP3 PUSH1 0xF SIGNEXTEND SLT ISZERO PUSH2 0x1E64 JUMPI PUSH1 0x0 DUP1 REVERT JUMPDEST PUSH1 0x40 DUP3 PUSH1 0xF SIGNEXTEND SWAP1 SAR SWAP1 POP SWAP2 SWAP1 POP JUMP JUMPDEST PUSH1 0x0 DUP1 PUSH1 0x1 PUSH1 0x0 DUP6 PUSH20 0xFFFFFFFFFFFFFFFFFFFFFFFFFFFFFFFFFFFFFFFF AND PUSH20 0xFFFFFFFFFFFFFFFFFFFFFFFFFFFFFFFFFFFFFFFF AND DUP2 MSTORE PUSH1 0x20 ADD SWAP1 DUP2 MSTORE PUSH1 0x20 ADD PUSH1 0x0 KECCAK256 PUSH1 0x0 ADD SLOAD SWAP1 POP PUSH1 0x0 DUP2 EQ ISZERO PUSH2 0x1ECE JUMPI PUSH1 0x0 SWAP2 POP POP PUSH2 0x201C JUMP JUMPDEST PUSH1 0x0 DUP4 EQ ISZERO PUSH2 0x1F00 JUMPI PUSH32 0xFFFFFFFFFFFFFFFFFFFFFFFFFFFFFFFFFFFFFFFFFFFFFFFFFFFFFFFFFFFFFFFF SWAP2 POP POP PUSH2 0x201C JUMP JUMPDEST PUSH1 0x0 PUSH1 0x5 PUSH1 0x0 SWAP1 SLOAD SWAP1 PUSH2 0x100 EXP SWAP1 DIV PUSH20 0xFFFFFFFFFFFFFFFFFFFFFFFFFFFFFFFFFFFFFFFF AND SWAP1 POP PUSH1 0x0 DUP2 PUSH20 0xFFFFFFFFFFFFFFFFFFFFFFFFFFFFFFFFFFFFFFFF AND PUSH4 0xD06CA61F DUP5 PUSH1 0x6 PUSH1 0x40 MLOAD DUP4 PUSH4 0xFFFFFFFF AND PUSH1 0xE0 SHL DUP2 MSTORE PUSH1 0x4 ADD PUSH2 0x1F65 SWAP3 SWAP2 SWAP1 PUSH2 0x37C7 JUMP JUMPDEST PUSH1 0x0 PUSH1 0x40 MLOAD DUP1 DUP4 SUB DUP2 DUP7 DUP1 EXTCODESIZE ISZERO DUP1 ISZERO PUSH2 0x1F7D JUMPI PUSH1 0x0 DUP1 REVERT JUMPDEST POP GAS STATICCALL ISZERO DUP1 ISZERO PUSH2 0x1F91 JUMPI RETURNDATASIZE PUSH1 0x0 DUP1 RETURNDATACOPY RETURNDATASIZE PUSH1 0x0 REVERT JUMPDEST POP POP POP POP PUSH1 0x40 MLOAD RETURNDATASIZE PUSH1 0x0 DUP3 RETURNDATACOPY RETURNDATASIZE PUSH1 0x1F NOT PUSH1 0x1F DUP3 ADD AND DUP3 ADD DUP1 PUSH1 0x40 MSTORE POP DUP2 ADD SWAP1 PUSH2 0x1FBA SWAP2 SWAP1 PUSH2 0x2DB5 JUMP JUMPDEST PUSH1 0x2 DUP2 MLOAD DUP2 LT PUSH2 0x1FF3 JUMPI PUSH32 0x4E487B7100000000000000000000000000000000000000000000000000000000 PUSH1 0x0 MSTORE PUSH1 0x32 PUSH1 0x4 MSTORE PUSH1 0x24 PUSH1 0x0 REVERT JUMPDEST PUSH1 0x20 MUL PUSH1 0x20 ADD ADD MLOAD SWAP1 POP DUP5 PUSH2 0x2710 DUP3 PUSH2 0x200C SWAP2 SWAP1 PUSH2 0x3961 JUMP JUMPDEST PUSH2 0x2016 SWAP2 SWAP1 PUSH2 0x3930 JUMP JUMPDEST SWAP4 POP POP POP POP JUMPDEST SWAP3 SWAP2 POP POP JUMP JUMPDEST PUSH1 0x0 CALLER SWAP1 POP SWAP1 JUMP JUMPDEST PUSH1 0x0 PUSH9 0x400000000000000000 DUP3 PUSH1 0xF SIGNEXTEND SLT PUSH2 0x2044 JUMPI PUSH1 0x0 DUP1 REVERT JUMPDEST PUSH32 0xFFFFFFFFFFFFFFFFFFFFFFFFFFFFFFFFFFFFFFFFFFFFFFC00000000000000000 DUP3 PUSH1 0xF SIGNEXTEND SLT ISZERO PUSH2 0x2078 JUMPI PUSH1 0x0 SWAP1 POP PUSH2 0x2C25 JUMP JUMPDEST PUSH1 0x0 PUSH16 0x80000000000000000000000000000000 SWAP1 POP PUSH1 0x0 PUSH8 0x8000000000000000 DUP5 AND PUSH1 0xF SIGNEXTEND SGT ISZERO PUSH2 0x20BE JUMPI PUSH1 0x80 PUSH17 0x16A09E667F3BCC908B2FB1366EA957D3E DUP3 MUL SWAP1 SHR SWAP1 POP JUMPDEST PUSH1 0x0 PUSH8 0x4000000000000000 DUP5 AND PUSH1 0xF SIGNEXTEND SGT ISZERO PUSH2 0x20EF JUMPI PUSH1 0x80 PUSH17 0x1306FE0A31B7152DE8D5A46305C85EDEC DUP3 MUL SWAP1 SHR SWAP1 POP JUMPDEST PUSH1 0x0 PUSH8 0x2000000000000000 DUP5 AND PUSH1 0xF SIGNEXTEND SGT ISZERO PUSH2 0x2120 JUMPI PUSH1 0x80 PUSH17 0x1172B83C7D517ADCDF7C8C50EB14A791F DUP3 MUL SWAP1 SHR SWAP1 POP JUMPDEST PUSH1 0x0 PUSH8 0x1000000000000000 DUP5 AND PUSH1 0xF SIGNEXTEND SGT ISZERO PUSH2 0x2151 JUMPI PUSH1 0x80 PUSH17 0x10B5586CF9890F6298B92B71842A98363 DUP3 MUL SWAP1 SHR SWAP1 POP JUMPDEST PUSH1 0x0 PUSH8 0x800000000000000 DUP5 AND PUSH1 0xF SIGNEXTEND SGT ISZERO PUSH2 0x2182 JUMPI PUSH1 0x80 PUSH17 0x1059B0D31585743AE7C548EB68CA417FD DUP3 MUL SWAP1 SHR SWAP1 POP JUMPDEST PUSH1 0x0 PUSH8 0x400000000000000 DUP5 AND PUSH1 0xF SIGNEXTEND SGT ISZERO PUSH2 0x21B3 JUMPI PUSH1 0x80 PUSH17 0x102C9A3E778060EE6F7CACA4F7A29BDE8 DUP3 MUL SWAP1 SHR SWAP1 POP JUMPDEST PUSH1 0x0 PUSH8 0x200000000000000 DUP5 AND PUSH1 0xF SIGNEXTEND SGT ISZERO PUSH2 0x21E4 JUMPI PUSH1 0x80 PUSH17 0x10163DA9FB33356D84A66AE336DCDFA3F DUP3 MUL SWAP1 SHR SWAP1 POP JUMPDEST PUSH1 0x0 PUSH8 0x100000000000000 DUP5 AND PUSH1 0xF SIGNEXTEND SGT ISZERO PUSH2 0x2215 JUMPI PUSH1 0x80 PUSH17 0x100B1AFA5ABCBED6129AB13EC11DC9543 DUP3 MUL SWAP1 SHR SWAP1 POP JUMPDEST PUSH1 0x0 PUSH7 0x80000000000000 DUP5 AND PUSH1 0xF SIGNEXTEND SGT ISZERO PUSH2 0x2245 JUMPI PUSH1 0x80 PUSH17 0x10058C86DA1C09EA1FF19D294CF2F679B DUP3 MUL SWAP1 SHR SWAP1 POP JUMPDEST PUSH1 0x0 PUSH7 0x40000000000000 DUP5 AND PUSH1 0xF SIGNEXTEND SGT ISZERO PUSH2 0x2275 JUMPI PUSH1 0x80 PUSH17 0x1002C605E2E8CEC506D21BFC89A23A00F DUP3 MUL SWAP1 SHR SWAP1 POP JUMPDEST PUSH1 0x0 PUSH7 0x20000000000000 DUP5 AND PUSH1 0xF SIGNEXTEND SGT ISZERO PUSH2 0x22A5 JUMPI PUSH1 0x80 PUSH17 0x100162F3904051FA128BCA9C55C31E5DF DUP3 MUL SWAP1 SHR SWAP1 POP JUMPDEST PUSH1 0x0 PUSH7 0x10000000000000 DUP5 AND PUSH1 0xF SIGNEXTEND SGT ISZERO PUSH2 0x22D5 JUMPI PUSH1 0x80 PUSH17 0x1000B175EFFDC76BA38E31671CA939725 DUP3 MUL SWAP1 SHR SWAP1 POP JUMPDEST PUSH1 0x0 PUSH7 0x8000000000000 DUP5 AND PUSH1 0xF SIGNEXTEND SGT ISZERO PUSH2 0x2305 JUMPI PUSH1 0x80 PUSH17 0x100058BA01FB9F96D6CACD4B180917C3D DUP3 MUL SWAP1 SHR SWAP1 POP JUMPDEST PUSH1 0x0 PUSH7 0x4000000000000 DUP5 AND PUSH1 0xF SIGNEXTEND SGT ISZERO PUSH2 0x2335 JUMPI PUSH1 0x80 PUSH17 0x10002C5CC37DA9491D0985C348C68E7B3 DUP3 MUL SWAP1 SHR SWAP1 POP JUMPDEST PUSH1 0x0 PUSH7 0x2000000000000 DUP5 AND PUSH1 0xF SIGNEXTEND SGT ISZERO PUSH2 0x2365 JUMPI PUSH1 0x80 PUSH17 0x1000162E525EE054754457D5995292026 DUP3 MUL SWAP1 SHR SWAP1 POP JUMPDEST PUSH1 0x0 PUSH7 0x1000000000000 DUP5 AND PUSH1 0xF SIGNEXTEND SGT ISZERO PUSH2 0x2395 JUMPI PUSH1 0x80 PUSH17 0x10000B17255775C040618BF4A4ADE83FC DUP3 MUL SWAP1 SHR SWAP1 POP JUMPDEST PUSH1 0x0 PUSH6 0x800000000000 DUP5 AND PUSH1 0xF SIGNEXTEND SGT ISZERO PUSH2 0x23C4 JUMPI PUSH1 0x80 PUSH17 0x1000058B91B5BC9AE2EED81E9B7D4CFAB DUP3 MUL SWAP1 SHR SWAP1 POP JUMPDEST PUSH1 0x0 PUSH6 0x400000000000 DUP5 AND PUSH1 0xF SIGNEXTEND SGT ISZERO PUSH2 0x23F3 JUMPI PUSH1 0x80 PUSH17 0x100002C5C89D5EC6CA4D7C8ACC017B7C9 DUP3 MUL SWAP1 SHR SWAP1 POP JUMPDEST PUSH1 0x0 PUSH6 0x200000000000 DUP5 AND PUSH1 0xF SIGNEXTEND SGT ISZERO PUSH2 0x2422 JUMPI PUSH1 0x80 PUSH17 0x10000162E43F4F831060E02D839A9D16D DUP3 MUL SWAP1 SHR SWAP1 POP JUMPDEST PUSH1 0x0 PUSH6 0x100000000000 DUP5 AND PUSH1 0xF SIGNEXTEND SGT ISZERO PUSH2 0x2451 JUMPI PUSH1 0x80 PUSH17 0x100000B1721BCFC99D9F890EA06911763 DUP3 MUL SWAP1 SHR SWAP1 POP JUMPDEST PUSH1 0x0 PUSH6 0x80000000000 DUP5 AND PUSH1 0xF SIGNEXTEND SGT ISZERO PUSH2 0x2480 JUMPI PUSH1 0x80 PUSH17 0x10000058B90CF1E6D97F9CA14DBCC1628 DUP3 MUL SWAP1 SHR SWAP1 POP JUMPDEST PUSH1 0x0 PUSH6 0x40000000000 DUP5 AND PUSH1 0xF SIGNEXTEND SGT ISZERO PUSH2 0x24AF JUMPI PUSH1 0x80 PUSH17 0x1000002C5C863B73F016468F6BAC5CA2B DUP3 MUL SWAP1 SHR SWAP1 POP JUMPDEST PUSH1 0x0 PUSH6 0x20000000000 DUP5 AND PUSH1 0xF SIGNEXTEND SGT ISZERO PUSH2 0x24DE JUMPI PUSH1 0x80 PUSH17 0x100000162E430E5A18F6119E3C02282A5 DUP3 MUL SWAP1 SHR SWAP1 POP JUMPDEST PUSH1 0x0 PUSH6 0x10000000000 DUP5 AND PUSH1 0xF SIGNEXTEND SGT ISZERO PUSH2 0x250D JUMPI PUSH1 0x80 PUSH17 0x1000000B1721835514B86E6D96EFD1BFE DUP3 MUL SWAP1 SHR SWAP1 POP JUMPDEST PUSH1 0x0 PUSH5 0x8000000000 DUP5 AND PUSH1 0xF SIGNEXTEND SGT ISZERO PUSH2 0x253B JUMPI PUSH1 0x80 PUSH17 0x100000058B90C0B48C6BE5DF846C5B2EF DUP3 MUL SWAP1 SHR SWAP1 POP JUMPDEST PUSH1 0x0 PUSH5 0x4000000000 DUP5 AND PUSH1 0xF SIGNEXTEND SGT ISZERO PUSH2 0x2569 JUMPI PUSH1 0x80 PUSH17 0x10000002C5C8601CC6B9E94213C72737A DUP3 MUL SWAP1 SHR SWAP1 POP JUMPDEST PUSH1 0x0 PUSH5 0x2000000000 DUP5 AND PUSH1 0xF SIGNEXTEND SGT ISZERO PUSH2 0x2597 JUMPI PUSH1 0x80 PUSH17 0x1000000162E42FFF037DF38AA2B219F06 DUP3 MUL SWAP1 SHR SWAP1 POP JUMPDEST PUSH1 0x0 PUSH5 0x1000000000 DUP5 AND PUSH1 0xF SIGNEXTEND SGT ISZERO PUSH2 0x25C5 JUMPI PUSH1 0x80 PUSH17 0x10000000B17217FBA9C739AA5819F44F9 DUP3 MUL SWAP1 SHR SWAP1 POP JUMPDEST PUSH1 0x0 PUSH5 0x800000000 DUP5 AND PUSH1 0xF SIGNEXTEND SGT ISZERO PUSH2 0x25F3 JUMPI PUSH1 0x80 PUSH17 0x1000000058B90BFCDEE5ACD3C1CEDC823 DUP3 MUL SWAP1 SHR SWAP1 POP JUMPDEST PUSH1 0x0 PUSH5 0x400000000 DUP5 AND PUSH1 0xF SIGNEXTEND SGT ISZERO PUSH2 0x2621 JUMPI PUSH1 0x80 PUSH17 0x100000002C5C85FE31F35A6A30DA1BE50 DUP3 MUL SWAP1 SHR SWAP1 POP JUMPDEST PUSH1 0x0 PUSH5 0x200000000 DUP5 AND PUSH1 0xF SIGNEXTEND SGT ISZERO PUSH2 0x264F JUMPI PUSH1 0x80 PUSH17 0x10000000162E42FF0999CE3541B9FFFCF DUP3 MUL SWAP1 SHR SWAP1 POP JUMPDEST PUSH1 0x0 PUSH5 0x100000000 DUP5 AND PUSH1 0xF SIGNEXTEND SGT ISZERO PUSH2 0x267D JUMPI PUSH1 0x80 PUSH17 0x100000000B17217F80F4EF5AADDA45554 DUP3 MUL SWAP1 SHR SWAP1 POP JUMPDEST PUSH1 0x0 PUSH4 0x80000000 DUP5 AND PUSH1 0xF SIGNEXTEND SGT ISZERO PUSH2 0x26AA JUMPI PUSH1 0x80 PUSH17 0x10000000058B90BFBF8479BD5A81B51AD DUP3 MUL SWAP1 SHR SWAP1 POP JUMPDEST PUSH1 0x0 PUSH4 0x40000000 DUP5 AND PUSH1 0xF SIGNEXTEND SGT ISZERO PUSH2 0x26D7 JUMPI PUSH1 0x80 PUSH17 0x1000000002C5C85FDF84BD62AE30A74CC DUP3 MUL SWAP1 SHR SWAP1 POP JUMPDEST PUSH1 0x0 PUSH4 0x20000000 DUP5 AND PUSH1 0xF SIGNEXTEND SGT ISZERO PUSH2 0x2704 JUMPI PUSH1 0x80 PUSH17 0x100000000162E42FEFB2FED257559BDAA DUP3 MUL SWAP1 SHR SWAP1 POP JUMPDEST PUSH1 0x0 PUSH4 0x10000000 DUP5 AND PUSH1 0xF SIGNEXTEND SGT ISZERO PUSH2 0x2731 JUMPI PUSH1 0x80 PUSH17 0x1000000000B17217F7D5A7716BBA4A9AE DUP3 MUL SWAP1 SHR SWAP1 POP JUMPDEST PUSH1 0x0 PUSH4 0x8000000 DUP5 AND PUSH1 0xF SIGNEXTEND SGT ISZERO PUSH2 0x275E JUMPI PUSH1 0x80 PUSH17 0x100000000058B90BFBE9DDBAC5E109CCE DUP3 MUL SWAP1 SHR SWAP1 POP JUMPDEST PUSH1 0x0 PUSH4 0x4000000 DUP5 AND PUSH1 0xF SIGNEXTEND SGT ISZERO PUSH2 0x278B JUMPI PUSH1 0x80 PUSH17 0x10000000002C5C85FDF4B15DE6F17EB0D DUP3 MUL SWAP1 SHR SWAP1 POP JUMPDEST PUSH1 0x0 PUSH4 0x2000000 DUP5 AND PUSH1 0xF SIGNEXTEND SGT ISZERO PUSH2 0x27B8 JUMPI PUSH1 0x80 PUSH17 0x1000000000162E42FEFA494F1478FDE05 DUP3 MUL SWAP1 SHR SWAP1 POP JUMPDEST PUSH1 0x0 PUSH4 0x1000000 DUP5 AND PUSH1 0xF SIGNEXTEND SGT ISZERO PUSH2 0x27E5 JUMPI PUSH1 0x80 PUSH17 0x10000000000B17217F7D20CF927C8E94C DUP3 MUL SWAP1 SHR SWAP1 POP JUMPDEST PUSH1 0x0 PUSH3 0x800000 DUP5 AND PUSH1 0xF SIGNEXTEND SGT ISZERO PUSH2 0x2811 JUMPI PUSH1 0x80 PUSH17 0x1000000000058B90BFBE8F71CB4E4B33D DUP3 MUL SWAP1 SHR SWAP1 POP JUMPDEST PUSH1 0x0 PUSH3 0x400000 DUP5 AND PUSH1 0xF SIGNEXTEND SGT ISZERO PUSH2 0x283D JUMPI PUSH1 0x80 PUSH17 0x100000000002C5C85FDF477B662B26945 DUP3 MUL SWAP1 SHR SWAP1 POP JUMPDEST PUSH1 0x0 PUSH3 0x200000 DUP5 AND PUSH1 0xF SIGNEXTEND SGT ISZERO PUSH2 0x2869 JUMPI PUSH1 0x80 PUSH17 0x10000000000162E42FEFA3AE53369388C DUP3 MUL SWAP1 SHR SWAP1 POP JUMPDEST PUSH1 0x0 PUSH3 0x100000 DUP5 AND PUSH1 0xF SIGNEXTEND SGT ISZERO PUSH2 0x2895 JUMPI PUSH1 0x80 PUSH17 0x100000000000B17217F7D1D351A389D40 DUP3 MUL SWAP1 SHR SWAP1 POP JUMPDEST PUSH1 0x0 PUSH3 0x80000 DUP5 AND PUSH1 0xF SIGNEXTEND SGT ISZERO PUSH2 0x28C1 JUMPI PUSH1 0x80 PUSH17 0x10000000000058B90BFBE8E8B2D3D4EDE DUP3 MUL SWAP1 SHR SWAP1 POP JUMPDEST PUSH1 0x0 PUSH3 0x40000 DUP5 AND PUSH1 0xF SIGNEXTEND SGT ISZERO PUSH2 0x28ED JUMPI PUSH1 0x80 PUSH17 0x1000000000002C5C85FDF4741BEA6E77E DUP3 MUL SWAP1 SHR SWAP1 POP JUMPDEST PUSH1 0x0 PUSH3 0x20000 DUP5 AND PUSH1 0xF SIGNEXTEND SGT ISZERO PUSH2 0x2919 JUMPI PUSH1 0x80 PUSH17 0x100000000000162E42FEFA39FE95583C2 DUP3 MUL SWAP1 SHR SWAP1 POP JUMPDEST PUSH1 0x0 PUSH3 0x10000 DUP5 AND PUSH1 0xF SIGNEXTEND SGT ISZERO PUSH2 0x2945 JUMPI PUSH1 0x80 PUSH17 0x1000000000000B17217F7D1CFB72B45E1 DUP3 MUL SWAP1 SHR SWAP1 POP JUMPDEST PUSH1 0x0 PUSH2 0x8000 DUP5 AND PUSH1 0xF SIGNEXTEND SGT ISZERO PUSH2 0x2970 JUMPI PUSH1 0x80 PUSH17 0x100000000000058B90BFBE8E7CC35C3F0 DUP3 MUL SWAP1 SHR SWAP1 POP JUMPDEST PUSH1 0x0 PUSH2 0x4000 DUP5 AND PUSH1 0xF SIGNEXTEND SGT ISZERO PUSH2 0x299B JUMPI PUSH1 0x80 PUSH17 0x10000000000002C5C85FDF473E242EA38 DUP3 MUL SWAP1 SHR SWAP1 POP JUMPDEST PUSH1 0x0 PUSH2 0x2000 DUP5 AND PUSH1 0xF SIGNEXTEND SGT ISZERO PUSH2 0x29C6 JUMPI PUSH1 0x80 PUSH17 0x1000000000000162E42FEFA39F02B772C DUP3 MUL SWAP1 SHR SWAP1 POP JUMPDEST PUSH1 0x0 PUSH2 0x1000 DUP5 AND PUSH1 0xF SIGNEXTEND SGT ISZERO PUSH2 0x29F1 JUMPI PUSH1 0x80 PUSH17 0x10000000000000B17217F7D1CF7D83C1A DUP3 MUL SWAP1 SHR SWAP1 POP JUMPDEST PUSH1 0x0 PUSH2 0x800 DUP5 AND PUSH1 0xF SIGNEXTEND SGT ISZERO PUSH2 0x2A1C JUMPI PUSH1 0x80 PUSH17 0x1000000000000058B90BFBE8E7BDCBE2E DUP3 MUL SWAP1 SHR SWAP1 POP JUMPDEST PUSH1 0x0 PUSH2 0x400 DUP5 AND PUSH1 0xF SIGNEXTEND SGT ISZERO PUSH2 0x2A47 JUMPI PUSH1 0x80 PUSH17 0x100000000000002C5C85FDF473DEA871F DUP3 MUL SWAP1 SHR SWAP1 POP JUMPDEST PUSH1 0x0 PUSH2 0x200 DUP5 AND PUSH1 0xF SIGNEXTEND SGT ISZERO PUSH2 0x2A72 JUMPI PUSH1 0x80 PUSH17 0x10000000000000162E42FEFA39EF44D91 DUP3 MUL SWAP1 SHR SWAP1 POP JUMPDEST PUSH1 0x0 PUSH2 0x100 DUP5 AND PUSH1 0xF SIGNEXTEND SGT ISZERO PUSH2 0x2A9D JUMPI PUSH1 0x80 PUSH17 0x100000000000000B17217F7D1CF79E949 DUP3 MUL SWAP1 SHR SWAP1 POP JUMPDEST PUSH1 0x0 PUSH1 0x80 DUP5 AND PUSH1 0xF SIGNEXTEND SGT ISZERO PUSH2 0x2AC7 JUMPI PUSH1 0x80 PUSH17 0x10000000000000058B90BFBE8E7BCE544 DUP3 MUL SWAP1 SHR SWAP1 POP JUMPDEST PUSH1 0x0 PUSH1 0x40 DUP5 AND PUSH1 0xF SIGNEXTEND SGT ISZERO PUSH2 0x2AF1 JUMPI PUSH1 0x80 PUSH17 0x1000000000000002C5C85FDF473DE6ECA DUP3 MUL SWAP1 SHR SWAP1 POP JUMPDEST PUSH1 0x0 PUSH1 0x20 DUP5 AND PUSH1 0xF SIGNEXTEND SGT ISZERO PUSH2 0x2B1B JUMPI PUSH1 0x80 PUSH17 0x100000000000000162E42FEFA39EF366F DUP3 MUL SWAP1 SHR SWAP1 POP JUMPDEST PUSH1 0x0 PUSH1 0x10 DUP5 AND PUSH1 0xF SIGNEXTEND SGT ISZERO PUSH2 0x2B45 JUMPI PUSH1 0x80 PUSH17 0x1000000000000000B17217F7D1CF79AFA DUP3 MUL SWAP1 SHR SWAP1 POP JUMPDEST PUSH1 0x0 PUSH1 0x8 DUP5 AND PUSH1 0xF SIGNEXTEND SGT ISZERO PUSH2 0x2B6F JUMPI PUSH1 0x80 PUSH17 0x100000000000000058B90BFBE8E7BCD6D DUP3 MUL SWAP1 SHR SWAP1 POP JUMPDEST PUSH1 0x0 PUSH1 0x4 DUP5 AND PUSH1 0xF SIGNEXTEND SGT ISZERO PUSH2 0x2B99 JUMPI PUSH1 0x80 PUSH17 0x10000000000000002C5C85FDF473DE6B2 DUP3 MUL SWAP1 SHR SWAP1 POP JUMPDEST PUSH1 0x0 PUSH1 0x2 DUP5 AND PUSH1 0xF SIGNEXTEND SGT ISZERO PUSH2 0x2BC3 JUMPI PUSH1 0x80 PUSH17 0x1000000000000000162E42FEFA39EF358 DUP3 MUL SWAP1 SHR SWAP1 POP JUMPDEST PUSH1 0x0 PUSH1 0x1 DUP5 AND PUSH1 0xF SIGNEXTEND SGT ISZERO PUSH2 0x2BED JUMPI PUSH1 0x80 PUSH17 0x10000000000000000B17217F7D1CF79AB DUP3 MUL SWAP1 SHR SWAP1 POP JUMPDEST PUSH1 0x40 DUP4 PUSH1 0xF SIGNEXTEND SWAP1 SAR PUSH1 0x3F SUB PUSH1 0xF SIGNEXTEND DUP2 SWAP1 SHR SWAP1 POP PUSH16 0x7FFFFFFFFFFFFFFFFFFFFFFFFFFFFFFF PUSH1 0xF SIGNEXTEND DUP2 GT ISZERO PUSH2 0x2C20 JUMPI PUSH1 0x0 DUP1 REVERT JUMPDEST DUP1 SWAP2 POP POP JUMPDEST SWAP2 SWAP1 POP JUMP JUMPDEST PUSH1 0x0 PUSH2 0x2C3D PUSH2 0x2C38 DUP5 PUSH2 0x385F JUMP JUMPDEST PUSH2 0x382E JUMP JUMPDEST SWAP1 POP DUP1 DUP4 DUP3 MSTORE PUSH1 0x20 DUP3 ADD SWAP1 POP DUP3 DUP6 PUSH1 0x20 DUP7 MUL DUP3 ADD GT ISZERO PUSH2 0x2C5C JUMPI PUSH1 0x0 DUP1 REVERT JUMPDEST PUSH1 0x0 JUMPDEST DUP6 DUP2 LT ISZERO PUSH2 0x2C8C JUMPI DUP2 PUSH2 0x2C72 DUP9 DUP3 PUSH2 0x2CFF JUMP JUMPDEST DUP5 MSTORE PUSH1 0x20 DUP5 ADD SWAP4 POP PUSH1 0x20 DUP4 ADD SWAP3 POP POP PUSH1 0x1 DUP2 ADD SWAP1 POP PUSH2 0x2C5F JUMP JUMPDEST POP POP POP SWAP4 SWAP3 POP POP POP JUMP JUMPDEST PUSH1 0x0 DUP2 CALLDATALOAD SWAP1 POP PUSH2 0x2CA5 DUP2 PUSH2 0x3B3D JUMP JUMPDEST SWAP3 SWAP2 POP POP JUMP JUMPDEST PUSH1 0x0 DUP3 PUSH1 0x1F DUP4 ADD SLT PUSH2 0x2CBC JUMPI PUSH1 0x0 DUP1 REVERT JUMPDEST DUP2 MLOAD PUSH2 0x2CCC DUP5 DUP3 PUSH1 0x20 DUP7 ADD PUSH2 0x2C2A JUMP JUMPDEST SWAP2 POP POP SWAP3 SWAP2 POP POP JUMP JUMPDEST PUSH1 0x0 DUP2 MLOAD SWAP1 POP PUSH2 0x2CE4 DUP2 PUSH2 0x3B54 JUMP JUMPDEST SWAP3 SWAP2 POP POP JUMP JUMPDEST PUSH1 0x0 DUP2 CALLDATALOAD SWAP1 POP PUSH2 0x2CF9 DUP2 PUSH2 0x3B6B JUMP JUMPDEST SWAP3 SWAP2 POP POP JUMP JUMPDEST PUSH1 0x0 DUP2 MLOAD SWAP1 POP PUSH2 0x2D0E DUP2 PUSH2 0x3B6B JUMP JUMPDEST SWAP3 SWAP2 POP POP JUMP JUMPDEST PUSH1 0x0 PUSH1 0x20 DUP3 DUP5 SUB SLT ISZERO PUSH2 0x2D26 JUMPI PUSH1 0x0 DUP1 REVERT JUMPDEST PUSH1 0x0 PUSH2 0x2D34 DUP5 DUP3 DUP6 ADD PUSH2 0x2C96 JUMP JUMPDEST SWAP2 POP POP SWAP3 SWAP2 POP POP JUMP JUMPDEST PUSH1 0x0 DUP1 PUSH1 0x40 DUP4 DUP6 SUB SLT ISZERO PUSH2 0x2D50 JUMPI PUSH1 0x0 DUP1 REVERT JUMPDEST PUSH1 0x0 PUSH2 0x2D5E DUP6 DUP3 DUP7 ADD PUSH2 0x2C96 JUMP JUMPDEST SWAP3 POP POP PUSH1 0x20 PUSH2 0x2D6F DUP6 DUP3 DUP7 ADD PUSH2 0x2C96 JUMP JUMPDEST SWAP2 POP POP SWAP3 POP SWAP3 SWAP1 POP JUMP JUMPDEST PUSH1 0x0 DUP1 PUSH1 0x40 DUP4 DUP6 SUB SLT ISZERO PUSH2 0x2D8C JUMPI PUSH1 0x0 DUP1 REVERT JUMPDEST PUSH1 0x0 PUSH2 0x2D9A DUP6 DUP3 DUP7 ADD PUSH2 0x2C96 JUMP JUMPDEST SWAP3 POP POP PUSH1 0x20 PUSH2 0x2DAB DUP6 DUP3 DUP7 ADD PUSH2 0x2CEA JUMP JUMPDEST SWAP2 POP POP SWAP3 POP SWAP3 SWAP1 POP JUMP JUMPDEST PUSH1 0x0 PUSH1 0x20 DUP3 DUP5 SUB SLT ISZERO PUSH2 0x2DC7 JUMPI PUSH1 0x0 DUP1 REVERT JUMPDEST PUSH1 0x0 DUP3 ADD MLOAD PUSH8 0xFFFFFFFFFFFFFFFF DUP2 GT ISZERO PUSH2 0x2DE1 JUMPI PUSH1 0x0 DUP1 REVERT JUMPDEST PUSH2 0x2DED DUP5 DUP3 DUP6 ADD PUSH2 0x2CAB JUMP JUMPDEST SWAP2 POP POP SWAP3 SWAP2 POP POP JUMP JUMPDEST PUSH1 0x0 PUSH1 0x20 DUP3 DUP5 SUB SLT ISZERO PUSH2 0x2E08 JUMPI PUSH1 0x0 DUP1 REVERT JUMPDEST PUSH1 0x0 PUSH2 0x2E16 DUP5 DUP3 DUP6 ADD PUSH2 0x2CD5 JUMP JUMPDEST SWAP2 POP POP SWAP3 SWAP2 POP POP JUMP JUMPDEST PUSH1 0x0 PUSH1 0x20 DUP3 DUP5 SUB SLT ISZERO PUSH2 0x2E31 JUMPI PUSH1 0x0 DUP1 REVERT JUMPDEST PUSH1 0x0 PUSH2 0x2E3F DUP5 DUP3 DUP6 ADD PUSH2 0x2CEA JUMP JUMPDEST SWAP2 POP POP SWAP3 SWAP2 POP POP JUMP JUMPDEST PUSH1 0x0 DUP1 PUSH1 0x40 DUP4 DUP6 SUB SLT ISZERO PUSH2 0x2E5B JUMPI PUSH1 0x0 DUP1 REVERT JUMPDEST PUSH1 0x0 PUSH2 0x2E69 DUP6 DUP3 DUP7 ADD PUSH2 0x2CEA JUMP JUMPDEST SWAP3 POP POP PUSH1 0x20 PUSH2 0x2E7A DUP6 DUP3 DUP7 ADD PUSH2 0x2CEA JUMP JUMPDEST SWAP2 POP POP SWAP3 POP SWAP3 SWAP1 POP JUMP JUMPDEST PUSH1 0x0 DUP1 PUSH1 0x0 PUSH1 0x60 DUP5 DUP7 SUB SLT ISZERO PUSH2 0x2E99 JUMPI PUSH1 0x0 DUP1 REVERT JUMPDEST PUSH1 0x0 PUSH2 0x2EA7 DUP7 DUP3 DUP8 ADD PUSH2 0x2CEA JUMP JUMPDEST SWAP4 POP POP PUSH1 0x20 PUSH2 0x2EB8 DUP7 DUP3 DUP8 ADD PUSH2 0x2CEA JUMP JUMPDEST SWAP3 POP POP PUSH1 0x40 PUSH2 0x2EC9 DUP7 DUP3 DUP8 ADD PUSH2 0x2CEA JUMP JUMPDEST SWAP2 POP POP SWAP3 POP SWAP3 POP SWAP3 JUMP JUMPDEST PUSH1 0x0 PUSH2 0x2EDF DUP4 DUP4 PUSH2 0x2EEB JUMP JUMPDEST PUSH1 0x20 DUP4 ADD SWAP1 POP SWAP3 SWAP2 POP POP JUMP JUMPDEST PUSH2 0x2EF4 DUP2 PUSH2 0x3A0F JUMP JUMPDEST DUP3 MSTORE POP POP JUMP JUMPDEST PUSH2 0x2F03 DUP2 PUSH2 0x3A0F JUMP JUMPDEST DUP3 MSTORE POP POP JUMP JUMPDEST PUSH1 0x0 PUSH2 0x2F14 DUP3 PUSH2 0x38A0 JUMP JUMPDEST PUSH2 0x2F1E DUP2 DUP6 PUSH2 0x38B8 JUMP JUMPDEST SWAP4 POP PUSH2 0x2F29 DUP4 PUSH2 0x388B JUMP JUMPDEST DUP1 PUSH1 0x0 JUMPDEST DUP4 DUP2 LT ISZERO PUSH2 0x2F61 JUMPI PUSH2 0x2F3E DUP3 PUSH2 0x3B1D JUMP JUMPDEST PUSH2 0x2F48 DUP9 DUP3 PUSH2 0x2ED3 JUMP JUMPDEST SWAP8 POP PUSH2 0x2F53 DUP4 PUSH2 0x38AB JUMP JUMPDEST SWAP3 POP POP PUSH1 0x1 DUP2 ADD SWAP1 POP PUSH2 0x2F2D JUMP JUMPDEST POP DUP6 SWAP4 POP POP POP POP SWAP3 SWAP2 POP POP JUMP JUMPDEST PUSH2 0x2F77 DUP2 PUSH2 0x3A2D JUMP JUMPDEST DUP3 MSTORE POP POP JUMP JUMPDEST PUSH2 0x2F86 DUP2 PUSH2 0x3A64 JUMP JUMPDEST DUP3 MSTORE POP POP JUMP JUMPDEST PUSH1 0x0 PUSH2 0x2F99 PUSH1 0x29 DUP4 PUSH2 0x38C9 JUMP JUMPDEST SWAP2 POP PUSH32 0x6E6F7420656E6F75676820636F6C6C61746572616C20746F20626F72726F7720 PUSH1 0x0 DUP4 ADD MSTORE PUSH32 0x74686174206D7563680000000000000000000000000000000000000000000000 PUSH1 0x20 DUP4 ADD MSTORE PUSH1 0x40 DUP3 ADD SWAP1 POP SWAP2 SWAP1 POP JUMP JUMPDEST PUSH1 0x0 PUSH2 0x2FFF PUSH1 0x26 DUP4 PUSH2 0x38C9 JUMP JUMPDEST SWAP2 POP PUSH32 0x4F776E61626C653A206E6577206F776E657220697320746865207A65726F2061 PUSH1 0x0 DUP4 ADD MSTORE PUSH32 0x6464726573730000000000000000000000000000000000000000000000000000 PUSH1 0x20 DUP4 ADD MSTORE PUSH1 0x40 DUP3 ADD SWAP1 POP SWAP2 SWAP1 POP JUMP JUMPDEST PUSH1 0x0 PUSH2 0x3065 PUSH1 0x18 DUP4 PUSH2 0x38C9 JUMP JUMPDEST SWAP2 POP PUSH32 0x6C69714665655368617265206F7574206F662072616E67650000000000000000 PUSH1 0x0 DUP4 ADD MSTORE PUSH1 0x20 DUP3 ADD SWAP1 POP SWAP2 SWAP1 POP JUMP JUMPDEST PUSH1 0x0 PUSH2 0x30A5 PUSH1 0x2F DUP4 PUSH2 0x38C9 JUMP JUMPDEST SWAP2 POP PUSH32 0x7769746864726177206C657373202D20636F6C6C61746572616C20726174696F PUSH1 0x0 DUP4 ADD MSTORE PUSH32 0x2077696C6C20626520756E736166650000000000000000000000000000000000 PUSH1 0x20 DUP4 ADD MSTORE PUSH1 0x40 DUP3 ADD SWAP1 POP SWAP2 SWAP1 POP JUMP JUMPDEST PUSH1 0x0 PUSH2 0x310B PUSH1 0xE DUP4 PUSH2 0x38C9 JUMP JUMPDEST SWAP2 POP PUSH32 0x63616E277420626F72726F772030000000000000000000000000000000000000 PUSH1 0x0 DUP4 ADD MSTORE PUSH1 0x20 DUP3 ADD SWAP1 POP SWAP2 SWAP1 POP JUMP JUMPDEST PUSH1 0x0 PUSH2 0x314B PUSH1 0x18 DUP4 PUSH2 0x38C9 JUMP JUMPDEST SWAP2 POP PUSH32 0x7769746864726177207472616E73666572206661696C65640000000000000000 PUSH1 0x0 DUP4 ADD MSTORE PUSH1 0x20 DUP3 ADD SWAP1 POP SWAP2 SWAP1 POP JUMP JUMPDEST PUSH1 0x0 PUSH2 0x318B PUSH1 0x29 DUP4 PUSH2 0x38C9 JUMP JUMPDEST SWAP2 POP PUSH32 0x626F72726F77207468726573686F6C64206D757374206265203E207363616C69 PUSH1 0x0 DUP4 ADD MSTORE PUSH32 0x6E6720666163746F720000000000000000000000000000000000000000000000 PUSH1 0x20 DUP4 ADD MSTORE PUSH1 0x40 DUP3 ADD SWAP1 POP SWAP2 SWAP1 POP JUMP JUMPDEST PUSH1 0x0 PUSH2 0x31F1 PUSH1 0x18 DUP4 PUSH2 0x38C9 JUMP JUMPDEST SWAP2 POP PUSH32 0x7A65726F2061646472657373206E6F7420616C6C6F7765640000000000000000 PUSH1 0x0 DUP4 ADD MSTORE PUSH1 0x20 DUP3 ADD SWAP1 POP SWAP2 SWAP1 POP JUMP JUMPDEST PUSH1 0x0 PUSH2 0x3231 PUSH1 0x27 DUP4 PUSH2 0x38C9 JUMP JUMPDEST SWAP2 POP PUSH32 0x636F6C6C61746572616C20726174696F206973203C3D20626F72726F77207468 PUSH1 0x0 DUP4 ADD MSTORE PUSH32 0x726573686F6C6400000000000000000000000000000000000000000000000000 PUSH1 0x20 DUP4 ADD MSTORE PUSH1 0x40 DUP3 ADD SWAP1 POP SWAP2 SWAP1 POP JUMP JUMPDEST PUSH1 0x0 PUSH2 0x3297 PUSH1 0x15 DUP4 PUSH2 0x38C9 JUMP JUMPDEST SWAP2 POP PUSH32 0x7265706179207472616E73666572206661696C65640000000000000000000000 PUSH1 0x0 DUP4 ADD MSTORE PUSH1 0x20 DUP3 ADD SWAP1 POP SWAP2 SWAP1 POP JUMP JUMPDEST PUSH1 0x0 PUSH2 0x32D7 PUSH1 0x20 DUP4 PUSH2 0x38C9 JUMP JUMPDEST SWAP2 POP PUSH32 0x4F776E61626C653A2063616C6C6572206973206E6F7420746865206F776E6572 PUSH1 0x0 DUP4 ADD MSTORE PUSH1 0x20 DUP3 ADD SWAP1 POP SWAP2 SWAP1 POP JUMP JUMPDEST PUSH1 0x0 PUSH2 0x3317 PUSH1 0x18 DUP4 PUSH2 0x38C9 JUMP JUMPDEST SWAP2 POP PUSH32 0x6C6971546F74616C466565206F7574206F662072616E67650000000000000000 PUSH1 0x0 DUP4 ADD MSTORE PUSH1 0x20 DUP3 ADD SWAP1 POP SWAP2 SWAP1 POP JUMP JUMPDEST PUSH1 0x0 PUSH2 0x3357 PUSH1 0xD DUP4 PUSH2 0x38C9 JUMP JUMPDEST SWAP2 POP PUSH32 0x63616E2774207265706179203000000000000000000000000000000000000000 PUSH1 0x0 DUP4 ADD MSTORE PUSH1 0x20 DUP3 ADD SWAP1 POP SWAP2 SWAP1 POP JUMP JUMPDEST PUSH1 0x0 PUSH2 0x3397 PUSH1 0xE DUP4 PUSH2 0x38C9 JUMP JUMPDEST SWAP2 POP PUSH32 0x6465706F736974206661696C6564000000000000000000000000000000000000 PUSH1 0x0 DUP4 ADD MSTORE PUSH1 0x20 DUP3 ADD SWAP1 POP SWAP2 SWAP1 POP JUMP JUMPDEST PUSH1 0x0 PUSH2 0x33D7 PUSH1 0x19 DUP4 PUSH2 0x38C9 JUMP JUMPDEST SWAP2 POP PUSH32 0x696E74657265737452617465206F7574206F662072616E676500000000000000 PUSH1 0x0 DUP4 ADD MSTORE PUSH1 0x20 DUP3 ADD SWAP1 POP SWAP2 SWAP1 POP JUMP JUMPDEST PUSH1 0x0 PUSH2 0x3417 PUSH1 0x26 DUP4 PUSH2 0x38C9 JUMP JUMPDEST SWAP2 POP PUSH32 0x6C6971207468726573686F6C64206D757374206265203E207363616C696E6720 PUSH1 0x0 DUP4 ADD MSTORE PUSH32 0x666163746F720000000000000000000000000000000000000000000000000000 PUSH1 0x20 DUP4 ADD MSTORE PUSH1 0x40 DUP3 ADD SWAP1 POP SWAP2 SWAP1 POP JUMP JUMPDEST PUSH1 0x0 PUSH2 0x347D PUSH1 0x20 DUP4 PUSH2 0x38C9 JUMP JUMPDEST SWAP2 POP PUSH32 0x6E6F7420656E6F75676820636F6C6C61746572616C20696E206163636F756E74 PUSH1 0x0 DUP4 ADD MSTORE PUSH1 0x20 DUP3 ADD SWAP1 POP SWAP2 SWAP1 POP JUMP JUMPDEST PUSH2 0x34B9 DUP2 PUSH2 0x3A5A JUMP JUMPDEST DUP3 MSTORE POP POP JUMP JUMPDEST PUSH1 0x0 PUSH1 0x20 DUP3 ADD SWAP1 POP PUSH2 0x34D4 PUSH1 0x0 DUP4 ADD DUP5 PUSH2 0x2EFA JUMP JUMPDEST SWAP3 SWAP2 POP POP JUMP JUMPDEST PUSH1 0x0 PUSH1 0x60 DUP3 ADD SWAP1 POP PUSH2 0x34EF PUSH1 0x0 DUP4 ADD DUP7 PUSH2 0x2EFA JUMP JUMPDEST PUSH2 0x34FC PUSH1 0x20 DUP4 ADD DUP6 PUSH2 0x2EFA JUMP JUMPDEST PUSH2 0x3509 PUSH1 0x40 DUP4 ADD DUP5 PUSH2 0x34B0 JUMP JUMPDEST SWAP5 SWAP4 POP POP POP POP JUMP JUMPDEST PUSH1 0x0 PUSH1 0x40 DUP3 ADD SWAP1 POP PUSH2 0x3526 PUSH1 0x0 DUP4 ADD DUP6 PUSH2 0x2EFA JUMP JUMPDEST PUSH2 0x3533 PUSH1 0x20 DUP4 ADD DUP5 PUSH2 0x34B0 JUMP JUMPDEST SWAP4 SWAP3 POP POP POP JUMP JUMPDEST PUSH1 0x0 PUSH1 0x20 DUP3 ADD SWAP1 POP PUSH2 0x354F PUSH1 0x0 DUP4 ADD DUP5 PUSH2 0x2F6E JUMP JUMPDEST SWAP3 SWAP2 POP POP JUMP JUMPDEST PUSH1 0x0 PUSH1 0x60 DUP3 ADD SWAP1 POP PUSH2 0x356A PUSH1 0x0 DUP4 ADD DUP7 PUSH2 0x2F7D JUMP JUMPDEST PUSH2 0x3577 PUSH1 0x20 DUP4 ADD DUP6 PUSH2 0x2F7D JUMP JUMPDEST PUSH2 0x3584 PUSH1 0x40 DUP4 ADD DUP5 PUSH2 0x2F7D JUMP JUMPDEST SWAP5 SWAP4 POP POP POP POP JUMP JUMPDEST PUSH1 0x0 PUSH1 0x20 DUP3 ADD SWAP1 POP DUP2 DUP2 SUB PUSH1 0x0 DUP4 ADD MSTORE PUSH2 0x35A5 DUP2 PUSH2 0x2F8C JUMP JUMPDEST SWAP1 POP SWAP2 SWAP1 POP JUMP JUMPDEST PUSH1 0x0 PUSH1 0x20 DUP3 ADD SWAP1 POP DUP2 DUP2 SUB PUSH1 0x0 DUP4 ADD MSTORE PUSH2 0x35C5 DUP2 PUSH2 0x2FF2 JUMP JUMPDEST SWAP1 POP SWAP2 SWAP1 POP JUMP JUMPDEST PUSH1 0x0 PUSH1 0x20 DUP3 ADD SWAP1 POP DUP2 DUP2 SUB PUSH1 0x0 DUP4 ADD MSTORE PUSH2 0x35E5 DUP2 PUSH2 0x3058 JUMP JUMPDEST SWAP1 POP SWAP2 SWAP1 POP JUMP JUMPDEST PUSH1 0x0 PUSH1 0x20 DUP3 ADD SWAP1 POP DUP2 DUP2 SUB PUSH1 0x0 DUP4 ADD MSTORE PUSH2 0x3605 DUP2 PUSH2 0x3098 JUMP JUMPDEST SWAP1 POP SWAP2 SWAP1 POP JUMP JUMPDEST PUSH1 0x0 PUSH1 0x20 DUP3 ADD SWAP1 POP DUP2 DUP2 SUB PUSH1 0x0 DUP4 ADD MSTORE PUSH2 0x3625 DUP2 PUSH2 0x30FE JUMP JUMPDEST SWAP1 POP SWAP2 SWAP1 POP JUMP JUMPDEST PUSH1 0x0 PUSH1 0x20 DUP3 ADD SWAP1 POP DUP2 DUP2 SUB PUSH1 0x0 DUP4 ADD MSTORE PUSH2 0x3645 DUP2 PUSH2 0x313E JUMP JUMPDEST SWAP1 POP SWAP2 SWAP1 POP JUMP JUMPDEST PUSH1 0x0 PUSH1 0x20 DUP3 ADD SWAP1 POP DUP2 DUP2 SUB PUSH1 0x0 DUP4 ADD MSTORE PUSH2 0x3665 DUP2 PUSH2 0x317E JUMP JUMPDEST SWAP1 POP SWAP2 SWAP1 POP JUMP JUMPDEST PUSH1 0x0 PUSH1 0x20 DUP3 ADD SWAP1 POP DUP2 DUP2 SUB PUSH1 0x0 DUP4 ADD MSTORE PUSH2 0x3685 DUP2 PUSH2 0x31E4 JUMP JUMPDEST SWAP1 POP SWAP2 SWAP1 POP JUMP JUMPDEST PUSH1 0x0 PUSH1 0x20 DUP3 ADD SWAP1 POP DUP2 DUP2 SUB PUSH1 0x0 DUP4 ADD MSTORE PUSH2 0x36A5 DUP2 PUSH2 0x3224 JUMP JUMPDEST SWAP1 POP SWAP2 SWAP1 POP JUMP JUMPDEST PUSH1 0x0 PUSH1 0x20 DUP3 ADD SWAP1 POP DUP2 DUP2 SUB PUSH1 0x0 DUP4 ADD MSTORE PUSH2 0x36C5 DUP2 PUSH2 0x328A JUMP JUMPDEST SWAP1 POP SWAP2 SWAP1 POP JUMP JUMPDEST PUSH1 0x0 PUSH1 0x20 DUP3 ADD SWAP1 POP DUP2 DUP2 SUB PUSH1 0x0 DUP4 ADD MSTORE PUSH2 0x36E5 DUP2 PUSH2 0x32CA JUMP JUMPDEST SWAP1 POP SWAP2 SWAP1 POP JUMP JUMPDEST PUSH1 0x0 PUSH1 0x20 DUP3 ADD SWAP1 POP DUP2 DUP2 SUB PUSH1 0x0 DUP4 ADD MSTORE PUSH2 0x3705 DUP2 PUSH2 0x330A JUMP JUMPDEST SWAP1 POP SWAP2 SWAP1 POP JUMP JUMPDEST PUSH1 0x0 PUSH1 0x20 DUP3 ADD SWAP1 POP DUP2 DUP2 SUB PUSH1 0x0 DUP4 ADD MSTORE PUSH2 0x3725 DUP2 PUSH2 0x334A JUMP JUMPDEST SWAP1 POP SWAP2 SWAP1 POP JUMP JUMPDEST PUSH1 0x0 PUSH1 0x20 DUP3 ADD SWAP1 POP DUP2 DUP2 SUB PUSH1 0x0 DUP4 ADD MSTORE PUSH2 0x3745 DUP2 PUSH2 0x338A JUMP JUMPDEST SWAP1 POP SWAP2 SWAP1 POP JUMP JUMPDEST PUSH1 0x0 PUSH1 0x20 DUP3 ADD SWAP1 POP DUP2 DUP2 SUB PUSH1 0x0 DUP4 ADD MSTORE PUSH2 0x3765 DUP2 PUSH2 0x33CA JUMP JUMPDEST SWAP1 POP SWAP2 SWAP1 POP JUMP JUMPDEST PUSH1 0x0 PUSH1 0x20 DUP3 ADD SWAP1 POP DUP2 DUP2 SUB PUSH1 0x0 DUP4 ADD MSTORE PUSH2 0x3785 DUP2 PUSH2 0x340A JUMP JUMPDEST SWAP1 POP SWAP2 SWAP1 POP JUMP JUMPDEST PUSH1 0x0 PUSH1 0x20 DUP3 ADD SWAP1 POP DUP2 DUP2 SUB PUSH1 0x0 DUP4 ADD MSTORE PUSH2 0x37A5 DUP2 PUSH2 0x3470 JUMP JUMPDEST SWAP1 POP SWAP2 SWAP1 POP JUMP JUMPDEST PUSH1 0x0 PUSH1 0x20 DUP3 ADD SWAP1 POP PUSH2 0x37C1 PUSH1 0x0 DUP4 ADD DUP5 PUSH2 0x34B0 JUMP JUMPDEST SWAP3 SWAP2 POP POP JUMP JUMPDEST PUSH1 0x0 PUSH1 0x40 DUP3 ADD SWAP1 POP PUSH2 0x37DC PUSH1 0x0 DUP4 ADD DUP6 PUSH2 0x34B0 JUMP JUMPDEST DUP2 DUP2 SUB PUSH1 0x20 DUP4 ADD MSTORE PUSH2 0x37EE DUP2 DUP5 PUSH2 0x2F09 JUMP JUMPDEST SWAP1 POP SWAP4 SWAP3 POP POP POP JUMP JUMPDEST PUSH1 0x0 PUSH1 0x60 DUP3 ADD SWAP1 POP PUSH2 0x380C PUSH1 0x0 DUP4 ADD DUP7 PUSH2 0x34B0 JUMP JUMPDEST PUSH2 0x3819 PUSH1 0x20 DUP4 ADD DUP6 PUSH2 0x34B0 JUMP JUMPDEST PUSH2 0x3826 PUSH1 0x40 DUP4 ADD DUP5 PUSH2 0x34B0 JUMP JUMPDEST SWAP5 SWAP4 POP POP POP POP JUMP JUMPDEST PUSH1 0x0 PUSH1 0x40 MLOAD SWAP1 POP DUP2 DUP2 ADD DUP2 DUP2 LT PUSH8 0xFFFFFFFFFFFFFFFF DUP3 GT OR ISZERO PUSH2 0x3855 JUMPI PUSH2 0x3854 PUSH2 0x3AEE JUMP JUMPDEST JUMPDEST DUP1 PUSH1 0x40 MSTORE POP SWAP2 SWAP1 POP JUMP JUMPDEST PUSH1 0x0 PUSH8 0xFFFFFFFFFFFFFFFF DUP3 GT ISZERO PUSH2 0x387A JUMPI PUSH2 0x3879 PUSH2 0x3AEE JUMP JUMPDEST JUMPDEST PUSH1 0x20 DUP3 MUL SWAP1 POP PUSH1 0x20 DUP2 ADD SWAP1 POP SWAP2 SWAP1 POP JUMP JUMPDEST PUSH1 0x0 DUP2 SWAP1 POP DUP2 PUSH1 0x0 MSTORE PUSH1 0x20 PUSH1 0x0 KECCAK256 SWAP1 POP SWAP2 SWAP1 POP JUMP JUMPDEST PUSH1 0x0 DUP2 SLOAD SWAP1 POP SWAP2 SWAP1 POP JUMP JUMPDEST PUSH1 0x0 PUSH1 0x1 DUP3 ADD SWAP1 POP SWAP2 SWAP1 POP JUMP JUMPDEST PUSH1 0x0 DUP3 DUP3 MSTORE PUSH1 0x20 DUP3 ADD SWAP1 POP SWAP3 SWAP2 POP POP JUMP JUMPDEST PUSH1 0x0 DUP3 DUP3 MSTORE PUSH1 0x20 DUP3 ADD SWAP1 POP SWAP3 SWAP2 POP POP JUMP JUMPDEST PUSH1 0x0 PUSH2 0x38E5 DUP3 PUSH2 0x3A5A JUMP JUMPDEST SWAP2 POP PUSH2 0x38F0 DUP4 PUSH2 0x3A5A JUMP JUMPDEST SWAP3 POP DUP3 PUSH32 0xFFFFFFFFFFFFFFFFFFFFFFFFFFFFFFFFFFFFFFFFFFFFFFFFFFFFFFFFFFFFFFFF SUB DUP3 GT ISZERO PUSH2 0x3925 JUMPI PUSH2 0x3924 PUSH2 0x3A90 JUMP JUMPDEST JUMPDEST DUP3 DUP3 ADD SWAP1 POP SWAP3 SWAP2 POP POP JUMP JUMPDEST PUSH1 0x0 PUSH2 0x393B DUP3 PUSH2 0x3A5A JUMP JUMPDEST SWAP2 POP PUSH2 0x3946 DUP4 PUSH2 0x3A5A JUMP JUMPDEST SWAP3 POP DUP3 PUSH2 0x3956 JUMPI PUSH2 0x3955 PUSH2 0x3ABF JUMP JUMPDEST JUMPDEST DUP3 DUP3 DIV SWAP1 POP SWAP3 SWAP2 POP POP JUMP JUMPDEST PUSH1 0x0 PUSH2 0x396C DUP3 PUSH2 0x3A5A JUMP JUMPDEST SWAP2 POP PUSH2 0x3977 DUP4 PUSH2 0x3A5A JUMP JUMPDEST SWAP3 POP DUP2 PUSH32 0xFFFFFFFFFFFFFFFFFFFFFFFFFFFFFFFFFFFFFFFFFFFFFFFFFFFFFFFFFFFFFFFF DIV DUP4 GT DUP3 ISZERO ISZERO AND ISZERO PUSH2 0x39B0 JUMPI PUSH2 0x39AF PUSH2 0x3A90 JUMP JUMPDEST JUMPDEST DUP3 DUP3 MUL SWAP1 POP SWAP3 SWAP2 POP POP JUMP JUMPDEST PUSH1 0x0 PUSH2 0x39C6 DUP3 PUSH2 0x3A5A JUMP JUMPDEST SWAP2 POP PUSH2 0x39D1 DUP4 PUSH2 0x3A5A JUMP JUMPDEST SWAP3 POP DUP3 DUP3 LT ISZERO PUSH2 0x39E4 JUMPI PUSH2 0x39E3 PUSH2 0x3A90 JUMP JUMPDEST JUMPDEST DUP3 DUP3 SUB SWAP1 POP SWAP3 SWAP2 POP POP JUMP JUMPDEST PUSH1 0x0 PUSH20 0xFFFFFFFFFFFFFFFFFFFFFFFFFFFFFFFFFFFFFFFF DUP3 AND SWAP1 POP SWAP2 SWAP1 POP JUMP JUMPDEST PUSH1 0x0 PUSH2 0x3A1A DUP3 PUSH2 0x3A3A JUMP JUMPDEST SWAP1 POP SWAP2 SWAP1 POP JUMP JUMPDEST PUSH1 0x0 DUP2 ISZERO ISZERO SWAP1 POP SWAP2 SWAP1 POP JUMP JUMPDEST PUSH1 0x0 DUP2 PUSH1 0xF SIGNEXTEND SWAP1 POP SWAP2 SWAP1 POP JUMP JUMPDEST PUSH1 0x0 PUSH20 0xFFFFFFFFFFFFFFFFFFFFFFFFFFFFFFFFFFFFFFFF DUP3 AND SWAP1 POP SWAP2 SWAP1 POP JUMP JUMPDEST PUSH1 0x0 DUP2 SWAP1 POP SWAP2 SWAP1 POP JUMP JUMPDEST PUSH1 0x0 PUSH2 0x3A6F DUP3 PUSH2 0x3A5A JUMP JUMPDEST SWAP1 POP SWAP2 SWAP1 POP JUMP JUMPDEST PUSH1 0x0 PUSH2 0x3A89 PUSH2 0x3A84 DUP4 PUSH2 0x3B30 JUMP JUMPDEST PUSH2 0x39EF JUMP JUMPDEST SWAP1 POP SWAP2 SWAP1 POP JUMP JUMPDEST PUSH32 0x4E487B7100000000000000000000000000000000000000000000000000000000 PUSH1 0x0 MSTORE PUSH1 0x11 PUSH1 0x4 MSTORE PUSH1 0x24 PUSH1 0x0 REVERT JUMPDEST PUSH32 0x4E487B7100000000000000000000000000000000000000000000000000000000 PUSH1 0x0 MSTORE PUSH1 0x12 PUSH1 0x4 MSTORE PUSH1 0x24 PUSH1 0x0 REVERT JUMPDEST PUSH32 0x4E487B7100000000000000000000000000000000000000000000000000000000 PUSH1 0x0 MSTORE PUSH1 0x41 PUSH1 0x4 MSTORE PUSH1 0x24 PUSH1 0x0 REVERT JUMPDEST PUSH1 0x0 PUSH2 0x3B29 DUP3 SLOAD PUSH2 0x3A76 JUMP JUMPDEST SWAP1 POP SWAP2 SWAP1 POP JUMP JUMPDEST PUSH1 0x0 DUP2 PUSH1 0x0 SHR SWAP1 POP SWAP2 SWAP1 POP JUMP JUMPDEST PUSH2 0x3B46 DUP2 PUSH2 0x3A0F JUMP JUMPDEST DUP2 EQ PUSH2 0x3B51 JUMPI PUSH1 0x0 DUP1 REVERT JUMPDEST POP JUMP JUMPDEST PUSH2 0x3B5D DUP2 PUSH2 0x3A21 JUMP JUMPDEST DUP2 EQ PUSH2 0x3B68 JUMPI PUSH1 0x0 DUP1 REVERT JUMPDEST POP JUMP JUMPDEST PUSH2 0x3B74 DUP2 PUSH2 0x3A5A JUMP JUMPDEST DUP2 EQ PUSH2 0x3B7F JUMPI PUSH1 0x0 DUP1 REVERT JUMPDEST POP JUMP INVALID LOG2 PUSH5 0x6970667358 0x22 SLT KECCAK256 DUP7 0x1F PUSH20 0xEDEE1DE0BC9F646AA018267F7E39651E7B51571 BALANCE PUSH5 0x3884ACAF7D DUP2 0xBF PUSH5 0x736F6C6343 STOP ADDMOD STOP STOP CALLER "
        },
        "methodIdentifiers": {
          "SCALING_FACTOR()": "ef4cadc5",
          "SECONDS_IN_YEAR()": "5dcc9391",
          "borrow(uint256)": "c5ebeaec",
          "borrowThreshold()": "5ae547e3",
          "calcInterest(address)": "69cb89c7",
          "deposit(uint256)": "b6b55f25",
          "getCurrentCollateralRatio(address)": "daf5539e",
          "getForwardCollateralRatio(address,uint256)": "7046b7a9",
          "getPosition(address)": "16c19739",
          "interestRate()": "7c3a00fd",
          "liquidate(address)": "2f865568",
          "liquidationFee()": "a36a3630",
          "liquidationThreshold()": "4031234c",
          "liquidatorFeeShare()": "54054808",
          "owner()": "8da5cb5b",
          "protocolShortfall()": "af1f556f",
          "renounceOwnership()": "715018a6",
          "repay(uint256)": "371fd8e6",
          "setFeesAndRates(uint256,uint256,uint256)": "bfaf48d4",
          "setSushiAddresses(address)": "f248e7e8",
          "setThresholds(uint256,uint256)": "e3064a77",
          "setTokenAddresses(address,address)": "a89c8c5e",
          "sushiRouterAddress()": "79bbce8f",
          "transferOwnership(address)": "f2fde38b",
          "usdzAddress()": "20bdf800",
          "withdraw(uint256)": "2e1a7d4d",
          "xSushiAddress()": "bdfccad3",
          "xSushiToUsdcPath(uint256)": "4a63a5ce"
        }
      }
    }
  }
}