{
  "contracts/Controller.sol": {
    "Controller": {
      "abi": [
        {
          "inputs": [
            {
              "internalType": "address",
              "name": "_usdzAddress",
              "type": "address"
            },
            {
              "internalType": "address",
              "name": "_usdcAddress",
              "type": "address"
            },
            {
              "internalType": "address",
              "name": "_xSushiAddress",
              "type": "address"
            },
            {
              "internalType": "address",
              "name": "_routerAddress",
              "type": "address"
            },
            {
              "internalType": "uint256",
              "name": "_liqTotalFee",
              "type": "uint256"
            },
            {
              "internalType": "uint256",
              "name": "_liqFeeShare",
              "type": "uint256"
            },
            {
              "internalType": "uint256",
              "name": "_interestRate",
              "type": "uint256"
            },
            {
              "internalType": "uint256",
              "name": "_borrowThreshold",
              "type": "uint256"
            },
            {
              "internalType": "uint256",
              "name": "_liqThreshold",
              "type": "uint256"
            }
          ],
          "stateMutability": "nonpayable",
          "type": "constructor"
        },
        {
          "anonymous": false,
          "inputs": [
            {
              "indexed": true,
              "internalType": "address",
              "name": "account",
              "type": "address"
            },
            {
              "indexed": false,
              "internalType": "uint256",
              "name": "amountBorrowed",
              "type": "uint256"
            },
            {
              "indexed": false,
              "internalType": "uint256",
              "name": "collateral",
              "type": "uint256"
            },
            {
              "indexed": false,
              "internalType": "uint256",
              "name": "totalDebt",
              "type": "uint256"
            }
          ],
          "name": "Borrow",
          "type": "event"
        },
        {
          "anonymous": false,
          "inputs": [
            {
              "indexed": true,
              "internalType": "address",
              "name": "account",
              "type": "address"
            },
            {
              "indexed": false,
              "internalType": "uint256",
              "name": "amount",
              "type": "uint256"
            }
          ],
          "name": "Deposit",
          "type": "event"
        },
        {
          "anonymous": false,
          "inputs": [
            {
              "indexed": true,
              "internalType": "address",
              "name": "account",
              "type": "address"
            },
            {
              "indexed": true,
              "internalType": "address",
              "name": "liquidator",
              "type": "address"
            },
            {
              "indexed": false,
              "internalType": "uint256",
              "name": "collateralLiquidated",
              "type": "uint256"
            },
            {
              "indexed": false,
              "internalType": "uint256",
              "name": "lastCollateralRatio",
              "type": "uint256"
            },
            {
              "indexed": false,
              "internalType": "uint256",
              "name": "lastDebtOutstanding",
              "type": "uint256"
            }
          ],
          "name": "Liquidation",
          "type": "event"
        },
        {
          "anonymous": false,
          "inputs": [
            {
              "indexed": true,
              "internalType": "address",
              "name": "previousOwner",
              "type": "address"
            },
            {
              "indexed": true,
              "internalType": "address",
              "name": "newOwner",
              "type": "address"
            }
          ],
          "name": "OwnershipTransferred",
          "type": "event"
        },
        {
          "anonymous": false,
          "inputs": [
            {
              "indexed": true,
              "internalType": "address",
              "name": "account",
              "type": "address"
            },
            {
              "indexed": false,
              "internalType": "uint256",
              "name": "debtRepaid",
              "type": "uint256"
            },
            {
              "indexed": false,
              "internalType": "uint256",
              "name": "debtRemaining",
              "type": "uint256"
            },
            {
              "indexed": false,
              "internalType": "uint256",
              "name": "collateral",
              "type": "uint256"
            }
          ],
          "name": "Repay",
          "type": "event"
        },
        {
          "anonymous": false,
          "inputs": [
            {
              "indexed": true,
              "internalType": "address",
              "name": "account",
              "type": "address"
            },
            {
              "indexed": false,
              "internalType": "uint256",
              "name": "amount",
              "type": "uint256"
            }
          ],
          "name": "Withdraw",
          "type": "event"
        },
        {
          "inputs": [],
          "name": "SCALING_FACTOR",
          "outputs": [
            {
              "internalType": "uint256",
              "name": "",
              "type": "uint256"
            }
          ],
          "stateMutability": "view",
          "type": "function"
        },
        {
          "inputs": [],
          "name": "SECONDS_IN_YEAR",
          "outputs": [
            {
              "internalType": "int128",
              "name": "",
              "type": "int128"
            }
          ],
          "stateMutability": "view",
          "type": "function"
        },
        {
          "inputs": [
            {
              "internalType": "uint256",
              "name": "_amount",
              "type": "uint256"
            }
          ],
          "name": "borrow",
          "outputs": [],
          "stateMutability": "nonpayable",
          "type": "function"
        },
        {
          "inputs": [],
          "name": "borrowThreshold",
          "outputs": [
            {
              "internalType": "uint256",
              "name": "",
              "type": "uint256"
            }
          ],
          "stateMutability": "view",
          "type": "function"
        },
        {
          "inputs": [
            {
              "internalType": "address",
              "name": "_account",
              "type": "address"
            }
          ],
          "name": "calcInterest",
          "outputs": [
            {
              "internalType": "uint256",
              "name": "interest",
              "type": "uint256"
            }
          ],
          "stateMutability": "view",
          "type": "function"
        },
        {
          "inputs": [
            {
              "internalType": "uint256",
              "name": "_amount",
              "type": "uint256"
            }
          ],
          "name": "deposit",
          "outputs": [],
          "stateMutability": "nonpayable",
          "type": "function"
        },
        {
          "inputs": [
            {
              "internalType": "address",
              "name": "_account",
              "type": "address"
            }
          ],
          "name": "getCurrentCollateralRatio",
          "outputs": [
            {
              "internalType": "uint256",
              "name": "",
              "type": "uint256"
            }
          ],
          "stateMutability": "view",
          "type": "function"
        },
        {
          "inputs": [
            {
              "internalType": "address",
              "name": "_account",
              "type": "address"
            },
            {
              "internalType": "uint256",
              "name": "_totalDebt",
              "type": "uint256"
            }
          ],
          "name": "getForwardCollateralRatio",
          "outputs": [
            {
              "internalType": "uint256",
              "name": "",
              "type": "uint256"
            }
          ],
          "stateMutability": "view",
          "type": "function"
        },
        {
          "inputs": [],
          "name": "interestRate",
          "outputs": [
            {
              "internalType": "uint256",
              "name": "",
              "type": "uint256"
            }
          ],
          "stateMutability": "view",
          "type": "function"
        },
        {
          "inputs": [
            {
              "internalType": "address",
              "name": "_account",
              "type": "address"
            }
          ],
          "name": "liquidate",
          "outputs": [],
          "stateMutability": "nonpayable",
          "type": "function"
        },
        {
          "inputs": [],
          "name": "liquidationFee",
          "outputs": [
            {
              "internalType": "uint256",
              "name": "",
              "type": "uint256"
            }
          ],
          "stateMutability": "view",
          "type": "function"
        },
        {
          "inputs": [],
          "name": "liquidationThreshold",
          "outputs": [
            {
              "internalType": "uint256",
              "name": "",
              "type": "uint256"
            }
          ],
          "stateMutability": "view",
          "type": "function"
        },
        {
          "inputs": [],
          "name": "liquidatorFeeShare",
          "outputs": [
            {
              "internalType": "uint256",
              "name": "",
              "type": "uint256"
            }
          ],
          "stateMutability": "view",
          "type": "function"
        },
        {
          "inputs": [],
          "name": "owner",
          "outputs": [
            {
              "internalType": "address",
              "name": "",
              "type": "address"
            }
          ],
          "stateMutability": "view",
          "type": "function"
        },
        {
          "inputs": [],
          "name": "protocolShortfall",
          "outputs": [
            {
              "internalType": "uint256",
              "name": "",
              "type": "uint256"
            }
          ],
          "stateMutability": "view",
          "type": "function"
        },
        {
          "inputs": [],
          "name": "renounceOwnership",
          "outputs": [],
          "stateMutability": "nonpayable",
          "type": "function"
        },
        {
          "inputs": [
            {
              "internalType": "uint256",
              "name": "_amount",
              "type": "uint256"
            }
          ],
          "name": "repay",
          "outputs": [],
          "stateMutability": "nonpayable",
          "type": "function"
        },
        {
          "inputs": [
            {
              "internalType": "uint256",
              "name": "_liqTotalFee",
              "type": "uint256"
            },
            {
              "internalType": "uint256",
              "name": "_liqFeeShare",
              "type": "uint256"
            },
            {
              "internalType": "uint256",
              "name": "_interestRate",
              "type": "uint256"
            }
          ],
          "name": "setFeesAndRates",
          "outputs": [],
          "stateMutability": "nonpayable",
          "type": "function"
        },
        {
          "inputs": [
            {
              "internalType": "uint256",
              "name": "_borrowThreshold",
              "type": "uint256"
            },
            {
              "internalType": "uint256",
              "name": "_liqThreshold",
              "type": "uint256"
            }
          ],
          "name": "setThresholds",
          "outputs": [],
          "stateMutability": "nonpayable",
          "type": "function"
        },
        {
          "inputs": [
            {
              "internalType": "address",
              "name": "_newAddress",
              "type": "address"
            }
          ],
          "name": "setUSDZAddress",
          "outputs": [],
          "stateMutability": "nonpayable",
          "type": "function"
        },
        {
          "inputs": [
            {
              "internalType": "address",
              "name": "_newAddress",
              "type": "address"
            }
          ],
          "name": "setXSUSHIAddress",
          "outputs": [],
          "stateMutability": "nonpayable",
          "type": "function"
        },
        {
          "inputs": [],
          "name": "sushiRouterAddress",
          "outputs": [
            {
              "internalType": "address",
              "name": "",
              "type": "address"
            }
          ],
          "stateMutability": "view",
          "type": "function"
        },
        {
          "inputs": [
            {
              "internalType": "address",
              "name": "newOwner",
              "type": "address"
            }
          ],
          "name": "transferOwnership",
          "outputs": [],
          "stateMutability": "nonpayable",
          "type": "function"
        },
        {
          "inputs": [],
          "name": "usdcAddress",
          "outputs": [
            {
              "internalType": "address",
              "name": "",
              "type": "address"
            }
          ],
          "stateMutability": "view",
          "type": "function"
        },
        {
          "inputs": [],
          "name": "usdzAddress",
          "outputs": [
            {
              "internalType": "address",
              "name": "",
              "type": "address"
            }
          ],
          "stateMutability": "view",
          "type": "function"
        },
        {
          "inputs": [
            {
              "internalType": "uint256",
              "name": "_amount",
              "type": "uint256"
            }
          ],
          "name": "withdraw",
          "outputs": [],
          "stateMutability": "nonpayable",
          "type": "function"
        },
        {
          "inputs": [],
          "name": "xSushiAddress",
          "outputs": [
            {
              "internalType": "address",
              "name": "",
              "type": "address"
            }
          ],
          "stateMutability": "view",
          "type": "function"
        },
        {
          "inputs": [
            {
              "internalType": "uint256",
              "name": "",
              "type": "uint256"
            }
          ],
          "name": "xSushiToUsdcPath",
          "outputs": [
            {
              "internalType": "address",
              "name": "",
              "type": "address"
            }
          ],
          "stateMutability": "view",
          "type": "function"
        }
      ],
      "evm": {
        "bytecode": {
          "linkReferences": {},
          "object": "60806040523480156200001157600080fd5b5060405162003c6a38038062003c6a83398181016040528101906200003791906200050e565b6000620000496200040660201b60201c565b9050806000806101000a81548173ffffffffffffffffffffffffffffffffffffffff021916908373ffffffffffffffffffffffffffffffffffffffff1602179055508073ffffffffffffffffffffffffffffffffffffffff16600073ffffffffffffffffffffffffffffffffffffffff167f8be0079c531659141344cd1fd0a4f28419497f9722a3daafe3b4186f6b6457e060405160405180910390a35088600360006101000a81548173ffffffffffffffffffffffffffffffffffffffff021916908373ffffffffffffffffffffffffffffffffffffffff16021790555087600460006101000a81548173ffffffffffffffffffffffffffffffffffffffff021916908373ffffffffffffffffffffffffffffffffffffffff16021790555086600560006101000a81548173ffffffffffffffffffffffffffffffffffffffff021916908373ffffffffffffffffffffffffffffffffffffffff16021790555085600660006101000a81548173ffffffffffffffffffffffffffffffffffffffff021916908373ffffffffffffffffffffffffffffffffffffffff160217905550846008819055508360098190555082600a8190555081600b8190555080600c81905550600267ffffffffffffffff81111562000250577f4e487b7100000000000000000000000000000000000000000000000000000000600052604160045260246000fd5b6040519080825280602002602001820160405280156200027f5781602001602082028036833780820191505090505b50600790805190602001906200029792919062000432565b50866007600081548110620002d5577f4e487b7100000000000000000000000000000000000000000000000000000000600052603260045260246000fd5b9060005260206000200160006101000a81548173ffffffffffffffffffffffffffffffffffffffff021916908373ffffffffffffffffffffffffffffffffffffffff1602179055508760076001815481106200035a577f4e487b7100000000000000000000000000000000000000000000000000000000600052603260045260246000fd5b9060005260206000200160006101000a81548173ffffffffffffffffffffffffffffffffffffffff021916908373ffffffffffffffffffffffffffffffffffffffff160217905550620003bc6301e185586200040e60201b620017e91760201c565b600d60006101000a8154816fffffffffffffffffffffffffffffffff0219169083600f0b6fffffffffffffffffffffffffffffffff16021790555050505050505050505062000659565b600033905090565b6000677fffffffffffffff8211156200042657600080fd5b604082901b9050919050565b828054828255906000526020600020908101928215620004ae579160200282015b82811115620004ad5782518260006101000a81548173ffffffffffffffffffffffffffffffffffffffff021916908373ffffffffffffffffffffffffffffffffffffffff1602179055509160200191906001019062000453565b5b509050620004bd9190620004c1565b5090565b5b80821115620004dc576000816000905550600101620004c2565b5090565b600081519050620004f18162000625565b92915050565b60008151905062000508816200063f565b92915050565b60008060008060008060008060006101208a8c0312156200052e57600080fd5b60006200053e8c828d01620004e0565b9950506020620005518c828d01620004e0565b9850506040620005648c828d01620004e0565b9750506060620005778c828d01620004e0565b96505060806200058a8c828d01620004f7565b95505060a06200059d8c828d01620004f7565b94505060c0620005b08c828d01620004f7565b93505060e0620005c38c828d01620004f7565b925050610100620005d78c828d01620004f7565b9150509295985092959850929598565b6000620005f482620005fb565b9050919050565b600073ffffffffffffffffffffffffffffffffffffffff82169050919050565b6000819050919050565b6200063081620005e7565b81146200063c57600080fd5b50565b6200064a816200061b565b81146200065657600080fd5b50565b61360180620006696000396000f3fe608060405234801561001057600080fd5b50600436106101c45760003560e01c80637c3a00fd116100f9578063bdfccad311610097578063daf5539e11610071578063daf5539e146104ab578063e3064a77146104db578063ef4cadc5146104f7578063f2fde38b14610515576101c4565b8063bdfccad314610455578063bfaf48d414610473578063c5ebeaec1461048f576101c4565b80638f6ba29a116100d35780638f6ba29a146103e1578063a36a3630146103fd578063af1f556f1461041b578063b6b55f2514610439576101c4565b80637c3a00fd146103895780638456b755146103a75780638da5cb5b146103c3576101c4565b8063540548081161016657806369cb89c71161014057806369cb89c7146103015780637046b7a914610331578063715018a61461036157806379bbce8f1461036b576101c4565b806354054808146102a75780635ae547e3146102c55780635dcc9391146102e3576101c4565b80632f865568116101a25780632f86556814610221578063371fd8e61461023d5780634031234c146102595780634a63a5ce14610277576101c4565b806302d45457146101c957806320bdf800146101e75780632e1a7d4d14610205575b600080fd5b6101d1610531565b6040516101de9190612f48565b60405180910390f35b6101ef610557565b6040516101fc9190612f48565b60405180910390f35b61021f600480360381019061021a9190612974565b61057d565b005b61023b600480360381019061023691906128a5565b610932565b005b61025760048036038101906102529190612974565b6109a0565b005b6102616109f6565b60405161026e91906131f5565b60405180910390f35b610291600480360381019061028c9190612974565b6109fc565b60405161029e9190612f48565b60405180910390f35b6102af610a3b565b6040516102bc91906131f5565b60405180910390f35b6102cd610a41565b6040516102da91906131f5565b60405180910390f35b6102eb610a47565b6040516102f89190612fc3565b60405180910390f35b61031b600480360381019061031691906128a5565b610a5a565b60405161032891906131f5565b60405180910390f35b61034b600480360381019061034691906128ce565b610cc9565b60405161035891906131f5565b60405180910390f35b610369610cdd565b005b610373610e17565b6040516103809190612f48565b60405180910390f35b610391610e3d565b60405161039e91906131f5565b60405180910390f35b6103c160048036038101906103bc91906128a5565b610e43565b005b6103cb610f73565b6040516103d89190612f48565b60405180910390f35b6103fb60048036038101906103f691906128a5565b610f9c565b005b6104056110cc565b60405161041291906131f5565b60405180910390f35b6104236110d2565b60405161043091906131f5565b60405180910390f35b610453600480360381019061044e9190612974565b6110d8565b005b61045d6112b9565b60405161046a9190612f48565b60405180910390f35b61048d600480360381019061048891906129d9565b6112df565b005b6104a960048036038101906104a49190612974565b611477565b005b6104c560048036038101906104c091906128a5565b6114cd565b6040516104d291906131f5565b60405180910390f35b6104f560048036038101906104f0919061299d565b611522565b005b6104ff61163a565b60405161050c91906131f5565b60405180910390f35b61052f600480360381019061052a91906128a5565b611640565b005b600460009054906101000a900473ffffffffffffffffffffffffffffffffffffffff1681565b600360009054906101000a900473ffffffffffffffffffffffffffffffffffffffff1681565b6000600160003373ffffffffffffffffffffffffffffffffffffffff1673ffffffffffffffffffffffffffffffffffffffff16815260200190815260200160002060000154905081811015610607576040517f08c379a00000000000000000000000000000000000000000000000000000000081526004016105fe906131d5565b60405180910390fd5b600061061233610a5a565b905080600160003373ffffffffffffffffffffffffffffffffffffffff1673ffffffffffffffffffffffffffffffffffffffff16815260200190815260200160002060010160008282546106669190613323565b9250508190555042600160003373ffffffffffffffffffffffffffffffffffffffff1673ffffffffffffffffffffffffffffffffffffffff1681526020019081526020016000206002018190555060006106bf336114cd565b9050600b548111610705576040517f08c379a00000000000000000000000000000000000000000000000000000000081526004016106fc906130d5565b60405180910390fd5b6000837fffffffffffffffffffffffffffffffffffffffffffffffffffffffffffffffff612710600b546107399190613379565b846107449190613404565b61074e9190613379565b61075891906133aa565b90508481101561079d576040517f08c379a000000000000000000000000000000000000000000000000000000000815260040161079490613055565b60405180910390fd5b84846107a99190613404565b600160003373ffffffffffffffffffffffffffffffffffffffff1673ffffffffffffffffffffffffffffffffffffffff16815260200190815260200160002060000181905550600560009054906101000a900473ffffffffffffffffffffffffffffffffffffffff1673ffffffffffffffffffffffffffffffffffffffff1663a9059cbb33876040518363ffffffff1660e01b815260040161084c929190612f9a565b602060405180830381600087803b15801561086657600080fd5b505af115801561087a573d6000803e3d6000fd5b505050506040513d601f19601f8201168201806040525081019061089e919061294b565b6108dd576040517f08c379a00000000000000000000000000000000000000000000000000000000081526004016108d490613075565b60405180910390fd5b3373ffffffffffffffffffffffffffffffffffffffff167f884edad9ce6fa2440d8a54cc123490eb96d2768479d49ff9c7366125a94243648660405161092391906131f5565b60405180910390a25050505050565b3373ffffffffffffffffffffffffffffffffffffffff168173ffffffffffffffffffffffffffffffffffffffff167f5a821a618ddb1a1fd304234a69c9d7f20c129d122fcf35593d13a07192664307600080600060405161099593929190612fde565b60405180910390a350565b3373ffffffffffffffffffffffffffffffffffffffff167f2fe77b1c99aca6b022b8efc6e3e8dd1b48b30748709339b65c50ef3263443e09826000806040516109eb93929190613240565b60405180910390a250565b600c5481565b60078181548110610a0c57600080fd5b906000526020600020016000915054906101000a900473ffffffffffffffffffffffffffffffffffffffff1681565b60095481565b600b5481565b600d60009054906101000a9004600f0b81565b600080600160008473ffffffffffffffffffffffffffffffffffffffff1673ffffffffffffffffffffffffffffffffffffffff168152602001908152602001600020600101541480610aee57506000600160008473ffffffffffffffffffffffffffffffffffffffff1673ffffffffffffffffffffffffffffffffffffffff16815260200190815260200160002060020154145b80610afb57506000600a54145b80610b475750600160008373ffffffffffffffffffffffffffffffffffffffff1673ffffffffffffffffffffffffffffffffffffffff1681526020019081526020016000206002015442145b15610b555760009050610cc4565b6000600160008473ffffffffffffffffffffffffffffffffffffffff1673ffffffffffffffffffffffffffffffffffffffff1681526020019081526020016000206002015442610ba59190613404565b90506000610bca610bb5836117e9565b600d60009054906101000a9004600f0b61180c565b90506000610bec610bdc600a546117e9565b610be76127106117e9565b61180c565b90506000610c3b600160008873ffffffffffffffffffffffffffffffffffffffff1673ffffffffffffffffffffffffffffffffffffffff168152602001908152602001600020600101546117e9565b90506000610c62610c5d83610c58610c5387896118bc565b611927565b6118bc565b6119a0565b9050600160008873ffffffffffffffffffffffffffffffffffffffff1673ffffffffffffffffffffffffffffffffffffffff168152602001908152602001600020600101548167ffffffffffffffff16610cbc9190613404565b955050505050505b919050565b6000610cd583836119c1565b905092915050565b610ce5611bb3565b73ffffffffffffffffffffffffffffffffffffffff16610d03610f73565b73ffffffffffffffffffffffffffffffffffffffff1614610d59576040517f08c379a0000000000000000000000000000000000000000000000000000000008152600401610d5090613115565b60405180910390fd5b600073ffffffffffffffffffffffffffffffffffffffff1660008054906101000a900473ffffffffffffffffffffffffffffffffffffffff1673ffffffffffffffffffffffffffffffffffffffff167f8be0079c531659141344cd1fd0a4f28419497f9722a3daafe3b4186f6b6457e060405160405180910390a360008060006101000a81548173ffffffffffffffffffffffffffffffffffffffff021916908373ffffffffffffffffffffffffffffffffffffffff160217905550565b600660009054906101000a900473ffffffffffffffffffffffffffffffffffffffff1681565b600a5481565b610e4b611bb3565b73ffffffffffffffffffffffffffffffffffffffff16610e69610f73565b73ffffffffffffffffffffffffffffffffffffffff1614610ebf576040517f08c379a0000000000000000000000000000000000000000000000000000000008152600401610eb690613115565b60405180910390fd5b600073ffffffffffffffffffffffffffffffffffffffff168173ffffffffffffffffffffffffffffffffffffffff161415610f2f576040517f08c379a0000000000000000000000000000000000000000000000000000000008152600401610f2690613095565b60405180910390fd5b80600560006101000a81548173ffffffffffffffffffffffffffffffffffffffff021916908373ffffffffffffffffffffffffffffffffffffffff16021790555050565b60008060009054906101000a900473ffffffffffffffffffffffffffffffffffffffff16905090565b610fa4611bb3565b73ffffffffffffffffffffffffffffffffffffffff16610fc2610f73565b73ffffffffffffffffffffffffffffffffffffffff1614611018576040517f08c379a000000000000000000000000000000000000000000000000000000000815260040161100f90613115565b60405180910390fd5b600073ffffffffffffffffffffffffffffffffffffffff168173ffffffffffffffffffffffffffffffffffffffff161415611088576040517f08c379a000000000000000000000000000000000000000000000000000000000815260040161107f906130f5565b60405180910390fd5b80600360006101000a81548173ffffffffffffffffffffffffffffffffffffffff021916908373ffffffffffffffffffffffffffffffffffffffff16021790555050565b60085481565b60025481565b6000600560009054906101000a900473ffffffffffffffffffffffffffffffffffffffff1690508073ffffffffffffffffffffffffffffffffffffffff166323b872dd3330856040518463ffffffff1660e01b815260040161113c93929190612f63565b602060405180830381600087803b15801561115657600080fd5b505af115801561116a573d6000803e3d6000fd5b505050506040513d601f19601f8201168201806040525081019061118e919061294b565b6111cd576040517f08c379a00000000000000000000000000000000000000000000000000000000081526004016111c490613175565b60405180910390fd5b6000600160003373ffffffffffffffffffffffffffffffffffffffff1673ffffffffffffffffffffffffffffffffffffffff16815260200190815260200160002060000154905082816112209190613323565b600160003373ffffffffffffffffffffffffffffffffffffffff1673ffffffffffffffffffffffffffffffffffffffff168152602001908152602001600020600001819055503373ffffffffffffffffffffffffffffffffffffffff167fe1fffcc4923d04b559f4d29a8bfc6cda04eb5b0d3c460751c2402c5c5cc9109c846040516112ac91906131f5565b60405180910390a2505050565b600560009054906101000a900473ffffffffffffffffffffffffffffffffffffffff1681565b6112e7611bb3565b73ffffffffffffffffffffffffffffffffffffffff16611305610f73565b73ffffffffffffffffffffffffffffffffffffffff161461135b576040517f08c379a000000000000000000000000000000000000000000000000000000000815260040161135290613115565b60405180910390fd5b612710831115801561136e575060008310155b6113ad576040517f08c379a00000000000000000000000000000000000000000000000000000000081526004016113a490613135565b60405180910390fd5b61271082111580156113c0575060008210155b80156113cc5750828211155b61140b576040517f08c379a000000000000000000000000000000000000000000000000000000000815260040161140290613035565b60405180910390fd5b8260088190555081600981905550612710811115801561142c575060008110155b61146b576040517f08c379a000000000000000000000000000000000000000000000000000000000815260040161146290613195565b60405180910390fd5b80600a81905550505050565b3373ffffffffffffffffffffffffffffffffffffffff167f13ed6866d4e1ee6da46f845c46d7e54120883d75c5ea9a2dacc1c4ca8984ab80826000806040516114c293929190613240565b60405180910390a250565b600061151b82600160008573ffffffffffffffffffffffffffffffffffffffff1673ffffffffffffffffffffffffffffffffffffffff168152602001908152602001600020600101546119c1565b9050919050565b61152a611bb3565b73ffffffffffffffffffffffffffffffffffffffff16611548610f73565b73ffffffffffffffffffffffffffffffffffffffff161461159e576040517f08c379a000000000000000000000000000000000000000000000000000000000815260040161159590613115565b60405180910390fd5b6127108210156115e3576040517f08c379a00000000000000000000000000000000000000000000000000000000081526004016115da906130b5565b60405180910390fd5b612710811015611628576040517f08c379a000000000000000000000000000000000000000000000000000000000815260040161161f906131b5565b60405180910390fd5b81600b8190555080600c819055505050565b61271081565b611648611bb3565b73ffffffffffffffffffffffffffffffffffffffff16611666610f73565b73ffffffffffffffffffffffffffffffffffffffff16146116bc576040517f08c379a00000000000000000000000000000000000000000000000000000000081526004016116b390613115565b60405180910390fd5b600073ffffffffffffffffffffffffffffffffffffffff168173ffffffffffffffffffffffffffffffffffffffff16141561172c576040517f08c379a000000000000000000000000000000000000000000000000000000000815260040161172390613015565b60405180910390fd5b8073ffffffffffffffffffffffffffffffffffffffff1660008054906101000a900473ffffffffffffffffffffffffffffffffffffffff1673ffffffffffffffffffffffffffffffffffffffff167f8be0079c531659141344cd1fd0a4f28419497f9722a3daafe3b4186f6b6457e060405160405180910390a3806000806101000a81548173ffffffffffffffffffffffffffffffffffffffff021916908373ffffffffffffffffffffffffffffffffffffffff16021790555050565b6000677fffffffffffffff82111561180057600080fd5b604082901b9050919050565b60008082600f0b141561181e57600080fd5b600082600f0b604085600f0b901b81611860577f4e487b7100000000000000000000000000000000000000000000000000000000600052601260045260246000fd5b0590507fffffffffffffffffffffffffffffffff80000000000000000000000000000000600f0b81121580156118a957506f7fffffffffffffffffffffffffffffff600f0b8113155b6118b257600080fd5b8091505092915050565b600080604083600f0b85600f0b02901d90507fffffffffffffffffffffffffffffffff80000000000000000000000000000000600f0b811215801561191457506f7fffffffffffffffffffffffffffffff600f0b8113155b61191d57600080fd5b8091505092915050565b60006840000000000000000082600f0b1261194157600080fd5b7fffffffffffffffffffffffffffffffffffffffffffffffc0000000000000000082600f0b1215611975576000905061199b565b6119986080700171547652b82fe1777d0ffda0d23a7d1284600f0b02901d611bbb565b90505b919050565b60008082600f0b12156119b257600080fd5b604082600f0b901d9050919050565b600080600160008573ffffffffffffffffffffffffffffffffffffffff1673ffffffffffffffffffffffffffffffffffffffff1681526020019081526020016000206000015490506000811415611a1c576000915050611bad565b6000831415611a4e577fffffffffffffffffffffffffffffffffffffffffffffffffffffffffffffffff915050611bad565b60008111611a91576040517f08c379a0000000000000000000000000000000000000000000000000000000008152600401611a8890613155565b60405180910390fd5b6000600660009054906101000a900473ffffffffffffffffffffffffffffffffffffffff16905060008173ffffffffffffffffffffffffffffffffffffffff1663d06ca61f8460076040518363ffffffff1660e01b8152600401611af6929190613210565b60006040518083038186803b158015611b0e57600080fd5b505afa158015611b22573d6000803e3d6000fd5b505050506040513d6000823e3d601f19601f82011682018060405250810190611b4b919061290a565b600181518110611b84577f4e487b7100000000000000000000000000000000000000000000000000000000600052603260045260246000fd5b602002602001015190508461271082611b9d91906133aa565b611ba79190613379565b93505050505b92915050565b600033905090565b60006840000000000000000082600f0b12611bd557600080fd5b7fffffffffffffffffffffffffffffffffffffffffffffffc0000000000000000082600f0b1215611c0957600090506127b6565b60006f80000000000000000000000000000000905060006780000000000000008416600f0b1315611c4f57608070016a09e667f3bcc908b2fb1366ea957d3e8202901c90505b60006740000000000000008416600f0b1315611c805760807001306fe0a31b7152de8d5a46305c85edec8202901c90505b60006720000000000000008416600f0b1315611cb15760807001172b83c7d517adcdf7c8c50eb14a791f8202901c90505b60006710000000000000008416600f0b1315611ce257608070010b5586cf9890f6298b92b71842a983638202901c90505b60006708000000000000008416600f0b1315611d135760807001059b0d31585743ae7c548eb68ca417fd8202901c90505b60006704000000000000008416600f0b1315611d44576080700102c9a3e778060ee6f7caca4f7a29bde88202901c90505b60006702000000000000008416600f0b1315611d7557608070010163da9fb33356d84a66ae336dcdfa3f8202901c90505b60006701000000000000008416600f0b1315611da6576080700100b1afa5abcbed6129ab13ec11dc95438202901c90505b600066800000000000008416600f0b1315611dd657608070010058c86da1c09ea1ff19d294cf2f679b8202901c90505b600066400000000000008416600f0b1315611e065760807001002c605e2e8cec506d21bfc89a23a00f8202901c90505b600066200000000000008416600f0b1315611e36576080700100162f3904051fa128bca9c55c31e5df8202901c90505b600066100000000000008416600f0b1315611e665760807001000b175effdc76ba38e31671ca9397258202901c90505b600066080000000000008416600f0b1315611e96576080700100058ba01fb9f96d6cacd4b180917c3d8202901c90505b600066040000000000008416600f0b1315611ec657608070010002c5cc37da9491d0985c348c68e7b38202901c90505b600066020000000000008416600f0b1315611ef65760807001000162e525ee054754457d59952920268202901c90505b600066010000000000008416600f0b1315611f2657608070010000b17255775c040618bf4a4ade83fc8202901c90505b6000658000000000008416600f0b1315611f555760807001000058b91b5bc9ae2eed81e9b7d4cfab8202901c90505b6000654000000000008416600f0b1315611f84576080700100002c5c89d5ec6ca4d7c8acc017b7c98202901c90505b6000652000000000008416600f0b1315611fb357608070010000162e43f4f831060e02d839a9d16d8202901c90505b6000651000000000008416600f0b1315611fe2576080700100000b1721bcfc99d9f890ea069117638202901c90505b6000650800000000008416600f0b131561201157608070010000058b90cf1e6d97f9ca14dbcc16288202901c90505b6000650400000000008416600f0b13156120405760807001000002c5c863b73f016468f6bac5ca2b8202901c90505b6000650200000000008416600f0b131561206f576080700100000162e430e5a18f6119e3c02282a58202901c90505b6000650100000000008416600f0b131561209e5760807001000000b1721835514b86e6d96efd1bfe8202901c90505b60006480000000008416600f0b13156120cc576080700100000058b90c0b48c6be5df846c5b2ef8202901c90505b60006440000000008416600f0b13156120fa57608070010000002c5c8601cc6b9e94213c72737a8202901c90505b60006420000000008416600f0b13156121285760807001000000162e42fff037df38aa2b219f068202901c90505b60006410000000008416600f0b131561215657608070010000000b17217fba9c739aa5819f44f98202901c90505b60006408000000008416600f0b13156121845760807001000000058b90bfcdee5acd3c1cedc8238202901c90505b60006404000000008416600f0b13156121b2576080700100000002c5c85fe31f35a6a30da1be508202901c90505b60006402000000008416600f0b13156121e057608070010000000162e42ff0999ce3541b9fffcf8202901c90505b60006401000000008416600f0b131561220e576080700100000000b17217f80f4ef5aadda455548202901c90505b600063800000008416600f0b131561223b57608070010000000058b90bfbf8479bd5a81b51ad8202901c90505b600063400000008416600f0b13156122685760807001000000002c5c85fdf84bd62ae30a74cc8202901c90505b600063200000008416600f0b1315612295576080700100000000162e42fefb2fed257559bdaa8202901c90505b600063100000008416600f0b13156122c25760807001000000000b17217f7d5a7716bba4a9ae8202901c90505b600063080000008416600f0b13156122ef576080700100000000058b90bfbe9ddbac5e109cce8202901c90505b600063040000008416600f0b131561231c57608070010000000002c5c85fdf4b15de6f17eb0d8202901c90505b600063020000008416600f0b13156123495760807001000000000162e42fefa494f1478fde058202901c90505b600063010000008416600f0b131561237657608070010000000000b17217f7d20cf927c8e94c8202901c90505b6000628000008416600f0b13156123a25760807001000000000058b90bfbe8f71cb4e4b33d8202901c90505b6000624000008416600f0b13156123ce576080700100000000002c5c85fdf477b662b269458202901c90505b6000622000008416600f0b13156123fa57608070010000000000162e42fefa3ae53369388c8202901c90505b6000621000008416600f0b1315612426576080700100000000000b17217f7d1d351a389d408202901c90505b6000620800008416600f0b131561245257608070010000000000058b90bfbe8e8b2d3d4ede8202901c90505b6000620400008416600f0b131561247e5760807001000000000002c5c85fdf4741bea6e77e8202901c90505b6000620200008416600f0b13156124aa576080700100000000000162e42fefa39fe95583c28202901c90505b6000620100008416600f0b13156124d65760807001000000000000b17217f7d1cfb72b45e18202901c90505b60006180008416600f0b1315612501576080700100000000000058b90bfbe8e7cc35c3f08202901c90505b60006140008416600f0b131561252c57608070010000000000002c5c85fdf473e242ea388202901c90505b60006120008416600f0b13156125575760807001000000000000162e42fefa39f02b772c8202901c90505b60006110008416600f0b131561258257608070010000000000000b17217f7d1cf7d83c1a8202901c90505b60006108008416600f0b13156125ad5760807001000000000000058b90bfbe8e7bdcbe2e8202901c90505b60006104008416600f0b13156125d8576080700100000000000002c5c85fdf473dea871f8202901c90505b60006102008416600f0b131561260357608070010000000000000162e42fefa39ef44d918202901c90505b60006101008416600f0b131561262e576080700100000000000000b17217f7d1cf79e9498202901c90505b600060808416600f0b131561265857608070010000000000000058b90bfbe8e7bce5448202901c90505b600060408416600f0b13156126825760807001000000000000002c5c85fdf473de6eca8202901c90505b600060208416600f0b13156126ac576080700100000000000000162e42fefa39ef366f8202901c90505b600060108416600f0b13156126d65760807001000000000000000b17217f7d1cf79afa8202901c90505b600060088416600f0b1315612700576080700100000000000000058b90bfbe8e7bcd6d8202901c90505b600060048416600f0b131561272a57608070010000000000000002c5c85fdf473de6b28202901c90505b600060028416600f0b13156127545760807001000000000000000162e42fefa39ef3588202901c90505b600060018416600f0b131561277e57608070010000000000000000b17217f7d1cf79ab8202901c90505b604083600f0b901d603f03600f0b81901c90506f7fffffffffffffffffffffffffffffff600f0b8111156127b157600080fd5b809150505b919050565b60006127ce6127c9846132a8565b613277565b905080838252602082019050828560208602820111156127ed57600080fd5b60005b8581101561281d57816128038882612890565b8452602084019350602083019250506001810190506127f0565b5050509392505050565b60008135905061283681613586565b92915050565b600082601f83011261284d57600080fd5b815161285d8482602086016127bb565b91505092915050565b6000815190506128758161359d565b92915050565b60008135905061288a816135b4565b92915050565b60008151905061289f816135b4565b92915050565b6000602082840312156128b757600080fd5b60006128c584828501612827565b91505092915050565b600080604083850312156128e157600080fd5b60006128ef85828601612827565b92505060206129008582860161287b565b9150509250929050565b60006020828403121561291c57600080fd5b600082015167ffffffffffffffff81111561293657600080fd5b6129428482850161283c565b91505092915050565b60006020828403121561295d57600080fd5b600061296b84828501612866565b91505092915050565b60006020828403121561298657600080fd5b60006129948482850161287b565b91505092915050565b600080604083850312156129b057600080fd5b60006129be8582860161287b565b92505060206129cf8582860161287b565b9150509250929050565b6000806000606084860312156129ee57600080fd5b60006129fc8682870161287b565b9350506020612a0d8682870161287b565b9250506040612a1e8682870161287b565b9150509250925092565b6000612a348383612a40565b60208301905092915050565b612a4981613458565b82525050565b612a5881613458565b82525050565b6000612a69826132e9565b612a738185613301565b9350612a7e836132d4565b8060005b83811015612ab657612a9382613566565b612a9d8882612a28565b9750612aa8836132f4565b925050600181019050612a82565b5085935050505092915050565b612acc81613476565b82525050565b612adb816134ad565b82525050565b6000612aee602683613312565b91507f4f776e61626c653a206e6577206f776e657220697320746865207a65726f206160008301527f64647265737300000000000000000000000000000000000000000000000000006020830152604082019050919050565b6000612b54601883613312565b91507f6c69714665655368617265206f7574206f662072616e676500000000000000006000830152602082019050919050565b6000612b94603083613312565b91507f7769746864726177206c657373206f6620636f6c6c61746572616c207261746960008301527f6f206265636f6d657320756e73616665000000000000000000000000000000006020830152604082019050919050565b6000612bfa601883613312565b91507f7769746864726177207472616e73666572206661696c656400000000000000006000830152602082019050919050565b6000612c3a602083613312565b91507f78535553484920636f6e7472616374206e6f74207a65726f20616464726573736000830152602082019050919050565b6000612c7a602983613312565b91507f626f72726f77207468726573686f6c64206d757374206265203e207363616c6960008301527f6e6720666163746f7200000000000000000000000000000000000000000000006020830152604082019050919050565b6000612ce0602783613312565b91507f636f6c6c61746572616c20726174696f206973203c3d20626f72726f7720746860008301527f726573686f6c64000000000000000000000000000000000000000000000000006020830152604082019050919050565b6000612d46601e83613312565b91507f7573647a20636f6e7472616374206e6f74207a65726f206164647265737300006000830152602082019050919050565b6000612d86602083613312565b91507f4f776e61626c653a2063616c6c6572206973206e6f7420746865206f776e65726000830152602082019050919050565b6000612dc6601883613312565b91507f6c6971546f74616c466565206f7574206f662072616e676500000000000000006000830152602082019050919050565b6000612e06600083613312565b9150600082019050919050565b6000612e20600e83613312565b91507f6465706f736974206661696c65640000000000000000000000000000000000006000830152602082019050919050565b6000612e60601983613312565b91507f696e74657265737452617465206f7574206f662072616e6765000000000000006000830152602082019050919050565b6000612ea0602683613312565b91507f6c6971207468726573686f6c64206d757374206265203e207363616c696e672060008301527f666163746f7200000000000000000000000000000000000000000000000000006020830152604082019050919050565b6000612f06602083613312565b91507f6e6f7420656e6f75676820636f6c6c61746572616c20696e206163636f756e746000830152602082019050919050565b612f42816134a3565b82525050565b6000602082019050612f5d6000830184612a4f565b92915050565b6000606082019050612f786000830186612a4f565b612f856020830185612a4f565b612f926040830184612f39565b949350505050565b6000604082019050612faf6000830185612a4f565b612fbc6020830184612f39565b9392505050565b6000602082019050612fd86000830184612ac3565b92915050565b6000606082019050612ff36000830186612ad2565b6130006020830185612ad2565b61300d6040830184612ad2565b949350505050565b6000602082019050818103600083015261302e81612ae1565b9050919050565b6000602082019050818103600083015261304e81612b47565b9050919050565b6000602082019050818103600083015261306e81612b87565b9050919050565b6000602082019050818103600083015261308e81612bed565b9050919050565b600060208201905081810360008301526130ae81612c2d565b9050919050565b600060208201905081810360008301526130ce81612c6d565b9050919050565b600060208201905081810360008301526130ee81612cd3565b9050919050565b6000602082019050818103600083015261310e81612d39565b9050919050565b6000602082019050818103600083015261312e81612d79565b9050919050565b6000602082019050818103600083015261314e81612db9565b9050919050565b6000602082019050818103600083015261316e81612df9565b9050919050565b6000602082019050818103600083015261318e81612e13565b9050919050565b600060208201905081810360008301526131ae81612e53565b9050919050565b600060208201905081810360008301526131ce81612e93565b9050919050565b600060208201905081810360008301526131ee81612ef9565b9050919050565b600060208201905061320a6000830184612f39565b92915050565b60006040820190506132256000830185612f39565b81810360208301526132378184612a5e565b90509392505050565b60006060820190506132556000830186612f39565b6132626020830185612ad2565b61326f6040830184612ad2565b949350505050565b6000604051905081810181811067ffffffffffffffff8211171561329e5761329d613537565b5b8060405250919050565b600067ffffffffffffffff8211156132c3576132c2613537565b5b602082029050602081019050919050565b60008190508160005260206000209050919050565b600081549050919050565b6000600182019050919050565b600082825260208201905092915050565b600082825260208201905092915050565b600061332e826134a3565b9150613339836134a3565b9250827fffffffffffffffffffffffffffffffffffffffffffffffffffffffffffffffff0382111561336e5761336d6134d9565b5b828201905092915050565b6000613384826134a3565b915061338f836134a3565b92508261339f5761339e613508565b5b828204905092915050565b60006133b5826134a3565b91506133c0836134a3565b9250817fffffffffffffffffffffffffffffffffffffffffffffffffffffffffffffffff04831182151516156133f9576133f86134d9565b5b828202905092915050565b600061340f826134a3565b915061341a836134a3565b92508282101561342d5761342c6134d9565b5b828203905092915050565b600073ffffffffffffffffffffffffffffffffffffffff82169050919050565b600061346382613483565b9050919050565b60008115159050919050565b600081600f0b9050919050565b600073ffffffffffffffffffffffffffffffffffffffff82169050919050565b6000819050919050565b60006134b8826134a3565b9050919050565b60006134d26134cd83613579565b613438565b9050919050565b7f4e487b7100000000000000000000000000000000000000000000000000000000600052601160045260246000fd5b7f4e487b7100000000000000000000000000000000000000000000000000000000600052601260045260246000fd5b7f4e487b7100000000000000000000000000000000000000000000000000000000600052604160045260246000fd5b600061357282546134bf565b9050919050565b60008160001c9050919050565b61358f81613458565b811461359a57600080fd5b50565b6135a68161346a565b81146135b157600080fd5b50565b6135bd816134a3565b81146135c857600080fd5b5056fea264697066735822122074739827cdb144f65a20018ac350ec8b57595fac3aa98067829310ecbf68c49e64736f6c63430008000033",
          "opcodes": "PUSH1 0x80 PUSH1 0x40 MSTORE CALLVALUE DUP1 ISZERO PUSH3 0x11 JUMPI PUSH1 0x0 DUP1 REVERT JUMPDEST POP PUSH1 0x40 MLOAD PUSH3 0x3C6A CODESIZE SUB DUP1 PUSH3 0x3C6A DUP4 CODECOPY DUP2 DUP2 ADD PUSH1 0x40 MSTORE DUP2 ADD SWAP1 PUSH3 0x37 SWAP2 SWAP1 PUSH3 0x50E JUMP JUMPDEST PUSH1 0x0 PUSH3 0x49 PUSH3 0x406 PUSH1 0x20 SHL PUSH1 0x20 SHR JUMP JUMPDEST SWAP1 POP DUP1 PUSH1 0x0 DUP1 PUSH2 0x100 EXP DUP2 SLOAD DUP2 PUSH20 0xFFFFFFFFFFFFFFFFFFFFFFFFFFFFFFFFFFFFFFFF MUL NOT AND SWAP1 DUP4 PUSH20 0xFFFFFFFFFFFFFFFFFFFFFFFFFFFFFFFFFFFFFFFF AND MUL OR SWAP1 SSTORE POP DUP1 PUSH20 0xFFFFFFFFFFFFFFFFFFFFFFFFFFFFFFFFFFFFFFFF AND PUSH1 0x0 PUSH20 0xFFFFFFFFFFFFFFFFFFFFFFFFFFFFFFFFFFFFFFFF AND PUSH32 0x8BE0079C531659141344CD1FD0A4F28419497F9722A3DAAFE3B4186F6B6457E0 PUSH1 0x40 MLOAD PUSH1 0x40 MLOAD DUP1 SWAP2 SUB SWAP1 LOG3 POP DUP9 PUSH1 0x3 PUSH1 0x0 PUSH2 0x100 EXP DUP2 SLOAD DUP2 PUSH20 0xFFFFFFFFFFFFFFFFFFFFFFFFFFFFFFFFFFFFFFFF MUL NOT AND SWAP1 DUP4 PUSH20 0xFFFFFFFFFFFFFFFFFFFFFFFFFFFFFFFFFFFFFFFF AND MUL OR SWAP1 SSTORE POP DUP8 PUSH1 0x4 PUSH1 0x0 PUSH2 0x100 EXP DUP2 SLOAD DUP2 PUSH20 0xFFFFFFFFFFFFFFFFFFFFFFFFFFFFFFFFFFFFFFFF MUL NOT AND SWAP1 DUP4 PUSH20 0xFFFFFFFFFFFFFFFFFFFFFFFFFFFFFFFFFFFFFFFF AND MUL OR SWAP1 SSTORE POP DUP7 PUSH1 0x5 PUSH1 0x0 PUSH2 0x100 EXP DUP2 SLOAD DUP2 PUSH20 0xFFFFFFFFFFFFFFFFFFFFFFFFFFFFFFFFFFFFFFFF MUL NOT AND SWAP1 DUP4 PUSH20 0xFFFFFFFFFFFFFFFFFFFFFFFFFFFFFFFFFFFFFFFF AND MUL OR SWAP1 SSTORE POP DUP6 PUSH1 0x6 PUSH1 0x0 PUSH2 0x100 EXP DUP2 SLOAD DUP2 PUSH20 0xFFFFFFFFFFFFFFFFFFFFFFFFFFFFFFFFFFFFFFFF MUL NOT AND SWAP1 DUP4 PUSH20 0xFFFFFFFFFFFFFFFFFFFFFFFFFFFFFFFFFFFFFFFF AND MUL OR SWAP1 SSTORE POP DUP5 PUSH1 0x8 DUP2 SWAP1 SSTORE POP DUP4 PUSH1 0x9 DUP2 SWAP1 SSTORE POP DUP3 PUSH1 0xA DUP2 SWAP1 SSTORE POP DUP2 PUSH1 0xB DUP2 SWAP1 SSTORE POP DUP1 PUSH1 0xC DUP2 SWAP1 SSTORE POP PUSH1 0x2 PUSH8 0xFFFFFFFFFFFFFFFF DUP2 GT ISZERO PUSH3 0x250 JUMPI PUSH32 0x4E487B7100000000000000000000000000000000000000000000000000000000 PUSH1 0x0 MSTORE PUSH1 0x41 PUSH1 0x4 MSTORE PUSH1 0x24 PUSH1 0x0 REVERT JUMPDEST PUSH1 0x40 MLOAD SWAP1 DUP1 DUP3 MSTORE DUP1 PUSH1 0x20 MUL PUSH1 0x20 ADD DUP3 ADD PUSH1 0x40 MSTORE DUP1 ISZERO PUSH3 0x27F JUMPI DUP2 PUSH1 0x20 ADD PUSH1 0x20 DUP3 MUL DUP1 CALLDATASIZE DUP4 CALLDATACOPY DUP1 DUP3 ADD SWAP2 POP POP SWAP1 POP JUMPDEST POP PUSH1 0x7 SWAP1 DUP1 MLOAD SWAP1 PUSH1 0x20 ADD SWAP1 PUSH3 0x297 SWAP3 SWAP2 SWAP1 PUSH3 0x432 JUMP JUMPDEST POP DUP7 PUSH1 0x7 PUSH1 0x0 DUP2 SLOAD DUP2 LT PUSH3 0x2D5 JUMPI PUSH32 0x4E487B7100000000000000000000000000000000000000000000000000000000 PUSH1 0x0 MSTORE PUSH1 0x32 PUSH1 0x4 MSTORE PUSH1 0x24 PUSH1 0x0 REVERT JUMPDEST SWAP1 PUSH1 0x0 MSTORE PUSH1 0x20 PUSH1 0x0 KECCAK256 ADD PUSH1 0x0 PUSH2 0x100 EXP DUP2 SLOAD DUP2 PUSH20 0xFFFFFFFFFFFFFFFFFFFFFFFFFFFFFFFFFFFFFFFF MUL NOT AND SWAP1 DUP4 PUSH20 0xFFFFFFFFFFFFFFFFFFFFFFFFFFFFFFFFFFFFFFFF AND MUL OR SWAP1 SSTORE POP DUP8 PUSH1 0x7 PUSH1 0x1 DUP2 SLOAD DUP2 LT PUSH3 0x35A JUMPI PUSH32 0x4E487B7100000000000000000000000000000000000000000000000000000000 PUSH1 0x0 MSTORE PUSH1 0x32 PUSH1 0x4 MSTORE PUSH1 0x24 PUSH1 0x0 REVERT JUMPDEST SWAP1 PUSH1 0x0 MSTORE PUSH1 0x20 PUSH1 0x0 KECCAK256 ADD PUSH1 0x0 PUSH2 0x100 EXP DUP2 SLOAD DUP2 PUSH20 0xFFFFFFFFFFFFFFFFFFFFFFFFFFFFFFFFFFFFFFFF MUL NOT AND SWAP1 DUP4 PUSH20 0xFFFFFFFFFFFFFFFFFFFFFFFFFFFFFFFFFFFFFFFF AND MUL OR SWAP1 SSTORE POP PUSH3 0x3BC PUSH4 0x1E18558 PUSH3 0x40E PUSH1 0x20 SHL PUSH3 0x17E9 OR PUSH1 0x20 SHR JUMP JUMPDEST PUSH1 0xD PUSH1 0x0 PUSH2 0x100 EXP DUP2 SLOAD DUP2 PUSH16 0xFFFFFFFFFFFFFFFFFFFFFFFFFFFFFFFF MUL NOT AND SWAP1 DUP4 PUSH1 0xF SIGNEXTEND PUSH16 0xFFFFFFFFFFFFFFFFFFFFFFFFFFFFFFFF AND MUL OR SWAP1 SSTORE POP POP POP POP POP POP POP POP POP POP PUSH3 0x659 JUMP JUMPDEST PUSH1 0x0 CALLER SWAP1 POP SWAP1 JUMP JUMPDEST PUSH1 0x0 PUSH8 0x7FFFFFFFFFFFFFFF DUP3 GT ISZERO PUSH3 0x426 JUMPI PUSH1 0x0 DUP1 REVERT JUMPDEST PUSH1 0x40 DUP3 SWAP1 SHL SWAP1 POP SWAP2 SWAP1 POP JUMP JUMPDEST DUP3 DUP1 SLOAD DUP3 DUP3 SSTORE SWAP1 PUSH1 0x0 MSTORE PUSH1 0x20 PUSH1 0x0 KECCAK256 SWAP1 DUP2 ADD SWAP3 DUP3 ISZERO PUSH3 0x4AE JUMPI SWAP2 PUSH1 0x20 MUL DUP3 ADD JUMPDEST DUP3 DUP2 GT ISZERO PUSH3 0x4AD JUMPI DUP3 MLOAD DUP3 PUSH1 0x0 PUSH2 0x100 EXP DUP2 SLOAD DUP2 PUSH20 0xFFFFFFFFFFFFFFFFFFFFFFFFFFFFFFFFFFFFFFFF MUL NOT AND SWAP1 DUP4 PUSH20 0xFFFFFFFFFFFFFFFFFFFFFFFFFFFFFFFFFFFFFFFF AND MUL OR SWAP1 SSTORE POP SWAP2 PUSH1 0x20 ADD SWAP2 SWAP1 PUSH1 0x1 ADD SWAP1 PUSH3 0x453 JUMP JUMPDEST JUMPDEST POP SWAP1 POP PUSH3 0x4BD SWAP2 SWAP1 PUSH3 0x4C1 JUMP JUMPDEST POP SWAP1 JUMP JUMPDEST JUMPDEST DUP1 DUP3 GT ISZERO PUSH3 0x4DC JUMPI PUSH1 0x0 DUP2 PUSH1 0x0 SWAP1 SSTORE POP PUSH1 0x1 ADD PUSH3 0x4C2 JUMP JUMPDEST POP SWAP1 JUMP JUMPDEST PUSH1 0x0 DUP2 MLOAD SWAP1 POP PUSH3 0x4F1 DUP2 PUSH3 0x625 JUMP JUMPDEST SWAP3 SWAP2 POP POP JUMP JUMPDEST PUSH1 0x0 DUP2 MLOAD SWAP1 POP PUSH3 0x508 DUP2 PUSH3 0x63F JUMP JUMPDEST SWAP3 SWAP2 POP POP JUMP JUMPDEST PUSH1 0x0 DUP1 PUSH1 0x0 DUP1 PUSH1 0x0 DUP1 PUSH1 0x0 DUP1 PUSH1 0x0 PUSH2 0x120 DUP11 DUP13 SUB SLT ISZERO PUSH3 0x52E JUMPI PUSH1 0x0 DUP1 REVERT JUMPDEST PUSH1 0x0 PUSH3 0x53E DUP13 DUP3 DUP14 ADD PUSH3 0x4E0 JUMP JUMPDEST SWAP10 POP POP PUSH1 0x20 PUSH3 0x551 DUP13 DUP3 DUP14 ADD PUSH3 0x4E0 JUMP JUMPDEST SWAP9 POP POP PUSH1 0x40 PUSH3 0x564 DUP13 DUP3 DUP14 ADD PUSH3 0x4E0 JUMP JUMPDEST SWAP8 POP POP PUSH1 0x60 PUSH3 0x577 DUP13 DUP3 DUP14 ADD PUSH3 0x4E0 JUMP JUMPDEST SWAP7 POP POP PUSH1 0x80 PUSH3 0x58A DUP13 DUP3 DUP14 ADD PUSH3 0x4F7 JUMP JUMPDEST SWAP6 POP POP PUSH1 0xA0 PUSH3 0x59D DUP13 DUP3 DUP14 ADD PUSH3 0x4F7 JUMP JUMPDEST SWAP5 POP POP PUSH1 0xC0 PUSH3 0x5B0 DUP13 DUP3 DUP14 ADD PUSH3 0x4F7 JUMP JUMPDEST SWAP4 POP POP PUSH1 0xE0 PUSH3 0x5C3 DUP13 DUP3 DUP14 ADD PUSH3 0x4F7 JUMP JUMPDEST SWAP3 POP POP PUSH2 0x100 PUSH3 0x5D7 DUP13 DUP3 DUP14 ADD PUSH3 0x4F7 JUMP JUMPDEST SWAP2 POP POP SWAP3 SWAP6 SWAP9 POP SWAP3 SWAP6 SWAP9 POP SWAP3 SWAP6 SWAP9 JUMP JUMPDEST PUSH1 0x0 PUSH3 0x5F4 DUP3 PUSH3 0x5FB JUMP JUMPDEST SWAP1 POP SWAP2 SWAP1 POP JUMP JUMPDEST PUSH1 0x0 PUSH20 0xFFFFFFFFFFFFFFFFFFFFFFFFFFFFFFFFFFFFFFFF DUP3 AND SWAP1 POP SWAP2 SWAP1 POP JUMP JUMPDEST PUSH1 0x0 DUP2 SWAP1 POP SWAP2 SWAP1 POP JUMP JUMPDEST PUSH3 0x630 DUP2 PUSH3 0x5E7 JUMP JUMPDEST DUP2 EQ PUSH3 0x63C JUMPI PUSH1 0x0 DUP1 REVERT JUMPDEST POP JUMP JUMPDEST PUSH3 0x64A DUP2 PUSH3 0x61B JUMP JUMPDEST DUP2 EQ PUSH3 0x656 JUMPI PUSH1 0x0 DUP1 REVERT JUMPDEST POP JUMP JUMPDEST PUSH2 0x3601 DUP1 PUSH3 0x669 PUSH1 0x0 CODECOPY PUSH1 0x0 RETURN INVALID PUSH1 0x80 PUSH1 0x40 MSTORE CALLVALUE DUP1 ISZERO PUSH2 0x10 JUMPI PUSH1 0x0 DUP1 REVERT JUMPDEST POP PUSH1 0x4 CALLDATASIZE LT PUSH2 0x1C4 JUMPI PUSH1 0x0 CALLDATALOAD PUSH1 0xE0 SHR DUP1 PUSH4 0x7C3A00FD GT PUSH2 0xF9 JUMPI DUP1 PUSH4 0xBDFCCAD3 GT PUSH2 0x97 JUMPI DUP1 PUSH4 0xDAF5539E GT PUSH2 0x71 JUMPI DUP1 PUSH4 0xDAF5539E EQ PUSH2 0x4AB JUMPI DUP1 PUSH4 0xE3064A77 EQ PUSH2 0x4DB JUMPI DUP1 PUSH4 0xEF4CADC5 EQ PUSH2 0x4F7 JUMPI DUP1 PUSH4 0xF2FDE38B EQ PUSH2 0x515 JUMPI PUSH2 0x1C4 JUMP JUMPDEST DUP1 PUSH4 0xBDFCCAD3 EQ PUSH2 0x455 JUMPI DUP1 PUSH4 0xBFAF48D4 EQ PUSH2 0x473 JUMPI DUP1 PUSH4 0xC5EBEAEC EQ PUSH2 0x48F JUMPI PUSH2 0x1C4 JUMP JUMPDEST DUP1 PUSH4 0x8F6BA29A GT PUSH2 0xD3 JUMPI DUP1 PUSH4 0x8F6BA29A EQ PUSH2 0x3E1 JUMPI DUP1 PUSH4 0xA36A3630 EQ PUSH2 0x3FD JUMPI DUP1 PUSH4 0xAF1F556F EQ PUSH2 0x41B JUMPI DUP1 PUSH4 0xB6B55F25 EQ PUSH2 0x439 JUMPI PUSH2 0x1C4 JUMP JUMPDEST DUP1 PUSH4 0x7C3A00FD EQ PUSH2 0x389 JUMPI DUP1 PUSH4 0x8456B755 EQ PUSH2 0x3A7 JUMPI DUP1 PUSH4 0x8DA5CB5B EQ PUSH2 0x3C3 JUMPI PUSH2 0x1C4 JUMP JUMPDEST DUP1 PUSH4 0x54054808 GT PUSH2 0x166 JUMPI DUP1 PUSH4 0x69CB89C7 GT PUSH2 0x140 JUMPI DUP1 PUSH4 0x69CB89C7 EQ PUSH2 0x301 JUMPI DUP1 PUSH4 0x7046B7A9 EQ PUSH2 0x331 JUMPI DUP1 PUSH4 0x715018A6 EQ PUSH2 0x361 JUMPI DUP1 PUSH4 0x79BBCE8F EQ PUSH2 0x36B JUMPI PUSH2 0x1C4 JUMP JUMPDEST DUP1 PUSH4 0x54054808 EQ PUSH2 0x2A7 JUMPI DUP1 PUSH4 0x5AE547E3 EQ PUSH2 0x2C5 JUMPI DUP1 PUSH4 0x5DCC9391 EQ PUSH2 0x2E3 JUMPI PUSH2 0x1C4 JUMP JUMPDEST DUP1 PUSH4 0x2F865568 GT PUSH2 0x1A2 JUMPI DUP1 PUSH4 0x2F865568 EQ PUSH2 0x221 JUMPI DUP1 PUSH4 0x371FD8E6 EQ PUSH2 0x23D JUMPI DUP1 PUSH4 0x4031234C EQ PUSH2 0x259 JUMPI DUP1 PUSH4 0x4A63A5CE EQ PUSH2 0x277 JUMPI PUSH2 0x1C4 JUMP JUMPDEST DUP1 PUSH4 0x2D45457 EQ PUSH2 0x1C9 JUMPI DUP1 PUSH4 0x20BDF800 EQ PUSH2 0x1E7 JUMPI DUP1 PUSH4 0x2E1A7D4D EQ PUSH2 0x205 JUMPI JUMPDEST PUSH1 0x0 DUP1 REVERT JUMPDEST PUSH2 0x1D1 PUSH2 0x531 JUMP JUMPDEST PUSH1 0x40 MLOAD PUSH2 0x1DE SWAP2 SWAP1 PUSH2 0x2F48 JUMP JUMPDEST PUSH1 0x40 MLOAD DUP1 SWAP2 SUB SWAP1 RETURN JUMPDEST PUSH2 0x1EF PUSH2 0x557 JUMP JUMPDEST PUSH1 0x40 MLOAD PUSH2 0x1FC SWAP2 SWAP1 PUSH2 0x2F48 JUMP JUMPDEST PUSH1 0x40 MLOAD DUP1 SWAP2 SUB SWAP1 RETURN JUMPDEST PUSH2 0x21F PUSH1 0x4 DUP1 CALLDATASIZE SUB DUP2 ADD SWAP1 PUSH2 0x21A SWAP2 SWAP1 PUSH2 0x2974 JUMP JUMPDEST PUSH2 0x57D JUMP JUMPDEST STOP JUMPDEST PUSH2 0x23B PUSH1 0x4 DUP1 CALLDATASIZE SUB DUP2 ADD SWAP1 PUSH2 0x236 SWAP2 SWAP1 PUSH2 0x28A5 JUMP JUMPDEST PUSH2 0x932 JUMP JUMPDEST STOP JUMPDEST PUSH2 0x257 PUSH1 0x4 DUP1 CALLDATASIZE SUB DUP2 ADD SWAP1 PUSH2 0x252 SWAP2 SWAP1 PUSH2 0x2974 JUMP JUMPDEST PUSH2 0x9A0 JUMP JUMPDEST STOP JUMPDEST PUSH2 0x261 PUSH2 0x9F6 JUMP JUMPDEST PUSH1 0x40 MLOAD PUSH2 0x26E SWAP2 SWAP1 PUSH2 0x31F5 JUMP JUMPDEST PUSH1 0x40 MLOAD DUP1 SWAP2 SUB SWAP1 RETURN JUMPDEST PUSH2 0x291 PUSH1 0x4 DUP1 CALLDATASIZE SUB DUP2 ADD SWAP1 PUSH2 0x28C SWAP2 SWAP1 PUSH2 0x2974 JUMP JUMPDEST PUSH2 0x9FC JUMP JUMPDEST PUSH1 0x40 MLOAD PUSH2 0x29E SWAP2 SWAP1 PUSH2 0x2F48 JUMP JUMPDEST PUSH1 0x40 MLOAD DUP1 SWAP2 SUB SWAP1 RETURN JUMPDEST PUSH2 0x2AF PUSH2 0xA3B JUMP JUMPDEST PUSH1 0x40 MLOAD PUSH2 0x2BC SWAP2 SWAP1 PUSH2 0x31F5 JUMP JUMPDEST PUSH1 0x40 MLOAD DUP1 SWAP2 SUB SWAP1 RETURN JUMPDEST PUSH2 0x2CD PUSH2 0xA41 JUMP JUMPDEST PUSH1 0x40 MLOAD PUSH2 0x2DA SWAP2 SWAP1 PUSH2 0x31F5 JUMP JUMPDEST PUSH1 0x40 MLOAD DUP1 SWAP2 SUB SWAP1 RETURN JUMPDEST PUSH2 0x2EB PUSH2 0xA47 JUMP JUMPDEST PUSH1 0x40 MLOAD PUSH2 0x2F8 SWAP2 SWAP1 PUSH2 0x2FC3 JUMP JUMPDEST PUSH1 0x40 MLOAD DUP1 SWAP2 SUB SWAP1 RETURN JUMPDEST PUSH2 0x31B PUSH1 0x4 DUP1 CALLDATASIZE SUB DUP2 ADD SWAP1 PUSH2 0x316 SWAP2 SWAP1 PUSH2 0x28A5 JUMP JUMPDEST PUSH2 0xA5A JUMP JUMPDEST PUSH1 0x40 MLOAD PUSH2 0x328 SWAP2 SWAP1 PUSH2 0x31F5 JUMP JUMPDEST PUSH1 0x40 MLOAD DUP1 SWAP2 SUB SWAP1 RETURN JUMPDEST PUSH2 0x34B PUSH1 0x4 DUP1 CALLDATASIZE SUB DUP2 ADD SWAP1 PUSH2 0x346 SWAP2 SWAP1 PUSH2 0x28CE JUMP JUMPDEST PUSH2 0xCC9 JUMP JUMPDEST PUSH1 0x40 MLOAD PUSH2 0x358 SWAP2 SWAP1 PUSH2 0x31F5 JUMP JUMPDEST PUSH1 0x40 MLOAD DUP1 SWAP2 SUB SWAP1 RETURN JUMPDEST PUSH2 0x369 PUSH2 0xCDD JUMP JUMPDEST STOP JUMPDEST PUSH2 0x373 PUSH2 0xE17 JUMP JUMPDEST PUSH1 0x40 MLOAD PUSH2 0x380 SWAP2 SWAP1 PUSH2 0x2F48 JUMP JUMPDEST PUSH1 0x40 MLOAD DUP1 SWAP2 SUB SWAP1 RETURN JUMPDEST PUSH2 0x391 PUSH2 0xE3D JUMP JUMPDEST PUSH1 0x40 MLOAD PUSH2 0x39E SWAP2 SWAP1 PUSH2 0x31F5 JUMP JUMPDEST PUSH1 0x40 MLOAD DUP1 SWAP2 SUB SWAP1 RETURN JUMPDEST PUSH2 0x3C1 PUSH1 0x4 DUP1 CALLDATASIZE SUB DUP2 ADD SWAP1 PUSH2 0x3BC SWAP2 SWAP1 PUSH2 0x28A5 JUMP JUMPDEST PUSH2 0xE43 JUMP JUMPDEST STOP JUMPDEST PUSH2 0x3CB PUSH2 0xF73 JUMP JUMPDEST PUSH1 0x40 MLOAD PUSH2 0x3D8 SWAP2 SWAP1 PUSH2 0x2F48 JUMP JUMPDEST PUSH1 0x40 MLOAD DUP1 SWAP2 SUB SWAP1 RETURN JUMPDEST PUSH2 0x3FB PUSH1 0x4 DUP1 CALLDATASIZE SUB DUP2 ADD SWAP1 PUSH2 0x3F6 SWAP2 SWAP1 PUSH2 0x28A5 JUMP JUMPDEST PUSH2 0xF9C JUMP JUMPDEST STOP JUMPDEST PUSH2 0x405 PUSH2 0x10CC JUMP JUMPDEST PUSH1 0x40 MLOAD PUSH2 0x412 SWAP2 SWAP1 PUSH2 0x31F5 JUMP JUMPDEST PUSH1 0x40 MLOAD DUP1 SWAP2 SUB SWAP1 RETURN JUMPDEST PUSH2 0x423 PUSH2 0x10D2 JUMP JUMPDEST PUSH1 0x40 MLOAD PUSH2 0x430 SWAP2 SWAP1 PUSH2 0x31F5 JUMP JUMPDEST PUSH1 0x40 MLOAD DUP1 SWAP2 SUB SWAP1 RETURN JUMPDEST PUSH2 0x453 PUSH1 0x4 DUP1 CALLDATASIZE SUB DUP2 ADD SWAP1 PUSH2 0x44E SWAP2 SWAP1 PUSH2 0x2974 JUMP JUMPDEST PUSH2 0x10D8 JUMP JUMPDEST STOP JUMPDEST PUSH2 0x45D PUSH2 0x12B9 JUMP JUMPDEST PUSH1 0x40 MLOAD PUSH2 0x46A SWAP2 SWAP1 PUSH2 0x2F48 JUMP JUMPDEST PUSH1 0x40 MLOAD DUP1 SWAP2 SUB SWAP1 RETURN JUMPDEST PUSH2 0x48D PUSH1 0x4 DUP1 CALLDATASIZE SUB DUP2 ADD SWAP1 PUSH2 0x488 SWAP2 SWAP1 PUSH2 0x29D9 JUMP JUMPDEST PUSH2 0x12DF JUMP JUMPDEST STOP JUMPDEST PUSH2 0x4A9 PUSH1 0x4 DUP1 CALLDATASIZE SUB DUP2 ADD SWAP1 PUSH2 0x4A4 SWAP2 SWAP1 PUSH2 0x2974 JUMP JUMPDEST PUSH2 0x1477 JUMP JUMPDEST STOP JUMPDEST PUSH2 0x4C5 PUSH1 0x4 DUP1 CALLDATASIZE SUB DUP2 ADD SWAP1 PUSH2 0x4C0 SWAP2 SWAP1 PUSH2 0x28A5 JUMP JUMPDEST PUSH2 0x14CD JUMP JUMPDEST PUSH1 0x40 MLOAD PUSH2 0x4D2 SWAP2 SWAP1 PUSH2 0x31F5 JUMP JUMPDEST PUSH1 0x40 MLOAD DUP1 SWAP2 SUB SWAP1 RETURN JUMPDEST PUSH2 0x4F5 PUSH1 0x4 DUP1 CALLDATASIZE SUB DUP2 ADD SWAP1 PUSH2 0x4F0 SWAP2 SWAP1 PUSH2 0x299D JUMP JUMPDEST PUSH2 0x1522 JUMP JUMPDEST STOP JUMPDEST PUSH2 0x4FF PUSH2 0x163A JUMP JUMPDEST PUSH1 0x40 MLOAD PUSH2 0x50C SWAP2 SWAP1 PUSH2 0x31F5 JUMP JUMPDEST PUSH1 0x40 MLOAD DUP1 SWAP2 SUB SWAP1 RETURN JUMPDEST PUSH2 0x52F PUSH1 0x4 DUP1 CALLDATASIZE SUB DUP2 ADD SWAP1 PUSH2 0x52A SWAP2 SWAP1 PUSH2 0x28A5 JUMP JUMPDEST PUSH2 0x1640 JUMP JUMPDEST STOP JUMPDEST PUSH1 0x4 PUSH1 0x0 SWAP1 SLOAD SWAP1 PUSH2 0x100 EXP SWAP1 DIV PUSH20 0xFFFFFFFFFFFFFFFFFFFFFFFFFFFFFFFFFFFFFFFF AND DUP2 JUMP JUMPDEST PUSH1 0x3 PUSH1 0x0 SWAP1 SLOAD SWAP1 PUSH2 0x100 EXP SWAP1 DIV PUSH20 0xFFFFFFFFFFFFFFFFFFFFFFFFFFFFFFFFFFFFFFFF AND DUP2 JUMP JUMPDEST PUSH1 0x0 PUSH1 0x1 PUSH1 0x0 CALLER PUSH20 0xFFFFFFFFFFFFFFFFFFFFFFFFFFFFFFFFFFFFFFFF AND PUSH20 0xFFFFFFFFFFFFFFFFFFFFFFFFFFFFFFFFFFFFFFFF AND DUP2 MSTORE PUSH1 0x20 ADD SWAP1 DUP2 MSTORE PUSH1 0x20 ADD PUSH1 0x0 KECCAK256 PUSH1 0x0 ADD SLOAD SWAP1 POP DUP2 DUP2 LT ISZERO PUSH2 0x607 JUMPI PUSH1 0x40 MLOAD PUSH32 0x8C379A000000000000000000000000000000000000000000000000000000000 DUP2 MSTORE PUSH1 0x4 ADD PUSH2 0x5FE SWAP1 PUSH2 0x31D5 JUMP JUMPDEST PUSH1 0x40 MLOAD DUP1 SWAP2 SUB SWAP1 REVERT JUMPDEST PUSH1 0x0 PUSH2 0x612 CALLER PUSH2 0xA5A JUMP JUMPDEST SWAP1 POP DUP1 PUSH1 0x1 PUSH1 0x0 CALLER PUSH20 0xFFFFFFFFFFFFFFFFFFFFFFFFFFFFFFFFFFFFFFFF AND PUSH20 0xFFFFFFFFFFFFFFFFFFFFFFFFFFFFFFFFFFFFFFFF AND DUP2 MSTORE PUSH1 0x20 ADD SWAP1 DUP2 MSTORE PUSH1 0x20 ADD PUSH1 0x0 KECCAK256 PUSH1 0x1 ADD PUSH1 0x0 DUP3 DUP3 SLOAD PUSH2 0x666 SWAP2 SWAP1 PUSH2 0x3323 JUMP JUMPDEST SWAP3 POP POP DUP2 SWAP1 SSTORE POP TIMESTAMP PUSH1 0x1 PUSH1 0x0 CALLER PUSH20 0xFFFFFFFFFFFFFFFFFFFFFFFFFFFFFFFFFFFFFFFF AND PUSH20 0xFFFFFFFFFFFFFFFFFFFFFFFFFFFFFFFFFFFFFFFF AND DUP2 MSTORE PUSH1 0x20 ADD SWAP1 DUP2 MSTORE PUSH1 0x20 ADD PUSH1 0x0 KECCAK256 PUSH1 0x2 ADD DUP2 SWAP1 SSTORE POP PUSH1 0x0 PUSH2 0x6BF CALLER PUSH2 0x14CD JUMP JUMPDEST SWAP1 POP PUSH1 0xB SLOAD DUP2 GT PUSH2 0x705 JUMPI PUSH1 0x40 MLOAD PUSH32 0x8C379A000000000000000000000000000000000000000000000000000000000 DUP2 MSTORE PUSH1 0x4 ADD PUSH2 0x6FC SWAP1 PUSH2 0x30D5 JUMP JUMPDEST PUSH1 0x40 MLOAD DUP1 SWAP2 SUB SWAP1 REVERT JUMPDEST PUSH1 0x0 DUP4 PUSH32 0xFFFFFFFFFFFFFFFFFFFFFFFFFFFFFFFFFFFFFFFFFFFFFFFFFFFFFFFFFFFFFFFF PUSH2 0x2710 PUSH1 0xB SLOAD PUSH2 0x739 SWAP2 SWAP1 PUSH2 0x3379 JUMP JUMPDEST DUP5 PUSH2 0x744 SWAP2 SWAP1 PUSH2 0x3404 JUMP JUMPDEST PUSH2 0x74E SWAP2 SWAP1 PUSH2 0x3379 JUMP JUMPDEST PUSH2 0x758 SWAP2 SWAP1 PUSH2 0x33AA JUMP JUMPDEST SWAP1 POP DUP5 DUP2 LT ISZERO PUSH2 0x79D JUMPI PUSH1 0x40 MLOAD PUSH32 0x8C379A000000000000000000000000000000000000000000000000000000000 DUP2 MSTORE PUSH1 0x4 ADD PUSH2 0x794 SWAP1 PUSH2 0x3055 JUMP JUMPDEST PUSH1 0x40 MLOAD DUP1 SWAP2 SUB SWAP1 REVERT JUMPDEST DUP5 DUP5 PUSH2 0x7A9 SWAP2 SWAP1 PUSH2 0x3404 JUMP JUMPDEST PUSH1 0x1 PUSH1 0x0 CALLER PUSH20 0xFFFFFFFFFFFFFFFFFFFFFFFFFFFFFFFFFFFFFFFF AND PUSH20 0xFFFFFFFFFFFFFFFFFFFFFFFFFFFFFFFFFFFFFFFF AND DUP2 MSTORE PUSH1 0x20 ADD SWAP1 DUP2 MSTORE PUSH1 0x20 ADD PUSH1 0x0 KECCAK256 PUSH1 0x0 ADD DUP2 SWAP1 SSTORE POP PUSH1 0x5 PUSH1 0x0 SWAP1 SLOAD SWAP1 PUSH2 0x100 EXP SWAP1 DIV PUSH20 0xFFFFFFFFFFFFFFFFFFFFFFFFFFFFFFFFFFFFFFFF AND PUSH20 0xFFFFFFFFFFFFFFFFFFFFFFFFFFFFFFFFFFFFFFFF AND PUSH4 0xA9059CBB CALLER DUP8 PUSH1 0x40 MLOAD DUP4 PUSH4 0xFFFFFFFF AND PUSH1 0xE0 SHL DUP2 MSTORE PUSH1 0x4 ADD PUSH2 0x84C SWAP3 SWAP2 SWAP1 PUSH2 0x2F9A JUMP JUMPDEST PUSH1 0x20 PUSH1 0x40 MLOAD DUP1 DUP4 SUB DUP2 PUSH1 0x0 DUP8 DUP1 EXTCODESIZE ISZERO DUP1 ISZERO PUSH2 0x866 JUMPI PUSH1 0x0 DUP1 REVERT JUMPDEST POP GAS CALL ISZERO DUP1 ISZERO PUSH2 0x87A JUMPI RETURNDATASIZE PUSH1 0x0 DUP1 RETURNDATACOPY RETURNDATASIZE PUSH1 0x0 REVERT JUMPDEST POP POP POP POP PUSH1 0x40 MLOAD RETURNDATASIZE PUSH1 0x1F NOT PUSH1 0x1F DUP3 ADD AND DUP3 ADD DUP1 PUSH1 0x40 MSTORE POP DUP2 ADD SWAP1 PUSH2 0x89E SWAP2 SWAP1 PUSH2 0x294B JUMP JUMPDEST PUSH2 0x8DD JUMPI PUSH1 0x40 MLOAD PUSH32 0x8C379A000000000000000000000000000000000000000000000000000000000 DUP2 MSTORE PUSH1 0x4 ADD PUSH2 0x8D4 SWAP1 PUSH2 0x3075 JUMP JUMPDEST PUSH1 0x40 MLOAD DUP1 SWAP2 SUB SWAP1 REVERT JUMPDEST CALLER PUSH20 0xFFFFFFFFFFFFFFFFFFFFFFFFFFFFFFFFFFFFFFFF AND PUSH32 0x884EDAD9CE6FA2440D8A54CC123490EB96D2768479D49FF9C7366125A9424364 DUP7 PUSH1 0x40 MLOAD PUSH2 0x923 SWAP2 SWAP1 PUSH2 0x31F5 JUMP JUMPDEST PUSH1 0x40 MLOAD DUP1 SWAP2 SUB SWAP1 LOG2 POP POP POP POP POP JUMP JUMPDEST CALLER PUSH20 0xFFFFFFFFFFFFFFFFFFFFFFFFFFFFFFFFFFFFFFFF AND DUP2 PUSH20 0xFFFFFFFFFFFFFFFFFFFFFFFFFFFFFFFFFFFFFFFF AND PUSH32 0x5A821A618DDB1A1FD304234A69C9D7F20C129D122FCF35593D13A07192664307 PUSH1 0x0 DUP1 PUSH1 0x0 PUSH1 0x40 MLOAD PUSH2 0x995 SWAP4 SWAP3 SWAP2 SWAP1 PUSH2 0x2FDE JUMP JUMPDEST PUSH1 0x40 MLOAD DUP1 SWAP2 SUB SWAP1 LOG3 POP JUMP JUMPDEST CALLER PUSH20 0xFFFFFFFFFFFFFFFFFFFFFFFFFFFFFFFFFFFFFFFF AND PUSH32 0x2FE77B1C99ACA6B022B8EFC6E3E8DD1B48B30748709339B65C50EF3263443E09 DUP3 PUSH1 0x0 DUP1 PUSH1 0x40 MLOAD PUSH2 0x9EB SWAP4 SWAP3 SWAP2 SWAP1 PUSH2 0x3240 JUMP JUMPDEST PUSH1 0x40 MLOAD DUP1 SWAP2 SUB SWAP1 LOG2 POP JUMP JUMPDEST PUSH1 0xC SLOAD DUP2 JUMP JUMPDEST PUSH1 0x7 DUP2 DUP2 SLOAD DUP2 LT PUSH2 0xA0C JUMPI PUSH1 0x0 DUP1 REVERT JUMPDEST SWAP1 PUSH1 0x0 MSTORE PUSH1 0x20 PUSH1 0x0 KECCAK256 ADD PUSH1 0x0 SWAP2 POP SLOAD SWAP1 PUSH2 0x100 EXP SWAP1 DIV PUSH20 0xFFFFFFFFFFFFFFFFFFFFFFFFFFFFFFFFFFFFFFFF AND DUP2 JUMP JUMPDEST PUSH1 0x9 SLOAD DUP2 JUMP JUMPDEST PUSH1 0xB SLOAD DUP2 JUMP JUMPDEST PUSH1 0xD PUSH1 0x0 SWAP1 SLOAD SWAP1 PUSH2 0x100 EXP SWAP1 DIV PUSH1 0xF SIGNEXTEND DUP2 JUMP JUMPDEST PUSH1 0x0 DUP1 PUSH1 0x1 PUSH1 0x0 DUP5 PUSH20 0xFFFFFFFFFFFFFFFFFFFFFFFFFFFFFFFFFFFFFFFF AND PUSH20 0xFFFFFFFFFFFFFFFFFFFFFFFFFFFFFFFFFFFFFFFF AND DUP2 MSTORE PUSH1 0x20 ADD SWAP1 DUP2 MSTORE PUSH1 0x20 ADD PUSH1 0x0 KECCAK256 PUSH1 0x1 ADD SLOAD EQ DUP1 PUSH2 0xAEE JUMPI POP PUSH1 0x0 PUSH1 0x1 PUSH1 0x0 DUP5 PUSH20 0xFFFFFFFFFFFFFFFFFFFFFFFFFFFFFFFFFFFFFFFF AND PUSH20 0xFFFFFFFFFFFFFFFFFFFFFFFFFFFFFFFFFFFFFFFF AND DUP2 MSTORE PUSH1 0x20 ADD SWAP1 DUP2 MSTORE PUSH1 0x20 ADD PUSH1 0x0 KECCAK256 PUSH1 0x2 ADD SLOAD EQ JUMPDEST DUP1 PUSH2 0xAFB JUMPI POP PUSH1 0x0 PUSH1 0xA SLOAD EQ JUMPDEST DUP1 PUSH2 0xB47 JUMPI POP PUSH1 0x1 PUSH1 0x0 DUP4 PUSH20 0xFFFFFFFFFFFFFFFFFFFFFFFFFFFFFFFFFFFFFFFF AND PUSH20 0xFFFFFFFFFFFFFFFFFFFFFFFFFFFFFFFFFFFFFFFF AND DUP2 MSTORE PUSH1 0x20 ADD SWAP1 DUP2 MSTORE PUSH1 0x20 ADD PUSH1 0x0 KECCAK256 PUSH1 0x2 ADD SLOAD TIMESTAMP EQ JUMPDEST ISZERO PUSH2 0xB55 JUMPI PUSH1 0x0 SWAP1 POP PUSH2 0xCC4 JUMP JUMPDEST PUSH1 0x0 PUSH1 0x1 PUSH1 0x0 DUP5 PUSH20 0xFFFFFFFFFFFFFFFFFFFFFFFFFFFFFFFFFFFFFFFF AND PUSH20 0xFFFFFFFFFFFFFFFFFFFFFFFFFFFFFFFFFFFFFFFF AND DUP2 MSTORE PUSH1 0x20 ADD SWAP1 DUP2 MSTORE PUSH1 0x20 ADD PUSH1 0x0 KECCAK256 PUSH1 0x2 ADD SLOAD TIMESTAMP PUSH2 0xBA5 SWAP2 SWAP1 PUSH2 0x3404 JUMP JUMPDEST SWAP1 POP PUSH1 0x0 PUSH2 0xBCA PUSH2 0xBB5 DUP4 PUSH2 0x17E9 JUMP JUMPDEST PUSH1 0xD PUSH1 0x0 SWAP1 SLOAD SWAP1 PUSH2 0x100 EXP SWAP1 DIV PUSH1 0xF SIGNEXTEND PUSH2 0x180C JUMP JUMPDEST SWAP1 POP PUSH1 0x0 PUSH2 0xBEC PUSH2 0xBDC PUSH1 0xA SLOAD PUSH2 0x17E9 JUMP JUMPDEST PUSH2 0xBE7 PUSH2 0x2710 PUSH2 0x17E9 JUMP JUMPDEST PUSH2 0x180C JUMP JUMPDEST SWAP1 POP PUSH1 0x0 PUSH2 0xC3B PUSH1 0x1 PUSH1 0x0 DUP9 PUSH20 0xFFFFFFFFFFFFFFFFFFFFFFFFFFFFFFFFFFFFFFFF AND PUSH20 0xFFFFFFFFFFFFFFFFFFFFFFFFFFFFFFFFFFFFFFFF AND DUP2 MSTORE PUSH1 0x20 ADD SWAP1 DUP2 MSTORE PUSH1 0x20 ADD PUSH1 0x0 KECCAK256 PUSH1 0x1 ADD SLOAD PUSH2 0x17E9 JUMP JUMPDEST SWAP1 POP PUSH1 0x0 PUSH2 0xC62 PUSH2 0xC5D DUP4 PUSH2 0xC58 PUSH2 0xC53 DUP8 DUP10 PUSH2 0x18BC JUMP JUMPDEST PUSH2 0x1927 JUMP JUMPDEST PUSH2 0x18BC JUMP JUMPDEST PUSH2 0x19A0 JUMP JUMPDEST SWAP1 POP PUSH1 0x1 PUSH1 0x0 DUP9 PUSH20 0xFFFFFFFFFFFFFFFFFFFFFFFFFFFFFFFFFFFFFFFF AND PUSH20 0xFFFFFFFFFFFFFFFFFFFFFFFFFFFFFFFFFFFFFFFF AND DUP2 MSTORE PUSH1 0x20 ADD SWAP1 DUP2 MSTORE PUSH1 0x20 ADD PUSH1 0x0 KECCAK256 PUSH1 0x1 ADD SLOAD DUP2 PUSH8 0xFFFFFFFFFFFFFFFF AND PUSH2 0xCBC SWAP2 SWAP1 PUSH2 0x3404 JUMP JUMPDEST SWAP6 POP POP POP POP POP POP JUMPDEST SWAP2 SWAP1 POP JUMP JUMPDEST PUSH1 0x0 PUSH2 0xCD5 DUP4 DUP4 PUSH2 0x19C1 JUMP JUMPDEST SWAP1 POP SWAP3 SWAP2 POP POP JUMP JUMPDEST PUSH2 0xCE5 PUSH2 0x1BB3 JUMP JUMPDEST PUSH20 0xFFFFFFFFFFFFFFFFFFFFFFFFFFFFFFFFFFFFFFFF AND PUSH2 0xD03 PUSH2 0xF73 JUMP JUMPDEST PUSH20 0xFFFFFFFFFFFFFFFFFFFFFFFFFFFFFFFFFFFFFFFF AND EQ PUSH2 0xD59 JUMPI PUSH1 0x40 MLOAD PUSH32 0x8C379A000000000000000000000000000000000000000000000000000000000 DUP2 MSTORE PUSH1 0x4 ADD PUSH2 0xD50 SWAP1 PUSH2 0x3115 JUMP JUMPDEST PUSH1 0x40 MLOAD DUP1 SWAP2 SUB SWAP1 REVERT JUMPDEST PUSH1 0x0 PUSH20 0xFFFFFFFFFFFFFFFFFFFFFFFFFFFFFFFFFFFFFFFF AND PUSH1 0x0 DUP1 SLOAD SWAP1 PUSH2 0x100 EXP SWAP1 DIV PUSH20 0xFFFFFFFFFFFFFFFFFFFFFFFFFFFFFFFFFFFFFFFF AND PUSH20 0xFFFFFFFFFFFFFFFFFFFFFFFFFFFFFFFFFFFFFFFF AND PUSH32 0x8BE0079C531659141344CD1FD0A4F28419497F9722A3DAAFE3B4186F6B6457E0 PUSH1 0x40 MLOAD PUSH1 0x40 MLOAD DUP1 SWAP2 SUB SWAP1 LOG3 PUSH1 0x0 DUP1 PUSH1 0x0 PUSH2 0x100 EXP DUP2 SLOAD DUP2 PUSH20 0xFFFFFFFFFFFFFFFFFFFFFFFFFFFFFFFFFFFFFFFF MUL NOT AND SWAP1 DUP4 PUSH20 0xFFFFFFFFFFFFFFFFFFFFFFFFFFFFFFFFFFFFFFFF AND MUL OR SWAP1 SSTORE POP JUMP JUMPDEST PUSH1 0x6 PUSH1 0x0 SWAP1 SLOAD SWAP1 PUSH2 0x100 EXP SWAP1 DIV PUSH20 0xFFFFFFFFFFFFFFFFFFFFFFFFFFFFFFFFFFFFFFFF AND DUP2 JUMP JUMPDEST PUSH1 0xA SLOAD DUP2 JUMP JUMPDEST PUSH2 0xE4B PUSH2 0x1BB3 JUMP JUMPDEST PUSH20 0xFFFFFFFFFFFFFFFFFFFFFFFFFFFFFFFFFFFFFFFF AND PUSH2 0xE69 PUSH2 0xF73 JUMP JUMPDEST PUSH20 0xFFFFFFFFFFFFFFFFFFFFFFFFFFFFFFFFFFFFFFFF AND EQ PUSH2 0xEBF JUMPI PUSH1 0x40 MLOAD PUSH32 0x8C379A000000000000000000000000000000000000000000000000000000000 DUP2 MSTORE PUSH1 0x4 ADD PUSH2 0xEB6 SWAP1 PUSH2 0x3115 JUMP JUMPDEST PUSH1 0x40 MLOAD DUP1 SWAP2 SUB SWAP1 REVERT JUMPDEST PUSH1 0x0 PUSH20 0xFFFFFFFFFFFFFFFFFFFFFFFFFFFFFFFFFFFFFFFF AND DUP2 PUSH20 0xFFFFFFFFFFFFFFFFFFFFFFFFFFFFFFFFFFFFFFFF AND EQ ISZERO PUSH2 0xF2F JUMPI PUSH1 0x40 MLOAD PUSH32 0x8C379A000000000000000000000000000000000000000000000000000000000 DUP2 MSTORE PUSH1 0x4 ADD PUSH2 0xF26 SWAP1 PUSH2 0x3095 JUMP JUMPDEST PUSH1 0x40 MLOAD DUP1 SWAP2 SUB SWAP1 REVERT JUMPDEST DUP1 PUSH1 0x5 PUSH1 0x0 PUSH2 0x100 EXP DUP2 SLOAD DUP2 PUSH20 0xFFFFFFFFFFFFFFFFFFFFFFFFFFFFFFFFFFFFFFFF MUL NOT AND SWAP1 DUP4 PUSH20 0xFFFFFFFFFFFFFFFFFFFFFFFFFFFFFFFFFFFFFFFF AND MUL OR SWAP1 SSTORE POP POP JUMP JUMPDEST PUSH1 0x0 DUP1 PUSH1 0x0 SWAP1 SLOAD SWAP1 PUSH2 0x100 EXP SWAP1 DIV PUSH20 0xFFFFFFFFFFFFFFFFFFFFFFFFFFFFFFFFFFFFFFFF AND SWAP1 POP SWAP1 JUMP JUMPDEST PUSH2 0xFA4 PUSH2 0x1BB3 JUMP JUMPDEST PUSH20 0xFFFFFFFFFFFFFFFFFFFFFFFFFFFFFFFFFFFFFFFF AND PUSH2 0xFC2 PUSH2 0xF73 JUMP JUMPDEST PUSH20 0xFFFFFFFFFFFFFFFFFFFFFFFFFFFFFFFFFFFFFFFF AND EQ PUSH2 0x1018 JUMPI PUSH1 0x40 MLOAD PUSH32 0x8C379A000000000000000000000000000000000000000000000000000000000 DUP2 MSTORE PUSH1 0x4 ADD PUSH2 0x100F SWAP1 PUSH2 0x3115 JUMP JUMPDEST PUSH1 0x40 MLOAD DUP1 SWAP2 SUB SWAP1 REVERT JUMPDEST PUSH1 0x0 PUSH20 0xFFFFFFFFFFFFFFFFFFFFFFFFFFFFFFFFFFFFFFFF AND DUP2 PUSH20 0xFFFFFFFFFFFFFFFFFFFFFFFFFFFFFFFFFFFFFFFF AND EQ ISZERO PUSH2 0x1088 JUMPI PUSH1 0x40 MLOAD PUSH32 0x8C379A000000000000000000000000000000000000000000000000000000000 DUP2 MSTORE PUSH1 0x4 ADD PUSH2 0x107F SWAP1 PUSH2 0x30F5 JUMP JUMPDEST PUSH1 0x40 MLOAD DUP1 SWAP2 SUB SWAP1 REVERT JUMPDEST DUP1 PUSH1 0x3 PUSH1 0x0 PUSH2 0x100 EXP DUP2 SLOAD DUP2 PUSH20 0xFFFFFFFFFFFFFFFFFFFFFFFFFFFFFFFFFFFFFFFF MUL NOT AND SWAP1 DUP4 PUSH20 0xFFFFFFFFFFFFFFFFFFFFFFFFFFFFFFFFFFFFFFFF AND MUL OR SWAP1 SSTORE POP POP JUMP JUMPDEST PUSH1 0x8 SLOAD DUP2 JUMP JUMPDEST PUSH1 0x2 SLOAD DUP2 JUMP JUMPDEST PUSH1 0x0 PUSH1 0x5 PUSH1 0x0 SWAP1 SLOAD SWAP1 PUSH2 0x100 EXP SWAP1 DIV PUSH20 0xFFFFFFFFFFFFFFFFFFFFFFFFFFFFFFFFFFFFFFFF AND SWAP1 POP DUP1 PUSH20 0xFFFFFFFFFFFFFFFFFFFFFFFFFFFFFFFFFFFFFFFF AND PUSH4 0x23B872DD CALLER ADDRESS DUP6 PUSH1 0x40 MLOAD DUP5 PUSH4 0xFFFFFFFF AND PUSH1 0xE0 SHL DUP2 MSTORE PUSH1 0x4 ADD PUSH2 0x113C SWAP4 SWAP3 SWAP2 SWAP1 PUSH2 0x2F63 JUMP JUMPDEST PUSH1 0x20 PUSH1 0x40 MLOAD DUP1 DUP4 SUB DUP2 PUSH1 0x0 DUP8 DUP1 EXTCODESIZE ISZERO DUP1 ISZERO PUSH2 0x1156 JUMPI PUSH1 0x0 DUP1 REVERT JUMPDEST POP GAS CALL ISZERO DUP1 ISZERO PUSH2 0x116A JUMPI RETURNDATASIZE PUSH1 0x0 DUP1 RETURNDATACOPY RETURNDATASIZE PUSH1 0x0 REVERT JUMPDEST POP POP POP POP PUSH1 0x40 MLOAD RETURNDATASIZE PUSH1 0x1F NOT PUSH1 0x1F DUP3 ADD AND DUP3 ADD DUP1 PUSH1 0x40 MSTORE POP DUP2 ADD SWAP1 PUSH2 0x118E SWAP2 SWAP1 PUSH2 0x294B JUMP JUMPDEST PUSH2 0x11CD JUMPI PUSH1 0x40 MLOAD PUSH32 0x8C379A000000000000000000000000000000000000000000000000000000000 DUP2 MSTORE PUSH1 0x4 ADD PUSH2 0x11C4 SWAP1 PUSH2 0x3175 JUMP JUMPDEST PUSH1 0x40 MLOAD DUP1 SWAP2 SUB SWAP1 REVERT JUMPDEST PUSH1 0x0 PUSH1 0x1 PUSH1 0x0 CALLER PUSH20 0xFFFFFFFFFFFFFFFFFFFFFFFFFFFFFFFFFFFFFFFF AND PUSH20 0xFFFFFFFFFFFFFFFFFFFFFFFFFFFFFFFFFFFFFFFF AND DUP2 MSTORE PUSH1 0x20 ADD SWAP1 DUP2 MSTORE PUSH1 0x20 ADD PUSH1 0x0 KECCAK256 PUSH1 0x0 ADD SLOAD SWAP1 POP DUP3 DUP2 PUSH2 0x1220 SWAP2 SWAP1 PUSH2 0x3323 JUMP JUMPDEST PUSH1 0x1 PUSH1 0x0 CALLER PUSH20 0xFFFFFFFFFFFFFFFFFFFFFFFFFFFFFFFFFFFFFFFF AND PUSH20 0xFFFFFFFFFFFFFFFFFFFFFFFFFFFFFFFFFFFFFFFF AND DUP2 MSTORE PUSH1 0x20 ADD SWAP1 DUP2 MSTORE PUSH1 0x20 ADD PUSH1 0x0 KECCAK256 PUSH1 0x0 ADD DUP2 SWAP1 SSTORE POP CALLER PUSH20 0xFFFFFFFFFFFFFFFFFFFFFFFFFFFFFFFFFFFFFFFF AND PUSH32 0xE1FFFCC4923D04B559F4D29A8BFC6CDA04EB5B0D3C460751C2402C5C5CC9109C DUP5 PUSH1 0x40 MLOAD PUSH2 0x12AC SWAP2 SWAP1 PUSH2 0x31F5 JUMP JUMPDEST PUSH1 0x40 MLOAD DUP1 SWAP2 SUB SWAP1 LOG2 POP POP POP JUMP JUMPDEST PUSH1 0x5 PUSH1 0x0 SWAP1 SLOAD SWAP1 PUSH2 0x100 EXP SWAP1 DIV PUSH20 0xFFFFFFFFFFFFFFFFFFFFFFFFFFFFFFFFFFFFFFFF AND DUP2 JUMP JUMPDEST PUSH2 0x12E7 PUSH2 0x1BB3 JUMP JUMPDEST PUSH20 0xFFFFFFFFFFFFFFFFFFFFFFFFFFFFFFFFFFFFFFFF AND PUSH2 0x1305 PUSH2 0xF73 JUMP JUMPDEST PUSH20 0xFFFFFFFFFFFFFFFFFFFFFFFFFFFFFFFFFFFFFFFF AND EQ PUSH2 0x135B JUMPI PUSH1 0x40 MLOAD PUSH32 0x8C379A000000000000000000000000000000000000000000000000000000000 DUP2 MSTORE PUSH1 0x4 ADD PUSH2 0x1352 SWAP1 PUSH2 0x3115 JUMP JUMPDEST PUSH1 0x40 MLOAD DUP1 SWAP2 SUB SWAP1 REVERT JUMPDEST PUSH2 0x2710 DUP4 GT ISZERO DUP1 ISZERO PUSH2 0x136E JUMPI POP PUSH1 0x0 DUP4 LT ISZERO JUMPDEST PUSH2 0x13AD JUMPI PUSH1 0x40 MLOAD PUSH32 0x8C379A000000000000000000000000000000000000000000000000000000000 DUP2 MSTORE PUSH1 0x4 ADD PUSH2 0x13A4 SWAP1 PUSH2 0x3135 JUMP JUMPDEST PUSH1 0x40 MLOAD DUP1 SWAP2 SUB SWAP1 REVERT JUMPDEST PUSH2 0x2710 DUP3 GT ISZERO DUP1 ISZERO PUSH2 0x13C0 JUMPI POP PUSH1 0x0 DUP3 LT ISZERO JUMPDEST DUP1 ISZERO PUSH2 0x13CC JUMPI POP DUP3 DUP3 GT ISZERO JUMPDEST PUSH2 0x140B JUMPI PUSH1 0x40 MLOAD PUSH32 0x8C379A000000000000000000000000000000000000000000000000000000000 DUP2 MSTORE PUSH1 0x4 ADD PUSH2 0x1402 SWAP1 PUSH2 0x3035 JUMP JUMPDEST PUSH1 0x40 MLOAD DUP1 SWAP2 SUB SWAP1 REVERT JUMPDEST DUP3 PUSH1 0x8 DUP2 SWAP1 SSTORE POP DUP2 PUSH1 0x9 DUP2 SWAP1 SSTORE POP PUSH2 0x2710 DUP2 GT ISZERO DUP1 ISZERO PUSH2 0x142C JUMPI POP PUSH1 0x0 DUP2 LT ISZERO JUMPDEST PUSH2 0x146B JUMPI PUSH1 0x40 MLOAD PUSH32 0x8C379A000000000000000000000000000000000000000000000000000000000 DUP2 MSTORE PUSH1 0x4 ADD PUSH2 0x1462 SWAP1 PUSH2 0x3195 JUMP JUMPDEST PUSH1 0x40 MLOAD DUP1 SWAP2 SUB SWAP1 REVERT JUMPDEST DUP1 PUSH1 0xA DUP2 SWAP1 SSTORE POP POP POP POP JUMP JUMPDEST CALLER PUSH20 0xFFFFFFFFFFFFFFFFFFFFFFFFFFFFFFFFFFFFFFFF AND PUSH32 0x13ED6866D4E1EE6DA46F845C46D7E54120883D75C5EA9A2DACC1C4CA8984AB80 DUP3 PUSH1 0x0 DUP1 PUSH1 0x40 MLOAD PUSH2 0x14C2 SWAP4 SWAP3 SWAP2 SWAP1 PUSH2 0x3240 JUMP JUMPDEST PUSH1 0x40 MLOAD DUP1 SWAP2 SUB SWAP1 LOG2 POP JUMP JUMPDEST PUSH1 0x0 PUSH2 0x151B DUP3 PUSH1 0x1 PUSH1 0x0 DUP6 PUSH20 0xFFFFFFFFFFFFFFFFFFFFFFFFFFFFFFFFFFFFFFFF AND PUSH20 0xFFFFFFFFFFFFFFFFFFFFFFFFFFFFFFFFFFFFFFFF AND DUP2 MSTORE PUSH1 0x20 ADD SWAP1 DUP2 MSTORE PUSH1 0x20 ADD PUSH1 0x0 KECCAK256 PUSH1 0x1 ADD SLOAD PUSH2 0x19C1 JUMP JUMPDEST SWAP1 POP SWAP2 SWAP1 POP JUMP JUMPDEST PUSH2 0x152A PUSH2 0x1BB3 JUMP JUMPDEST PUSH20 0xFFFFFFFFFFFFFFFFFFFFFFFFFFFFFFFFFFFFFFFF AND PUSH2 0x1548 PUSH2 0xF73 JUMP JUMPDEST PUSH20 0xFFFFFFFFFFFFFFFFFFFFFFFFFFFFFFFFFFFFFFFF AND EQ PUSH2 0x159E JUMPI PUSH1 0x40 MLOAD PUSH32 0x8C379A000000000000000000000000000000000000000000000000000000000 DUP2 MSTORE PUSH1 0x4 ADD PUSH2 0x1595 SWAP1 PUSH2 0x3115 JUMP JUMPDEST PUSH1 0x40 MLOAD DUP1 SWAP2 SUB SWAP1 REVERT JUMPDEST PUSH2 0x2710 DUP3 LT ISZERO PUSH2 0x15E3 JUMPI PUSH1 0x40 MLOAD PUSH32 0x8C379A000000000000000000000000000000000000000000000000000000000 DUP2 MSTORE PUSH1 0x4 ADD PUSH2 0x15DA SWAP1 PUSH2 0x30B5 JUMP JUMPDEST PUSH1 0x40 MLOAD DUP1 SWAP2 SUB SWAP1 REVERT JUMPDEST PUSH2 0x2710 DUP2 LT ISZERO PUSH2 0x1628 JUMPI PUSH1 0x40 MLOAD PUSH32 0x8C379A000000000000000000000000000000000000000000000000000000000 DUP2 MSTORE PUSH1 0x4 ADD PUSH2 0x161F SWAP1 PUSH2 0x31B5 JUMP JUMPDEST PUSH1 0x40 MLOAD DUP1 SWAP2 SUB SWAP1 REVERT JUMPDEST DUP2 PUSH1 0xB DUP2 SWAP1 SSTORE POP DUP1 PUSH1 0xC DUP2 SWAP1 SSTORE POP POP POP JUMP JUMPDEST PUSH2 0x2710 DUP2 JUMP JUMPDEST PUSH2 0x1648 PUSH2 0x1BB3 JUMP JUMPDEST PUSH20 0xFFFFFFFFFFFFFFFFFFFFFFFFFFFFFFFFFFFFFFFF AND PUSH2 0x1666 PUSH2 0xF73 JUMP JUMPDEST PUSH20 0xFFFFFFFFFFFFFFFFFFFFFFFFFFFFFFFFFFFFFFFF AND EQ PUSH2 0x16BC JUMPI PUSH1 0x40 MLOAD PUSH32 0x8C379A000000000000000000000000000000000000000000000000000000000 DUP2 MSTORE PUSH1 0x4 ADD PUSH2 0x16B3 SWAP1 PUSH2 0x3115 JUMP JUMPDEST PUSH1 0x40 MLOAD DUP1 SWAP2 SUB SWAP1 REVERT JUMPDEST PUSH1 0x0 PUSH20 0xFFFFFFFFFFFFFFFFFFFFFFFFFFFFFFFFFFFFFFFF AND DUP2 PUSH20 0xFFFFFFFFFFFFFFFFFFFFFFFFFFFFFFFFFFFFFFFF AND EQ ISZERO PUSH2 0x172C JUMPI PUSH1 0x40 MLOAD PUSH32 0x8C379A000000000000000000000000000000000000000000000000000000000 DUP2 MSTORE PUSH1 0x4 ADD PUSH2 0x1723 SWAP1 PUSH2 0x3015 JUMP JUMPDEST PUSH1 0x40 MLOAD DUP1 SWAP2 SUB SWAP1 REVERT JUMPDEST DUP1 PUSH20 0xFFFFFFFFFFFFFFFFFFFFFFFFFFFFFFFFFFFFFFFF AND PUSH1 0x0 DUP1 SLOAD SWAP1 PUSH2 0x100 EXP SWAP1 DIV PUSH20 0xFFFFFFFFFFFFFFFFFFFFFFFFFFFFFFFFFFFFFFFF AND PUSH20 0xFFFFFFFFFFFFFFFFFFFFFFFFFFFFFFFFFFFFFFFF AND PUSH32 0x8BE0079C531659141344CD1FD0A4F28419497F9722A3DAAFE3B4186F6B6457E0 PUSH1 0x40 MLOAD PUSH1 0x40 MLOAD DUP1 SWAP2 SUB SWAP1 LOG3 DUP1 PUSH1 0x0 DUP1 PUSH2 0x100 EXP DUP2 SLOAD DUP2 PUSH20 0xFFFFFFFFFFFFFFFFFFFFFFFFFFFFFFFFFFFFFFFF MUL NOT AND SWAP1 DUP4 PUSH20 0xFFFFFFFFFFFFFFFFFFFFFFFFFFFFFFFFFFFFFFFF AND MUL OR SWAP1 SSTORE POP POP JUMP JUMPDEST PUSH1 0x0 PUSH8 0x7FFFFFFFFFFFFFFF DUP3 GT ISZERO PUSH2 0x1800 JUMPI PUSH1 0x0 DUP1 REVERT JUMPDEST PUSH1 0x40 DUP3 SWAP1 SHL SWAP1 POP SWAP2 SWAP1 POP JUMP JUMPDEST PUSH1 0x0 DUP1 DUP3 PUSH1 0xF SIGNEXTEND EQ ISZERO PUSH2 0x181E JUMPI PUSH1 0x0 DUP1 REVERT JUMPDEST PUSH1 0x0 DUP3 PUSH1 0xF SIGNEXTEND PUSH1 0x40 DUP6 PUSH1 0xF SIGNEXTEND SWAP1 SHL DUP2 PUSH2 0x1860 JUMPI PUSH32 0x4E487B7100000000000000000000000000000000000000000000000000000000 PUSH1 0x0 MSTORE PUSH1 0x12 PUSH1 0x4 MSTORE PUSH1 0x24 PUSH1 0x0 REVERT JUMPDEST SDIV SWAP1 POP PUSH32 0xFFFFFFFFFFFFFFFFFFFFFFFFFFFFFFFF80000000000000000000000000000000 PUSH1 0xF SIGNEXTEND DUP2 SLT ISZERO DUP1 ISZERO PUSH2 0x18A9 JUMPI POP PUSH16 0x7FFFFFFFFFFFFFFFFFFFFFFFFFFFFFFF PUSH1 0xF SIGNEXTEND DUP2 SGT ISZERO JUMPDEST PUSH2 0x18B2 JUMPI PUSH1 0x0 DUP1 REVERT JUMPDEST DUP1 SWAP2 POP POP SWAP3 SWAP2 POP POP JUMP JUMPDEST PUSH1 0x0 DUP1 PUSH1 0x40 DUP4 PUSH1 0xF SIGNEXTEND DUP6 PUSH1 0xF SIGNEXTEND MUL SWAP1 SAR SWAP1 POP PUSH32 0xFFFFFFFFFFFFFFFFFFFFFFFFFFFFFFFF80000000000000000000000000000000 PUSH1 0xF SIGNEXTEND DUP2 SLT ISZERO DUP1 ISZERO PUSH2 0x1914 JUMPI POP PUSH16 0x7FFFFFFFFFFFFFFFFFFFFFFFFFFFFFFF PUSH1 0xF SIGNEXTEND DUP2 SGT ISZERO JUMPDEST PUSH2 0x191D JUMPI PUSH1 0x0 DUP1 REVERT JUMPDEST DUP1 SWAP2 POP POP SWAP3 SWAP2 POP POP JUMP JUMPDEST PUSH1 0x0 PUSH9 0x400000000000000000 DUP3 PUSH1 0xF SIGNEXTEND SLT PUSH2 0x1941 JUMPI PUSH1 0x0 DUP1 REVERT JUMPDEST PUSH32 0xFFFFFFFFFFFFFFFFFFFFFFFFFFFFFFFFFFFFFFFFFFFFFFC00000000000000000 DUP3 PUSH1 0xF SIGNEXTEND SLT ISZERO PUSH2 0x1975 JUMPI PUSH1 0x0 SWAP1 POP PUSH2 0x199B JUMP JUMPDEST PUSH2 0x1998 PUSH1 0x80 PUSH17 0x171547652B82FE1777D0FFDA0D23A7D12 DUP5 PUSH1 0xF SIGNEXTEND MUL SWAP1 SAR PUSH2 0x1BBB JUMP JUMPDEST SWAP1 POP JUMPDEST SWAP2 SWAP1 POP JUMP JUMPDEST PUSH1 0x0 DUP1 DUP3 PUSH1 0xF SIGNEXTEND SLT ISZERO PUSH2 0x19B2 JUMPI PUSH1 0x0 DUP1 REVERT JUMPDEST PUSH1 0x40 DUP3 PUSH1 0xF SIGNEXTEND SWAP1 SAR SWAP1 POP SWAP2 SWAP1 POP JUMP JUMPDEST PUSH1 0x0 DUP1 PUSH1 0x1 PUSH1 0x0 DUP6 PUSH20 0xFFFFFFFFFFFFFFFFFFFFFFFFFFFFFFFFFFFFFFFF AND PUSH20 0xFFFFFFFFFFFFFFFFFFFFFFFFFFFFFFFFFFFFFFFF AND DUP2 MSTORE PUSH1 0x20 ADD SWAP1 DUP2 MSTORE PUSH1 0x20 ADD PUSH1 0x0 KECCAK256 PUSH1 0x0 ADD SLOAD SWAP1 POP PUSH1 0x0 DUP2 EQ ISZERO PUSH2 0x1A1C JUMPI PUSH1 0x0 SWAP2 POP POP PUSH2 0x1BAD JUMP JUMPDEST PUSH1 0x0 DUP4 EQ ISZERO PUSH2 0x1A4E JUMPI PUSH32 0xFFFFFFFFFFFFFFFFFFFFFFFFFFFFFFFFFFFFFFFFFFFFFFFFFFFFFFFFFFFFFFFF SWAP2 POP POP PUSH2 0x1BAD JUMP JUMPDEST PUSH1 0x0 DUP2 GT PUSH2 0x1A91 JUMPI PUSH1 0x40 MLOAD PUSH32 0x8C379A000000000000000000000000000000000000000000000000000000000 DUP2 MSTORE PUSH1 0x4 ADD PUSH2 0x1A88 SWAP1 PUSH2 0x3155 JUMP JUMPDEST PUSH1 0x40 MLOAD DUP1 SWAP2 SUB SWAP1 REVERT JUMPDEST PUSH1 0x0 PUSH1 0x6 PUSH1 0x0 SWAP1 SLOAD SWAP1 PUSH2 0x100 EXP SWAP1 DIV PUSH20 0xFFFFFFFFFFFFFFFFFFFFFFFFFFFFFFFFFFFFFFFF AND SWAP1 POP PUSH1 0x0 DUP2 PUSH20 0xFFFFFFFFFFFFFFFFFFFFFFFFFFFFFFFFFFFFFFFF AND PUSH4 0xD06CA61F DUP5 PUSH1 0x7 PUSH1 0x40 MLOAD DUP4 PUSH4 0xFFFFFFFF AND PUSH1 0xE0 SHL DUP2 MSTORE PUSH1 0x4 ADD PUSH2 0x1AF6 SWAP3 SWAP2 SWAP1 PUSH2 0x3210 JUMP JUMPDEST PUSH1 0x0 PUSH1 0x40 MLOAD DUP1 DUP4 SUB DUP2 DUP7 DUP1 EXTCODESIZE ISZERO DUP1 ISZERO PUSH2 0x1B0E JUMPI PUSH1 0x0 DUP1 REVERT JUMPDEST POP GAS STATICCALL ISZERO DUP1 ISZERO PUSH2 0x1B22 JUMPI RETURNDATASIZE PUSH1 0x0 DUP1 RETURNDATACOPY RETURNDATASIZE PUSH1 0x0 REVERT JUMPDEST POP POP POP POP PUSH1 0x40 MLOAD RETURNDATASIZE PUSH1 0x0 DUP3 RETURNDATACOPY RETURNDATASIZE PUSH1 0x1F NOT PUSH1 0x1F DUP3 ADD AND DUP3 ADD DUP1 PUSH1 0x40 MSTORE POP DUP2 ADD SWAP1 PUSH2 0x1B4B SWAP2 SWAP1 PUSH2 0x290A JUMP JUMPDEST PUSH1 0x1 DUP2 MLOAD DUP2 LT PUSH2 0x1B84 JUMPI PUSH32 0x4E487B7100000000000000000000000000000000000000000000000000000000 PUSH1 0x0 MSTORE PUSH1 0x32 PUSH1 0x4 MSTORE PUSH1 0x24 PUSH1 0x0 REVERT JUMPDEST PUSH1 0x20 MUL PUSH1 0x20 ADD ADD MLOAD SWAP1 POP DUP5 PUSH2 0x2710 DUP3 PUSH2 0x1B9D SWAP2 SWAP1 PUSH2 0x33AA JUMP JUMPDEST PUSH2 0x1BA7 SWAP2 SWAP1 PUSH2 0x3379 JUMP JUMPDEST SWAP4 POP POP POP POP JUMPDEST SWAP3 SWAP2 POP POP JUMP JUMPDEST PUSH1 0x0 CALLER SWAP1 POP SWAP1 JUMP JUMPDEST PUSH1 0x0 PUSH9 0x400000000000000000 DUP3 PUSH1 0xF SIGNEXTEND SLT PUSH2 0x1BD5 JUMPI PUSH1 0x0 DUP1 REVERT JUMPDEST PUSH32 0xFFFFFFFFFFFFFFFFFFFFFFFFFFFFFFFFFFFFFFFFFFFFFFC00000000000000000 DUP3 PUSH1 0xF SIGNEXTEND SLT ISZERO PUSH2 0x1C09 JUMPI PUSH1 0x0 SWAP1 POP PUSH2 0x27B6 JUMP JUMPDEST PUSH1 0x0 PUSH16 0x80000000000000000000000000000000 SWAP1 POP PUSH1 0x0 PUSH8 0x8000000000000000 DUP5 AND PUSH1 0xF SIGNEXTEND SGT ISZERO PUSH2 0x1C4F JUMPI PUSH1 0x80 PUSH17 0x16A09E667F3BCC908B2FB1366EA957D3E DUP3 MUL SWAP1 SHR SWAP1 POP JUMPDEST PUSH1 0x0 PUSH8 0x4000000000000000 DUP5 AND PUSH1 0xF SIGNEXTEND SGT ISZERO PUSH2 0x1C80 JUMPI PUSH1 0x80 PUSH17 0x1306FE0A31B7152DE8D5A46305C85EDEC DUP3 MUL SWAP1 SHR SWAP1 POP JUMPDEST PUSH1 0x0 PUSH8 0x2000000000000000 DUP5 AND PUSH1 0xF SIGNEXTEND SGT ISZERO PUSH2 0x1CB1 JUMPI PUSH1 0x80 PUSH17 0x1172B83C7D517ADCDF7C8C50EB14A791F DUP3 MUL SWAP1 SHR SWAP1 POP JUMPDEST PUSH1 0x0 PUSH8 0x1000000000000000 DUP5 AND PUSH1 0xF SIGNEXTEND SGT ISZERO PUSH2 0x1CE2 JUMPI PUSH1 0x80 PUSH17 0x10B5586CF9890F6298B92B71842A98363 DUP3 MUL SWAP1 SHR SWAP1 POP JUMPDEST PUSH1 0x0 PUSH8 0x800000000000000 DUP5 AND PUSH1 0xF SIGNEXTEND SGT ISZERO PUSH2 0x1D13 JUMPI PUSH1 0x80 PUSH17 0x1059B0D31585743AE7C548EB68CA417FD DUP3 MUL SWAP1 SHR SWAP1 POP JUMPDEST PUSH1 0x0 PUSH8 0x400000000000000 DUP5 AND PUSH1 0xF SIGNEXTEND SGT ISZERO PUSH2 0x1D44 JUMPI PUSH1 0x80 PUSH17 0x102C9A3E778060EE6F7CACA4F7A29BDE8 DUP3 MUL SWAP1 SHR SWAP1 POP JUMPDEST PUSH1 0x0 PUSH8 0x200000000000000 DUP5 AND PUSH1 0xF SIGNEXTEND SGT ISZERO PUSH2 0x1D75 JUMPI PUSH1 0x80 PUSH17 0x10163DA9FB33356D84A66AE336DCDFA3F DUP3 MUL SWAP1 SHR SWAP1 POP JUMPDEST PUSH1 0x0 PUSH8 0x100000000000000 DUP5 AND PUSH1 0xF SIGNEXTEND SGT ISZERO PUSH2 0x1DA6 JUMPI PUSH1 0x80 PUSH17 0x100B1AFA5ABCBED6129AB13EC11DC9543 DUP3 MUL SWAP1 SHR SWAP1 POP JUMPDEST PUSH1 0x0 PUSH7 0x80000000000000 DUP5 AND PUSH1 0xF SIGNEXTEND SGT ISZERO PUSH2 0x1DD6 JUMPI PUSH1 0x80 PUSH17 0x10058C86DA1C09EA1FF19D294CF2F679B DUP3 MUL SWAP1 SHR SWAP1 POP JUMPDEST PUSH1 0x0 PUSH7 0x40000000000000 DUP5 AND PUSH1 0xF SIGNEXTEND SGT ISZERO PUSH2 0x1E06 JUMPI PUSH1 0x80 PUSH17 0x1002C605E2E8CEC506D21BFC89A23A00F DUP3 MUL SWAP1 SHR SWAP1 POP JUMPDEST PUSH1 0x0 PUSH7 0x20000000000000 DUP5 AND PUSH1 0xF SIGNEXTEND SGT ISZERO PUSH2 0x1E36 JUMPI PUSH1 0x80 PUSH17 0x100162F3904051FA128BCA9C55C31E5DF DUP3 MUL SWAP1 SHR SWAP1 POP JUMPDEST PUSH1 0x0 PUSH7 0x10000000000000 DUP5 AND PUSH1 0xF SIGNEXTEND SGT ISZERO PUSH2 0x1E66 JUMPI PUSH1 0x80 PUSH17 0x1000B175EFFDC76BA38E31671CA939725 DUP3 MUL SWAP1 SHR SWAP1 POP JUMPDEST PUSH1 0x0 PUSH7 0x8000000000000 DUP5 AND PUSH1 0xF SIGNEXTEND SGT ISZERO PUSH2 0x1E96 JUMPI PUSH1 0x80 PUSH17 0x100058BA01FB9F96D6CACD4B180917C3D DUP3 MUL SWAP1 SHR SWAP1 POP JUMPDEST PUSH1 0x0 PUSH7 0x4000000000000 DUP5 AND PUSH1 0xF SIGNEXTEND SGT ISZERO PUSH2 0x1EC6 JUMPI PUSH1 0x80 PUSH17 0x10002C5CC37DA9491D0985C348C68E7B3 DUP3 MUL SWAP1 SHR SWAP1 POP JUMPDEST PUSH1 0x0 PUSH7 0x2000000000000 DUP5 AND PUSH1 0xF SIGNEXTEND SGT ISZERO PUSH2 0x1EF6 JUMPI PUSH1 0x80 PUSH17 0x1000162E525EE054754457D5995292026 DUP3 MUL SWAP1 SHR SWAP1 POP JUMPDEST PUSH1 0x0 PUSH7 0x1000000000000 DUP5 AND PUSH1 0xF SIGNEXTEND SGT ISZERO PUSH2 0x1F26 JUMPI PUSH1 0x80 PUSH17 0x10000B17255775C040618BF4A4ADE83FC DUP3 MUL SWAP1 SHR SWAP1 POP JUMPDEST PUSH1 0x0 PUSH6 0x800000000000 DUP5 AND PUSH1 0xF SIGNEXTEND SGT ISZERO PUSH2 0x1F55 JUMPI PUSH1 0x80 PUSH17 0x1000058B91B5BC9AE2EED81E9B7D4CFAB DUP3 MUL SWAP1 SHR SWAP1 POP JUMPDEST PUSH1 0x0 PUSH6 0x400000000000 DUP5 AND PUSH1 0xF SIGNEXTEND SGT ISZERO PUSH2 0x1F84 JUMPI PUSH1 0x80 PUSH17 0x100002C5C89D5EC6CA4D7C8ACC017B7C9 DUP3 MUL SWAP1 SHR SWAP1 POP JUMPDEST PUSH1 0x0 PUSH6 0x200000000000 DUP5 AND PUSH1 0xF SIGNEXTEND SGT ISZERO PUSH2 0x1FB3 JUMPI PUSH1 0x80 PUSH17 0x10000162E43F4F831060E02D839A9D16D DUP3 MUL SWAP1 SHR SWAP1 POP JUMPDEST PUSH1 0x0 PUSH6 0x100000000000 DUP5 AND PUSH1 0xF SIGNEXTEND SGT ISZERO PUSH2 0x1FE2 JUMPI PUSH1 0x80 PUSH17 0x100000B1721BCFC99D9F890EA06911763 DUP3 MUL SWAP1 SHR SWAP1 POP JUMPDEST PUSH1 0x0 PUSH6 0x80000000000 DUP5 AND PUSH1 0xF SIGNEXTEND SGT ISZERO PUSH2 0x2011 JUMPI PUSH1 0x80 PUSH17 0x10000058B90CF1E6D97F9CA14DBCC1628 DUP3 MUL SWAP1 SHR SWAP1 POP JUMPDEST PUSH1 0x0 PUSH6 0x40000000000 DUP5 AND PUSH1 0xF SIGNEXTEND SGT ISZERO PUSH2 0x2040 JUMPI PUSH1 0x80 PUSH17 0x1000002C5C863B73F016468F6BAC5CA2B DUP3 MUL SWAP1 SHR SWAP1 POP JUMPDEST PUSH1 0x0 PUSH6 0x20000000000 DUP5 AND PUSH1 0xF SIGNEXTEND SGT ISZERO PUSH2 0x206F JUMPI PUSH1 0x80 PUSH17 0x100000162E430E5A18F6119E3C02282A5 DUP3 MUL SWAP1 SHR SWAP1 POP JUMPDEST PUSH1 0x0 PUSH6 0x10000000000 DUP5 AND PUSH1 0xF SIGNEXTEND SGT ISZERO PUSH2 0x209E JUMPI PUSH1 0x80 PUSH17 0x1000000B1721835514B86E6D96EFD1BFE DUP3 MUL SWAP1 SHR SWAP1 POP JUMPDEST PUSH1 0x0 PUSH5 0x8000000000 DUP5 AND PUSH1 0xF SIGNEXTEND SGT ISZERO PUSH2 0x20CC JUMPI PUSH1 0x80 PUSH17 0x100000058B90C0B48C6BE5DF846C5B2EF DUP3 MUL SWAP1 SHR SWAP1 POP JUMPDEST PUSH1 0x0 PUSH5 0x4000000000 DUP5 AND PUSH1 0xF SIGNEXTEND SGT ISZERO PUSH2 0x20FA JUMPI PUSH1 0x80 PUSH17 0x10000002C5C8601CC6B9E94213C72737A DUP3 MUL SWAP1 SHR SWAP1 POP JUMPDEST PUSH1 0x0 PUSH5 0x2000000000 DUP5 AND PUSH1 0xF SIGNEXTEND SGT ISZERO PUSH2 0x2128 JUMPI PUSH1 0x80 PUSH17 0x1000000162E42FFF037DF38AA2B219F06 DUP3 MUL SWAP1 SHR SWAP1 POP JUMPDEST PUSH1 0x0 PUSH5 0x1000000000 DUP5 AND PUSH1 0xF SIGNEXTEND SGT ISZERO PUSH2 0x2156 JUMPI PUSH1 0x80 PUSH17 0x10000000B17217FBA9C739AA5819F44F9 DUP3 MUL SWAP1 SHR SWAP1 POP JUMPDEST PUSH1 0x0 PUSH5 0x800000000 DUP5 AND PUSH1 0xF SIGNEXTEND SGT ISZERO PUSH2 0x2184 JUMPI PUSH1 0x80 PUSH17 0x1000000058B90BFCDEE5ACD3C1CEDC823 DUP3 MUL SWAP1 SHR SWAP1 POP JUMPDEST PUSH1 0x0 PUSH5 0x400000000 DUP5 AND PUSH1 0xF SIGNEXTEND SGT ISZERO PUSH2 0x21B2 JUMPI PUSH1 0x80 PUSH17 0x100000002C5C85FE31F35A6A30DA1BE50 DUP3 MUL SWAP1 SHR SWAP1 POP JUMPDEST PUSH1 0x0 PUSH5 0x200000000 DUP5 AND PUSH1 0xF SIGNEXTEND SGT ISZERO PUSH2 0x21E0 JUMPI PUSH1 0x80 PUSH17 0x10000000162E42FF0999CE3541B9FFFCF DUP3 MUL SWAP1 SHR SWAP1 POP JUMPDEST PUSH1 0x0 PUSH5 0x100000000 DUP5 AND PUSH1 0xF SIGNEXTEND SGT ISZERO PUSH2 0x220E JUMPI PUSH1 0x80 PUSH17 0x100000000B17217F80F4EF5AADDA45554 DUP3 MUL SWAP1 SHR SWAP1 POP JUMPDEST PUSH1 0x0 PUSH4 0x80000000 DUP5 AND PUSH1 0xF SIGNEXTEND SGT ISZERO PUSH2 0x223B JUMPI PUSH1 0x80 PUSH17 0x10000000058B90BFBF8479BD5A81B51AD DUP3 MUL SWAP1 SHR SWAP1 POP JUMPDEST PUSH1 0x0 PUSH4 0x40000000 DUP5 AND PUSH1 0xF SIGNEXTEND SGT ISZERO PUSH2 0x2268 JUMPI PUSH1 0x80 PUSH17 0x1000000002C5C85FDF84BD62AE30A74CC DUP3 MUL SWAP1 SHR SWAP1 POP JUMPDEST PUSH1 0x0 PUSH4 0x20000000 DUP5 AND PUSH1 0xF SIGNEXTEND SGT ISZERO PUSH2 0x2295 JUMPI PUSH1 0x80 PUSH17 0x100000000162E42FEFB2FED257559BDAA DUP3 MUL SWAP1 SHR SWAP1 POP JUMPDEST PUSH1 0x0 PUSH4 0x10000000 DUP5 AND PUSH1 0xF SIGNEXTEND SGT ISZERO PUSH2 0x22C2 JUMPI PUSH1 0x80 PUSH17 0x1000000000B17217F7D5A7716BBA4A9AE DUP3 MUL SWAP1 SHR SWAP1 POP JUMPDEST PUSH1 0x0 PUSH4 0x8000000 DUP5 AND PUSH1 0xF SIGNEXTEND SGT ISZERO PUSH2 0x22EF JUMPI PUSH1 0x80 PUSH17 0x100000000058B90BFBE9DDBAC5E109CCE DUP3 MUL SWAP1 SHR SWAP1 POP JUMPDEST PUSH1 0x0 PUSH4 0x4000000 DUP5 AND PUSH1 0xF SIGNEXTEND SGT ISZERO PUSH2 0x231C JUMPI PUSH1 0x80 PUSH17 0x10000000002C5C85FDF4B15DE6F17EB0D DUP3 MUL SWAP1 SHR SWAP1 POP JUMPDEST PUSH1 0x0 PUSH4 0x2000000 DUP5 AND PUSH1 0xF SIGNEXTEND SGT ISZERO PUSH2 0x2349 JUMPI PUSH1 0x80 PUSH17 0x1000000000162E42FEFA494F1478FDE05 DUP3 MUL SWAP1 SHR SWAP1 POP JUMPDEST PUSH1 0x0 PUSH4 0x1000000 DUP5 AND PUSH1 0xF SIGNEXTEND SGT ISZERO PUSH2 0x2376 JUMPI PUSH1 0x80 PUSH17 0x10000000000B17217F7D20CF927C8E94C DUP3 MUL SWAP1 SHR SWAP1 POP JUMPDEST PUSH1 0x0 PUSH3 0x800000 DUP5 AND PUSH1 0xF SIGNEXTEND SGT ISZERO PUSH2 0x23A2 JUMPI PUSH1 0x80 PUSH17 0x1000000000058B90BFBE8F71CB4E4B33D DUP3 MUL SWAP1 SHR SWAP1 POP JUMPDEST PUSH1 0x0 PUSH3 0x400000 DUP5 AND PUSH1 0xF SIGNEXTEND SGT ISZERO PUSH2 0x23CE JUMPI PUSH1 0x80 PUSH17 0x100000000002C5C85FDF477B662B26945 DUP3 MUL SWAP1 SHR SWAP1 POP JUMPDEST PUSH1 0x0 PUSH3 0x200000 DUP5 AND PUSH1 0xF SIGNEXTEND SGT ISZERO PUSH2 0x23FA JUMPI PUSH1 0x80 PUSH17 0x10000000000162E42FEFA3AE53369388C DUP3 MUL SWAP1 SHR SWAP1 POP JUMPDEST PUSH1 0x0 PUSH3 0x100000 DUP5 AND PUSH1 0xF SIGNEXTEND SGT ISZERO PUSH2 0x2426 JUMPI PUSH1 0x80 PUSH17 0x100000000000B17217F7D1D351A389D40 DUP3 MUL SWAP1 SHR SWAP1 POP JUMPDEST PUSH1 0x0 PUSH3 0x80000 DUP5 AND PUSH1 0xF SIGNEXTEND SGT ISZERO PUSH2 0x2452 JUMPI PUSH1 0x80 PUSH17 0x10000000000058B90BFBE8E8B2D3D4EDE DUP3 MUL SWAP1 SHR SWAP1 POP JUMPDEST PUSH1 0x0 PUSH3 0x40000 DUP5 AND PUSH1 0xF SIGNEXTEND SGT ISZERO PUSH2 0x247E JUMPI PUSH1 0x80 PUSH17 0x1000000000002C5C85FDF4741BEA6E77E DUP3 MUL SWAP1 SHR SWAP1 POP JUMPDEST PUSH1 0x0 PUSH3 0x20000 DUP5 AND PUSH1 0xF SIGNEXTEND SGT ISZERO PUSH2 0x24AA JUMPI PUSH1 0x80 PUSH17 0x100000000000162E42FEFA39FE95583C2 DUP3 MUL SWAP1 SHR SWAP1 POP JUMPDEST PUSH1 0x0 PUSH3 0x10000 DUP5 AND PUSH1 0xF SIGNEXTEND SGT ISZERO PUSH2 0x24D6 JUMPI PUSH1 0x80 PUSH17 0x1000000000000B17217F7D1CFB72B45E1 DUP3 MUL SWAP1 SHR SWAP1 POP JUMPDEST PUSH1 0x0 PUSH2 0x8000 DUP5 AND PUSH1 0xF SIGNEXTEND SGT ISZERO PUSH2 0x2501 JUMPI PUSH1 0x80 PUSH17 0x100000000000058B90BFBE8E7CC35C3F0 DUP3 MUL SWAP1 SHR SWAP1 POP JUMPDEST PUSH1 0x0 PUSH2 0x4000 DUP5 AND PUSH1 0xF SIGNEXTEND SGT ISZERO PUSH2 0x252C JUMPI PUSH1 0x80 PUSH17 0x10000000000002C5C85FDF473E242EA38 DUP3 MUL SWAP1 SHR SWAP1 POP JUMPDEST PUSH1 0x0 PUSH2 0x2000 DUP5 AND PUSH1 0xF SIGNEXTEND SGT ISZERO PUSH2 0x2557 JUMPI PUSH1 0x80 PUSH17 0x1000000000000162E42FEFA39F02B772C DUP3 MUL SWAP1 SHR SWAP1 POP JUMPDEST PUSH1 0x0 PUSH2 0x1000 DUP5 AND PUSH1 0xF SIGNEXTEND SGT ISZERO PUSH2 0x2582 JUMPI PUSH1 0x80 PUSH17 0x10000000000000B17217F7D1CF7D83C1A DUP3 MUL SWAP1 SHR SWAP1 POP JUMPDEST PUSH1 0x0 PUSH2 0x800 DUP5 AND PUSH1 0xF SIGNEXTEND SGT ISZERO PUSH2 0x25AD JUMPI PUSH1 0x80 PUSH17 0x1000000000000058B90BFBE8E7BDCBE2E DUP3 MUL SWAP1 SHR SWAP1 POP JUMPDEST PUSH1 0x0 PUSH2 0x400 DUP5 AND PUSH1 0xF SIGNEXTEND SGT ISZERO PUSH2 0x25D8 JUMPI PUSH1 0x80 PUSH17 0x100000000000002C5C85FDF473DEA871F DUP3 MUL SWAP1 SHR SWAP1 POP JUMPDEST PUSH1 0x0 PUSH2 0x200 DUP5 AND PUSH1 0xF SIGNEXTEND SGT ISZERO PUSH2 0x2603 JUMPI PUSH1 0x80 PUSH17 0x10000000000000162E42FEFA39EF44D91 DUP3 MUL SWAP1 SHR SWAP1 POP JUMPDEST PUSH1 0x0 PUSH2 0x100 DUP5 AND PUSH1 0xF SIGNEXTEND SGT ISZERO PUSH2 0x262E JUMPI PUSH1 0x80 PUSH17 0x100000000000000B17217F7D1CF79E949 DUP3 MUL SWAP1 SHR SWAP1 POP JUMPDEST PUSH1 0x0 PUSH1 0x80 DUP5 AND PUSH1 0xF SIGNEXTEND SGT ISZERO PUSH2 0x2658 JUMPI PUSH1 0x80 PUSH17 0x10000000000000058B90BFBE8E7BCE544 DUP3 MUL SWAP1 SHR SWAP1 POP JUMPDEST PUSH1 0x0 PUSH1 0x40 DUP5 AND PUSH1 0xF SIGNEXTEND SGT ISZERO PUSH2 0x2682 JUMPI PUSH1 0x80 PUSH17 0x1000000000000002C5C85FDF473DE6ECA DUP3 MUL SWAP1 SHR SWAP1 POP JUMPDEST PUSH1 0x0 PUSH1 0x20 DUP5 AND PUSH1 0xF SIGNEXTEND SGT ISZERO PUSH2 0x26AC JUMPI PUSH1 0x80 PUSH17 0x100000000000000162E42FEFA39EF366F DUP3 MUL SWAP1 SHR SWAP1 POP JUMPDEST PUSH1 0x0 PUSH1 0x10 DUP5 AND PUSH1 0xF SIGNEXTEND SGT ISZERO PUSH2 0x26D6 JUMPI PUSH1 0x80 PUSH17 0x1000000000000000B17217F7D1CF79AFA DUP3 MUL SWAP1 SHR SWAP1 POP JUMPDEST PUSH1 0x0 PUSH1 0x8 DUP5 AND PUSH1 0xF SIGNEXTEND SGT ISZERO PUSH2 0x2700 JUMPI PUSH1 0x80 PUSH17 0x100000000000000058B90BFBE8E7BCD6D DUP3 MUL SWAP1 SHR SWAP1 POP JUMPDEST PUSH1 0x0 PUSH1 0x4 DUP5 AND PUSH1 0xF SIGNEXTEND SGT ISZERO PUSH2 0x272A JUMPI PUSH1 0x80 PUSH17 0x10000000000000002C5C85FDF473DE6B2 DUP3 MUL SWAP1 SHR SWAP1 POP JUMPDEST PUSH1 0x0 PUSH1 0x2 DUP5 AND PUSH1 0xF SIGNEXTEND SGT ISZERO PUSH2 0x2754 JUMPI PUSH1 0x80 PUSH17 0x1000000000000000162E42FEFA39EF358 DUP3 MUL SWAP1 SHR SWAP1 POP JUMPDEST PUSH1 0x0 PUSH1 0x1 DUP5 AND PUSH1 0xF SIGNEXTEND SGT ISZERO PUSH2 0x277E JUMPI PUSH1 0x80 PUSH17 0x10000000000000000B17217F7D1CF79AB DUP3 MUL SWAP1 SHR SWAP1 POP JUMPDEST PUSH1 0x40 DUP4 PUSH1 0xF SIGNEXTEND SWAP1 SAR PUSH1 0x3F SUB PUSH1 0xF SIGNEXTEND DUP2 SWAP1 SHR SWAP1 POP PUSH16 0x7FFFFFFFFFFFFFFFFFFFFFFFFFFFFFFF PUSH1 0xF SIGNEXTEND DUP2 GT ISZERO PUSH2 0x27B1 JUMPI PUSH1 0x0 DUP1 REVERT JUMPDEST DUP1 SWAP2 POP POP JUMPDEST SWAP2 SWAP1 POP JUMP JUMPDEST PUSH1 0x0 PUSH2 0x27CE PUSH2 0x27C9 DUP5 PUSH2 0x32A8 JUMP JUMPDEST PUSH2 0x3277 JUMP JUMPDEST SWAP1 POP DUP1 DUP4 DUP3 MSTORE PUSH1 0x20 DUP3 ADD SWAP1 POP DUP3 DUP6 PUSH1 0x20 DUP7 MUL DUP3 ADD GT ISZERO PUSH2 0x27ED JUMPI PUSH1 0x0 DUP1 REVERT JUMPDEST PUSH1 0x0 JUMPDEST DUP6 DUP2 LT ISZERO PUSH2 0x281D JUMPI DUP2 PUSH2 0x2803 DUP9 DUP3 PUSH2 0x2890 JUMP JUMPDEST DUP5 MSTORE PUSH1 0x20 DUP5 ADD SWAP4 POP PUSH1 0x20 DUP4 ADD SWAP3 POP POP PUSH1 0x1 DUP2 ADD SWAP1 POP PUSH2 0x27F0 JUMP JUMPDEST POP POP POP SWAP4 SWAP3 POP POP POP JUMP JUMPDEST PUSH1 0x0 DUP2 CALLDATALOAD SWAP1 POP PUSH2 0x2836 DUP2 PUSH2 0x3586 JUMP JUMPDEST SWAP3 SWAP2 POP POP JUMP JUMPDEST PUSH1 0x0 DUP3 PUSH1 0x1F DUP4 ADD SLT PUSH2 0x284D JUMPI PUSH1 0x0 DUP1 REVERT JUMPDEST DUP2 MLOAD PUSH2 0x285D DUP5 DUP3 PUSH1 0x20 DUP7 ADD PUSH2 0x27BB JUMP JUMPDEST SWAP2 POP POP SWAP3 SWAP2 POP POP JUMP JUMPDEST PUSH1 0x0 DUP2 MLOAD SWAP1 POP PUSH2 0x2875 DUP2 PUSH2 0x359D JUMP JUMPDEST SWAP3 SWAP2 POP POP JUMP JUMPDEST PUSH1 0x0 DUP2 CALLDATALOAD SWAP1 POP PUSH2 0x288A DUP2 PUSH2 0x35B4 JUMP JUMPDEST SWAP3 SWAP2 POP POP JUMP JUMPDEST PUSH1 0x0 DUP2 MLOAD SWAP1 POP PUSH2 0x289F DUP2 PUSH2 0x35B4 JUMP JUMPDEST SWAP3 SWAP2 POP POP JUMP JUMPDEST PUSH1 0x0 PUSH1 0x20 DUP3 DUP5 SUB SLT ISZERO PUSH2 0x28B7 JUMPI PUSH1 0x0 DUP1 REVERT JUMPDEST PUSH1 0x0 PUSH2 0x28C5 DUP5 DUP3 DUP6 ADD PUSH2 0x2827 JUMP JUMPDEST SWAP2 POP POP SWAP3 SWAP2 POP POP JUMP JUMPDEST PUSH1 0x0 DUP1 PUSH1 0x40 DUP4 DUP6 SUB SLT ISZERO PUSH2 0x28E1 JUMPI PUSH1 0x0 DUP1 REVERT JUMPDEST PUSH1 0x0 PUSH2 0x28EF DUP6 DUP3 DUP7 ADD PUSH2 0x2827 JUMP JUMPDEST SWAP3 POP POP PUSH1 0x20 PUSH2 0x2900 DUP6 DUP3 DUP7 ADD PUSH2 0x287B JUMP JUMPDEST SWAP2 POP POP SWAP3 POP SWAP3 SWAP1 POP JUMP JUMPDEST PUSH1 0x0 PUSH1 0x20 DUP3 DUP5 SUB SLT ISZERO PUSH2 0x291C JUMPI PUSH1 0x0 DUP1 REVERT JUMPDEST PUSH1 0x0 DUP3 ADD MLOAD PUSH8 0xFFFFFFFFFFFFFFFF DUP2 GT ISZERO PUSH2 0x2936 JUMPI PUSH1 0x0 DUP1 REVERT JUMPDEST PUSH2 0x2942 DUP5 DUP3 DUP6 ADD PUSH2 0x283C JUMP JUMPDEST SWAP2 POP POP SWAP3 SWAP2 POP POP JUMP JUMPDEST PUSH1 0x0 PUSH1 0x20 DUP3 DUP5 SUB SLT ISZERO PUSH2 0x295D JUMPI PUSH1 0x0 DUP1 REVERT JUMPDEST PUSH1 0x0 PUSH2 0x296B DUP5 DUP3 DUP6 ADD PUSH2 0x2866 JUMP JUMPDEST SWAP2 POP POP SWAP3 SWAP2 POP POP JUMP JUMPDEST PUSH1 0x0 PUSH1 0x20 DUP3 DUP5 SUB SLT ISZERO PUSH2 0x2986 JUMPI PUSH1 0x0 DUP1 REVERT JUMPDEST PUSH1 0x0 PUSH2 0x2994 DUP5 DUP3 DUP6 ADD PUSH2 0x287B JUMP JUMPDEST SWAP2 POP POP SWAP3 SWAP2 POP POP JUMP JUMPDEST PUSH1 0x0 DUP1 PUSH1 0x40 DUP4 DUP6 SUB SLT ISZERO PUSH2 0x29B0 JUMPI PUSH1 0x0 DUP1 REVERT JUMPDEST PUSH1 0x0 PUSH2 0x29BE DUP6 DUP3 DUP7 ADD PUSH2 0x287B JUMP JUMPDEST SWAP3 POP POP PUSH1 0x20 PUSH2 0x29CF DUP6 DUP3 DUP7 ADD PUSH2 0x287B JUMP JUMPDEST SWAP2 POP POP SWAP3 POP SWAP3 SWAP1 POP JUMP JUMPDEST PUSH1 0x0 DUP1 PUSH1 0x0 PUSH1 0x60 DUP5 DUP7 SUB SLT ISZERO PUSH2 0x29EE JUMPI PUSH1 0x0 DUP1 REVERT JUMPDEST PUSH1 0x0 PUSH2 0x29FC DUP7 DUP3 DUP8 ADD PUSH2 0x287B JUMP JUMPDEST SWAP4 POP POP PUSH1 0x20 PUSH2 0x2A0D DUP7 DUP3 DUP8 ADD PUSH2 0x287B JUMP JUMPDEST SWAP3 POP POP PUSH1 0x40 PUSH2 0x2A1E DUP7 DUP3 DUP8 ADD PUSH2 0x287B JUMP JUMPDEST SWAP2 POP POP SWAP3 POP SWAP3 POP SWAP3 JUMP JUMPDEST PUSH1 0x0 PUSH2 0x2A34 DUP4 DUP4 PUSH2 0x2A40 JUMP JUMPDEST PUSH1 0x20 DUP4 ADD SWAP1 POP SWAP3 SWAP2 POP POP JUMP JUMPDEST PUSH2 0x2A49 DUP2 PUSH2 0x3458 JUMP JUMPDEST DUP3 MSTORE POP POP JUMP JUMPDEST PUSH2 0x2A58 DUP2 PUSH2 0x3458 JUMP JUMPDEST DUP3 MSTORE POP POP JUMP JUMPDEST PUSH1 0x0 PUSH2 0x2A69 DUP3 PUSH2 0x32E9 JUMP JUMPDEST PUSH2 0x2A73 DUP2 DUP6 PUSH2 0x3301 JUMP JUMPDEST SWAP4 POP PUSH2 0x2A7E DUP4 PUSH2 0x32D4 JUMP JUMPDEST DUP1 PUSH1 0x0 JUMPDEST DUP4 DUP2 LT ISZERO PUSH2 0x2AB6 JUMPI PUSH2 0x2A93 DUP3 PUSH2 0x3566 JUMP JUMPDEST PUSH2 0x2A9D DUP9 DUP3 PUSH2 0x2A28 JUMP JUMPDEST SWAP8 POP PUSH2 0x2AA8 DUP4 PUSH2 0x32F4 JUMP JUMPDEST SWAP3 POP POP PUSH1 0x1 DUP2 ADD SWAP1 POP PUSH2 0x2A82 JUMP JUMPDEST POP DUP6 SWAP4 POP POP POP POP SWAP3 SWAP2 POP POP JUMP JUMPDEST PUSH2 0x2ACC DUP2 PUSH2 0x3476 JUMP JUMPDEST DUP3 MSTORE POP POP JUMP JUMPDEST PUSH2 0x2ADB DUP2 PUSH2 0x34AD JUMP JUMPDEST DUP3 MSTORE POP POP JUMP JUMPDEST PUSH1 0x0 PUSH2 0x2AEE PUSH1 0x26 DUP4 PUSH2 0x3312 JUMP JUMPDEST SWAP2 POP PUSH32 0x4F776E61626C653A206E6577206F776E657220697320746865207A65726F2061 PUSH1 0x0 DUP4 ADD MSTORE PUSH32 0x6464726573730000000000000000000000000000000000000000000000000000 PUSH1 0x20 DUP4 ADD MSTORE PUSH1 0x40 DUP3 ADD SWAP1 POP SWAP2 SWAP1 POP JUMP JUMPDEST PUSH1 0x0 PUSH2 0x2B54 PUSH1 0x18 DUP4 PUSH2 0x3312 JUMP JUMPDEST SWAP2 POP PUSH32 0x6C69714665655368617265206F7574206F662072616E67650000000000000000 PUSH1 0x0 DUP4 ADD MSTORE PUSH1 0x20 DUP3 ADD SWAP1 POP SWAP2 SWAP1 POP JUMP JUMPDEST PUSH1 0x0 PUSH2 0x2B94 PUSH1 0x30 DUP4 PUSH2 0x3312 JUMP JUMPDEST SWAP2 POP PUSH32 0x7769746864726177206C657373206F6620636F6C6C61746572616C2072617469 PUSH1 0x0 DUP4 ADD MSTORE PUSH32 0x6F206265636F6D657320756E7361666500000000000000000000000000000000 PUSH1 0x20 DUP4 ADD MSTORE PUSH1 0x40 DUP3 ADD SWAP1 POP SWAP2 SWAP1 POP JUMP JUMPDEST PUSH1 0x0 PUSH2 0x2BFA PUSH1 0x18 DUP4 PUSH2 0x3312 JUMP JUMPDEST SWAP2 POP PUSH32 0x7769746864726177207472616E73666572206661696C65640000000000000000 PUSH1 0x0 DUP4 ADD MSTORE PUSH1 0x20 DUP3 ADD SWAP1 POP SWAP2 SWAP1 POP JUMP JUMPDEST PUSH1 0x0 PUSH2 0x2C3A PUSH1 0x20 DUP4 PUSH2 0x3312 JUMP JUMPDEST SWAP2 POP PUSH32 0x78535553484920636F6E7472616374206E6F74207A65726F2061646472657373 PUSH1 0x0 DUP4 ADD MSTORE PUSH1 0x20 DUP3 ADD SWAP1 POP SWAP2 SWAP1 POP JUMP JUMPDEST PUSH1 0x0 PUSH2 0x2C7A PUSH1 0x29 DUP4 PUSH2 0x3312 JUMP JUMPDEST SWAP2 POP PUSH32 0x626F72726F77207468726573686F6C64206D757374206265203E207363616C69 PUSH1 0x0 DUP4 ADD MSTORE PUSH32 0x6E6720666163746F720000000000000000000000000000000000000000000000 PUSH1 0x20 DUP4 ADD MSTORE PUSH1 0x40 DUP3 ADD SWAP1 POP SWAP2 SWAP1 POP JUMP JUMPDEST PUSH1 0x0 PUSH2 0x2CE0 PUSH1 0x27 DUP4 PUSH2 0x3312 JUMP JUMPDEST SWAP2 POP PUSH32 0x636F6C6C61746572616C20726174696F206973203C3D20626F72726F77207468 PUSH1 0x0 DUP4 ADD MSTORE PUSH32 0x726573686F6C6400000000000000000000000000000000000000000000000000 PUSH1 0x20 DUP4 ADD MSTORE PUSH1 0x40 DUP3 ADD SWAP1 POP SWAP2 SWAP1 POP JUMP JUMPDEST PUSH1 0x0 PUSH2 0x2D46 PUSH1 0x1E DUP4 PUSH2 0x3312 JUMP JUMPDEST SWAP2 POP PUSH32 0x7573647A20636F6E7472616374206E6F74207A65726F20616464726573730000 PUSH1 0x0 DUP4 ADD MSTORE PUSH1 0x20 DUP3 ADD SWAP1 POP SWAP2 SWAP1 POP JUMP JUMPDEST PUSH1 0x0 PUSH2 0x2D86 PUSH1 0x20 DUP4 PUSH2 0x3312 JUMP JUMPDEST SWAP2 POP PUSH32 0x4F776E61626C653A2063616C6C6572206973206E6F7420746865206F776E6572 PUSH1 0x0 DUP4 ADD MSTORE PUSH1 0x20 DUP3 ADD SWAP1 POP SWAP2 SWAP1 POP JUMP JUMPDEST PUSH1 0x0 PUSH2 0x2DC6 PUSH1 0x18 DUP4 PUSH2 0x3312 JUMP JUMPDEST SWAP2 POP PUSH32 0x6C6971546F74616C466565206F7574206F662072616E67650000000000000000 PUSH1 0x0 DUP4 ADD MSTORE PUSH1 0x20 DUP3 ADD SWAP1 POP SWAP2 SWAP1 POP JUMP JUMPDEST PUSH1 0x0 PUSH2 0x2E06 PUSH1 0x0 DUP4 PUSH2 0x3312 JUMP JUMPDEST SWAP2 POP PUSH1 0x0 DUP3 ADD SWAP1 POP SWAP2 SWAP1 POP JUMP JUMPDEST PUSH1 0x0 PUSH2 0x2E20 PUSH1 0xE DUP4 PUSH2 0x3312 JUMP JUMPDEST SWAP2 POP PUSH32 0x6465706F736974206661696C6564000000000000000000000000000000000000 PUSH1 0x0 DUP4 ADD MSTORE PUSH1 0x20 DUP3 ADD SWAP1 POP SWAP2 SWAP1 POP JUMP JUMPDEST PUSH1 0x0 PUSH2 0x2E60 PUSH1 0x19 DUP4 PUSH2 0x3312 JUMP JUMPDEST SWAP2 POP PUSH32 0x696E74657265737452617465206F7574206F662072616E676500000000000000 PUSH1 0x0 DUP4 ADD MSTORE PUSH1 0x20 DUP3 ADD SWAP1 POP SWAP2 SWAP1 POP JUMP JUMPDEST PUSH1 0x0 PUSH2 0x2EA0 PUSH1 0x26 DUP4 PUSH2 0x3312 JUMP JUMPDEST SWAP2 POP PUSH32 0x6C6971207468726573686F6C64206D757374206265203E207363616C696E6720 PUSH1 0x0 DUP4 ADD MSTORE PUSH32 0x666163746F720000000000000000000000000000000000000000000000000000 PUSH1 0x20 DUP4 ADD MSTORE PUSH1 0x40 DUP3 ADD SWAP1 POP SWAP2 SWAP1 POP JUMP JUMPDEST PUSH1 0x0 PUSH2 0x2F06 PUSH1 0x20 DUP4 PUSH2 0x3312 JUMP JUMPDEST SWAP2 POP PUSH32 0x6E6F7420656E6F75676820636F6C6C61746572616C20696E206163636F756E74 PUSH1 0x0 DUP4 ADD MSTORE PUSH1 0x20 DUP3 ADD SWAP1 POP SWAP2 SWAP1 POP JUMP JUMPDEST PUSH2 0x2F42 DUP2 PUSH2 0x34A3 JUMP JUMPDEST DUP3 MSTORE POP POP JUMP JUMPDEST PUSH1 0x0 PUSH1 0x20 DUP3 ADD SWAP1 POP PUSH2 0x2F5D PUSH1 0x0 DUP4 ADD DUP5 PUSH2 0x2A4F JUMP JUMPDEST SWAP3 SWAP2 POP POP JUMP JUMPDEST PUSH1 0x0 PUSH1 0x60 DUP3 ADD SWAP1 POP PUSH2 0x2F78 PUSH1 0x0 DUP4 ADD DUP7 PUSH2 0x2A4F JUMP JUMPDEST PUSH2 0x2F85 PUSH1 0x20 DUP4 ADD DUP6 PUSH2 0x2A4F JUMP JUMPDEST PUSH2 0x2F92 PUSH1 0x40 DUP4 ADD DUP5 PUSH2 0x2F39 JUMP JUMPDEST SWAP5 SWAP4 POP POP POP POP JUMP JUMPDEST PUSH1 0x0 PUSH1 0x40 DUP3 ADD SWAP1 POP PUSH2 0x2FAF PUSH1 0x0 DUP4 ADD DUP6 PUSH2 0x2A4F JUMP JUMPDEST PUSH2 0x2FBC PUSH1 0x20 DUP4 ADD DUP5 PUSH2 0x2F39 JUMP JUMPDEST SWAP4 SWAP3 POP POP POP JUMP JUMPDEST PUSH1 0x0 PUSH1 0x20 DUP3 ADD SWAP1 POP PUSH2 0x2FD8 PUSH1 0x0 DUP4 ADD DUP5 PUSH2 0x2AC3 JUMP JUMPDEST SWAP3 SWAP2 POP POP JUMP JUMPDEST PUSH1 0x0 PUSH1 0x60 DUP3 ADD SWAP1 POP PUSH2 0x2FF3 PUSH1 0x0 DUP4 ADD DUP7 PUSH2 0x2AD2 JUMP JUMPDEST PUSH2 0x3000 PUSH1 0x20 DUP4 ADD DUP6 PUSH2 0x2AD2 JUMP JUMPDEST PUSH2 0x300D PUSH1 0x40 DUP4 ADD DUP5 PUSH2 0x2AD2 JUMP JUMPDEST SWAP5 SWAP4 POP POP POP POP JUMP JUMPDEST PUSH1 0x0 PUSH1 0x20 DUP3 ADD SWAP1 POP DUP2 DUP2 SUB PUSH1 0x0 DUP4 ADD MSTORE PUSH2 0x302E DUP2 PUSH2 0x2AE1 JUMP JUMPDEST SWAP1 POP SWAP2 SWAP1 POP JUMP JUMPDEST PUSH1 0x0 PUSH1 0x20 DUP3 ADD SWAP1 POP DUP2 DUP2 SUB PUSH1 0x0 DUP4 ADD MSTORE PUSH2 0x304E DUP2 PUSH2 0x2B47 JUMP JUMPDEST SWAP1 POP SWAP2 SWAP1 POP JUMP JUMPDEST PUSH1 0x0 PUSH1 0x20 DUP3 ADD SWAP1 POP DUP2 DUP2 SUB PUSH1 0x0 DUP4 ADD MSTORE PUSH2 0x306E DUP2 PUSH2 0x2B87 JUMP JUMPDEST SWAP1 POP SWAP2 SWAP1 POP JUMP JUMPDEST PUSH1 0x0 PUSH1 0x20 DUP3 ADD SWAP1 POP DUP2 DUP2 SUB PUSH1 0x0 DUP4 ADD MSTORE PUSH2 0x308E DUP2 PUSH2 0x2BED JUMP JUMPDEST SWAP1 POP SWAP2 SWAP1 POP JUMP JUMPDEST PUSH1 0x0 PUSH1 0x20 DUP3 ADD SWAP1 POP DUP2 DUP2 SUB PUSH1 0x0 DUP4 ADD MSTORE PUSH2 0x30AE DUP2 PUSH2 0x2C2D JUMP JUMPDEST SWAP1 POP SWAP2 SWAP1 POP JUMP JUMPDEST PUSH1 0x0 PUSH1 0x20 DUP3 ADD SWAP1 POP DUP2 DUP2 SUB PUSH1 0x0 DUP4 ADD MSTORE PUSH2 0x30CE DUP2 PUSH2 0x2C6D JUMP JUMPDEST SWAP1 POP SWAP2 SWAP1 POP JUMP JUMPDEST PUSH1 0x0 PUSH1 0x20 DUP3 ADD SWAP1 POP DUP2 DUP2 SUB PUSH1 0x0 DUP4 ADD MSTORE PUSH2 0x30EE DUP2 PUSH2 0x2CD3 JUMP JUMPDEST SWAP1 POP SWAP2 SWAP1 POP JUMP JUMPDEST PUSH1 0x0 PUSH1 0x20 DUP3 ADD SWAP1 POP DUP2 DUP2 SUB PUSH1 0x0 DUP4 ADD MSTORE PUSH2 0x310E DUP2 PUSH2 0x2D39 JUMP JUMPDEST SWAP1 POP SWAP2 SWAP1 POP JUMP JUMPDEST PUSH1 0x0 PUSH1 0x20 DUP3 ADD SWAP1 POP DUP2 DUP2 SUB PUSH1 0x0 DUP4 ADD MSTORE PUSH2 0x312E DUP2 PUSH2 0x2D79 JUMP JUMPDEST SWAP1 POP SWAP2 SWAP1 POP JUMP JUMPDEST PUSH1 0x0 PUSH1 0x20 DUP3 ADD SWAP1 POP DUP2 DUP2 SUB PUSH1 0x0 DUP4 ADD MSTORE PUSH2 0x314E DUP2 PUSH2 0x2DB9 JUMP JUMPDEST SWAP1 POP SWAP2 SWAP1 POP JUMP JUMPDEST PUSH1 0x0 PUSH1 0x20 DUP3 ADD SWAP1 POP DUP2 DUP2 SUB PUSH1 0x0 DUP4 ADD MSTORE PUSH2 0x316E DUP2 PUSH2 0x2DF9 JUMP JUMPDEST SWAP1 POP SWAP2 SWAP1 POP JUMP JUMPDEST PUSH1 0x0 PUSH1 0x20 DUP3 ADD SWAP1 POP DUP2 DUP2 SUB PUSH1 0x0 DUP4 ADD MSTORE PUSH2 0x318E DUP2 PUSH2 0x2E13 JUMP JUMPDEST SWAP1 POP SWAP2 SWAP1 POP JUMP JUMPDEST PUSH1 0x0 PUSH1 0x20 DUP3 ADD SWAP1 POP DUP2 DUP2 SUB PUSH1 0x0 DUP4 ADD MSTORE PUSH2 0x31AE DUP2 PUSH2 0x2E53 JUMP JUMPDEST SWAP1 POP SWAP2 SWAP1 POP JUMP JUMPDEST PUSH1 0x0 PUSH1 0x20 DUP3 ADD SWAP1 POP DUP2 DUP2 SUB PUSH1 0x0 DUP4 ADD MSTORE PUSH2 0x31CE DUP2 PUSH2 0x2E93 JUMP JUMPDEST SWAP1 POP SWAP2 SWAP1 POP JUMP JUMPDEST PUSH1 0x0 PUSH1 0x20 DUP3 ADD SWAP1 POP DUP2 DUP2 SUB PUSH1 0x0 DUP4 ADD MSTORE PUSH2 0x31EE DUP2 PUSH2 0x2EF9 JUMP JUMPDEST SWAP1 POP SWAP2 SWAP1 POP JUMP JUMPDEST PUSH1 0x0 PUSH1 0x20 DUP3 ADD SWAP1 POP PUSH2 0x320A PUSH1 0x0 DUP4 ADD DUP5 PUSH2 0x2F39 JUMP JUMPDEST SWAP3 SWAP2 POP POP JUMP JUMPDEST PUSH1 0x0 PUSH1 0x40 DUP3 ADD SWAP1 POP PUSH2 0x3225 PUSH1 0x0 DUP4 ADD DUP6 PUSH2 0x2F39 JUMP JUMPDEST DUP2 DUP2 SUB PUSH1 0x20 DUP4 ADD MSTORE PUSH2 0x3237 DUP2 DUP5 PUSH2 0x2A5E JUMP JUMPDEST SWAP1 POP SWAP4 SWAP3 POP POP POP JUMP JUMPDEST PUSH1 0x0 PUSH1 0x60 DUP3 ADD SWAP1 POP PUSH2 0x3255 PUSH1 0x0 DUP4 ADD DUP7 PUSH2 0x2F39 JUMP JUMPDEST PUSH2 0x3262 PUSH1 0x20 DUP4 ADD DUP6 PUSH2 0x2AD2 JUMP JUMPDEST PUSH2 0x326F PUSH1 0x40 DUP4 ADD DUP5 PUSH2 0x2AD2 JUMP JUMPDEST SWAP5 SWAP4 POP POP POP POP JUMP JUMPDEST PUSH1 0x0 PUSH1 0x40 MLOAD SWAP1 POP DUP2 DUP2 ADD DUP2 DUP2 LT PUSH8 0xFFFFFFFFFFFFFFFF DUP3 GT OR ISZERO PUSH2 0x329E JUMPI PUSH2 0x329D PUSH2 0x3537 JUMP JUMPDEST JUMPDEST DUP1 PUSH1 0x40 MSTORE POP SWAP2 SWAP1 POP JUMP JUMPDEST PUSH1 0x0 PUSH8 0xFFFFFFFFFFFFFFFF DUP3 GT ISZERO PUSH2 0x32C3 JUMPI PUSH2 0x32C2 PUSH2 0x3537 JUMP JUMPDEST JUMPDEST PUSH1 0x20 DUP3 MUL SWAP1 POP PUSH1 0x20 DUP2 ADD SWAP1 POP SWAP2 SWAP1 POP JUMP JUMPDEST PUSH1 0x0 DUP2 SWAP1 POP DUP2 PUSH1 0x0 MSTORE PUSH1 0x20 PUSH1 0x0 KECCAK256 SWAP1 POP SWAP2 SWAP1 POP JUMP JUMPDEST PUSH1 0x0 DUP2 SLOAD SWAP1 POP SWAP2 SWAP1 POP JUMP JUMPDEST PUSH1 0x0 PUSH1 0x1 DUP3 ADD SWAP1 POP SWAP2 SWAP1 POP JUMP JUMPDEST PUSH1 0x0 DUP3 DUP3 MSTORE PUSH1 0x20 DUP3 ADD SWAP1 POP SWAP3 SWAP2 POP POP JUMP JUMPDEST PUSH1 0x0 DUP3 DUP3 MSTORE PUSH1 0x20 DUP3 ADD SWAP1 POP SWAP3 SWAP2 POP POP JUMP JUMPDEST PUSH1 0x0 PUSH2 0x332E DUP3 PUSH2 0x34A3 JUMP JUMPDEST SWAP2 POP PUSH2 0x3339 DUP4 PUSH2 0x34A3 JUMP JUMPDEST SWAP3 POP DUP3 PUSH32 0xFFFFFFFFFFFFFFFFFFFFFFFFFFFFFFFFFFFFFFFFFFFFFFFFFFFFFFFFFFFFFFFF SUB DUP3 GT ISZERO PUSH2 0x336E JUMPI PUSH2 0x336D PUSH2 0x34D9 JUMP JUMPDEST JUMPDEST DUP3 DUP3 ADD SWAP1 POP SWAP3 SWAP2 POP POP JUMP JUMPDEST PUSH1 0x0 PUSH2 0x3384 DUP3 PUSH2 0x34A3 JUMP JUMPDEST SWAP2 POP PUSH2 0x338F DUP4 PUSH2 0x34A3 JUMP JUMPDEST SWAP3 POP DUP3 PUSH2 0x339F JUMPI PUSH2 0x339E PUSH2 0x3508 JUMP JUMPDEST JUMPDEST DUP3 DUP3 DIV SWAP1 POP SWAP3 SWAP2 POP POP JUMP JUMPDEST PUSH1 0x0 PUSH2 0x33B5 DUP3 PUSH2 0x34A3 JUMP JUMPDEST SWAP2 POP PUSH2 0x33C0 DUP4 PUSH2 0x34A3 JUMP JUMPDEST SWAP3 POP DUP2 PUSH32 0xFFFFFFFFFFFFFFFFFFFFFFFFFFFFFFFFFFFFFFFFFFFFFFFFFFFFFFFFFFFFFFFF DIV DUP4 GT DUP3 ISZERO ISZERO AND ISZERO PUSH2 0x33F9 JUMPI PUSH2 0x33F8 PUSH2 0x34D9 JUMP JUMPDEST JUMPDEST DUP3 DUP3 MUL SWAP1 POP SWAP3 SWAP2 POP POP JUMP JUMPDEST PUSH1 0x0 PUSH2 0x340F DUP3 PUSH2 0x34A3 JUMP JUMPDEST SWAP2 POP PUSH2 0x341A DUP4 PUSH2 0x34A3 JUMP JUMPDEST SWAP3 POP DUP3 DUP3 LT ISZERO PUSH2 0x342D JUMPI PUSH2 0x342C PUSH2 0x34D9 JUMP JUMPDEST JUMPDEST DUP3 DUP3 SUB SWAP1 POP SWAP3 SWAP2 POP POP JUMP JUMPDEST PUSH1 0x0 PUSH20 0xFFFFFFFFFFFFFFFFFFFFFFFFFFFFFFFFFFFFFFFF DUP3 AND SWAP1 POP SWAP2 SWAP1 POP JUMP JUMPDEST PUSH1 0x0 PUSH2 0x3463 DUP3 PUSH2 0x3483 JUMP JUMPDEST SWAP1 POP SWAP2 SWAP1 POP JUMP JUMPDEST PUSH1 0x0 DUP2 ISZERO ISZERO SWAP1 POP SWAP2 SWAP1 POP JUMP JUMPDEST PUSH1 0x0 DUP2 PUSH1 0xF SIGNEXTEND SWAP1 POP SWAP2 SWAP1 POP JUMP JUMPDEST PUSH1 0x0 PUSH20 0xFFFFFFFFFFFFFFFFFFFFFFFFFFFFFFFFFFFFFFFF DUP3 AND SWAP1 POP SWAP2 SWAP1 POP JUMP JUMPDEST PUSH1 0x0 DUP2 SWAP1 POP SWAP2 SWAP1 POP JUMP JUMPDEST PUSH1 0x0 PUSH2 0x34B8 DUP3 PUSH2 0x34A3 JUMP JUMPDEST SWAP1 POP SWAP2 SWAP1 POP JUMP JUMPDEST PUSH1 0x0 PUSH2 0x34D2 PUSH2 0x34CD DUP4 PUSH2 0x3579 JUMP JUMPDEST PUSH2 0x3438 JUMP JUMPDEST SWAP1 POP SWAP2 SWAP1 POP JUMP JUMPDEST PUSH32 0x4E487B7100000000000000000000000000000000000000000000000000000000 PUSH1 0x0 MSTORE PUSH1 0x11 PUSH1 0x4 MSTORE PUSH1 0x24 PUSH1 0x0 REVERT JUMPDEST PUSH32 0x4E487B7100000000000000000000000000000000000000000000000000000000 PUSH1 0x0 MSTORE PUSH1 0x12 PUSH1 0x4 MSTORE PUSH1 0x24 PUSH1 0x0 REVERT JUMPDEST PUSH32 0x4E487B7100000000000000000000000000000000000000000000000000000000 PUSH1 0x0 MSTORE PUSH1 0x41 PUSH1 0x4 MSTORE PUSH1 0x24 PUSH1 0x0 REVERT JUMPDEST PUSH1 0x0 PUSH2 0x3572 DUP3 SLOAD PUSH2 0x34BF JUMP JUMPDEST SWAP1 POP SWAP2 SWAP1 POP JUMP JUMPDEST PUSH1 0x0 DUP2 PUSH1 0x0 SHR SWAP1 POP SWAP2 SWAP1 POP JUMP JUMPDEST PUSH2 0x358F DUP2 PUSH2 0x3458 JUMP JUMPDEST DUP2 EQ PUSH2 0x359A JUMPI PUSH1 0x0 DUP1 REVERT JUMPDEST POP JUMP JUMPDEST PUSH2 0x35A6 DUP2 PUSH2 0x346A JUMP JUMPDEST DUP2 EQ PUSH2 0x35B1 JUMPI PUSH1 0x0 DUP1 REVERT JUMPDEST POP JUMP JUMPDEST PUSH2 0x35BD DUP2 PUSH2 0x34A3 JUMP JUMPDEST DUP2 EQ PUSH2 0x35C8 JUMPI PUSH1 0x0 DUP1 REVERT JUMPDEST POP JUMP INVALID LOG2 PUSH5 0x6970667358 0x22 SLT KECCAK256 PUSH21 0x739827CDB144F65A20018AC350EC8B57595FAC3AA9 DUP1 PUSH8 0x829310ECBF68C49E PUSH5 0x736F6C6343 STOP ADDMOD STOP STOP CALLER "
        },
        "methodIdentifiers": {
          "SCALING_FACTOR()": "ef4cadc5",
          "SECONDS_IN_YEAR()": "5dcc9391",
          "borrow(uint256)": "c5ebeaec",
          "borrowThreshold()": "5ae547e3",
          "calcInterest(address)": "69cb89c7",
          "deposit(uint256)": "b6b55f25",
          "getCurrentCollateralRatio(address)": "daf5539e",
          "getForwardCollateralRatio(address,uint256)": "7046b7a9",
          "interestRate()": "7c3a00fd",
          "liquidate(address)": "2f865568",
          "liquidationFee()": "a36a3630",
          "liquidationThreshold()": "4031234c",
          "liquidatorFeeShare()": "54054808",
          "owner()": "8da5cb5b",
          "protocolShortfall()": "af1f556f",
          "renounceOwnership()": "715018a6",
          "repay(uint256)": "371fd8e6",
          "setFeesAndRates(uint256,uint256,uint256)": "bfaf48d4",
          "setThresholds(uint256,uint256)": "e3064a77",
          "setUSDZAddress(address)": "8f6ba29a",
          "setXSUSHIAddress(address)": "8456b755",
          "sushiRouterAddress()": "79bbce8f",
          "transferOwnership(address)": "f2fde38b",
          "usdcAddress()": "02d45457",
          "usdzAddress()": "20bdf800",
          "withdraw(uint256)": "2e1a7d4d",
          "xSushiAddress()": "bdfccad3",
          "xSushiToUsdcPath(uint256)": "4a63a5ce"
        }
      }
    }
  }
}