{
  "_format": "hh-sol-artifact-1",
  "contractName": "Swapper",
  "sourceName": "contracts/Swapper.sol",
  "abi": [
    {
      "inputs": [],
      "stateMutability": "nonpayable",
      "type": "constructor"
    },
    {
      "inputs": [
        {
          "internalType": "uint256",
          "name": "_usdcAmount",
          "type": "uint256"
        }
      ],
      "name": "swapUSDCforUSDZ",
      "outputs": [],
      "stateMutability": "nonpayable",
      "type": "function"
    },
    {
      "inputs": [
        {
          "internalType": "uint256",
          "name": "_usdzAmount",
          "type": "uint256"
        }
      ],
      "name": "swapUSDZforUSDC",
      "outputs": [],
      "stateMutability": "nonpayable",
      "type": "function"
    }
  ],
  "bytecode": "0x608060405234801561001057600080fd5b5060fa8061001f6000396000f3fe6080604052348015600f57600080fd5b506004361060325760003560e01c80631d89b103146037578063cde5f67214604f575b600080fd5b604d6004803603810190604991906080565b6067565b005b60656004803603810190606191906080565b606a565b005b50565b50565b600081359050607a8160b0565b92915050565b600060208284031215609157600080fd5b6000609d84828501606d565b91505092915050565b6000819050919050565b60b78160a6565b811460c157600080fd5b5056fea26469706673582212202fbeb36401477aeadd70d2e0cd21f1782cbee0cbc3298a3aba31fad51b6ef2a364736f6c63430008000033",
  "linkReferences": {},
  "deployedLinkReferences": {}
}