{
  "_format": "hh-sol-artifact-1",
  "contractName": "Controller",
  "sourceName": "contracts/Controller.sol",
  "abi": [
    {
      "inputs": [
        {
          "internalType": "address",
          "name": "_usdzAddress",
          "type": "address"
        },
        {
          "internalType": "address",
          "name": "_usdcAddress",
          "type": "address"
        },
        {
          "internalType": "address",
          "name": "_xSushiAddress",
          "type": "address"
        },
        {
          "internalType": "address",
          "name": "_routerAddress",
          "type": "address"
        },
        {
          "internalType": "uint256",
          "name": "_liqTotalFee",
          "type": "uint256"
        },
        {
          "internalType": "uint256",
          "name": "_liqFeeShare",
          "type": "uint256"
        },
        {
          "internalType": "uint256",
          "name": "_interestRate",
          "type": "uint256"
        },
        {
          "internalType": "uint256",
          "name": "_borrowThreshold",
          "type": "uint256"
        },
        {
          "internalType": "uint256",
          "name": "_liqThreshold",
          "type": "uint256"
        }
      ],
      "stateMutability": "nonpayable",
      "type": "constructor"
    },
    {
      "anonymous": false,
      "inputs": [
        {
          "indexed": true,
          "internalType": "address",
          "name": "account",
          "type": "address"
        },
        {
          "indexed": false,
          "internalType": "uint256",
          "name": "amountBorrowed",
          "type": "uint256"
        },
        {
          "indexed": false,
          "internalType": "uint256",
          "name": "collateral",
          "type": "uint256"
        },
        {
          "indexed": false,
          "internalType": "uint256",
          "name": "totalDebt",
          "type": "uint256"
        }
      ],
      "name": "Borrow",
      "type": "event"
    },
    {
      "anonymous": false,
      "inputs": [
        {
          "indexed": true,
          "internalType": "address",
          "name": "account",
          "type": "address"
        },
        {
          "indexed": false,
          "internalType": "uint256",
          "name": "amount",
          "type": "uint256"
        }
      ],
      "name": "Deposit",
      "type": "event"
    },
    {
      "anonymous": false,
      "inputs": [
        {
          "indexed": true,
          "internalType": "address",
          "name": "account",
          "type": "address"
        },
        {
          "indexed": true,
          "internalType": "address",
          "name": "liquidator",
          "type": "address"
        },
        {
          "indexed": false,
          "internalType": "uint256",
          "name": "collateralLiquidated",
          "type": "uint256"
        },
        {
          "indexed": false,
          "internalType": "uint256",
          "name": "lastCollateralRatio",
          "type": "uint256"
        },
        {
          "indexed": false,
          "internalType": "uint256",
          "name": "lastDebtOutstanding",
          "type": "uint256"
        }
      ],
      "name": "Liquidation",
      "type": "event"
    },
    {
      "anonymous": false,
      "inputs": [
        {
          "indexed": true,
          "internalType": "address",
          "name": "previousOwner",
          "type": "address"
        },
        {
          "indexed": true,
          "internalType": "address",
          "name": "newOwner",
          "type": "address"
        }
      ],
      "name": "OwnershipTransferred",
      "type": "event"
    },
    {
      "anonymous": false,
      "inputs": [
        {
          "indexed": true,
          "internalType": "address",
          "name": "account",
          "type": "address"
        },
        {
          "indexed": false,
          "internalType": "uint256",
          "name": "debtRepaid",
          "type": "uint256"
        },
        {
          "indexed": false,
          "internalType": "uint256",
          "name": "debtRemaining",
          "type": "uint256"
        },
        {
          "indexed": false,
          "internalType": "uint256",
          "name": "collateral",
          "type": "uint256"
        }
      ],
      "name": "Repay",
      "type": "event"
    },
    {
      "anonymous": false,
      "inputs": [
        {
          "indexed": true,
          "internalType": "address",
          "name": "account",
          "type": "address"
        },
        {
          "indexed": false,
          "internalType": "uint256",
          "name": "amount",
          "type": "uint256"
        }
      ],
      "name": "Withdraw",
      "type": "event"
    },
    {
      "inputs": [],
      "name": "SCALING_FACTOR",
      "outputs": [
        {
          "internalType": "uint256",
          "name": "",
          "type": "uint256"
        }
      ],
      "stateMutability": "view",
      "type": "function"
    },
    {
      "inputs": [],
      "name": "SECONDS_IN_YEAR",
      "outputs": [
        {
          "internalType": "int128",
          "name": "",
          "type": "int128"
        }
      ],
      "stateMutability": "view",
      "type": "function"
    },
    {
      "inputs": [
        {
          "internalType": "uint256",
          "name": "_amount",
          "type": "uint256"
        }
      ],
      "name": "borrow",
      "outputs": [],
      "stateMutability": "nonpayable",
      "type": "function"
    },
    {
      "inputs": [],
      "name": "borrowThreshold",
      "outputs": [
        {
          "internalType": "uint256",
          "name": "",
          "type": "uint256"
        }
      ],
      "stateMutability": "view",
      "type": "function"
    },
    {
      "inputs": [
        {
          "internalType": "address",
          "name": "_account",
          "type": "address"
        }
      ],
      "name": "calcInterest",
      "outputs": [
        {
          "internalType": "uint256",
          "name": "interest",
          "type": "uint256"
        }
      ],
      "stateMutability": "view",
      "type": "function"
    },
    {
      "inputs": [
        {
          "internalType": "uint256",
          "name": "_amount",
          "type": "uint256"
        }
      ],
      "name": "deposit",
      "outputs": [],
      "stateMutability": "nonpayable",
      "type": "function"
    },
    {
      "inputs": [
        {
          "internalType": "address",
          "name": "_account",
          "type": "address"
        }
      ],
      "name": "getCurrentCollateralRatio",
      "outputs": [
        {
          "internalType": "uint256",
          "name": "",
          "type": "uint256"
        }
      ],
      "stateMutability": "view",
      "type": "function"
    },
    {
      "inputs": [
        {
          "internalType": "address",
          "name": "_account",
          "type": "address"
        },
        {
          "internalType": "uint256",
          "name": "_totalDebt",
          "type": "uint256"
        }
      ],
      "name": "getForwardCollateralRatio",
      "outputs": [
        {
          "internalType": "uint256",
          "name": "",
          "type": "uint256"
        }
      ],
      "stateMutability": "view",
      "type": "function"
    },
    {
      "inputs": [],
      "name": "interestRate",
      "outputs": [
        {
          "internalType": "uint256",
          "name": "",
          "type": "uint256"
        }
      ],
      "stateMutability": "view",
      "type": "function"
    },
    {
      "inputs": [
        {
          "internalType": "address",
          "name": "_account",
          "type": "address"
        }
      ],
      "name": "liquidate",
      "outputs": [],
      "stateMutability": "nonpayable",
      "type": "function"
    },
    {
      "inputs": [],
      "name": "liquidationFee",
      "outputs": [
        {
          "internalType": "uint256",
          "name": "",
          "type": "uint256"
        }
      ],
      "stateMutability": "view",
      "type": "function"
    },
    {
      "inputs": [],
      "name": "liquidationThreshold",
      "outputs": [
        {
          "internalType": "uint256",
          "name": "",
          "type": "uint256"
        }
      ],
      "stateMutability": "view",
      "type": "function"
    },
    {
      "inputs": [],
      "name": "liquidatorFeeShare",
      "outputs": [
        {
          "internalType": "uint256",
          "name": "",
          "type": "uint256"
        }
      ],
      "stateMutability": "view",
      "type": "function"
    },
    {
      "inputs": [],
      "name": "owner",
      "outputs": [
        {
          "internalType": "address",
          "name": "",
          "type": "address"
        }
      ],
      "stateMutability": "view",
      "type": "function"
    },
    {
      "inputs": [],
      "name": "protocolShortfall",
      "outputs": [
        {
          "internalType": "uint256",
          "name": "",
          "type": "uint256"
        }
      ],
      "stateMutability": "view",
      "type": "function"
    },
    {
      "inputs": [],
      "name": "renounceOwnership",
      "outputs": [],
      "stateMutability": "nonpayable",
      "type": "function"
    },
    {
      "inputs": [
        {
          "internalType": "uint256",
          "name": "_amount",
          "type": "uint256"
        }
      ],
      "name": "repay",
      "outputs": [],
      "stateMutability": "nonpayable",
      "type": "function"
    },
    {
      "inputs": [
        {
          "internalType": "uint256",
          "name": "_liqTotalFee",
          "type": "uint256"
        },
        {
          "internalType": "uint256",
          "name": "_liqFeeShare",
          "type": "uint256"
        },
        {
          "internalType": "uint256",
          "name": "_interestRate",
          "type": "uint256"
        }
      ],
      "name": "setFeesAndRates",
      "outputs": [],
      "stateMutability": "nonpayable",
      "type": "function"
    },
    {
      "inputs": [
        {
          "internalType": "uint256",
          "name": "_borrowThreshold",
          "type": "uint256"
        },
        {
          "internalType": "uint256",
          "name": "_liqThreshold",
          "type": "uint256"
        }
      ],
      "name": "setThresholds",
      "outputs": [],
      "stateMutability": "nonpayable",
      "type": "function"
    },
    {
      "inputs": [
        {
          "internalType": "address",
          "name": "_newAddress",
          "type": "address"
        }
      ],
      "name": "setUSDZAddress",
      "outputs": [],
      "stateMutability": "nonpayable",
      "type": "function"
    },
    {
      "inputs": [
        {
          "internalType": "address",
          "name": "_newAddress",
          "type": "address"
        }
      ],
      "name": "setXSUSHIAddress",
      "outputs": [],
      "stateMutability": "nonpayable",
      "type": "function"
    },
    {
      "inputs": [],
      "name": "sushiRouterAddress",
      "outputs": [
        {
          "internalType": "address",
          "name": "",
          "type": "address"
        }
      ],
      "stateMutability": "view",
      "type": "function"
    },
    {
      "inputs": [
        {
          "internalType": "address",
          "name": "newOwner",
          "type": "address"
        }
      ],
      "name": "transferOwnership",
      "outputs": [],
      "stateMutability": "nonpayable",
      "type": "function"
    },
    {
      "inputs": [],
      "name": "usdcAddress",
      "outputs": [
        {
          "internalType": "address",
          "name": "",
          "type": "address"
        }
      ],
      "stateMutability": "view",
      "type": "function"
    },
    {
      "inputs": [],
      "name": "usdzAddress",
      "outputs": [
        {
          "internalType": "address",
          "name": "",
          "type": "address"
        }
      ],
      "stateMutability": "view",
      "type": "function"
    },
    {
      "inputs": [
        {
          "internalType": "uint256",
          "name": "_amount",
          "type": "uint256"
        }
      ],
      "name": "withdraw",
      "outputs": [],
      "stateMutability": "nonpayable",
      "type": "function"
    },
    {
      "inputs": [],
      "name": "xSushiAddress",
      "outputs": [
        {
          "internalType": "address",
          "name": "",
          "type": "address"
        }
      ],
      "stateMutability": "view",
      "type": "function"
    },
    {
      "inputs": [
        {
          "internalType": "uint256",
          "name": "",
          "type": "uint256"
        }
      ],
      "name": "xSushiToUsdcPath",
      "outputs": [
        {
          "internalType": "address",
          "name": "",
          "type": "address"
        }
      ],
      "stateMutability": "view",
      "type": "function"
    }
  ],
  "bytecode": "0x60806040523480156200001157600080fd5b5060405162003c6a38038062003c6a83398181016040528101906200003791906200050e565b6000620000496200040660201b60201c565b9050806000806101000a81548173ffffffffffffffffffffffffffffffffffffffff021916908373ffffffffffffffffffffffffffffffffffffffff1602179055508073ffffffffffffffffffffffffffffffffffffffff16600073ffffffffffffffffffffffffffffffffffffffff167f8be0079c531659141344cd1fd0a4f28419497f9722a3daafe3b4186f6b6457e060405160405180910390a35088600360006101000a81548173ffffffffffffffffffffffffffffffffffffffff021916908373ffffffffffffffffffffffffffffffffffffffff16021790555087600460006101000a81548173ffffffffffffffffffffffffffffffffffffffff021916908373ffffffffffffffffffffffffffffffffffffffff16021790555086600560006101000a81548173ffffffffffffffffffffffffffffffffffffffff021916908373ffffffffffffffffffffffffffffffffffffffff16021790555085600660006101000a81548173ffffffffffffffffffffffffffffffffffffffff021916908373ffffffffffffffffffffffffffffffffffffffff160217905550846008819055508360098190555082600a8190555081600b8190555080600c81905550600267ffffffffffffffff81111562000250577f4e487b7100000000000000000000000000000000000000000000000000000000600052604160045260246000fd5b6040519080825280602002602001820160405280156200027f5781602001602082028036833780820191505090505b50600790805190602001906200029792919062000432565b50866007600081548110620002d5577f4e487b7100000000000000000000000000000000000000000000000000000000600052603260045260246000fd5b9060005260206000200160006101000a81548173ffffffffffffffffffffffffffffffffffffffff021916908373ffffffffffffffffffffffffffffffffffffffff1602179055508760076001815481106200035a577f4e487b7100000000000000000000000000000000000000000000000000000000600052603260045260246000fd5b9060005260206000200160006101000a81548173ffffffffffffffffffffffffffffffffffffffff021916908373ffffffffffffffffffffffffffffffffffffffff160217905550620003bc6301e185586200040e60201b620017e91760201c565b600d60006101000a8154816fffffffffffffffffffffffffffffffff0219169083600f0b6fffffffffffffffffffffffffffffffff16021790555050505050505050505062000659565b600033905090565b6000677fffffffffffffff8211156200042657600080fd5b604082901b9050919050565b828054828255906000526020600020908101928215620004ae579160200282015b82811115620004ad5782518260006101000a81548173ffffffffffffffffffffffffffffffffffffffff021916908373ffffffffffffffffffffffffffffffffffffffff1602179055509160200191906001019062000453565b5b509050620004bd9190620004c1565b5090565b5b80821115620004dc576000816000905550600101620004c2565b5090565b600081519050620004f18162000625565b92915050565b60008151905062000508816200063f565b92915050565b60008060008060008060008060006101208a8c0312156200052e57600080fd5b60006200053e8c828d01620004e0565b9950506020620005518c828d01620004e0565b9850506040620005648c828d01620004e0565b9750506060620005778c828d01620004e0565b96505060806200058a8c828d01620004f7565b95505060a06200059d8c828d01620004f7565b94505060c0620005b08c828d01620004f7565b93505060e0620005c38c828d01620004f7565b925050610100620005d78c828d01620004f7565b9150509295985092959850929598565b6000620005f482620005fb565b9050919050565b600073ffffffffffffffffffffffffffffffffffffffff82169050919050565b6000819050919050565b6200063081620005e7565b81146200063c57600080fd5b50565b6200064a816200061b565b81146200065657600080fd5b50565b61360180620006696000396000f3fe608060405234801561001057600080fd5b50600436106101c45760003560e01c80637c3a00fd116100f9578063bdfccad311610097578063daf5539e11610071578063daf5539e146104ab578063e3064a77146104db578063ef4cadc5146104f7578063f2fde38b14610515576101c4565b8063bdfccad314610455578063bfaf48d414610473578063c5ebeaec1461048f576101c4565b80638f6ba29a116100d35780638f6ba29a146103e1578063a36a3630146103fd578063af1f556f1461041b578063b6b55f2514610439576101c4565b80637c3a00fd146103895780638456b755146103a75780638da5cb5b146103c3576101c4565b8063540548081161016657806369cb89c71161014057806369cb89c7146103015780637046b7a914610331578063715018a61461036157806379bbce8f1461036b576101c4565b806354054808146102a75780635ae547e3146102c55780635dcc9391146102e3576101c4565b80632f865568116101a25780632f86556814610221578063371fd8e61461023d5780634031234c146102595780634a63a5ce14610277576101c4565b806302d45457146101c957806320bdf800146101e75780632e1a7d4d14610205575b600080fd5b6101d1610531565b6040516101de9190612f48565b60405180910390f35b6101ef610557565b6040516101fc9190612f48565b60405180910390f35b61021f600480360381019061021a9190612974565b61057d565b005b61023b600480360381019061023691906128a5565b610932565b005b61025760048036038101906102529190612974565b6109a0565b005b6102616109f6565b60405161026e91906131f5565b60405180910390f35b610291600480360381019061028c9190612974565b6109fc565b60405161029e9190612f48565b60405180910390f35b6102af610a3b565b6040516102bc91906131f5565b60405180910390f35b6102cd610a41565b6040516102da91906131f5565b60405180910390f35b6102eb610a47565b6040516102f89190612fc3565b60405180910390f35b61031b600480360381019061031691906128a5565b610a5a565b60405161032891906131f5565b60405180910390f35b61034b600480360381019061034691906128ce565b610cc9565b60405161035891906131f5565b60405180910390f35b610369610cdd565b005b610373610e17565b6040516103809190612f48565b60405180910390f35b610391610e3d565b60405161039e91906131f5565b60405180910390f35b6103c160048036038101906103bc91906128a5565b610e43565b005b6103cb610f73565b6040516103d89190612f48565b60405180910390f35b6103fb60048036038101906103f691906128a5565b610f9c565b005b6104056110cc565b60405161041291906131f5565b60405180910390f35b6104236110d2565b60405161043091906131f5565b60405180910390f35b610453600480360381019061044e9190612974565b6110d8565b005b61045d6112b9565b60405161046a9190612f48565b60405180910390f35b61048d600480360381019061048891906129d9565b6112df565b005b6104a960048036038101906104a49190612974565b611477565b005b6104c560048036038101906104c091906128a5565b6114cd565b6040516104d291906131f5565b60405180910390f35b6104f560048036038101906104f0919061299d565b611522565b005b6104ff61163a565b60405161050c91906131f5565b60405180910390f35b61052f600480360381019061052a91906128a5565b611640565b005b600460009054906101000a900473ffffffffffffffffffffffffffffffffffffffff1681565b600360009054906101000a900473ffffffffffffffffffffffffffffffffffffffff1681565b6000600160003373ffffffffffffffffffffffffffffffffffffffff1673ffffffffffffffffffffffffffffffffffffffff16815260200190815260200160002060000154905081811015610607576040517f08c379a00000000000000000000000000000000000000000000000000000000081526004016105fe906131d5565b60405180910390fd5b600061061233610a5a565b905080600160003373ffffffffffffffffffffffffffffffffffffffff1673ffffffffffffffffffffffffffffffffffffffff16815260200190815260200160002060010160008282546106669190613323565b9250508190555042600160003373ffffffffffffffffffffffffffffffffffffffff1673ffffffffffffffffffffffffffffffffffffffff1681526020019081526020016000206002018190555060006106bf336114cd565b9050600b548111610705576040517f08c379a00000000000000000000000000000000000000000000000000000000081526004016106fc906130d5565b60405180910390fd5b6000837fffffffffffffffffffffffffffffffffffffffffffffffffffffffffffffffff612710600b546107399190613379565b846107449190613404565b61074e9190613379565b61075891906133aa565b90508481101561079d576040517f08c379a000000000000000000000000000000000000000000000000000000000815260040161079490613055565b60405180910390fd5b84846107a99190613404565b600160003373ffffffffffffffffffffffffffffffffffffffff1673ffffffffffffffffffffffffffffffffffffffff16815260200190815260200160002060000181905550600560009054906101000a900473ffffffffffffffffffffffffffffffffffffffff1673ffffffffffffffffffffffffffffffffffffffff1663a9059cbb33876040518363ffffffff1660e01b815260040161084c929190612f9a565b602060405180830381600087803b15801561086657600080fd5b505af115801561087a573d6000803e3d6000fd5b505050506040513d601f19601f8201168201806040525081019061089e919061294b565b6108dd576040517f08c379a00000000000000000000000000000000000000000000000000000000081526004016108d490613075565b60405180910390fd5b3373ffffffffffffffffffffffffffffffffffffffff167f884edad9ce6fa2440d8a54cc123490eb96d2768479d49ff9c7366125a94243648660405161092391906131f5565b60405180910390a25050505050565b3373ffffffffffffffffffffffffffffffffffffffff168173ffffffffffffffffffffffffffffffffffffffff167f5a821a618ddb1a1fd304234a69c9d7f20c129d122fcf35593d13a07192664307600080600060405161099593929190612fde565b60405180910390a350565b3373ffffffffffffffffffffffffffffffffffffffff167f2fe77b1c99aca6b022b8efc6e3e8dd1b48b30748709339b65c50ef3263443e09826000806040516109eb93929190613240565b60405180910390a250565b600c5481565b60078181548110610a0c57600080fd5b906000526020600020016000915054906101000a900473ffffffffffffffffffffffffffffffffffffffff1681565b60095481565b600b5481565b600d60009054906101000a9004600f0b81565b600080600160008473ffffffffffffffffffffffffffffffffffffffff1673ffffffffffffffffffffffffffffffffffffffff168152602001908152602001600020600101541480610aee57506000600160008473ffffffffffffffffffffffffffffffffffffffff1673ffffffffffffffffffffffffffffffffffffffff16815260200190815260200160002060020154145b80610afb57506000600a54145b80610b475750600160008373ffffffffffffffffffffffffffffffffffffffff1673ffffffffffffffffffffffffffffffffffffffff1681526020019081526020016000206002015442145b15610b555760009050610cc4565b6000600160008473ffffffffffffffffffffffffffffffffffffffff1673ffffffffffffffffffffffffffffffffffffffff1681526020019081526020016000206002015442610ba59190613404565b90506000610bca610bb5836117e9565b600d60009054906101000a9004600f0b61180c565b90506000610bec610bdc600a546117e9565b610be76127106117e9565b61180c565b90506000610c3b600160008873ffffffffffffffffffffffffffffffffffffffff1673ffffffffffffffffffffffffffffffffffffffff168152602001908152602001600020600101546117e9565b90506000610c62610c5d83610c58610c5387896118bc565b611927565b6118bc565b6119a0565b9050600160008873ffffffffffffffffffffffffffffffffffffffff1673ffffffffffffffffffffffffffffffffffffffff168152602001908152602001600020600101548167ffffffffffffffff16610cbc9190613404565b955050505050505b919050565b6000610cd583836119c1565b905092915050565b610ce5611bb3565b73ffffffffffffffffffffffffffffffffffffffff16610d03610f73565b73ffffffffffffffffffffffffffffffffffffffff1614610d59576040517f08c379a0000000000000000000000000000000000000000000000000000000008152600401610d5090613115565b60405180910390fd5b600073ffffffffffffffffffffffffffffffffffffffff1660008054906101000a900473ffffffffffffffffffffffffffffffffffffffff1673ffffffffffffffffffffffffffffffffffffffff167f8be0079c531659141344cd1fd0a4f28419497f9722a3daafe3b4186f6b6457e060405160405180910390a360008060006101000a81548173ffffffffffffffffffffffffffffffffffffffff021916908373ffffffffffffffffffffffffffffffffffffffff160217905550565b600660009054906101000a900473ffffffffffffffffffffffffffffffffffffffff1681565b600a5481565b610e4b611bb3565b73ffffffffffffffffffffffffffffffffffffffff16610e69610f73565b73ffffffffffffffffffffffffffffffffffffffff1614610ebf576040517f08c379a0000000000000000000000000000000000000000000000000000000008152600401610eb690613115565b60405180910390fd5b600073ffffffffffffffffffffffffffffffffffffffff168173ffffffffffffffffffffffffffffffffffffffff161415610f2f576040517f08c379a0000000000000000000000000000000000000000000000000000000008152600401610f2690613095565b60405180910390fd5b80600560006101000a81548173ffffffffffffffffffffffffffffffffffffffff021916908373ffffffffffffffffffffffffffffffffffffffff16021790555050565b60008060009054906101000a900473ffffffffffffffffffffffffffffffffffffffff16905090565b610fa4611bb3565b73ffffffffffffffffffffffffffffffffffffffff16610fc2610f73565b73ffffffffffffffffffffffffffffffffffffffff1614611018576040517f08c379a000000000000000000000000000000000000000000000000000000000815260040161100f90613115565b60405180910390fd5b600073ffffffffffffffffffffffffffffffffffffffff168173ffffffffffffffffffffffffffffffffffffffff161415611088576040517f08c379a000000000000000000000000000000000000000000000000000000000815260040161107f906130f5565b60405180910390fd5b80600360006101000a81548173ffffffffffffffffffffffffffffffffffffffff021916908373ffffffffffffffffffffffffffffffffffffffff16021790555050565b60085481565b60025481565b6000600560009054906101000a900473ffffffffffffffffffffffffffffffffffffffff1690508073ffffffffffffffffffffffffffffffffffffffff166323b872dd3330856040518463ffffffff1660e01b815260040161113c93929190612f63565b602060405180830381600087803b15801561115657600080fd5b505af115801561116a573d6000803e3d6000fd5b505050506040513d601f19601f8201168201806040525081019061118e919061294b565b6111cd576040517f08c379a00000000000000000000000000000000000000000000000000000000081526004016111c490613175565b60405180910390fd5b6000600160003373ffffffffffffffffffffffffffffffffffffffff1673ffffffffffffffffffffffffffffffffffffffff16815260200190815260200160002060000154905082816112209190613323565b600160003373ffffffffffffffffffffffffffffffffffffffff1673ffffffffffffffffffffffffffffffffffffffff168152602001908152602001600020600001819055503373ffffffffffffffffffffffffffffffffffffffff167fe1fffcc4923d04b559f4d29a8bfc6cda04eb5b0d3c460751c2402c5c5cc9109c846040516112ac91906131f5565b60405180910390a2505050565b600560009054906101000a900473ffffffffffffffffffffffffffffffffffffffff1681565b6112e7611bb3565b73ffffffffffffffffffffffffffffffffffffffff16611305610f73565b73ffffffffffffffffffffffffffffffffffffffff161461135b576040517f08c379a000000000000000000000000000000000000000000000000000000000815260040161135290613115565b60405180910390fd5b612710831115801561136e575060008310155b6113ad576040517f08c379a00000000000000000000000000000000000000000000000000000000081526004016113a490613135565b60405180910390fd5b61271082111580156113c0575060008210155b80156113cc5750828211155b61140b576040517f08c379a000000000000000000000000000000000000000000000000000000000815260040161140290613035565b60405180910390fd5b8260088190555081600981905550612710811115801561142c575060008110155b61146b576040517f08c379a000000000000000000000000000000000000000000000000000000000815260040161146290613195565b60405180910390fd5b80600a81905550505050565b3373ffffffffffffffffffffffffffffffffffffffff167f13ed6866d4e1ee6da46f845c46d7e54120883d75c5ea9a2dacc1c4ca8984ab80826000806040516114c293929190613240565b60405180910390a250565b600061151b82600160008573ffffffffffffffffffffffffffffffffffffffff1673ffffffffffffffffffffffffffffffffffffffff168152602001908152602001600020600101546119c1565b9050919050565b61152a611bb3565b73ffffffffffffffffffffffffffffffffffffffff16611548610f73565b73ffffffffffffffffffffffffffffffffffffffff161461159e576040517f08c379a000000000000000000000000000000000000000000000000000000000815260040161159590613115565b60405180910390fd5b6127108210156115e3576040517f08c379a00000000000000000000000000000000000000000000000000000000081526004016115da906130b5565b60405180910390fd5b612710811015611628576040517f08c379a000000000000000000000000000000000000000000000000000000000815260040161161f906131b5565b60405180910390fd5b81600b8190555080600c819055505050565b61271081565b611648611bb3565b73ffffffffffffffffffffffffffffffffffffffff16611666610f73565b73ffffffffffffffffffffffffffffffffffffffff16146116bc576040517f08c379a00000000000000000000000000000000000000000000000000000000081526004016116b390613115565b60405180910390fd5b600073ffffffffffffffffffffffffffffffffffffffff168173ffffffffffffffffffffffffffffffffffffffff16141561172c576040517f08c379a000000000000000000000000000000000000000000000000000000000815260040161172390613015565b60405180910390fd5b8073ffffffffffffffffffffffffffffffffffffffff1660008054906101000a900473ffffffffffffffffffffffffffffffffffffffff1673ffffffffffffffffffffffffffffffffffffffff167f8be0079c531659141344cd1fd0a4f28419497f9722a3daafe3b4186f6b6457e060405160405180910390a3806000806101000a81548173ffffffffffffffffffffffffffffffffffffffff021916908373ffffffffffffffffffffffffffffffffffffffff16021790555050565b6000677fffffffffffffff82111561180057600080fd5b604082901b9050919050565b60008082600f0b141561181e57600080fd5b600082600f0b604085600f0b901b81611860577f4e487b7100000000000000000000000000000000000000000000000000000000600052601260045260246000fd5b0590507fffffffffffffffffffffffffffffffff80000000000000000000000000000000600f0b81121580156118a957506f7fffffffffffffffffffffffffffffff600f0b8113155b6118b257600080fd5b8091505092915050565b600080604083600f0b85600f0b02901d90507fffffffffffffffffffffffffffffffff80000000000000000000000000000000600f0b811215801561191457506f7fffffffffffffffffffffffffffffff600f0b8113155b61191d57600080fd5b8091505092915050565b60006840000000000000000082600f0b1261194157600080fd5b7fffffffffffffffffffffffffffffffffffffffffffffffc0000000000000000082600f0b1215611975576000905061199b565b6119986080700171547652b82fe1777d0ffda0d23a7d1284600f0b02901d611bbb565b90505b919050565b60008082600f0b12156119b257600080fd5b604082600f0b901d9050919050565b600080600160008573ffffffffffffffffffffffffffffffffffffffff1673ffffffffffffffffffffffffffffffffffffffff1681526020019081526020016000206000015490506000811415611a1c576000915050611bad565b6000831415611a4e577fffffffffffffffffffffffffffffffffffffffffffffffffffffffffffffffff915050611bad565b60008111611a91576040517f08c379a0000000000000000000000000000000000000000000000000000000008152600401611a8890613155565b60405180910390fd5b6000600660009054906101000a900473ffffffffffffffffffffffffffffffffffffffff16905060008173ffffffffffffffffffffffffffffffffffffffff1663d06ca61f8460076040518363ffffffff1660e01b8152600401611af6929190613210565b60006040518083038186803b158015611b0e57600080fd5b505afa158015611b22573d6000803e3d6000fd5b505050506040513d6000823e3d601f19601f82011682018060405250810190611b4b919061290a565b600181518110611b84577f4e487b7100000000000000000000000000000000000000000000000000000000600052603260045260246000fd5b602002602001015190508461271082611b9d91906133aa565b611ba79190613379565b93505050505b92915050565b600033905090565b60006840000000000000000082600f0b12611bd557600080fd5b7fffffffffffffffffffffffffffffffffffffffffffffffc0000000000000000082600f0b1215611c0957600090506127b6565b60006f80000000000000000000000000000000905060006780000000000000008416600f0b1315611c4f57608070016a09e667f3bcc908b2fb1366ea957d3e8202901c90505b60006740000000000000008416600f0b1315611c805760807001306fe0a31b7152de8d5a46305c85edec8202901c90505b60006720000000000000008416600f0b1315611cb15760807001172b83c7d517adcdf7c8c50eb14a791f8202901c90505b60006710000000000000008416600f0b1315611ce257608070010b5586cf9890f6298b92b71842a983638202901c90505b60006708000000000000008416600f0b1315611d135760807001059b0d31585743ae7c548eb68ca417fd8202901c90505b60006704000000000000008416600f0b1315611d44576080700102c9a3e778060ee6f7caca4f7a29bde88202901c90505b60006702000000000000008416600f0b1315611d7557608070010163da9fb33356d84a66ae336dcdfa3f8202901c90505b60006701000000000000008416600f0b1315611da6576080700100b1afa5abcbed6129ab13ec11dc95438202901c90505b600066800000000000008416600f0b1315611dd657608070010058c86da1c09ea1ff19d294cf2f679b8202901c90505b600066400000000000008416600f0b1315611e065760807001002c605e2e8cec506d21bfc89a23a00f8202901c90505b600066200000000000008416600f0b1315611e36576080700100162f3904051fa128bca9c55c31e5df8202901c90505b600066100000000000008416600f0b1315611e665760807001000b175effdc76ba38e31671ca9397258202901c90505b600066080000000000008416600f0b1315611e96576080700100058ba01fb9f96d6cacd4b180917c3d8202901c90505b600066040000000000008416600f0b1315611ec657608070010002c5cc37da9491d0985c348c68e7b38202901c90505b600066020000000000008416600f0b1315611ef65760807001000162e525ee054754457d59952920268202901c90505b600066010000000000008416600f0b1315611f2657608070010000b17255775c040618bf4a4ade83fc8202901c90505b6000658000000000008416600f0b1315611f555760807001000058b91b5bc9ae2eed81e9b7d4cfab8202901c90505b6000654000000000008416600f0b1315611f84576080700100002c5c89d5ec6ca4d7c8acc017b7c98202901c90505b6000652000000000008416600f0b1315611fb357608070010000162e43f4f831060e02d839a9d16d8202901c90505b6000651000000000008416600f0b1315611fe2576080700100000b1721bcfc99d9f890ea069117638202901c90505b6000650800000000008416600f0b131561201157608070010000058b90cf1e6d97f9ca14dbcc16288202901c90505b6000650400000000008416600f0b13156120405760807001000002c5c863b73f016468f6bac5ca2b8202901c90505b6000650200000000008416600f0b131561206f576080700100000162e430e5a18f6119e3c02282a58202901c90505b6000650100000000008416600f0b131561209e5760807001000000b1721835514b86e6d96efd1bfe8202901c90505b60006480000000008416600f0b13156120cc576080700100000058b90c0b48c6be5df846c5b2ef8202901c90505b60006440000000008416600f0b13156120fa57608070010000002c5c8601cc6b9e94213c72737a8202901c90505b60006420000000008416600f0b13156121285760807001000000162e42fff037df38aa2b219f068202901c90505b60006410000000008416600f0b131561215657608070010000000b17217fba9c739aa5819f44f98202901c90505b60006408000000008416600f0b13156121845760807001000000058b90bfcdee5acd3c1cedc8238202901c90505b60006404000000008416600f0b13156121b2576080700100000002c5c85fe31f35a6a30da1be508202901c90505b60006402000000008416600f0b13156121e057608070010000000162e42ff0999ce3541b9fffcf8202901c90505b60006401000000008416600f0b131561220e576080700100000000b17217f80f4ef5aadda455548202901c90505b600063800000008416600f0b131561223b57608070010000000058b90bfbf8479bd5a81b51ad8202901c90505b600063400000008416600f0b13156122685760807001000000002c5c85fdf84bd62ae30a74cc8202901c90505b600063200000008416600f0b1315612295576080700100000000162e42fefb2fed257559bdaa8202901c90505b600063100000008416600f0b13156122c25760807001000000000b17217f7d5a7716bba4a9ae8202901c90505b600063080000008416600f0b13156122ef576080700100000000058b90bfbe9ddbac5e109cce8202901c90505b600063040000008416600f0b131561231c57608070010000000002c5c85fdf4b15de6f17eb0d8202901c90505b600063020000008416600f0b13156123495760807001000000000162e42fefa494f1478fde058202901c90505b600063010000008416600f0b131561237657608070010000000000b17217f7d20cf927c8e94c8202901c90505b6000628000008416600f0b13156123a25760807001000000000058b90bfbe8f71cb4e4b33d8202901c90505b6000624000008416600f0b13156123ce576080700100000000002c5c85fdf477b662b269458202901c90505b6000622000008416600f0b13156123fa57608070010000000000162e42fefa3ae53369388c8202901c90505b6000621000008416600f0b1315612426576080700100000000000b17217f7d1d351a389d408202901c90505b6000620800008416600f0b131561245257608070010000000000058b90bfbe8e8b2d3d4ede8202901c90505b6000620400008416600f0b131561247e5760807001000000000002c5c85fdf4741bea6e77e8202901c90505b6000620200008416600f0b13156124aa576080700100000000000162e42fefa39fe95583c28202901c90505b6000620100008416600f0b13156124d65760807001000000000000b17217f7d1cfb72b45e18202901c90505b60006180008416600f0b1315612501576080700100000000000058b90bfbe8e7cc35c3f08202901c90505b60006140008416600f0b131561252c57608070010000000000002c5c85fdf473e242ea388202901c90505b60006120008416600f0b13156125575760807001000000000000162e42fefa39f02b772c8202901c90505b60006110008416600f0b131561258257608070010000000000000b17217f7d1cf7d83c1a8202901c90505b60006108008416600f0b13156125ad5760807001000000000000058b90bfbe8e7bdcbe2e8202901c90505b60006104008416600f0b13156125d8576080700100000000000002c5c85fdf473dea871f8202901c90505b60006102008416600f0b131561260357608070010000000000000162e42fefa39ef44d918202901c90505b60006101008416600f0b131561262e576080700100000000000000b17217f7d1cf79e9498202901c90505b600060808416600f0b131561265857608070010000000000000058b90bfbe8e7bce5448202901c90505b600060408416600f0b13156126825760807001000000000000002c5c85fdf473de6eca8202901c90505b600060208416600f0b13156126ac576080700100000000000000162e42fefa39ef366f8202901c90505b600060108416600f0b13156126d65760807001000000000000000b17217f7d1cf79afa8202901c90505b600060088416600f0b1315612700576080700100000000000000058b90bfbe8e7bcd6d8202901c90505b600060048416600f0b131561272a57608070010000000000000002c5c85fdf473de6b28202901c90505b600060028416600f0b13156127545760807001000000000000000162e42fefa39ef3588202901c90505b600060018416600f0b131561277e57608070010000000000000000b17217f7d1cf79ab8202901c90505b604083600f0b901d603f03600f0b81901c90506f7fffffffffffffffffffffffffffffff600f0b8111156127b157600080fd5b809150505b919050565b60006127ce6127c9846132a8565b613277565b905080838252602082019050828560208602820111156127ed57600080fd5b60005b8581101561281d57816128038882612890565b8452602084019350602083019250506001810190506127f0565b5050509392505050565b60008135905061283681613586565b92915050565b600082601f83011261284d57600080fd5b815161285d8482602086016127bb565b91505092915050565b6000815190506128758161359d565b92915050565b60008135905061288a816135b4565b92915050565b60008151905061289f816135b4565b92915050565b6000602082840312156128b757600080fd5b60006128c584828501612827565b91505092915050565b600080604083850312156128e157600080fd5b60006128ef85828601612827565b92505060206129008582860161287b565b9150509250929050565b60006020828403121561291c57600080fd5b600082015167ffffffffffffffff81111561293657600080fd5b6129428482850161283c565b91505092915050565b60006020828403121561295d57600080fd5b600061296b84828501612866565b91505092915050565b60006020828403121561298657600080fd5b60006129948482850161287b565b91505092915050565b600080604083850312156129b057600080fd5b60006129be8582860161287b565b92505060206129cf8582860161287b565b9150509250929050565b6000806000606084860312156129ee57600080fd5b60006129fc8682870161287b565b9350506020612a0d8682870161287b565b9250506040612a1e8682870161287b565b9150509250925092565b6000612a348383612a40565b60208301905092915050565b612a4981613458565b82525050565b612a5881613458565b82525050565b6000612a69826132e9565b612a738185613301565b9350612a7e836132d4565b8060005b83811015612ab657612a9382613566565b612a9d8882612a28565b9750612aa8836132f4565b925050600181019050612a82565b5085935050505092915050565b612acc81613476565b82525050565b612adb816134ad565b82525050565b6000612aee602683613312565b91507f4f776e61626c653a206e6577206f776e657220697320746865207a65726f206160008301527f64647265737300000000000000000000000000000000000000000000000000006020830152604082019050919050565b6000612b54601883613312565b91507f6c69714665655368617265206f7574206f662072616e676500000000000000006000830152602082019050919050565b6000612b94603083613312565b91507f7769746864726177206c657373206f6620636f6c6c61746572616c207261746960008301527f6f206265636f6d657320756e73616665000000000000000000000000000000006020830152604082019050919050565b6000612bfa601883613312565b91507f7769746864726177207472616e73666572206661696c656400000000000000006000830152602082019050919050565b6000612c3a602083613312565b91507f78535553484920636f6e7472616374206e6f74207a65726f20616464726573736000830152602082019050919050565b6000612c7a602983613312565b91507f626f72726f77207468726573686f6c64206d757374206265203e207363616c6960008301527f6e6720666163746f7200000000000000000000000000000000000000000000006020830152604082019050919050565b6000612ce0602783613312565b91507f636f6c6c61746572616c20726174696f206973203c3d20626f72726f7720746860008301527f726573686f6c64000000000000000000000000000000000000000000000000006020830152604082019050919050565b6000612d46601e83613312565b91507f7573647a20636f6e7472616374206e6f74207a65726f206164647265737300006000830152602082019050919050565b6000612d86602083613312565b91507f4f776e61626c653a2063616c6c6572206973206e6f7420746865206f776e65726000830152602082019050919050565b6000612dc6601883613312565b91507f6c6971546f74616c466565206f7574206f662072616e676500000000000000006000830152602082019050919050565b6000612e06600083613312565b9150600082019050919050565b6000612e20600e83613312565b91507f6465706f736974206661696c65640000000000000000000000000000000000006000830152602082019050919050565b6000612e60601983613312565b91507f696e74657265737452617465206f7574206f662072616e6765000000000000006000830152602082019050919050565b6000612ea0602683613312565b91507f6c6971207468726573686f6c64206d757374206265203e207363616c696e672060008301527f666163746f7200000000000000000000000000000000000000000000000000006020830152604082019050919050565b6000612f06602083613312565b91507f6e6f7420656e6f75676820636f6c6c61746572616c20696e206163636f756e746000830152602082019050919050565b612f42816134a3565b82525050565b6000602082019050612f5d6000830184612a4f565b92915050565b6000606082019050612f786000830186612a4f565b612f856020830185612a4f565b612f926040830184612f39565b949350505050565b6000604082019050612faf6000830185612a4f565b612fbc6020830184612f39565b9392505050565b6000602082019050612fd86000830184612ac3565b92915050565b6000606082019050612ff36000830186612ad2565b6130006020830185612ad2565b61300d6040830184612ad2565b949350505050565b6000602082019050818103600083015261302e81612ae1565b9050919050565b6000602082019050818103600083015261304e81612b47565b9050919050565b6000602082019050818103600083015261306e81612b87565b9050919050565b6000602082019050818103600083015261308e81612bed565b9050919050565b600060208201905081810360008301526130ae81612c2d565b9050919050565b600060208201905081810360008301526130ce81612c6d565b9050919050565b600060208201905081810360008301526130ee81612cd3565b9050919050565b6000602082019050818103600083015261310e81612d39565b9050919050565b6000602082019050818103600083015261312e81612d79565b9050919050565b6000602082019050818103600083015261314e81612db9565b9050919050565b6000602082019050818103600083015261316e81612df9565b9050919050565b6000602082019050818103600083015261318e81612e13565b9050919050565b600060208201905081810360008301526131ae81612e53565b9050919050565b600060208201905081810360008301526131ce81612e93565b9050919050565b600060208201905081810360008301526131ee81612ef9565b9050919050565b600060208201905061320a6000830184612f39565b92915050565b60006040820190506132256000830185612f39565b81810360208301526132378184612a5e565b90509392505050565b60006060820190506132556000830186612f39565b6132626020830185612ad2565b61326f6040830184612ad2565b949350505050565b6000604051905081810181811067ffffffffffffffff8211171561329e5761329d613537565b5b8060405250919050565b600067ffffffffffffffff8211156132c3576132c2613537565b5b602082029050602081019050919050565b60008190508160005260206000209050919050565b600081549050919050565b6000600182019050919050565b600082825260208201905092915050565b600082825260208201905092915050565b600061332e826134a3565b9150613339836134a3565b9250827fffffffffffffffffffffffffffffffffffffffffffffffffffffffffffffffff0382111561336e5761336d6134d9565b5b828201905092915050565b6000613384826134a3565b915061338f836134a3565b92508261339f5761339e613508565b5b828204905092915050565b60006133b5826134a3565b91506133c0836134a3565b9250817fffffffffffffffffffffffffffffffffffffffffffffffffffffffffffffffff04831182151516156133f9576133f86134d9565b5b828202905092915050565b600061340f826134a3565b915061341a836134a3565b92508282101561342d5761342c6134d9565b5b828203905092915050565b600073ffffffffffffffffffffffffffffffffffffffff82169050919050565b600061346382613483565b9050919050565b60008115159050919050565b600081600f0b9050919050565b600073ffffffffffffffffffffffffffffffffffffffff82169050919050565b6000819050919050565b60006134b8826134a3565b9050919050565b60006134d26134cd83613579565b613438565b9050919050565b7f4e487b7100000000000000000000000000000000000000000000000000000000600052601160045260246000fd5b7f4e487b7100000000000000000000000000000000000000000000000000000000600052601260045260246000fd5b7f4e487b7100000000000000000000000000000000000000000000000000000000600052604160045260246000fd5b600061357282546134bf565b9050919050565b60008160001c9050919050565b61358f81613458565b811461359a57600080fd5b50565b6135a68161346a565b81146135b157600080fd5b50565b6135bd816134a3565b81146135c857600080fd5b5056fea264697066735822122074739827cdb144f65a20018ac350ec8b57595fac3aa98067829310ecbf68c49e64736f6c63430008000033",
  "linkReferences": {},
  "deployedLinkReferences": {}
}