{
  "_format": "hh-sol-artifact-1",
  "contractName": "Controller",
  "sourceName": "contracts/Controller.sol",
  "abi": [
    {
      "inputs": [
        {
          "internalType": "address",
          "name": "_usdzAddress",
          "type": "address"
        },
        {
          "internalType": "address",
          "name": "_xSushiAddress",
          "type": "address"
        },
        {
          "internalType": "address",
          "name": "_routerAddress",
          "type": "address"
        },
        {
          "internalType": "address[]",
          "name": "_swapPath",
          "type": "address[]"
        },
        {
          "internalType": "uint256",
          "name": "_liqTotalFee",
          "type": "uint256"
        },
        {
          "internalType": "uint256",
          "name": "_liqFeeShare",
          "type": "uint256"
        },
        {
          "internalType": "uint256",
          "name": "_interestRate",
          "type": "uint256"
        },
        {
          "internalType": "uint256",
          "name": "_borrowThreshold",
          "type": "uint256"
        },
        {
          "internalType": "uint256",
          "name": "_liqThreshold",
          "type": "uint256"
        }
      ],
      "stateMutability": "nonpayable",
      "type": "constructor"
    },
    {
      "anonymous": false,
      "inputs": [
        {
          "indexed": true,
          "internalType": "address",
          "name": "account",
          "type": "address"
        },
        {
          "indexed": false,
          "internalType": "uint256",
          "name": "amountBorrowed",
          "type": "uint256"
        },
        {
          "indexed": false,
          "internalType": "uint256",
          "name": "totalDebt",
          "type": "uint256"
        },
        {
          "indexed": false,
          "internalType": "uint256",
          "name": "collateralAmount",
          "type": "uint256"
        }
      ],
      "name": "Borrow",
      "type": "event"
    },
    {
      "anonymous": false,
      "inputs": [
        {
          "indexed": true,
          "internalType": "address",
          "name": "account",
          "type": "address"
        },
        {
          "indexed": false,
          "internalType": "uint256",
          "name": "amount",
          "type": "uint256"
        }
      ],
      "name": "Deposit",
      "type": "event"
    },
    {
      "anonymous": false,
      "inputs": [
        {
          "indexed": true,
          "internalType": "address",
          "name": "account",
          "type": "address"
        },
        {
          "indexed": true,
          "internalType": "address",
          "name": "liquidator",
          "type": "address"
        },
        {
          "indexed": false,
          "internalType": "uint256",
          "name": "collateralLiquidated",
          "type": "uint256"
        },
        {
          "indexed": false,
          "internalType": "uint256",
          "name": "lastCollateralRatio",
          "type": "uint256"
        },
        {
          "indexed": false,
          "internalType": "uint256",
          "name": "lastDebtOutstanding",
          "type": "uint256"
        }
      ],
      "name": "Liquidation",
      "type": "event"
    },
    {
      "anonymous": false,
      "inputs": [
        {
          "indexed": true,
          "internalType": "address",
          "name": "previousOwner",
          "type": "address"
        },
        {
          "indexed": true,
          "internalType": "address",
          "name": "newOwner",
          "type": "address"
        }
      ],
      "name": "OwnershipTransferred",
      "type": "event"
    },
    {
      "anonymous": false,
      "inputs": [
        {
          "indexed": true,
          "internalType": "address",
          "name": "account",
          "type": "address"
        },
        {
          "indexed": false,
          "internalType": "uint256",
          "name": "debtRepaid",
          "type": "uint256"
        },
        {
          "indexed": false,
          "internalType": "uint256",
          "name": "debtRemaining",
          "type": "uint256"
        },
        {
          "indexed": false,
          "internalType": "uint256",
          "name": "collateralAmount",
          "type": "uint256"
        }
      ],
      "name": "Repay",
      "type": "event"
    },
    {
      "anonymous": false,
      "inputs": [
        {
          "indexed": true,
          "internalType": "address",
          "name": "account",
          "type": "address"
        },
        {
          "indexed": false,
          "internalType": "uint256",
          "name": "amount",
          "type": "uint256"
        }
      ],
      "name": "Withdraw",
      "type": "event"
    },
    {
      "inputs": [],
      "name": "SCALING_FACTOR",
      "outputs": [
        {
          "internalType": "uint256",
          "name": "",
          "type": "uint256"
        }
      ],
      "stateMutability": "view",
      "type": "function"
    },
    {
      "inputs": [],
      "name": "SECONDS_IN_YEAR",
      "outputs": [
        {
          "internalType": "int128",
          "name": "",
          "type": "int128"
        }
      ],
      "stateMutability": "view",
      "type": "function"
    },
    {
      "inputs": [
        {
          "internalType": "uint256",
          "name": "_amount",
          "type": "uint256"
        }
      ],
      "name": "borrow",
      "outputs": [],
      "stateMutability": "nonpayable",
      "type": "function"
    },
    {
      "inputs": [],
      "name": "borrowThreshold",
      "outputs": [
        {
          "internalType": "uint256",
          "name": "",
          "type": "uint256"
        }
      ],
      "stateMutability": "view",
      "type": "function"
    },
    {
      "inputs": [
        {
          "internalType": "address",
          "name": "_account",
          "type": "address"
        }
      ],
      "name": "calcInterest",
      "outputs": [
        {
          "internalType": "uint256",
          "name": "interest",
          "type": "uint256"
        }
      ],
      "stateMutability": "view",
      "type": "function"
    },
    {
      "inputs": [
        {
          "internalType": "uint256",
          "name": "_amount",
          "type": "uint256"
        }
      ],
      "name": "deposit",
      "outputs": [],
      "stateMutability": "nonpayable",
      "type": "function"
    },
    {
      "inputs": [
        {
          "internalType": "address",
          "name": "_account",
          "type": "address"
        }
      ],
      "name": "getCurrentCollateralRatio",
      "outputs": [
        {
          "internalType": "uint256",
          "name": "",
          "type": "uint256"
        }
      ],
      "stateMutability": "view",
      "type": "function"
    },
    {
      "inputs": [
        {
          "internalType": "address",
          "name": "_account",
          "type": "address"
        },
        {
          "internalType": "uint256",
          "name": "_totalDebt",
          "type": "uint256"
        }
      ],
      "name": "getForwardCollateralRatio",
      "outputs": [
        {
          "internalType": "uint256",
          "name": "",
          "type": "uint256"
        }
      ],
      "stateMutability": "view",
      "type": "function"
    },
    {
      "inputs": [
        {
          "internalType": "address",
          "name": "_account",
          "type": "address"
        }
      ],
      "name": "getPosition",
      "outputs": [
        {
          "internalType": "uint256",
          "name": "",
          "type": "uint256"
        },
        {
          "internalType": "uint256",
          "name": "",
          "type": "uint256"
        },
        {
          "internalType": "uint256",
          "name": "",
          "type": "uint256"
        }
      ],
      "stateMutability": "view",
      "type": "function"
    },
    {
      "inputs": [],
      "name": "interestRate",
      "outputs": [
        {
          "internalType": "uint256",
          "name": "",
          "type": "uint256"
        }
      ],
      "stateMutability": "view",
      "type": "function"
    },
    {
      "inputs": [
        {
          "internalType": "address",
          "name": "_account",
          "type": "address"
        }
      ],
      "name": "liquidate",
      "outputs": [],
      "stateMutability": "nonpayable",
      "type": "function"
    },
    {
      "inputs": [],
      "name": "liquidationFee",
      "outputs": [
        {
          "internalType": "uint256",
          "name": "",
          "type": "uint256"
        }
      ],
      "stateMutability": "view",
      "type": "function"
    },
    {
      "inputs": [],
      "name": "liquidationThreshold",
      "outputs": [
        {
          "internalType": "uint256",
          "name": "",
          "type": "uint256"
        }
      ],
      "stateMutability": "view",
      "type": "function"
    },
    {
      "inputs": [],
      "name": "liquidatorFeeShare",
      "outputs": [
        {
          "internalType": "uint256",
          "name": "",
          "type": "uint256"
        }
      ],
      "stateMutability": "view",
      "type": "function"
    },
    {
      "inputs": [],
      "name": "owner",
      "outputs": [
        {
          "internalType": "address",
          "name": "",
          "type": "address"
        }
      ],
      "stateMutability": "view",
      "type": "function"
    },
    {
      "inputs": [],
      "name": "protocolShortfall",
      "outputs": [
        {
          "internalType": "uint256",
          "name": "",
          "type": "uint256"
        }
      ],
      "stateMutability": "view",
      "type": "function"
    },
    {
      "inputs": [],
      "name": "renounceOwnership",
      "outputs": [],
      "stateMutability": "nonpayable",
      "type": "function"
    },
    {
      "inputs": [
        {
          "internalType": "uint256",
          "name": "_amount",
          "type": "uint256"
        }
      ],
      "name": "repay",
      "outputs": [],
      "stateMutability": "nonpayable",
      "type": "function"
    },
    {
      "inputs": [
        {
          "internalType": "uint256",
          "name": "_liqTotalFee",
          "type": "uint256"
        },
        {
          "internalType": "uint256",
          "name": "_liqFeeShare",
          "type": "uint256"
        },
        {
          "internalType": "uint256",
          "name": "_interestRate",
          "type": "uint256"
        }
      ],
      "name": "setFeesAndRates",
      "outputs": [],
      "stateMutability": "nonpayable",
      "type": "function"
    },
    {
      "inputs": [
        {
          "internalType": "address",
          "name": "_sushiRouter",
          "type": "address"
        }
      ],
      "name": "setSushiAddresses",
      "outputs": [],
      "stateMutability": "nonpayable",
      "type": "function"
    },
    {
      "inputs": [
        {
          "internalType": "uint256",
          "name": "_borrowThreshold",
          "type": "uint256"
        },
        {
          "internalType": "uint256",
          "name": "_liqThreshold",
          "type": "uint256"
        }
      ],
      "name": "setThresholds",
      "outputs": [],
      "stateMutability": "nonpayable",
      "type": "function"
    },
    {
      "inputs": [
        {
          "internalType": "address",
          "name": "_usdz",
          "type": "address"
        }
      ],
      "name": "setUSDZAddress",
      "outputs": [],
      "stateMutability": "nonpayable",
      "type": "function"
    },
    {
      "inputs": [],
      "name": "sushiRouterAddress",
      "outputs": [
        {
          "internalType": "address",
          "name": "",
          "type": "address"
        }
      ],
      "stateMutability": "view",
      "type": "function"
    },
    {
      "inputs": [
        {
          "internalType": "address",
          "name": "newOwner",
          "type": "address"
        }
      ],
      "name": "transferOwnership",
      "outputs": [],
      "stateMutability": "nonpayable",
      "type": "function"
    },
    {
      "inputs": [],
      "name": "usdzAddress",
      "outputs": [
        {
          "internalType": "address",
          "name": "",
          "type": "address"
        }
      ],
      "stateMutability": "view",
      "type": "function"
    },
    {
      "inputs": [
        {
          "internalType": "uint256",
          "name": "_amount",
          "type": "uint256"
        }
      ],
      "name": "withdraw",
      "outputs": [],
      "stateMutability": "nonpayable",
      "type": "function"
    },
    {
      "inputs": [],
      "name": "xSushiAddress",
      "outputs": [
        {
          "internalType": "address",
          "name": "",
          "type": "address"
        }
      ],
      "stateMutability": "view",
      "type": "function"
    },
    {
      "inputs": [
        {
          "internalType": "uint256",
          "name": "",
          "type": "uint256"
        }
      ],
      "name": "xSushiToUsdcPath",
      "outputs": [
        {
          "internalType": "address",
          "name": "",
          "type": "address"
        }
      ],
      "stateMutability": "view",
      "type": "function"
    }
  ],
  "bytecode": "0x60806040523480156200001157600080fd5b5060405162004322380380620043228339818101604052810190620000379190620003f4565b6000620000496200024a60201b60201c565b9050806000806101000a81548173ffffffffffffffffffffffffffffffffffffffff021916908373ffffffffffffffffffffffffffffffffffffffff1602179055508073ffffffffffffffffffffffffffffffffffffffff16600073ffffffffffffffffffffffffffffffffffffffff167f8be0079c531659141344cd1fd0a4f28419497f9722a3daafe3b4186f6b6457e060405160405180910390a35088600360006101000a81548173ffffffffffffffffffffffffffffffffffffffff021916908373ffffffffffffffffffffffffffffffffffffffff16021790555087600460006101000a81548173ffffffffffffffffffffffffffffffffffffffff021916908373ffffffffffffffffffffffffffffffffffffffff16021790555086600560006101000a81548173ffffffffffffffffffffffffffffffffffffffff021916908373ffffffffffffffffffffffffffffffffffffffff16021790555084600781905550836008819055508260098190555081600a8190555080600b819055508560069080519060200190620001e592919062000276565b50620002006301e185586200025260201b62001e3b1760201c565b600c60006101000a8154816fffffffffffffffffffffffffffffffff0219169083600f0b6fffffffffffffffffffffffffffffffff160217905550505050505050505050620005ea565b600033905090565b6000677fffffffffffffff8211156200026a57600080fd5b604082901b9050919050565b828054828255906000526020600020908101928215620002f2579160200282015b82811115620002f15782518260006101000a81548173ffffffffffffffffffffffffffffffffffffffff021916908373ffffffffffffffffffffffffffffffffffffffff1602179055509160200191906001019062000297565b5b50905062000301919062000305565b5090565b5b808211156200032057600081600090555060010162000306565b5090565b60006200033b62000335846200051a565b620004e6565b905080838252602082019050828560208602820111156200035b57600080fd5b60005b858110156200038f578162000374888262000399565b8452602084019350602083019250506001810190506200035e565b5050509392505050565b600081519050620003aa81620005b6565b92915050565b600082601f830112620003c257600080fd5b8151620003d484826020860162000324565b91505092915050565b600081519050620003ee81620005d0565b92915050565b60008060008060008060008060006101208a8c0312156200041457600080fd5b6000620004248c828d0162000399565b9950506020620004378c828d0162000399565b98505060406200044a8c828d0162000399565b97505060608a015167ffffffffffffffff8111156200046857600080fd5b620004768c828d01620003b0565b9650506080620004898c828d01620003dd565b95505060a06200049c8c828d01620003dd565b94505060c0620004af8c828d01620003dd565b93505060e0620004c28c828d01620003dd565b925050610100620004d68c828d01620003dd565b9150509295985092959850929598565b6000604051905081810181811067ffffffffffffffff8211171562000510576200050f62000587565b5b8060405250919050565b600067ffffffffffffffff82111562000538576200053762000587565b5b602082029050602081019050919050565b600062000556826200055d565b9050919050565b600073ffffffffffffffffffffffffffffffffffffffff82169050919050565b6000819050919050565b7f4e487b7100000000000000000000000000000000000000000000000000000000600052604160045260246000fd5b620005c18162000549565b8114620005cd57600080fd5b50565b620005db816200057d565b8114620005e757600080fd5b50565b613d2880620005fa6000396000f3fe608060405234801561001057600080fd5b50600436106101c45760003560e01c80637c3a00fd116100f9578063bfaf48d411610097578063e3064a7711610071578063e3064a77146104d3578063ef4cadc5146104ef578063f248e7e81461050d578063f2fde38b14610529576101c4565b8063bfaf48d41461046b578063c5ebeaec14610487578063daf5539e146104a3576101c4565b8063a36a3630116100d3578063a36a3630146103f5578063af1f556f14610413578063b6b55f2514610431578063bdfccad31461044d576101c4565b80637c3a00fd1461039d5780638da5cb5b146103bb5780638f6ba29a146103d9576101c4565b8063540548081161016657806369cb89c71161014057806369cb89c7146103155780637046b7a914610345578063715018a61461037557806379bbce8f1461037f576101c4565b806354054808146102bb5780635ae547e3146102d95780635dcc9391146102f7576101c4565b80632f865568116101a25780632f86556814610235578063371fd8e6146102515780634031234c1461026d5780634a63a5ce1461028b576101c4565b806316c19739146101c957806320bdf800146101fb5780632e1a7d4d14610219575b600080fd5b6101e360048036038101906101de9190612ec0565b610545565b6040516101f293929190613967565b60405180910390f35b610203610620565b604051610210919061362f565b60405180910390f35b610233600480360381019061022e9190612f8f565b610646565b005b61024f600480360381019061024a9190612ec0565b6109fb565b005b61026b60048036038101906102669190612f8f565b610a69565b005b610275610d94565b604051610282919061391c565b60405180910390f35b6102a560048036038101906102a09190612f8f565b610d9a565b6040516102b2919061362f565b60405180910390f35b6102c3610dd9565b6040516102d0919061391c565b60405180910390f35b6102e1610ddf565b6040516102ee919061391c565b60405180910390f35b6102ff610de5565b60405161030c91906136aa565b60405180910390f35b61032f600480360381019061032a9190612ec0565b610df8565b60405161033c919061391c565b60405180910390f35b61035f600480360381019061035a9190612ee9565b611067565b60405161036c919061391c565b60405180910390f35b61037d61107b565b005b6103876111b5565b604051610394919061362f565b60405180910390f35b6103a56111db565b6040516103b2919061391c565b60405180910390f35b6103c36111e1565b6040516103d0919061362f565b60405180910390f35b6103f360048036038101906103ee9190612ec0565b61120a565b005b6103fd61133a565b60405161040a919061391c565b60405180910390f35b61041b611340565b604051610428919061391c565b60405180910390f35b61044b60048036038101906104469190612f8f565b611346565b005b610455611527565b604051610462919061362f565b60405180910390f35b61048560048036038101906104809190612ff4565b61154d565b005b6104a1600480360381019061049c9190612f8f565b6116e5565b005b6104bd60048036038101906104b89190612ec0565b6119ef565b6040516104ca919061391c565b60405180910390f35b6104ed60048036038101906104e89190612fb8565b611a44565b005b6104f7611b5c565b604051610504919061391c565b60405180910390f35b61052760048036038101906105229190612ec0565b611b62565b005b610543600480360381019061053e9190612ec0565b611c92565b005b6000806000600160008573ffffffffffffffffffffffffffffffffffffffff1673ffffffffffffffffffffffffffffffffffffffff16815260200190815260200160002060000154600160008673ffffffffffffffffffffffffffffffffffffffff1673ffffffffffffffffffffffffffffffffffffffff16815260200190815260200160002060010154600160008773ffffffffffffffffffffffffffffffffffffffff1673ffffffffffffffffffffffffffffffffffffffff168152602001908152602001600020600201549250925092509193909250565b600360009054906101000a900473ffffffffffffffffffffffffffffffffffffffff1681565b6000600160003373ffffffffffffffffffffffffffffffffffffffff1673ffffffffffffffffffffffffffffffffffffffff168152602001908152602001600020600001549050818110156106d0576040517f08c379a00000000000000000000000000000000000000000000000000000000081526004016106c7906138fc565b60405180910390fd5b60006106db33610df8565b905080600160003373ffffffffffffffffffffffffffffffffffffffff1673ffffffffffffffffffffffffffffffffffffffff168152602001908152602001600020600101600082825461072f9190613a4a565b9250508190555042600160003373ffffffffffffffffffffffffffffffffffffffff1673ffffffffffffffffffffffffffffffffffffffff168152602001908152602001600020600201819055506000610788336119ef565b9050600a5481116107ce576040517f08c379a00000000000000000000000000000000000000000000000000000000081526004016107c5906137fc565b60405180910390fd5b6000837fffffffffffffffffffffffffffffffffffffffffffffffffffffffffffffffff612710600a546108029190613aa0565b8461080d9190613b2b565b6108179190613aa0565b6108219190613ad1565b905084811015610866576040517f08c379a000000000000000000000000000000000000000000000000000000000815260040161085d9061377c565b60405180910390fd5b84846108729190613b2b565b600160003373ffffffffffffffffffffffffffffffffffffffff1673ffffffffffffffffffffffffffffffffffffffff16815260200190815260200160002060000181905550600460009054906101000a900473ffffffffffffffffffffffffffffffffffffffff1673ffffffffffffffffffffffffffffffffffffffff1663a9059cbb33876040518363ffffffff1660e01b8152600401610915929190613681565b602060405180830381600087803b15801561092f57600080fd5b505af1158015610943573d6000803e3d6000fd5b505050506040513d601f19601f820116820180604052508101906109679190612f66565b6109a6576040517f08c379a000000000000000000000000000000000000000000000000000000000815260040161099d9061379c565b60405180910390fd5b3373ffffffffffffffffffffffffffffffffffffffff167f884edad9ce6fa2440d8a54cc123490eb96d2768479d49ff9c7366125a9424364866040516109ec919061391c565b60405180910390a25050505050565b3373ffffffffffffffffffffffffffffffffffffffff168173ffffffffffffffffffffffffffffffffffffffff167f5a821a618ddb1a1fd304234a69c9d7f20c129d122fcf35593d13a071926643076000806000604051610a5e939291906136c5565b60405180910390a350565b60008111610aac576040517f08c379a0000000000000000000000000000000000000000000000000000000008152600401610aa39061387c565b60405180910390fd5b6000600160003373ffffffffffffffffffffffffffffffffffffffff1673ffffffffffffffffffffffffffffffffffffffff1681526020019081526020016000209050610af833610df8565b816001016000828254610b0b9190613a4a565b925050819055504281600201819055508181600101541115610c3757600360009054906101000a900473ffffffffffffffffffffffffffffffffffffffff1673ffffffffffffffffffffffffffffffffffffffff166323b872dd3330856040518463ffffffff1660e01b8152600401610b869392919061364a565b602060405180830381600087803b158015610ba057600080fd5b505af1158015610bb4573d6000803e3d6000fd5b505050506040513d601f19601f82011682018060405250810190610bd89190612f66565b610c17576040517f08c379a0000000000000000000000000000000000000000000000000000000008152600401610c0e9061381c565b60405180910390fd5b81816001016000828254610c2b9190613b2b565b92505081905550610d36565b600360009054906101000a900473ffffffffffffffffffffffffffffffffffffffff1673ffffffffffffffffffffffffffffffffffffffff166323b872dd333084600101546040518463ffffffff1660e01b8152600401610c9a9392919061364a565b602060405180830381600087803b158015610cb457600080fd5b505af1158015610cc8573d6000803e3d6000fd5b505050506040513d601f19601f82011682018060405250810190610cec9190612f66565b610d2b576040517f08c379a0000000000000000000000000000000000000000000000000000000008152600401610d229061381c565b60405180910390fd5b600081600101819055505b3373ffffffffffffffffffffffffffffffffffffffff167f2fe77b1c99aca6b022b8efc6e3e8dd1b48b30748709339b65c50ef3263443e098383600101548460000154604051610d8893929190613967565b60405180910390a25050565b600b5481565b60068181548110610daa57600080fd5b906000526020600020016000915054906101000a900473ffffffffffffffffffffffffffffffffffffffff1681565b60085481565b600a5481565b600c60009054906101000a9004600f0b81565b600080600160008473ffffffffffffffffffffffffffffffffffffffff1673ffffffffffffffffffffffffffffffffffffffff168152602001908152602001600020600101541480610e8c57506000600160008473ffffffffffffffffffffffffffffffffffffffff1673ffffffffffffffffffffffffffffffffffffffff16815260200190815260200160002060020154145b80610e9957506000600954145b80610ee55750600160008373ffffffffffffffffffffffffffffffffffffffff1673ffffffffffffffffffffffffffffffffffffffff1681526020019081526020016000206002015442145b15610ef35760009050611062565b6000600160008473ffffffffffffffffffffffffffffffffffffffff1673ffffffffffffffffffffffffffffffffffffffff1681526020019081526020016000206002015442610f439190613b2b565b90506000610f68610f5383611e3b565b600c60009054906101000a9004600f0b611e5e565b90506000610f8a610f7a600954611e3b565b610f85612710611e3b565b611e5e565b90506000610fd9600160008873ffffffffffffffffffffffffffffffffffffffff1673ffffffffffffffffffffffffffffffffffffffff16815260200190815260200160002060010154611e3b565b90506000611000610ffb83610ff6610ff18789611f0e565b611f79565b611f0e565b611ff2565b9050600160008873ffffffffffffffffffffffffffffffffffffffff1673ffffffffffffffffffffffffffffffffffffffff168152602001908152602001600020600101548167ffffffffffffffff1661105a9190613b2b565b955050505050505b919050565b60006110738383612013565b905092915050565b6110836121ce565b73ffffffffffffffffffffffffffffffffffffffff166110a16111e1565b73ffffffffffffffffffffffffffffffffffffffff16146110f7576040517f08c379a00000000000000000000000000000000000000000000000000000000081526004016110ee9061383c565b60405180910390fd5b600073ffffffffffffffffffffffffffffffffffffffff1660008054906101000a900473ffffffffffffffffffffffffffffffffffffffff1673ffffffffffffffffffffffffffffffffffffffff167f8be0079c531659141344cd1fd0a4f28419497f9722a3daafe3b4186f6b6457e060405160405180910390a360008060006101000a81548173ffffffffffffffffffffffffffffffffffffffff021916908373ffffffffffffffffffffffffffffffffffffffff160217905550565b600560009054906101000a900473ffffffffffffffffffffffffffffffffffffffff1681565b60095481565b60008060009054906101000a900473ffffffffffffffffffffffffffffffffffffffff16905090565b6112126121ce565b73ffffffffffffffffffffffffffffffffffffffff166112306111e1565b73ffffffffffffffffffffffffffffffffffffffff1614611286576040517f08c379a000000000000000000000000000000000000000000000000000000000815260040161127d9061383c565b60405180910390fd5b600073ffffffffffffffffffffffffffffffffffffffff168173ffffffffffffffffffffffffffffffffffffffff1614156112f6576040517f08c379a00000000000000000000000000000000000000000000000000000000081526004016112ed906137dc565b60405180910390fd5b80600360006101000a81548173ffffffffffffffffffffffffffffffffffffffff021916908373ffffffffffffffffffffffffffffffffffffffff16021790555050565b60075481565b60025481565b6000600460009054906101000a900473ffffffffffffffffffffffffffffffffffffffff1690508073ffffffffffffffffffffffffffffffffffffffff166323b872dd3330856040518463ffffffff1660e01b81526004016113aa9392919061364a565b602060405180830381600087803b1580156113c457600080fd5b505af11580156113d8573d6000803e3d6000fd5b505050506040513d601f19601f820116820180604052508101906113fc9190612f66565b61143b576040517f08c379a00000000000000000000000000000000000000000000000000000000081526004016114329061389c565b60405180910390fd5b6000600160003373ffffffffffffffffffffffffffffffffffffffff1673ffffffffffffffffffffffffffffffffffffffff168152602001908152602001600020600001549050828161148e9190613a4a565b600160003373ffffffffffffffffffffffffffffffffffffffff1673ffffffffffffffffffffffffffffffffffffffff168152602001908152602001600020600001819055503373ffffffffffffffffffffffffffffffffffffffff167fe1fffcc4923d04b559f4d29a8bfc6cda04eb5b0d3c460751c2402c5c5cc9109c8460405161151a919061391c565b60405180910390a2505050565b600460009054906101000a900473ffffffffffffffffffffffffffffffffffffffff1681565b6115556121ce565b73ffffffffffffffffffffffffffffffffffffffff166115736111e1565b73ffffffffffffffffffffffffffffffffffffffff16146115c9576040517f08c379a00000000000000000000000000000000000000000000000000000000081526004016115c09061383c565b60405180910390fd5b61271083111580156115dc575060008310155b61161b576040517f08c379a00000000000000000000000000000000000000000000000000000000081526004016116129061385c565b60405180910390fd5b612710821115801561162e575060008210155b801561163a5750828211155b611679576040517f08c379a00000000000000000000000000000000000000000000000000000000081526004016116709061373c565b60405180910390fd5b8260078190555081600881905550612710811115801561169a575060008110155b6116d9576040517f08c379a00000000000000000000000000000000000000000000000000000000081526004016116d0906138bc565b60405180910390fd5b80600981905550505050565b60008111611728576040517f08c379a000000000000000000000000000000000000000000000000000000000815260040161171f9061375c565b60405180910390fd5b600061173333610df8565b9050600a5461179a338484600160003373ffffffffffffffffffffffffffffffffffffffff1673ffffffffffffffffffffffffffffffffffffffff1681526020019081526020016000206001015461178b9190613a4a565b6117959190613a4a565b611067565b10156117db576040517f08c379a00000000000000000000000000000000000000000000000000000000081526004016117d2906136fc565b60405180910390fd5b80826117e79190613a4a565b600160003373ffffffffffffffffffffffffffffffffffffffff1673ffffffffffffffffffffffffffffffffffffffff16815260200190815260200160002060010160008282546118389190613a4a565b9250508190555042600160003373ffffffffffffffffffffffffffffffffffffffff1673ffffffffffffffffffffffffffffffffffffffff16815260200190815260200160002060020181905550600360009054906101000a900473ffffffffffffffffffffffffffffffffffffffff1673ffffffffffffffffffffffffffffffffffffffff166340c10f1933846040518363ffffffff1660e01b81526004016118e3929190613681565b600060405180830381600087803b1580156118fd57600080fd5b505af1158015611911573d6000803e3d6000fd5b505050503373ffffffffffffffffffffffffffffffffffffffff167f13ed6866d4e1ee6da46f845c46d7e54120883d75c5ea9a2dacc1c4ca8984ab8083600160003373ffffffffffffffffffffffffffffffffffffffff1673ffffffffffffffffffffffffffffffffffffffff16815260200190815260200160002060010154600160003373ffffffffffffffffffffffffffffffffffffffff1673ffffffffffffffffffffffffffffffffffffffff168152602001908152602001600020600001546040516119e393929190613967565b60405180910390a25050565b6000611a3d82600160008573ffffffffffffffffffffffffffffffffffffffff1673ffffffffffffffffffffffffffffffffffffffff16815260200190815260200160002060010154612013565b9050919050565b611a4c6121ce565b73ffffffffffffffffffffffffffffffffffffffff16611a6a6111e1565b73ffffffffffffffffffffffffffffffffffffffff1614611ac0576040517f08c379a0000000000000000000000000000000000000000000000000000000008152600401611ab79061383c565b60405180910390fd5b612710821015611b05576040517f08c379a0000000000000000000000000000000000000000000000000000000008152600401611afc906137bc565b60405180910390fd5b612710811015611b4a576040517f08c379a0000000000000000000000000000000000000000000000000000000008152600401611b41906138dc565b60405180910390fd5b81600a8190555080600b819055505050565b61271081565b611b6a6121ce565b73ffffffffffffffffffffffffffffffffffffffff16611b886111e1565b73ffffffffffffffffffffffffffffffffffffffff1614611bde576040517f08c379a0000000000000000000000000000000000000000000000000000000008152600401611bd59061383c565b60405180910390fd5b600073ffffffffffffffffffffffffffffffffffffffff168173ffffffffffffffffffffffffffffffffffffffff161415611c4e576040517f08c379a0000000000000000000000000000000000000000000000000000000008152600401611c45906137dc565b60405180910390fd5b80600560006101000a81548173ffffffffffffffffffffffffffffffffffffffff021916908373ffffffffffffffffffffffffffffffffffffffff16021790555050565b611c9a6121ce565b73ffffffffffffffffffffffffffffffffffffffff16611cb86111e1565b73ffffffffffffffffffffffffffffffffffffffff1614611d0e576040517f08c379a0000000000000000000000000000000000000000000000000000000008152600401611d059061383c565b60405180910390fd5b600073ffffffffffffffffffffffffffffffffffffffff168173ffffffffffffffffffffffffffffffffffffffff161415611d7e576040517f08c379a0000000000000000000000000000000000000000000000000000000008152600401611d759061371c565b60405180910390fd5b8073ffffffffffffffffffffffffffffffffffffffff1660008054906101000a900473ffffffffffffffffffffffffffffffffffffffff1673ffffffffffffffffffffffffffffffffffffffff167f8be0079c531659141344cd1fd0a4f28419497f9722a3daafe3b4186f6b6457e060405160405180910390a3806000806101000a81548173ffffffffffffffffffffffffffffffffffffffff021916908373ffffffffffffffffffffffffffffffffffffffff16021790555050565b6000677fffffffffffffff821115611e5257600080fd5b604082901b9050919050565b60008082600f0b1415611e7057600080fd5b600082600f0b604085600f0b901b81611eb2577f4e487b7100000000000000000000000000000000000000000000000000000000600052601260045260246000fd5b0590507fffffffffffffffffffffffffffffffff80000000000000000000000000000000600f0b8112158015611efb57506f7fffffffffffffffffffffffffffffff600f0b8113155b611f0457600080fd5b8091505092915050565b600080604083600f0b85600f0b02901d90507fffffffffffffffffffffffffffffffff80000000000000000000000000000000600f0b8112158015611f6657506f7fffffffffffffffffffffffffffffff600f0b8113155b611f6f57600080fd5b8091505092915050565b60006840000000000000000082600f0b12611f9357600080fd5b7fffffffffffffffffffffffffffffffffffffffffffffffc0000000000000000082600f0b1215611fc75760009050611fed565b611fea6080700171547652b82fe1777d0ffda0d23a7d1284600f0b02901d6121d6565b90505b919050565b60008082600f0b121561200457600080fd5b604082600f0b901d9050919050565b600080600160008573ffffffffffffffffffffffffffffffffffffffff1673ffffffffffffffffffffffffffffffffffffffff168152602001908152602001600020600001549050600081141561206e5760009150506121c8565b60008314156120a0577fffffffffffffffffffffffffffffffffffffffffffffffffffffffffffffffff9150506121c8565b6000600560009054906101000a900473ffffffffffffffffffffffffffffffffffffffff16905060008173ffffffffffffffffffffffffffffffffffffffff1663d06ca61f8460066040518363ffffffff1660e01b8152600401612105929190613937565b60006040518083038186803b15801561211d57600080fd5b505afa158015612131573d6000803e3d6000fd5b505050506040513d6000823e3d601f19601f8201168201806040525081019061215a9190612f25565b600281518110612193577f4e487b7100000000000000000000000000000000000000000000000000000000600052603260045260246000fd5b60200260200101519050846064612710836121ae9190613ad1565b6121b89190613ad1565b6121c29190613aa0565b93505050505b92915050565b600033905090565b60006840000000000000000082600f0b126121f057600080fd5b7fffffffffffffffffffffffffffffffffffffffffffffffc0000000000000000082600f0b12156122245760009050612dd1565b60006f80000000000000000000000000000000905060006780000000000000008416600f0b131561226a57608070016a09e667f3bcc908b2fb1366ea957d3e8202901c90505b60006740000000000000008416600f0b131561229b5760807001306fe0a31b7152de8d5a46305c85edec8202901c90505b60006720000000000000008416600f0b13156122cc5760807001172b83c7d517adcdf7c8c50eb14a791f8202901c90505b60006710000000000000008416600f0b13156122fd57608070010b5586cf9890f6298b92b71842a983638202901c90505b60006708000000000000008416600f0b131561232e5760807001059b0d31585743ae7c548eb68ca417fd8202901c90505b60006704000000000000008416600f0b131561235f576080700102c9a3e778060ee6f7caca4f7a29bde88202901c90505b60006702000000000000008416600f0b131561239057608070010163da9fb33356d84a66ae336dcdfa3f8202901c90505b60006701000000000000008416600f0b13156123c1576080700100b1afa5abcbed6129ab13ec11dc95438202901c90505b600066800000000000008416600f0b13156123f157608070010058c86da1c09ea1ff19d294cf2f679b8202901c90505b600066400000000000008416600f0b13156124215760807001002c605e2e8cec506d21bfc89a23a00f8202901c90505b600066200000000000008416600f0b1315612451576080700100162f3904051fa128bca9c55c31e5df8202901c90505b600066100000000000008416600f0b13156124815760807001000b175effdc76ba38e31671ca9397258202901c90505b600066080000000000008416600f0b13156124b1576080700100058ba01fb9f96d6cacd4b180917c3d8202901c90505b600066040000000000008416600f0b13156124e157608070010002c5cc37da9491d0985c348c68e7b38202901c90505b600066020000000000008416600f0b13156125115760807001000162e525ee054754457d59952920268202901c90505b600066010000000000008416600f0b131561254157608070010000b17255775c040618bf4a4ade83fc8202901c90505b6000658000000000008416600f0b13156125705760807001000058b91b5bc9ae2eed81e9b7d4cfab8202901c90505b6000654000000000008416600f0b131561259f576080700100002c5c89d5ec6ca4d7c8acc017b7c98202901c90505b6000652000000000008416600f0b13156125ce57608070010000162e43f4f831060e02d839a9d16d8202901c90505b6000651000000000008416600f0b13156125fd576080700100000b1721bcfc99d9f890ea069117638202901c90505b6000650800000000008416600f0b131561262c57608070010000058b90cf1e6d97f9ca14dbcc16288202901c90505b6000650400000000008416600f0b131561265b5760807001000002c5c863b73f016468f6bac5ca2b8202901c90505b6000650200000000008416600f0b131561268a576080700100000162e430e5a18f6119e3c02282a58202901c90505b6000650100000000008416600f0b13156126b95760807001000000b1721835514b86e6d96efd1bfe8202901c90505b60006480000000008416600f0b13156126e7576080700100000058b90c0b48c6be5df846c5b2ef8202901c90505b60006440000000008416600f0b131561271557608070010000002c5c8601cc6b9e94213c72737a8202901c90505b60006420000000008416600f0b13156127435760807001000000162e42fff037df38aa2b219f068202901c90505b60006410000000008416600f0b131561277157608070010000000b17217fba9c739aa5819f44f98202901c90505b60006408000000008416600f0b131561279f5760807001000000058b90bfcdee5acd3c1cedc8238202901c90505b60006404000000008416600f0b13156127cd576080700100000002c5c85fe31f35a6a30da1be508202901c90505b60006402000000008416600f0b13156127fb57608070010000000162e42ff0999ce3541b9fffcf8202901c90505b60006401000000008416600f0b1315612829576080700100000000b17217f80f4ef5aadda455548202901c90505b600063800000008416600f0b131561285657608070010000000058b90bfbf8479bd5a81b51ad8202901c90505b600063400000008416600f0b13156128835760807001000000002c5c85fdf84bd62ae30a74cc8202901c90505b600063200000008416600f0b13156128b0576080700100000000162e42fefb2fed257559bdaa8202901c90505b600063100000008416600f0b13156128dd5760807001000000000b17217f7d5a7716bba4a9ae8202901c90505b600063080000008416600f0b131561290a576080700100000000058b90bfbe9ddbac5e109cce8202901c90505b600063040000008416600f0b131561293757608070010000000002c5c85fdf4b15de6f17eb0d8202901c90505b600063020000008416600f0b13156129645760807001000000000162e42fefa494f1478fde058202901c90505b600063010000008416600f0b131561299157608070010000000000b17217f7d20cf927c8e94c8202901c90505b6000628000008416600f0b13156129bd5760807001000000000058b90bfbe8f71cb4e4b33d8202901c90505b6000624000008416600f0b13156129e9576080700100000000002c5c85fdf477b662b269458202901c90505b6000622000008416600f0b1315612a1557608070010000000000162e42fefa3ae53369388c8202901c90505b6000621000008416600f0b1315612a41576080700100000000000b17217f7d1d351a389d408202901c90505b6000620800008416600f0b1315612a6d57608070010000000000058b90bfbe8e8b2d3d4ede8202901c90505b6000620400008416600f0b1315612a995760807001000000000002c5c85fdf4741bea6e77e8202901c90505b6000620200008416600f0b1315612ac5576080700100000000000162e42fefa39fe95583c28202901c90505b6000620100008416600f0b1315612af15760807001000000000000b17217f7d1cfb72b45e18202901c90505b60006180008416600f0b1315612b1c576080700100000000000058b90bfbe8e7cc35c3f08202901c90505b60006140008416600f0b1315612b4757608070010000000000002c5c85fdf473e242ea388202901c90505b60006120008416600f0b1315612b725760807001000000000000162e42fefa39f02b772c8202901c90505b60006110008416600f0b1315612b9d57608070010000000000000b17217f7d1cf7d83c1a8202901c90505b60006108008416600f0b1315612bc85760807001000000000000058b90bfbe8e7bdcbe2e8202901c90505b60006104008416600f0b1315612bf3576080700100000000000002c5c85fdf473dea871f8202901c90505b60006102008416600f0b1315612c1e57608070010000000000000162e42fefa39ef44d918202901c90505b60006101008416600f0b1315612c49576080700100000000000000b17217f7d1cf79e9498202901c90505b600060808416600f0b1315612c7357608070010000000000000058b90bfbe8e7bce5448202901c90505b600060408416600f0b1315612c9d5760807001000000000000002c5c85fdf473de6eca8202901c90505b600060208416600f0b1315612cc7576080700100000000000000162e42fefa39ef366f8202901c90505b600060108416600f0b1315612cf15760807001000000000000000b17217f7d1cf79afa8202901c90505b600060088416600f0b1315612d1b576080700100000000000000058b90bfbe8e7bcd6d8202901c90505b600060048416600f0b1315612d4557608070010000000000000002c5c85fdf473de6b28202901c90505b600060028416600f0b1315612d6f5760807001000000000000000162e42fefa39ef3588202901c90505b600060018416600f0b1315612d9957608070010000000000000000b17217f7d1cf79ab8202901c90505b604083600f0b901d603f03600f0b81901c90506f7fffffffffffffffffffffffffffffff600f0b811115612dcc57600080fd5b809150505b919050565b6000612de9612de4846139cf565b61399e565b90508083825260208201905082856020860282011115612e0857600080fd5b60005b85811015612e385781612e1e8882612eab565b845260208401935060208301925050600181019050612e0b565b5050509392505050565b600081359050612e5181613cad565b92915050565b600082601f830112612e6857600080fd5b8151612e78848260208601612dd6565b91505092915050565b600081519050612e9081613cc4565b92915050565b600081359050612ea581613cdb565b92915050565b600081519050612eba81613cdb565b92915050565b600060208284031215612ed257600080fd5b6000612ee084828501612e42565b91505092915050565b60008060408385031215612efc57600080fd5b6000612f0a85828601612e42565b9250506020612f1b85828601612e96565b9150509250929050565b600060208284031215612f3757600080fd5b600082015167ffffffffffffffff811115612f5157600080fd5b612f5d84828501612e57565b91505092915050565b600060208284031215612f7857600080fd5b6000612f8684828501612e81565b91505092915050565b600060208284031215612fa157600080fd5b6000612faf84828501612e96565b91505092915050565b60008060408385031215612fcb57600080fd5b6000612fd985828601612e96565b9250506020612fea85828601612e96565b9150509250929050565b60008060006060848603121561300957600080fd5b600061301786828701612e96565b935050602061302886828701612e96565b925050604061303986828701612e96565b9150509250925092565b600061304f838361305b565b60208301905092915050565b61306481613b7f565b82525050565b61307381613b7f565b82525050565b600061308482613a10565b61308e8185613a28565b9350613099836139fb565b8060005b838110156130d1576130ae82613c8d565b6130b88882613043565b97506130c383613a1b565b92505060018101905061309d565b5085935050505092915050565b6130e781613b9d565b82525050565b6130f681613bd4565b82525050565b6000613109602983613a39565b91507f6e6f7420656e6f75676820636f6c6c61746572616c20746f20626f72726f772060008301527f74686174206d75636800000000000000000000000000000000000000000000006020830152604082019050919050565b600061316f602683613a39565b91507f4f776e61626c653a206e6577206f776e657220697320746865207a65726f206160008301527f64647265737300000000000000000000000000000000000000000000000000006020830152604082019050919050565b60006131d5601883613a39565b91507f6c69714665655368617265206f7574206f662072616e676500000000000000006000830152602082019050919050565b6000613215600e83613a39565b91507f63616e277420626f72726f7720300000000000000000000000000000000000006000830152602082019050919050565b6000613255603083613a39565b91507f7769746864726177206c657373206f6620636f6c6c61746572616c207261746960008301527f6f206265636f6d657320756e73616665000000000000000000000000000000006020830152604082019050919050565b60006132bb601883613a39565b91507f7769746864726177207472616e73666572206661696c656400000000000000006000830152602082019050919050565b60006132fb602983613a39565b91507f626f72726f77207468726573686f6c64206d757374206265203e207363616c6960008301527f6e6720666163746f7200000000000000000000000000000000000000000000006020830152604082019050919050565b6000613361601883613a39565b91507f7a65726f2061646472657373206e6f7420616c6c6f77656400000000000000006000830152602082019050919050565b60006133a1602783613a39565b91507f636f6c6c61746572616c20726174696f206973203c3d20626f72726f7720746860008301527f726573686f6c64000000000000000000000000000000000000000000000000006020830152604082019050919050565b6000613407601583613a39565b91507f7265706179207472616e73666572206661696c656400000000000000000000006000830152602082019050919050565b6000613447602083613a39565b91507f4f776e61626c653a2063616c6c6572206973206e6f7420746865206f776e65726000830152602082019050919050565b6000613487601883613a39565b91507f6c6971546f74616c466565206f7574206f662072616e676500000000000000006000830152602082019050919050565b60006134c7600d83613a39565b91507f63616e27742072657061792030000000000000000000000000000000000000006000830152602082019050919050565b6000613507600e83613a39565b91507f6465706f736974206661696c65640000000000000000000000000000000000006000830152602082019050919050565b6000613547601983613a39565b91507f696e74657265737452617465206f7574206f662072616e6765000000000000006000830152602082019050919050565b6000613587602683613a39565b91507f6c6971207468726573686f6c64206d757374206265203e207363616c696e672060008301527f666163746f7200000000000000000000000000000000000000000000000000006020830152604082019050919050565b60006135ed602083613a39565b91507f6e6f7420656e6f75676820636f6c6c61746572616c20696e206163636f756e746000830152602082019050919050565b61362981613bca565b82525050565b6000602082019050613644600083018461306a565b92915050565b600060608201905061365f600083018661306a565b61366c602083018561306a565b6136796040830184613620565b949350505050565b6000604082019050613696600083018561306a565b6136a36020830184613620565b9392505050565b60006020820190506136bf60008301846130de565b92915050565b60006060820190506136da60008301866130ed565b6136e760208301856130ed565b6136f460408301846130ed565b949350505050565b60006020820190508181036000830152613715816130fc565b9050919050565b6000602082019050818103600083015261373581613162565b9050919050565b60006020820190508181036000830152613755816131c8565b9050919050565b6000602082019050818103600083015261377581613208565b9050919050565b6000602082019050818103600083015261379581613248565b9050919050565b600060208201905081810360008301526137b5816132ae565b9050919050565b600060208201905081810360008301526137d5816132ee565b9050919050565b600060208201905081810360008301526137f581613354565b9050919050565b6000602082019050818103600083015261381581613394565b9050919050565b60006020820190508181036000830152613835816133fa565b9050919050565b600060208201905081810360008301526138558161343a565b9050919050565b600060208201905081810360008301526138758161347a565b9050919050565b60006020820190508181036000830152613895816134ba565b9050919050565b600060208201905081810360008301526138b5816134fa565b9050919050565b600060208201905081810360008301526138d58161353a565b9050919050565b600060208201905081810360008301526138f58161357a565b9050919050565b60006020820190508181036000830152613915816135e0565b9050919050565b60006020820190506139316000830184613620565b92915050565b600060408201905061394c6000830185613620565b818103602083015261395e8184613079565b90509392505050565b600060608201905061397c6000830186613620565b6139896020830185613620565b6139966040830184613620565b949350505050565b6000604051905081810181811067ffffffffffffffff821117156139c5576139c4613c5e565b5b8060405250919050565b600067ffffffffffffffff8211156139ea576139e9613c5e565b5b602082029050602081019050919050565b60008190508160005260206000209050919050565b600081549050919050565b6000600182019050919050565b600082825260208201905092915050565b600082825260208201905092915050565b6000613a5582613bca565b9150613a6083613bca565b9250827fffffffffffffffffffffffffffffffffffffffffffffffffffffffffffffffff03821115613a9557613a94613c00565b5b828201905092915050565b6000613aab82613bca565b9150613ab683613bca565b925082613ac657613ac5613c2f565b5b828204905092915050565b6000613adc82613bca565b9150613ae783613bca565b9250817fffffffffffffffffffffffffffffffffffffffffffffffffffffffffffffffff0483118215151615613b2057613b1f613c00565b5b828202905092915050565b6000613b3682613bca565b9150613b4183613bca565b925082821015613b5457613b53613c00565b5b828203905092915050565b600073ffffffffffffffffffffffffffffffffffffffff82169050919050565b6000613b8a82613baa565b9050919050565b60008115159050919050565b600081600f0b9050919050565b600073ffffffffffffffffffffffffffffffffffffffff82169050919050565b6000819050919050565b6000613bdf82613bca565b9050919050565b6000613bf9613bf483613ca0565b613b5f565b9050919050565b7f4e487b7100000000000000000000000000000000000000000000000000000000600052601160045260246000fd5b7f4e487b7100000000000000000000000000000000000000000000000000000000600052601260045260246000fd5b7f4e487b7100000000000000000000000000000000000000000000000000000000600052604160045260246000fd5b6000613c998254613be6565b9050919050565b60008160001c9050919050565b613cb681613b7f565b8114613cc157600080fd5b50565b613ccd81613b91565b8114613cd857600080fd5b50565b613ce481613bca565b8114613cef57600080fd5b5056fea2646970667358221220fb61363781411d297b385029a7149865c29c109d42c89284cff121a80b45a46564736f6c63430008000033",
  "linkReferences": {},
  "deployedLinkReferences": {}
}