{
  "_format": "hh-sol-artifact-1",
  "contractName": "Controller",
  "sourceName": "contracts/Controller.sol",
  "abi": [
    {
      "inputs": [
        {
          "internalType": "address",
          "name": "_usdzAddress",
          "type": "address"
        },
        {
          "internalType": "address",
          "name": "_usdcAddress",
          "type": "address"
        },
        {
          "internalType": "address",
          "name": "_xSushiAddress",
          "type": "address"
        },
        {
          "internalType": "address",
          "name": "_routerAddress",
          "type": "address"
        },
        {
          "internalType": "uint256",
          "name": "_liqTotalFee",
          "type": "uint256"
        },
        {
          "internalType": "uint256",
          "name": "_liqFeeShare",
          "type": "uint256"
        },
        {
          "internalType": "uint256",
          "name": "_interestRate",
          "type": "uint256"
        },
        {
          "internalType": "uint256",
          "name": "_borrowThreshold",
          "type": "uint256"
        },
        {
          "internalType": "uint256",
          "name": "_liqThreshold",
          "type": "uint256"
        }
      ],
      "stateMutability": "nonpayable",
      "type": "constructor"
    },
    {
      "anonymous": false,
      "inputs": [
        {
          "indexed": true,
          "internalType": "address",
          "name": "account",
          "type": "address"
        },
        {
          "indexed": false,
          "internalType": "uint256",
          "name": "amountBorrowed",
          "type": "uint256"
        },
        {
          "indexed": false,
          "internalType": "uint256",
          "name": "totalDebt",
          "type": "uint256"
        },
        {
          "indexed": false,
          "internalType": "uint256",
          "name": "collateralAmount",
          "type": "uint256"
        }
      ],
      "name": "Borrow",
      "type": "event"
    },
    {
      "anonymous": false,
      "inputs": [
        {
          "indexed": true,
          "internalType": "address",
          "name": "account",
          "type": "address"
        },
        {
          "indexed": false,
          "internalType": "uint256",
          "name": "amount",
          "type": "uint256"
        }
      ],
      "name": "Deposit",
      "type": "event"
    },
    {
      "anonymous": false,
      "inputs": [
        {
          "indexed": true,
          "internalType": "address",
          "name": "account",
          "type": "address"
        },
        {
          "indexed": true,
          "internalType": "address",
          "name": "liquidator",
          "type": "address"
        },
        {
          "indexed": false,
          "internalType": "uint256",
          "name": "collateralLiquidated",
          "type": "uint256"
        },
        {
          "indexed": false,
          "internalType": "uint256",
          "name": "lastCollateralRatio",
          "type": "uint256"
        },
        {
          "indexed": false,
          "internalType": "uint256",
          "name": "lastDebtOutstanding",
          "type": "uint256"
        }
      ],
      "name": "Liquidation",
      "type": "event"
    },
    {
      "anonymous": false,
      "inputs": [
        {
          "indexed": true,
          "internalType": "address",
          "name": "previousOwner",
          "type": "address"
        },
        {
          "indexed": true,
          "internalType": "address",
          "name": "newOwner",
          "type": "address"
        }
      ],
      "name": "OwnershipTransferred",
      "type": "event"
    },
    {
      "anonymous": false,
      "inputs": [
        {
          "indexed": true,
          "internalType": "address",
          "name": "account",
          "type": "address"
        },
        {
          "indexed": false,
          "internalType": "uint256",
          "name": "debtRepaid",
          "type": "uint256"
        },
        {
          "indexed": false,
          "internalType": "uint256",
          "name": "debtRemaining",
          "type": "uint256"
        },
        {
          "indexed": false,
          "internalType": "uint256",
          "name": "collateralAmount",
          "type": "uint256"
        }
      ],
      "name": "Repay",
      "type": "event"
    },
    {
      "anonymous": false,
      "inputs": [
        {
          "indexed": true,
          "internalType": "address",
          "name": "account",
          "type": "address"
        },
        {
          "indexed": false,
          "internalType": "uint256",
          "name": "amount",
          "type": "uint256"
        }
      ],
      "name": "Withdraw",
      "type": "event"
    },
    {
      "inputs": [],
      "name": "SCALING_FACTOR",
      "outputs": [
        {
          "internalType": "uint256",
          "name": "",
          "type": "uint256"
        }
      ],
      "stateMutability": "view",
      "type": "function"
    },
    {
      "inputs": [],
      "name": "SECONDS_IN_YEAR",
      "outputs": [
        {
          "internalType": "int128",
          "name": "",
          "type": "int128"
        }
      ],
      "stateMutability": "view",
      "type": "function"
    },
    {
      "inputs": [
        {
          "internalType": "uint256",
          "name": "_amount",
          "type": "uint256"
        }
      ],
      "name": "borrow",
      "outputs": [],
      "stateMutability": "nonpayable",
      "type": "function"
    },
    {
      "inputs": [],
      "name": "borrowThreshold",
      "outputs": [
        {
          "internalType": "uint256",
          "name": "",
          "type": "uint256"
        }
      ],
      "stateMutability": "view",
      "type": "function"
    },
    {
      "inputs": [
        {
          "internalType": "address",
          "name": "_account",
          "type": "address"
        }
      ],
      "name": "calcInterest",
      "outputs": [
        {
          "internalType": "uint256",
          "name": "interest",
          "type": "uint256"
        }
      ],
      "stateMutability": "view",
      "type": "function"
    },
    {
      "inputs": [
        {
          "internalType": "uint256",
          "name": "_amount",
          "type": "uint256"
        }
      ],
      "name": "deposit",
      "outputs": [],
      "stateMutability": "nonpayable",
      "type": "function"
    },
    {
      "inputs": [
        {
          "internalType": "address",
          "name": "_account",
          "type": "address"
        }
      ],
      "name": "getCurrentCollateralRatio",
      "outputs": [
        {
          "internalType": "uint256",
          "name": "",
          "type": "uint256"
        }
      ],
      "stateMutability": "view",
      "type": "function"
    },
    {
      "inputs": [
        {
          "internalType": "address",
          "name": "_account",
          "type": "address"
        },
        {
          "internalType": "uint256",
          "name": "_totalDebt",
          "type": "uint256"
        }
      ],
      "name": "getForwardCollateralRatio",
      "outputs": [
        {
          "internalType": "uint256",
          "name": "",
          "type": "uint256"
        }
      ],
      "stateMutability": "view",
      "type": "function"
    },
    {
      "inputs": [
        {
          "internalType": "address",
          "name": "_account",
          "type": "address"
        }
      ],
      "name": "getPosition",
      "outputs": [
        {
          "internalType": "uint256",
          "name": "",
          "type": "uint256"
        },
        {
          "internalType": "uint256",
          "name": "",
          "type": "uint256"
        },
        {
          "internalType": "uint256",
          "name": "",
          "type": "uint256"
        }
      ],
      "stateMutability": "view",
      "type": "function"
    },
    {
      "inputs": [],
      "name": "interestRate",
      "outputs": [
        {
          "internalType": "uint256",
          "name": "",
          "type": "uint256"
        }
      ],
      "stateMutability": "view",
      "type": "function"
    },
    {
      "inputs": [
        {
          "internalType": "address",
          "name": "_account",
          "type": "address"
        }
      ],
      "name": "liquidate",
      "outputs": [],
      "stateMutability": "nonpayable",
      "type": "function"
    },
    {
      "inputs": [],
      "name": "liquidationFee",
      "outputs": [
        {
          "internalType": "uint256",
          "name": "",
          "type": "uint256"
        }
      ],
      "stateMutability": "view",
      "type": "function"
    },
    {
      "inputs": [],
      "name": "liquidationThreshold",
      "outputs": [
        {
          "internalType": "uint256",
          "name": "",
          "type": "uint256"
        }
      ],
      "stateMutability": "view",
      "type": "function"
    },
    {
      "inputs": [],
      "name": "liquidatorFeeShare",
      "outputs": [
        {
          "internalType": "uint256",
          "name": "",
          "type": "uint256"
        }
      ],
      "stateMutability": "view",
      "type": "function"
    },
    {
      "inputs": [],
      "name": "owner",
      "outputs": [
        {
          "internalType": "address",
          "name": "",
          "type": "address"
        }
      ],
      "stateMutability": "view",
      "type": "function"
    },
    {
      "inputs": [],
      "name": "protocolShortfall",
      "outputs": [
        {
          "internalType": "uint256",
          "name": "",
          "type": "uint256"
        }
      ],
      "stateMutability": "view",
      "type": "function"
    },
    {
      "inputs": [],
      "name": "renounceOwnership",
      "outputs": [],
      "stateMutability": "nonpayable",
      "type": "function"
    },
    {
      "inputs": [
        {
          "internalType": "uint256",
          "name": "_amount",
          "type": "uint256"
        }
      ],
      "name": "repay",
      "outputs": [],
      "stateMutability": "nonpayable",
      "type": "function"
    },
    {
      "inputs": [
        {
          "internalType": "uint256",
          "name": "_liqTotalFee",
          "type": "uint256"
        },
        {
          "internalType": "uint256",
          "name": "_liqFeeShare",
          "type": "uint256"
        },
        {
          "internalType": "uint256",
          "name": "_interestRate",
          "type": "uint256"
        }
      ],
      "name": "setFeesAndRates",
      "outputs": [],
      "stateMutability": "nonpayable",
      "type": "function"
    },
    {
      "inputs": [
        {
          "internalType": "address",
          "name": "_sushiRouter",
          "type": "address"
        }
      ],
      "name": "setSushiAddresses",
      "outputs": [],
      "stateMutability": "nonpayable",
      "type": "function"
    },
    {
      "inputs": [
        {
          "internalType": "uint256",
          "name": "_borrowThreshold",
          "type": "uint256"
        },
        {
          "internalType": "uint256",
          "name": "_liqThreshold",
          "type": "uint256"
        }
      ],
      "name": "setThresholds",
      "outputs": [],
      "stateMutability": "nonpayable",
      "type": "function"
    },
    {
      "inputs": [
        {
          "internalType": "address",
          "name": "_xsushi",
          "type": "address"
        },
        {
          "internalType": "address",
          "name": "_usdc",
          "type": "address"
        },
        {
          "internalType": "address",
          "name": "_usdz",
          "type": "address"
        }
      ],
      "name": "setTokenAddresses",
      "outputs": [],
      "stateMutability": "nonpayable",
      "type": "function"
    },
    {
      "inputs": [],
      "name": "sushiRouterAddress",
      "outputs": [
        {
          "internalType": "address",
          "name": "",
          "type": "address"
        }
      ],
      "stateMutability": "view",
      "type": "function"
    },
    {
      "inputs": [
        {
          "internalType": "address",
          "name": "newOwner",
          "type": "address"
        }
      ],
      "name": "transferOwnership",
      "outputs": [],
      "stateMutability": "nonpayable",
      "type": "function"
    },
    {
      "inputs": [],
      "name": "usdcAddress",
      "outputs": [
        {
          "internalType": "address",
          "name": "",
          "type": "address"
        }
      ],
      "stateMutability": "view",
      "type": "function"
    },
    {
      "inputs": [],
      "name": "usdzAddress",
      "outputs": [
        {
          "internalType": "address",
          "name": "",
          "type": "address"
        }
      ],
      "stateMutability": "view",
      "type": "function"
    },
    {
      "inputs": [
        {
          "internalType": "uint256",
          "name": "_amount",
          "type": "uint256"
        }
      ],
      "name": "withdraw",
      "outputs": [],
      "stateMutability": "nonpayable",
      "type": "function"
    },
    {
      "inputs": [],
      "name": "xSushiAddress",
      "outputs": [
        {
          "internalType": "address",
          "name": "",
          "type": "address"
        }
      ],
      "stateMutability": "view",
      "type": "function"
    },
    {
      "inputs": [
        {
          "internalType": "uint256",
          "name": "",
          "type": "uint256"
        }
      ],
      "name": "xSushiToUsdcPath",
      "outputs": [
        {
          "internalType": "address",
          "name": "",
          "type": "address"
        }
      ],
      "stateMutability": "view",
      "type": "function"
    }
  ],
  "bytecode": "0x60806040523480156200001157600080fd5b50604051620047183803806200471883398181016040528101906200003791906200050e565b6000620000496200040660201b60201c565b9050806000806101000a81548173ffffffffffffffffffffffffffffffffffffffff021916908373ffffffffffffffffffffffffffffffffffffffff1602179055508073ffffffffffffffffffffffffffffffffffffffff16600073ffffffffffffffffffffffffffffffffffffffff167f8be0079c531659141344cd1fd0a4f28419497f9722a3daafe3b4186f6b6457e060405160405180910390a35088600360006101000a81548173ffffffffffffffffffffffffffffffffffffffff021916908373ffffffffffffffffffffffffffffffffffffffff16021790555087600460006101000a81548173ffffffffffffffffffffffffffffffffffffffff021916908373ffffffffffffffffffffffffffffffffffffffff16021790555086600560006101000a81548173ffffffffffffffffffffffffffffffffffffffff021916908373ffffffffffffffffffffffffffffffffffffffff16021790555085600660006101000a81548173ffffffffffffffffffffffffffffffffffffffff021916908373ffffffffffffffffffffffffffffffffffffffff160217905550846008819055508360098190555082600a8190555081600b8190555080600c81905550600267ffffffffffffffff81111562000250577f4e487b7100000000000000000000000000000000000000000000000000000000600052604160045260246000fd5b6040519080825280602002602001820160405280156200027f5781602001602082028036833780820191505090505b50600790805190602001906200029792919062000432565b50866007600081548110620002d5577f4e487b7100000000000000000000000000000000000000000000000000000000600052603260045260246000fd5b9060005260206000200160006101000a81548173ffffffffffffffffffffffffffffffffffffffff021916908373ffffffffffffffffffffffffffffffffffffffff1602179055508760076001815481106200035a577f4e487b7100000000000000000000000000000000000000000000000000000000600052603260045260246000fd5b9060005260206000200160006101000a81548173ffffffffffffffffffffffffffffffffffffffff021916908373ffffffffffffffffffffffffffffffffffffffff160217905550620003bc6301e185586200040e60201b620020f61760201c565b600d60006101000a8154816fffffffffffffffffffffffffffffffff0219169083600f0b6fffffffffffffffffffffffffffffffff16021790555050505050505050505062000659565b600033905090565b6000677fffffffffffffff8211156200042657600080fd5b604082901b9050919050565b828054828255906000526020600020908101928215620004ae579160200282015b82811115620004ad5782518260006101000a81548173ffffffffffffffffffffffffffffffffffffffff021916908373ffffffffffffffffffffffffffffffffffffffff1602179055509160200191906001019062000453565b5b509050620004bd9190620004c1565b5090565b5b80821115620004dc576000816000905550600101620004c2565b5090565b600081519050620004f18162000625565b92915050565b60008151905062000508816200063f565b92915050565b60008060008060008060008060006101208a8c0312156200052e57600080fd5b60006200053e8c828d01620004e0565b9950506020620005518c828d01620004e0565b9850506040620005648c828d01620004e0565b9750506060620005778c828d01620004e0565b96505060806200058a8c828d01620004f7565b95505060a06200059d8c828d01620004f7565b94505060c0620005b08c828d01620004f7565b93505060e0620005c38c828d01620004f7565b925050610100620005d78c828d01620004f7565b9150509295985092959850929598565b6000620005f482620005fb565b9050919050565b600073ffffffffffffffffffffffffffffffffffffffff82169050919050565b6000819050919050565b6200063081620005e7565b81146200063c57600080fd5b50565b6200064a816200061b565b81146200065657600080fd5b50565b6140af80620006696000396000f3fe608060405234801561001057600080fd5b50600436106101cf5760003560e01c8063715018a611610104578063bdfccad3116100a2578063e3064a7711610071578063e3064a77146104fc578063ef4cadc514610518578063f248e7e814610536578063f2fde38b14610552576101cf565b8063bdfccad314610476578063bfaf48d414610494578063c5ebeaec146104b0578063daf5539e146104cc576101cf565b80638da5cb5b116100de5780638da5cb5b14610400578063a36a36301461041e578063af1f556f1461043c578063b6b55f251461045a576101cf565b8063715018a6146103ba57806379bbce8f146103c45780637c3a00fd146103e2576101cf565b80634a63a5ce116101715780635ae547e31161014b5780635ae547e31461031e5780635dcc93911461033c57806369cb89c71461035a5780637046b7a91461038a576101cf565b80634a63a5ce146102b45780634d3f9d3e146102e45780635405480814610300576101cf565b80632e1a7d4d116101ad5780632e1a7d4d146102425780632f8655681461025e578063371fd8e61461027a5780634031234c14610296576101cf565b806302d45457146101d457806316c19739146101f257806320bdf80014610224575b600080fd5b6101dc61056e565b6040516101e99190613996565b60405180910390f35b61020c600480360381019061020791906131be565b610594565b60405161021b93929190613cee565b60405180910390f35b61022c61066f565b6040516102399190613996565b60405180910390f35b61025c600480360381019061025791906132dc565b610695565b005b610278600480360381019061027391906131be565b610a4a565b005b610294600480360381019061028f91906132dc565b610ab8565b005b61029e610de3565b6040516102ab9190613ca3565b60405180910390f35b6102ce60048036038101906102c991906132dc565b610de9565b6040516102db9190613996565b60405180910390f35b6102fe60048036038101906102f991906131e7565b610e28565b005b6103086111c4565b6040516103159190613ca3565b60405180910390f35b6103266111ca565b6040516103339190613ca3565b60405180910390f35b6103446111d0565b6040516103519190613a11565b60405180910390f35b610374600480360381019061036f91906131be565b6111e3565b6040516103819190613ca3565b60405180910390f35b6103a4600480360381019061039f9190613236565b611452565b6040516103b19190613ca3565b60405180910390f35b6103c2611466565b005b6103cc6115a0565b6040516103d99190613996565b60405180910390f35b6103ea6115c6565b6040516103f79190613ca3565b60405180910390f35b6104086115cc565b6040516104159190613996565b60405180910390f35b6104266115f5565b6040516104339190613ca3565b60405180910390f35b6104446115fb565b6040516104519190613ca3565b60405180910390f35b610474600480360381019061046f91906132dc565b611601565b005b61047e6117e2565b60405161048b9190613996565b60405180910390f35b6104ae60048036038101906104a99190613341565b611808565b005b6104ca60048036038101906104c591906132dc565b6119a0565b005b6104e660048036038101906104e191906131be565b611caa565b6040516104f39190613ca3565b60405180910390f35b61051660048036038101906105119190613305565b611cff565b005b610520611e17565b60405161052d9190613ca3565b60405180910390f35b610550600480360381019061054b91906131be565b611e1d565b005b61056c600480360381019061056791906131be565b611f4d565b005b600460009054906101000a900473ffffffffffffffffffffffffffffffffffffffff1681565b6000806000600160008573ffffffffffffffffffffffffffffffffffffffff1673ffffffffffffffffffffffffffffffffffffffff16815260200190815260200160002060000154600160008673ffffffffffffffffffffffffffffffffffffffff1673ffffffffffffffffffffffffffffffffffffffff16815260200190815260200160002060010154600160008773ffffffffffffffffffffffffffffffffffffffff1673ffffffffffffffffffffffffffffffffffffffff168152602001908152602001600020600201549250925092509193909250565b600360009054906101000a900473ffffffffffffffffffffffffffffffffffffffff1681565b6000600160003373ffffffffffffffffffffffffffffffffffffffff1673ffffffffffffffffffffffffffffffffffffffff1681526020019081526020016000206000015490508181101561071f576040517f08c379a000000000000000000000000000000000000000000000000000000000815260040161071690613c83565b60405180910390fd5b600061072a336111e3565b905080600160003373ffffffffffffffffffffffffffffffffffffffff1673ffffffffffffffffffffffffffffffffffffffff168152602001908152602001600020600101600082825461077e9190613dd1565b9250508190555042600160003373ffffffffffffffffffffffffffffffffffffffff1673ffffffffffffffffffffffffffffffffffffffff1681526020019081526020016000206002018190555060006107d733611caa565b9050600b54811161081d576040517f08c379a000000000000000000000000000000000000000000000000000000000815260040161081490613b63565b60405180910390fd5b6000837fffffffffffffffffffffffffffffffffffffffffffffffffffffffffffffffff612710600b546108519190613e27565b8461085c9190613eb2565b6108669190613e27565b6108709190613e58565b9050848110156108b5576040517f08c379a00000000000000000000000000000000000000000000000000000000081526004016108ac90613ae3565b60405180910390fd5b84846108c19190613eb2565b600160003373ffffffffffffffffffffffffffffffffffffffff1673ffffffffffffffffffffffffffffffffffffffff16815260200190815260200160002060000181905550600560009054906101000a900473ffffffffffffffffffffffffffffffffffffffff1673ffffffffffffffffffffffffffffffffffffffff1663a9059cbb33876040518363ffffffff1660e01b81526004016109649291906139e8565b602060405180830381600087803b15801561097e57600080fd5b505af1158015610992573d6000803e3d6000fd5b505050506040513d601f19601f820116820180604052508101906109b691906132b3565b6109f5576040517f08c379a00000000000000000000000000000000000000000000000000000000081526004016109ec90613b03565b60405180910390fd5b3373ffffffffffffffffffffffffffffffffffffffff167f884edad9ce6fa2440d8a54cc123490eb96d2768479d49ff9c7366125a942436486604051610a3b9190613ca3565b60405180910390a25050505050565b3373ffffffffffffffffffffffffffffffffffffffff168173ffffffffffffffffffffffffffffffffffffffff167f5a821a618ddb1a1fd304234a69c9d7f20c129d122fcf35593d13a071926643076000806000604051610aad93929190613a2c565b60405180910390a350565b60008111610afb576040517f08c379a0000000000000000000000000000000000000000000000000000000008152600401610af290613be3565b60405180910390fd5b6000600160003373ffffffffffffffffffffffffffffffffffffffff1673ffffffffffffffffffffffffffffffffffffffff1681526020019081526020016000209050610b47336111e3565b816001016000828254610b5a9190613dd1565b925050819055504281600201819055508181600101541115610c8657600360009054906101000a900473ffffffffffffffffffffffffffffffffffffffff1673ffffffffffffffffffffffffffffffffffffffff166323b872dd3330856040518463ffffffff1660e01b8152600401610bd5939291906139b1565b602060405180830381600087803b158015610bef57600080fd5b505af1158015610c03573d6000803e3d6000fd5b505050506040513d601f19601f82011682018060405250810190610c2791906132b3565b610c66576040517f08c379a0000000000000000000000000000000000000000000000000000000008152600401610c5d90613b83565b60405180910390fd5b81816001016000828254610c7a9190613eb2565b92505081905550610d85565b600360009054906101000a900473ffffffffffffffffffffffffffffffffffffffff1673ffffffffffffffffffffffffffffffffffffffff166323b872dd333084600101546040518463ffffffff1660e01b8152600401610ce9939291906139b1565b602060405180830381600087803b158015610d0357600080fd5b505af1158015610d17573d6000803e3d6000fd5b505050506040513d601f19601f82011682018060405250810190610d3b91906132b3565b610d7a576040517f08c379a0000000000000000000000000000000000000000000000000000000008152600401610d7190613b83565b60405180910390fd5b600081600101819055505b3373ffffffffffffffffffffffffffffffffffffffff167f2fe77b1c99aca6b022b8efc6e3e8dd1b48b30748709339b65c50ef3263443e098383600101548460000154604051610dd793929190613cee565b60405180910390a25050565b600c5481565b60078181548110610df957600080fd5b906000526020600020016000915054906101000a900473ffffffffffffffffffffffffffffffffffffffff1681565b610e30612119565b73ffffffffffffffffffffffffffffffffffffffff16610e4e6115cc565b73ffffffffffffffffffffffffffffffffffffffff1614610ea4576040517f08c379a0000000000000000000000000000000000000000000000000000000008152600401610e9b90613ba3565b60405180910390fd5b600073ffffffffffffffffffffffffffffffffffffffff168373ffffffffffffffffffffffffffffffffffffffff161415610f14576040517f08c379a0000000000000000000000000000000000000000000000000000000008152600401610f0b90613b43565b60405180910390fd5b600073ffffffffffffffffffffffffffffffffffffffff168273ffffffffffffffffffffffffffffffffffffffff161415610f84576040517f08c379a0000000000000000000000000000000000000000000000000000000008152600401610f7b90613b43565b60405180910390fd5b600073ffffffffffffffffffffffffffffffffffffffff168173ffffffffffffffffffffffffffffffffffffffff161415610ff4576040517f08c379a0000000000000000000000000000000000000000000000000000000008152600401610feb90613b43565b60405180910390fd5b82600560006101000a81548173ffffffffffffffffffffffffffffffffffffffff021916908373ffffffffffffffffffffffffffffffffffffffff16021790555080600360006101000a81548173ffffffffffffffffffffffffffffffffffffffff021916908373ffffffffffffffffffffffffffffffffffffffff16021790555081600460006101000a81548173ffffffffffffffffffffffffffffffffffffffff021916908373ffffffffffffffffffffffffffffffffffffffff1602179055508260076000815481106110f3577f4e487b7100000000000000000000000000000000000000000000000000000000600052603260045260246000fd5b9060005260206000200160006101000a81548173ffffffffffffffffffffffffffffffffffffffff021916908373ffffffffffffffffffffffffffffffffffffffff160217905550816007600181548110611177577f4e487b7100000000000000000000000000000000000000000000000000000000600052603260045260246000fd5b9060005260206000200160006101000a81548173ffffffffffffffffffffffffffffffffffffffff021916908373ffffffffffffffffffffffffffffffffffffffff160217905550505050565b60095481565b600b5481565b600d60009054906101000a9004600f0b81565b600080600160008473ffffffffffffffffffffffffffffffffffffffff1673ffffffffffffffffffffffffffffffffffffffff16815260200190815260200160002060010154148061127757506000600160008473ffffffffffffffffffffffffffffffffffffffff1673ffffffffffffffffffffffffffffffffffffffff16815260200190815260200160002060020154145b8061128457506000600a54145b806112d05750600160008373ffffffffffffffffffffffffffffffffffffffff1673ffffffffffffffffffffffffffffffffffffffff1681526020019081526020016000206002015442145b156112de576000905061144d565b6000600160008473ffffffffffffffffffffffffffffffffffffffff1673ffffffffffffffffffffffffffffffffffffffff168152602001908152602001600020600201544261132e9190613eb2565b9050600061135361133e836120f6565b600d60009054906101000a9004600f0b612121565b90506000611375611365600a546120f6565b6113706127106120f6565b612121565b905060006113c4600160008873ffffffffffffffffffffffffffffffffffffffff1673ffffffffffffffffffffffffffffffffffffffff168152602001908152602001600020600101546120f6565b905060006113eb6113e6836113e16113dc87896121d1565b61223c565b6121d1565b6122b5565b9050600160008873ffffffffffffffffffffffffffffffffffffffff1673ffffffffffffffffffffffffffffffffffffffff168152602001908152602001600020600101548167ffffffffffffffff166114459190613eb2565b955050505050505b919050565b600061145e83836122d6565b905092915050565b61146e612119565b73ffffffffffffffffffffffffffffffffffffffff1661148c6115cc565b73ffffffffffffffffffffffffffffffffffffffff16146114e2576040517f08c379a00000000000000000000000000000000000000000000000000000000081526004016114d990613ba3565b60405180910390fd5b600073ffffffffffffffffffffffffffffffffffffffff1660008054906101000a900473ffffffffffffffffffffffffffffffffffffffff1673ffffffffffffffffffffffffffffffffffffffff167f8be0079c531659141344cd1fd0a4f28419497f9722a3daafe3b4186f6b6457e060405160405180910390a360008060006101000a81548173ffffffffffffffffffffffffffffffffffffffff021916908373ffffffffffffffffffffffffffffffffffffffff160217905550565b600660009054906101000a900473ffffffffffffffffffffffffffffffffffffffff1681565b600a5481565b60008060009054906101000a900473ffffffffffffffffffffffffffffffffffffffff16905090565b60085481565b60025481565b6000600560009054906101000a900473ffffffffffffffffffffffffffffffffffffffff1690508073ffffffffffffffffffffffffffffffffffffffff166323b872dd3330856040518463ffffffff1660e01b8152600401611665939291906139b1565b602060405180830381600087803b15801561167f57600080fd5b505af1158015611693573d6000803e3d6000fd5b505050506040513d601f19601f820116820180604052508101906116b791906132b3565b6116f6576040517f08c379a00000000000000000000000000000000000000000000000000000000081526004016116ed90613c23565b60405180910390fd5b6000600160003373ffffffffffffffffffffffffffffffffffffffff1673ffffffffffffffffffffffffffffffffffffffff16815260200190815260200160002060000154905082816117499190613dd1565b600160003373ffffffffffffffffffffffffffffffffffffffff1673ffffffffffffffffffffffffffffffffffffffff168152602001908152602001600020600001819055503373ffffffffffffffffffffffffffffffffffffffff167fe1fffcc4923d04b559f4d29a8bfc6cda04eb5b0d3c460751c2402c5c5cc9109c846040516117d59190613ca3565b60405180910390a2505050565b600560009054906101000a900473ffffffffffffffffffffffffffffffffffffffff1681565b611810612119565b73ffffffffffffffffffffffffffffffffffffffff1661182e6115cc565b73ffffffffffffffffffffffffffffffffffffffff1614611884576040517f08c379a000000000000000000000000000000000000000000000000000000000815260040161187b90613ba3565b60405180910390fd5b6127108311158015611897575060008310155b6118d6576040517f08c379a00000000000000000000000000000000000000000000000000000000081526004016118cd90613bc3565b60405180910390fd5b61271082111580156118e9575060008210155b80156118f55750828211155b611934576040517f08c379a000000000000000000000000000000000000000000000000000000000815260040161192b90613aa3565b60405180910390fd5b82600881905550816009819055506127108111158015611955575060008110155b611994576040517f08c379a000000000000000000000000000000000000000000000000000000000815260040161198b90613c43565b60405180910390fd5b80600a81905550505050565b600081116119e3576040517f08c379a00000000000000000000000000000000000000000000000000000000081526004016119da90613ac3565b60405180910390fd5b60006119ee336111e3565b9050600b54611a55338484600160003373ffffffffffffffffffffffffffffffffffffffff1673ffffffffffffffffffffffffffffffffffffffff16815260200190815260200160002060010154611a469190613dd1565b611a509190613dd1565b611452565b1015611a96576040517f08c379a0000000000000000000000000000000000000000000000000000000008152600401611a8d90613a63565b60405180910390fd5b8082611aa29190613dd1565b600160003373ffffffffffffffffffffffffffffffffffffffff1673ffffffffffffffffffffffffffffffffffffffff1681526020019081526020016000206001016000828254611af39190613dd1565b9250508190555042600160003373ffffffffffffffffffffffffffffffffffffffff1673ffffffffffffffffffffffffffffffffffffffff16815260200190815260200160002060020181905550600360009054906101000a900473ffffffffffffffffffffffffffffffffffffffff1673ffffffffffffffffffffffffffffffffffffffff166340c10f1933846040518363ffffffff1660e01b8152600401611b9e9291906139e8565b600060405180830381600087803b158015611bb857600080fd5b505af1158015611bcc573d6000803e3d6000fd5b505050503373ffffffffffffffffffffffffffffffffffffffff167f13ed6866d4e1ee6da46f845c46d7e54120883d75c5ea9a2dacc1c4ca8984ab8083600160003373ffffffffffffffffffffffffffffffffffffffff1673ffffffffffffffffffffffffffffffffffffffff16815260200190815260200160002060010154600160003373ffffffffffffffffffffffffffffffffffffffff1673ffffffffffffffffffffffffffffffffffffffff16815260200190815260200160002060000154604051611c9e93929190613cee565b60405180910390a25050565b6000611cf882600160008573ffffffffffffffffffffffffffffffffffffffff1673ffffffffffffffffffffffffffffffffffffffff168152602001908152602001600020600101546122d6565b9050919050565b611d07612119565b73ffffffffffffffffffffffffffffffffffffffff16611d256115cc565b73ffffffffffffffffffffffffffffffffffffffff1614611d7b576040517f08c379a0000000000000000000000000000000000000000000000000000000008152600401611d7290613ba3565b60405180910390fd5b612710821015611dc0576040517f08c379a0000000000000000000000000000000000000000000000000000000008152600401611db790613b23565b60405180910390fd5b612710811015611e05576040517f08c379a0000000000000000000000000000000000000000000000000000000008152600401611dfc90613c63565b60405180910390fd5b81600b8190555080600c819055505050565b61271081565b611e25612119565b73ffffffffffffffffffffffffffffffffffffffff16611e436115cc565b73ffffffffffffffffffffffffffffffffffffffff1614611e99576040517f08c379a0000000000000000000000000000000000000000000000000000000008152600401611e9090613ba3565b60405180910390fd5b600073ffffffffffffffffffffffffffffffffffffffff168173ffffffffffffffffffffffffffffffffffffffff161415611f09576040517f08c379a0000000000000000000000000000000000000000000000000000000008152600401611f0090613b43565b60405180910390fd5b80600660006101000a81548173ffffffffffffffffffffffffffffffffffffffff021916908373ffffffffffffffffffffffffffffffffffffffff16021790555050565b611f55612119565b73ffffffffffffffffffffffffffffffffffffffff16611f736115cc565b73ffffffffffffffffffffffffffffffffffffffff1614611fc9576040517f08c379a0000000000000000000000000000000000000000000000000000000008152600401611fc090613ba3565b60405180910390fd5b600073ffffffffffffffffffffffffffffffffffffffff168173ffffffffffffffffffffffffffffffffffffffff161415612039576040517f08c379a000000000000000000000000000000000000000000000000000000000815260040161203090613a83565b60405180910390fd5b8073ffffffffffffffffffffffffffffffffffffffff1660008054906101000a900473ffffffffffffffffffffffffffffffffffffffff1673ffffffffffffffffffffffffffffffffffffffff167f8be0079c531659141344cd1fd0a4f28419497f9722a3daafe3b4186f6b6457e060405160405180910390a3806000806101000a81548173ffffffffffffffffffffffffffffffffffffffff021916908373ffffffffffffffffffffffffffffffffffffffff16021790555050565b6000677fffffffffffffff82111561210d57600080fd5b604082901b9050919050565b600033905090565b60008082600f0b141561213357600080fd5b600082600f0b604085600f0b901b81612175577f4e487b7100000000000000000000000000000000000000000000000000000000600052601260045260246000fd5b0590507fffffffffffffffffffffffffffffffff80000000000000000000000000000000600f0b81121580156121be57506f7fffffffffffffffffffffffffffffff600f0b8113155b6121c757600080fd5b8091505092915050565b600080604083600f0b85600f0b02901d90507fffffffffffffffffffffffffffffffff80000000000000000000000000000000600f0b811215801561222957506f7fffffffffffffffffffffffffffffff600f0b8113155b61223257600080fd5b8091505092915050565b60006840000000000000000082600f0b1261225657600080fd5b7fffffffffffffffffffffffffffffffffffffffffffffffc0000000000000000082600f0b121561228a57600090506122b0565b6122ad6080700171547652b82fe1777d0ffda0d23a7d1284600f0b02901d6124d4565b90505b919050565b60008082600f0b12156122c757600080fd5b604082600f0b901d9050919050565b600080600160008573ffffffffffffffffffffffffffffffffffffffff1673ffffffffffffffffffffffffffffffffffffffff16815260200190815260200160002060000154905060008114156123315760009150506124ce565b6000831415612363577fffffffffffffffffffffffffffffffffffffffffffffffffffffffffffffffff9150506124ce565b600081116123a6576040517f08c379a000000000000000000000000000000000000000000000000000000000815260040161239d90613c03565b60405180910390fd5b6000600660009054906101000a900473ffffffffffffffffffffffffffffffffffffffff16905060008173ffffffffffffffffffffffffffffffffffffffff1663d06ca61f8460076040518363ffffffff1660e01b815260040161240b929190613cbe565b60006040518083038186803b15801561242357600080fd5b505afa158015612437573d6000803e3d6000fd5b505050506040513d6000823e3d601f19601f820116820180604052508101906124609190613272565b600181518110612499577f4e487b7100000000000000000000000000000000000000000000000000000000600052603260045260246000fd5b60200260200101519050846064612710836124b49190613e58565b6124be9190613e58565b6124c89190613e27565b93505050505b92915050565b60006840000000000000000082600f0b126124ee57600080fd5b7fffffffffffffffffffffffffffffffffffffffffffffffc0000000000000000082600f0b121561252257600090506130cf565b60006f80000000000000000000000000000000905060006780000000000000008416600f0b131561256857608070016a09e667f3bcc908b2fb1366ea957d3e8202901c90505b60006740000000000000008416600f0b13156125995760807001306fe0a31b7152de8d5a46305c85edec8202901c90505b60006720000000000000008416600f0b13156125ca5760807001172b83c7d517adcdf7c8c50eb14a791f8202901c90505b60006710000000000000008416600f0b13156125fb57608070010b5586cf9890f6298b92b71842a983638202901c90505b60006708000000000000008416600f0b131561262c5760807001059b0d31585743ae7c548eb68ca417fd8202901c90505b60006704000000000000008416600f0b131561265d576080700102c9a3e778060ee6f7caca4f7a29bde88202901c90505b60006702000000000000008416600f0b131561268e57608070010163da9fb33356d84a66ae336dcdfa3f8202901c90505b60006701000000000000008416600f0b13156126bf576080700100b1afa5abcbed6129ab13ec11dc95438202901c90505b600066800000000000008416600f0b13156126ef57608070010058c86da1c09ea1ff19d294cf2f679b8202901c90505b600066400000000000008416600f0b131561271f5760807001002c605e2e8cec506d21bfc89a23a00f8202901c90505b600066200000000000008416600f0b131561274f576080700100162f3904051fa128bca9c55c31e5df8202901c90505b600066100000000000008416600f0b131561277f5760807001000b175effdc76ba38e31671ca9397258202901c90505b600066080000000000008416600f0b13156127af576080700100058ba01fb9f96d6cacd4b180917c3d8202901c90505b600066040000000000008416600f0b13156127df57608070010002c5cc37da9491d0985c348c68e7b38202901c90505b600066020000000000008416600f0b131561280f5760807001000162e525ee054754457d59952920268202901c90505b600066010000000000008416600f0b131561283f57608070010000b17255775c040618bf4a4ade83fc8202901c90505b6000658000000000008416600f0b131561286e5760807001000058b91b5bc9ae2eed81e9b7d4cfab8202901c90505b6000654000000000008416600f0b131561289d576080700100002c5c89d5ec6ca4d7c8acc017b7c98202901c90505b6000652000000000008416600f0b13156128cc57608070010000162e43f4f831060e02d839a9d16d8202901c90505b6000651000000000008416600f0b13156128fb576080700100000b1721bcfc99d9f890ea069117638202901c90505b6000650800000000008416600f0b131561292a57608070010000058b90cf1e6d97f9ca14dbcc16288202901c90505b6000650400000000008416600f0b13156129595760807001000002c5c863b73f016468f6bac5ca2b8202901c90505b6000650200000000008416600f0b1315612988576080700100000162e430e5a18f6119e3c02282a58202901c90505b6000650100000000008416600f0b13156129b75760807001000000b1721835514b86e6d96efd1bfe8202901c90505b60006480000000008416600f0b13156129e5576080700100000058b90c0b48c6be5df846c5b2ef8202901c90505b60006440000000008416600f0b1315612a1357608070010000002c5c8601cc6b9e94213c72737a8202901c90505b60006420000000008416600f0b1315612a415760807001000000162e42fff037df38aa2b219f068202901c90505b60006410000000008416600f0b1315612a6f57608070010000000b17217fba9c739aa5819f44f98202901c90505b60006408000000008416600f0b1315612a9d5760807001000000058b90bfcdee5acd3c1cedc8238202901c90505b60006404000000008416600f0b1315612acb576080700100000002c5c85fe31f35a6a30da1be508202901c90505b60006402000000008416600f0b1315612af957608070010000000162e42ff0999ce3541b9fffcf8202901c90505b60006401000000008416600f0b1315612b27576080700100000000b17217f80f4ef5aadda455548202901c90505b600063800000008416600f0b1315612b5457608070010000000058b90bfbf8479bd5a81b51ad8202901c90505b600063400000008416600f0b1315612b815760807001000000002c5c85fdf84bd62ae30a74cc8202901c90505b600063200000008416600f0b1315612bae576080700100000000162e42fefb2fed257559bdaa8202901c90505b600063100000008416600f0b1315612bdb5760807001000000000b17217f7d5a7716bba4a9ae8202901c90505b600063080000008416600f0b1315612c08576080700100000000058b90bfbe9ddbac5e109cce8202901c90505b600063040000008416600f0b1315612c3557608070010000000002c5c85fdf4b15de6f17eb0d8202901c90505b600063020000008416600f0b1315612c625760807001000000000162e42fefa494f1478fde058202901c90505b600063010000008416600f0b1315612c8f57608070010000000000b17217f7d20cf927c8e94c8202901c90505b6000628000008416600f0b1315612cbb5760807001000000000058b90bfbe8f71cb4e4b33d8202901c90505b6000624000008416600f0b1315612ce7576080700100000000002c5c85fdf477b662b269458202901c90505b6000622000008416600f0b1315612d1357608070010000000000162e42fefa3ae53369388c8202901c90505b6000621000008416600f0b1315612d3f576080700100000000000b17217f7d1d351a389d408202901c90505b6000620800008416600f0b1315612d6b57608070010000000000058b90bfbe8e8b2d3d4ede8202901c90505b6000620400008416600f0b1315612d975760807001000000000002c5c85fdf4741bea6e77e8202901c90505b6000620200008416600f0b1315612dc3576080700100000000000162e42fefa39fe95583c28202901c90505b6000620100008416600f0b1315612def5760807001000000000000b17217f7d1cfb72b45e18202901c90505b60006180008416600f0b1315612e1a576080700100000000000058b90bfbe8e7cc35c3f08202901c90505b60006140008416600f0b1315612e4557608070010000000000002c5c85fdf473e242ea388202901c90505b60006120008416600f0b1315612e705760807001000000000000162e42fefa39f02b772c8202901c90505b60006110008416600f0b1315612e9b57608070010000000000000b17217f7d1cf7d83c1a8202901c90505b60006108008416600f0b1315612ec65760807001000000000000058b90bfbe8e7bdcbe2e8202901c90505b60006104008416600f0b1315612ef1576080700100000000000002c5c85fdf473dea871f8202901c90505b60006102008416600f0b1315612f1c57608070010000000000000162e42fefa39ef44d918202901c90505b60006101008416600f0b1315612f47576080700100000000000000b17217f7d1cf79e9498202901c90505b600060808416600f0b1315612f7157608070010000000000000058b90bfbe8e7bce5448202901c90505b600060408416600f0b1315612f9b5760807001000000000000002c5c85fdf473de6eca8202901c90505b600060208416600f0b1315612fc5576080700100000000000000162e42fefa39ef366f8202901c90505b600060108416600f0b1315612fef5760807001000000000000000b17217f7d1cf79afa8202901c90505b600060088416600f0b1315613019576080700100000000000000058b90bfbe8e7bcd6d8202901c90505b600060048416600f0b131561304357608070010000000000000002c5c85fdf473de6b28202901c90505b600060028416600f0b131561306d5760807001000000000000000162e42fefa39ef3588202901c90505b600060018416600f0b131561309757608070010000000000000000b17217f7d1cf79ab8202901c90505b604083600f0b901d603f03600f0b81901c90506f7fffffffffffffffffffffffffffffff600f0b8111156130ca57600080fd5b809150505b919050565b60006130e76130e284613d56565b613d25565b9050808382526020820190508285602086028201111561310657600080fd5b60005b85811015613136578161311c88826131a9565b845260208401935060208301925050600181019050613109565b5050509392505050565b60008135905061314f81614034565b92915050565b600082601f83011261316657600080fd5b81516131768482602086016130d4565b91505092915050565b60008151905061318e8161404b565b92915050565b6000813590506131a381614062565b92915050565b6000815190506131b881614062565b92915050565b6000602082840312156131d057600080fd5b60006131de84828501613140565b91505092915050565b6000806000606084860312156131fc57600080fd5b600061320a86828701613140565b935050602061321b86828701613140565b925050604061322c86828701613140565b9150509250925092565b6000806040838503121561324957600080fd5b600061325785828601613140565b925050602061326885828601613194565b9150509250929050565b60006020828403121561328457600080fd5b600082015167ffffffffffffffff81111561329e57600080fd5b6132aa84828501613155565b91505092915050565b6000602082840312156132c557600080fd5b60006132d38482850161317f565b91505092915050565b6000602082840312156132ee57600080fd5b60006132fc84828501613194565b91505092915050565b6000806040838503121561331857600080fd5b600061332685828601613194565b925050602061333785828601613194565b9150509250929050565b60008060006060848603121561335657600080fd5b600061336486828701613194565b935050602061337586828701613194565b925050604061338686828701613194565b9150509250925092565b600061339c83836133a8565b60208301905092915050565b6133b181613f06565b82525050565b6133c081613f06565b82525050565b60006133d182613d97565b6133db8185613daf565b93506133e683613d82565b8060005b8381101561341e576133fb82614014565b6134058882613390565b975061341083613da2565b9250506001810190506133ea565b5085935050505092915050565b61343481613f24565b82525050565b61344381613f5b565b82525050565b6000613456602983613dc0565b91507f6e6f7420656e6f75676820636f6c6c61746572616c20746f20626f72726f772060008301527f74686174206d75636800000000000000000000000000000000000000000000006020830152604082019050919050565b60006134bc602683613dc0565b91507f4f776e61626c653a206e6577206f776e657220697320746865207a65726f206160008301527f64647265737300000000000000000000000000000000000000000000000000006020830152604082019050919050565b6000613522601883613dc0565b91507f6c69714665655368617265206f7574206f662072616e676500000000000000006000830152602082019050919050565b6000613562600e83613dc0565b91507f63616e277420626f72726f7720300000000000000000000000000000000000006000830152602082019050919050565b60006135a2603083613dc0565b91507f7769746864726177206c657373206f6620636f6c6c61746572616c207261746960008301527f6f206265636f6d657320756e73616665000000000000000000000000000000006020830152604082019050919050565b6000613608601883613dc0565b91507f7769746864726177207472616e73666572206661696c656400000000000000006000830152602082019050919050565b6000613648602983613dc0565b91507f626f72726f77207468726573686f6c64206d757374206265203e207363616c6960008301527f6e6720666163746f7200000000000000000000000000000000000000000000006020830152604082019050919050565b60006136ae601883613dc0565b91507f7a65726f2061646472657373206e6f7420616c6c6f77656400000000000000006000830152602082019050919050565b60006136ee602783613dc0565b91507f636f6c6c61746572616c20726174696f206973203c3d20626f72726f7720746860008301527f726573686f6c64000000000000000000000000000000000000000000000000006020830152604082019050919050565b6000613754601583613dc0565b91507f7265706179207472616e73666572206661696c656400000000000000000000006000830152602082019050919050565b6000613794602083613dc0565b91507f4f776e61626c653a2063616c6c6572206973206e6f7420746865206f776e65726000830152602082019050919050565b60006137d4601883613dc0565b91507f6c6971546f74616c466565206f7574206f662072616e676500000000000000006000830152602082019050919050565b6000613814600d83613dc0565b91507f63616e27742072657061792030000000000000000000000000000000000000006000830152602082019050919050565b6000613854600083613dc0565b9150600082019050919050565b600061386e600e83613dc0565b91507f6465706f736974206661696c65640000000000000000000000000000000000006000830152602082019050919050565b60006138ae601983613dc0565b91507f696e74657265737452617465206f7574206f662072616e6765000000000000006000830152602082019050919050565b60006138ee602683613dc0565b91507f6c6971207468726573686f6c64206d757374206265203e207363616c696e672060008301527f666163746f7200000000000000000000000000000000000000000000000000006020830152604082019050919050565b6000613954602083613dc0565b91507f6e6f7420656e6f75676820636f6c6c61746572616c20696e206163636f756e746000830152602082019050919050565b61399081613f51565b82525050565b60006020820190506139ab60008301846133b7565b92915050565b60006060820190506139c660008301866133b7565b6139d360208301856133b7565b6139e06040830184613987565b949350505050565b60006040820190506139fd60008301856133b7565b613a0a6020830184613987565b9392505050565b6000602082019050613a26600083018461342b565b92915050565b6000606082019050613a41600083018661343a565b613a4e602083018561343a565b613a5b604083018461343a565b949350505050565b60006020820190508181036000830152613a7c81613449565b9050919050565b60006020820190508181036000830152613a9c816134af565b9050919050565b60006020820190508181036000830152613abc81613515565b9050919050565b60006020820190508181036000830152613adc81613555565b9050919050565b60006020820190508181036000830152613afc81613595565b9050919050565b60006020820190508181036000830152613b1c816135fb565b9050919050565b60006020820190508181036000830152613b3c8161363b565b9050919050565b60006020820190508181036000830152613b5c816136a1565b9050919050565b60006020820190508181036000830152613b7c816136e1565b9050919050565b60006020820190508181036000830152613b9c81613747565b9050919050565b60006020820190508181036000830152613bbc81613787565b9050919050565b60006020820190508181036000830152613bdc816137c7565b9050919050565b60006020820190508181036000830152613bfc81613807565b9050919050565b60006020820190508181036000830152613c1c81613847565b9050919050565b60006020820190508181036000830152613c3c81613861565b9050919050565b60006020820190508181036000830152613c5c816138a1565b9050919050565b60006020820190508181036000830152613c7c816138e1565b9050919050565b60006020820190508181036000830152613c9c81613947565b9050919050565b6000602082019050613cb86000830184613987565b92915050565b6000604082019050613cd36000830185613987565b8181036020830152613ce581846133c6565b90509392505050565b6000606082019050613d036000830186613987565b613d106020830185613987565b613d1d6040830184613987565b949350505050565b6000604051905081810181811067ffffffffffffffff82111715613d4c57613d4b613fe5565b5b8060405250919050565b600067ffffffffffffffff821115613d7157613d70613fe5565b5b602082029050602081019050919050565b60008190508160005260206000209050919050565b600081549050919050565b6000600182019050919050565b600082825260208201905092915050565b600082825260208201905092915050565b6000613ddc82613f51565b9150613de783613f51565b9250827fffffffffffffffffffffffffffffffffffffffffffffffffffffffffffffffff03821115613e1c57613e1b613f87565b5b828201905092915050565b6000613e3282613f51565b9150613e3d83613f51565b925082613e4d57613e4c613fb6565b5b828204905092915050565b6000613e6382613f51565b9150613e6e83613f51565b9250817fffffffffffffffffffffffffffffffffffffffffffffffffffffffffffffffff0483118215151615613ea757613ea6613f87565b5b828202905092915050565b6000613ebd82613f51565b9150613ec883613f51565b925082821015613edb57613eda613f87565b5b828203905092915050565b600073ffffffffffffffffffffffffffffffffffffffff82169050919050565b6000613f1182613f31565b9050919050565b60008115159050919050565b600081600f0b9050919050565b600073ffffffffffffffffffffffffffffffffffffffff82169050919050565b6000819050919050565b6000613f6682613f51565b9050919050565b6000613f80613f7b83614027565b613ee6565b9050919050565b7f4e487b7100000000000000000000000000000000000000000000000000000000600052601160045260246000fd5b7f4e487b7100000000000000000000000000000000000000000000000000000000600052601260045260246000fd5b7f4e487b7100000000000000000000000000000000000000000000000000000000600052604160045260246000fd5b60006140208254613f6d565b9050919050565b60008160001c9050919050565b61403d81613f06565b811461404857600080fd5b50565b61405481613f18565b811461405f57600080fd5b50565b61406b81613f51565b811461407657600080fd5b5056fea2646970667358221220eb89f8fcb87131248725fcf9f4826293921f4b96e1e82c0fa090e903f5d7459364736f6c63430008000033",
  "linkReferences": {},
  "deployedLinkReferences": {}
}