{
  "_format": "hh-sol-artifact-1",
  "contractName": "Controller",
  "sourceName": "contracts/Controller.sol",
  "abi": [
    {
      "inputs": [
        {
          "internalType": "address",
          "name": "_usdzAddress",
          "type": "address"
        },
        {
          "internalType": "address",
          "name": "_usdcAddress",
          "type": "address"
        },
        {
          "internalType": "address",
          "name": "_xSushiAddress",
          "type": "address"
        },
        {
          "internalType": "address",
          "name": "_routerAddress",
          "type": "address"
        },
        {
          "internalType": "uint256",
          "name": "_liqTotalFee",
          "type": "uint256"
        },
        {
          "internalType": "uint256",
          "name": "_liqFeeShare",
          "type": "uint256"
        },
        {
          "internalType": "uint256",
          "name": "_interestRate",
          "type": "uint256"
        },
        {
          "internalType": "uint256",
          "name": "_borrowThreshold",
          "type": "uint256"
        },
        {
          "internalType": "uint256",
          "name": "_liqThreshold",
          "type": "uint256"
        }
      ],
      "stateMutability": "nonpayable",
      "type": "constructor"
    },
    {
      "anonymous": false,
      "inputs": [
        {
          "indexed": true,
          "internalType": "address",
          "name": "account",
          "type": "address"
        },
        {
          "indexed": false,
          "internalType": "uint256",
          "name": "amountBorrowed",
          "type": "uint256"
        },
        {
          "indexed": false,
          "internalType": "uint256",
          "name": "collateral",
          "type": "uint256"
        },
        {
          "indexed": false,
          "internalType": "uint256",
          "name": "totalDebt",
          "type": "uint256"
        }
      ],
      "name": "Borrow",
      "type": "event"
    },
    {
      "anonymous": false,
      "inputs": [
        {
          "indexed": true,
          "internalType": "address",
          "name": "account",
          "type": "address"
        },
        {
          "indexed": false,
          "internalType": "uint256",
          "name": "amount",
          "type": "uint256"
        }
      ],
      "name": "Deposit",
      "type": "event"
    },
    {
      "anonymous": false,
      "inputs": [
        {
          "indexed": true,
          "internalType": "address",
          "name": "account",
          "type": "address"
        },
        {
          "indexed": true,
          "internalType": "address",
          "name": "liquidator",
          "type": "address"
        },
        {
          "indexed": false,
          "internalType": "uint256",
          "name": "collateralLiquidated",
          "type": "uint256"
        },
        {
          "indexed": false,
          "internalType": "uint256",
          "name": "lastCollateralRatio",
          "type": "uint256"
        },
        {
          "indexed": false,
          "internalType": "uint256",
          "name": "lastDebtOutstanding",
          "type": "uint256"
        }
      ],
      "name": "Liquidation",
      "type": "event"
    },
    {
      "anonymous": false,
      "inputs": [
        {
          "indexed": true,
          "internalType": "address",
          "name": "previousOwner",
          "type": "address"
        },
        {
          "indexed": true,
          "internalType": "address",
          "name": "newOwner",
          "type": "address"
        }
      ],
      "name": "OwnershipTransferred",
      "type": "event"
    },
    {
      "anonymous": false,
      "inputs": [
        {
          "indexed": true,
          "internalType": "address",
          "name": "account",
          "type": "address"
        },
        {
          "indexed": false,
          "internalType": "uint256",
          "name": "debtRepaid",
          "type": "uint256"
        },
        {
          "indexed": false,
          "internalType": "uint256",
          "name": "debtRemaining",
          "type": "uint256"
        },
        {
          "indexed": false,
          "internalType": "uint256",
          "name": "collateral",
          "type": "uint256"
        }
      ],
      "name": "Repay",
      "type": "event"
    },
    {
      "anonymous": false,
      "inputs": [
        {
          "indexed": true,
          "internalType": "address",
          "name": "account",
          "type": "address"
        },
        {
          "indexed": false,
          "internalType": "uint256",
          "name": "amount",
          "type": "uint256"
        }
      ],
      "name": "Withdraw",
      "type": "event"
    },
    {
      "inputs": [],
      "name": "SCALING_FACTOR",
      "outputs": [
        {
          "internalType": "uint256",
          "name": "",
          "type": "uint256"
        }
      ],
      "stateMutability": "view",
      "type": "function"
    },
    {
      "inputs": [
        {
          "internalType": "uint256",
          "name": "_amount",
          "type": "uint256"
        }
      ],
      "name": "borrow",
      "outputs": [],
      "stateMutability": "nonpayable",
      "type": "function"
    },
    {
      "inputs": [],
      "name": "borrowThreshold",
      "outputs": [
        {
          "internalType": "uint256",
          "name": "",
          "type": "uint256"
        }
      ],
      "stateMutability": "view",
      "type": "function"
    },
    {
      "inputs": [
        {
          "internalType": "uint256",
          "name": "_amount",
          "type": "uint256"
        }
      ],
      "name": "deposit",
      "outputs": [],
      "stateMutability": "nonpayable",
      "type": "function"
    },
    {
      "inputs": [
        {
          "internalType": "address",
          "name": "_account",
          "type": "address"
        }
      ],
      "name": "getCollateralRatio",
      "outputs": [
        {
          "internalType": "uint256",
          "name": "",
          "type": "uint256"
        }
      ],
      "stateMutability": "view",
      "type": "function"
    },
    {
      "inputs": [],
      "name": "interestRate",
      "outputs": [
        {
          "internalType": "uint256",
          "name": "",
          "type": "uint256"
        }
      ],
      "stateMutability": "view",
      "type": "function"
    },
    {
      "inputs": [
        {
          "internalType": "address",
          "name": "_account",
          "type": "address"
        }
      ],
      "name": "liquidate",
      "outputs": [],
      "stateMutability": "nonpayable",
      "type": "function"
    },
    {
      "inputs": [],
      "name": "liquidationFee",
      "outputs": [
        {
          "internalType": "uint256",
          "name": "",
          "type": "uint256"
        }
      ],
      "stateMutability": "view",
      "type": "function"
    },
    {
      "inputs": [],
      "name": "liquidationThreshold",
      "outputs": [
        {
          "internalType": "uint256",
          "name": "",
          "type": "uint256"
        }
      ],
      "stateMutability": "view",
      "type": "function"
    },
    {
      "inputs": [],
      "name": "liquidatorFeeShare",
      "outputs": [
        {
          "internalType": "uint256",
          "name": "",
          "type": "uint256"
        }
      ],
      "stateMutability": "view",
      "type": "function"
    },
    {
      "inputs": [],
      "name": "owner",
      "outputs": [
        {
          "internalType": "address",
          "name": "",
          "type": "address"
        }
      ],
      "stateMutability": "view",
      "type": "function"
    },
    {
      "inputs": [],
      "name": "protocolShortfall",
      "outputs": [
        {
          "internalType": "uint256",
          "name": "",
          "type": "uint256"
        }
      ],
      "stateMutability": "view",
      "type": "function"
    },
    {
      "inputs": [],
      "name": "renounceOwnership",
      "outputs": [],
      "stateMutability": "nonpayable",
      "type": "function"
    },
    {
      "inputs": [
        {
          "internalType": "uint256",
          "name": "_amount",
          "type": "uint256"
        }
      ],
      "name": "repay",
      "outputs": [],
      "stateMutability": "nonpayable",
      "type": "function"
    },
    {
      "inputs": [
        {
          "internalType": "uint256",
          "name": "_liqTotalFee",
          "type": "uint256"
        },
        {
          "internalType": "uint256",
          "name": "_liqFeeShare",
          "type": "uint256"
        },
        {
          "internalType": "uint256",
          "name": "_interestRate",
          "type": "uint256"
        }
      ],
      "name": "setFeesAndRates",
      "outputs": [],
      "stateMutability": "nonpayable",
      "type": "function"
    },
    {
      "inputs": [
        {
          "internalType": "uint256",
          "name": "_borrowThreshold",
          "type": "uint256"
        },
        {
          "internalType": "uint256",
          "name": "_liqThreshold",
          "type": "uint256"
        }
      ],
      "name": "setThresholds",
      "outputs": [],
      "stateMutability": "nonpayable",
      "type": "function"
    },
    {
      "inputs": [
        {
          "internalType": "address",
          "name": "_newAddress",
          "type": "address"
        }
      ],
      "name": "setUSDZAddress",
      "outputs": [],
      "stateMutability": "nonpayable",
      "type": "function"
    },
    {
      "inputs": [
        {
          "internalType": "address",
          "name": "_newAddress",
          "type": "address"
        }
      ],
      "name": "setXSUSHIAddress",
      "outputs": [],
      "stateMutability": "nonpayable",
      "type": "function"
    },
    {
      "inputs": [],
      "name": "sushiRouterAddress",
      "outputs": [
        {
          "internalType": "address",
          "name": "",
          "type": "address"
        }
      ],
      "stateMutability": "view",
      "type": "function"
    },
    {
      "inputs": [
        {
          "internalType": "address",
          "name": "newOwner",
          "type": "address"
        }
      ],
      "name": "transferOwnership",
      "outputs": [],
      "stateMutability": "nonpayable",
      "type": "function"
    },
    {
      "inputs": [],
      "name": "usdcAddress",
      "outputs": [
        {
          "internalType": "address",
          "name": "",
          "type": "address"
        }
      ],
      "stateMutability": "view",
      "type": "function"
    },
    {
      "inputs": [],
      "name": "usdzAddress",
      "outputs": [
        {
          "internalType": "address",
          "name": "",
          "type": "address"
        }
      ],
      "stateMutability": "view",
      "type": "function"
    },
    {
      "inputs": [
        {
          "internalType": "uint256",
          "name": "_amount",
          "type": "uint256"
        }
      ],
      "name": "withdraw",
      "outputs": [],
      "stateMutability": "nonpayable",
      "type": "function"
    },
    {
      "inputs": [],
      "name": "xSushiAddress",
      "outputs": [
        {
          "internalType": "address",
          "name": "",
          "type": "address"
        }
      ],
      "stateMutability": "view",
      "type": "function"
    },
    {
      "inputs": [
        {
          "internalType": "uint256",
          "name": "",
          "type": "uint256"
        }
      ],
      "name": "xSushiToUsdcPath",
      "outputs": [
        {
          "internalType": "address",
          "name": "",
          "type": "address"
        }
      ],
      "stateMutability": "view",
      "type": "function"
    }
  ],
  "bytecode": "0x60a06040526127106080908152503480156200001a57600080fd5b5060405162002abd38038062002abd83398181016040528101906200004091906200049e565b600062000052620003ba60201b60201c565b9050806000806101000a81548173ffffffffffffffffffffffffffffffffffffffff021916908373ffffffffffffffffffffffffffffffffffffffff1602179055508073ffffffffffffffffffffffffffffffffffffffff16600073ffffffffffffffffffffffffffffffffffffffff167f8be0079c531659141344cd1fd0a4f28419497f9722a3daafe3b4186f6b6457e060405160405180910390a35088600360006101000a81548173ffffffffffffffffffffffffffffffffffffffff021916908373ffffffffffffffffffffffffffffffffffffffff16021790555087600460006101000a81548173ffffffffffffffffffffffffffffffffffffffff021916908373ffffffffffffffffffffffffffffffffffffffff16021790555086600560006101000a81548173ffffffffffffffffffffffffffffffffffffffff021916908373ffffffffffffffffffffffffffffffffffffffff16021790555085600660006101000a81548173ffffffffffffffffffffffffffffffffffffffff021916908373ffffffffffffffffffffffffffffffffffffffff160217905550846008819055508360098190555082600a8190555081600b8190555080600c81905550600267ffffffffffffffff81111562000259577f4e487b7100000000000000000000000000000000000000000000000000000000600052604160045260246000fd5b604051908082528060200260200182016040528015620002885781602001602082028036833780820191505090505b5060079080519060200190620002a0929190620003c2565b50866007600081548110620002de577f4e487b7100000000000000000000000000000000000000000000000000000000600052603260045260246000fd5b9060005260206000200160006101000a81548173ffffffffffffffffffffffffffffffffffffffff021916908373ffffffffffffffffffffffffffffffffffffffff16021790555087600760018154811062000363577f4e487b7100000000000000000000000000000000000000000000000000000000600052603260045260246000fd5b9060005260206000200160006101000a81548173ffffffffffffffffffffffffffffffffffffffff021916908373ffffffffffffffffffffffffffffffffffffffff160217905550505050505050505050620005e9565b600033905090565b8280548282559060005260206000209081019282156200043e579160200282015b828111156200043d5782518260006101000a81548173ffffffffffffffffffffffffffffffffffffffff021916908373ffffffffffffffffffffffffffffffffffffffff16021790555091602001919060010190620003e3565b5b5090506200044d919062000451565b5090565b5b808211156200046c57600081600090555060010162000452565b5090565b6000815190506200048181620005b5565b92915050565b6000815190506200049881620005cf565b92915050565b60008060008060008060008060006101208a8c031215620004be57600080fd5b6000620004ce8c828d0162000470565b9950506020620004e18c828d0162000470565b9850506040620004f48c828d0162000470565b9750506060620005078c828d0162000470565b96505060806200051a8c828d0162000487565b95505060a06200052d8c828d0162000487565b94505060c0620005408c828d0162000487565b93505060e0620005538c828d0162000487565b925050610100620005678c828d0162000487565b9150509295985092959850929598565b600062000584826200058b565b9050919050565b600073ffffffffffffffffffffffffffffffffffffffff82169050919050565b6000819050919050565b620005c08162000577565b8114620005cc57600080fd5b50565b620005da81620005ab565b8114620005e657600080fd5b50565b60805161248762000636600039600081816106a101528181610808015281816111c101528181611231015281816112bb015281816114090152818161146c01526114e101526124876000f3fe608060405234801561001057600080fd5b50600436106101735760003560e01c80637c3a00fd116100de578063b6b55f2511610097578063c5ebeaec11610071578063c5ebeaec146103f0578063e3064a771461040c578063ef4cadc514610428578063f2fde38b1461044657610173565b8063b6b55f251461039a578063bdfccad3146103b6578063bfaf48d4146103d457610173565b80637c3a00fd146102ea5780638456b755146103085780638da5cb5b146103245780638f6ba29a14610342578063a36a36301461035e578063af1f556f1461037c57610173565b80634031234c116101305780634031234c146102385780634a63a5ce1461025657806354054808146102865780635ae547e3146102a4578063715018a6146102c257806379bbce8f146102cc57610173565b806302d454571461017857806315a3ba431461019657806320bdf800146101c65780632e1a7d4d146101e45780632f86556814610200578063371fd8e61461021c575b600080fd5b610180610462565b60405161018d9190611df6565b60405180910390f35b6101b060048036038101906101ab919061179e565b610488565b6040516101bd9190612088565b60405180910390f35b6101ce6106e1565b6040516101db9190611df6565b60405180910390f35b6101fe60048036038101906101f99190611831565b610707565b005b61021a6004803603810190610215919061179e565b610a2c565b005b61023660048036038101906102319190611831565b610a9a565b005b610240610af0565b60405161024d9190612088565b60405180910390f35b610270600480360381019061026b9190611831565b610af6565b60405161027d9190611df6565b60405180910390f35b61028e610b35565b60405161029b9190612088565b60405180910390f35b6102ac610b3b565b6040516102b99190612088565b60405180910390f35b6102ca610b41565b005b6102d4610c7b565b6040516102e19190611df6565b60405180910390f35b6102f2610ca1565b6040516102ff9190612088565b60405180910390f35b610322600480360381019061031d919061179e565b610ca7565b005b61032c610dd7565b6040516103399190611df6565b60405180910390f35b61035c6004803603810190610357919061179e565b610e00565b005b610366610f30565b6040516103739190612088565b60405180910390f35b610384610f36565b6040516103919190612088565b60405180910390f35b6103b460048036038101906103af9190611831565b610f3c565b005b6103be61111d565b6040516103cb9190611df6565b60405180910390f35b6103ee60048036038101906103e99190611896565b611143565b005b61040a60048036038101906104059190611831565b611335565b005b6104266004803603810190610421919061185a565b61138b565b005b6104306114df565b60405161043d9190612088565b60405180910390f35b610460600480360381019061045b919061179e565b611503565b005b600460009054906101000a900473ffffffffffffffffffffffffffffffffffffffff1681565b600080600160008473ffffffffffffffffffffffffffffffffffffffff1673ffffffffffffffffffffffffffffffffffffffff1681526020019081526020016000206000015490506000600160008573ffffffffffffffffffffffffffffffffffffffff1673ffffffffffffffffffffffffffffffffffffffff168152602001908152602001600020600101549050600082141561052b576000925050506106dc565b600081141561055e577fffffffffffffffffffffffffffffffffffffffffffffffffffffffffffffffff925050506106dc565b600082116105a1576040517f08c379a000000000000000000000000000000000000000000000000000000000815260040161059890611fe8565b60405180910390fd5b6000600660009054906101000a900473ffffffffffffffffffffffffffffffffffffffff16905060008173ffffffffffffffffffffffffffffffffffffffff1663d06ca61f8560076040518363ffffffff1660e01b81526004016106069291906120a3565b60006040518083038186803b15801561061e57600080fd5b505afa158015610632573d6000803e3d6000fd5b505050506040513d6000823e3d601f19601f8201168201806040525081019061065b91906117c7565b600181518110610694577f4e487b7100000000000000000000000000000000000000000000000000000000600052603260045260246000fd5b60200260200101519050827f0000000000000000000000000000000000000000000000000000000000000000826106cb919061223d565b6106d5919061220c565b9450505050505b919050565b600360009054906101000a900473ffffffffffffffffffffffffffffffffffffffff1681565b6000600160003373ffffffffffffffffffffffffffffffffffffffff1673ffffffffffffffffffffffffffffffffffffffff16815260200190815260200160002060000154905081811015610791576040517f08c379a000000000000000000000000000000000000000000000000000000000815260040161078890612068565b60405180910390fd5b600061079c33610488565b9050600b5481116107e2576040517f08c379a00000000000000000000000000000000000000000000000000000000081526004016107d990611f68565b60405180910390fd5b6000827fffffffffffffffffffffffffffffffffffffffffffffffffffffffffffffffff7f0000000000000000000000000000000000000000000000000000000000000000600b54610834919061220c565b8461083f9190612297565b610849919061220c565b610853919061223d565b905083811015610898576040517f08c379a000000000000000000000000000000000000000000000000000000000815260040161088f90611ee8565b60405180910390fd5b83836108a49190612297565b600160003373ffffffffffffffffffffffffffffffffffffffff1673ffffffffffffffffffffffffffffffffffffffff16815260200190815260200160002060000181905550600560009054906101000a900473ffffffffffffffffffffffffffffffffffffffff1673ffffffffffffffffffffffffffffffffffffffff1663a9059cbb33866040518363ffffffff1660e01b8152600401610947929190611e48565b602060405180830381600087803b15801561096157600080fd5b505af1158015610975573d6000803e3d6000fd5b505050506040513d601f19601f820116820180604052508101906109999190611808565b6109d8576040517f08c379a00000000000000000000000000000000000000000000000000000000081526004016109cf90611f08565b60405180910390fd5b3373ffffffffffffffffffffffffffffffffffffffff167f884edad9ce6fa2440d8a54cc123490eb96d2768479d49ff9c7366125a942436485604051610a1e9190612088565b60405180910390a250505050565b3373ffffffffffffffffffffffffffffffffffffffff168173ffffffffffffffffffffffffffffffffffffffff167f5a821a618ddb1a1fd304234a69c9d7f20c129d122fcf35593d13a071926643076000806000604051610a8f93929190611e71565b60405180910390a350565b3373ffffffffffffffffffffffffffffffffffffffff167f2fe77b1c99aca6b022b8efc6e3e8dd1b48b30748709339b65c50ef3263443e0982600080604051610ae5939291906120d3565b60405180910390a250565b600c5481565b60078181548110610b0657600080fd5b906000526020600020016000915054906101000a900473ffffffffffffffffffffffffffffffffffffffff1681565b60095481565b600b5481565b610b496116ac565b73ffffffffffffffffffffffffffffffffffffffff16610b67610dd7565b73ffffffffffffffffffffffffffffffffffffffff1614610bbd576040517f08c379a0000000000000000000000000000000000000000000000000000000008152600401610bb490611fa8565b60405180910390fd5b600073ffffffffffffffffffffffffffffffffffffffff1660008054906101000a900473ffffffffffffffffffffffffffffffffffffffff1673ffffffffffffffffffffffffffffffffffffffff167f8be0079c531659141344cd1fd0a4f28419497f9722a3daafe3b4186f6b6457e060405160405180910390a360008060006101000a81548173ffffffffffffffffffffffffffffffffffffffff021916908373ffffffffffffffffffffffffffffffffffffffff160217905550565b600660009054906101000a900473ffffffffffffffffffffffffffffffffffffffff1681565b600a5481565b610caf6116ac565b73ffffffffffffffffffffffffffffffffffffffff16610ccd610dd7565b73ffffffffffffffffffffffffffffffffffffffff1614610d23576040517f08c379a0000000000000000000000000000000000000000000000000000000008152600401610d1a90611fa8565b60405180910390fd5b600073ffffffffffffffffffffffffffffffffffffffff168173ffffffffffffffffffffffffffffffffffffffff161415610d93576040517f08c379a0000000000000000000000000000000000000000000000000000000008152600401610d8a90611f28565b60405180910390fd5b80600560006101000a81548173ffffffffffffffffffffffffffffffffffffffff021916908373ffffffffffffffffffffffffffffffffffffffff16021790555050565b60008060009054906101000a900473ffffffffffffffffffffffffffffffffffffffff16905090565b610e086116ac565b73ffffffffffffffffffffffffffffffffffffffff16610e26610dd7565b73ffffffffffffffffffffffffffffffffffffffff1614610e7c576040517f08c379a0000000000000000000000000000000000000000000000000000000008152600401610e7390611fa8565b60405180910390fd5b600073ffffffffffffffffffffffffffffffffffffffff168173ffffffffffffffffffffffffffffffffffffffff161415610eec576040517f08c379a0000000000000000000000000000000000000000000000000000000008152600401610ee390611f88565b60405180910390fd5b80600360006101000a81548173ffffffffffffffffffffffffffffffffffffffff021916908373ffffffffffffffffffffffffffffffffffffffff16021790555050565b60085481565b60025481565b6000600560009054906101000a900473ffffffffffffffffffffffffffffffffffffffff1690508073ffffffffffffffffffffffffffffffffffffffff166323b872dd3330856040518463ffffffff1660e01b8152600401610fa093929190611e11565b602060405180830381600087803b158015610fba57600080fd5b505af1158015610fce573d6000803e3d6000fd5b505050506040513d601f19601f82011682018060405250810190610ff29190611808565b611031576040517f08c379a000000000000000000000000000000000000000000000000000000000815260040161102890612008565b60405180910390fd5b6000600160003373ffffffffffffffffffffffffffffffffffffffff1673ffffffffffffffffffffffffffffffffffffffff168152602001908152602001600020600001549050828161108491906121b6565b600160003373ffffffffffffffffffffffffffffffffffffffff1673ffffffffffffffffffffffffffffffffffffffff168152602001908152602001600020600001819055503373ffffffffffffffffffffffffffffffffffffffff167fe1fffcc4923d04b559f4d29a8bfc6cda04eb5b0d3c460751c2402c5c5cc9109c846040516111109190612088565b60405180910390a2505050565b600560009054906101000a900473ffffffffffffffffffffffffffffffffffffffff1681565b61114b6116ac565b73ffffffffffffffffffffffffffffffffffffffff16611169610dd7565b73ffffffffffffffffffffffffffffffffffffffff16146111bf576040517f08c379a00000000000000000000000000000000000000000000000000000000081526004016111b690611fa8565b60405180910390fd5b7f000000000000000000000000000000000000000000000000000000000000000083111580156111f0575060008310155b61122f576040517f08c379a000000000000000000000000000000000000000000000000000000000815260040161122690611fc8565b60405180910390fd5b7f00000000000000000000000000000000000000000000000000000000000000008211158015611260575060008210155b801561126c5750828211155b6112ab576040517f08c379a00000000000000000000000000000000000000000000000000000000081526004016112a290611ec8565b60405180910390fd5b82600881905550816009819055507f000000000000000000000000000000000000000000000000000000000000000081111580156112ea575060008110155b611329576040517f08c379a000000000000000000000000000000000000000000000000000000000815260040161132090612028565b60405180910390fd5b80600a81905550505050565b3373ffffffffffffffffffffffffffffffffffffffff167f13ed6866d4e1ee6da46f845c46d7e54120883d75c5ea9a2dacc1c4ca8984ab8082600080604051611380939291906120d3565b60405180910390a250565b6113936116ac565b73ffffffffffffffffffffffffffffffffffffffff166113b1610dd7565b73ffffffffffffffffffffffffffffffffffffffff1614611407576040517f08c379a00000000000000000000000000000000000000000000000000000000081526004016113fe90611fa8565b60405180910390fd5b7f000000000000000000000000000000000000000000000000000000000000000082101561146a576040517f08c379a000000000000000000000000000000000000000000000000000000000815260040161146190611f48565b60405180910390fd5b7f00000000000000000000000000000000000000000000000000000000000000008110156114cd576040517f08c379a00000000000000000000000000000000000000000000000000000000081526004016114c490612048565b60405180910390fd5b81600b8190555080600c819055505050565b7f000000000000000000000000000000000000000000000000000000000000000081565b61150b6116ac565b73ffffffffffffffffffffffffffffffffffffffff16611529610dd7565b73ffffffffffffffffffffffffffffffffffffffff161461157f576040517f08c379a000000000000000000000000000000000000000000000000000000000815260040161157690611fa8565b60405180910390fd5b600073ffffffffffffffffffffffffffffffffffffffff168173ffffffffffffffffffffffffffffffffffffffff1614156115ef576040517f08c379a00000000000000000000000000000000000000000000000000000000081526004016115e690611ea8565b60405180910390fd5b8073ffffffffffffffffffffffffffffffffffffffff1660008054906101000a900473ffffffffffffffffffffffffffffffffffffffff1673ffffffffffffffffffffffffffffffffffffffff167f8be0079c531659141344cd1fd0a4f28419497f9722a3daafe3b4186f6b6457e060405160405180910390a3806000806101000a81548173ffffffffffffffffffffffffffffffffffffffff021916908373ffffffffffffffffffffffffffffffffffffffff16021790555050565b600033905090565b60006116c76116c28461213b565b61210a565b905080838252602082019050828560208602820111156116e657600080fd5b60005b8581101561171657816116fc8882611789565b8452602084019350602083019250506001810190506116e9565b5050509392505050565b60008135905061172f8161240c565b92915050565b600082601f83011261174657600080fd5b81516117568482602086016116b4565b91505092915050565b60008151905061176e81612423565b92915050565b6000813590506117838161243a565b92915050565b6000815190506117988161243a565b92915050565b6000602082840312156117b057600080fd5b60006117be84828501611720565b91505092915050565b6000602082840312156117d957600080fd5b600082015167ffffffffffffffff8111156117f357600080fd5b6117ff84828501611735565b91505092915050565b60006020828403121561181a57600080fd5b60006118288482850161175f565b91505092915050565b60006020828403121561184357600080fd5b600061185184828501611774565b91505092915050565b6000806040838503121561186d57600080fd5b600061187b85828601611774565b925050602061188c85828601611774565b9150509250929050565b6000806000606084860312156118ab57600080fd5b60006118b986828701611774565b93505060206118ca86828701611774565b92505060406118db86828701611774565b9150509250925092565b60006118f183836118fd565b60208301905092915050565b611906816122eb565b82525050565b611915816122eb565b82525050565b60006119268261217c565b6119308185612194565b935061193b83612167565b8060005b8381101561197357611950826123ec565b61195a88826118e5565b975061196583612187565b92505060018101905061193f565b5085935050505092915050565b61198981612333565b82525050565b600061199c6026836121a5565b91507f4f776e61626c653a206e6577206f776e657220697320746865207a65726f206160008301527f64647265737300000000000000000000000000000000000000000000000000006020830152604082019050919050565b6000611a026018836121a5565b91507f6c69714665655368617265206f7574206f662072616e676500000000000000006000830152602082019050919050565b6000611a426030836121a5565b91507f7769746864726177206c657373206f6620636f6c6c61746572616c207261746960008301527f6f206265636f6d657320756e73616665000000000000000000000000000000006020830152604082019050919050565b6000611aa86018836121a5565b91507f7769746864726177207472616e73666572206661696c656400000000000000006000830152602082019050919050565b6000611ae86020836121a5565b91507f78535553484920636f6e7472616374206e6f74207a65726f20616464726573736000830152602082019050919050565b6000611b286029836121a5565b91507f626f72726f77207468726573686f6c64206d757374206265203e207363616c6960008301527f6e6720666163746f7200000000000000000000000000000000000000000000006020830152604082019050919050565b6000611b8e6027836121a5565b91507f636f6c6c61746572616c20726174696f206973203c3d20626f72726f7720746860008301527f726573686f6c64000000000000000000000000000000000000000000000000006020830152604082019050919050565b6000611bf4601e836121a5565b91507f7573647a20636f6e7472616374206e6f74207a65726f206164647265737300006000830152602082019050919050565b6000611c346020836121a5565b91507f4f776e61626c653a2063616c6c6572206973206e6f7420746865206f776e65726000830152602082019050919050565b6000611c746018836121a5565b91507f6c6971546f74616c466565206f7574206f662072616e676500000000000000006000830152602082019050919050565b6000611cb46000836121a5565b9150600082019050919050565b6000611cce600e836121a5565b91507f6465706f736974206661696c65640000000000000000000000000000000000006000830152602082019050919050565b6000611d0e6019836121a5565b91507f696e74657265737452617465206f7574206f662072616e6765000000000000006000830152602082019050919050565b6000611d4e6026836121a5565b91507f6c6971207468726573686f6c64206d757374206265203e207363616c696e672060008301527f666163746f7200000000000000000000000000000000000000000000000000006020830152604082019050919050565b6000611db46020836121a5565b91507f6e6f7420656e6f75676820636f6c6c61746572616c20696e206163636f756e746000830152602082019050919050565b611df081612329565b82525050565b6000602082019050611e0b600083018461190c565b92915050565b6000606082019050611e26600083018661190c565b611e33602083018561190c565b611e406040830184611de7565b949350505050565b6000604082019050611e5d600083018561190c565b611e6a6020830184611de7565b9392505050565b6000606082019050611e866000830186611980565b611e936020830185611980565b611ea06040830184611980565b949350505050565b60006020820190508181036000830152611ec18161198f565b9050919050565b60006020820190508181036000830152611ee1816119f5565b9050919050565b60006020820190508181036000830152611f0181611a35565b9050919050565b60006020820190508181036000830152611f2181611a9b565b9050919050565b60006020820190508181036000830152611f4181611adb565b9050919050565b60006020820190508181036000830152611f6181611b1b565b9050919050565b60006020820190508181036000830152611f8181611b81565b9050919050565b60006020820190508181036000830152611fa181611be7565b9050919050565b60006020820190508181036000830152611fc181611c27565b9050919050565b60006020820190508181036000830152611fe181611c67565b9050919050565b6000602082019050818103600083015261200181611ca7565b9050919050565b6000602082019050818103600083015261202181611cc1565b9050919050565b6000602082019050818103600083015261204181611d01565b9050919050565b6000602082019050818103600083015261206181611d41565b9050919050565b6000602082019050818103600083015261208181611da7565b9050919050565b600060208201905061209d6000830184611de7565b92915050565b60006040820190506120b86000830185611de7565b81810360208301526120ca818461191b565b90509392505050565b60006060820190506120e86000830186611de7565b6120f56020830185611980565b6121026040830184611980565b949350505050565b6000604051905081810181811067ffffffffffffffff82111715612131576121306123bd565b5b8060405250919050565b600067ffffffffffffffff821115612156576121556123bd565b5b602082029050602081019050919050565b60008190508160005260206000209050919050565b600081549050919050565b6000600182019050919050565b600082825260208201905092915050565b600082825260208201905092915050565b60006121c182612329565b91506121cc83612329565b9250827fffffffffffffffffffffffffffffffffffffffffffffffffffffffffffffffff038211156122015761220061235f565b5b828201905092915050565b600061221782612329565b915061222283612329565b9250826122325761223161238e565b5b828204905092915050565b600061224882612329565b915061225383612329565b9250817fffffffffffffffffffffffffffffffffffffffffffffffffffffffffffffffff048311821515161561228c5761228b61235f565b5b828202905092915050565b60006122a282612329565b91506122ad83612329565b9250828210156122c0576122bf61235f565b5b828203905092915050565b600073ffffffffffffffffffffffffffffffffffffffff82169050919050565b60006122f682612309565b9050919050565b60008115159050919050565b600073ffffffffffffffffffffffffffffffffffffffff82169050919050565b6000819050919050565b600061233e82612329565b9050919050565b6000612358612353836123ff565b6122cb565b9050919050565b7f4e487b7100000000000000000000000000000000000000000000000000000000600052601160045260246000fd5b7f4e487b7100000000000000000000000000000000000000000000000000000000600052601260045260246000fd5b7f4e487b7100000000000000000000000000000000000000000000000000000000600052604160045260246000fd5b60006123f88254612345565b9050919050565b60008160001c9050919050565b612415816122eb565b811461242057600080fd5b50565b61242c816122fd565b811461243757600080fd5b50565b61244381612329565b811461244e57600080fd5b5056fea2646970667358221220bd80d1ff3eb611b633b8d96d6bb0bfa5386cd87982bed315eddaab148edc8b9a64736f6c63430008000033",
  "linkReferences": {},
  "deployedLinkReferences": {}
}