{
  "_format": "hh-sol-artifact-1",
  "contractName": "Controller",
  "sourceName": "contracts/Controller.sol",
  "abi": [
    {
      "inputs": [
        {
          "internalType": "address",
          "name": "_usdzAddress",
          "type": "address"
        },
        {
          "internalType": "address",
          "name": "_xSushiAddress",
          "type": "address"
        },
        {
          "internalType": "uint256",
          "name": "_liqTotalFee",
          "type": "uint256"
        },
        {
          "internalType": "uint256",
          "name": "_liqFeeShare",
          "type": "uint256"
        },
        {
          "internalType": "uint256",
          "name": "_totalIRate",
          "type": "uint256"
        },
        {
          "internalType": "uint256",
          "name": "_iRateShare",
          "type": "uint256"
        }
      ],
      "stateMutability": "nonpayable",
      "type": "constructor"
    },
    {
      "anonymous": false,
      "inputs": [
        {
          "indexed": true,
          "internalType": "address",
          "name": "sender",
          "type": "address"
        },
        {
          "indexed": true,
          "internalType": "address",
          "name": "token",
          "type": "address"
        },
        {
          "indexed": false,
          "internalType": "uint256",
          "name": "amount",
          "type": "uint256"
        }
      ],
      "name": "Deposit",
      "type": "event"
    },
    {
      "anonymous": false,
      "inputs": [
        {
          "indexed": true,
          "internalType": "address",
          "name": "previousOwner",
          "type": "address"
        },
        {
          "indexed": true,
          "internalType": "address",
          "name": "newOwner",
          "type": "address"
        }
      ],
      "name": "OwnershipTransferred",
      "type": "event"
    },
    {
      "anonymous": false,
      "inputs": [
        {
          "indexed": true,
          "internalType": "address",
          "name": "sender",
          "type": "address"
        },
        {
          "indexed": true,
          "internalType": "address",
          "name": "token",
          "type": "address"
        },
        {
          "indexed": false,
          "internalType": "uint256",
          "name": "amount",
          "type": "uint256"
        }
      ],
      "name": "Withdraw",
      "type": "event"
    },
    {
      "inputs": [],
      "name": "FEE_RATE_SCALING_FACTOR",
      "outputs": [
        {
          "internalType": "uint256",
          "name": "",
          "type": "uint256"
        }
      ],
      "stateMutability": "view",
      "type": "function"
    },
    {
      "inputs": [
        {
          "internalType": "uint256",
          "name": "_amount",
          "type": "uint256"
        }
      ],
      "name": "deposit",
      "outputs": [],
      "stateMutability": "nonpayable",
      "type": "function"
    },
    {
      "inputs": [],
      "name": "interestRate",
      "outputs": [
        {
          "internalType": "uint256",
          "name": "",
          "type": "uint256"
        }
      ],
      "stateMutability": "view",
      "type": "function"
    },
    {
      "inputs": [],
      "name": "lenderIRateShare",
      "outputs": [
        {
          "internalType": "uint256",
          "name": "",
          "type": "uint256"
        }
      ],
      "stateMutability": "view",
      "type": "function"
    },
    {
      "inputs": [],
      "name": "liquidationFee",
      "outputs": [
        {
          "internalType": "uint256",
          "name": "",
          "type": "uint256"
        }
      ],
      "stateMutability": "view",
      "type": "function"
    },
    {
      "inputs": [],
      "name": "liquidatorFeeShare",
      "outputs": [
        {
          "internalType": "uint256",
          "name": "",
          "type": "uint256"
        }
      ],
      "stateMutability": "view",
      "type": "function"
    },
    {
      "inputs": [],
      "name": "owner",
      "outputs": [
        {
          "internalType": "address",
          "name": "",
          "type": "address"
        }
      ],
      "stateMutability": "view",
      "type": "function"
    },
    {
      "inputs": [],
      "name": "renounceOwnership",
      "outputs": [],
      "stateMutability": "nonpayable",
      "type": "function"
    },
    {
      "inputs": [
        {
          "internalType": "address",
          "name": "_newAddress",
          "type": "address"
        }
      ],
      "name": "setUSDZAddress",
      "outputs": [],
      "stateMutability": "nonpayable",
      "type": "function"
    },
    {
      "inputs": [
        {
          "internalType": "address",
          "name": "_newAddress",
          "type": "address"
        }
      ],
      "name": "setXSUSHIAddress",
      "outputs": [],
      "stateMutability": "nonpayable",
      "type": "function"
    },
    {
      "inputs": [
        {
          "internalType": "address",
          "name": "newOwner",
          "type": "address"
        }
      ],
      "name": "transferOwnership",
      "outputs": [],
      "stateMutability": "nonpayable",
      "type": "function"
    },
    {
      "inputs": [],
      "name": "usdzAddress",
      "outputs": [
        {
          "internalType": "address",
          "name": "",
          "type": "address"
        }
      ],
      "stateMutability": "view",
      "type": "function"
    },
    {
      "inputs": [
        {
          "internalType": "uint256",
          "name": "_amount",
          "type": "uint256"
        }
      ],
      "name": "withdraw",
      "outputs": [],
      "stateMutability": "nonpayable",
      "type": "function"
    },
    {
      "inputs": [],
      "name": "xSushiAddress",
      "outputs": [
        {
          "internalType": "address",
          "name": "",
          "type": "address"
        }
      ],
      "stateMutability": "view",
      "type": "function"
    }
  ],
  "bytecode": "0x60806040523480156200001157600080fd5b5060405162001197380380620011978339818101604052810190620000379190620001c7565b6000620000496200019160201b60201c565b9050806000806101000a81548173ffffffffffffffffffffffffffffffffffffffff021916908373ffffffffffffffffffffffffffffffffffffffff1602179055508073ffffffffffffffffffffffffffffffffffffffff16600073ffffffffffffffffffffffffffffffffffffffff167f8be0079c531659141344cd1fd0a4f28419497f9722a3daafe3b4186f6b6457e060405160405180910390a35085600260006101000a81548173ffffffffffffffffffffffffffffffffffffffff021916908373ffffffffffffffffffffffffffffffffffffffff16021790555084600360006101000a81548173ffffffffffffffffffffffffffffffffffffffff021916908373ffffffffffffffffffffffffffffffffffffffff16021790555083600481905550826005819055508160068190555080600781905550505050505050620002cf565b600033905090565b600081519050620001aa816200029b565b92915050565b600081519050620001c181620002b5565b92915050565b60008060008060008060c08789031215620001e157600080fd5b6000620001f189828a0162000199565b96505060206200020489828a0162000199565b95505060406200021789828a01620001b0565b94505060606200022a89828a01620001b0565b93505060806200023d89828a01620001b0565b92505060a06200025089828a01620001b0565b9150509295509295509295565b60006200026a8262000271565b9050919050565b600073ffffffffffffffffffffffffffffffffffffffff82169050919050565b6000819050919050565b620002a6816200025d565b8114620002b257600080fd5b50565b620002c08162000291565b8114620002cc57600080fd5b50565b610eb880620002df6000396000f3fe608060405234801561001057600080fd5b50600436106100ea5760003560e01c80638456b7551161008c578063a36a363011610066578063a36a363014610201578063b6b55f251461021f578063bdfccad31461023b578063f2fde38b14610259576100ea565b80638456b755146101ab5780638da5cb5b146101c75780638f6ba29a146101e5576100ea565b806354054808116100c8578063540548081461014757806359c1924c14610165578063715018a6146101835780637c3a00fd1461018d576100ea565b806320bdf800146100ef5780632e1a7d4d1461010d57806331c364a914610129575b600080fd5b6100f7610275565b6040516101049190610be4565b60405180910390f35b61012760048036038101906101229190610aee565b61029b565b005b610131610325565b60405161013e9190610cd6565b60405180910390f35b61014f61032b565b60405161015c9190610cd6565b60405180910390f35b61016d610331565b60405161017a9190610cd6565b60405180910390f35b61018b610337565b005b610195610471565b6040516101a29190610cd6565b60405180910390f35b6101c560048036038101906101c09190610a9c565b610477565b005b6101cf6105a7565b6040516101dc9190610be4565b60405180910390f35b6101ff60048036038101906101fa9190610a9c565b6105d0565b005b610209610700565b6040516102169190610cd6565b60405180910390f35b61023960048036038101906102349190610aee565b610706565b005b610243610886565b6040516102509190610be4565b60405180910390f35b610273600480360381019061026e9190610a9c565b6108ac565b005b600260009054906101000a900473ffffffffffffffffffffffffffffffffffffffff1681565b600360009054906101000a900473ffffffffffffffffffffffffffffffffffffffff1673ffffffffffffffffffffffffffffffffffffffff163373ffffffffffffffffffffffffffffffffffffffff167f9b1bfa7fa9ee420a16e124f794c35ac9f90472acc99140eb2f6447c714cad8eb8360405161031a9190610cd6565b60405180910390a350565b60075481565b60055481565b60085481565b61033f610a55565b73ffffffffffffffffffffffffffffffffffffffff1661035d6105a7565b73ffffffffffffffffffffffffffffffffffffffff16146103b3576040517f08c379a00000000000000000000000000000000000000000000000000000000081526004016103aa90610cb6565b60405180910390fd5b600073ffffffffffffffffffffffffffffffffffffffff1660008054906101000a900473ffffffffffffffffffffffffffffffffffffffff1673ffffffffffffffffffffffffffffffffffffffff167f8be0079c531659141344cd1fd0a4f28419497f9722a3daafe3b4186f6b6457e060405160405180910390a360008060006101000a81548173ffffffffffffffffffffffffffffffffffffffff021916908373ffffffffffffffffffffffffffffffffffffffff160217905550565b60065481565b61047f610a55565b73ffffffffffffffffffffffffffffffffffffffff1661049d6105a7565b73ffffffffffffffffffffffffffffffffffffffff16146104f3576040517f08c379a00000000000000000000000000000000000000000000000000000000081526004016104ea90610cb6565b60405180910390fd5b600073ffffffffffffffffffffffffffffffffffffffff168173ffffffffffffffffffffffffffffffffffffffff161415610563576040517f08c379a000000000000000000000000000000000000000000000000000000000815260040161055a90610c76565b60405180910390fd5b80600360006101000a81548173ffffffffffffffffffffffffffffffffffffffff021916908373ffffffffffffffffffffffffffffffffffffffff16021790555050565b60008060009054906101000a900473ffffffffffffffffffffffffffffffffffffffff16905090565b6105d8610a55565b73ffffffffffffffffffffffffffffffffffffffff166105f66105a7565b73ffffffffffffffffffffffffffffffffffffffff161461064c576040517f08c379a000000000000000000000000000000000000000000000000000000000815260040161064390610cb6565b60405180910390fd5b600073ffffffffffffffffffffffffffffffffffffffff168173ffffffffffffffffffffffffffffffffffffffff1614156106bc576040517f08c379a00000000000000000000000000000000000000000000000000000000081526004016106b390610c96565b60405180910390fd5b80600260006101000a81548173ffffffffffffffffffffffffffffffffffffffff021916908373ffffffffffffffffffffffffffffffffffffffff16021790555050565b60045481565b6000600260009054906101000a900473ffffffffffffffffffffffffffffffffffffffff1690508073ffffffffffffffffffffffffffffffffffffffff166323b872dd3330856040518463ffffffff1660e01b815260040161076a93929190610bff565b602060405180830381600087803b15801561078457600080fd5b505af1158015610798573d6000803e3d6000fd5b505050506040513d601f19601f820116820180604052508101906107bc9190610ac5565b6107fb576040517f08c379a00000000000000000000000000000000000000000000000000000000081526004016107f290610c56565b60405180910390fd5b600360009054906101000a900473ffffffffffffffffffffffffffffffffffffffff1673ffffffffffffffffffffffffffffffffffffffff163373ffffffffffffffffffffffffffffffffffffffff167f5548c837ab068cf56a2c2479df0882a4922fd203edb7517321831d95078c5f628460405161087a9190610cd6565b60405180910390a35050565b600360009054906101000a900473ffffffffffffffffffffffffffffffffffffffff1681565b6108b4610a55565b73ffffffffffffffffffffffffffffffffffffffff166108d26105a7565b73ffffffffffffffffffffffffffffffffffffffff1614610928576040517f08c379a000000000000000000000000000000000000000000000000000000000815260040161091f90610cb6565b60405180910390fd5b600073ffffffffffffffffffffffffffffffffffffffff168173ffffffffffffffffffffffffffffffffffffffff161415610998576040517f08c379a000000000000000000000000000000000000000000000000000000000815260040161098f90610c36565b60405180910390fd5b8073ffffffffffffffffffffffffffffffffffffffff1660008054906101000a900473ffffffffffffffffffffffffffffffffffffffff1673ffffffffffffffffffffffffffffffffffffffff167f8be0079c531659141344cd1fd0a4f28419497f9722a3daafe3b4186f6b6457e060405160405180910390a3806000806101000a81548173ffffffffffffffffffffffffffffffffffffffff021916908373ffffffffffffffffffffffffffffffffffffffff16021790555050565b600033905090565b600081359050610a6c81610e3d565b92915050565b600081519050610a8181610e54565b92915050565b600081359050610a9681610e6b565b92915050565b600060208284031215610aae57600080fd5b6000610abc84828501610a5d565b91505092915050565b600060208284031215610ad757600080fd5b6000610ae584828501610a72565b91505092915050565b600060208284031215610b0057600080fd5b6000610b0e84828501610a87565b91505092915050565b610b2081610d02565b82525050565b6000610b33602683610cf1565b9150610b3e82610d4a565b604082019050919050565b6000610b56601783610cf1565b9150610b6182610d99565b602082019050919050565b6000610b79602083610cf1565b9150610b8482610dc2565b602082019050919050565b6000610b9c601e83610cf1565b9150610ba782610deb565b602082019050919050565b6000610bbf602083610cf1565b9150610bca82610e14565b602082019050919050565b610bde81610d40565b82525050565b6000602082019050610bf96000830184610b17565b92915050565b6000606082019050610c146000830186610b17565b610c216020830185610b17565b610c2e6040830184610bd5565b949350505050565b60006020820190508181036000830152610c4f81610b26565b9050919050565b60006020820190508181036000830152610c6f81610b49565b9050919050565b60006020820190508181036000830152610c8f81610b6c565b9050919050565b60006020820190508181036000830152610caf81610b8f565b9050919050565b60006020820190508181036000830152610ccf81610bb2565b9050919050565b6000602082019050610ceb6000830184610bd5565b92915050565b600082825260208201905092915050565b6000610d0d82610d20565b9050919050565b60008115159050919050565b600073ffffffffffffffffffffffffffffffffffffffff82169050919050565b6000819050919050565b7f4f776e61626c653a206e6577206f776e657220697320746865207a65726f206160008201527f6464726573730000000000000000000000000000000000000000000000000000602082015250565b7f6465706f736974207472616e73666572206661696c6564000000000000000000600082015250565b7f78535553484920636f6e7472616374206e6f74207a65726f2061646472657373600082015250565b7f7573647a20636f6e7472616374206e6f74207a65726f20616464726573730000600082015250565b7f4f776e61626c653a2063616c6c6572206973206e6f7420746865206f776e6572600082015250565b610e4681610d02565b8114610e5157600080fd5b50565b610e5d81610d14565b8114610e6857600080fd5b50565b610e7481610d40565b8114610e7f57600080fd5b5056fea2646970667358221220872403220aafc8152bfbd2483cfc16a6982179062a1bec9981994975cd0c46b564736f6c63430008040033",
  "linkReferences": {},
  "deployedLinkReferences": {}
}