{
  "_format": "hh-sol-artifact-1",
  "contractName": "Controller",
  "sourceName": "contracts/Controller.sol",
  "abi": [
    {
      "inputs": [
        {
          "internalType": "address",
          "name": "_usdzAddress",
          "type": "address"
        },
        {
          "internalType": "address",
          "name": "_xSushiAddress",
          "type": "address"
        },
        {
          "internalType": "uint256",
          "name": "_liqTotalFee",
          "type": "uint256"
        },
        {
          "internalType": "uint256",
          "name": "_liqFeeShare",
          "type": "uint256"
        },
        {
          "internalType": "uint256",
          "name": "_totalIRate",
          "type": "uint256"
        },
        {
          "internalType": "uint256",
          "name": "_iRateShare",
          "type": "uint256"
        }
      ],
      "stateMutability": "nonpayable",
      "type": "constructor"
    },
    {
      "anonymous": false,
      "inputs": [
        {
          "indexed": true,
          "internalType": "address",
          "name": "sender",
          "type": "address"
        },
        {
          "indexed": true,
          "internalType": "address",
          "name": "token",
          "type": "address"
        },
        {
          "indexed": false,
          "internalType": "uint256",
          "name": "amount",
          "type": "uint256"
        }
      ],
      "name": "Deposit",
      "type": "event"
    },
    {
      "anonymous": false,
      "inputs": [
        {
          "indexed": true,
          "internalType": "address",
          "name": "previousOwner",
          "type": "address"
        },
        {
          "indexed": true,
          "internalType": "address",
          "name": "newOwner",
          "type": "address"
        }
      ],
      "name": "OwnershipTransferred",
      "type": "event"
    },
    {
      "anonymous": false,
      "inputs": [
        {
          "indexed": true,
          "internalType": "address",
          "name": "sender",
          "type": "address"
        },
        {
          "indexed": true,
          "internalType": "address",
          "name": "token",
          "type": "address"
        },
        {
          "indexed": false,
          "internalType": "uint256",
          "name": "amount",
          "type": "uint256"
        }
      ],
      "name": "Withdraw",
      "type": "event"
    },
    {
      "inputs": [],
      "name": "FEE_RATE_SCALING_FACTOR",
      "outputs": [
        {
          "internalType": "uint256",
          "name": "",
          "type": "uint256"
        }
      ],
      "stateMutability": "view",
      "type": "function"
    },
    {
      "inputs": [
        {
          "internalType": "uint256",
          "name": "_amount",
          "type": "uint256"
        }
      ],
      "name": "deposit",
      "outputs": [],
      "stateMutability": "nonpayable",
      "type": "function"
    },
    {
      "inputs": [],
      "name": "interestRate",
      "outputs": [
        {
          "internalType": "uint256",
          "name": "",
          "type": "uint256"
        }
      ],
      "stateMutability": "view",
      "type": "function"
    },
    {
      "inputs": [],
      "name": "lenderIRateShare",
      "outputs": [
        {
          "internalType": "uint256",
          "name": "",
          "type": "uint256"
        }
      ],
      "stateMutability": "view",
      "type": "function"
    },
    {
      "inputs": [],
      "name": "liquidationFee",
      "outputs": [
        {
          "internalType": "uint256",
          "name": "",
          "type": "uint256"
        }
      ],
      "stateMutability": "view",
      "type": "function"
    },
    {
      "inputs": [],
      "name": "liquidatorFeeShare",
      "outputs": [
        {
          "internalType": "uint256",
          "name": "",
          "type": "uint256"
        }
      ],
      "stateMutability": "view",
      "type": "function"
    },
    {
      "inputs": [],
      "name": "owner",
      "outputs": [
        {
          "internalType": "address",
          "name": "",
          "type": "address"
        }
      ],
      "stateMutability": "view",
      "type": "function"
    },
    {
      "inputs": [],
      "name": "renounceOwnership",
      "outputs": [],
      "stateMutability": "nonpayable",
      "type": "function"
    },
    {
      "inputs": [
        {
          "internalType": "uint256",
          "name": "_liqTotalFee",
          "type": "uint256"
        },
        {
          "internalType": "uint256",
          "name": "_liqFeeShare",
          "type": "uint256"
        },
        {
          "internalType": "uint256",
          "name": "_totalIRate",
          "type": "uint256"
        },
        {
          "internalType": "uint256",
          "name": "_iRateShare",
          "type": "uint256"
        }
      ],
      "name": "setFeesAndRates",
      "outputs": [],
      "stateMutability": "nonpayable",
      "type": "function"
    },
    {
      "inputs": [
        {
          "internalType": "address",
          "name": "_newAddress",
          "type": "address"
        }
      ],
      "name": "setUSDZAddress",
      "outputs": [],
      "stateMutability": "nonpayable",
      "type": "function"
    },
    {
      "inputs": [
        {
          "internalType": "address",
          "name": "_newAddress",
          "type": "address"
        }
      ],
      "name": "setXSUSHIAddress",
      "outputs": [],
      "stateMutability": "nonpayable",
      "type": "function"
    },
    {
      "inputs": [
        {
          "internalType": "address",
          "name": "newOwner",
          "type": "address"
        }
      ],
      "name": "transferOwnership",
      "outputs": [],
      "stateMutability": "nonpayable",
      "type": "function"
    },
    {
      "inputs": [],
      "name": "usdzAddress",
      "outputs": [
        {
          "internalType": "address",
          "name": "",
          "type": "address"
        }
      ],
      "stateMutability": "view",
      "type": "function"
    },
    {
      "inputs": [
        {
          "internalType": "uint256",
          "name": "_amount",
          "type": "uint256"
        }
      ],
      "name": "withdraw",
      "outputs": [],
      "stateMutability": "nonpayable",
      "type": "function"
    },
    {
      "inputs": [],
      "name": "xSushiAddress",
      "outputs": [
        {
          "internalType": "address",
          "name": "",
          "type": "address"
        }
      ],
      "stateMutability": "view",
      "type": "function"
    }
  ],
  "bytecode": "0x60806040526127106008553480156200001757600080fd5b50604051620015d5380380620015d583398181016040528101906200003d9190620001cd565b60006200004f6200019760201b60201c565b9050806000806101000a81548173ffffffffffffffffffffffffffffffffffffffff021916908373ffffffffffffffffffffffffffffffffffffffff1602179055508073ffffffffffffffffffffffffffffffffffffffff16600073ffffffffffffffffffffffffffffffffffffffff167f8be0079c531659141344cd1fd0a4f28419497f9722a3daafe3b4186f6b6457e060405160405180910390a35085600260006101000a81548173ffffffffffffffffffffffffffffffffffffffff021916908373ffffffffffffffffffffffffffffffffffffffff16021790555084600360006101000a81548173ffffffffffffffffffffffffffffffffffffffff021916908373ffffffffffffffffffffffffffffffffffffffff16021790555083600481905550826005819055508160068190555080600781905550505050505050620002d5565b600033905090565b600081519050620001b081620002a1565b92915050565b600081519050620001c781620002bb565b92915050565b60008060008060008060c08789031215620001e757600080fd5b6000620001f789828a016200019f565b96505060206200020a89828a016200019f565b95505060406200021d89828a01620001b6565b94505060606200023089828a01620001b6565b93505060806200024389828a01620001b6565b92505060a06200025689828a01620001b6565b9150509295509295509295565b6000620002708262000277565b9050919050565b600073ffffffffffffffffffffffffffffffffffffffff82169050919050565b6000819050919050565b620002ac8162000263565b8114620002b857600080fd5b50565b620002c68162000297565b8114620002d257600080fd5b50565b6112f080620002e56000396000f3fe608060405234801561001057600080fd5b50600436106100f55760003560e01c80637c3a00fd11610097578063a36a363011610066578063a36a363014610228578063b6b55f2514610246578063bdfccad314610262578063f2fde38b14610280576100f5565b80637c3a00fd146101b45780638456b755146101d25780638da5cb5b146101ee5780638f6ba29a1461020c576100f5565b806331c364a9116100d357806331c364a914610150578063540548081461016e57806359c1924c1461018c578063715018a6146101aa576100f5565b80631e2543d1146100fa57806320bdf800146101165780632e1a7d4d14610134575b600080fd5b610114600480360381019061010f9190610d3c565b61029c565b005b61011e61049a565b60405161012b9190610ef8565b60405180910390f35b61014e60048036038101906101499190610d13565b6104c0565b005b61015861054a565b604051610165919061106a565b60405180910390f35b610176610550565b604051610183919061106a565b60405180910390f35b610194610556565b6040516101a1919061106a565b60405180910390f35b6101b261055c565b005b6101bc610696565b6040516101c9919061106a565b60405180910390f35b6101ec60048036038101906101e79190610cc1565b61069c565b005b6101f66107cc565b6040516102039190610ef8565b60405180910390f35b61022660048036038101906102219190610cc1565b6107f5565b005b610230610925565b60405161023d919061106a565b60405180910390f35b610260600480360381019061025b9190610d13565b61092b565b005b61026a610aab565b6040516102779190610ef8565b60405180910390f35b61029a60048036038101906102959190610cc1565b610ad1565b005b6102a4610c7a565b73ffffffffffffffffffffffffffffffffffffffff166102c26107cc565b73ffffffffffffffffffffffffffffffffffffffff1614610318576040517f08c379a000000000000000000000000000000000000000000000000000000000815260040161030f9061102a565b60405180910390fd5b600854841115801561032b575060008410155b61036a576040517f08c379a00000000000000000000000000000000000000000000000000000000081526004016103619061104a565b60405180910390fd5b600854831115801561037d575060008310155b80156103895750838311155b6103c8576040517f08c379a00000000000000000000000000000000000000000000000000000000081526004016103bf90610f8a565b60405180910390fd5b836004819055508260058190555060085482111580156103e9575060008210155b610428576040517f08c379a000000000000000000000000000000000000000000000000000000000815260040161041f90610f4a565b60405180910390fd5b600854811115801561043b575060008110155b80156104475750818111155b610486576040517f08c379a000000000000000000000000000000000000000000000000000000000815260040161047d90610faa565b60405180910390fd5b816006819055508060078190555050505050565b600260009054906101000a900473ffffffffffffffffffffffffffffffffffffffff1681565b600360009054906101000a900473ffffffffffffffffffffffffffffffffffffffff1673ffffffffffffffffffffffffffffffffffffffff163373ffffffffffffffffffffffffffffffffffffffff167f9b1bfa7fa9ee420a16e124f794c35ac9f90472acc99140eb2f6447c714cad8eb8360405161053f919061106a565b60405180910390a350565b60075481565b60055481565b60085481565b610564610c7a565b73ffffffffffffffffffffffffffffffffffffffff166105826107cc565b73ffffffffffffffffffffffffffffffffffffffff16146105d8576040517f08c379a00000000000000000000000000000000000000000000000000000000081526004016105cf9061102a565b60405180910390fd5b600073ffffffffffffffffffffffffffffffffffffffff1660008054906101000a900473ffffffffffffffffffffffffffffffffffffffff1673ffffffffffffffffffffffffffffffffffffffff167f8be0079c531659141344cd1fd0a4f28419497f9722a3daafe3b4186f6b6457e060405160405180910390a360008060006101000a81548173ffffffffffffffffffffffffffffffffffffffff021916908373ffffffffffffffffffffffffffffffffffffffff160217905550565b60065481565b6106a4610c7a565b73ffffffffffffffffffffffffffffffffffffffff166106c26107cc565b73ffffffffffffffffffffffffffffffffffffffff1614610718576040517f08c379a000000000000000000000000000000000000000000000000000000000815260040161070f9061102a565b60405180910390fd5b600073ffffffffffffffffffffffffffffffffffffffff168173ffffffffffffffffffffffffffffffffffffffff161415610788576040517f08c379a000000000000000000000000000000000000000000000000000000000815260040161077f90610fea565b60405180910390fd5b80600360006101000a81548173ffffffffffffffffffffffffffffffffffffffff021916908373ffffffffffffffffffffffffffffffffffffffff16021790555050565b60008060009054906101000a900473ffffffffffffffffffffffffffffffffffffffff16905090565b6107fd610c7a565b73ffffffffffffffffffffffffffffffffffffffff1661081b6107cc565b73ffffffffffffffffffffffffffffffffffffffff1614610871576040517f08c379a00000000000000000000000000000000000000000000000000000000081526004016108689061102a565b60405180910390fd5b600073ffffffffffffffffffffffffffffffffffffffff168173ffffffffffffffffffffffffffffffffffffffff1614156108e1576040517f08c379a00000000000000000000000000000000000000000000000000000000081526004016108d89061100a565b60405180910390fd5b80600260006101000a81548173ffffffffffffffffffffffffffffffffffffffff021916908373ffffffffffffffffffffffffffffffffffffffff16021790555050565b60045481565b6000600260009054906101000a900473ffffffffffffffffffffffffffffffffffffffff1690508073ffffffffffffffffffffffffffffffffffffffff166323b872dd3330856040518463ffffffff1660e01b815260040161098f93929190610f13565b602060405180830381600087803b1580156109a957600080fd5b505af11580156109bd573d6000803e3d6000fd5b505050506040513d601f19601f820116820180604052508101906109e19190610cea565b610a20576040517f08c379a0000000000000000000000000000000000000000000000000000000008152600401610a1790610fca565b60405180910390fd5b600360009054906101000a900473ffffffffffffffffffffffffffffffffffffffff1673ffffffffffffffffffffffffffffffffffffffff163373ffffffffffffffffffffffffffffffffffffffff167f5548c837ab068cf56a2c2479df0882a4922fd203edb7517321831d95078c5f6284604051610a9f919061106a565b60405180910390a35050565b600360009054906101000a900473ffffffffffffffffffffffffffffffffffffffff1681565b610ad9610c7a565b73ffffffffffffffffffffffffffffffffffffffff16610af76107cc565b73ffffffffffffffffffffffffffffffffffffffff1614610b4d576040517f08c379a0000000000000000000000000000000000000000000000000000000008152600401610b449061102a565b60405180910390fd5b600073ffffffffffffffffffffffffffffffffffffffff168173ffffffffffffffffffffffffffffffffffffffff161415610bbd576040517f08c379a0000000000000000000000000000000000000000000000000000000008152600401610bb490610f6a565b60405180910390fd5b8073ffffffffffffffffffffffffffffffffffffffff1660008054906101000a900473ffffffffffffffffffffffffffffffffffffffff1673ffffffffffffffffffffffffffffffffffffffff167f8be0079c531659141344cd1fd0a4f28419497f9722a3daafe3b4186f6b6457e060405160405180910390a3806000806101000a81548173ffffffffffffffffffffffffffffffffffffffff021916908373ffffffffffffffffffffffffffffffffffffffff16021790555050565b600033905090565b600081359050610c9181611275565b92915050565b600081519050610ca68161128c565b92915050565b600081359050610cbb816112a3565b92915050565b600060208284031215610cd357600080fd5b6000610ce184828501610c82565b91505092915050565b600060208284031215610cfc57600080fd5b6000610d0a84828501610c97565b91505092915050565b600060208284031215610d2557600080fd5b6000610d3384828501610cac565b91505092915050565b60008060008060808587031215610d5257600080fd5b6000610d6087828801610cac565b9450506020610d7187828801610cac565b9350506040610d8287828801610cac565b9250506060610d9387828801610cac565b91505092959194509250565b610da881611096565b82525050565b6000610dbb601783611085565b9150610dc6826110de565b602082019050919050565b6000610dde602683611085565b9150610de982611107565b604082019050919050565b6000610e01601883611085565b9150610e0c82611156565b602082019050919050565b6000610e24601783611085565b9150610e2f8261117f565b602082019050919050565b6000610e47601783611085565b9150610e52826111a8565b602082019050919050565b6000610e6a602083611085565b9150610e75826111d1565b602082019050919050565b6000610e8d601e83611085565b9150610e98826111fa565b602082019050919050565b6000610eb0602083611085565b9150610ebb82611223565b602082019050919050565b6000610ed3601883611085565b9150610ede8261124c565b602082019050919050565b610ef2816110d4565b82525050565b6000602082019050610f0d6000830184610d9f565b92915050565b6000606082019050610f286000830186610d9f565b610f356020830185610d9f565b610f426040830184610ee9565b949350505050565b60006020820190508181036000830152610f6381610dae565b9050919050565b60006020820190508181036000830152610f8381610dd1565b9050919050565b60006020820190508181036000830152610fa381610df4565b9050919050565b60006020820190508181036000830152610fc381610e17565b9050919050565b60006020820190508181036000830152610fe381610e3a565b9050919050565b6000602082019050818103600083015261100381610e5d565b9050919050565b6000602082019050818103600083015261102381610e80565b9050919050565b6000602082019050818103600083015261104381610ea3565b9050919050565b6000602082019050818103600083015261106381610ec6565b9050919050565b600060208201905061107f6000830184610ee9565b92915050565b600082825260208201905092915050565b60006110a1826110b4565b9050919050565b60008115159050919050565b600073ffffffffffffffffffffffffffffffffffffffff82169050919050565b6000819050919050565b7f746f74616c4952617465206f7574206f662072616e6765000000000000000000600082015250565b7f4f776e61626c653a206e6577206f776e657220697320746865207a65726f206160008201527f6464726573730000000000000000000000000000000000000000000000000000602082015250565b7f6c69714665655368617265206f7574206f662072616e67650000000000000000600082015250565b7f69526174655368617265206f7574206f662072616e6765000000000000000000600082015250565b7f6465706f736974207472616e73666572206661696c6564000000000000000000600082015250565b7f78535553484920636f6e7472616374206e6f74207a65726f2061646472657373600082015250565b7f7573647a20636f6e7472616374206e6f74207a65726f20616464726573730000600082015250565b7f4f776e61626c653a2063616c6c6572206973206e6f7420746865206f776e6572600082015250565b7f6c6971546f74616c466565206f7574206f662072616e67650000000000000000600082015250565b61127e81611096565b811461128957600080fd5b50565b611295816110a8565b81146112a057600080fd5b50565b6112ac816110d4565b81146112b757600080fd5b5056fea2646970667358221220142cf1a28bba079c9b65e311206615a110fae36d11e74309ff622e03b687fe4e64736f6c63430008040033",
  "linkReferences": {},
  "deployedLinkReferences": {}
}