{
  "_format": "hh-sol-artifact-1",
  "contractName": "Controller",
  "sourceName": "contracts/Controller.sol",
  "abi": [
    {
      "inputs": [
        {
          "internalType": "address",
          "name": "_usdzAddress",
          "type": "address"
        },
        {
          "internalType": "address",
          "name": "_usdcAddress",
          "type": "address"
        },
        {
          "internalType": "address",
          "name": "_xSushiAddress",
          "type": "address"
        },
        {
          "internalType": "address",
          "name": "_routerAddress",
          "type": "address"
        },
        {
          "internalType": "address[]",
          "name": "_swapPath",
          "type": "address[]"
        },
        {
          "internalType": "uint256",
          "name": "_liqTotalFee",
          "type": "uint256"
        },
        {
          "internalType": "uint256",
          "name": "_liqFeeShare",
          "type": "uint256"
        },
        {
          "internalType": "uint256",
          "name": "_interestRate",
          "type": "uint256"
        },
        {
          "internalType": "uint256",
          "name": "_borrowThreshold",
          "type": "uint256"
        },
        {
          "internalType": "uint256",
          "name": "_liqThreshold",
          "type": "uint256"
        }
      ],
      "stateMutability": "nonpayable",
      "type": "constructor"
    },
    {
      "anonymous": false,
      "inputs": [
        {
          "indexed": true,
          "internalType": "address",
          "name": "account",
          "type": "address"
        },
        {
          "indexed": false,
          "internalType": "uint256",
          "name": "amountBorrowed",
          "type": "uint256"
        },
        {
          "indexed": false,
          "internalType": "uint256",
          "name": "totalDebt",
          "type": "uint256"
        },
        {
          "indexed": false,
          "internalType": "uint256",
          "name": "collateralAmount",
          "type": "uint256"
        }
      ],
      "name": "Borrow",
      "type": "event"
    },
    {
      "anonymous": false,
      "inputs": [
        {
          "indexed": true,
          "internalType": "address",
          "name": "account",
          "type": "address"
        },
        {
          "indexed": false,
          "internalType": "uint256",
          "name": "amount",
          "type": "uint256"
        }
      ],
      "name": "Deposit",
      "type": "event"
    },
    {
      "anonymous": false,
      "inputs": [
        {
          "indexed": true,
          "internalType": "address",
          "name": "account",
          "type": "address"
        },
        {
          "indexed": true,
          "internalType": "address",
          "name": "liquidator",
          "type": "address"
        },
        {
          "indexed": false,
          "internalType": "uint256",
          "name": "collateralLiquidated",
          "type": "uint256"
        },
        {
          "indexed": false,
          "internalType": "uint256",
          "name": "lastCollateralRatio",
          "type": "uint256"
        },
        {
          "indexed": false,
          "internalType": "uint256",
          "name": "lastDebtOutstanding",
          "type": "uint256"
        }
      ],
      "name": "Liquidation",
      "type": "event"
    },
    {
      "anonymous": false,
      "inputs": [
        {
          "indexed": true,
          "internalType": "address",
          "name": "previousOwner",
          "type": "address"
        },
        {
          "indexed": true,
          "internalType": "address",
          "name": "newOwner",
          "type": "address"
        }
      ],
      "name": "OwnershipTransferred",
      "type": "event"
    },
    {
      "anonymous": false,
      "inputs": [
        {
          "indexed": true,
          "internalType": "address",
          "name": "account",
          "type": "address"
        },
        {
          "indexed": false,
          "internalType": "uint256",
          "name": "debtRepaid",
          "type": "uint256"
        },
        {
          "indexed": false,
          "internalType": "uint256",
          "name": "debtRemaining",
          "type": "uint256"
        },
        {
          "indexed": false,
          "internalType": "uint256",
          "name": "collateralAmount",
          "type": "uint256"
        }
      ],
      "name": "Repay",
      "type": "event"
    },
    {
      "anonymous": false,
      "inputs": [
        {
          "indexed": true,
          "internalType": "address",
          "name": "account",
          "type": "address"
        },
        {
          "indexed": false,
          "internalType": "uint256",
          "name": "amount",
          "type": "uint256"
        }
      ],
      "name": "Withdraw",
      "type": "event"
    },
    {
      "inputs": [],
      "name": "SCALING_FACTOR",
      "outputs": [
        {
          "internalType": "uint256",
          "name": "",
          "type": "uint256"
        }
      ],
      "stateMutability": "view",
      "type": "function"
    },
    {
      "inputs": [],
      "name": "SECONDS_IN_YEAR",
      "outputs": [
        {
          "internalType": "int128",
          "name": "",
          "type": "int128"
        }
      ],
      "stateMutability": "view",
      "type": "function"
    },
    {
      "inputs": [
        {
          "internalType": "uint256",
          "name": "_amount",
          "type": "uint256"
        }
      ],
      "name": "borrow",
      "outputs": [],
      "stateMutability": "nonpayable",
      "type": "function"
    },
    {
      "inputs": [],
      "name": "borrowThreshold",
      "outputs": [
        {
          "internalType": "uint256",
          "name": "",
          "type": "uint256"
        }
      ],
      "stateMutability": "view",
      "type": "function"
    },
    {
      "inputs": [
        {
          "internalType": "address",
          "name": "_account",
          "type": "address"
        }
      ],
      "name": "calcInterest",
      "outputs": [
        {
          "internalType": "uint256",
          "name": "interest",
          "type": "uint256"
        }
      ],
      "stateMutability": "view",
      "type": "function"
    },
    {
      "inputs": [
        {
          "internalType": "uint256",
          "name": "_amount",
          "type": "uint256"
        }
      ],
      "name": "claimFees",
      "outputs": [],
      "stateMutability": "nonpayable",
      "type": "function"
    },
    {
      "inputs": [
        {
          "internalType": "uint256",
          "name": "_amount",
          "type": "uint256"
        }
      ],
      "name": "deposit",
      "outputs": [],
      "stateMutability": "nonpayable",
      "type": "function"
    },
    {
      "inputs": [
        {
          "internalType": "address",
          "name": "_account",
          "type": "address"
        }
      ],
      "name": "getCurrentCollateralRatio",
      "outputs": [
        {
          "internalType": "uint256",
          "name": "",
          "type": "uint256"
        }
      ],
      "stateMutability": "view",
      "type": "function"
    },
    {
      "inputs": [
        {
          "internalType": "address",
          "name": "_account",
          "type": "address"
        },
        {
          "internalType": "uint256",
          "name": "_totalDebt",
          "type": "uint256"
        }
      ],
      "name": "getForwardCollateralRatio",
      "outputs": [
        {
          "internalType": "uint256",
          "name": "",
          "type": "uint256"
        }
      ],
      "stateMutability": "view",
      "type": "function"
    },
    {
      "inputs": [
        {
          "internalType": "address",
          "name": "_account",
          "type": "address"
        }
      ],
      "name": "getPosition",
      "outputs": [
        {
          "internalType": "uint256",
          "name": "",
          "type": "uint256"
        },
        {
          "internalType": "uint256",
          "name": "",
          "type": "uint256"
        },
        {
          "internalType": "uint256",
          "name": "",
          "type": "uint256"
        },
        {
          "internalType": "uint256",
          "name": "",
          "type": "uint256"
        }
      ],
      "stateMutability": "view",
      "type": "function"
    },
    {
      "inputs": [],
      "name": "interestRate",
      "outputs": [
        {
          "internalType": "uint256",
          "name": "",
          "type": "uint256"
        }
      ],
      "stateMutability": "view",
      "type": "function"
    },
    {
      "inputs": [
        {
          "internalType": "address",
          "name": "_account",
          "type": "address"
        }
      ],
      "name": "liquidate",
      "outputs": [],
      "stateMutability": "nonpayable",
      "type": "function"
    },
    {
      "inputs": [],
      "name": "liquidationFee",
      "outputs": [
        {
          "internalType": "uint256",
          "name": "",
          "type": "uint256"
        }
      ],
      "stateMutability": "view",
      "type": "function"
    },
    {
      "inputs": [],
      "name": "liquidationThreshold",
      "outputs": [
        {
          "internalType": "uint256",
          "name": "",
          "type": "uint256"
        }
      ],
      "stateMutability": "view",
      "type": "function"
    },
    {
      "inputs": [],
      "name": "liquidatorFeeShare",
      "outputs": [
        {
          "internalType": "uint256",
          "name": "",
          "type": "uint256"
        }
      ],
      "stateMutability": "view",
      "type": "function"
    },
    {
      "inputs": [],
      "name": "owner",
      "outputs": [
        {
          "internalType": "address",
          "name": "",
          "type": "address"
        }
      ],
      "stateMutability": "view",
      "type": "function"
    },
    {
      "inputs": [],
      "name": "protocolDebt",
      "outputs": [
        {
          "internalType": "uint256",
          "name": "",
          "type": "uint256"
        }
      ],
      "stateMutability": "view",
      "type": "function"
    },
    {
      "inputs": [],
      "name": "protocolIntRev",
      "outputs": [
        {
          "internalType": "uint256",
          "name": "",
          "type": "uint256"
        }
      ],
      "stateMutability": "view",
      "type": "function"
    },
    {
      "inputs": [],
      "name": "renounceOwnership",
      "outputs": [],
      "stateMutability": "nonpayable",
      "type": "function"
    },
    {
      "inputs": [
        {
          "internalType": "uint256",
          "name": "_amount",
          "type": "uint256"
        }
      ],
      "name": "repay",
      "outputs": [],
      "stateMutability": "nonpayable",
      "type": "function"
    },
    {
      "inputs": [
        {
          "internalType": "uint256",
          "name": "_liqTotalFee",
          "type": "uint256"
        },
        {
          "internalType": "uint256",
          "name": "_liqFeeShare",
          "type": "uint256"
        },
        {
          "internalType": "uint256",
          "name": "_interestRate",
          "type": "uint256"
        }
      ],
      "name": "setFeesAndRates",
      "outputs": [],
      "stateMutability": "nonpayable",
      "type": "function"
    },
    {
      "inputs": [
        {
          "internalType": "address",
          "name": "_sushiRouter",
          "type": "address"
        }
      ],
      "name": "setSushiAddresses",
      "outputs": [],
      "stateMutability": "nonpayable",
      "type": "function"
    },
    {
      "inputs": [
        {
          "internalType": "uint256",
          "name": "_borrowThreshold",
          "type": "uint256"
        },
        {
          "internalType": "uint256",
          "name": "_liqThreshold",
          "type": "uint256"
        }
      ],
      "name": "setThresholds",
      "outputs": [],
      "stateMutability": "nonpayable",
      "type": "function"
    },
    {
      "inputs": [
        {
          "internalType": "address",
          "name": "_usdz",
          "type": "address"
        },
        {
          "internalType": "address",
          "name": "_usdc",
          "type": "address"
        },
        {
          "internalType": "address",
          "name": "_xsushi",
          "type": "address"
        }
      ],
      "name": "setTokenAddresses",
      "outputs": [],
      "stateMutability": "nonpayable",
      "type": "function"
    },
    {
      "inputs": [],
      "name": "sushiRouterAddress",
      "outputs": [
        {
          "internalType": "address",
          "name": "",
          "type": "address"
        }
      ],
      "stateMutability": "view",
      "type": "function"
    },
    {
      "inputs": [
        {
          "internalType": "uint256",
          "name": "_usdcAmount",
          "type": "uint256"
        }
      ],
      "name": "swapUSDCforUSDZ",
      "outputs": [],
      "stateMutability": "nonpayable",
      "type": "function"
    },
    {
      "inputs": [
        {
          "internalType": "uint256",
          "name": "_usdzAmount",
          "type": "uint256"
        }
      ],
      "name": "swapUSDZforUSDC",
      "outputs": [],
      "stateMutability": "nonpayable",
      "type": "function"
    },
    {
      "inputs": [
        {
          "internalType": "address",
          "name": "newOwner",
          "type": "address"
        }
      ],
      "name": "transferOwnership",
      "outputs": [],
      "stateMutability": "nonpayable",
      "type": "function"
    },
    {
      "inputs": [],
      "name": "usdcAddress",
      "outputs": [
        {
          "internalType": "address",
          "name": "",
          "type": "address"
        }
      ],
      "stateMutability": "view",
      "type": "function"
    },
    {
      "inputs": [],
      "name": "usdzAddress",
      "outputs": [
        {
          "internalType": "address",
          "name": "",
          "type": "address"
        }
      ],
      "stateMutability": "view",
      "type": "function"
    },
    {
      "inputs": [
        {
          "internalType": "uint256",
          "name": "_amount",
          "type": "uint256"
        }
      ],
      "name": "withdraw",
      "outputs": [],
      "stateMutability": "nonpayable",
      "type": "function"
    },
    {
      "inputs": [],
      "name": "xSushiAddress",
      "outputs": [
        {
          "internalType": "address",
          "name": "",
          "type": "address"
        }
      ],
      "stateMutability": "view",
      "type": "function"
    },
    {
      "inputs": [
        {
          "internalType": "uint256",
          "name": "",
          "type": "uint256"
        }
      ],
      "name": "xSushiToUsdcPath",
      "outputs": [
        {
          "internalType": "address",
          "name": "",
          "type": "address"
        }
      ],
      "stateMutability": "view",
      "type": "function"
    }
  ],
  "bytecode": "0x60806040523480156200001157600080fd5b5060405162004ae838038062004ae8833981810160405281019062000037919062000436565b6000620000496200028c60201b60201c565b9050806000806101000a81548173ffffffffffffffffffffffffffffffffffffffff021916908373ffffffffffffffffffffffffffffffffffffffff1602179055508073ffffffffffffffffffffffffffffffffffffffff16600073ffffffffffffffffffffffffffffffffffffffff167f8be0079c531659141344cd1fd0a4f28419497f9722a3daafe3b4186f6b6457e060405160405180910390a35089600660006101000a81548173ffffffffffffffffffffffffffffffffffffffff021916908373ffffffffffffffffffffffffffffffffffffffff16021790555088600560006101000a81548173ffffffffffffffffffffffffffffffffffffffff021916908373ffffffffffffffffffffffffffffffffffffffff16021790555087600760006101000a81548173ffffffffffffffffffffffffffffffffffffffff021916908373ffffffffffffffffffffffffffffffffffffffff16021790555086600860006101000a81548173ffffffffffffffffffffffffffffffffffffffff021916908373ffffffffffffffffffffffffffffffffffffffff16021790555084600a8190555083600b8190555082600c8190555081600d8190555080600e81905550856009908051906020019062000226929190620002b8565b50620002416301e185586200029460201b6200233a1760201c565b600f60006101000a8154816fffffffffffffffffffffffffffffffff0219169083600f0b6fffffffffffffffffffffffffffffffff1602179055505050505050505050505062000643565b600033905090565b6000677fffffffffffffff821115620002ac57600080fd5b604082901b9050919050565b82805482825590600052602060002090810192821562000334579160200282015b82811115620003335782518260006101000a81548173ffffffffffffffffffffffffffffffffffffffff021916908373ffffffffffffffffffffffffffffffffffffffff16021790555091602001919060010190620002d9565b5b50905062000343919062000347565b5090565b5b808211156200036257600081600090555060010162000348565b5090565b60006200037d620003778462000573565b6200053f565b905080838252602082019050828560208602820111156200039d57600080fd5b60005b85811015620003d15781620003b68882620003db565b845260208401935060208301925050600181019050620003a0565b5050509392505050565b600081519050620003ec816200060f565b92915050565b600082601f8301126200040457600080fd5b81516200041684826020860162000366565b91505092915050565b600081519050620004308162000629565b92915050565b6000806000806000806000806000806101408b8d0312156200045757600080fd5b6000620004678d828e01620003db565b9a505060206200047a8d828e01620003db565b99505060406200048d8d828e01620003db565b9850506060620004a08d828e01620003db565b97505060808b015167ffffffffffffffff811115620004be57600080fd5b620004cc8d828e01620003f2565b96505060a0620004df8d828e016200041f565b95505060c0620004f28d828e016200041f565b94505060e0620005058d828e016200041f565b935050610100620005198d828e016200041f565b9250506101206200052d8d828e016200041f565b9150509295989b9194979a5092959850565b6000604051905081810181811067ffffffffffffffff82111715620005695762000568620005e0565b5b8060405250919050565b600067ffffffffffffffff821115620005915762000590620005e0565b5b602082029050602081019050919050565b6000620005af82620005b6565b9050919050565b600073ffffffffffffffffffffffffffffffffffffffff82169050919050565b6000819050919050565b7f4e487b7100000000000000000000000000000000000000000000000000000000600052604160045260246000fd5b6200061a81620005a2565b81146200062657600080fd5b50565b6200063481620005d6565b81146200064057600080fd5b50565b61449580620006536000396000f3fe608060405234801561001057600080fd5b50600436106101fb5760003560e01c8063734872511161011a578063bdfccad3116100ad578063daf5539e1161007c578063daf5539e1461056b578063e3064a771461059b578063ef4cadc5146105b7578063f248e7e8146105d5578063f2fde38b146105f1576101fb565b8063bdfccad3146104f9578063bfaf48d414610517578063c5ebeaec14610533578063cde5f6721461054f576101fb565b8063927e0a8f116100e9578063927e0a8f14610485578063a36a3630146104a3578063ac68a748146104c1578063b6b55f25146104dd576101fb565b8063734872511461040d57806379bbce8f1461042b5780637c3a00fd146104495780638da5cb5b14610467576101fb565b80634a63a5ce116101925780635dcc9391116101615780635dcc93911461038557806369cb89c7146103a35780637046b7a9146103d3578063715018a614610403576101fb565b80634a63a5ce146102fd5780634d3f9d3e1461032d57806354054808146103495780635ae547e314610367576101fb565b80632e1a7d4d116101ce5780632e1a7d4d1461028b5780632f865568146102a7578063371fd8e6146102c35780634031234c146102df576101fb565b806302d454571461020057806316c197391461021e5780631d89b1031461025157806320bdf8001461026d575b600080fd5b61020861060d565b6040516102159190613cb7565b60405180910390f35b610238600480360381019061023391906133b6565b610633565b60405161024894939291906140c6565b60405180910390f35b61026b600480360381019061026691906134d4565b610724565b005b610275610959565b6040516102829190613cb7565b60405180910390f35b6102a560048036038101906102a091906134d4565b61097f565b005b6102c160048036038101906102bc91906133b6565b610c71565b005b6102dd60048036038101906102d891906134d4565b610ddd565b005b6102e7611108565b6040516102f49190614044565b60405180910390f35b610317600480360381019061031291906134d4565b61110e565b6040516103249190613cb7565b60405180910390f35b610347600480360381019061034291906133df565b61114d565b005b610351611373565b60405161035e9190614044565b60405180910390f35b61036f611379565b60405161037c9190614044565b60405180910390f35b61038d61137f565b60405161039a9190613d32565b60405180910390f35b6103bd60048036038101906103b891906133b6565b611392565b6040516103ca9190614044565b60405180910390f35b6103ed60048036038101906103e8919061342e565b611601565b6040516103fa9190614044565b60405180910390f35b61040b611615565b005b61041561174f565b6040516104229190614044565b60405180910390f35b610433611755565b6040516104409190613cb7565b60405180910390f35b61045161177b565b60405161045e9190614044565b60405180910390f35b61046f611781565b60405161047c9190613cb7565b60405180910390f35b61048d6117aa565b60405161049a9190614044565b60405180910390f35b6104ab6117b0565b6040516104b89190614044565b60405180910390f35b6104db60048036038101906104d691906134d4565b6117b6565b005b6104f760048036038101906104f291906134d4565b6117b9565b005b610501611953565b60405161050e9190613cb7565b60405180910390f35b610531600480360381019061052c9190613562565b611979565b005b61054d600480360381019061054891906134d4565b611b11565b005b610569600480360381019061056491906134d4565b611d29565b005b610585600480360381019061058091906133b6565b611eee565b6040516105929190614044565b60405180910390f35b6105b560048036038101906105b09190613526565b611f43565b005b6105bf61205b565b6040516105cc9190614044565b60405180910390f35b6105ef60048036038101906105ea91906133b6565b612061565b005b61060b600480360381019061060691906133b6565b612191565b005b600560009054906101000a900473ffffffffffffffffffffffffffffffffffffffff1681565b60008060008061064285611392565b50600160008673ffffffffffffffffffffffffffffffffffffffff1673ffffffffffffffffffffffffffffffffffffffff16815260200190815260200160002060000154600160008773ffffffffffffffffffffffffffffffffffffffff1673ffffffffffffffffffffffffffffffffffffffff168152602001908152602001600020600101546106d287611392565b600160008973ffffffffffffffffffffffffffffffffffffffff1673ffffffffffffffffffffffffffffffffffffffff1681526020019081526020016000206002015493509350935093509193509193565b6000600560009054906101000a900473ffffffffffffffffffffffffffffffffffffffff1673ffffffffffffffffffffffffffffffffffffffff166370a08231306040518263ffffffff1660e01b81526004016107819190613cb7565b60206040518083038186803b15801561079957600080fd5b505afa1580156107ad573d6000803e3d6000fd5b505050506040513d601f19601f820116820180604052508101906107d191906134fd565b905081811015610816576040517f08c379a000000000000000000000000000000000000000000000000000000000815260040161080d90613f04565b60405180910390fd5b600660009054906101000a900473ffffffffffffffffffffffffffffffffffffffff1673ffffffffffffffffffffffffffffffffffffffff16639dc29fac33846040518363ffffffff1660e01b8152600401610873929190613d09565b600060405180830381600087803b15801561088d57600080fd5b505af11580156108a1573d6000803e3d6000fd5b50505050600560009054906101000a900473ffffffffffffffffffffffffffffffffffffffff1673ffffffffffffffffffffffffffffffffffffffff1663a9059cbb33846040518363ffffffff1660e01b8152600401610902929190613d09565b602060405180830381600087803b15801561091c57600080fd5b505af1158015610930573d6000803e3d6000fd5b505050506040513d601f19601f8201168201806040525081019061095491906134ab565b505050565b600660009054906101000a900473ffffffffffffffffffffffffffffffffffffffff1681565b6000600160003373ffffffffffffffffffffffffffffffffffffffff1673ffffffffffffffffffffffffffffffffffffffff16815260200190815260200160002090508181600001541015610a09576040517f08c379a0000000000000000000000000000000000000000000000000000000008152600401610a0090614024565b60405180910390fd5b6000610a1433611392565b905080826001016000828254610a2a91906141b7565b925050819055504282600201819055506000610a4533611eee565b9050600d548111610a8b576040517f08c379a0000000000000000000000000000000000000000000000000000000008152600401610a8290613e04565b60405180910390fd5b60008084600101541415610aa55783600001549050610ad0565b600d5482610ab39190614298565b828560000154610ac3919061420d565b610acd919061423e565b90505b84811015610b13576040517f08c379a0000000000000000000000000000000000000000000000000000000008152600401610b0a90613ec4565b60405180910390fd5b84846000016000828254610b279190614298565b92505081905550600760009054906101000a900473ffffffffffffffffffffffffffffffffffffffff1673ffffffffffffffffffffffffffffffffffffffff1663a9059cbb33876040518363ffffffff1660e01b8152600401610b8b929190613d09565b602060405180830381600087803b158015610ba557600080fd5b505af1158015610bb9573d6000803e3d6000fd5b505050506040513d601f19601f82011682018060405250810190610bdd91906134ab565b610c1c576040517f08c379a0000000000000000000000000000000000000000000000000000000008152600401610c1390613e84565b60405180910390fd5b3373ffffffffffffffffffffffffffffffffffffffff167f884edad9ce6fa2440d8a54cc123490eb96d2768479d49ff9c7366125a942436486604051610c629190614044565b60405180910390a25050505050565b6000600160008373ffffffffffffffffffffffffffffffffffffffff1673ffffffffffffffffffffffffffffffffffffffff16815260200190815260200160002090506000816000015411610cfb576040517f08c379a0000000000000000000000000000000000000000000000000000000008152600401610cf290613e64565b60405180910390fd5b6000610d0683611392565b9050600e54610d2484838560010154610d1f91906141b7565b611601565b10610d64576040517f08c379a0000000000000000000000000000000000000000000000000000000008152600401610d5b90613fa4565b60405180910390fd5b610d6d8361235d565b3373ffffffffffffffffffffffffffffffffffffffff168373ffffffffffffffffffffffffffffffffffffffff167f5a821a618ddb1a1fd304234a69c9d7f20c129d122fcf35593d13a071926643076000806000604051610dd093929190613d4d565b60405180910390a3505050565b60008111610e20576040517f08c379a0000000000000000000000000000000000000000000000000000000008152600401610e1790613f84565b60405180910390fd5b6000600160003373ffffffffffffffffffffffffffffffffffffffff1673ffffffffffffffffffffffffffffffffffffffff1681526020019081526020016000209050610e6c33611392565b816001016000828254610e7f91906141b7565b925050819055504281600201819055508181600101541115610fab57600660009054906101000a900473ffffffffffffffffffffffffffffffffffffffff1673ffffffffffffffffffffffffffffffffffffffff166323b872dd3330856040518463ffffffff1660e01b8152600401610efa93929190613cd2565b602060405180830381600087803b158015610f1457600080fd5b505af1158015610f28573d6000803e3d6000fd5b505050506040513d601f19601f82011682018060405250810190610f4c91906134ab565b610f8b576040517f08c379a0000000000000000000000000000000000000000000000000000000008152600401610f8290613f24565b60405180910390fd5b81816001016000828254610f9f9190614298565b925050819055506110aa565b600660009054906101000a900473ffffffffffffffffffffffffffffffffffffffff1673ffffffffffffffffffffffffffffffffffffffff166323b872dd333084600101546040518463ffffffff1660e01b815260040161100e93929190613cd2565b602060405180830381600087803b15801561102857600080fd5b505af115801561103c573d6000803e3d6000fd5b505050506040513d601f19601f8201168201806040525081019061106091906134ab565b61109f576040517f08c379a000000000000000000000000000000000000000000000000000000000815260040161109690613f24565b60405180910390fd5b600081600101819055505b3373ffffffffffffffffffffffffffffffffffffffff167f2fe77b1c99aca6b022b8efc6e3e8dd1b48b30748709339b65c50ef3263443e0983836001015484600001546040516110fc9392919061408f565b60405180910390a25050565b600e5481565b6009818154811061111e57600080fd5b906000526020600020016000915054906101000a900473ffffffffffffffffffffffffffffffffffffffff1681565b611155612360565b73ffffffffffffffffffffffffffffffffffffffff16611173611781565b73ffffffffffffffffffffffffffffffffffffffff16146111c9576040517f08c379a00000000000000000000000000000000000000000000000000000000081526004016111c090613f44565b60405180910390fd5b600073ffffffffffffffffffffffffffffffffffffffff168373ffffffffffffffffffffffffffffffffffffffff16141580156112335750600073ffffffffffffffffffffffffffffffffffffffff168273ffffffffffffffffffffffffffffffffffffffff1614155b801561126c5750600073ffffffffffffffffffffffffffffffffffffffff168173ffffffffffffffffffffffffffffffffffffffff1614155b6112ab576040517f08c379a00000000000000000000000000000000000000000000000000000000081526004016112a290613ee4565b60405180910390fd5b82600660006101000a81548173ffffffffffffffffffffffffffffffffffffffff021916908373ffffffffffffffffffffffffffffffffffffffff16021790555081600560006101000a81548173ffffffffffffffffffffffffffffffffffffffff021916908373ffffffffffffffffffffffffffffffffffffffff16021790555080600760006101000a81548173ffffffffffffffffffffffffffffffffffffffff021916908373ffffffffffffffffffffffffffffffffffffffff160217905550505050565b600b5481565b600d5481565b600f60009054906101000a9004600f0b81565b600080600160008473ffffffffffffffffffffffffffffffffffffffff1673ffffffffffffffffffffffffffffffffffffffff16815260200190815260200160002060010154148061142657506000600160008473ffffffffffffffffffffffffffffffffffffffff1673ffffffffffffffffffffffffffffffffffffffff16815260200190815260200160002060020154145b8061143357506000600c54145b8061147f5750600160008373ffffffffffffffffffffffffffffffffffffffff1673ffffffffffffffffffffffffffffffffffffffff1681526020019081526020016000206002015442145b1561148d57600090506115fc565b6000600160008473ffffffffffffffffffffffffffffffffffffffff1673ffffffffffffffffffffffffffffffffffffffff16815260200190815260200160002060020154426114dd9190614298565b905060006115026114ed8361233a565b600f60009054906101000a9004600f0b612368565b90506000611524611514600c5461233a565b61151f61271061233a565b612368565b90506000611573600160008873ffffffffffffffffffffffffffffffffffffffff1673ffffffffffffffffffffffffffffffffffffffff1681526020019081526020016000206001015461233a565b9050600061159a6115958361159061158b8789612418565b612483565b612418565b6124fc565b9050600160008873ffffffffffffffffffffffffffffffffffffffff1673ffffffffffffffffffffffffffffffffffffffff168152602001908152602001600020600101548167ffffffffffffffff166115f49190614298565b955050505050505b919050565b600061160d838361251d565b905092915050565b61161d612360565b73ffffffffffffffffffffffffffffffffffffffff1661163b611781565b73ffffffffffffffffffffffffffffffffffffffff1614611691576040517f08c379a000000000000000000000000000000000000000000000000000000000815260040161168890613f44565b60405180910390fd5b600073ffffffffffffffffffffffffffffffffffffffff1660008054906101000a900473ffffffffffffffffffffffffffffffffffffffff1673ffffffffffffffffffffffffffffffffffffffff167f8be0079c531659141344cd1fd0a4f28419497f9722a3daafe3b4186f6b6457e060405160405180910390a360008060006101000a81548173ffffffffffffffffffffffffffffffffffffffff021916908373ffffffffffffffffffffffffffffffffffffffff160217905550565b60045481565b600860009054906101000a900473ffffffffffffffffffffffffffffffffffffffff1681565b600c5481565b60008060009054906101000a900473ffffffffffffffffffffffffffffffffffffffff16905090565b60035481565b600a5481565b50565b600760009054906101000a900473ffffffffffffffffffffffffffffffffffffffff1673ffffffffffffffffffffffffffffffffffffffff166323b872dd3330846040518463ffffffff1660e01b815260040161181893929190613cd2565b602060405180830381600087803b15801561183257600080fd5b505af1158015611846573d6000803e3d6000fd5b505050506040513d601f19601f8201168201806040525081019061186a91906134ab565b6118a9576040517f08c379a00000000000000000000000000000000000000000000000000000000081526004016118a090613fc4565b60405180910390fd5b80600160003373ffffffffffffffffffffffffffffffffffffffff1673ffffffffffffffffffffffffffffffffffffffff16815260200190815260200160002060000160008282546118fb91906141b7565b925050819055503373ffffffffffffffffffffffffffffffffffffffff167fe1fffcc4923d04b559f4d29a8bfc6cda04eb5b0d3c460751c2402c5c5cc9109c826040516119489190614044565b60405180910390a250565b600760009054906101000a900473ffffffffffffffffffffffffffffffffffffffff1681565b611981612360565b73ffffffffffffffffffffffffffffffffffffffff1661199f611781565b73ffffffffffffffffffffffffffffffffffffffff16146119f5576040517f08c379a00000000000000000000000000000000000000000000000000000000081526004016119ec90613f44565b60405180910390fd5b6127108311158015611a08575060008310155b611a47576040517f08c379a0000000000000000000000000000000000000000000000000000000008152600401611a3e90613f64565b60405180910390fd5b6127108211158015611a5a575060008210155b8015611a665750828211155b611aa5576040517f08c379a0000000000000000000000000000000000000000000000000000000008152600401611a9c90613de4565b60405180910390fd5b82600a8190555081600b819055506127108111158015611ac6575060008110155b611b05576040517f08c379a0000000000000000000000000000000000000000000000000000000008152600401611afc90613fe4565b60405180910390fd5b80600c81905550505050565b60008111611b54576040517f08c379a0000000000000000000000000000000000000000000000000000000008152600401611b4b90613e44565b60405180910390fd5b6000600160003373ffffffffffffffffffffffffffffffffffffffff1673ffffffffffffffffffffffffffffffffffffffff16815260200190815260200160002090506000611ba233611392565b9050600d54611bcb3385848660010154611bbc91906141b7565b611bc691906141b7565b611601565b1015611c0c576040517f08c379a0000000000000000000000000000000000000000000000000000000008152600401611c0390613da4565b60405180910390fd5b8083611c1891906141b7565b826001016000828254611c2b91906141b7565b92505081905550428260020181905550600660009054906101000a900473ffffffffffffffffffffffffffffffffffffffff1673ffffffffffffffffffffffffffffffffffffffff166340c10f1933856040518363ffffffff1660e01b8152600401611c98929190613d09565b600060405180830381600087803b158015611cb257600080fd5b505af1158015611cc6573d6000803e3d6000fd5b505050503373ffffffffffffffffffffffffffffffffffffffff167f13ed6866d4e1ee6da46f845c46d7e54120883d75c5ea9a2dacc1c4ca8984ab808484600101548560000154604051611d1c9392919061408f565b60405180910390a2505050565b60008111611d6c576040517f08c379a0000000000000000000000000000000000000000000000000000000008152600401611d6390613e24565b60405180910390fd5b600560009054906101000a900473ffffffffffffffffffffffffffffffffffffffff1673ffffffffffffffffffffffffffffffffffffffff166323b872dd3330846040518463ffffffff1660e01b8152600401611dcb93929190613cd2565b602060405180830381600087803b158015611de557600080fd5b505af1158015611df9573d6000803e3d6000fd5b505050506040513d601f19601f82011682018060405250810190611e1d91906134ab565b611e5c576040517f08c379a0000000000000000000000000000000000000000000000000000000008152600401611e5390613d84565b60405180910390fd5b600660009054906101000a900473ffffffffffffffffffffffffffffffffffffffff1673ffffffffffffffffffffffffffffffffffffffff166340c10f1933836040518363ffffffff1660e01b8152600401611eb9929190613d09565b600060405180830381600087803b158015611ed357600080fd5b505af1158015611ee7573d6000803e3d6000fd5b5050505050565b6000611f3c82600160008573ffffffffffffffffffffffffffffffffffffffff1673ffffffffffffffffffffffffffffffffffffffff1681526020019081526020016000206001015461251d565b9050919050565b611f4b612360565b73ffffffffffffffffffffffffffffffffffffffff16611f69611781565b73ffffffffffffffffffffffffffffffffffffffff1614611fbf576040517f08c379a0000000000000000000000000000000000000000000000000000000008152600401611fb690613f44565b60405180910390fd5b612710821015612004576040517f08c379a0000000000000000000000000000000000000000000000000000000008152600401611ffb90613ea4565b60405180910390fd5b612710811015612049576040517f08c379a000000000000000000000000000000000000000000000000000000000815260040161204090614004565b60405180910390fd5b81600d8190555080600e819055505050565b61271081565b612069612360565b73ffffffffffffffffffffffffffffffffffffffff16612087611781565b73ffffffffffffffffffffffffffffffffffffffff16146120dd576040517f08c379a00000000000000000000000000000000000000000000000000000000081526004016120d490613f44565b60405180910390fd5b600073ffffffffffffffffffffffffffffffffffffffff168173ffffffffffffffffffffffffffffffffffffffff16141561214d576040517f08c379a000000000000000000000000000000000000000000000000000000000815260040161214490613ee4565b60405180910390fd5b80600860006101000a81548173ffffffffffffffffffffffffffffffffffffffff021916908373ffffffffffffffffffffffffffffffffffffffff16021790555050565b612199612360565b73ffffffffffffffffffffffffffffffffffffffff166121b7611781565b73ffffffffffffffffffffffffffffffffffffffff161461220d576040517f08c379a000000000000000000000000000000000000000000000000000000000815260040161220490613f44565b60405180910390fd5b600073ffffffffffffffffffffffffffffffffffffffff168173ffffffffffffffffffffffffffffffffffffffff16141561227d576040517f08c379a000000000000000000000000000000000000000000000000000000000815260040161227490613dc4565b60405180910390fd5b8073ffffffffffffffffffffffffffffffffffffffff1660008054906101000a900473ffffffffffffffffffffffffffffffffffffffff1673ffffffffffffffffffffffffffffffffffffffff167f8be0079c531659141344cd1fd0a4f28419497f9722a3daafe3b4186f6b6457e060405160405180910390a3806000806101000a81548173ffffffffffffffffffffffffffffffffffffffff021916908373ffffffffffffffffffffffffffffffffffffffff16021790555050565b6000677fffffffffffffff82111561235157600080fd5b604082901b9050919050565b50565b600033905090565b60008082600f0b141561237a57600080fd5b600082600f0b604085600f0b901b816123bc577f4e487b7100000000000000000000000000000000000000000000000000000000600052601260045260246000fd5b0590507fffffffffffffffffffffffffffffffff80000000000000000000000000000000600f0b811215801561240557506f7fffffffffffffffffffffffffffffff600f0b8113155b61240e57600080fd5b8091505092915050565b600080604083600f0b85600f0b02901d90507fffffffffffffffffffffffffffffffff80000000000000000000000000000000600f0b811215801561247057506f7fffffffffffffffffffffffffffffff600f0b8113155b61247957600080fd5b8091505092915050565b60006840000000000000000082600f0b1261249d57600080fd5b7fffffffffffffffffffffffffffffffffffffffffffffffc0000000000000000082600f0b12156124d157600090506124f7565b6124f46080700171547652b82fe1777d0ffda0d23a7d1284600f0b02901d6126cc565b90505b919050565b60008082600f0b121561250e57600080fd5b604082600f0b901d9050919050565b600080600160008573ffffffffffffffffffffffffffffffffffffffff1673ffffffffffffffffffffffffffffffffffffffff16815260200190815260200160002060000154905060008114156125785760009150506126c6565b60008314156125aa577fffffffffffffffffffffffffffffffffffffffffffffffffffffffffffffffff9150506126c6565b6000600860009054906101000a900473ffffffffffffffffffffffffffffffffffffffff16905060008173ffffffffffffffffffffffffffffffffffffffff1663d06ca61f8460096040518363ffffffff1660e01b815260040161260f92919061405f565b60006040518083038186803b15801561262757600080fd5b505afa15801561263b573d6000803e3d6000fd5b505050506040513d6000823e3d601f19601f82011682018060405250810190612664919061346a565b60028151811061269d577f4e487b7100000000000000000000000000000000000000000000000000000000600052603260045260246000fd5b6020026020010151905084612710826126b6919061423e565b6126c0919061420d565b93505050505b92915050565b60006840000000000000000082600f0b126126e657600080fd5b7fffffffffffffffffffffffffffffffffffffffffffffffc0000000000000000082600f0b121561271a57600090506132c7565b60006f80000000000000000000000000000000905060006780000000000000008416600f0b131561276057608070016a09e667f3bcc908b2fb1366ea957d3e8202901c90505b60006740000000000000008416600f0b13156127915760807001306fe0a31b7152de8d5a46305c85edec8202901c90505b60006720000000000000008416600f0b13156127c25760807001172b83c7d517adcdf7c8c50eb14a791f8202901c90505b60006710000000000000008416600f0b13156127f357608070010b5586cf9890f6298b92b71842a983638202901c90505b60006708000000000000008416600f0b13156128245760807001059b0d31585743ae7c548eb68ca417fd8202901c90505b60006704000000000000008416600f0b1315612855576080700102c9a3e778060ee6f7caca4f7a29bde88202901c90505b60006702000000000000008416600f0b131561288657608070010163da9fb33356d84a66ae336dcdfa3f8202901c90505b60006701000000000000008416600f0b13156128b7576080700100b1afa5abcbed6129ab13ec11dc95438202901c90505b600066800000000000008416600f0b13156128e757608070010058c86da1c09ea1ff19d294cf2f679b8202901c90505b600066400000000000008416600f0b13156129175760807001002c605e2e8cec506d21bfc89a23a00f8202901c90505b600066200000000000008416600f0b1315612947576080700100162f3904051fa128bca9c55c31e5df8202901c90505b600066100000000000008416600f0b13156129775760807001000b175effdc76ba38e31671ca9397258202901c90505b600066080000000000008416600f0b13156129a7576080700100058ba01fb9f96d6cacd4b180917c3d8202901c90505b600066040000000000008416600f0b13156129d757608070010002c5cc37da9491d0985c348c68e7b38202901c90505b600066020000000000008416600f0b1315612a075760807001000162e525ee054754457d59952920268202901c90505b600066010000000000008416600f0b1315612a3757608070010000b17255775c040618bf4a4ade83fc8202901c90505b6000658000000000008416600f0b1315612a665760807001000058b91b5bc9ae2eed81e9b7d4cfab8202901c90505b6000654000000000008416600f0b1315612a95576080700100002c5c89d5ec6ca4d7c8acc017b7c98202901c90505b6000652000000000008416600f0b1315612ac457608070010000162e43f4f831060e02d839a9d16d8202901c90505b6000651000000000008416600f0b1315612af3576080700100000b1721bcfc99d9f890ea069117638202901c90505b6000650800000000008416600f0b1315612b2257608070010000058b90cf1e6d97f9ca14dbcc16288202901c90505b6000650400000000008416600f0b1315612b515760807001000002c5c863b73f016468f6bac5ca2b8202901c90505b6000650200000000008416600f0b1315612b80576080700100000162e430e5a18f6119e3c02282a58202901c90505b6000650100000000008416600f0b1315612baf5760807001000000b1721835514b86e6d96efd1bfe8202901c90505b60006480000000008416600f0b1315612bdd576080700100000058b90c0b48c6be5df846c5b2ef8202901c90505b60006440000000008416600f0b1315612c0b57608070010000002c5c8601cc6b9e94213c72737a8202901c90505b60006420000000008416600f0b1315612c395760807001000000162e42fff037df38aa2b219f068202901c90505b60006410000000008416600f0b1315612c6757608070010000000b17217fba9c739aa5819f44f98202901c90505b60006408000000008416600f0b1315612c955760807001000000058b90bfcdee5acd3c1cedc8238202901c90505b60006404000000008416600f0b1315612cc3576080700100000002c5c85fe31f35a6a30da1be508202901c90505b60006402000000008416600f0b1315612cf157608070010000000162e42ff0999ce3541b9fffcf8202901c90505b60006401000000008416600f0b1315612d1f576080700100000000b17217f80f4ef5aadda455548202901c90505b600063800000008416600f0b1315612d4c57608070010000000058b90bfbf8479bd5a81b51ad8202901c90505b600063400000008416600f0b1315612d795760807001000000002c5c85fdf84bd62ae30a74cc8202901c90505b600063200000008416600f0b1315612da6576080700100000000162e42fefb2fed257559bdaa8202901c90505b600063100000008416600f0b1315612dd35760807001000000000b17217f7d5a7716bba4a9ae8202901c90505b600063080000008416600f0b1315612e00576080700100000000058b90bfbe9ddbac5e109cce8202901c90505b600063040000008416600f0b1315612e2d57608070010000000002c5c85fdf4b15de6f17eb0d8202901c90505b600063020000008416600f0b1315612e5a5760807001000000000162e42fefa494f1478fde058202901c90505b600063010000008416600f0b1315612e8757608070010000000000b17217f7d20cf927c8e94c8202901c90505b6000628000008416600f0b1315612eb35760807001000000000058b90bfbe8f71cb4e4b33d8202901c90505b6000624000008416600f0b1315612edf576080700100000000002c5c85fdf477b662b269458202901c90505b6000622000008416600f0b1315612f0b57608070010000000000162e42fefa3ae53369388c8202901c90505b6000621000008416600f0b1315612f37576080700100000000000b17217f7d1d351a389d408202901c90505b6000620800008416600f0b1315612f6357608070010000000000058b90bfbe8e8b2d3d4ede8202901c90505b6000620400008416600f0b1315612f8f5760807001000000000002c5c85fdf4741bea6e77e8202901c90505b6000620200008416600f0b1315612fbb576080700100000000000162e42fefa39fe95583c28202901c90505b6000620100008416600f0b1315612fe75760807001000000000000b17217f7d1cfb72b45e18202901c90505b60006180008416600f0b1315613012576080700100000000000058b90bfbe8e7cc35c3f08202901c90505b60006140008416600f0b131561303d57608070010000000000002c5c85fdf473e242ea388202901c90505b60006120008416600f0b13156130685760807001000000000000162e42fefa39f02b772c8202901c90505b60006110008416600f0b131561309357608070010000000000000b17217f7d1cf7d83c1a8202901c90505b60006108008416600f0b13156130be5760807001000000000000058b90bfbe8e7bdcbe2e8202901c90505b60006104008416600f0b13156130e9576080700100000000000002c5c85fdf473dea871f8202901c90505b60006102008416600f0b131561311457608070010000000000000162e42fefa39ef44d918202901c90505b60006101008416600f0b131561313f576080700100000000000000b17217f7d1cf79e9498202901c90505b600060808416600f0b131561316957608070010000000000000058b90bfbe8e7bce5448202901c90505b600060408416600f0b13156131935760807001000000000000002c5c85fdf473de6eca8202901c90505b600060208416600f0b13156131bd576080700100000000000000162e42fefa39ef366f8202901c90505b600060108416600f0b13156131e75760807001000000000000000b17217f7d1cf79afa8202901c90505b600060088416600f0b1315613211576080700100000000000000058b90bfbe8e7bcd6d8202901c90505b600060048416600f0b131561323b57608070010000000000000002c5c85fdf473de6b28202901c90505b600060028416600f0b13156132655760807001000000000000000162e42fefa39ef3588202901c90505b600060018416600f0b131561328f57608070010000000000000000b17217f7d1cf79ab8202901c90505b604083600f0b901d603f03600f0b81901c90506f7fffffffffffffffffffffffffffffff600f0b8111156132c257600080fd5b809150505b919050565b60006132df6132da8461413c565b61410b565b905080838252602082019050828560208602820111156132fe57600080fd5b60005b8581101561332e578161331488826133a1565b845260208401935060208301925050600181019050613301565b5050509392505050565b6000813590506133478161441a565b92915050565b600082601f83011261335e57600080fd5b815161336e8482602086016132cc565b91505092915050565b60008151905061338681614431565b92915050565b60008135905061339b81614448565b92915050565b6000815190506133b081614448565b92915050565b6000602082840312156133c857600080fd5b60006133d684828501613338565b91505092915050565b6000806000606084860312156133f457600080fd5b600061340286828701613338565b935050602061341386828701613338565b925050604061342486828701613338565b9150509250925092565b6000806040838503121561344157600080fd5b600061344f85828601613338565b92505060206134608582860161338c565b9150509250929050565b60006020828403121561347c57600080fd5b600082015167ffffffffffffffff81111561349657600080fd5b6134a28482850161334d565b91505092915050565b6000602082840312156134bd57600080fd5b60006134cb84828501613377565b91505092915050565b6000602082840312156134e657600080fd5b60006134f48482850161338c565b91505092915050565b60006020828403121561350f57600080fd5b600061351d848285016133a1565b91505092915050565b6000806040838503121561353957600080fd5b60006135478582860161338c565b92505060206135588582860161338c565b9150509250929050565b60008060006060848603121561357757600080fd5b60006135858682870161338c565b93505060206135968682870161338c565b92505060406135a78682870161338c565b9150509250925092565b60006135bd83836135c9565b60208301905092915050565b6135d2816142ec565b82525050565b6135e1816142ec565b82525050565b60006135f28261417d565b6135fc8185614195565b935061360783614168565b8060005b8381101561363f5761361c826143fa565b61362688826135b1565b975061363183614188565b92505060018101905061360b565b5085935050505092915050565b6136558161430a565b82525050565b61366481614341565b82525050565b60006136776014836141a6565b91507f55534443207472616e73666572206661696c65640000000000000000000000006000830152602082019050919050565b60006136b76029836141a6565b91507f6e6f7420656e6f75676820636f6c6c61746572616c20746f20626f72726f772060008301527f74686174206d75636800000000000000000000000000000000000000000000006020830152604082019050919050565b600061371d6026836141a6565b91507f4f776e61626c653a206e6577206f776e657220697320746865207a65726f206160008301527f64647265737300000000000000000000000000000000000000000000000000006020830152604082019050919050565b60006137836018836141a6565b91507f6c69714665655368617265206f7574206f662072616e676500000000000000006000830152602082019050919050565b60006137c36022836141a6565b91507f6163636f756e7420616c72656164792062656c6f77207361666574792072617460008301527f696f0000000000000000000000000000000000000000000000000000000000006020830152604082019050919050565b60006138296014836141a6565b91507f63616e2774206d696e74207a65726f205553445a0000000000000000000000006000830152602082019050919050565b6000613869600e836141a6565b91507f63616e277420626f72726f7720300000000000000000000000000000000000006000830152602082019050919050565b60006138a96019836141a6565b91507f6163636f756e7420686173206e6f20636f6c6c61746572616c000000000000006000830152602082019050919050565b60006138e96018836141a6565b91507f7769746864726177207472616e73666572206661696c656400000000000000006000830152602082019050919050565b60006139296029836141a6565b91507f626f72726f77207468726573686f6c64206d757374206265203e207363616c6960008301527f6e6720666163746f7200000000000000000000000000000000000000000000006020830152604082019050919050565b600061398f6019836141a6565b91507f616d6f756e7420756e7361666520746f207769746864726177000000000000006000830152602082019050919050565b60006139cf6018836141a6565b91507f7a65726f2061646472657373206e6f7420616c6c6f77656400000000000000006000830152602082019050919050565b6000613a0f6014836141a6565b91507f55534443207265736572766520746f6f206c6f770000000000000000000000006000830152602082019050919050565b6000613a4f6015836141a6565b91507f7265706179207472616e73666572206661696c656400000000000000000000006000830152602082019050919050565b6000613a8f6020836141a6565b91507f4f776e61626c653a2063616c6c6572206973206e6f7420746865206f776e65726000830152602082019050919050565b6000613acf6018836141a6565b91507f6c6971546f74616c466565206f7574206f662072616e676500000000000000006000830152602082019050919050565b6000613b0f600d836141a6565b91507f63616e27742072657061792030000000000000000000000000000000000000006000830152602082019050919050565b6000613b4f601f836141a6565b91507f6163636f756e74206e6f742062656c6f77206c6971207468726573686f6c64006000830152602082019050919050565b6000613b8f600e836141a6565b91507f6465706f736974206661696c65640000000000000000000000000000000000006000830152602082019050919050565b6000613bcf6019836141a6565b91507f696e74657265737452617465206f7574206f662072616e6765000000000000006000830152602082019050919050565b6000613c0f6026836141a6565b91507f6c6971207468726573686f6c64206d757374206265203e207363616c696e672060008301527f666163746f7200000000000000000000000000000000000000000000000000006020830152604082019050919050565b6000613c756020836141a6565b91507f6e6f7420656e6f75676820636f6c6c61746572616c20696e206163636f756e746000830152602082019050919050565b613cb181614337565b82525050565b6000602082019050613ccc60008301846135d8565b92915050565b6000606082019050613ce760008301866135d8565b613cf460208301856135d8565b613d016040830184613ca8565b949350505050565b6000604082019050613d1e60008301856135d8565b613d2b6020830184613ca8565b9392505050565b6000602082019050613d47600083018461364c565b92915050565b6000606082019050613d62600083018661365b565b613d6f602083018561365b565b613d7c604083018461365b565b949350505050565b60006020820190508181036000830152613d9d8161366a565b9050919050565b60006020820190508181036000830152613dbd816136aa565b9050919050565b60006020820190508181036000830152613ddd81613710565b9050919050565b60006020820190508181036000830152613dfd81613776565b9050919050565b60006020820190508181036000830152613e1d816137b6565b9050919050565b60006020820190508181036000830152613e3d8161381c565b9050919050565b60006020820190508181036000830152613e5d8161385c565b9050919050565b60006020820190508181036000830152613e7d8161389c565b9050919050565b60006020820190508181036000830152613e9d816138dc565b9050919050565b60006020820190508181036000830152613ebd8161391c565b9050919050565b60006020820190508181036000830152613edd81613982565b9050919050565b60006020820190508181036000830152613efd816139c2565b9050919050565b60006020820190508181036000830152613f1d81613a02565b9050919050565b60006020820190508181036000830152613f3d81613a42565b9050919050565b60006020820190508181036000830152613f5d81613a82565b9050919050565b60006020820190508181036000830152613f7d81613ac2565b9050919050565b60006020820190508181036000830152613f9d81613b02565b9050919050565b60006020820190508181036000830152613fbd81613b42565b9050919050565b60006020820190508181036000830152613fdd81613b82565b9050919050565b60006020820190508181036000830152613ffd81613bc2565b9050919050565b6000602082019050818103600083015261401d81613c02565b9050919050565b6000602082019050818103600083015261403d81613c68565b9050919050565b60006020820190506140596000830184613ca8565b92915050565b60006040820190506140746000830185613ca8565b818103602083015261408681846135e7565b90509392505050565b60006060820190506140a46000830186613ca8565b6140b16020830185613ca8565b6140be6040830184613ca8565b949350505050565b60006080820190506140db6000830187613ca8565b6140e86020830186613ca8565b6140f56040830185613ca8565b6141026060830184613ca8565b95945050505050565b6000604051905081810181811067ffffffffffffffff82111715614132576141316143cb565b5b8060405250919050565b600067ffffffffffffffff821115614157576141566143cb565b5b602082029050602081019050919050565b60008190508160005260206000209050919050565b600081549050919050565b6000600182019050919050565b600082825260208201905092915050565b600082825260208201905092915050565b60006141c282614337565b91506141cd83614337565b9250827fffffffffffffffffffffffffffffffffffffffffffffffffffffffffffffffff038211156142025761420161436d565b5b828201905092915050565b600061421882614337565b915061422383614337565b9250826142335761423261439c565b5b828204905092915050565b600061424982614337565b915061425483614337565b9250817fffffffffffffffffffffffffffffffffffffffffffffffffffffffffffffffff048311821515161561428d5761428c61436d565b5b828202905092915050565b60006142a382614337565b91506142ae83614337565b9250828210156142c1576142c061436d565b5b828203905092915050565b600073ffffffffffffffffffffffffffffffffffffffff82169050919050565b60006142f782614317565b9050919050565b60008115159050919050565b600081600f0b9050919050565b600073ffffffffffffffffffffffffffffffffffffffff82169050919050565b6000819050919050565b600061434c82614337565b9050919050565b60006143666143618361440d565b6142cc565b9050919050565b7f4e487b7100000000000000000000000000000000000000000000000000000000600052601160045260246000fd5b7f4e487b7100000000000000000000000000000000000000000000000000000000600052601260045260246000fd5b7f4e487b7100000000000000000000000000000000000000000000000000000000600052604160045260246000fd5b60006144068254614353565b9050919050565b60008160001c9050919050565b614423816142ec565b811461442e57600080fd5b50565b61443a816142fe565b811461444557600080fd5b50565b61445181614337565b811461445c57600080fd5b5056fea26469706673582212200dbb1479d6d429ed658855e1f9ed6cbe431aa21a21518db6a7f29ae3cba29bce64736f6c63430008000033",
  "linkReferences": {},
  "deployedLinkReferences": {}
}