{
  "_format": "hh-sol-artifact-1",
  "contractName": "Controller",
  "sourceName": "contracts/Controller.sol",
  "abi": [
    {
      "inputs": [
        {
          "internalType": "address",
          "name": "_usdzAddress",
          "type": "address"
        },
        {
          "internalType": "address",
          "name": "_xSushiAddress",
          "type": "address"
        },
        {
          "internalType": "uint256",
          "name": "_liqTotalFee",
          "type": "uint256"
        },
        {
          "internalType": "uint256",
          "name": "_liqFeeShare",
          "type": "uint256"
        },
        {
          "internalType": "uint256",
          "name": "_interestRate",
          "type": "uint256"
        },
        {
          "internalType": "uint256",
          "name": "_borrowThreshold",
          "type": "uint256"
        },
        {
          "internalType": "uint256",
          "name": "_liqThreshold",
          "type": "uint256"
        }
      ],
      "stateMutability": "nonpayable",
      "type": "constructor"
    },
    {
      "anonymous": false,
      "inputs": [
        {
          "indexed": true,
          "internalType": "address",
          "name": "account",
          "type": "address"
        },
        {
          "indexed": false,
          "internalType": "uint256",
          "name": "amountBorrowed",
          "type": "uint256"
        },
        {
          "indexed": false,
          "internalType": "uint256",
          "name": "collateral",
          "type": "uint256"
        },
        {
          "indexed": false,
          "internalType": "uint256",
          "name": "totalDebt",
          "type": "uint256"
        }
      ],
      "name": "Borrow",
      "type": "event"
    },
    {
      "anonymous": false,
      "inputs": [
        {
          "indexed": true,
          "internalType": "address",
          "name": "account",
          "type": "address"
        },
        {
          "indexed": false,
          "internalType": "uint256",
          "name": "amount",
          "type": "uint256"
        }
      ],
      "name": "Deposit",
      "type": "event"
    },
    {
      "anonymous": false,
      "inputs": [
        {
          "indexed": true,
          "internalType": "address",
          "name": "account",
          "type": "address"
        },
        {
          "indexed": true,
          "internalType": "address",
          "name": "liquidator",
          "type": "address"
        },
        {
          "indexed": false,
          "internalType": "uint256",
          "name": "collateralLiquidated",
          "type": "uint256"
        },
        {
          "indexed": false,
          "internalType": "uint256",
          "name": "lastCollateralRatio",
          "type": "uint256"
        },
        {
          "indexed": false,
          "internalType": "uint256",
          "name": "lastDebtOutstanding",
          "type": "uint256"
        }
      ],
      "name": "Liquidation",
      "type": "event"
    },
    {
      "anonymous": false,
      "inputs": [
        {
          "indexed": true,
          "internalType": "address",
          "name": "previousOwner",
          "type": "address"
        },
        {
          "indexed": true,
          "internalType": "address",
          "name": "newOwner",
          "type": "address"
        }
      ],
      "name": "OwnershipTransferred",
      "type": "event"
    },
    {
      "anonymous": false,
      "inputs": [
        {
          "indexed": true,
          "internalType": "address",
          "name": "account",
          "type": "address"
        },
        {
          "indexed": false,
          "internalType": "uint256",
          "name": "debtRepaid",
          "type": "uint256"
        },
        {
          "indexed": false,
          "internalType": "uint256",
          "name": "debtRemaining",
          "type": "uint256"
        },
        {
          "indexed": false,
          "internalType": "uint256",
          "name": "collateral",
          "type": "uint256"
        }
      ],
      "name": "Repay",
      "type": "event"
    },
    {
      "anonymous": false,
      "inputs": [
        {
          "indexed": true,
          "internalType": "address",
          "name": "account",
          "type": "address"
        },
        {
          "indexed": false,
          "internalType": "uint256",
          "name": "amount",
          "type": "uint256"
        }
      ],
      "name": "Withdraw",
      "type": "event"
    },
    {
      "inputs": [],
      "name": "SCALING_FACTOR",
      "outputs": [
        {
          "internalType": "uint256",
          "name": "",
          "type": "uint256"
        }
      ],
      "stateMutability": "view",
      "type": "function"
    },
    {
      "inputs": [
        {
          "internalType": "uint256",
          "name": "_amount",
          "type": "uint256"
        }
      ],
      "name": "borrow",
      "outputs": [],
      "stateMutability": "nonpayable",
      "type": "function"
    },
    {
      "inputs": [],
      "name": "borrowThreshold",
      "outputs": [
        {
          "internalType": "uint256",
          "name": "",
          "type": "uint256"
        }
      ],
      "stateMutability": "view",
      "type": "function"
    },
    {
      "inputs": [
        {
          "internalType": "uint256",
          "name": "_amount",
          "type": "uint256"
        }
      ],
      "name": "deposit",
      "outputs": [],
      "stateMutability": "nonpayable",
      "type": "function"
    },
    {
      "inputs": [],
      "name": "interestRate",
      "outputs": [
        {
          "internalType": "uint256",
          "name": "",
          "type": "uint256"
        }
      ],
      "stateMutability": "view",
      "type": "function"
    },
    {
      "inputs": [
        {
          "internalType": "address",
          "name": "_account",
          "type": "address"
        }
      ],
      "name": "liquidate",
      "outputs": [],
      "stateMutability": "nonpayable",
      "type": "function"
    },
    {
      "inputs": [],
      "name": "liquidationFee",
      "outputs": [
        {
          "internalType": "uint256",
          "name": "",
          "type": "uint256"
        }
      ],
      "stateMutability": "view",
      "type": "function"
    },
    {
      "inputs": [],
      "name": "liquidationThreshold",
      "outputs": [
        {
          "internalType": "uint256",
          "name": "",
          "type": "uint256"
        }
      ],
      "stateMutability": "view",
      "type": "function"
    },
    {
      "inputs": [],
      "name": "liquidatorFeeShare",
      "outputs": [
        {
          "internalType": "uint256",
          "name": "",
          "type": "uint256"
        }
      ],
      "stateMutability": "view",
      "type": "function"
    },
    {
      "inputs": [],
      "name": "owner",
      "outputs": [
        {
          "internalType": "address",
          "name": "",
          "type": "address"
        }
      ],
      "stateMutability": "view",
      "type": "function"
    },
    {
      "inputs": [],
      "name": "protocolShortfall",
      "outputs": [
        {
          "internalType": "uint256",
          "name": "",
          "type": "uint256"
        }
      ],
      "stateMutability": "view",
      "type": "function"
    },
    {
      "inputs": [],
      "name": "renounceOwnership",
      "outputs": [],
      "stateMutability": "nonpayable",
      "type": "function"
    },
    {
      "inputs": [
        {
          "internalType": "uint256",
          "name": "_amount",
          "type": "uint256"
        }
      ],
      "name": "repay",
      "outputs": [],
      "stateMutability": "nonpayable",
      "type": "function"
    },
    {
      "inputs": [
        {
          "internalType": "uint256",
          "name": "_liqTotalFee",
          "type": "uint256"
        },
        {
          "internalType": "uint256",
          "name": "_liqFeeShare",
          "type": "uint256"
        },
        {
          "internalType": "uint256",
          "name": "_interestRate",
          "type": "uint256"
        }
      ],
      "name": "setFeesAndRates",
      "outputs": [],
      "stateMutability": "nonpayable",
      "type": "function"
    },
    {
      "inputs": [
        {
          "internalType": "uint256",
          "name": "_borrowThreshold",
          "type": "uint256"
        },
        {
          "internalType": "uint256",
          "name": "_liqThreshold",
          "type": "uint256"
        }
      ],
      "name": "setThresholds",
      "outputs": [],
      "stateMutability": "nonpayable",
      "type": "function"
    },
    {
      "inputs": [
        {
          "internalType": "address",
          "name": "_newAddress",
          "type": "address"
        }
      ],
      "name": "setUSDZAddress",
      "outputs": [],
      "stateMutability": "nonpayable",
      "type": "function"
    },
    {
      "inputs": [
        {
          "internalType": "address",
          "name": "_newAddress",
          "type": "address"
        }
      ],
      "name": "setXSUSHIAddress",
      "outputs": [],
      "stateMutability": "nonpayable",
      "type": "function"
    },
    {
      "inputs": [
        {
          "internalType": "address",
          "name": "newOwner",
          "type": "address"
        }
      ],
      "name": "transferOwnership",
      "outputs": [],
      "stateMutability": "nonpayable",
      "type": "function"
    },
    {
      "inputs": [],
      "name": "usdzAddress",
      "outputs": [
        {
          "internalType": "address",
          "name": "",
          "type": "address"
        }
      ],
      "stateMutability": "view",
      "type": "function"
    },
    {
      "inputs": [
        {
          "internalType": "uint256",
          "name": "_amount",
          "type": "uint256"
        }
      ],
      "name": "withdraw",
      "outputs": [],
      "stateMutability": "nonpayable",
      "type": "function"
    },
    {
      "inputs": [],
      "name": "xSushiAddress",
      "outputs": [
        {
          "internalType": "address",
          "name": "",
          "type": "address"
        }
      ],
      "stateMutability": "view",
      "type": "function"
    }
  ],
  "bytecode": "0x6080604052612710600a553480156200001757600080fd5b5060405162001ad638038062001ad683398181016040528101906200003d9190620001d5565b60006200004f6200019f60201b60201c565b9050806000806101000a81548173ffffffffffffffffffffffffffffffffffffffff021916908373ffffffffffffffffffffffffffffffffffffffff1602179055508073ffffffffffffffffffffffffffffffffffffffff16600073ffffffffffffffffffffffffffffffffffffffff167f8be0079c531659141344cd1fd0a4f28419497f9722a3daafe3b4186f6b6457e060405160405180910390a35086600360006101000a81548173ffffffffffffffffffffffffffffffffffffffff021916908373ffffffffffffffffffffffffffffffffffffffff16021790555085600460006101000a81548173ffffffffffffffffffffffffffffffffffffffff021916908373ffffffffffffffffffffffffffffffffffffffff160217905550846005819055508360068190555082600781905550816008819055508060098190555050505050505050620002f4565b600033905090565b600081519050620001b881620002c0565b92915050565b600081519050620001cf81620002da565b92915050565b600080600080600080600060e0888a031215620001f157600080fd5b6000620002018a828b01620001a7565b9750506020620002148a828b01620001a7565b9650506040620002278a828b01620001be565b95505060606200023a8a828b01620001be565b94505060806200024d8a828b01620001be565b93505060a0620002608a828b01620001be565b92505060c0620002738a828b01620001be565b91505092959891949750929550565b60006200028f8262000296565b9050919050565b600073ffffffffffffffffffffffffffffffffffffffff82169050919050565b6000819050919050565b620002cb8162000282565b8114620002d757600080fd5b50565b620002e581620002b6565b8114620002f157600080fd5b50565b6117d280620003046000396000f3fe608060405234801561001057600080fd5b50600436106101375760003560e01c80638da5cb5b116100b8578063bdfccad31161007c578063bdfccad3146102de578063bfaf48d4146102fc578063c5ebeaec14610318578063e3064a7714610334578063ef4cadc514610350578063f2fde38b1461036e57610137565b80638da5cb5b1461024c5780638f6ba29a1461026a578063a36a363014610286578063af1f556f146102a4578063b6b55f25146102c257610137565b806354054808116100ff57806354054808146101cc5780635ae547e3146101ea578063715018a6146102085780637c3a00fd146102125780638456b7551461023057610137565b806320bdf8001461013c5780632e1a7d4d1461015a5780632f86556814610176578063371fd8e6146101925780634031234c146101ae575b600080fd5b61014461038a565b6040516101519190611240565b60405180910390f35b610174600480360381019061016f9190611001565b6103b0565b005b610190600480360381019061018b9190610faf565b610401565b005b6101ac60048036038101906101a79190611001565b61046f565b005b6101b66104c5565b6040516101c39190611409565b60405180910390f35b6101d46104cb565b6040516101e19190611409565b60405180910390f35b6101f26104d1565b6040516101ff9190611409565b60405180910390f35b6102106104d7565b005b61021a610611565b6040516102279190611409565b60405180910390f35b61024a60048036038101906102459190610faf565b610617565b005b610254610747565b6040516102619190611240565b60405180910390f35b610284600480360381019061027f9190610faf565b610770565b005b61028e6108a0565b60405161029b9190611409565b60405180910390f35b6102ac6108a6565b6040516102b99190611409565b60405180910390f35b6102dc60048036038101906102d79190611001565b6108ac565b005b6102e6610a8d565b6040516102f39190611240565b60405180910390f35b61031660048036038101906103119190611066565b610ab3565b005b610332600480360381019061032d9190611001565b610c4b565b005b61034e6004803603810190610349919061102a565b610ca1565b005b610358610db9565b6040516103659190611409565b60405180910390f35b61038860048036038101906103839190610faf565b610dbf565b005b600360009054906101000a900473ffffffffffffffffffffffffffffffffffffffff1681565b3373ffffffffffffffffffffffffffffffffffffffff167f884edad9ce6fa2440d8a54cc123490eb96d2768479d49ff9c7366125a9424364826040516103f69190611409565b60405180910390a250565b3373ffffffffffffffffffffffffffffffffffffffff168173ffffffffffffffffffffffffffffffffffffffff167f5a821a618ddb1a1fd304234a69c9d7f20c129d122fcf35593d13a07192664307600080600060405161046493929190611292565b60405180910390a350565b3373ffffffffffffffffffffffffffffffffffffffff167f2fe77b1c99aca6b022b8efc6e3e8dd1b48b30748709339b65c50ef3263443e09826000806040516104ba93929190611424565b60405180910390a250565b60095481565b60065481565b60085481565b6104df610f68565b73ffffffffffffffffffffffffffffffffffffffff166104fd610747565b73ffffffffffffffffffffffffffffffffffffffff1614610553576040517f08c379a000000000000000000000000000000000000000000000000000000000815260040161054a90611369565b60405180910390fd5b600073ffffffffffffffffffffffffffffffffffffffff1660008054906101000a900473ffffffffffffffffffffffffffffffffffffffff1673ffffffffffffffffffffffffffffffffffffffff167f8be0079c531659141344cd1fd0a4f28419497f9722a3daafe3b4186f6b6457e060405160405180910390a360008060006101000a81548173ffffffffffffffffffffffffffffffffffffffff021916908373ffffffffffffffffffffffffffffffffffffffff160217905550565b60075481565b61061f610f68565b73ffffffffffffffffffffffffffffffffffffffff1661063d610747565b73ffffffffffffffffffffffffffffffffffffffff1614610693576040517f08c379a000000000000000000000000000000000000000000000000000000000815260040161068a90611369565b60405180910390fd5b600073ffffffffffffffffffffffffffffffffffffffff168173ffffffffffffffffffffffffffffffffffffffff161415610703576040517f08c379a00000000000000000000000000000000000000000000000000000000081526004016106fa90611309565b60405180910390fd5b80600460006101000a81548173ffffffffffffffffffffffffffffffffffffffff021916908373ffffffffffffffffffffffffffffffffffffffff16021790555050565b60008060009054906101000a900473ffffffffffffffffffffffffffffffffffffffff16905090565b610778610f68565b73ffffffffffffffffffffffffffffffffffffffff16610796610747565b73ffffffffffffffffffffffffffffffffffffffff16146107ec576040517f08c379a00000000000000000000000000000000000000000000000000000000081526004016107e390611369565b60405180910390fd5b600073ffffffffffffffffffffffffffffffffffffffff168173ffffffffffffffffffffffffffffffffffffffff16141561085c576040517f08c379a000000000000000000000000000000000000000000000000000000000815260040161085390611349565b60405180910390fd5b80600360006101000a81548173ffffffffffffffffffffffffffffffffffffffff021916908373ffffffffffffffffffffffffffffffffffffffff16021790555050565b60055481565b60025481565b6000600460009054906101000a900473ffffffffffffffffffffffffffffffffffffffff1690508073ffffffffffffffffffffffffffffffffffffffff166323b872dd3330856040518463ffffffff1660e01b81526004016109109392919061125b565b602060405180830381600087803b15801561092a57600080fd5b505af115801561093e573d6000803e3d6000fd5b505050506040513d601f19601f820116820180604052508101906109629190610fd8565b6109a1576040517f08c379a0000000000000000000000000000000000000000000000000000000008152600401610998906113a9565b60405180910390fd5b6000600160003373ffffffffffffffffffffffffffffffffffffffff1673ffffffffffffffffffffffffffffffffffffffff16815260200190815260200160002060000154905082816109f4919061146c565b600160003373ffffffffffffffffffffffffffffffffffffffff1673ffffffffffffffffffffffffffffffffffffffff168152602001908152602001600020600001819055503373ffffffffffffffffffffffffffffffffffffffff167fe1fffcc4923d04b559f4d29a8bfc6cda04eb5b0d3c460751c2402c5c5cc9109c84604051610a809190611409565b60405180910390a2505050565b600460009054906101000a900473ffffffffffffffffffffffffffffffffffffffff1681565b610abb610f68565b73ffffffffffffffffffffffffffffffffffffffff16610ad9610747565b73ffffffffffffffffffffffffffffffffffffffff1614610b2f576040517f08c379a0000000000000000000000000000000000000000000000000000000008152600401610b2690611369565b60405180910390fd5b600a548311158015610b42575060008310155b610b81576040517f08c379a0000000000000000000000000000000000000000000000000000000008152600401610b7890611389565b60405180910390fd5b600a548211158015610b94575060008210155b8015610ba05750828211155b610bdf576040517f08c379a0000000000000000000000000000000000000000000000000000000008152600401610bd6906112e9565b60405180910390fd5b8260058190555081600681905550600a548111158015610c00575060008110155b610c3f576040517f08c379a0000000000000000000000000000000000000000000000000000000008152600401610c36906113c9565b60405180910390fd5b80600781905550505050565b3373ffffffffffffffffffffffffffffffffffffffff167f13ed6866d4e1ee6da46f845c46d7e54120883d75c5ea9a2dacc1c4ca8984ab8082600080604051610c9693929190611424565b60405180910390a250565b610ca9610f68565b73ffffffffffffffffffffffffffffffffffffffff16610cc7610747565b73ffffffffffffffffffffffffffffffffffffffff1614610d1d576040517f08c379a0000000000000000000000000000000000000000000000000000000008152600401610d1490611369565b60405180910390fd5b600a54821015610d62576040517f08c379a0000000000000000000000000000000000000000000000000000000008152600401610d5990611329565b60405180910390fd5b600a54811015610da7576040517f08c379a0000000000000000000000000000000000000000000000000000000008152600401610d9e906113e9565b60405180910390fd5b81600881905550806009819055505050565b600a5481565b610dc7610f68565b73ffffffffffffffffffffffffffffffffffffffff16610de5610747565b73ffffffffffffffffffffffffffffffffffffffff1614610e3b576040517f08c379a0000000000000000000000000000000000000000000000000000000008152600401610e3290611369565b60405180910390fd5b600073ffffffffffffffffffffffffffffffffffffffff168173ffffffffffffffffffffffffffffffffffffffff161415610eab576040517f08c379a0000000000000000000000000000000000000000000000000000000008152600401610ea2906112c9565b60405180910390fd5b8073ffffffffffffffffffffffffffffffffffffffff1660008054906101000a900473ffffffffffffffffffffffffffffffffffffffff1673ffffffffffffffffffffffffffffffffffffffff167f8be0079c531659141344cd1fd0a4f28419497f9722a3daafe3b4186f6b6457e060405160405180910390a3806000806101000a81548173ffffffffffffffffffffffffffffffffffffffff021916908373ffffffffffffffffffffffffffffffffffffffff16021790555050565b600033905090565b600081359050610f7f81611757565b92915050565b600081519050610f948161176e565b92915050565b600081359050610fa981611785565b92915050565b600060208284031215610fc157600080fd5b6000610fcf84828501610f70565b91505092915050565b600060208284031215610fea57600080fd5b6000610ff884828501610f85565b91505092915050565b60006020828403121561101357600080fd5b600061102184828501610f9a565b91505092915050565b6000806040838503121561103d57600080fd5b600061104b85828601610f9a565b925050602061105c85828601610f9a565b9150509250929050565b60008060006060848603121561107b57600080fd5b600061108986828701610f9a565b935050602061109a86828701610f9a565b92505060406110ab86828701610f9a565b9150509250925092565b6110be816114c2565b82525050565b6110cd8161150a565b82525050565b60006110e060268361145b565b91506110eb8261154b565b604082019050919050565b600061110360188361145b565b915061110e8261159a565b602082019050919050565b600061112660208361145b565b9150611131826115c3565b602082019050919050565b600061114960298361145b565b9150611154826115ec565b604082019050919050565b600061116c601e8361145b565b91506111778261163b565b602082019050919050565b600061118f60208361145b565b915061119a82611664565b602082019050919050565b60006111b260188361145b565b91506111bd8261168d565b602082019050919050565b60006111d5600e8361145b565b91506111e0826116b6565b602082019050919050565b60006111f860198361145b565b9150611203826116df565b602082019050919050565b600061121b60268361145b565b915061122682611708565b604082019050919050565b61123a81611500565b82525050565b600060208201905061125560008301846110b5565b92915050565b600060608201905061127060008301866110b5565b61127d60208301856110b5565b61128a6040830184611231565b949350505050565b60006060820190506112a760008301866110c4565b6112b460208301856110c4565b6112c160408301846110c4565b949350505050565b600060208201905081810360008301526112e2816110d3565b9050919050565b60006020820190508181036000830152611302816110f6565b9050919050565b6000602082019050818103600083015261132281611119565b9050919050565b600060208201905081810360008301526113428161113c565b9050919050565b600060208201905081810360008301526113628161115f565b9050919050565b6000602082019050818103600083015261138281611182565b9050919050565b600060208201905081810360008301526113a2816111a5565b9050919050565b600060208201905081810360008301526113c2816111c8565b9050919050565b600060208201905081810360008301526113e2816111eb565b9050919050565b600060208201905081810360008301526114028161120e565b9050919050565b600060208201905061141e6000830184611231565b92915050565b60006060820190506114396000830186611231565b61144660208301856110c4565b61145360408301846110c4565b949350505050565b600082825260208201905092915050565b600061147782611500565b915061148283611500565b9250827fffffffffffffffffffffffffffffffffffffffffffffffffffffffffffffffff038211156114b7576114b661151c565b5b828201905092915050565b60006114cd826114e0565b9050919050565b60008115159050919050565b600073ffffffffffffffffffffffffffffffffffffffff82169050919050565b6000819050919050565b600061151582611500565b9050919050565b7f4e487b7100000000000000000000000000000000000000000000000000000000600052601160045260246000fd5b7f4f776e61626c653a206e6577206f776e657220697320746865207a65726f206160008201527f6464726573730000000000000000000000000000000000000000000000000000602082015250565b7f6c69714665655368617265206f7574206f662072616e67650000000000000000600082015250565b7f78535553484920636f6e7472616374206e6f74207a65726f2061646472657373600082015250565b7f626f72726f77207468726573686f6c64206d757374206265203e207363616c6960008201527f6e6720666163746f720000000000000000000000000000000000000000000000602082015250565b7f7573647a20636f6e7472616374206e6f74207a65726f20616464726573730000600082015250565b7f4f776e61626c653a2063616c6c6572206973206e6f7420746865206f776e6572600082015250565b7f6c6971546f74616c466565206f7574206f662072616e67650000000000000000600082015250565b7f6465706f736974206661696c6564000000000000000000000000000000000000600082015250565b7f696e74657265737452617465206f7574206f662072616e676500000000000000600082015250565b7f6c6971207468726573686f6c64206d757374206265203e207363616c696e672060008201527f666163746f720000000000000000000000000000000000000000000000000000602082015250565b611760816114c2565b811461176b57600080fd5b50565b611777816114d4565b811461178257600080fd5b50565b61178e81611500565b811461179957600080fd5b5056fea26469706673582212203081f80064b206d6a525cdf481eb470f29486b279ac62159b9133e1e4bcca9fe64736f6c63430008040033",
  "linkReferences": {},
  "deployedLinkReferences": {}
}