{
  "_format": "hh-sol-artifact-1",
  "contractName": "Controller",
  "sourceName": "contracts/Controller.sol",
  "abi": [
    {
      "inputs": [
        {
          "internalType": "address",
          "name": "_usdzAddress",
          "type": "address"
        },
        {
          "internalType": "address",
          "name": "_xSushiAddress",
          "type": "address"
        },
        {
          "internalType": "address",
          "name": "_routerAddress",
          "type": "address"
        },
        {
          "internalType": "uint256",
          "name": "_liqTotalFee",
          "type": "uint256"
        },
        {
          "internalType": "uint256",
          "name": "_liqFeeShare",
          "type": "uint256"
        },
        {
          "internalType": "uint256",
          "name": "_interestRate",
          "type": "uint256"
        },
        {
          "internalType": "uint256",
          "name": "_borrowThreshold",
          "type": "uint256"
        },
        {
          "internalType": "uint256",
          "name": "_liqThreshold",
          "type": "uint256"
        }
      ],
      "stateMutability": "nonpayable",
      "type": "constructor"
    },
    {
      "anonymous": false,
      "inputs": [
        {
          "indexed": true,
          "internalType": "address",
          "name": "account",
          "type": "address"
        },
        {
          "indexed": false,
          "internalType": "uint256",
          "name": "amountBorrowed",
          "type": "uint256"
        },
        {
          "indexed": false,
          "internalType": "uint256",
          "name": "collateral",
          "type": "uint256"
        },
        {
          "indexed": false,
          "internalType": "uint256",
          "name": "totalDebt",
          "type": "uint256"
        }
      ],
      "name": "Borrow",
      "type": "event"
    },
    {
      "anonymous": false,
      "inputs": [
        {
          "indexed": true,
          "internalType": "address",
          "name": "account",
          "type": "address"
        },
        {
          "indexed": false,
          "internalType": "uint256",
          "name": "amount",
          "type": "uint256"
        }
      ],
      "name": "Deposit",
      "type": "event"
    },
    {
      "anonymous": false,
      "inputs": [
        {
          "indexed": true,
          "internalType": "address",
          "name": "account",
          "type": "address"
        },
        {
          "indexed": true,
          "internalType": "address",
          "name": "liquidator",
          "type": "address"
        },
        {
          "indexed": false,
          "internalType": "uint256",
          "name": "collateralLiquidated",
          "type": "uint256"
        },
        {
          "indexed": false,
          "internalType": "uint256",
          "name": "lastCollateralRatio",
          "type": "uint256"
        },
        {
          "indexed": false,
          "internalType": "uint256",
          "name": "lastDebtOutstanding",
          "type": "uint256"
        }
      ],
      "name": "Liquidation",
      "type": "event"
    },
    {
      "anonymous": false,
      "inputs": [
        {
          "indexed": true,
          "internalType": "address",
          "name": "previousOwner",
          "type": "address"
        },
        {
          "indexed": true,
          "internalType": "address",
          "name": "newOwner",
          "type": "address"
        }
      ],
      "name": "OwnershipTransferred",
      "type": "event"
    },
    {
      "anonymous": false,
      "inputs": [
        {
          "indexed": true,
          "internalType": "address",
          "name": "account",
          "type": "address"
        },
        {
          "indexed": false,
          "internalType": "uint256",
          "name": "debtRepaid",
          "type": "uint256"
        },
        {
          "indexed": false,
          "internalType": "uint256",
          "name": "debtRemaining",
          "type": "uint256"
        },
        {
          "indexed": false,
          "internalType": "uint256",
          "name": "collateral",
          "type": "uint256"
        }
      ],
      "name": "Repay",
      "type": "event"
    },
    {
      "anonymous": false,
      "inputs": [
        {
          "indexed": true,
          "internalType": "address",
          "name": "account",
          "type": "address"
        },
        {
          "indexed": false,
          "internalType": "uint256",
          "name": "amount",
          "type": "uint256"
        }
      ],
      "name": "Withdraw",
      "type": "event"
    },
    {
      "inputs": [],
      "name": "SCALING_FACTOR",
      "outputs": [
        {
          "internalType": "uint256",
          "name": "",
          "type": "uint256"
        }
      ],
      "stateMutability": "view",
      "type": "function"
    },
    {
      "inputs": [],
      "name": "SushiRouterAddress",
      "outputs": [
        {
          "internalType": "address",
          "name": "",
          "type": "address"
        }
      ],
      "stateMutability": "view",
      "type": "function"
    },
    {
      "inputs": [
        {
          "internalType": "uint256",
          "name": "_amount",
          "type": "uint256"
        }
      ],
      "name": "borrow",
      "outputs": [],
      "stateMutability": "nonpayable",
      "type": "function"
    },
    {
      "inputs": [],
      "name": "borrowThreshold",
      "outputs": [
        {
          "internalType": "uint256",
          "name": "",
          "type": "uint256"
        }
      ],
      "stateMutability": "view",
      "type": "function"
    },
    {
      "inputs": [
        {
          "internalType": "uint256",
          "name": "_amount",
          "type": "uint256"
        }
      ],
      "name": "deposit",
      "outputs": [],
      "stateMutability": "nonpayable",
      "type": "function"
    },
    {
      "inputs": [],
      "name": "interestRate",
      "outputs": [
        {
          "internalType": "uint256",
          "name": "",
          "type": "uint256"
        }
      ],
      "stateMutability": "view",
      "type": "function"
    },
    {
      "inputs": [
        {
          "internalType": "address",
          "name": "_account",
          "type": "address"
        }
      ],
      "name": "liquidate",
      "outputs": [],
      "stateMutability": "nonpayable",
      "type": "function"
    },
    {
      "inputs": [],
      "name": "liquidationFee",
      "outputs": [
        {
          "internalType": "uint256",
          "name": "",
          "type": "uint256"
        }
      ],
      "stateMutability": "view",
      "type": "function"
    },
    {
      "inputs": [],
      "name": "liquidationThreshold",
      "outputs": [
        {
          "internalType": "uint256",
          "name": "",
          "type": "uint256"
        }
      ],
      "stateMutability": "view",
      "type": "function"
    },
    {
      "inputs": [],
      "name": "liquidatorFeeShare",
      "outputs": [
        {
          "internalType": "uint256",
          "name": "",
          "type": "uint256"
        }
      ],
      "stateMutability": "view",
      "type": "function"
    },
    {
      "inputs": [],
      "name": "owner",
      "outputs": [
        {
          "internalType": "address",
          "name": "",
          "type": "address"
        }
      ],
      "stateMutability": "view",
      "type": "function"
    },
    {
      "inputs": [],
      "name": "protocolShortfall",
      "outputs": [
        {
          "internalType": "uint256",
          "name": "",
          "type": "uint256"
        }
      ],
      "stateMutability": "view",
      "type": "function"
    },
    {
      "inputs": [],
      "name": "renounceOwnership",
      "outputs": [],
      "stateMutability": "nonpayable",
      "type": "function"
    },
    {
      "inputs": [
        {
          "internalType": "uint256",
          "name": "_amount",
          "type": "uint256"
        }
      ],
      "name": "repay",
      "outputs": [],
      "stateMutability": "nonpayable",
      "type": "function"
    },
    {
      "inputs": [
        {
          "internalType": "uint256",
          "name": "_liqTotalFee",
          "type": "uint256"
        },
        {
          "internalType": "uint256",
          "name": "_liqFeeShare",
          "type": "uint256"
        },
        {
          "internalType": "uint256",
          "name": "_interestRate",
          "type": "uint256"
        }
      ],
      "name": "setFeesAndRates",
      "outputs": [],
      "stateMutability": "nonpayable",
      "type": "function"
    },
    {
      "inputs": [
        {
          "internalType": "uint256",
          "name": "_borrowThreshold",
          "type": "uint256"
        },
        {
          "internalType": "uint256",
          "name": "_liqThreshold",
          "type": "uint256"
        }
      ],
      "name": "setThresholds",
      "outputs": [],
      "stateMutability": "nonpayable",
      "type": "function"
    },
    {
      "inputs": [
        {
          "internalType": "address",
          "name": "_newAddress",
          "type": "address"
        }
      ],
      "name": "setUSDZAddress",
      "outputs": [],
      "stateMutability": "nonpayable",
      "type": "function"
    },
    {
      "inputs": [
        {
          "internalType": "address",
          "name": "_newAddress",
          "type": "address"
        }
      ],
      "name": "setXSUSHIAddress",
      "outputs": [],
      "stateMutability": "nonpayable",
      "type": "function"
    },
    {
      "inputs": [
        {
          "internalType": "address",
          "name": "newOwner",
          "type": "address"
        }
      ],
      "name": "transferOwnership",
      "outputs": [],
      "stateMutability": "nonpayable",
      "type": "function"
    },
    {
      "inputs": [],
      "name": "usdzAddress",
      "outputs": [
        {
          "internalType": "address",
          "name": "",
          "type": "address"
        }
      ],
      "stateMutability": "view",
      "type": "function"
    },
    {
      "inputs": [
        {
          "internalType": "uint256",
          "name": "_amount",
          "type": "uint256"
        }
      ],
      "name": "withdraw",
      "outputs": [],
      "stateMutability": "nonpayable",
      "type": "function"
    },
    {
      "inputs": [],
      "name": "xSushiAddress",
      "outputs": [
        {
          "internalType": "address",
          "name": "",
          "type": "address"
        }
      ],
      "stateMutability": "view",
      "type": "function"
    }
  ],
  "bytecode": "0x6080604052612710600b553480156200001757600080fd5b5060405162001c9638038062001c9683398181016040528101906200003d919062000217565b60006200004f620001e160201b60201c565b9050806000806101000a81548173ffffffffffffffffffffffffffffffffffffffff021916908373ffffffffffffffffffffffffffffffffffffffff1602179055508073ffffffffffffffffffffffffffffffffffffffff16600073ffffffffffffffffffffffffffffffffffffffff167f8be0079c531659141344cd1fd0a4f28419497f9722a3daafe3b4186f6b6457e060405160405180910390a35087600360006101000a81548173ffffffffffffffffffffffffffffffffffffffff021916908373ffffffffffffffffffffffffffffffffffffffff16021790555086600460006101000a81548173ffffffffffffffffffffffffffffffffffffffff021916908373ffffffffffffffffffffffffffffffffffffffff16021790555085600560006101000a81548173ffffffffffffffffffffffffffffffffffffffff021916908373ffffffffffffffffffffffffffffffffffffffff1602179055508460068190555083600781905550826008819055508160098190555080600a8190555050505050505050506200034c565b600033905090565b600081519050620001fa8162000318565b92915050565b600081519050620002118162000332565b92915050565b600080600080600080600080610100898b0312156200023557600080fd5b6000620002458b828c01620001e9565b9850506020620002588b828c01620001e9565b97505060406200026b8b828c01620001e9565b96505060606200027e8b828c0162000200565b9550506080620002918b828c0162000200565b94505060a0620002a48b828c0162000200565b93505060c0620002b78b828c0162000200565b92505060e0620002ca8b828c0162000200565b9150509295985092959890939650565b6000620002e782620002ee565b9050919050565b600073ffffffffffffffffffffffffffffffffffffffff82169050919050565b6000819050919050565b6200032381620002da565b81146200032f57600080fd5b50565b6200033d816200030e565b81146200034957600080fd5b50565b61193a806200035c6000396000f3fe608060405234801561001057600080fd5b50600436106101425760003560e01c80638da5cb5b116100b8578063bdfccad31161007c578063bdfccad314610307578063bfaf48d414610325578063c5ebeaec14610341578063e3064a771461035d578063ef4cadc514610379578063f2fde38b1461039757610142565b80638da5cb5b146102755780638f6ba29a14610293578063a36a3630146102af578063af1f556f146102cd578063b6b55f25146102eb57610142565b80634031234c1161010a5780634031234c146101d757806354054808146101f55780635ae547e314610213578063715018a6146102315780637c3a00fd1461023b5780638456b7551461025957610142565b80630b1735191461014757806320bdf800146101655780632e1a7d4d146101835780632f8655681461019f578063371fd8e6146101bb575b600080fd5b61014f6103b3565b60405161015c919061135f565b60405180910390f35b61016d6103d9565b60405161017a919061135f565b60405180910390f35b61019d600480360381019061019891906110fd565b6103ff565b005b6101b960048036038101906101b491906110ab565b6104fd565b005b6101d560048036038101906101d091906110fd565b61056b565b005b6101df6105c1565b6040516101ec9190611548565b60405180910390f35b6101fd6105c7565b60405161020a9190611548565b60405180910390f35b61021b6105cd565b6040516102289190611548565b60405180910390f35b6102396105d3565b005b61024361070d565b6040516102509190611548565b60405180910390f35b610273600480360381019061026e91906110ab565b610713565b005b61027d610843565b60405161028a919061135f565b60405180910390f35b6102ad60048036038101906102a891906110ab565b61086c565b005b6102b761099c565b6040516102c49190611548565b60405180910390f35b6102d56109a2565b6040516102e29190611548565b60405180910390f35b610305600480360381019061030091906110fd565b6109a8565b005b61030f610b89565b60405161031c919061135f565b60405180910390f35b61033f600480360381019061033a9190611162565b610baf565b005b61035b600480360381019061035691906110fd565b610d47565b005b61037760048036038101906103729190611126565b610d9d565b005b610381610eb5565b60405161038e9190611548565b60405180910390f35b6103b160048036038101906103ac91906110ab565b610ebb565b005b600560009054906101000a900473ffffffffffffffffffffffffffffffffffffffff1681565b600360009054906101000a900473ffffffffffffffffffffffffffffffffffffffff1681565b80600160003373ffffffffffffffffffffffffffffffffffffffff1673ffffffffffffffffffffffffffffffffffffffff168152602001908152602001600020600001541015610484576040517f08c379a000000000000000000000000000000000000000000000000000000000815260040161047b90611528565b60405180910390fd5b6000600560009054906101000a900473ffffffffffffffffffffffffffffffffffffffff1690503373ffffffffffffffffffffffffffffffffffffffff167f884edad9ce6fa2440d8a54cc123490eb96d2768479d49ff9c7366125a9424364836040516104f19190611548565b60405180910390a25050565b3373ffffffffffffffffffffffffffffffffffffffff168173ffffffffffffffffffffffffffffffffffffffff167f5a821a618ddb1a1fd304234a69c9d7f20c129d122fcf35593d13a071926643076000806000604051610560939291906113b1565b60405180910390a350565b3373ffffffffffffffffffffffffffffffffffffffff167f2fe77b1c99aca6b022b8efc6e3e8dd1b48b30748709339b65c50ef3263443e09826000806040516105b693929190611563565b60405180910390a250565b600a5481565b60075481565b60095481565b6105db611064565b73ffffffffffffffffffffffffffffffffffffffff166105f9610843565b73ffffffffffffffffffffffffffffffffffffffff161461064f576040517f08c379a000000000000000000000000000000000000000000000000000000000815260040161064690611488565b60405180910390fd5b600073ffffffffffffffffffffffffffffffffffffffff1660008054906101000a900473ffffffffffffffffffffffffffffffffffffffff1673ffffffffffffffffffffffffffffffffffffffff167f8be0079c531659141344cd1fd0a4f28419497f9722a3daafe3b4186f6b6457e060405160405180910390a360008060006101000a81548173ffffffffffffffffffffffffffffffffffffffff021916908373ffffffffffffffffffffffffffffffffffffffff160217905550565b60085481565b61071b611064565b73ffffffffffffffffffffffffffffffffffffffff16610739610843565b73ffffffffffffffffffffffffffffffffffffffff161461078f576040517f08c379a000000000000000000000000000000000000000000000000000000000815260040161078690611488565b60405180910390fd5b600073ffffffffffffffffffffffffffffffffffffffff168173ffffffffffffffffffffffffffffffffffffffff1614156107ff576040517f08c379a00000000000000000000000000000000000000000000000000000000081526004016107f690611428565b60405180910390fd5b80600460006101000a81548173ffffffffffffffffffffffffffffffffffffffff021916908373ffffffffffffffffffffffffffffffffffffffff16021790555050565b60008060009054906101000a900473ffffffffffffffffffffffffffffffffffffffff16905090565b610874611064565b73ffffffffffffffffffffffffffffffffffffffff16610892610843565b73ffffffffffffffffffffffffffffffffffffffff16146108e8576040517f08c379a00000000000000000000000000000000000000000000000000000000081526004016108df90611488565b60405180910390fd5b600073ffffffffffffffffffffffffffffffffffffffff168173ffffffffffffffffffffffffffffffffffffffff161415610958576040517f08c379a000000000000000000000000000000000000000000000000000000000815260040161094f90611468565b60405180910390fd5b80600360006101000a81548173ffffffffffffffffffffffffffffffffffffffff021916908373ffffffffffffffffffffffffffffffffffffffff16021790555050565b60065481565b60025481565b6000600460009054906101000a900473ffffffffffffffffffffffffffffffffffffffff1690508073ffffffffffffffffffffffffffffffffffffffff166323b872dd3330856040518463ffffffff1660e01b8152600401610a0c9392919061137a565b602060405180830381600087803b158015610a2657600080fd5b505af1158015610a3a573d6000803e3d6000fd5b505050506040513d601f19601f82011682018060405250810190610a5e91906110d4565b610a9d576040517f08c379a0000000000000000000000000000000000000000000000000000000008152600401610a94906114c8565b60405180910390fd5b6000600160003373ffffffffffffffffffffffffffffffffffffffff1673ffffffffffffffffffffffffffffffffffffffff1681526020019081526020016000206000015490508281610af091906115ab565b600160003373ffffffffffffffffffffffffffffffffffffffff1673ffffffffffffffffffffffffffffffffffffffff168152602001908152602001600020600001819055503373ffffffffffffffffffffffffffffffffffffffff167fe1fffcc4923d04b559f4d29a8bfc6cda04eb5b0d3c460751c2402c5c5cc9109c84604051610b7c9190611548565b60405180910390a2505050565b600460009054906101000a900473ffffffffffffffffffffffffffffffffffffffff1681565b610bb7611064565b73ffffffffffffffffffffffffffffffffffffffff16610bd5610843565b73ffffffffffffffffffffffffffffffffffffffff1614610c2b576040517f08c379a0000000000000000000000000000000000000000000000000000000008152600401610c2290611488565b60405180910390fd5b600b548311158015610c3e575060008310155b610c7d576040517f08c379a0000000000000000000000000000000000000000000000000000000008152600401610c74906114a8565b60405180910390fd5b600b548211158015610c90575060008210155b8015610c9c5750828211155b610cdb576040517f08c379a0000000000000000000000000000000000000000000000000000000008152600401610cd290611408565b60405180910390fd5b8260068190555081600781905550600b548111158015610cfc575060008110155b610d3b576040517f08c379a0000000000000000000000000000000000000000000000000000000008152600401610d32906114e8565b60405180910390fd5b80600881905550505050565b3373ffffffffffffffffffffffffffffffffffffffff167f13ed6866d4e1ee6da46f845c46d7e54120883d75c5ea9a2dacc1c4ca8984ab8082600080604051610d9293929190611563565b60405180910390a250565b610da5611064565b73ffffffffffffffffffffffffffffffffffffffff16610dc3610843565b73ffffffffffffffffffffffffffffffffffffffff1614610e19576040517f08c379a0000000000000000000000000000000000000000000000000000000008152600401610e1090611488565b60405180910390fd5b600b54821015610e5e576040517f08c379a0000000000000000000000000000000000000000000000000000000008152600401610e5590611448565b60405180910390fd5b600b54811015610ea3576040517f08c379a0000000000000000000000000000000000000000000000000000000008152600401610e9a90611508565b60405180910390fd5b8160098190555080600a819055505050565b600b5481565b610ec3611064565b73ffffffffffffffffffffffffffffffffffffffff16610ee1610843565b73ffffffffffffffffffffffffffffffffffffffff1614610f37576040517f08c379a0000000000000000000000000000000000000000000000000000000008152600401610f2e90611488565b60405180910390fd5b600073ffffffffffffffffffffffffffffffffffffffff168173ffffffffffffffffffffffffffffffffffffffff161415610fa7576040517f08c379a0000000000000000000000000000000000000000000000000000000008152600401610f9e906113e8565b60405180910390fd5b8073ffffffffffffffffffffffffffffffffffffffff1660008054906101000a900473ffffffffffffffffffffffffffffffffffffffff1673ffffffffffffffffffffffffffffffffffffffff167f8be0079c531659141344cd1fd0a4f28419497f9722a3daafe3b4186f6b6457e060405160405180910390a3806000806101000a81548173ffffffffffffffffffffffffffffffffffffffff021916908373ffffffffffffffffffffffffffffffffffffffff16021790555050565b600033905090565b60008135905061107b816118bf565b92915050565b600081519050611090816118d6565b92915050565b6000813590506110a5816118ed565b92915050565b6000602082840312156110bd57600080fd5b60006110cb8482850161106c565b91505092915050565b6000602082840312156110e657600080fd5b60006110f484828501611081565b91505092915050565b60006020828403121561110f57600080fd5b600061111d84828501611096565b91505092915050565b6000806040838503121561113957600080fd5b600061114785828601611096565b925050602061115885828601611096565b9150509250929050565b60008060006060848603121561117757600080fd5b600061118586828701611096565b935050602061119686828701611096565b92505060406111a786828701611096565b9150509250925092565b6111ba81611601565b82525050565b6111c981611649565b82525050565b60006111dc60268361159a565b91506111e78261168a565b604082019050919050565b60006111ff60188361159a565b915061120a826116d9565b602082019050919050565b600061122260208361159a565b915061122d82611702565b602082019050919050565b600061124560298361159a565b91506112508261172b565b604082019050919050565b6000611268601e8361159a565b91506112738261177a565b602082019050919050565b600061128b60208361159a565b9150611296826117a3565b602082019050919050565b60006112ae60188361159a565b91506112b9826117cc565b602082019050919050565b60006112d1600e8361159a565b91506112dc826117f5565b602082019050919050565b60006112f460198361159a565b91506112ff8261181e565b602082019050919050565b600061131760268361159a565b915061132282611847565b604082019050919050565b600061133a60208361159a565b915061134582611896565b602082019050919050565b6113598161163f565b82525050565b600060208201905061137460008301846111b1565b92915050565b600060608201905061138f60008301866111b1565b61139c60208301856111b1565b6113a96040830184611350565b949350505050565b60006060820190506113c660008301866111c0565b6113d360208301856111c0565b6113e060408301846111c0565b949350505050565b60006020820190508181036000830152611401816111cf565b9050919050565b60006020820190508181036000830152611421816111f2565b9050919050565b6000602082019050818103600083015261144181611215565b9050919050565b6000602082019050818103600083015261146181611238565b9050919050565b600060208201905081810360008301526114818161125b565b9050919050565b600060208201905081810360008301526114a18161127e565b9050919050565b600060208201905081810360008301526114c1816112a1565b9050919050565b600060208201905081810360008301526114e1816112c4565b9050919050565b60006020820190508181036000830152611501816112e7565b9050919050565b600060208201905081810360008301526115218161130a565b9050919050565b600060208201905081810360008301526115418161132d565b9050919050565b600060208201905061155d6000830184611350565b92915050565b60006060820190506115786000830186611350565b61158560208301856111c0565b61159260408301846111c0565b949350505050565b600082825260208201905092915050565b60006115b68261163f565b91506115c18361163f565b9250827fffffffffffffffffffffffffffffffffffffffffffffffffffffffffffffffff038211156115f6576115f561165b565b5b828201905092915050565b600061160c8261161f565b9050919050565b60008115159050919050565b600073ffffffffffffffffffffffffffffffffffffffff82169050919050565b6000819050919050565b60006116548261163f565b9050919050565b7f4e487b7100000000000000000000000000000000000000000000000000000000600052601160045260246000fd5b7f4f776e61626c653a206e6577206f776e657220697320746865207a65726f206160008201527f6464726573730000000000000000000000000000000000000000000000000000602082015250565b7f6c69714665655368617265206f7574206f662072616e67650000000000000000600082015250565b7f78535553484920636f6e7472616374206e6f74207a65726f2061646472657373600082015250565b7f626f72726f77207468726573686f6c64206d757374206265203e207363616c6960008201527f6e6720666163746f720000000000000000000000000000000000000000000000602082015250565b7f7573647a20636f6e7472616374206e6f74207a65726f20616464726573730000600082015250565b7f4f776e61626c653a2063616c6c6572206973206e6f7420746865206f776e6572600082015250565b7f6c6971546f74616c466565206f7574206f662072616e67650000000000000000600082015250565b7f6465706f736974206661696c6564000000000000000000000000000000000000600082015250565b7f696e74657265737452617465206f7574206f662072616e676500000000000000600082015250565b7f6c6971207468726573686f6c64206d757374206265203e207363616c696e672060008201527f666163746f720000000000000000000000000000000000000000000000000000602082015250565b7f6e6f7420656e6f75676820636f6c6c61746572616c20696e206163636f756e74600082015250565b6118c881611601565b81146118d357600080fd5b50565b6118df81611613565b81146118ea57600080fd5b50565b6118f68161163f565b811461190157600080fd5b5056fea26469706673582212202349a692723d221dd1d26a8a35219085982fab5c196b9f371bffd9db2fa3b59864736f6c63430008040033",
  "linkReferences": {},
  "deployedLinkReferences": {}
}