{
  "_format": "hh-sol-artifact-1",
  "contractName": "Controller",
  "sourceName": "contracts/Controller.sol",
  "abi": [
    {
      "inputs": [
        {
          "internalType": "address",
          "name": "_usdzAddress",
          "type": "address"
        },
        {
          "internalType": "address",
          "name": "_usdcAddress",
          "type": "address"
        },
        {
          "internalType": "address",
          "name": "_xSushiAddress",
          "type": "address"
        },
        {
          "internalType": "address",
          "name": "_routerAddress",
          "type": "address"
        },
        {
          "internalType": "address[]",
          "name": "_swapPath",
          "type": "address[]"
        },
        {
          "internalType": "uint256",
          "name": "_liqTotalFee",
          "type": "uint256"
        },
        {
          "internalType": "uint256",
          "name": "_liqFeeShare",
          "type": "uint256"
        },
        {
          "internalType": "uint256",
          "name": "_interestRate",
          "type": "uint256"
        },
        {
          "internalType": "uint256",
          "name": "_borrowThreshold",
          "type": "uint256"
        },
        {
          "internalType": "uint256",
          "name": "_liqThreshold",
          "type": "uint256"
        }
      ],
      "stateMutability": "nonpayable",
      "type": "constructor"
    },
    {
      "anonymous": false,
      "inputs": [
        {
          "indexed": true,
          "internalType": "address",
          "name": "account",
          "type": "address"
        },
        {
          "indexed": false,
          "internalType": "uint256",
          "name": "amountBorrowed",
          "type": "uint256"
        },
        {
          "indexed": false,
          "internalType": "uint256",
          "name": "totalDebt",
          "type": "uint256"
        },
        {
          "indexed": false,
          "internalType": "uint256",
          "name": "collateralAmount",
          "type": "uint256"
        }
      ],
      "name": "Borrow",
      "type": "event"
    },
    {
      "anonymous": false,
      "inputs": [
        {
          "indexed": true,
          "internalType": "address",
          "name": "account",
          "type": "address"
        },
        {
          "indexed": false,
          "internalType": "uint256",
          "name": "amount",
          "type": "uint256"
        }
      ],
      "name": "Deposit",
      "type": "event"
    },
    {
      "anonymous": false,
      "inputs": [
        {
          "indexed": true,
          "internalType": "address",
          "name": "account",
          "type": "address"
        },
        {
          "indexed": true,
          "internalType": "address",
          "name": "liquidator",
          "type": "address"
        },
        {
          "indexed": false,
          "internalType": "uint256",
          "name": "collateralLiquidated",
          "type": "uint256"
        },
        {
          "indexed": false,
          "internalType": "uint256",
          "name": "lastCollateralRatio",
          "type": "uint256"
        },
        {
          "indexed": false,
          "internalType": "uint256",
          "name": "lastDebtOutstanding",
          "type": "uint256"
        }
      ],
      "name": "Liquidation",
      "type": "event"
    },
    {
      "anonymous": false,
      "inputs": [
        {
          "indexed": true,
          "internalType": "address",
          "name": "previousOwner",
          "type": "address"
        },
        {
          "indexed": true,
          "internalType": "address",
          "name": "newOwner",
          "type": "address"
        }
      ],
      "name": "OwnershipTransferred",
      "type": "event"
    },
    {
      "anonymous": false,
      "inputs": [
        {
          "indexed": true,
          "internalType": "address",
          "name": "account",
          "type": "address"
        },
        {
          "indexed": false,
          "internalType": "uint256",
          "name": "debtRepaid",
          "type": "uint256"
        },
        {
          "indexed": false,
          "internalType": "uint256",
          "name": "debtRemaining",
          "type": "uint256"
        },
        {
          "indexed": false,
          "internalType": "uint256",
          "name": "collateralAmount",
          "type": "uint256"
        }
      ],
      "name": "Repay",
      "type": "event"
    },
    {
      "anonymous": false,
      "inputs": [
        {
          "indexed": true,
          "internalType": "address",
          "name": "account",
          "type": "address"
        },
        {
          "indexed": false,
          "internalType": "uint256",
          "name": "amount",
          "type": "uint256"
        }
      ],
      "name": "Withdraw",
      "type": "event"
    },
    {
      "inputs": [],
      "name": "SCALING_FACTOR",
      "outputs": [
        {
          "internalType": "uint256",
          "name": "",
          "type": "uint256"
        }
      ],
      "stateMutability": "view",
      "type": "function"
    },
    {
      "inputs": [],
      "name": "SECONDS_IN_YEAR",
      "outputs": [
        {
          "internalType": "int128",
          "name": "",
          "type": "int128"
        }
      ],
      "stateMutability": "view",
      "type": "function"
    },
    {
      "inputs": [
        {
          "internalType": "uint256",
          "name": "_amount",
          "type": "uint256"
        }
      ],
      "name": "borrow",
      "outputs": [],
      "stateMutability": "nonpayable",
      "type": "function"
    },
    {
      "inputs": [],
      "name": "borrowThreshold",
      "outputs": [
        {
          "internalType": "uint256",
          "name": "",
          "type": "uint256"
        }
      ],
      "stateMutability": "view",
      "type": "function"
    },
    {
      "inputs": [
        {
          "internalType": "address",
          "name": "_account",
          "type": "address"
        }
      ],
      "name": "calcInterest",
      "outputs": [
        {
          "internalType": "uint256",
          "name": "interest",
          "type": "uint256"
        }
      ],
      "stateMutability": "view",
      "type": "function"
    },
    {
      "inputs": [
        {
          "internalType": "uint256",
          "name": "_amount",
          "type": "uint256"
        }
      ],
      "name": "deposit",
      "outputs": [],
      "stateMutability": "nonpayable",
      "type": "function"
    },
    {
      "inputs": [
        {
          "internalType": "address",
          "name": "_account",
          "type": "address"
        }
      ],
      "name": "getCurrentCollateralRatio",
      "outputs": [
        {
          "internalType": "uint256",
          "name": "",
          "type": "uint256"
        }
      ],
      "stateMutability": "view",
      "type": "function"
    },
    {
      "inputs": [
        {
          "internalType": "address",
          "name": "_account",
          "type": "address"
        },
        {
          "internalType": "uint256",
          "name": "_totalDebt",
          "type": "uint256"
        }
      ],
      "name": "getForwardCollateralRatio",
      "outputs": [
        {
          "internalType": "uint256",
          "name": "",
          "type": "uint256"
        }
      ],
      "stateMutability": "view",
      "type": "function"
    },
    {
      "inputs": [
        {
          "internalType": "address",
          "name": "_account",
          "type": "address"
        }
      ],
      "name": "getPosition",
      "outputs": [
        {
          "internalType": "uint256",
          "name": "",
          "type": "uint256"
        },
        {
          "internalType": "uint256",
          "name": "",
          "type": "uint256"
        },
        {
          "internalType": "uint256",
          "name": "",
          "type": "uint256"
        },
        {
          "internalType": "uint256",
          "name": "",
          "type": "uint256"
        }
      ],
      "stateMutability": "view",
      "type": "function"
    },
    {
      "inputs": [],
      "name": "interestRate",
      "outputs": [
        {
          "internalType": "uint256",
          "name": "",
          "type": "uint256"
        }
      ],
      "stateMutability": "view",
      "type": "function"
    },
    {
      "inputs": [
        {
          "internalType": "address",
          "name": "_account",
          "type": "address"
        }
      ],
      "name": "liquidate",
      "outputs": [],
      "stateMutability": "nonpayable",
      "type": "function"
    },
    {
      "inputs": [],
      "name": "liquidationFee",
      "outputs": [
        {
          "internalType": "uint256",
          "name": "",
          "type": "uint256"
        }
      ],
      "stateMutability": "view",
      "type": "function"
    },
    {
      "inputs": [],
      "name": "liquidationThreshold",
      "outputs": [
        {
          "internalType": "uint256",
          "name": "",
          "type": "uint256"
        }
      ],
      "stateMutability": "view",
      "type": "function"
    },
    {
      "inputs": [],
      "name": "liquidatorFeeShare",
      "outputs": [
        {
          "internalType": "uint256",
          "name": "",
          "type": "uint256"
        }
      ],
      "stateMutability": "view",
      "type": "function"
    },
    {
      "inputs": [],
      "name": "owner",
      "outputs": [
        {
          "internalType": "address",
          "name": "",
          "type": "address"
        }
      ],
      "stateMutability": "view",
      "type": "function"
    },
    {
      "inputs": [],
      "name": "protocolShortfall",
      "outputs": [
        {
          "internalType": "uint256",
          "name": "",
          "type": "uint256"
        }
      ],
      "stateMutability": "view",
      "type": "function"
    },
    {
      "inputs": [],
      "name": "renounceOwnership",
      "outputs": [],
      "stateMutability": "nonpayable",
      "type": "function"
    },
    {
      "inputs": [
        {
          "internalType": "uint256",
          "name": "_amount",
          "type": "uint256"
        }
      ],
      "name": "repay",
      "outputs": [],
      "stateMutability": "nonpayable",
      "type": "function"
    },
    {
      "inputs": [
        {
          "internalType": "uint256",
          "name": "_liqTotalFee",
          "type": "uint256"
        },
        {
          "internalType": "uint256",
          "name": "_liqFeeShare",
          "type": "uint256"
        },
        {
          "internalType": "uint256",
          "name": "_interestRate",
          "type": "uint256"
        }
      ],
      "name": "setFeesAndRates",
      "outputs": [],
      "stateMutability": "nonpayable",
      "type": "function"
    },
    {
      "inputs": [
        {
          "internalType": "address",
          "name": "_sushiRouter",
          "type": "address"
        }
      ],
      "name": "setSushiAddresses",
      "outputs": [],
      "stateMutability": "nonpayable",
      "type": "function"
    },
    {
      "inputs": [
        {
          "internalType": "uint256",
          "name": "_borrowThreshold",
          "type": "uint256"
        },
        {
          "internalType": "uint256",
          "name": "_liqThreshold",
          "type": "uint256"
        }
      ],
      "name": "setThresholds",
      "outputs": [],
      "stateMutability": "nonpayable",
      "type": "function"
    },
    {
      "inputs": [
        {
          "internalType": "address",
          "name": "_usdz",
          "type": "address"
        },
        {
          "internalType": "address",
          "name": "_usdc",
          "type": "address"
        },
        {
          "internalType": "address",
          "name": "_xsushi",
          "type": "address"
        }
      ],
      "name": "setTokenAddresses",
      "outputs": [],
      "stateMutability": "nonpayable",
      "type": "function"
    },
    {
      "inputs": [],
      "name": "sushiRouterAddress",
      "outputs": [
        {
          "internalType": "address",
          "name": "",
          "type": "address"
        }
      ],
      "stateMutability": "view",
      "type": "function"
    },
    {
      "inputs": [
        {
          "internalType": "uint256",
          "name": "_usdcAmount",
          "type": "uint256"
        }
      ],
      "name": "swapUSDCforUSDZ",
      "outputs": [],
      "stateMutability": "nonpayable",
      "type": "function"
    },
    {
      "inputs": [
        {
          "internalType": "uint256",
          "name": "_usdzAmount",
          "type": "uint256"
        }
      ],
      "name": "swapUSDZforUSDC",
      "outputs": [],
      "stateMutability": "nonpayable",
      "type": "function"
    },
    {
      "inputs": [
        {
          "internalType": "address",
          "name": "newOwner",
          "type": "address"
        }
      ],
      "name": "transferOwnership",
      "outputs": [],
      "stateMutability": "nonpayable",
      "type": "function"
    },
    {
      "inputs": [],
      "name": "usdcAddress",
      "outputs": [
        {
          "internalType": "address",
          "name": "",
          "type": "address"
        }
      ],
      "stateMutability": "view",
      "type": "function"
    },
    {
      "inputs": [],
      "name": "usdzAddress",
      "outputs": [
        {
          "internalType": "address",
          "name": "",
          "type": "address"
        }
      ],
      "stateMutability": "view",
      "type": "function"
    },
    {
      "inputs": [
        {
          "internalType": "uint256",
          "name": "_amount",
          "type": "uint256"
        }
      ],
      "name": "withdraw",
      "outputs": [],
      "stateMutability": "nonpayable",
      "type": "function"
    },
    {
      "inputs": [],
      "name": "xSushiAddress",
      "outputs": [
        {
          "internalType": "address",
          "name": "",
          "type": "address"
        }
      ],
      "stateMutability": "view",
      "type": "function"
    },
    {
      "inputs": [
        {
          "internalType": "uint256",
          "name": "",
          "type": "uint256"
        }
      ],
      "name": "xSushiToUsdcPath",
      "outputs": [
        {
          "internalType": "address",
          "name": "",
          "type": "address"
        }
      ],
      "stateMutability": "view",
      "type": "function"
    }
  ],
  "bytecode": "0x60806040523480156200001157600080fd5b50604051620048ce380380620048ce833981810160405281019062000037919062000436565b6000620000496200028c60201b60201c565b9050806000806101000a81548173ffffffffffffffffffffffffffffffffffffffff021916908373ffffffffffffffffffffffffffffffffffffffff1602179055508073ffffffffffffffffffffffffffffffffffffffff16600073ffffffffffffffffffffffffffffffffffffffff167f8be0079c531659141344cd1fd0a4f28419497f9722a3daafe3b4186f6b6457e060405160405180910390a35089600460006101000a81548173ffffffffffffffffffffffffffffffffffffffff021916908373ffffffffffffffffffffffffffffffffffffffff16021790555088600360006101000a81548173ffffffffffffffffffffffffffffffffffffffff021916908373ffffffffffffffffffffffffffffffffffffffff16021790555087600560006101000a81548173ffffffffffffffffffffffffffffffffffffffff021916908373ffffffffffffffffffffffffffffffffffffffff16021790555086600660006101000a81548173ffffffffffffffffffffffffffffffffffffffff021916908373ffffffffffffffffffffffffffffffffffffffff160217905550846008819055508360098190555082600a8190555081600b8190555080600c81905550856007908051906020019062000226929190620002b8565b50620002416301e185586200029460201b620021e31760201c565b600d60006101000a8154816fffffffffffffffffffffffffffffffff0219169083600f0b6fffffffffffffffffffffffffffffffff1602179055505050505050505050505062000643565b600033905090565b6000677fffffffffffffff821115620002ac57600080fd5b604082901b9050919050565b82805482825590600052602060002090810192821562000334579160200282015b82811115620003335782518260006101000a81548173ffffffffffffffffffffffffffffffffffffffff021916908373ffffffffffffffffffffffffffffffffffffffff16021790555091602001919060010190620002d9565b5b50905062000343919062000347565b5090565b5b808211156200036257600081600090555060010162000348565b5090565b60006200037d620003778462000573565b6200053f565b905080838252602082019050828560208602820111156200039d57600080fd5b60005b85811015620003d15781620003b68882620003db565b845260208401935060208301925050600181019050620003a0565b5050509392505050565b600081519050620003ec816200060f565b92915050565b600082601f8301126200040457600080fd5b81516200041684826020860162000366565b91505092915050565b600081519050620004308162000629565b92915050565b6000806000806000806000806000806101408b8d0312156200045757600080fd5b6000620004678d828e01620003db565b9a505060206200047a8d828e01620003db565b99505060406200048d8d828e01620003db565b9850506060620004a08d828e01620003db565b97505060808b015167ffffffffffffffff811115620004be57600080fd5b620004cc8d828e01620003f2565b96505060a0620004df8d828e016200041f565b95505060c0620004f28d828e016200041f565b94505060e0620005058d828e016200041f565b935050610100620005198d828e016200041f565b9250506101206200052d8d828e016200041f565b9150509295989b9194979a5092959850565b6000604051905081810181811067ffffffffffffffff82111715620005695762000568620005e0565b5b8060405250919050565b600067ffffffffffffffff821115620005915762000590620005e0565b5b602082029050602081019050919050565b6000620005af82620005b6565b9050919050565b600073ffffffffffffffffffffffffffffffffffffffff82169050919050565b6000819050919050565b7f4e487b7100000000000000000000000000000000000000000000000000000000600052604160045260246000fd5b6200061a81620005a2565b81146200062657600080fd5b50565b6200063481620005d6565b81146200064057600080fd5b50565b61427b80620006536000396000f3fe608060405234801561001057600080fd5b50600436106101e55760003560e01c8063715018a61161010f578063bfaf48d4116100a2578063e3064a7711610071578063e3064a771461054b578063ef4cadc514610567578063f248e7e814610585578063f2fde38b146105a1576101e5565b8063bfaf48d4146104c7578063c5ebeaec146104e3578063cde5f672146104ff578063daf5539e1461051b576101e5565b8063a36a3630116100de578063a36a363014610451578063af1f556f1461046f578063b6b55f251461048d578063bdfccad3146104a9576101e5565b8063715018a6146103ed57806379bbce8f146103f75780637c3a00fd146104155780638da5cb5b14610433576101e5565b80634031234c116101875780635ae547e3116101565780635ae547e3146103515780635dcc93911461036f57806369cb89c71461038d5780637046b7a9146103bd576101e5565b80634031234c146102c95780634a63a5ce146102e75780634d3f9d3e146103175780635405480814610333576101e5565b806320bdf800116101c357806320bdf800146102575780632e1a7d4d146102755780632f86556814610291578063371fd8e6146102ad576101e5565b806302d45457146101ea57806316c19739146102085780631d89b1031461023b575b600080fd5b6101f26105bd565b6040516101ff9190613add565b60405180910390f35b610222600480360381019061021d919061325c565b6105e3565b6040516102329493929190613eac565b60405180910390f35b6102556004803603810190610250919061337a565b6106d4565b005b61025f610909565b60405161026c9190613add565b60405180910390f35b61028f600480360381019061028a919061337a565b61092f565b005b6102ab60048036038101906102a6919061325c565b610c21565b005b6102c760048036038101906102c2919061337a565b610c8f565b005b6102d1610fba565b6040516102de9190613e2a565b60405180910390f35b61030160048036038101906102fc919061337a565b610fc0565b60405161030e9190613add565b60405180910390f35b610331600480360381019061032c9190613285565b610fff565b005b61033b611225565b6040516103489190613e2a565b60405180910390f35b61035961122b565b6040516103669190613e2a565b60405180910390f35b610377611231565b6040516103849190613b58565b60405180910390f35b6103a760048036038101906103a2919061325c565b611244565b6040516103b49190613e2a565b60405180910390f35b6103d760048036038101906103d291906132d4565b6114b3565b6040516103e49190613e2a565b60405180910390f35b6103f56114c7565b005b6103ff611601565b60405161040c9190613add565b60405180910390f35b61041d611627565b60405161042a9190613e2a565b60405180910390f35b61043b61162d565b6040516104489190613add565b60405180910390f35b610459611656565b6040516104669190613e2a565b60405180910390f35b61047761165c565b6040516104849190613e2a565b60405180910390f35b6104a760048036038101906104a2919061337a565b611662565b005b6104b16117fc565b6040516104be9190613add565b60405180910390f35b6104e160048036038101906104dc9190613408565b611822565b005b6104fd60048036038101906104f8919061337a565b6119ba565b005b6105196004803603810190610514919061337a565b611bd2565b005b6105356004803603810190610530919061325c565b611d97565b6040516105429190613e2a565b60405180910390f35b610565600480360381019061056091906133cc565b611dec565b005b61056f611f04565b60405161057c9190613e2a565b60405180910390f35b61059f600480360381019061059a919061325c565b611f0a565b005b6105bb60048036038101906105b6919061325c565b61203a565b005b600360009054906101000a900473ffffffffffffffffffffffffffffffffffffffff1681565b6000806000806105f285611244565b50600160008673ffffffffffffffffffffffffffffffffffffffff1673ffffffffffffffffffffffffffffffffffffffff16815260200190815260200160002060000154600160008773ffffffffffffffffffffffffffffffffffffffff1673ffffffffffffffffffffffffffffffffffffffff1681526020019081526020016000206001015461068287611244565b600160008973ffffffffffffffffffffffffffffffffffffffff1673ffffffffffffffffffffffffffffffffffffffff1681526020019081526020016000206002015493509350935093509193509193565b6000600360009054906101000a900473ffffffffffffffffffffffffffffffffffffffff1673ffffffffffffffffffffffffffffffffffffffff166370a08231306040518263ffffffff1660e01b81526004016107319190613add565b60206040518083038186803b15801561074957600080fd5b505afa15801561075d573d6000803e3d6000fd5b505050506040513d601f19601f8201168201806040525081019061078191906133a3565b9050818110156107c6576040517f08c379a00000000000000000000000000000000000000000000000000000000081526004016107bd90613d0a565b60405180910390fd5b600460009054906101000a900473ffffffffffffffffffffffffffffffffffffffff1673ffffffffffffffffffffffffffffffffffffffff16639dc29fac33846040518363ffffffff1660e01b8152600401610823929190613b2f565b600060405180830381600087803b15801561083d57600080fd5b505af1158015610851573d6000803e3d6000fd5b50505050600360009054906101000a900473ffffffffffffffffffffffffffffffffffffffff1673ffffffffffffffffffffffffffffffffffffffff1663a9059cbb33846040518363ffffffff1660e01b81526004016108b2929190613b2f565b602060405180830381600087803b1580156108cc57600080fd5b505af11580156108e0573d6000803e3d6000fd5b505050506040513d601f19601f820116820180604052508101906109049190613351565b505050565b600460009054906101000a900473ffffffffffffffffffffffffffffffffffffffff1681565b6000600160003373ffffffffffffffffffffffffffffffffffffffff1673ffffffffffffffffffffffffffffffffffffffff168152602001908152602001600020905081816000015410156109b9576040517f08c379a00000000000000000000000000000000000000000000000000000000081526004016109b090613e0a565b60405180910390fd5b60006109c433611244565b9050808260010160008282546109da9190613f9d565b9250508190555042826002018190555060006109f533611d97565b9050600b548111610a3b576040517f08c379a0000000000000000000000000000000000000000000000000000000008152600401610a3290613c2a565b60405180910390fd5b60008084600101541415610a555783600001549050610a80565b600b5482610a63919061407e565b828560000154610a739190613ff3565b610a7d9190614024565b90505b84811015610ac3576040517f08c379a0000000000000000000000000000000000000000000000000000000008152600401610aba90613cca565b60405180910390fd5b84846000016000828254610ad7919061407e565b92505081905550600560009054906101000a900473ffffffffffffffffffffffffffffffffffffffff1673ffffffffffffffffffffffffffffffffffffffff1663a9059cbb33876040518363ffffffff1660e01b8152600401610b3b929190613b2f565b602060405180830381600087803b158015610b5557600080fd5b505af1158015610b69573d6000803e3d6000fd5b505050506040513d601f19601f82011682018060405250810190610b8d9190613351565b610bcc576040517f08c379a0000000000000000000000000000000000000000000000000000000008152600401610bc390613c8a565b60405180910390fd5b3373ffffffffffffffffffffffffffffffffffffffff167f884edad9ce6fa2440d8a54cc123490eb96d2768479d49ff9c7366125a942436486604051610c129190613e2a565b60405180910390a25050505050565b3373ffffffffffffffffffffffffffffffffffffffff168173ffffffffffffffffffffffffffffffffffffffff167f5a821a618ddb1a1fd304234a69c9d7f20c129d122fcf35593d13a071926643076000806000604051610c8493929190613b73565b60405180910390a350565b60008111610cd2576040517f08c379a0000000000000000000000000000000000000000000000000000000008152600401610cc990613d8a565b60405180910390fd5b6000600160003373ffffffffffffffffffffffffffffffffffffffff1673ffffffffffffffffffffffffffffffffffffffff1681526020019081526020016000209050610d1e33611244565b816001016000828254610d319190613f9d565b925050819055504281600201819055508181600101541115610e5d57600460009054906101000a900473ffffffffffffffffffffffffffffffffffffffff1673ffffffffffffffffffffffffffffffffffffffff166323b872dd3330856040518463ffffffff1660e01b8152600401610dac93929190613af8565b602060405180830381600087803b158015610dc657600080fd5b505af1158015610dda573d6000803e3d6000fd5b505050506040513d601f19601f82011682018060405250810190610dfe9190613351565b610e3d576040517f08c379a0000000000000000000000000000000000000000000000000000000008152600401610e3490613d2a565b60405180910390fd5b81816001016000828254610e51919061407e565b92505081905550610f5c565b600460009054906101000a900473ffffffffffffffffffffffffffffffffffffffff1673ffffffffffffffffffffffffffffffffffffffff166323b872dd333084600101546040518463ffffffff1660e01b8152600401610ec093929190613af8565b602060405180830381600087803b158015610eda57600080fd5b505af1158015610eee573d6000803e3d6000fd5b505050506040513d601f19601f82011682018060405250810190610f129190613351565b610f51576040517f08c379a0000000000000000000000000000000000000000000000000000000008152600401610f4890613d2a565b60405180910390fd5b600081600101819055505b3373ffffffffffffffffffffffffffffffffffffffff167f2fe77b1c99aca6b022b8efc6e3e8dd1b48b30748709339b65c50ef3263443e098383600101548460000154604051610fae93929190613e75565b60405180910390a25050565b600c5481565b60078181548110610fd057600080fd5b906000526020600020016000915054906101000a900473ffffffffffffffffffffffffffffffffffffffff1681565b611007612206565b73ffffffffffffffffffffffffffffffffffffffff1661102561162d565b73ffffffffffffffffffffffffffffffffffffffff161461107b576040517f08c379a000000000000000000000000000000000000000000000000000000000815260040161107290613d4a565b60405180910390fd5b600073ffffffffffffffffffffffffffffffffffffffff168373ffffffffffffffffffffffffffffffffffffffff16141580156110e55750600073ffffffffffffffffffffffffffffffffffffffff168273ffffffffffffffffffffffffffffffffffffffff1614155b801561111e5750600073ffffffffffffffffffffffffffffffffffffffff168173ffffffffffffffffffffffffffffffffffffffff1614155b61115d576040517f08c379a000000000000000000000000000000000000000000000000000000000815260040161115490613cea565b60405180910390fd5b82600460006101000a81548173ffffffffffffffffffffffffffffffffffffffff021916908373ffffffffffffffffffffffffffffffffffffffff16021790555081600360006101000a81548173ffffffffffffffffffffffffffffffffffffffff021916908373ffffffffffffffffffffffffffffffffffffffff16021790555080600560006101000a81548173ffffffffffffffffffffffffffffffffffffffff021916908373ffffffffffffffffffffffffffffffffffffffff160217905550505050565b60095481565b600b5481565b600d60009054906101000a9004600f0b81565b600080600160008473ffffffffffffffffffffffffffffffffffffffff1673ffffffffffffffffffffffffffffffffffffffff1681526020019081526020016000206001015414806112d857506000600160008473ffffffffffffffffffffffffffffffffffffffff1673ffffffffffffffffffffffffffffffffffffffff16815260200190815260200160002060020154145b806112e557506000600a54145b806113315750600160008373ffffffffffffffffffffffffffffffffffffffff1673ffffffffffffffffffffffffffffffffffffffff1681526020019081526020016000206002015442145b1561133f57600090506114ae565b6000600160008473ffffffffffffffffffffffffffffffffffffffff1673ffffffffffffffffffffffffffffffffffffffff168152602001908152602001600020600201544261138f919061407e565b905060006113b461139f836121e3565b600d60009054906101000a9004600f0b61220e565b905060006113d66113c6600a546121e3565b6113d16127106121e3565b61220e565b90506000611425600160008873ffffffffffffffffffffffffffffffffffffffff1673ffffffffffffffffffffffffffffffffffffffff168152602001908152602001600020600101546121e3565b9050600061144c6114478361144261143d87896122be565b612329565b6122be565b6123a2565b9050600160008873ffffffffffffffffffffffffffffffffffffffff1673ffffffffffffffffffffffffffffffffffffffff168152602001908152602001600020600101548167ffffffffffffffff166114a6919061407e565b955050505050505b919050565b60006114bf83836123c3565b905092915050565b6114cf612206565b73ffffffffffffffffffffffffffffffffffffffff166114ed61162d565b73ffffffffffffffffffffffffffffffffffffffff1614611543576040517f08c379a000000000000000000000000000000000000000000000000000000000815260040161153a90613d4a565b60405180910390fd5b600073ffffffffffffffffffffffffffffffffffffffff1660008054906101000a900473ffffffffffffffffffffffffffffffffffffffff1673ffffffffffffffffffffffffffffffffffffffff167f8be0079c531659141344cd1fd0a4f28419497f9722a3daafe3b4186f6b6457e060405160405180910390a360008060006101000a81548173ffffffffffffffffffffffffffffffffffffffff021916908373ffffffffffffffffffffffffffffffffffffffff160217905550565b600660009054906101000a900473ffffffffffffffffffffffffffffffffffffffff1681565b600a5481565b60008060009054906101000a900473ffffffffffffffffffffffffffffffffffffffff16905090565b60085481565b60025481565b600560009054906101000a900473ffffffffffffffffffffffffffffffffffffffff1673ffffffffffffffffffffffffffffffffffffffff166323b872dd3330846040518463ffffffff1660e01b81526004016116c193929190613af8565b602060405180830381600087803b1580156116db57600080fd5b505af11580156116ef573d6000803e3d6000fd5b505050506040513d601f19601f820116820180604052508101906117139190613351565b611752576040517f08c379a000000000000000000000000000000000000000000000000000000000815260040161174990613daa565b60405180910390fd5b80600160003373ffffffffffffffffffffffffffffffffffffffff1673ffffffffffffffffffffffffffffffffffffffff16815260200190815260200160002060000160008282546117a49190613f9d565b925050819055503373ffffffffffffffffffffffffffffffffffffffff167fe1fffcc4923d04b559f4d29a8bfc6cda04eb5b0d3c460751c2402c5c5cc9109c826040516117f19190613e2a565b60405180910390a250565b600560009054906101000a900473ffffffffffffffffffffffffffffffffffffffff1681565b61182a612206565b73ffffffffffffffffffffffffffffffffffffffff1661184861162d565b73ffffffffffffffffffffffffffffffffffffffff161461189e576040517f08c379a000000000000000000000000000000000000000000000000000000000815260040161189590613d4a565b60405180910390fd5b61271083111580156118b1575060008310155b6118f0576040517f08c379a00000000000000000000000000000000000000000000000000000000081526004016118e790613d6a565b60405180910390fd5b6127108211158015611903575060008210155b801561190f5750828211155b61194e576040517f08c379a000000000000000000000000000000000000000000000000000000000815260040161194590613c0a565b60405180910390fd5b8260088190555081600981905550612710811115801561196f575060008110155b6119ae576040517f08c379a00000000000000000000000000000000000000000000000000000000081526004016119a590613dca565b60405180910390fd5b80600a81905550505050565b600081116119fd576040517f08c379a00000000000000000000000000000000000000000000000000000000081526004016119f490613c6a565b60405180910390fd5b6000600160003373ffffffffffffffffffffffffffffffffffffffff1673ffffffffffffffffffffffffffffffffffffffff16815260200190815260200160002090506000611a4b33611244565b9050600b54611a743385848660010154611a659190613f9d565b611a6f9190613f9d565b6114b3565b1015611ab5576040517f08c379a0000000000000000000000000000000000000000000000000000000008152600401611aac90613bca565b60405180910390fd5b8083611ac19190613f9d565b826001016000828254611ad49190613f9d565b92505081905550428260020181905550600460009054906101000a900473ffffffffffffffffffffffffffffffffffffffff1673ffffffffffffffffffffffffffffffffffffffff166340c10f1933856040518363ffffffff1660e01b8152600401611b41929190613b2f565b600060405180830381600087803b158015611b5b57600080fd5b505af1158015611b6f573d6000803e3d6000fd5b505050503373ffffffffffffffffffffffffffffffffffffffff167f13ed6866d4e1ee6da46f845c46d7e54120883d75c5ea9a2dacc1c4ca8984ab808484600101548560000154604051611bc593929190613e75565b60405180910390a2505050565b60008111611c15576040517f08c379a0000000000000000000000000000000000000000000000000000000008152600401611c0c90613c4a565b60405180910390fd5b600360009054906101000a900473ffffffffffffffffffffffffffffffffffffffff1673ffffffffffffffffffffffffffffffffffffffff166323b872dd3330846040518463ffffffff1660e01b8152600401611c7493929190613af8565b602060405180830381600087803b158015611c8e57600080fd5b505af1158015611ca2573d6000803e3d6000fd5b505050506040513d601f19601f82011682018060405250810190611cc69190613351565b611d05576040517f08c379a0000000000000000000000000000000000000000000000000000000008152600401611cfc90613baa565b60405180910390fd5b600460009054906101000a900473ffffffffffffffffffffffffffffffffffffffff1673ffffffffffffffffffffffffffffffffffffffff166340c10f1933836040518363ffffffff1660e01b8152600401611d62929190613b2f565b600060405180830381600087803b158015611d7c57600080fd5b505af1158015611d90573d6000803e3d6000fd5b5050505050565b6000611de582600160008573ffffffffffffffffffffffffffffffffffffffff1673ffffffffffffffffffffffffffffffffffffffff168152602001908152602001600020600101546123c3565b9050919050565b611df4612206565b73ffffffffffffffffffffffffffffffffffffffff16611e1261162d565b73ffffffffffffffffffffffffffffffffffffffff1614611e68576040517f08c379a0000000000000000000000000000000000000000000000000000000008152600401611e5f90613d4a565b60405180910390fd5b612710821015611ead576040517f08c379a0000000000000000000000000000000000000000000000000000000008152600401611ea490613caa565b60405180910390fd5b612710811015611ef2576040517f08c379a0000000000000000000000000000000000000000000000000000000008152600401611ee990613dea565b60405180910390fd5b81600b8190555080600c819055505050565b61271081565b611f12612206565b73ffffffffffffffffffffffffffffffffffffffff16611f3061162d565b73ffffffffffffffffffffffffffffffffffffffff1614611f86576040517f08c379a0000000000000000000000000000000000000000000000000000000008152600401611f7d90613d4a565b60405180910390fd5b600073ffffffffffffffffffffffffffffffffffffffff168173ffffffffffffffffffffffffffffffffffffffff161415611ff6576040517f08c379a0000000000000000000000000000000000000000000000000000000008152600401611fed90613cea565b60405180910390fd5b80600660006101000a81548173ffffffffffffffffffffffffffffffffffffffff021916908373ffffffffffffffffffffffffffffffffffffffff16021790555050565b612042612206565b73ffffffffffffffffffffffffffffffffffffffff1661206061162d565b73ffffffffffffffffffffffffffffffffffffffff16146120b6576040517f08c379a00000000000000000000000000000000000000000000000000000000081526004016120ad90613d4a565b60405180910390fd5b600073ffffffffffffffffffffffffffffffffffffffff168173ffffffffffffffffffffffffffffffffffffffff161415612126576040517f08c379a000000000000000000000000000000000000000000000000000000000815260040161211d90613bea565b60405180910390fd5b8073ffffffffffffffffffffffffffffffffffffffff1660008054906101000a900473ffffffffffffffffffffffffffffffffffffffff1673ffffffffffffffffffffffffffffffffffffffff167f8be0079c531659141344cd1fd0a4f28419497f9722a3daafe3b4186f6b6457e060405160405180910390a3806000806101000a81548173ffffffffffffffffffffffffffffffffffffffff021916908373ffffffffffffffffffffffffffffffffffffffff16021790555050565b6000677fffffffffffffff8211156121fa57600080fd5b604082901b9050919050565b600033905090565b60008082600f0b141561222057600080fd5b600082600f0b604085600f0b901b81612262577f4e487b7100000000000000000000000000000000000000000000000000000000600052601260045260246000fd5b0590507fffffffffffffffffffffffffffffffff80000000000000000000000000000000600f0b81121580156122ab57506f7fffffffffffffffffffffffffffffff600f0b8113155b6122b457600080fd5b8091505092915050565b600080604083600f0b85600f0b02901d90507fffffffffffffffffffffffffffffffff80000000000000000000000000000000600f0b811215801561231657506f7fffffffffffffffffffffffffffffff600f0b8113155b61231f57600080fd5b8091505092915050565b60006840000000000000000082600f0b1261234357600080fd5b7fffffffffffffffffffffffffffffffffffffffffffffffc0000000000000000082600f0b1215612377576000905061239d565b61239a6080700171547652b82fe1777d0ffda0d23a7d1284600f0b02901d612572565b90505b919050565b60008082600f0b12156123b457600080fd5b604082600f0b901d9050919050565b600080600160008573ffffffffffffffffffffffffffffffffffffffff1673ffffffffffffffffffffffffffffffffffffffff168152602001908152602001600020600001549050600081141561241e57600091505061256c565b6000831415612450577fffffffffffffffffffffffffffffffffffffffffffffffffffffffffffffffff91505061256c565b6000600660009054906101000a900473ffffffffffffffffffffffffffffffffffffffff16905060008173ffffffffffffffffffffffffffffffffffffffff1663d06ca61f8460076040518363ffffffff1660e01b81526004016124b5929190613e45565b60006040518083038186803b1580156124cd57600080fd5b505afa1580156124e1573d6000803e3d6000fd5b505050506040513d6000823e3d601f19601f8201168201806040525081019061250a9190613310565b600281518110612543577f4e487b7100000000000000000000000000000000000000000000000000000000600052603260045260246000fd5b60200260200101519050846127108261255c9190614024565b6125669190613ff3565b93505050505b92915050565b60006840000000000000000082600f0b1261258c57600080fd5b7fffffffffffffffffffffffffffffffffffffffffffffffc0000000000000000082600f0b12156125c0576000905061316d565b60006f80000000000000000000000000000000905060006780000000000000008416600f0b131561260657608070016a09e667f3bcc908b2fb1366ea957d3e8202901c90505b60006740000000000000008416600f0b13156126375760807001306fe0a31b7152de8d5a46305c85edec8202901c90505b60006720000000000000008416600f0b13156126685760807001172b83c7d517adcdf7c8c50eb14a791f8202901c90505b60006710000000000000008416600f0b131561269957608070010b5586cf9890f6298b92b71842a983638202901c90505b60006708000000000000008416600f0b13156126ca5760807001059b0d31585743ae7c548eb68ca417fd8202901c90505b60006704000000000000008416600f0b13156126fb576080700102c9a3e778060ee6f7caca4f7a29bde88202901c90505b60006702000000000000008416600f0b131561272c57608070010163da9fb33356d84a66ae336dcdfa3f8202901c90505b60006701000000000000008416600f0b131561275d576080700100b1afa5abcbed6129ab13ec11dc95438202901c90505b600066800000000000008416600f0b131561278d57608070010058c86da1c09ea1ff19d294cf2f679b8202901c90505b600066400000000000008416600f0b13156127bd5760807001002c605e2e8cec506d21bfc89a23a00f8202901c90505b600066200000000000008416600f0b13156127ed576080700100162f3904051fa128bca9c55c31e5df8202901c90505b600066100000000000008416600f0b131561281d5760807001000b175effdc76ba38e31671ca9397258202901c90505b600066080000000000008416600f0b131561284d576080700100058ba01fb9f96d6cacd4b180917c3d8202901c90505b600066040000000000008416600f0b131561287d57608070010002c5cc37da9491d0985c348c68e7b38202901c90505b600066020000000000008416600f0b13156128ad5760807001000162e525ee054754457d59952920268202901c90505b600066010000000000008416600f0b13156128dd57608070010000b17255775c040618bf4a4ade83fc8202901c90505b6000658000000000008416600f0b131561290c5760807001000058b91b5bc9ae2eed81e9b7d4cfab8202901c90505b6000654000000000008416600f0b131561293b576080700100002c5c89d5ec6ca4d7c8acc017b7c98202901c90505b6000652000000000008416600f0b131561296a57608070010000162e43f4f831060e02d839a9d16d8202901c90505b6000651000000000008416600f0b1315612999576080700100000b1721bcfc99d9f890ea069117638202901c90505b6000650800000000008416600f0b13156129c857608070010000058b90cf1e6d97f9ca14dbcc16288202901c90505b6000650400000000008416600f0b13156129f75760807001000002c5c863b73f016468f6bac5ca2b8202901c90505b6000650200000000008416600f0b1315612a26576080700100000162e430e5a18f6119e3c02282a58202901c90505b6000650100000000008416600f0b1315612a555760807001000000b1721835514b86e6d96efd1bfe8202901c90505b60006480000000008416600f0b1315612a83576080700100000058b90c0b48c6be5df846c5b2ef8202901c90505b60006440000000008416600f0b1315612ab157608070010000002c5c8601cc6b9e94213c72737a8202901c90505b60006420000000008416600f0b1315612adf5760807001000000162e42fff037df38aa2b219f068202901c90505b60006410000000008416600f0b1315612b0d57608070010000000b17217fba9c739aa5819f44f98202901c90505b60006408000000008416600f0b1315612b3b5760807001000000058b90bfcdee5acd3c1cedc8238202901c90505b60006404000000008416600f0b1315612b69576080700100000002c5c85fe31f35a6a30da1be508202901c90505b60006402000000008416600f0b1315612b9757608070010000000162e42ff0999ce3541b9fffcf8202901c90505b60006401000000008416600f0b1315612bc5576080700100000000b17217f80f4ef5aadda455548202901c90505b600063800000008416600f0b1315612bf257608070010000000058b90bfbf8479bd5a81b51ad8202901c90505b600063400000008416600f0b1315612c1f5760807001000000002c5c85fdf84bd62ae30a74cc8202901c90505b600063200000008416600f0b1315612c4c576080700100000000162e42fefb2fed257559bdaa8202901c90505b600063100000008416600f0b1315612c795760807001000000000b17217f7d5a7716bba4a9ae8202901c90505b600063080000008416600f0b1315612ca6576080700100000000058b90bfbe9ddbac5e109cce8202901c90505b600063040000008416600f0b1315612cd357608070010000000002c5c85fdf4b15de6f17eb0d8202901c90505b600063020000008416600f0b1315612d005760807001000000000162e42fefa494f1478fde058202901c90505b600063010000008416600f0b1315612d2d57608070010000000000b17217f7d20cf927c8e94c8202901c90505b6000628000008416600f0b1315612d595760807001000000000058b90bfbe8f71cb4e4b33d8202901c90505b6000624000008416600f0b1315612d85576080700100000000002c5c85fdf477b662b269458202901c90505b6000622000008416600f0b1315612db157608070010000000000162e42fefa3ae53369388c8202901c90505b6000621000008416600f0b1315612ddd576080700100000000000b17217f7d1d351a389d408202901c90505b6000620800008416600f0b1315612e0957608070010000000000058b90bfbe8e8b2d3d4ede8202901c90505b6000620400008416600f0b1315612e355760807001000000000002c5c85fdf4741bea6e77e8202901c90505b6000620200008416600f0b1315612e61576080700100000000000162e42fefa39fe95583c28202901c90505b6000620100008416600f0b1315612e8d5760807001000000000000b17217f7d1cfb72b45e18202901c90505b60006180008416600f0b1315612eb8576080700100000000000058b90bfbe8e7cc35c3f08202901c90505b60006140008416600f0b1315612ee357608070010000000000002c5c85fdf473e242ea388202901c90505b60006120008416600f0b1315612f0e5760807001000000000000162e42fefa39f02b772c8202901c90505b60006110008416600f0b1315612f3957608070010000000000000b17217f7d1cf7d83c1a8202901c90505b60006108008416600f0b1315612f645760807001000000000000058b90bfbe8e7bdcbe2e8202901c90505b60006104008416600f0b1315612f8f576080700100000000000002c5c85fdf473dea871f8202901c90505b60006102008416600f0b1315612fba57608070010000000000000162e42fefa39ef44d918202901c90505b60006101008416600f0b1315612fe5576080700100000000000000b17217f7d1cf79e9498202901c90505b600060808416600f0b131561300f57608070010000000000000058b90bfbe8e7bce5448202901c90505b600060408416600f0b13156130395760807001000000000000002c5c85fdf473de6eca8202901c90505b600060208416600f0b1315613063576080700100000000000000162e42fefa39ef366f8202901c90505b600060108416600f0b131561308d5760807001000000000000000b17217f7d1cf79afa8202901c90505b600060088416600f0b13156130b7576080700100000000000000058b90bfbe8e7bcd6d8202901c90505b600060048416600f0b13156130e157608070010000000000000002c5c85fdf473de6b28202901c90505b600060028416600f0b131561310b5760807001000000000000000162e42fefa39ef3588202901c90505b600060018416600f0b131561313557608070010000000000000000b17217f7d1cf79ab8202901c90505b604083600f0b901d603f03600f0b81901c90506f7fffffffffffffffffffffffffffffff600f0b81111561316857600080fd5b809150505b919050565b600061318561318084613f22565b613ef1565b905080838252602082019050828560208602820111156131a457600080fd5b60005b858110156131d457816131ba8882613247565b8452602084019350602083019250506001810190506131a7565b5050509392505050565b6000813590506131ed81614200565b92915050565b600082601f83011261320457600080fd5b8151613214848260208601613172565b91505092915050565b60008151905061322c81614217565b92915050565b6000813590506132418161422e565b92915050565b6000815190506132568161422e565b92915050565b60006020828403121561326e57600080fd5b600061327c848285016131de565b91505092915050565b60008060006060848603121561329a57600080fd5b60006132a8868287016131de565b93505060206132b9868287016131de565b92505060406132ca868287016131de565b9150509250925092565b600080604083850312156132e757600080fd5b60006132f5858286016131de565b925050602061330685828601613232565b9150509250929050565b60006020828403121561332257600080fd5b600082015167ffffffffffffffff81111561333c57600080fd5b613348848285016131f3565b91505092915050565b60006020828403121561336357600080fd5b60006133718482850161321d565b91505092915050565b60006020828403121561338c57600080fd5b600061339a84828501613232565b91505092915050565b6000602082840312156133b557600080fd5b60006133c384828501613247565b91505092915050565b600080604083850312156133df57600080fd5b60006133ed85828601613232565b92505060206133fe85828601613232565b9150509250929050565b60008060006060848603121561341d57600080fd5b600061342b86828701613232565b935050602061343c86828701613232565b925050604061344d86828701613232565b9150509250925092565b6000613463838361346f565b60208301905092915050565b613478816140d2565b82525050565b613487816140d2565b82525050565b600061349882613f63565b6134a28185613f7b565b93506134ad83613f4e565b8060005b838110156134e5576134c2826141e0565b6134cc8882613457565b97506134d783613f6e565b9250506001810190506134b1565b5085935050505092915050565b6134fb816140f0565b82525050565b61350a81614127565b82525050565b600061351d601483613f8c565b91507f55534443207472616e73666572206661696c65640000000000000000000000006000830152602082019050919050565b600061355d602983613f8c565b91507f6e6f7420656e6f75676820636f6c6c61746572616c20746f20626f72726f772060008301527f74686174206d75636800000000000000000000000000000000000000000000006020830152604082019050919050565b60006135c3602683613f8c565b91507f4f776e61626c653a206e6577206f776e657220697320746865207a65726f206160008301527f64647265737300000000000000000000000000000000000000000000000000006020830152604082019050919050565b6000613629601883613f8c565b91507f6c69714665655368617265206f7574206f662072616e676500000000000000006000830152602082019050919050565b6000613669602283613f8c565b91507f6163636f756e7420616c72656164792062656c6f77207361666574792072617460008301527f696f0000000000000000000000000000000000000000000000000000000000006020830152604082019050919050565b60006136cf601483613f8c565b91507f63616e2774206d696e74207a65726f205553445a0000000000000000000000006000830152602082019050919050565b600061370f600e83613f8c565b91507f63616e277420626f72726f7720300000000000000000000000000000000000006000830152602082019050919050565b600061374f601883613f8c565b91507f7769746864726177207472616e73666572206661696c656400000000000000006000830152602082019050919050565b600061378f602983613f8c565b91507f626f72726f77207468726573686f6c64206d757374206265203e207363616c6960008301527f6e6720666163746f7200000000000000000000000000000000000000000000006020830152604082019050919050565b60006137f5601983613f8c565b91507f616d6f756e7420756e7361666520746f207769746864726177000000000000006000830152602082019050919050565b6000613835601883613f8c565b91507f7a65726f2061646472657373206e6f7420616c6c6f77656400000000000000006000830152602082019050919050565b6000613875601483613f8c565b91507f55534443207265736572766520746f6f206c6f770000000000000000000000006000830152602082019050919050565b60006138b5601583613f8c565b91507f7265706179207472616e73666572206661696c656400000000000000000000006000830152602082019050919050565b60006138f5602083613f8c565b91507f4f776e61626c653a2063616c6c6572206973206e6f7420746865206f776e65726000830152602082019050919050565b6000613935601883613f8c565b91507f6c6971546f74616c466565206f7574206f662072616e676500000000000000006000830152602082019050919050565b6000613975600d83613f8c565b91507f63616e27742072657061792030000000000000000000000000000000000000006000830152602082019050919050565b60006139b5600e83613f8c565b91507f6465706f736974206661696c65640000000000000000000000000000000000006000830152602082019050919050565b60006139f5601983613f8c565b91507f696e74657265737452617465206f7574206f662072616e6765000000000000006000830152602082019050919050565b6000613a35602683613f8c565b91507f6c6971207468726573686f6c64206d757374206265203e207363616c696e672060008301527f666163746f7200000000000000000000000000000000000000000000000000006020830152604082019050919050565b6000613a9b602083613f8c565b91507f6e6f7420656e6f75676820636f6c6c61746572616c20696e206163636f756e746000830152602082019050919050565b613ad78161411d565b82525050565b6000602082019050613af2600083018461347e565b92915050565b6000606082019050613b0d600083018661347e565b613b1a602083018561347e565b613b276040830184613ace565b949350505050565b6000604082019050613b44600083018561347e565b613b516020830184613ace565b9392505050565b6000602082019050613b6d60008301846134f2565b92915050565b6000606082019050613b886000830186613501565b613b956020830185613501565b613ba26040830184613501565b949350505050565b60006020820190508181036000830152613bc381613510565b9050919050565b60006020820190508181036000830152613be381613550565b9050919050565b60006020820190508181036000830152613c03816135b6565b9050919050565b60006020820190508181036000830152613c238161361c565b9050919050565b60006020820190508181036000830152613c438161365c565b9050919050565b60006020820190508181036000830152613c63816136c2565b9050919050565b60006020820190508181036000830152613c8381613702565b9050919050565b60006020820190508181036000830152613ca381613742565b9050919050565b60006020820190508181036000830152613cc381613782565b9050919050565b60006020820190508181036000830152613ce3816137e8565b9050919050565b60006020820190508181036000830152613d0381613828565b9050919050565b60006020820190508181036000830152613d2381613868565b9050919050565b60006020820190508181036000830152613d43816138a8565b9050919050565b60006020820190508181036000830152613d63816138e8565b9050919050565b60006020820190508181036000830152613d8381613928565b9050919050565b60006020820190508181036000830152613da381613968565b9050919050565b60006020820190508181036000830152613dc3816139a8565b9050919050565b60006020820190508181036000830152613de3816139e8565b9050919050565b60006020820190508181036000830152613e0381613a28565b9050919050565b60006020820190508181036000830152613e2381613a8e565b9050919050565b6000602082019050613e3f6000830184613ace565b92915050565b6000604082019050613e5a6000830185613ace565b8181036020830152613e6c818461348d565b90509392505050565b6000606082019050613e8a6000830186613ace565b613e976020830185613ace565b613ea46040830184613ace565b949350505050565b6000608082019050613ec16000830187613ace565b613ece6020830186613ace565b613edb6040830185613ace565b613ee86060830184613ace565b95945050505050565b6000604051905081810181811067ffffffffffffffff82111715613f1857613f176141b1565b5b8060405250919050565b600067ffffffffffffffff821115613f3d57613f3c6141b1565b5b602082029050602081019050919050565b60008190508160005260206000209050919050565b600081549050919050565b6000600182019050919050565b600082825260208201905092915050565b600082825260208201905092915050565b6000613fa88261411d565b9150613fb38361411d565b9250827fffffffffffffffffffffffffffffffffffffffffffffffffffffffffffffffff03821115613fe857613fe7614153565b5b828201905092915050565b6000613ffe8261411d565b91506140098361411d565b92508261401957614018614182565b5b828204905092915050565b600061402f8261411d565b915061403a8361411d565b9250817fffffffffffffffffffffffffffffffffffffffffffffffffffffffffffffffff048311821515161561407357614072614153565b5b828202905092915050565b60006140898261411d565b91506140948361411d565b9250828210156140a7576140a6614153565b5b828203905092915050565b600073ffffffffffffffffffffffffffffffffffffffff82169050919050565b60006140dd826140fd565b9050919050565b60008115159050919050565b600081600f0b9050919050565b600073ffffffffffffffffffffffffffffffffffffffff82169050919050565b6000819050919050565b60006141328261411d565b9050919050565b600061414c614147836141f3565b6140b2565b9050919050565b7f4e487b7100000000000000000000000000000000000000000000000000000000600052601160045260246000fd5b7f4e487b7100000000000000000000000000000000000000000000000000000000600052601260045260246000fd5b7f4e487b7100000000000000000000000000000000000000000000000000000000600052604160045260246000fd5b60006141ec8254614139565b9050919050565b60008160001c9050919050565b614209816140d2565b811461421457600080fd5b50565b614220816140e4565b811461422b57600080fd5b50565b6142378161411d565b811461424257600080fd5b5056fea264697066735822122054bd1e3f3c71e68a840c761ffa8678afb6d02ee59d423f27ff4364d45680108e64736f6c63430008000033",
  "linkReferences": {},
  "deployedLinkReferences": {}
}