{
  "_format": "hh-sol-artifact-1",
  "contractName": "Controller",
  "sourceName": "contracts/Controller.sol",
  "abi": [
    {
      "inputs": [
        {
          "internalType": "address",
          "name": "_usdzAddress",
          "type": "address"
        },
        {
          "internalType": "address",
          "name": "_xSushiAddress",
          "type": "address"
        },
        {
          "internalType": "uint256",
          "name": "_liqTotalFee",
          "type": "uint256"
        },
        {
          "internalType": "uint256",
          "name": "_liqFeeShare",
          "type": "uint256"
        },
        {
          "internalType": "uint256",
          "name": "_interestRate",
          "type": "uint256"
        }
      ],
      "stateMutability": "nonpayable",
      "type": "constructor"
    },
    {
      "anonymous": false,
      "inputs": [
        {
          "indexed": true,
          "internalType": "address",
          "name": "sender",
          "type": "address"
        },
        {
          "indexed": true,
          "internalType": "address",
          "name": "token",
          "type": "address"
        },
        {
          "indexed": false,
          "internalType": "uint256",
          "name": "amount",
          "type": "uint256"
        }
      ],
      "name": "Deposit",
      "type": "event"
    },
    {
      "anonymous": false,
      "inputs": [
        {
          "indexed": true,
          "internalType": "address",
          "name": "previousOwner",
          "type": "address"
        },
        {
          "indexed": true,
          "internalType": "address",
          "name": "newOwner",
          "type": "address"
        }
      ],
      "name": "OwnershipTransferred",
      "type": "event"
    },
    {
      "anonymous": false,
      "inputs": [
        {
          "indexed": true,
          "internalType": "address",
          "name": "sender",
          "type": "address"
        },
        {
          "indexed": true,
          "internalType": "address",
          "name": "token",
          "type": "address"
        },
        {
          "indexed": false,
          "internalType": "uint256",
          "name": "amount",
          "type": "uint256"
        }
      ],
      "name": "Withdraw",
      "type": "event"
    },
    {
      "inputs": [],
      "name": "FEE_RATE_SCALING_FACTOR",
      "outputs": [
        {
          "internalType": "uint256",
          "name": "",
          "type": "uint256"
        }
      ],
      "stateMutability": "view",
      "type": "function"
    },
    {
      "inputs": [
        {
          "internalType": "uint256",
          "name": "_amount",
          "type": "uint256"
        }
      ],
      "name": "borrow",
      "outputs": [],
      "stateMutability": "nonpayable",
      "type": "function"
    },
    {
      "inputs": [
        {
          "internalType": "uint256",
          "name": "_amount",
          "type": "uint256"
        }
      ],
      "name": "deposit",
      "outputs": [],
      "stateMutability": "nonpayable",
      "type": "function"
    },
    {
      "inputs": [],
      "name": "interestRate",
      "outputs": [
        {
          "internalType": "uint256",
          "name": "",
          "type": "uint256"
        }
      ],
      "stateMutability": "view",
      "type": "function"
    },
    {
      "inputs": [],
      "name": "liquidationFee",
      "outputs": [
        {
          "internalType": "uint256",
          "name": "",
          "type": "uint256"
        }
      ],
      "stateMutability": "view",
      "type": "function"
    },
    {
      "inputs": [],
      "name": "liquidatorFeeShare",
      "outputs": [
        {
          "internalType": "uint256",
          "name": "",
          "type": "uint256"
        }
      ],
      "stateMutability": "view",
      "type": "function"
    },
    {
      "inputs": [],
      "name": "owner",
      "outputs": [
        {
          "internalType": "address",
          "name": "",
          "type": "address"
        }
      ],
      "stateMutability": "view",
      "type": "function"
    },
    {
      "inputs": [],
      "name": "renounceOwnership",
      "outputs": [],
      "stateMutability": "nonpayable",
      "type": "function"
    },
    {
      "inputs": [
        {
          "internalType": "uint256",
          "name": "_liqTotalFee",
          "type": "uint256"
        },
        {
          "internalType": "uint256",
          "name": "_liqFeeShare",
          "type": "uint256"
        },
        {
          "internalType": "uint256",
          "name": "_interestRate",
          "type": "uint256"
        }
      ],
      "name": "setFeesAndRates",
      "outputs": [],
      "stateMutability": "nonpayable",
      "type": "function"
    },
    {
      "inputs": [
        {
          "internalType": "address",
          "name": "_newAddress",
          "type": "address"
        }
      ],
      "name": "setUSDZAddress",
      "outputs": [],
      "stateMutability": "nonpayable",
      "type": "function"
    },
    {
      "inputs": [
        {
          "internalType": "address",
          "name": "_newAddress",
          "type": "address"
        }
      ],
      "name": "setXSUSHIAddress",
      "outputs": [],
      "stateMutability": "nonpayable",
      "type": "function"
    },
    {
      "inputs": [
        {
          "internalType": "address",
          "name": "newOwner",
          "type": "address"
        }
      ],
      "name": "transferOwnership",
      "outputs": [],
      "stateMutability": "nonpayable",
      "type": "function"
    },
    {
      "inputs": [],
      "name": "usdzAddress",
      "outputs": [
        {
          "internalType": "address",
          "name": "",
          "type": "address"
        }
      ],
      "stateMutability": "view",
      "type": "function"
    },
    {
      "inputs": [
        {
          "internalType": "uint256",
          "name": "_amount",
          "type": "uint256"
        }
      ],
      "name": "withdraw",
      "outputs": [],
      "stateMutability": "nonpayable",
      "type": "function"
    },
    {
      "inputs": [],
      "name": "xSushiAddress",
      "outputs": [
        {
          "internalType": "address",
          "name": "",
          "type": "address"
        }
      ],
      "stateMutability": "view",
      "type": "function"
    }
  ],
  "bytecode": "0x60806040526127106007553480156200001757600080fd5b50604051620014ce380380620014ce83398181016040528101906200003d9190620001c5565b60006200004f6200018f60201b60201c565b9050806000806101000a81548173ffffffffffffffffffffffffffffffffffffffff021916908373ffffffffffffffffffffffffffffffffffffffff1602179055508073ffffffffffffffffffffffffffffffffffffffff16600073ffffffffffffffffffffffffffffffffffffffff167f8be0079c531659141344cd1fd0a4f28419497f9722a3daafe3b4186f6b6457e060405160405180910390a35084600260006101000a81548173ffffffffffffffffffffffffffffffffffffffff021916908373ffffffffffffffffffffffffffffffffffffffff16021790555083600360006101000a81548173ffffffffffffffffffffffffffffffffffffffff021916908373ffffffffffffffffffffffffffffffffffffffff1602179055508260048190555081600581905550806006819055505050505050620002b9565b600033905090565b600081519050620001a88162000285565b92915050565b600081519050620001bf816200029f565b92915050565b600080600080600060a08688031215620001de57600080fd5b6000620001ee8882890162000197565b9550506020620002018882890162000197565b94505060406200021488828901620001ae565b93505060606200022788828901620001ae565b92505060806200023a88828901620001ae565b9150509295509295909350565b600062000254826200025b565b9050919050565b600073ffffffffffffffffffffffffffffffffffffffff82169050919050565b6000819050919050565b620002908162000247565b81146200029c57600080fd5b50565b620002aa816200027b565b8114620002b657600080fd5b50565b61120580620002c96000396000f3fe608060405234801561001057600080fd5b50600436106100f55760003560e01c80638da5cb5b11610097578063bdfccad311610066578063bdfccad314610228578063bfaf48d414610246578063c5ebeaec14610262578063f2fde38b1461027e576100f5565b80638da5cb5b146101b45780638f6ba29a146101d2578063a36a3630146101ee578063b6b55f251461020c576100f5565b806359c1924c116100d357806359c1924c14610152578063715018a6146101705780637c3a00fd1461017a5780638456b75514610198576100f5565b806320bdf800146100fa5780632e1a7d4d146101185780635405480814610134575b600080fd5b61010261029a565b60405161010f9190610e56565b60405180910390f35b610132600480360381019061012d9190610ca8565b6102c0565b005b61013c61034a565b6040516101499190610fa8565b60405180910390f35b61015a610350565b6040516101679190610fa8565b60405180910390f35b610178610356565b005b610182610490565b60405161018f9190610fa8565b60405180910390f35b6101b260048036038101906101ad9190610c56565b610496565b005b6101bc6105c6565b6040516101c99190610e56565b60405180910390f35b6101ec60048036038101906101e79190610c56565b6105ef565b005b6101f661071f565b6040516102039190610fa8565b60405180910390f35b61022660048036038101906102219190610ca8565b610725565b005b6102306108a5565b60405161023d9190610e56565b60405180910390f35b610260600480360381019061025b9190610cd1565b6108cb565b005b61027c60048036038101906102779190610ca8565b610a63565b005b61029860048036038101906102939190610c56565b610a66565b005b600260009054906101000a900473ffffffffffffffffffffffffffffffffffffffff1681565b600360009054906101000a900473ffffffffffffffffffffffffffffffffffffffff1673ffffffffffffffffffffffffffffffffffffffff163373ffffffffffffffffffffffffffffffffffffffff167f9b1bfa7fa9ee420a16e124f794c35ac9f90472acc99140eb2f6447c714cad8eb8360405161033f9190610fa8565b60405180910390a350565b60055481565b60075481565b61035e610c0f565b73ffffffffffffffffffffffffffffffffffffffff1661037c6105c6565b73ffffffffffffffffffffffffffffffffffffffff16146103d2576040517f08c379a00000000000000000000000000000000000000000000000000000000081526004016103c990610f48565b60405180910390fd5b600073ffffffffffffffffffffffffffffffffffffffff1660008054906101000a900473ffffffffffffffffffffffffffffffffffffffff1673ffffffffffffffffffffffffffffffffffffffff167f8be0079c531659141344cd1fd0a4f28419497f9722a3daafe3b4186f6b6457e060405160405180910390a360008060006101000a81548173ffffffffffffffffffffffffffffffffffffffff021916908373ffffffffffffffffffffffffffffffffffffffff160217905550565b60065481565b61049e610c0f565b73ffffffffffffffffffffffffffffffffffffffff166104bc6105c6565b73ffffffffffffffffffffffffffffffffffffffff1614610512576040517f08c379a000000000000000000000000000000000000000000000000000000000815260040161050990610f48565b60405180910390fd5b600073ffffffffffffffffffffffffffffffffffffffff168173ffffffffffffffffffffffffffffffffffffffff161415610582576040517f08c379a000000000000000000000000000000000000000000000000000000000815260040161057990610f08565b60405180910390fd5b80600360006101000a81548173ffffffffffffffffffffffffffffffffffffffff021916908373ffffffffffffffffffffffffffffffffffffffff16021790555050565b60008060009054906101000a900473ffffffffffffffffffffffffffffffffffffffff16905090565b6105f7610c0f565b73ffffffffffffffffffffffffffffffffffffffff166106156105c6565b73ffffffffffffffffffffffffffffffffffffffff161461066b576040517f08c379a000000000000000000000000000000000000000000000000000000000815260040161066290610f48565b60405180910390fd5b600073ffffffffffffffffffffffffffffffffffffffff168173ffffffffffffffffffffffffffffffffffffffff1614156106db576040517f08c379a00000000000000000000000000000000000000000000000000000000081526004016106d290610f28565b60405180910390fd5b80600260006101000a81548173ffffffffffffffffffffffffffffffffffffffff021916908373ffffffffffffffffffffffffffffffffffffffff16021790555050565b60045481565b6000600260009054906101000a900473ffffffffffffffffffffffffffffffffffffffff1690508073ffffffffffffffffffffffffffffffffffffffff166323b872dd3330856040518463ffffffff1660e01b815260040161078993929190610e71565b602060405180830381600087803b1580156107a357600080fd5b505af11580156107b7573d6000803e3d6000fd5b505050506040513d601f19601f820116820180604052508101906107db9190610c7f565b61081a576040517f08c379a000000000000000000000000000000000000000000000000000000000815260040161081190610ee8565b60405180910390fd5b600360009054906101000a900473ffffffffffffffffffffffffffffffffffffffff1673ffffffffffffffffffffffffffffffffffffffff163373ffffffffffffffffffffffffffffffffffffffff167f5548c837ab068cf56a2c2479df0882a4922fd203edb7517321831d95078c5f62846040516108999190610fa8565b60405180910390a35050565b600360009054906101000a900473ffffffffffffffffffffffffffffffffffffffff1681565b6108d3610c0f565b73ffffffffffffffffffffffffffffffffffffffff166108f16105c6565b73ffffffffffffffffffffffffffffffffffffffff1614610947576040517f08c379a000000000000000000000000000000000000000000000000000000000815260040161093e90610f48565b60405180910390fd5b600754831115801561095a575060008310155b610999576040517f08c379a000000000000000000000000000000000000000000000000000000000815260040161099090610f68565b60405180910390fd5b60075482111580156109ac575060008210155b80156109b85750828211155b6109f7576040517f08c379a00000000000000000000000000000000000000000000000000000000081526004016109ee90610ec8565b60405180910390fd5b82600481905550816005819055506007548111158015610a18575060008110155b610a57576040517f08c379a0000000000000000000000000000000000000000000000000000000008152600401610a4e90610f88565b60405180910390fd5b80600681905550505050565b50565b610a6e610c0f565b73ffffffffffffffffffffffffffffffffffffffff16610a8c6105c6565b73ffffffffffffffffffffffffffffffffffffffff1614610ae2576040517f08c379a0000000000000000000000000000000000000000000000000000000008152600401610ad990610f48565b60405180910390fd5b600073ffffffffffffffffffffffffffffffffffffffff168173ffffffffffffffffffffffffffffffffffffffff161415610b52576040517f08c379a0000000000000000000000000000000000000000000000000000000008152600401610b4990610ea8565b60405180910390fd5b8073ffffffffffffffffffffffffffffffffffffffff1660008054906101000a900473ffffffffffffffffffffffffffffffffffffffff1673ffffffffffffffffffffffffffffffffffffffff167f8be0079c531659141344cd1fd0a4f28419497f9722a3daafe3b4186f6b6457e060405160405180910390a3806000806101000a81548173ffffffffffffffffffffffffffffffffffffffff021916908373ffffffffffffffffffffffffffffffffffffffff16021790555050565b600033905090565b600081359050610c268161118a565b92915050565b600081519050610c3b816111a1565b92915050565b600081359050610c50816111b8565b92915050565b600060208284031215610c6857600080fd5b6000610c7684828501610c17565b91505092915050565b600060208284031215610c9157600080fd5b6000610c9f84828501610c2c565b91505092915050565b600060208284031215610cba57600080fd5b6000610cc884828501610c41565b91505092915050565b600080600060608486031215610ce657600080fd5b6000610cf486828701610c41565b9350506020610d0586828701610c41565b9250506040610d1686828701610c41565b9150509250925092565b610d2981610fd4565b82525050565b6000610d3c602683610fc3565b9150610d478261101c565b604082019050919050565b6000610d5f601883610fc3565b9150610d6a8261106b565b602082019050919050565b6000610d82601783610fc3565b9150610d8d82611094565b602082019050919050565b6000610da5602083610fc3565b9150610db0826110bd565b602082019050919050565b6000610dc8601e83610fc3565b9150610dd3826110e6565b602082019050919050565b6000610deb602083610fc3565b9150610df68261110f565b602082019050919050565b6000610e0e601883610fc3565b9150610e1982611138565b602082019050919050565b6000610e31601983610fc3565b9150610e3c82611161565b602082019050919050565b610e5081611012565b82525050565b6000602082019050610e6b6000830184610d20565b92915050565b6000606082019050610e866000830186610d20565b610e936020830185610d20565b610ea06040830184610e47565b949350505050565b60006020820190508181036000830152610ec181610d2f565b9050919050565b60006020820190508181036000830152610ee181610d52565b9050919050565b60006020820190508181036000830152610f0181610d75565b9050919050565b60006020820190508181036000830152610f2181610d98565b9050919050565b60006020820190508181036000830152610f4181610dbb565b9050919050565b60006020820190508181036000830152610f6181610dde565b9050919050565b60006020820190508181036000830152610f8181610e01565b9050919050565b60006020820190508181036000830152610fa181610e24565b9050919050565b6000602082019050610fbd6000830184610e47565b92915050565b600082825260208201905092915050565b6000610fdf82610ff2565b9050919050565b60008115159050919050565b600073ffffffffffffffffffffffffffffffffffffffff82169050919050565b6000819050919050565b7f4f776e61626c653a206e6577206f776e657220697320746865207a65726f206160008201527f6464726573730000000000000000000000000000000000000000000000000000602082015250565b7f6c69714665655368617265206f7574206f662072616e67650000000000000000600082015250565b7f6465706f736974207472616e73666572206661696c6564000000000000000000600082015250565b7f78535553484920636f6e7472616374206e6f74207a65726f2061646472657373600082015250565b7f7573647a20636f6e7472616374206e6f74207a65726f20616464726573730000600082015250565b7f4f776e61626c653a2063616c6c6572206973206e6f7420746865206f776e6572600082015250565b7f6c6971546f74616c466565206f7574206f662072616e67650000000000000000600082015250565b7f696e74657265737452617465206f7574206f662072616e676500000000000000600082015250565b61119381610fd4565b811461119e57600080fd5b50565b6111aa81610fe6565b81146111b557600080fd5b50565b6111c181611012565b81146111cc57600080fd5b5056fea2646970667358221220e0602e85238a96271d2e0464866f03843e47145c8d393444ebc83b35e679c1cd64736f6c63430008040033",
  "linkReferences": {},
  "deployedLinkReferences": {}
}