{
  "_format": "hh-sol-artifact-1",
  "contractName": "Controller",
  "sourceName": "contracts/Controller.sol",
  "abi": [
    {
      "inputs": [
        {
          "internalType": "address",
          "name": "_usdzAddress",
          "type": "address"
        },
        {
          "internalType": "address",
          "name": "_usdcAddress",
          "type": "address"
        },
        {
          "internalType": "address",
          "name": "_xSushiAddress",
          "type": "address"
        },
        {
          "internalType": "address",
          "name": "_routerAddress",
          "type": "address"
        },
        {
          "internalType": "address[]",
          "name": "_swapPath",
          "type": "address[]"
        },
        {
          "internalType": "uint256",
          "name": "_liqFeeProtocol",
          "type": "uint256"
        },
        {
          "internalType": "uint256",
          "name": "_liqFeeSender",
          "type": "uint256"
        },
        {
          "internalType": "uint256",
          "name": "_interestRate",
          "type": "uint256"
        },
        {
          "internalType": "uint256",
          "name": "_borrowThreshold",
          "type": "uint256"
        },
        {
          "internalType": "uint256",
          "name": "_liqThreshold",
          "type": "uint256"
        }
      ],
      "stateMutability": "nonpayable",
      "type": "constructor"
    },
    {
      "anonymous": false,
      "inputs": [
        {
          "indexed": true,
          "internalType": "address",
          "name": "account",
          "type": "address"
        },
        {
          "indexed": false,
          "internalType": "uint256",
          "name": "amountBorrowed",
          "type": "uint256"
        },
        {
          "indexed": false,
          "internalType": "uint256",
          "name": "totalDebt",
          "type": "uint256"
        },
        {
          "indexed": false,
          "internalType": "uint256",
          "name": "collateralAmount",
          "type": "uint256"
        }
      ],
      "name": "Borrow",
      "type": "event"
    },
    {
      "anonymous": false,
      "inputs": [
        {
          "indexed": true,
          "internalType": "address",
          "name": "account",
          "type": "address"
        },
        {
          "indexed": false,
          "internalType": "uint256",
          "name": "amount",
          "type": "uint256"
        }
      ],
      "name": "Deposit",
      "type": "event"
    },
    {
      "anonymous": false,
      "inputs": [
        {
          "indexed": true,
          "internalType": "address",
          "name": "account",
          "type": "address"
        },
        {
          "indexed": true,
          "internalType": "address",
          "name": "liquidator",
          "type": "address"
        },
        {
          "indexed": false,
          "internalType": "uint256",
          "name": "collateralLiquidated",
          "type": "uint256"
        },
        {
          "indexed": false,
          "internalType": "uint256",
          "name": "lastCollateralRatio",
          "type": "uint256"
        },
        {
          "indexed": false,
          "internalType": "uint256",
          "name": "lastDebtOutstanding",
          "type": "uint256"
        }
      ],
      "name": "Liquidation",
      "type": "event"
    },
    {
      "anonymous": false,
      "inputs": [
        {
          "indexed": true,
          "internalType": "address",
          "name": "previousOwner",
          "type": "address"
        },
        {
          "indexed": true,
          "internalType": "address",
          "name": "newOwner",
          "type": "address"
        }
      ],
      "name": "OwnershipTransferred",
      "type": "event"
    },
    {
      "anonymous": false,
      "inputs": [
        {
          "indexed": true,
          "internalType": "address",
          "name": "account",
          "type": "address"
        },
        {
          "indexed": false,
          "internalType": "uint256",
          "name": "debtRepaid",
          "type": "uint256"
        },
        {
          "indexed": false,
          "internalType": "uint256",
          "name": "debtRemaining",
          "type": "uint256"
        },
        {
          "indexed": false,
          "internalType": "uint256",
          "name": "collateralAmount",
          "type": "uint256"
        }
      ],
      "name": "Repay",
      "type": "event"
    },
    {
      "anonymous": false,
      "inputs": [
        {
          "indexed": true,
          "internalType": "address",
          "name": "account",
          "type": "address"
        },
        {
          "indexed": false,
          "internalType": "uint256",
          "name": "amount",
          "type": "uint256"
        }
      ],
      "name": "Withdraw",
      "type": "event"
    },
    {
      "inputs": [],
      "name": "SCALING_FACTOR",
      "outputs": [
        {
          "internalType": "uint256",
          "name": "",
          "type": "uint256"
        }
      ],
      "stateMutability": "view",
      "type": "function"
    },
    {
      "inputs": [],
      "name": "SECONDS_IN_YEAR",
      "outputs": [
        {
          "internalType": "int128",
          "name": "",
          "type": "int128"
        }
      ],
      "stateMutability": "view",
      "type": "function"
    },
    {
      "inputs": [
        {
          "internalType": "uint256",
          "name": "_amount",
          "type": "uint256"
        }
      ],
      "name": "borrow",
      "outputs": [],
      "stateMutability": "nonpayable",
      "type": "function"
    },
    {
      "inputs": [],
      "name": "borrowThreshold",
      "outputs": [
        {
          "internalType": "uint256",
          "name": "",
          "type": "uint256"
        }
      ],
      "stateMutability": "view",
      "type": "function"
    },
    {
      "inputs": [
        {
          "internalType": "address",
          "name": "_account",
          "type": "address"
        }
      ],
      "name": "calcInterest",
      "outputs": [
        {
          "internalType": "uint256",
          "name": "interest",
          "type": "uint256"
        }
      ],
      "stateMutability": "view",
      "type": "function"
    },
    {
      "inputs": [
        {
          "internalType": "uint256",
          "name": "_amount",
          "type": "uint256"
        }
      ],
      "name": "claimFees",
      "outputs": [],
      "stateMutability": "nonpayable",
      "type": "function"
    },
    {
      "inputs": [
        {
          "internalType": "uint256",
          "name": "_amount",
          "type": "uint256"
        }
      ],
      "name": "deposit",
      "outputs": [],
      "stateMutability": "nonpayable",
      "type": "function"
    },
    {
      "inputs": [
        {
          "internalType": "address",
          "name": "_account",
          "type": "address"
        }
      ],
      "name": "getCurrentCollateralRatio",
      "outputs": [
        {
          "internalType": "uint256",
          "name": "",
          "type": "uint256"
        }
      ],
      "stateMutability": "view",
      "type": "function"
    },
    {
      "inputs": [
        {
          "internalType": "address",
          "name": "_account",
          "type": "address"
        },
        {
          "internalType": "uint256",
          "name": "_totalDebt",
          "type": "uint256"
        }
      ],
      "name": "getForwardCollateralRatio",
      "outputs": [
        {
          "internalType": "uint256",
          "name": "",
          "type": "uint256"
        }
      ],
      "stateMutability": "view",
      "type": "function"
    },
    {
      "inputs": [
        {
          "internalType": "address",
          "name": "_account",
          "type": "address"
        }
      ],
      "name": "getLiquidationFees",
      "outputs": [
        {
          "internalType": "uint256",
          "name": "",
          "type": "uint256"
        }
      ],
      "stateMutability": "view",
      "type": "function"
    },
    {
      "inputs": [
        {
          "internalType": "address",
          "name": "_account",
          "type": "address"
        }
      ],
      "name": "getPosition",
      "outputs": [
        {
          "internalType": "uint256",
          "name": "",
          "type": "uint256"
        },
        {
          "internalType": "uint256",
          "name": "",
          "type": "uint256"
        },
        {
          "internalType": "uint256",
          "name": "",
          "type": "uint256"
        },
        {
          "internalType": "uint256",
          "name": "",
          "type": "uint256"
        }
      ],
      "stateMutability": "view",
      "type": "function"
    },
    {
      "inputs": [],
      "name": "interestRate",
      "outputs": [
        {
          "internalType": "uint256",
          "name": "",
          "type": "uint256"
        }
      ],
      "stateMutability": "view",
      "type": "function"
    },
    {
      "inputs": [],
      "name": "liqFeeProtocol",
      "outputs": [
        {
          "internalType": "uint256",
          "name": "",
          "type": "uint256"
        }
      ],
      "stateMutability": "view",
      "type": "function"
    },
    {
      "inputs": [],
      "name": "liqFeeSender",
      "outputs": [
        {
          "internalType": "uint256",
          "name": "",
          "type": "uint256"
        }
      ],
      "stateMutability": "view",
      "type": "function"
    },
    {
      "inputs": [],
      "name": "liqThreshold",
      "outputs": [
        {
          "internalType": "uint256",
          "name": "",
          "type": "uint256"
        }
      ],
      "stateMutability": "view",
      "type": "function"
    },
    {
      "inputs": [
        {
          "internalType": "address",
          "name": "_account",
          "type": "address"
        },
        {
          "internalType": "uint256",
          "name": "_maxDiscount",
          "type": "uint256"
        }
      ],
      "name": "liquidate",
      "outputs": [],
      "stateMutability": "nonpayable",
      "type": "function"
    },
    {
      "inputs": [],
      "name": "owner",
      "outputs": [
        {
          "internalType": "address",
          "name": "",
          "type": "address"
        }
      ],
      "stateMutability": "view",
      "type": "function"
    },
    {
      "inputs": [],
      "name": "protocolDebt",
      "outputs": [
        {
          "internalType": "uint256",
          "name": "",
          "type": "uint256"
        }
      ],
      "stateMutability": "view",
      "type": "function"
    },
    {
      "inputs": [],
      "name": "protocolIntRev",
      "outputs": [
        {
          "internalType": "uint256",
          "name": "",
          "type": "uint256"
        }
      ],
      "stateMutability": "view",
      "type": "function"
    },
    {
      "inputs": [],
      "name": "renounceOwnership",
      "outputs": [],
      "stateMutability": "nonpayable",
      "type": "function"
    },
    {
      "inputs": [
        {
          "internalType": "uint256",
          "name": "_amount",
          "type": "uint256"
        }
      ],
      "name": "repay",
      "outputs": [],
      "stateMutability": "nonpayable",
      "type": "function"
    },
    {
      "inputs": [
        {
          "internalType": "uint256",
          "name": "_liqFeeProtocol",
          "type": "uint256"
        },
        {
          "internalType": "uint256",
          "name": "_liqFeeSender",
          "type": "uint256"
        },
        {
          "internalType": "uint256",
          "name": "_interestRate",
          "type": "uint256"
        }
      ],
      "name": "setFeesAndRates",
      "outputs": [],
      "stateMutability": "nonpayable",
      "type": "function"
    },
    {
      "inputs": [
        {
          "internalType": "address",
          "name": "_sushiRouter",
          "type": "address"
        }
      ],
      "name": "setSushiAddresses",
      "outputs": [],
      "stateMutability": "nonpayable",
      "type": "function"
    },
    {
      "inputs": [
        {
          "internalType": "uint256",
          "name": "_borrowThreshold",
          "type": "uint256"
        },
        {
          "internalType": "uint256",
          "name": "_liqThreshold",
          "type": "uint256"
        }
      ],
      "name": "setThresholds",
      "outputs": [],
      "stateMutability": "nonpayable",
      "type": "function"
    },
    {
      "inputs": [
        {
          "internalType": "address",
          "name": "_usdz",
          "type": "address"
        },
        {
          "internalType": "address",
          "name": "_usdc",
          "type": "address"
        },
        {
          "internalType": "address",
          "name": "_xsushi",
          "type": "address"
        }
      ],
      "name": "setTokenAddresses",
      "outputs": [],
      "stateMutability": "nonpayable",
      "type": "function"
    },
    {
      "inputs": [],
      "name": "sushiRouterAddress",
      "outputs": [
        {
          "internalType": "address",
          "name": "",
          "type": "address"
        }
      ],
      "stateMutability": "view",
      "type": "function"
    },
    {
      "inputs": [
        {
          "internalType": "uint256",
          "name": "_usdcAmount",
          "type": "uint256"
        }
      ],
      "name": "swapUSDCforUSDZ",
      "outputs": [],
      "stateMutability": "nonpayable",
      "type": "function"
    },
    {
      "inputs": [
        {
          "internalType": "uint256",
          "name": "_usdzAmount",
          "type": "uint256"
        }
      ],
      "name": "swapUSDZforUSDC",
      "outputs": [],
      "stateMutability": "nonpayable",
      "type": "function"
    },
    {
      "inputs": [
        {
          "internalType": "address",
          "name": "newOwner",
          "type": "address"
        }
      ],
      "name": "transferOwnership",
      "outputs": [],
      "stateMutability": "nonpayable",
      "type": "function"
    },
    {
      "inputs": [],
      "name": "usdcAddress",
      "outputs": [
        {
          "internalType": "address",
          "name": "",
          "type": "address"
        }
      ],
      "stateMutability": "view",
      "type": "function"
    },
    {
      "inputs": [],
      "name": "usdzAddress",
      "outputs": [
        {
          "internalType": "address",
          "name": "",
          "type": "address"
        }
      ],
      "stateMutability": "view",
      "type": "function"
    },
    {
      "inputs": [
        {
          "internalType": "uint256",
          "name": "_amount",
          "type": "uint256"
        }
      ],
      "name": "withdraw",
      "outputs": [],
      "stateMutability": "nonpayable",
      "type": "function"
    },
    {
      "inputs": [],
      "name": "xSushiAddress",
      "outputs": [
        {
          "internalType": "address",
          "name": "",
          "type": "address"
        }
      ],
      "stateMutability": "view",
      "type": "function"
    },
    {
      "inputs": [
        {
          "internalType": "uint256",
          "name": "",
          "type": "uint256"
        }
      ],
      "name": "xSushiToUsdcPath",
      "outputs": [
        {
          "internalType": "address",
          "name": "",
          "type": "address"
        }
      ],
      "stateMutability": "view",
      "type": "function"
    }
  ],
  "bytecode": "0x60806040523480156200001157600080fd5b50604051620051b1380380620051b1833981810160405281019062000037919062000586565b600062000049620003c560201b60201c565b9050806000806101000a81548173ffffffffffffffffffffffffffffffffffffffff021916908373ffffffffffffffffffffffffffffffffffffffff1602179055508073ffffffffffffffffffffffffffffffffffffffff16600073ffffffffffffffffffffffffffffffffffffffff167f8be0079c531659141344cd1fd0a4f28419497f9722a3daafe3b4186f6b6457e060405160405180910390a35089600660006101000a81548173ffffffffffffffffffffffffffffffffffffffff021916908373ffffffffffffffffffffffffffffffffffffffff16021790555088600560006101000a81548173ffffffffffffffffffffffffffffffffffffffff021916908373ffffffffffffffffffffffffffffffffffffffff16021790555087600760006101000a81548173ffffffffffffffffffffffffffffffffffffffff021916908373ffffffffffffffffffffffffffffffffffffffff16021790555086600860006101000a81548173ffffffffffffffffffffffffffffffffffffffff021916908373ffffffffffffffffffffffffffffffffffffffff16021790555084600a8190555083600b8190555082600c8190555081600d8190555080600e81905550856009908051906020019062000226929190620003f1565b50620002416301e18558620003cd60201b620026e61760201c565b600f60006101000a8154816fffffffffffffffffffffffffffffffff0219169083600f0b6fffffffffffffffffffffffffffffffff160217905550600760009054906101000a900473ffffffffffffffffffffffffffffffffffffffff1673ffffffffffffffffffffffffffffffffffffffff1663095ea7b3600860009054906101000a900473ffffffffffffffffffffffffffffffffffffffff167fffffffffffffffffffffffffffffffffffffffffffffffffffffffffffffffff6040518363ffffffff1660e01b81526004016200031d9291906200071f565b602060405180830381600087803b1580156200033857600080fd5b505af11580156200034d573d6000803e3d6000fd5b505050506040513d601f19601f820116820180604052508101906200037391906200068f565b620003b5576040517f08c379a0000000000000000000000000000000000000000000000000000000008152600401620003ac906200074c565b60405180910390fd5b50505050505050505050620008a9565b600033905090565b6000677fffffffffffffff821115620003e557600080fd5b604082901b9050919050565b8280548282559060005260206000209081019282156200046d579160200282015b828111156200046c5782518260006101000a81548173ffffffffffffffffffffffffffffffffffffffff021916908373ffffffffffffffffffffffffffffffffffffffff1602179055509160200191906001019062000412565b5b5090506200047c919062000480565b5090565b5b808211156200049b57600081600090555060010162000481565b5090565b6000620004b6620004b084620007a2565b6200076e565b90508083825260208201905082856020860282011115620004d657600080fd5b60005b858110156200050a5781620004ef888262000514565b845260208401935060208301925050600181019050620004d9565b5050509392505050565b60008151905062000525816200085b565b92915050565b600082601f8301126200053d57600080fd5b81516200054f8482602086016200049f565b91505092915050565b600081519050620005698162000875565b92915050565b60008151905062000580816200088f565b92915050565b6000806000806000806000806000806101408b8d031215620005a757600080fd5b6000620005b78d828e0162000514565b9a50506020620005ca8d828e0162000514565b9950506040620005dd8d828e0162000514565b9850506060620005f08d828e0162000514565b97505060808b015167ffffffffffffffff8111156200060e57600080fd5b6200061c8d828e016200052b565b96505060a06200062f8d828e016200056f565b95505060c0620006428d828e016200056f565b94505060e0620006558d828e016200056f565b935050610100620006698d828e016200056f565b9250506101206200067d8d828e016200056f565b9150509295989b9194979a5092959850565b600060208284031215620006a257600080fd5b6000620006b28482850162000558565b91505092915050565b620006c681620007e2565b82525050565b6000620006db601583620007d1565b91507f78737573686920617070726f7665206661696c656400000000000000000000006000830152602082019050919050565b620007198162000822565b82525050565b6000604082019050620007366000830185620006bb565b6200074560208301846200070e565b9392505050565b600060208201905081810360008301526200076781620006cc565b9050919050565b6000604051905081810181811067ffffffffffffffff821117156200079857620007976200082c565b5b8060405250919050565b600067ffffffffffffffff821115620007c057620007bf6200082c565b5b602082029050602081019050919050565b600082825260208201905092915050565b6000620007ef8262000802565b9050919050565b60008115159050919050565b600073ffffffffffffffffffffffffffffffffffffffff82169050919050565b6000819050919050565b7f4e487b7100000000000000000000000000000000000000000000000000000000600052604160045260246000fd5b6200086681620007e2565b81146200087257600080fd5b50565b6200088081620007f6565b81146200088c57600080fd5b50565b6200089a8162000822565b8114620008a657600080fd5b50565b6148f880620008b96000396000f3fe608060405234801561001057600080fd5b50600436106102065760003560e01c80637c3a00fd1161011a578063bdfccad3116100ad578063daf5539e1161007c578063daf5539e146105a6578063e3064a77146105d6578063ef4cadc5146105f2578063f248e7e814610610578063f2fde38b1461062c57610206565b8063bdfccad314610534578063bfaf48d414610552578063c5ebeaec1461056e578063cde5f6721461058a57610206565b8063ae2293d7116100e9578063ae2293d7146104c0578063b6b55f25146104de578063bcbaf487146104fa578063bd48b2df1461051657610206565b80637c3a00fd1461044a5780638da5cb5b14610468578063927e0a8f14610486578063ac68a748146104a457610206565b80634a63a5ce1161019d57806369cb89c71161016c57806369cb89c7146103a45780637046b7a9146103d4578063715018a614610404578063734872511461040e57806379bbce8f1461042c57610206565b80634a63a5ce1461031c5780634d3f9d3e1461034c5780635ae547e3146103685780635dcc93911461038657610206565b806320bdf800116101d957806320bdf800146102a85780632e1a7d4d146102c6578063371fd8e6146102e2578063410e73f7146102fe57610206565b806302d454571461020b57806316c19739146102295780631d89b1031461025c57806320809c6b14610278575b600080fd5b610213610648565b60405161022091906140a0565b60405180910390f35b610243600480360381019061023e919061375f565b61066e565b6040516102539493929190614529565b60405180910390f35b6102766004803603810190610271919061387d565b61075f565b005b610292600480360381019061028d919061375f565b610994565b60405161029f919061444d565b60405180910390f35b6102b06109dd565b6040516102bd91906140a0565b60405180910390f35b6102e060048036038101906102db919061387d565b610a03565b005b6102fc60048036038101906102f7919061387d565b610cf5565b005b610306611020565b604051610313919061444d565b60405180910390f35b6103366004803603810190610331919061387d565b611026565b60405161034391906140a0565b60405180910390f35b61036660048036038101906103619190613788565b611065565b005b61037061128b565b60405161037d919061444d565b60405180910390f35b61038e611291565b60405161039b919061411b565b60405180910390f35b6103be60048036038101906103b9919061375f565b6112a4565b6040516103cb919061444d565b60405180910390f35b6103ee60048036038101906103e991906137d7565b611513565b6040516103fb919061444d565b60405180910390f35b61040c611527565b005b610416611661565b604051610423919061444d565b60405180910390f35b610434611667565b60405161044191906140a0565b60405180910390f35b61045261168d565b60405161045f919061444d565b60405180910390f35b610470611693565b60405161047d91906140a0565b60405180910390f35b61048e6116bc565b60405161049b919061444d565b60405180910390f35b6104be60048036038101906104b9919061387d565b6116c2565b005b6104c86116c5565b6040516104d5919061444d565b60405180910390f35b6104f860048036038101906104f3919061387d565b6116cb565b005b610514600480360381019061050f91906137d7565b611865565b005b61051e611d66565b60405161052b919061444d565b60405180910390f35b61053c611d6c565b60405161054991906140a0565b60405180910390f35b61056c6004803603810190610567919061390b565b611d92565b005b6105886004803603810190610583919061387d565b611ebd565b005b6105a4600480360381019061059f919061387d565b6120d5565b005b6105c060048036038101906105bb919061375f565b61229a565b6040516105cd919061444d565b60405180910390f35b6105f060048036038101906105eb91906138cf565b6122ef565b005b6105fa612407565b604051610607919061444d565b60405180910390f35b61062a6004803603810190610625919061375f565b61240d565b005b6106466004803603810190610641919061375f565b61253d565b005b600560009054906101000a900473ffffffffffffffffffffffffffffffffffffffff1681565b60008060008061067d856112a4565b50600160008673ffffffffffffffffffffffffffffffffffffffff1673ffffffffffffffffffffffffffffffffffffffff16815260200190815260200160002060000154600160008773ffffffffffffffffffffffffffffffffffffffff1673ffffffffffffffffffffffffffffffffffffffff1681526020019081526020016000206001015461070d876112a4565b600160008973ffffffffffffffffffffffffffffffffffffffff1673ffffffffffffffffffffffffffffffffffffffff1681526020019081526020016000206002015493509350935093509193509193565b6000600560009054906101000a900473ffffffffffffffffffffffffffffffffffffffff1673ffffffffffffffffffffffffffffffffffffffff166370a08231306040518263ffffffff1660e01b81526004016107bc91906140a0565b60206040518083038186803b1580156107d457600080fd5b505afa1580156107e8573d6000803e3d6000fd5b505050506040513d601f19601f8201168201806040525081019061080c91906138a6565b905081811015610851576040517f08c379a0000000000000000000000000000000000000000000000000000000008152600401610848906142ed565b60405180910390fd5b600660009054906101000a900473ffffffffffffffffffffffffffffffffffffffff1673ffffffffffffffffffffffffffffffffffffffff16639dc29fac33846040518363ffffffff1660e01b81526004016108ae9291906140f2565b600060405180830381600087803b1580156108c857600080fd5b505af11580156108dc573d6000803e3d6000fd5b50505050600560009054906101000a900473ffffffffffffffffffffffffffffffffffffffff1673ffffffffffffffffffffffffffffffffffffffff1663a9059cbb33846040518363ffffffff1660e01b815260040161093d9291906140f2565b602060405180830381600087803b15801561095757600080fd5b505af115801561096b573d6000803e3d6000fd5b505050506040513d601f19601f8201168201806040525081019061098f9190613854565b505050565b6000600260008373ffffffffffffffffffffffffffffffffffffffff1673ffffffffffffffffffffffffffffffffffffffff168152602001908152602001600020549050919050565b600660009054906101000a900473ffffffffffffffffffffffffffffffffffffffff1681565b6000600160003373ffffffffffffffffffffffffffffffffffffffff1673ffffffffffffffffffffffffffffffffffffffff16815260200190815260200160002090508181600001541015610a8d576040517f08c379a0000000000000000000000000000000000000000000000000000000008152600401610a849061442d565b60405180910390fd5b6000610a98336112a4565b905080826001016000828254610aae919061461a565b925050819055504282600201819055506000610ac93361229a565b9050600d548111610b0f576040517f08c379a0000000000000000000000000000000000000000000000000000000008152600401610b06906141cd565b60405180910390fd5b60008084600101541415610b295783600001549050610b54565b600d5482610b3791906146fb565b828560000154610b479190614670565b610b5191906146a1565b90505b84811015610b97576040517f08c379a0000000000000000000000000000000000000000000000000000000008152600401610b8e9061428d565b60405180910390fd5b84846000016000828254610bab91906146fb565b92505081905550600760009054906101000a900473ffffffffffffffffffffffffffffffffffffffff1673ffffffffffffffffffffffffffffffffffffffff1663a9059cbb33876040518363ffffffff1660e01b8152600401610c0f9291906140f2565b602060405180830381600087803b158015610c2957600080fd5b505af1158015610c3d573d6000803e3d6000fd5b505050506040513d601f19601f82011682018060405250810190610c619190613854565b610ca0576040517f08c379a0000000000000000000000000000000000000000000000000000000008152600401610c979061424d565b60405180910390fd5b3373ffffffffffffffffffffffffffffffffffffffff167f884edad9ce6fa2440d8a54cc123490eb96d2768479d49ff9c7366125a942436486604051610ce6919061444d565b60405180910390a25050505050565b60008111610d38576040517f08c379a0000000000000000000000000000000000000000000000000000000008152600401610d2f9061434d565b60405180910390fd5b6000600160003373ffffffffffffffffffffffffffffffffffffffff1673ffffffffffffffffffffffffffffffffffffffff1681526020019081526020016000209050610d84336112a4565b816001016000828254610d97919061461a565b925050819055504281600201819055508181600101541115610ec357600660009054906101000a900473ffffffffffffffffffffffffffffffffffffffff1673ffffffffffffffffffffffffffffffffffffffff166323b872dd3330856040518463ffffffff1660e01b8152600401610e12939291906140bb565b602060405180830381600087803b158015610e2c57600080fd5b505af1158015610e40573d6000803e3d6000fd5b505050506040513d601f19601f82011682018060405250810190610e649190613854565b610ea3576040517f08c379a0000000000000000000000000000000000000000000000000000000008152600401610e9a9061430d565b60405180910390fd5b81816001016000828254610eb791906146fb565b92505081905550610fc2565b600660009054906101000a900473ffffffffffffffffffffffffffffffffffffffff1673ffffffffffffffffffffffffffffffffffffffff166323b872dd333084600101546040518463ffffffff1660e01b8152600401610f26939291906140bb565b602060405180830381600087803b158015610f4057600080fd5b505af1158015610f54573d6000803e3d6000fd5b505050506040513d601f19601f82011682018060405250810190610f789190613854565b610fb7576040517f08c379a0000000000000000000000000000000000000000000000000000000008152600401610fae9061430d565b60405180910390fd5b600081600101819055505b3373ffffffffffffffffffffffffffffffffffffffff167f2fe77b1c99aca6b022b8efc6e3e8dd1b48b30748709339b65c50ef3263443e098383600101548460000154604051611014939291906144f2565b60405180910390a25050565b600a5481565b6009818154811061103657600080fd5b906000526020600020016000915054906101000a900473ffffffffffffffffffffffffffffffffffffffff1681565b61106d612709565b73ffffffffffffffffffffffffffffffffffffffff1661108b611693565b73ffffffffffffffffffffffffffffffffffffffff16146110e1576040517f08c379a00000000000000000000000000000000000000000000000000000000081526004016110d89061432d565b60405180910390fd5b600073ffffffffffffffffffffffffffffffffffffffff168373ffffffffffffffffffffffffffffffffffffffff161415801561114b5750600073ffffffffffffffffffffffffffffffffffffffff168273ffffffffffffffffffffffffffffffffffffffff1614155b80156111845750600073ffffffffffffffffffffffffffffffffffffffff168173ffffffffffffffffffffffffffffffffffffffff1614155b6111c3576040517f08c379a00000000000000000000000000000000000000000000000000000000081526004016111ba906142cd565b60405180910390fd5b82600660006101000a81548173ffffffffffffffffffffffffffffffffffffffff021916908373ffffffffffffffffffffffffffffffffffffffff16021790555081600560006101000a81548173ffffffffffffffffffffffffffffffffffffffff021916908373ffffffffffffffffffffffffffffffffffffffff16021790555080600760006101000a81548173ffffffffffffffffffffffffffffffffffffffff021916908373ffffffffffffffffffffffffffffffffffffffff160217905550505050565b600d5481565b600f60009054906101000a9004600f0b81565b600080600160008473ffffffffffffffffffffffffffffffffffffffff1673ffffffffffffffffffffffffffffffffffffffff16815260200190815260200160002060010154148061133857506000600160008473ffffffffffffffffffffffffffffffffffffffff1673ffffffffffffffffffffffffffffffffffffffff16815260200190815260200160002060020154145b8061134557506000600c54145b806113915750600160008373ffffffffffffffffffffffffffffffffffffffff1673ffffffffffffffffffffffffffffffffffffffff1681526020019081526020016000206002015442145b1561139f576000905061150e565b6000600160008473ffffffffffffffffffffffffffffffffffffffff1673ffffffffffffffffffffffffffffffffffffffff16815260200190815260200160002060020154426113ef91906146fb565b905060006114146113ff836126e6565b600f60009054906101000a9004600f0b612711565b90506000611436611426600c546126e6565b6114316127106126e6565b612711565b90506000611485600160008873ffffffffffffffffffffffffffffffffffffffff1673ffffffffffffffffffffffffffffffffffffffff168152602001908152602001600020600101546126e6565b905060006114ac6114a7836114a261149d87896127c1565b61282c565b6127c1565b6128a5565b9050600160008873ffffffffffffffffffffffffffffffffffffffff1673ffffffffffffffffffffffffffffffffffffffff168152602001908152602001600020600101548167ffffffffffffffff1661150691906146fb565b955050505050505b919050565b600061151f83836128c6565b905092915050565b61152f612709565b73ffffffffffffffffffffffffffffffffffffffff1661154d611693565b73ffffffffffffffffffffffffffffffffffffffff16146115a3576040517f08c379a000000000000000000000000000000000000000000000000000000000815260040161159a9061432d565b60405180910390fd5b600073ffffffffffffffffffffffffffffffffffffffff1660008054906101000a900473ffffffffffffffffffffffffffffffffffffffff1673ffffffffffffffffffffffffffffffffffffffff167f8be0079c531659141344cd1fd0a4f28419497f9722a3daafe3b4186f6b6457e060405160405180910390a360008060006101000a81548173ffffffffffffffffffffffffffffffffffffffff021916908373ffffffffffffffffffffffffffffffffffffffff160217905550565b60045481565b600860009054906101000a900473ffffffffffffffffffffffffffffffffffffffff1681565b600c5481565b60008060009054906101000a900473ffffffffffffffffffffffffffffffffffffffff16905090565b60035481565b50565b600e5481565b600760009054906101000a900473ffffffffffffffffffffffffffffffffffffffff1673ffffffffffffffffffffffffffffffffffffffff166323b872dd3330846040518463ffffffff1660e01b815260040161172a939291906140bb565b602060405180830381600087803b15801561174457600080fd5b505af1158015611758573d6000803e3d6000fd5b505050506040513d601f19601f8201168201806040525081019061177c9190613854565b6117bb576040517f08c379a00000000000000000000000000000000000000000000000000000000081526004016117b2906143cd565b60405180910390fd5b80600160003373ffffffffffffffffffffffffffffffffffffffff1673ffffffffffffffffffffffffffffffffffffffff168152602001908152602001600020600001600082825461180d919061461a565b925050819055503373ffffffffffffffffffffffffffffffffffffffff167fe1fffcc4923d04b559f4d29a8bfc6cda04eb5b0d3c460751c2402c5c5cc9109c8260405161185a919061444d565b60405180910390a250565b6000600160008473ffffffffffffffffffffffffffffffffffffffff1673ffffffffffffffffffffffffffffffffffffffff168152602001908152602001600020905060008160000154116118ef576040517f08c379a00000000000000000000000000000000000000000000000000000000081526004016118e69061422d565b60405180910390fd5b60006118fa846112a4565b9050600e5461191885838560010154611913919061461a565b611513565b10611958576040517f08c379a000000000000000000000000000000000000000000000000000000000815260040161194f906143ad565b60405180910390fd5b6000612710600a54846000015461196f91906146a1565b6119799190614670565b90506000612710600a54856000015461199291906146a1565b61199c9190614670565b9050836000015481836119af919061461a565b11156119f0576040517f08c379a00000000000000000000000000000000000000000000000000000000081526004016119e79061436d565b60405180910390fd5b612710851115611a35576040517f08c379a0000000000000000000000000000000000000000000000000000000008152600401611a2c9061438d565b60405180910390fd5b81600260003073ffffffffffffffffffffffffffffffffffffffff1673ffffffffffffffffffffffffffffffffffffffff1681526020019081526020016000206000828254611a84919061461a565b9250508190555080600260003373ffffffffffffffffffffffffffffffffffffffff1673ffffffffffffffffffffffffffffffffffffffff1681526020019081526020016000206000828254611ada919061461a565b925050819055506000600860009054906101000a900473ffffffffffffffffffffffffffffffffffffffff1673ffffffffffffffffffffffffffffffffffffffff1663d06ca61f866000015460096040518363ffffffff1660e01b8152600401611b45929190614468565b60006040518083038186803b158015611b5d57600080fd5b505afa158015611b71573d6000803e3d6000fd5b505050506040513d6000823e3d601f19601f82011682018060405250810190611b9a9190613813565b600281518110611bd3577f4e487b7100000000000000000000000000000000000000000000000000000000600052603260045260246000fd5b602002602001015190506000600860009054906101000a900473ffffffffffffffffffffffffffffffffffffffff1690508073ffffffffffffffffffffffffffffffffffffffff166338ed17398486611c2c919061461a565b8860000154611c3b91906146fb565b6127108a612710611c4c91906146fb565b86611c5791906146a1565b611c619190614670565b600930426040518663ffffffff1660e01b8152600401611c85959493929190614498565b600060405180830381600087803b158015611c9f57600080fd5b505af1158015611cb3573d6000803e3d6000fd5b505050506040513d6000823e3d601f19601f82011682018060405250810190611cdc9190613813565b5060008660000181905550600086600101819055503373ffffffffffffffffffffffffffffffffffffffff168873ffffffffffffffffffffffffffffffffffffffff167f5a821a618ddb1a1fd304234a69c9d7f20c129d122fcf35593d13a071926643076000806000604051611d5493929190614136565b60405180910390a35050505050505050565b600b5481565b600760009054906101000a900473ffffffffffffffffffffffffffffffffffffffff1681565b611d9a612709565b73ffffffffffffffffffffffffffffffffffffffff16611db8611693565b73ffffffffffffffffffffffffffffffffffffffff1614611e0e576040517f08c379a0000000000000000000000000000000000000000000000000000000008152600401611e059061432d565b60405180910390fd5b6127108284611e1d919061461a565b1115611e5e576040517f08c379a0000000000000000000000000000000000000000000000000000000008152600401611e55906142ad565b60405180910390fd5b82600a8190555081600b81905550612710811115611eb1576040517f08c379a0000000000000000000000000000000000000000000000000000000008152600401611ea8906143ed565b60405180910390fd5b80600c81905550505050565b60008111611f00576040517f08c379a0000000000000000000000000000000000000000000000000000000008152600401611ef79061420d565b60405180910390fd5b6000600160003373ffffffffffffffffffffffffffffffffffffffff1673ffffffffffffffffffffffffffffffffffffffff16815260200190815260200160002090506000611f4e336112a4565b9050600d54611f773385848660010154611f68919061461a565b611f72919061461a565b611513565b1015611fb8576040517f08c379a0000000000000000000000000000000000000000000000000000000008152600401611faf9061418d565b60405180910390fd5b8083611fc4919061461a565b826001016000828254611fd7919061461a565b92505081905550428260020181905550600660009054906101000a900473ffffffffffffffffffffffffffffffffffffffff1673ffffffffffffffffffffffffffffffffffffffff166340c10f1933856040518363ffffffff1660e01b81526004016120449291906140f2565b600060405180830381600087803b15801561205e57600080fd5b505af1158015612072573d6000803e3d6000fd5b505050503373ffffffffffffffffffffffffffffffffffffffff167f13ed6866d4e1ee6da46f845c46d7e54120883d75c5ea9a2dacc1c4ca8984ab8084846001015485600001546040516120c8939291906144f2565b60405180910390a2505050565b60008111612118576040517f08c379a000000000000000000000000000000000000000000000000000000000815260040161210f906141ed565b60405180910390fd5b600560009054906101000a900473ffffffffffffffffffffffffffffffffffffffff1673ffffffffffffffffffffffffffffffffffffffff166323b872dd3330846040518463ffffffff1660e01b8152600401612177939291906140bb565b602060405180830381600087803b15801561219157600080fd5b505af11580156121a5573d6000803e3d6000fd5b505050506040513d601f19601f820116820180604052508101906121c99190613854565b612208576040517f08c379a00000000000000000000000000000000000000000000000000000000081526004016121ff9061416d565b60405180910390fd5b600660009054906101000a900473ffffffffffffffffffffffffffffffffffffffff1673ffffffffffffffffffffffffffffffffffffffff166340c10f1933836040518363ffffffff1660e01b81526004016122659291906140f2565b600060405180830381600087803b15801561227f57600080fd5b505af1158015612293573d6000803e3d6000fd5b5050505050565b60006122e882600160008573ffffffffffffffffffffffffffffffffffffffff1673ffffffffffffffffffffffffffffffffffffffff168152602001908152602001600020600101546128c6565b9050919050565b6122f7612709565b73ffffffffffffffffffffffffffffffffffffffff16612315611693565b73ffffffffffffffffffffffffffffffffffffffff161461236b576040517f08c379a00000000000000000000000000000000000000000000000000000000081526004016123629061432d565b60405180910390fd5b6127108210156123b0576040517f08c379a00000000000000000000000000000000000000000000000000000000081526004016123a79061426d565b60405180910390fd5b6127108110156123f5576040517f08c379a00000000000000000000000000000000000000000000000000000000081526004016123ec9061440d565b60405180910390fd5b81600d8190555080600e819055505050565b61271081565b612415612709565b73ffffffffffffffffffffffffffffffffffffffff16612433611693565b73ffffffffffffffffffffffffffffffffffffffff1614612489576040517f08c379a00000000000000000000000000000000000000000000000000000000081526004016124809061432d565b60405180910390fd5b600073ffffffffffffffffffffffffffffffffffffffff168173ffffffffffffffffffffffffffffffffffffffff1614156124f9576040517f08c379a00000000000000000000000000000000000000000000000000000000081526004016124f0906142cd565b60405180910390fd5b80600860006101000a81548173ffffffffffffffffffffffffffffffffffffffff021916908373ffffffffffffffffffffffffffffffffffffffff16021790555050565b612545612709565b73ffffffffffffffffffffffffffffffffffffffff16612563611693565b73ffffffffffffffffffffffffffffffffffffffff16146125b9576040517f08c379a00000000000000000000000000000000000000000000000000000000081526004016125b09061432d565b60405180910390fd5b600073ffffffffffffffffffffffffffffffffffffffff168173ffffffffffffffffffffffffffffffffffffffff161415612629576040517f08c379a0000000000000000000000000000000000000000000000000000000008152600401612620906141ad565b60405180910390fd5b8073ffffffffffffffffffffffffffffffffffffffff1660008054906101000a900473ffffffffffffffffffffffffffffffffffffffff1673ffffffffffffffffffffffffffffffffffffffff167f8be0079c531659141344cd1fd0a4f28419497f9722a3daafe3b4186f6b6457e060405160405180910390a3806000806101000a81548173ffffffffffffffffffffffffffffffffffffffff021916908373ffffffffffffffffffffffffffffffffffffffff16021790555050565b6000677fffffffffffffff8211156126fd57600080fd5b604082901b9050919050565b600033905090565b60008082600f0b141561272357600080fd5b600082600f0b604085600f0b901b81612765577f4e487b7100000000000000000000000000000000000000000000000000000000600052601260045260246000fd5b0590507fffffffffffffffffffffffffffffffff80000000000000000000000000000000600f0b81121580156127ae57506f7fffffffffffffffffffffffffffffff600f0b8113155b6127b757600080fd5b8091505092915050565b600080604083600f0b85600f0b02901d90507fffffffffffffffffffffffffffffffff80000000000000000000000000000000600f0b811215801561281957506f7fffffffffffffffffffffffffffffff600f0b8113155b61282257600080fd5b8091505092915050565b60006840000000000000000082600f0b1261284657600080fd5b7fffffffffffffffffffffffffffffffffffffffffffffffc0000000000000000082600f0b121561287a57600090506128a0565b61289d6080700171547652b82fe1777d0ffda0d23a7d1284600f0b02901d612a75565b90505b919050565b60008082600f0b12156128b757600080fd5b604082600f0b901d9050919050565b600080600160008573ffffffffffffffffffffffffffffffffffffffff1673ffffffffffffffffffffffffffffffffffffffff1681526020019081526020016000206000015490506000811415612921576000915050612a6f565b6000831415612953577fffffffffffffffffffffffffffffffffffffffffffffffffffffffffffffffff915050612a6f565b6000600860009054906101000a900473ffffffffffffffffffffffffffffffffffffffff16905060008173ffffffffffffffffffffffffffffffffffffffff1663d06ca61f8460096040518363ffffffff1660e01b81526004016129b8929190614468565b60006040518083038186803b1580156129d057600080fd5b505afa1580156129e4573d6000803e3d6000fd5b505050506040513d6000823e3d601f19601f82011682018060405250810190612a0d9190613813565b600281518110612a46577f4e487b7100000000000000000000000000000000000000000000000000000000600052603260045260246000fd5b602002602001015190508461271082612a5f91906146a1565b612a699190614670565b93505050505b92915050565b60006840000000000000000082600f0b12612a8f57600080fd5b7fffffffffffffffffffffffffffffffffffffffffffffffc0000000000000000082600f0b1215612ac35760009050613670565b60006f80000000000000000000000000000000905060006780000000000000008416600f0b1315612b0957608070016a09e667f3bcc908b2fb1366ea957d3e8202901c90505b60006740000000000000008416600f0b1315612b3a5760807001306fe0a31b7152de8d5a46305c85edec8202901c90505b60006720000000000000008416600f0b1315612b6b5760807001172b83c7d517adcdf7c8c50eb14a791f8202901c90505b60006710000000000000008416600f0b1315612b9c57608070010b5586cf9890f6298b92b71842a983638202901c90505b60006708000000000000008416600f0b1315612bcd5760807001059b0d31585743ae7c548eb68ca417fd8202901c90505b60006704000000000000008416600f0b1315612bfe576080700102c9a3e778060ee6f7caca4f7a29bde88202901c90505b60006702000000000000008416600f0b1315612c2f57608070010163da9fb33356d84a66ae336dcdfa3f8202901c90505b60006701000000000000008416600f0b1315612c60576080700100b1afa5abcbed6129ab13ec11dc95438202901c90505b600066800000000000008416600f0b1315612c9057608070010058c86da1c09ea1ff19d294cf2f679b8202901c90505b600066400000000000008416600f0b1315612cc05760807001002c605e2e8cec506d21bfc89a23a00f8202901c90505b600066200000000000008416600f0b1315612cf0576080700100162f3904051fa128bca9c55c31e5df8202901c90505b600066100000000000008416600f0b1315612d205760807001000b175effdc76ba38e31671ca9397258202901c90505b600066080000000000008416600f0b1315612d50576080700100058ba01fb9f96d6cacd4b180917c3d8202901c90505b600066040000000000008416600f0b1315612d8057608070010002c5cc37da9491d0985c348c68e7b38202901c90505b600066020000000000008416600f0b1315612db05760807001000162e525ee054754457d59952920268202901c90505b600066010000000000008416600f0b1315612de057608070010000b17255775c040618bf4a4ade83fc8202901c90505b6000658000000000008416600f0b1315612e0f5760807001000058b91b5bc9ae2eed81e9b7d4cfab8202901c90505b6000654000000000008416600f0b1315612e3e576080700100002c5c89d5ec6ca4d7c8acc017b7c98202901c90505b6000652000000000008416600f0b1315612e6d57608070010000162e43f4f831060e02d839a9d16d8202901c90505b6000651000000000008416600f0b1315612e9c576080700100000b1721bcfc99d9f890ea069117638202901c90505b6000650800000000008416600f0b1315612ecb57608070010000058b90cf1e6d97f9ca14dbcc16288202901c90505b6000650400000000008416600f0b1315612efa5760807001000002c5c863b73f016468f6bac5ca2b8202901c90505b6000650200000000008416600f0b1315612f29576080700100000162e430e5a18f6119e3c02282a58202901c90505b6000650100000000008416600f0b1315612f585760807001000000b1721835514b86e6d96efd1bfe8202901c90505b60006480000000008416600f0b1315612f86576080700100000058b90c0b48c6be5df846c5b2ef8202901c90505b60006440000000008416600f0b1315612fb457608070010000002c5c8601cc6b9e94213c72737a8202901c90505b60006420000000008416600f0b1315612fe25760807001000000162e42fff037df38aa2b219f068202901c90505b60006410000000008416600f0b131561301057608070010000000b17217fba9c739aa5819f44f98202901c90505b60006408000000008416600f0b131561303e5760807001000000058b90bfcdee5acd3c1cedc8238202901c90505b60006404000000008416600f0b131561306c576080700100000002c5c85fe31f35a6a30da1be508202901c90505b60006402000000008416600f0b131561309a57608070010000000162e42ff0999ce3541b9fffcf8202901c90505b60006401000000008416600f0b13156130c8576080700100000000b17217f80f4ef5aadda455548202901c90505b600063800000008416600f0b13156130f557608070010000000058b90bfbf8479bd5a81b51ad8202901c90505b600063400000008416600f0b13156131225760807001000000002c5c85fdf84bd62ae30a74cc8202901c90505b600063200000008416600f0b131561314f576080700100000000162e42fefb2fed257559bdaa8202901c90505b600063100000008416600f0b131561317c5760807001000000000b17217f7d5a7716bba4a9ae8202901c90505b600063080000008416600f0b13156131a9576080700100000000058b90bfbe9ddbac5e109cce8202901c90505b600063040000008416600f0b13156131d657608070010000000002c5c85fdf4b15de6f17eb0d8202901c90505b600063020000008416600f0b13156132035760807001000000000162e42fefa494f1478fde058202901c90505b600063010000008416600f0b131561323057608070010000000000b17217f7d20cf927c8e94c8202901c90505b6000628000008416600f0b131561325c5760807001000000000058b90bfbe8f71cb4e4b33d8202901c90505b6000624000008416600f0b1315613288576080700100000000002c5c85fdf477b662b269458202901c90505b6000622000008416600f0b13156132b457608070010000000000162e42fefa3ae53369388c8202901c90505b6000621000008416600f0b13156132e0576080700100000000000b17217f7d1d351a389d408202901c90505b6000620800008416600f0b131561330c57608070010000000000058b90bfbe8e8b2d3d4ede8202901c90505b6000620400008416600f0b13156133385760807001000000000002c5c85fdf4741bea6e77e8202901c90505b6000620200008416600f0b1315613364576080700100000000000162e42fefa39fe95583c28202901c90505b6000620100008416600f0b13156133905760807001000000000000b17217f7d1cfb72b45e18202901c90505b60006180008416600f0b13156133bb576080700100000000000058b90bfbe8e7cc35c3f08202901c90505b60006140008416600f0b13156133e657608070010000000000002c5c85fdf473e242ea388202901c90505b60006120008416600f0b13156134115760807001000000000000162e42fefa39f02b772c8202901c90505b60006110008416600f0b131561343c57608070010000000000000b17217f7d1cf7d83c1a8202901c90505b60006108008416600f0b13156134675760807001000000000000058b90bfbe8e7bdcbe2e8202901c90505b60006104008416600f0b1315613492576080700100000000000002c5c85fdf473dea871f8202901c90505b60006102008416600f0b13156134bd57608070010000000000000162e42fefa39ef44d918202901c90505b60006101008416600f0b13156134e8576080700100000000000000b17217f7d1cf79e9498202901c90505b600060808416600f0b131561351257608070010000000000000058b90bfbe8e7bce5448202901c90505b600060408416600f0b131561353c5760807001000000000000002c5c85fdf473de6eca8202901c90505b600060208416600f0b1315613566576080700100000000000000162e42fefa39ef366f8202901c90505b600060108416600f0b13156135905760807001000000000000000b17217f7d1cf79afa8202901c90505b600060088416600f0b13156135ba576080700100000000000000058b90bfbe8e7bcd6d8202901c90505b600060048416600f0b13156135e457608070010000000000000002c5c85fdf473de6b28202901c90505b600060028416600f0b131561360e5760807001000000000000000162e42fefa39ef3588202901c90505b600060018416600f0b131561363857608070010000000000000000b17217f7d1cf79ab8202901c90505b604083600f0b901d603f03600f0b81901c90506f7fffffffffffffffffffffffffffffff600f0b81111561366b57600080fd5b809150505b919050565b60006136886136838461459f565b61456e565b905080838252602082019050828560208602820111156136a757600080fd5b60005b858110156136d757816136bd888261374a565b8452602084019350602083019250506001810190506136aa565b5050509392505050565b6000813590506136f08161487d565b92915050565b600082601f83011261370757600080fd5b8151613717848260208601613675565b91505092915050565b60008151905061372f81614894565b92915050565b600081359050613744816148ab565b92915050565b600081519050613759816148ab565b92915050565b60006020828403121561377157600080fd5b600061377f848285016136e1565b91505092915050565b60008060006060848603121561379d57600080fd5b60006137ab868287016136e1565b93505060206137bc868287016136e1565b92505060406137cd868287016136e1565b9150509250925092565b600080604083850312156137ea57600080fd5b60006137f8858286016136e1565b925050602061380985828601613735565b9150509250929050565b60006020828403121561382557600080fd5b600082015167ffffffffffffffff81111561383f57600080fd5b61384b848285016136f6565b91505092915050565b60006020828403121561386657600080fd5b600061387484828501613720565b91505092915050565b60006020828403121561388f57600080fd5b600061389d84828501613735565b91505092915050565b6000602082840312156138b857600080fd5b60006138c68482850161374a565b91505092915050565b600080604083850312156138e257600080fd5b60006138f085828601613735565b925050602061390185828601613735565b9150509250929050565b60008060006060848603121561392057600080fd5b600061392e86828701613735565b935050602061393f86828701613735565b925050604061395086828701613735565b9150509250925092565b60006139668383613972565b60208301905092915050565b61397b8161474f565b82525050565b61398a8161474f565b82525050565b600061399b826145e0565b6139a581856145f8565b93506139b0836145cb565b8060005b838110156139e8576139c58261485d565b6139cf888261395a565b97506139da836145eb565b9250506001810190506139b4565b5085935050505092915050565b6139fe8161476d565b82525050565b613a0d816147a4565b82525050565b6000613a20601483614609565b91507f55534443207472616e73666572206661696c65640000000000000000000000006000830152602082019050919050565b6000613a60602983614609565b91507f6e6f7420656e6f75676820636f6c6c61746572616c20746f20626f72726f772060008301527f74686174206d75636800000000000000000000000000000000000000000000006020830152604082019050919050565b6000613ac6602683614609565b91507f4f776e61626c653a206e6577206f776e657220697320746865207a65726f206160008301527f64647265737300000000000000000000000000000000000000000000000000006020830152604082019050919050565b6000613b2c602283614609565b91507f6163636f756e7420616c72656164792062656c6f77207361666574792072617460008301527f696f0000000000000000000000000000000000000000000000000000000000006020830152604082019050919050565b6000613b92601483614609565b91507f63616e2774206d696e74207a65726f205553445a0000000000000000000000006000830152602082019050919050565b6000613bd2600e83614609565b91507f63616e277420626f72726f7720300000000000000000000000000000000000006000830152602082019050919050565b6000613c12601983614609565b91507f6163636f756e7420686173206e6f20636f6c6c61746572616c000000000000006000830152602082019050919050565b6000613c52601883614609565b91507f7769746864726177207472616e73666572206661696c656400000000000000006000830152602082019050919050565b6000613c92602983614609565b91507f626f72726f77207468726573686f6c64206d757374206265203e207363616c6960008301527f6e6720666163746f7200000000000000000000000000000000000000000000006020830152604082019050919050565b6000613cf8601983614609565b91507f616d6f756e7420756e7361666520746f207769746864726177000000000000006000830152602082019050919050565b6000613d38601583614609565b91507f6c69712066656573206f7574206f662072616e676500000000000000000000006000830152602082019050919050565b6000613d78601883614609565b91507f7a65726f2061646472657373206e6f7420616c6c6f77656400000000000000006000830152602082019050919050565b6000613db8601483614609565b91507f55534443207265736572766520746f6f206c6f770000000000000000000000006000830152602082019050919050565b6000613df8601583614609565b91507f7265706179207472616e73666572206661696c656400000000000000000000006000830152602082019050919050565b6000613e38602083614609565b91507f4f776e61626c653a2063616c6c6572206973206e6f7420746865206f776e65726000830152602082019050919050565b6000613e78600d83614609565b91507f63616e27742072657061792030000000000000000000000000000000000000006000830152602082019050919050565b6000613eb8601883614609565b91507f6c6971206665657320696e636f72726563746c792073657400000000000000006000830152602082019050919050565b6000613ef8601883614609565b91507f6d617820646973636f756e74206d6178206973203130302500000000000000006000830152602082019050919050565b6000613f38601f83614609565b91507f6163636f756e74206e6f742062656c6f77206c6971207468726573686f6c64006000830152602082019050919050565b6000613f78600e83614609565b91507f6465706f736974206661696c65640000000000000000000000000000000000006000830152602082019050919050565b6000613fb8601983614609565b91507f696e74657265737452617465206f7574206f662072616e6765000000000000006000830152602082019050919050565b6000613ff8602683614609565b91507f6c6971207468726573686f6c64206d757374206265203e207363616c696e672060008301527f666163746f7200000000000000000000000000000000000000000000000000006020830152604082019050919050565b600061405e602083614609565b91507f6e6f7420656e6f75676820636f6c6c61746572616c20696e206163636f756e746000830152602082019050919050565b61409a8161479a565b82525050565b60006020820190506140b56000830184613981565b92915050565b60006060820190506140d06000830186613981565b6140dd6020830185613981565b6140ea6040830184614091565b949350505050565b60006040820190506141076000830185613981565b6141146020830184614091565b9392505050565b600060208201905061413060008301846139f5565b92915050565b600060608201905061414b6000830186613a04565b6141586020830185613a04565b6141656040830184613a04565b949350505050565b6000602082019050818103600083015261418681613a13565b9050919050565b600060208201905081810360008301526141a681613a53565b9050919050565b600060208201905081810360008301526141c681613ab9565b9050919050565b600060208201905081810360008301526141e681613b1f565b9050919050565b6000602082019050818103600083015261420681613b85565b9050919050565b6000602082019050818103600083015261422681613bc5565b9050919050565b6000602082019050818103600083015261424681613c05565b9050919050565b6000602082019050818103600083015261426681613c45565b9050919050565b6000602082019050818103600083015261428681613c85565b9050919050565b600060208201905081810360008301526142a681613ceb565b9050919050565b600060208201905081810360008301526142c681613d2b565b9050919050565b600060208201905081810360008301526142e681613d6b565b9050919050565b6000602082019050818103600083015261430681613dab565b9050919050565b6000602082019050818103600083015261432681613deb565b9050919050565b6000602082019050818103600083015261434681613e2b565b9050919050565b6000602082019050818103600083015261436681613e6b565b9050919050565b6000602082019050818103600083015261438681613eab565b9050919050565b600060208201905081810360008301526143a681613eeb565b9050919050565b600060208201905081810360008301526143c681613f2b565b9050919050565b600060208201905081810360008301526143e681613f6b565b9050919050565b6000602082019050818103600083015261440681613fab565b9050919050565b6000602082019050818103600083015261442681613feb565b9050919050565b6000602082019050818103600083015261444681614051565b9050919050565b60006020820190506144626000830184614091565b92915050565b600060408201905061447d6000830185614091565b818103602083015261448f8184613990565b90509392505050565b600060a0820190506144ad6000830188614091565b6144ba6020830187614091565b81810360408301526144cc8186613990565b90506144db6060830185613981565b6144e86080830184614091565b9695505050505050565b60006060820190506145076000830186614091565b6145146020830185614091565b6145216040830184614091565b949350505050565b600060808201905061453e6000830187614091565b61454b6020830186614091565b6145586040830185614091565b6145656060830184614091565b95945050505050565b6000604051905081810181811067ffffffffffffffff821117156145955761459461482e565b5b8060405250919050565b600067ffffffffffffffff8211156145ba576145b961482e565b5b602082029050602081019050919050565b60008190508160005260206000209050919050565b600081549050919050565b6000600182019050919050565b600082825260208201905092915050565b600082825260208201905092915050565b60006146258261479a565b91506146308361479a565b9250827fffffffffffffffffffffffffffffffffffffffffffffffffffffffffffffffff03821115614665576146646147d0565b5b828201905092915050565b600061467b8261479a565b91506146868361479a565b925082614696576146956147ff565b5b828204905092915050565b60006146ac8261479a565b91506146b78361479a565b9250817fffffffffffffffffffffffffffffffffffffffffffffffffffffffffffffffff04831182151516156146f0576146ef6147d0565b5b828202905092915050565b60006147068261479a565b91506147118361479a565b925082821015614724576147236147d0565b5b828203905092915050565b600073ffffffffffffffffffffffffffffffffffffffff82169050919050565b600061475a8261477a565b9050919050565b60008115159050919050565b600081600f0b9050919050565b600073ffffffffffffffffffffffffffffffffffffffff82169050919050565b6000819050919050565b60006147af8261479a565b9050919050565b60006147c96147c483614870565b61472f565b9050919050565b7f4e487b7100000000000000000000000000000000000000000000000000000000600052601160045260246000fd5b7f4e487b7100000000000000000000000000000000000000000000000000000000600052601260045260246000fd5b7f4e487b7100000000000000000000000000000000000000000000000000000000600052604160045260246000fd5b600061486982546147b6565b9050919050565b60008160001c9050919050565b6148868161474f565b811461489157600080fd5b50565b61489d81614761565b81146148a857600080fd5b50565b6148b48161479a565b81146148bf57600080fd5b5056fea264697066735822122095bbed3c89c6b714a04424a6feecbbfc746981d530c143b5ac5ef73643d3badd64736f6c63430008000033",
  "linkReferences": {},
  "deployedLinkReferences": {}
}