{
  "_format": "hh-sol-artifact-1",
  "contractName": "Controller",
  "sourceName": "contracts/Controller.sol",
  "abi": [
    {
      "inputs": [
        {
          "internalType": "address",
          "name": "_usdzAddress",
          "type": "address"
        },
        {
          "internalType": "address",
          "name": "_usdcAddress",
          "type": "address"
        },
        {
          "internalType": "address",
          "name": "_xSushiAddress",
          "type": "address"
        },
        {
          "internalType": "address",
          "name": "_routerAddress",
          "type": "address"
        },
        {
          "internalType": "uint256",
          "name": "_liqTotalFee",
          "type": "uint256"
        },
        {
          "internalType": "uint256",
          "name": "_liqFeeShare",
          "type": "uint256"
        },
        {
          "internalType": "uint256",
          "name": "_interestRate",
          "type": "uint256"
        },
        {
          "internalType": "uint256",
          "name": "_borrowThreshold",
          "type": "uint256"
        },
        {
          "internalType": "uint256",
          "name": "_liqThreshold",
          "type": "uint256"
        }
      ],
      "stateMutability": "nonpayable",
      "type": "constructor"
    },
    {
      "anonymous": false,
      "inputs": [
        {
          "indexed": true,
          "internalType": "address",
          "name": "account",
          "type": "address"
        },
        {
          "indexed": false,
          "internalType": "uint256",
          "name": "amountBorrowed",
          "type": "uint256"
        },
        {
          "indexed": false,
          "internalType": "uint256",
          "name": "collateral",
          "type": "uint256"
        },
        {
          "indexed": false,
          "internalType": "uint256",
          "name": "totalDebt",
          "type": "uint256"
        }
      ],
      "name": "Borrow",
      "type": "event"
    },
    {
      "anonymous": false,
      "inputs": [
        {
          "indexed": true,
          "internalType": "address",
          "name": "account",
          "type": "address"
        },
        {
          "indexed": false,
          "internalType": "uint256",
          "name": "amount",
          "type": "uint256"
        }
      ],
      "name": "Deposit",
      "type": "event"
    },
    {
      "anonymous": false,
      "inputs": [
        {
          "indexed": true,
          "internalType": "address",
          "name": "account",
          "type": "address"
        },
        {
          "indexed": true,
          "internalType": "address",
          "name": "liquidator",
          "type": "address"
        },
        {
          "indexed": false,
          "internalType": "uint256",
          "name": "collateralLiquidated",
          "type": "uint256"
        },
        {
          "indexed": false,
          "internalType": "uint256",
          "name": "lastCollateralRatio",
          "type": "uint256"
        },
        {
          "indexed": false,
          "internalType": "uint256",
          "name": "lastDebtOutstanding",
          "type": "uint256"
        }
      ],
      "name": "Liquidation",
      "type": "event"
    },
    {
      "anonymous": false,
      "inputs": [
        {
          "indexed": true,
          "internalType": "address",
          "name": "previousOwner",
          "type": "address"
        },
        {
          "indexed": true,
          "internalType": "address",
          "name": "newOwner",
          "type": "address"
        }
      ],
      "name": "OwnershipTransferred",
      "type": "event"
    },
    {
      "anonymous": false,
      "inputs": [
        {
          "indexed": true,
          "internalType": "address",
          "name": "account",
          "type": "address"
        },
        {
          "indexed": false,
          "internalType": "uint256",
          "name": "debtRepaid",
          "type": "uint256"
        },
        {
          "indexed": false,
          "internalType": "uint256",
          "name": "debtRemaining",
          "type": "uint256"
        },
        {
          "indexed": false,
          "internalType": "uint256",
          "name": "collateral",
          "type": "uint256"
        }
      ],
      "name": "Repay",
      "type": "event"
    },
    {
      "anonymous": false,
      "inputs": [
        {
          "indexed": true,
          "internalType": "address",
          "name": "account",
          "type": "address"
        },
        {
          "indexed": false,
          "internalType": "uint256",
          "name": "amount",
          "type": "uint256"
        }
      ],
      "name": "Withdraw",
      "type": "event"
    },
    {
      "inputs": [],
      "name": "SCALING_FACTOR",
      "outputs": [
        {
          "internalType": "uint256",
          "name": "",
          "type": "uint256"
        }
      ],
      "stateMutability": "view",
      "type": "function"
    },
    {
      "inputs": [],
      "name": "SECONDS_IN_YEAR",
      "outputs": [
        {
          "internalType": "int128",
          "name": "",
          "type": "int128"
        }
      ],
      "stateMutability": "view",
      "type": "function"
    },
    {
      "inputs": [
        {
          "internalType": "uint256",
          "name": "_amount",
          "type": "uint256"
        }
      ],
      "name": "borrow",
      "outputs": [],
      "stateMutability": "nonpayable",
      "type": "function"
    },
    {
      "inputs": [],
      "name": "borrowThreshold",
      "outputs": [
        {
          "internalType": "uint256",
          "name": "",
          "type": "uint256"
        }
      ],
      "stateMutability": "view",
      "type": "function"
    },
    {
      "inputs": [
        {
          "internalType": "address",
          "name": "_account",
          "type": "address"
        }
      ],
      "name": "calcInterest",
      "outputs": [
        {
          "internalType": "uint256",
          "name": "interest",
          "type": "uint256"
        }
      ],
      "stateMutability": "view",
      "type": "function"
    },
    {
      "inputs": [
        {
          "internalType": "uint256",
          "name": "_amount",
          "type": "uint256"
        }
      ],
      "name": "deposit",
      "outputs": [],
      "stateMutability": "nonpayable",
      "type": "function"
    },
    {
      "inputs": [
        {
          "internalType": "address",
          "name": "_account",
          "type": "address"
        }
      ],
      "name": "getCollateralRatio",
      "outputs": [
        {
          "internalType": "uint256",
          "name": "",
          "type": "uint256"
        }
      ],
      "stateMutability": "view",
      "type": "function"
    },
    {
      "inputs": [],
      "name": "interestRate",
      "outputs": [
        {
          "internalType": "uint256",
          "name": "",
          "type": "uint256"
        }
      ],
      "stateMutability": "view",
      "type": "function"
    },
    {
      "inputs": [
        {
          "internalType": "address",
          "name": "_account",
          "type": "address"
        }
      ],
      "name": "liquidate",
      "outputs": [],
      "stateMutability": "nonpayable",
      "type": "function"
    },
    {
      "inputs": [],
      "name": "liquidationFee",
      "outputs": [
        {
          "internalType": "uint256",
          "name": "",
          "type": "uint256"
        }
      ],
      "stateMutability": "view",
      "type": "function"
    },
    {
      "inputs": [],
      "name": "liquidationThreshold",
      "outputs": [
        {
          "internalType": "uint256",
          "name": "",
          "type": "uint256"
        }
      ],
      "stateMutability": "view",
      "type": "function"
    },
    {
      "inputs": [],
      "name": "liquidatorFeeShare",
      "outputs": [
        {
          "internalType": "uint256",
          "name": "",
          "type": "uint256"
        }
      ],
      "stateMutability": "view",
      "type": "function"
    },
    {
      "inputs": [],
      "name": "owner",
      "outputs": [
        {
          "internalType": "address",
          "name": "",
          "type": "address"
        }
      ],
      "stateMutability": "view",
      "type": "function"
    },
    {
      "inputs": [],
      "name": "protocolShortfall",
      "outputs": [
        {
          "internalType": "uint256",
          "name": "",
          "type": "uint256"
        }
      ],
      "stateMutability": "view",
      "type": "function"
    },
    {
      "inputs": [],
      "name": "renounceOwnership",
      "outputs": [],
      "stateMutability": "nonpayable",
      "type": "function"
    },
    {
      "inputs": [
        {
          "internalType": "uint256",
          "name": "_amount",
          "type": "uint256"
        }
      ],
      "name": "repay",
      "outputs": [],
      "stateMutability": "nonpayable",
      "type": "function"
    },
    {
      "inputs": [
        {
          "internalType": "uint256",
          "name": "_liqTotalFee",
          "type": "uint256"
        },
        {
          "internalType": "uint256",
          "name": "_liqFeeShare",
          "type": "uint256"
        },
        {
          "internalType": "uint256",
          "name": "_interestRate",
          "type": "uint256"
        }
      ],
      "name": "setFeesAndRates",
      "outputs": [],
      "stateMutability": "nonpayable",
      "type": "function"
    },
    {
      "inputs": [
        {
          "internalType": "uint256",
          "name": "_borrowThreshold",
          "type": "uint256"
        },
        {
          "internalType": "uint256",
          "name": "_liqThreshold",
          "type": "uint256"
        }
      ],
      "name": "setThresholds",
      "outputs": [],
      "stateMutability": "nonpayable",
      "type": "function"
    },
    {
      "inputs": [
        {
          "internalType": "address",
          "name": "_newAddress",
          "type": "address"
        }
      ],
      "name": "setUSDZAddress",
      "outputs": [],
      "stateMutability": "nonpayable",
      "type": "function"
    },
    {
      "inputs": [
        {
          "internalType": "address",
          "name": "_newAddress",
          "type": "address"
        }
      ],
      "name": "setXSUSHIAddress",
      "outputs": [],
      "stateMutability": "nonpayable",
      "type": "function"
    },
    {
      "inputs": [],
      "name": "sushiRouterAddress",
      "outputs": [
        {
          "internalType": "address",
          "name": "",
          "type": "address"
        }
      ],
      "stateMutability": "view",
      "type": "function"
    },
    {
      "inputs": [
        {
          "internalType": "address",
          "name": "newOwner",
          "type": "address"
        }
      ],
      "name": "transferOwnership",
      "outputs": [],
      "stateMutability": "nonpayable",
      "type": "function"
    },
    {
      "inputs": [],
      "name": "usdcAddress",
      "outputs": [
        {
          "internalType": "address",
          "name": "",
          "type": "address"
        }
      ],
      "stateMutability": "view",
      "type": "function"
    },
    {
      "inputs": [],
      "name": "usdzAddress",
      "outputs": [
        {
          "internalType": "address",
          "name": "",
          "type": "address"
        }
      ],
      "stateMutability": "view",
      "type": "function"
    },
    {
      "inputs": [
        {
          "internalType": "uint256",
          "name": "_amount",
          "type": "uint256"
        }
      ],
      "name": "withdraw",
      "outputs": [],
      "stateMutability": "nonpayable",
      "type": "function"
    },
    {
      "inputs": [],
      "name": "xSushiAddress",
      "outputs": [
        {
          "internalType": "address",
          "name": "",
          "type": "address"
        }
      ],
      "stateMutability": "view",
      "type": "function"
    },
    {
      "inputs": [
        {
          "internalType": "uint256",
          "name": "",
          "type": "uint256"
        }
      ],
      "name": "xSushiToUsdcPath",
      "outputs": [
        {
          "internalType": "address",
          "name": "",
          "type": "address"
        }
      ],
      "stateMutability": "view",
      "type": "function"
    }
  ],
  "bytecode": "0x60806040523480156200001157600080fd5b5060405162003bc338038062003bc383398181016040528101906200003791906200050e565b6000620000496200040660201b60201c565b9050806000806101000a81548173ffffffffffffffffffffffffffffffffffffffff021916908373ffffffffffffffffffffffffffffffffffffffff1602179055508073ffffffffffffffffffffffffffffffffffffffff16600073ffffffffffffffffffffffffffffffffffffffff167f8be0079c531659141344cd1fd0a4f28419497f9722a3daafe3b4186f6b6457e060405160405180910390a35088600360006101000a81548173ffffffffffffffffffffffffffffffffffffffff021916908373ffffffffffffffffffffffffffffffffffffffff16021790555087600460006101000a81548173ffffffffffffffffffffffffffffffffffffffff021916908373ffffffffffffffffffffffffffffffffffffffff16021790555086600560006101000a81548173ffffffffffffffffffffffffffffffffffffffff021916908373ffffffffffffffffffffffffffffffffffffffff16021790555085600660006101000a81548173ffffffffffffffffffffffffffffffffffffffff021916908373ffffffffffffffffffffffffffffffffffffffff160217905550846008819055508360098190555082600a8190555081600b8190555080600c81905550600267ffffffffffffffff81111562000250577f4e487b7100000000000000000000000000000000000000000000000000000000600052604160045260246000fd5b6040519080825280602002602001820160405280156200027f5781602001602082028036833780820191505090505b50600790805190602001906200029792919062000432565b50866007600081548110620002d5577f4e487b7100000000000000000000000000000000000000000000000000000000600052603260045260246000fd5b9060005260206000200160006101000a81548173ffffffffffffffffffffffffffffffffffffffff021916908373ffffffffffffffffffffffffffffffffffffffff1602179055508760076001815481106200035a577f4e487b7100000000000000000000000000000000000000000000000000000000600052603260045260246000fd5b9060005260206000200160006101000a81548173ffffffffffffffffffffffffffffffffffffffff021916908373ffffffffffffffffffffffffffffffffffffffff160217905550620003bc6301e185586200040e60201b620019701760201c565b600d60006101000a8154816fffffffffffffffffffffffffffffffff0219169083600f0b6fffffffffffffffffffffffffffffffff16021790555050505050505050505062000659565b600033905090565b6000677fffffffffffffff8211156200042657600080fd5b604082901b9050919050565b828054828255906000526020600020908101928215620004ae579160200282015b82811115620004ad5782518260006101000a81548173ffffffffffffffffffffffffffffffffffffffff021916908373ffffffffffffffffffffffffffffffffffffffff1602179055509160200191906001019062000453565b5b509050620004bd9190620004c1565b5090565b5b80821115620004dc576000816000905550600101620004c2565b5090565b600081519050620004f18162000625565b92915050565b60008151905062000508816200063f565b92915050565b60008060008060008060008060006101208a8c0312156200052e57600080fd5b60006200053e8c828d01620004e0565b9950506020620005518c828d01620004e0565b9850506040620005648c828d01620004e0565b9750506060620005778c828d01620004e0565b96505060806200058a8c828d01620004f7565b95505060a06200059d8c828d01620004f7565b94505060c0620005b08c828d01620004f7565b93505060e0620005c38c828d01620004f7565b925050610100620005d78c828d01620004f7565b9150509295985092959850929598565b6000620005f482620005fb565b9050919050565b600073ffffffffffffffffffffffffffffffffffffffff82169050919050565b6000819050919050565b6200063081620005e7565b81146200063c57600080fd5b50565b6200064a816200061b565b81146200065657600080fd5b50565b61355a80620006696000396000f3fe608060405234801561001057600080fd5b50600436106101a95760003560e01c806379bbce8f116100f9578063b6b55f2511610097578063c5ebeaec11610071578063c5ebeaec14610474578063e3064a7714610490578063ef4cadc5146104ac578063f2fde38b146104ca576101a9565b8063b6b55f251461041e578063bdfccad31461043a578063bfaf48d414610458576101a9565b80638da5cb5b116100d35780638da5cb5b146103a85780638f6ba29a146103c6578063a36a3630146103e2578063af1f556f14610400576101a9565b806379bbce8f146103505780637c3a00fd1461036e5780638456b7551461038c576101a9565b80634031234c116101665780635ae547e3116101405780635ae547e3146102da5780635dcc9391146102f857806369cb89c714610316578063715018a614610346576101a9565b80634031234c1461026e5780634a63a5ce1461028c57806354054808146102bc576101a9565b806302d45457146101ae57806315a3ba43146101cc57806320bdf800146101fc5780632e1a7d4d1461021a5780632f86556814610236578063371fd8e614610252575b600080fd5b6101b66104e6565b6040516101c39190612ea1565b60405180910390f35b6101e660048036038101906101e1919061283a565b61050c565b6040516101f3919061314e565b60405180910390f35b610204610747565b6040516102119190612ea1565b60405180910390f35b610234600480360381019061022f91906128cd565b61076d565b005b610250600480360381019061024b919061283a565b610b22565b005b61026c600480360381019061026791906128cd565b610b90565b005b610276610be6565b604051610283919061314e565b60405180910390f35b6102a660048036038101906102a191906128cd565b610bec565b6040516102b39190612ea1565b60405180910390f35b6102c4610c2b565b6040516102d1919061314e565b60405180910390f35b6102e2610c31565b6040516102ef919061314e565b60405180910390f35b610300610c37565b60405161030d9190612f1c565b60405180910390f35b610330600480360381019061032b919061283a565b610c4a565b60405161033d919061314e565b60405180910390f35b61034e610eb9565b005b610358610ff3565b6040516103659190612ea1565b60405180910390f35b610376611019565b604051610383919061314e565b60405180910390f35b6103a660048036038101906103a1919061283a565b61101f565b005b6103b061114f565b6040516103bd9190612ea1565b60405180910390f35b6103e060048036038101906103db919061283a565b611178565b005b6103ea6112a8565b6040516103f7919061314e565b60405180910390f35b6104086112ae565b604051610415919061314e565b60405180910390f35b610438600480360381019061043391906128cd565b6112b4565b005b610442611495565b60405161044f9190612ea1565b60405180910390f35b610472600480360381019061046d9190612932565b6114bb565b005b61048e600480360381019061048991906128cd565b611653565b005b6104aa60048036038101906104a591906128f6565b6116a9565b005b6104b46117c1565b6040516104c1919061314e565b60405180910390f35b6104e460048036038101906104df919061283a565b6117c7565b005b600460009054906101000a900473ffffffffffffffffffffffffffffffffffffffff1681565b600080600160008473ffffffffffffffffffffffffffffffffffffffff1673ffffffffffffffffffffffffffffffffffffffff1681526020019081526020016000206000015490506000600160008573ffffffffffffffffffffffffffffffffffffffff1673ffffffffffffffffffffffffffffffffffffffff16815260200190815260200160002060010154905060008214156105af57600092505050610742565b60008114156105e2577fffffffffffffffffffffffffffffffffffffffffffffffffffffffffffffffff92505050610742565b60008211610625576040517f08c379a000000000000000000000000000000000000000000000000000000000815260040161061c906130ae565b60405180910390fd5b6000600660009054906101000a900473ffffffffffffffffffffffffffffffffffffffff16905060008173ffffffffffffffffffffffffffffffffffffffff1663d06ca61f8560076040518363ffffffff1660e01b815260040161068a929190613169565b60006040518083038186803b1580156106a257600080fd5b505afa1580156106b6573d6000803e3d6000fd5b505050506040513d6000823e3d601f19601f820116820180604052508101906106df9190612863565b600181518110610718577f4e487b7100000000000000000000000000000000000000000000000000000000600052603260045260246000fd5b6020026020010151905082612710826107319190613303565b61073b91906132d2565b9450505050505b919050565b600360009054906101000a900473ffffffffffffffffffffffffffffffffffffffff1681565b6000600160003373ffffffffffffffffffffffffffffffffffffffff1673ffffffffffffffffffffffffffffffffffffffff168152602001908152602001600020600001549050818110156107f7576040517f08c379a00000000000000000000000000000000000000000000000000000000081526004016107ee9061312e565b60405180910390fd5b600061080233610c4a565b905080600160003373ffffffffffffffffffffffffffffffffffffffff1673ffffffffffffffffffffffffffffffffffffffff1681526020019081526020016000206001016000828254610856919061327c565b9250508190555042600160003373ffffffffffffffffffffffffffffffffffffffff1673ffffffffffffffffffffffffffffffffffffffff1681526020019081526020016000206002018190555060006108af3361050c565b9050600b5481116108f5576040517f08c379a00000000000000000000000000000000000000000000000000000000081526004016108ec9061302e565b60405180910390fd5b6000837fffffffffffffffffffffffffffffffffffffffffffffffffffffffffffffffff612710600b5461092991906132d2565b84610934919061335d565b61093e91906132d2565b6109489190613303565b90508481101561098d576040517f08c379a000000000000000000000000000000000000000000000000000000000815260040161098490612fae565b60405180910390fd5b8484610999919061335d565b600160003373ffffffffffffffffffffffffffffffffffffffff1673ffffffffffffffffffffffffffffffffffffffff16815260200190815260200160002060000181905550600560009054906101000a900473ffffffffffffffffffffffffffffffffffffffff1673ffffffffffffffffffffffffffffffffffffffff1663a9059cbb33876040518363ffffffff1660e01b8152600401610a3c929190612ef3565b602060405180830381600087803b158015610a5657600080fd5b505af1158015610a6a573d6000803e3d6000fd5b505050506040513d601f19601f82011682018060405250810190610a8e91906128a4565b610acd576040517f08c379a0000000000000000000000000000000000000000000000000000000008152600401610ac490612fce565b60405180910390fd5b3373ffffffffffffffffffffffffffffffffffffffff167f884edad9ce6fa2440d8a54cc123490eb96d2768479d49ff9c7366125a942436486604051610b13919061314e565b60405180910390a25050505050565b3373ffffffffffffffffffffffffffffffffffffffff168173ffffffffffffffffffffffffffffffffffffffff167f5a821a618ddb1a1fd304234a69c9d7f20c129d122fcf35593d13a071926643076000806000604051610b8593929190612f37565b60405180910390a350565b3373ffffffffffffffffffffffffffffffffffffffff167f2fe77b1c99aca6b022b8efc6e3e8dd1b48b30748709339b65c50ef3263443e0982600080604051610bdb93929190613199565b60405180910390a250565b600c5481565b60078181548110610bfc57600080fd5b906000526020600020016000915054906101000a900473ffffffffffffffffffffffffffffffffffffffff1681565b60095481565b600b5481565b600d60009054906101000a9004600f0b81565b600080600160008473ffffffffffffffffffffffffffffffffffffffff1673ffffffffffffffffffffffffffffffffffffffff168152602001908152602001600020600101541480610cde57506000600160008473ffffffffffffffffffffffffffffffffffffffff1673ffffffffffffffffffffffffffffffffffffffff16815260200190815260200160002060020154145b80610ceb57506000600a54145b80610d375750600160008373ffffffffffffffffffffffffffffffffffffffff1673ffffffffffffffffffffffffffffffffffffffff1681526020019081526020016000206002015442145b15610d455760009050610eb4565b6000600160008473ffffffffffffffffffffffffffffffffffffffff1673ffffffffffffffffffffffffffffffffffffffff1681526020019081526020016000206002015442610d95919061335d565b90506000610dba610da583611970565b600d60009054906101000a9004600f0b611993565b90506000610ddc610dcc600a54611970565b610dd7612710611970565b611993565b90506000610e2b600160008873ffffffffffffffffffffffffffffffffffffffff1673ffffffffffffffffffffffffffffffffffffffff16815260200190815260200160002060010154611970565b90506000610e52610e4d83610e48610e438789611a43565b611aae565b611a43565b611b27565b9050600160008873ffffffffffffffffffffffffffffffffffffffff1673ffffffffffffffffffffffffffffffffffffffff168152602001908152602001600020600101548167ffffffffffffffff16610eac919061335d565b955050505050505b919050565b610ec1611b48565b73ffffffffffffffffffffffffffffffffffffffff16610edf61114f565b73ffffffffffffffffffffffffffffffffffffffff1614610f35576040517f08c379a0000000000000000000000000000000000000000000000000000000008152600401610f2c9061306e565b60405180910390fd5b600073ffffffffffffffffffffffffffffffffffffffff1660008054906101000a900473ffffffffffffffffffffffffffffffffffffffff1673ffffffffffffffffffffffffffffffffffffffff167f8be0079c531659141344cd1fd0a4f28419497f9722a3daafe3b4186f6b6457e060405160405180910390a360008060006101000a81548173ffffffffffffffffffffffffffffffffffffffff021916908373ffffffffffffffffffffffffffffffffffffffff160217905550565b600660009054906101000a900473ffffffffffffffffffffffffffffffffffffffff1681565b600a5481565b611027611b48565b73ffffffffffffffffffffffffffffffffffffffff1661104561114f565b73ffffffffffffffffffffffffffffffffffffffff161461109b576040517f08c379a00000000000000000000000000000000000000000000000000000000081526004016110929061306e565b60405180910390fd5b600073ffffffffffffffffffffffffffffffffffffffff168173ffffffffffffffffffffffffffffffffffffffff16141561110b576040517f08c379a000000000000000000000000000000000000000000000000000000000815260040161110290612fee565b60405180910390fd5b80600560006101000a81548173ffffffffffffffffffffffffffffffffffffffff021916908373ffffffffffffffffffffffffffffffffffffffff16021790555050565b60008060009054906101000a900473ffffffffffffffffffffffffffffffffffffffff16905090565b611180611b48565b73ffffffffffffffffffffffffffffffffffffffff1661119e61114f565b73ffffffffffffffffffffffffffffffffffffffff16146111f4576040517f08c379a00000000000000000000000000000000000000000000000000000000081526004016111eb9061306e565b60405180910390fd5b600073ffffffffffffffffffffffffffffffffffffffff168173ffffffffffffffffffffffffffffffffffffffff161415611264576040517f08c379a000000000000000000000000000000000000000000000000000000000815260040161125b9061304e565b60405180910390fd5b80600360006101000a81548173ffffffffffffffffffffffffffffffffffffffff021916908373ffffffffffffffffffffffffffffffffffffffff16021790555050565b60085481565b60025481565b6000600560009054906101000a900473ffffffffffffffffffffffffffffffffffffffff1690508073ffffffffffffffffffffffffffffffffffffffff166323b872dd3330856040518463ffffffff1660e01b815260040161131893929190612ebc565b602060405180830381600087803b15801561133257600080fd5b505af1158015611346573d6000803e3d6000fd5b505050506040513d601f19601f8201168201806040525081019061136a91906128a4565b6113a9576040517f08c379a00000000000000000000000000000000000000000000000000000000081526004016113a0906130ce565b60405180910390fd5b6000600160003373ffffffffffffffffffffffffffffffffffffffff1673ffffffffffffffffffffffffffffffffffffffff16815260200190815260200160002060000154905082816113fc919061327c565b600160003373ffffffffffffffffffffffffffffffffffffffff1673ffffffffffffffffffffffffffffffffffffffff168152602001908152602001600020600001819055503373ffffffffffffffffffffffffffffffffffffffff167fe1fffcc4923d04b559f4d29a8bfc6cda04eb5b0d3c460751c2402c5c5cc9109c84604051611488919061314e565b60405180910390a2505050565b600560009054906101000a900473ffffffffffffffffffffffffffffffffffffffff1681565b6114c3611b48565b73ffffffffffffffffffffffffffffffffffffffff166114e161114f565b73ffffffffffffffffffffffffffffffffffffffff1614611537576040517f08c379a000000000000000000000000000000000000000000000000000000000815260040161152e9061306e565b60405180910390fd5b612710831115801561154a575060008310155b611589576040517f08c379a00000000000000000000000000000000000000000000000000000000081526004016115809061308e565b60405180910390fd5b612710821115801561159c575060008210155b80156115a85750828211155b6115e7576040517f08c379a00000000000000000000000000000000000000000000000000000000081526004016115de90612f8e565b60405180910390fd5b82600881905550816009819055506127108111158015611608575060008110155b611647576040517f08c379a000000000000000000000000000000000000000000000000000000000815260040161163e906130ee565b60405180910390fd5b80600a81905550505050565b3373ffffffffffffffffffffffffffffffffffffffff167f13ed6866d4e1ee6da46f845c46d7e54120883d75c5ea9a2dacc1c4ca8984ab808260008060405161169e93929190613199565b60405180910390a250565b6116b1611b48565b73ffffffffffffffffffffffffffffffffffffffff166116cf61114f565b73ffffffffffffffffffffffffffffffffffffffff1614611725576040517f08c379a000000000000000000000000000000000000000000000000000000000815260040161171c9061306e565b60405180910390fd5b61271082101561176a576040517f08c379a00000000000000000000000000000000000000000000000000000000081526004016117619061300e565b60405180910390fd5b6127108110156117af576040517f08c379a00000000000000000000000000000000000000000000000000000000081526004016117a69061310e565b60405180910390fd5b81600b8190555080600c819055505050565b61271081565b6117cf611b48565b73ffffffffffffffffffffffffffffffffffffffff166117ed61114f565b73ffffffffffffffffffffffffffffffffffffffff1614611843576040517f08c379a000000000000000000000000000000000000000000000000000000000815260040161183a9061306e565b60405180910390fd5b600073ffffffffffffffffffffffffffffffffffffffff168173ffffffffffffffffffffffffffffffffffffffff1614156118b3576040517f08c379a00000000000000000000000000000000000000000000000000000000081526004016118aa90612f6e565b60405180910390fd5b8073ffffffffffffffffffffffffffffffffffffffff1660008054906101000a900473ffffffffffffffffffffffffffffffffffffffff1673ffffffffffffffffffffffffffffffffffffffff167f8be0079c531659141344cd1fd0a4f28419497f9722a3daafe3b4186f6b6457e060405160405180910390a3806000806101000a81548173ffffffffffffffffffffffffffffffffffffffff021916908373ffffffffffffffffffffffffffffffffffffffff16021790555050565b6000677fffffffffffffff82111561198757600080fd5b604082901b9050919050565b60008082600f0b14156119a557600080fd5b600082600f0b604085600f0b901b816119e7577f4e487b7100000000000000000000000000000000000000000000000000000000600052601260045260246000fd5b0590507fffffffffffffffffffffffffffffffff80000000000000000000000000000000600f0b8112158015611a3057506f7fffffffffffffffffffffffffffffff600f0b8113155b611a3957600080fd5b8091505092915050565b600080604083600f0b85600f0b02901d90507fffffffffffffffffffffffffffffffff80000000000000000000000000000000600f0b8112158015611a9b57506f7fffffffffffffffffffffffffffffff600f0b8113155b611aa457600080fd5b8091505092915050565b60006840000000000000000082600f0b12611ac857600080fd5b7fffffffffffffffffffffffffffffffffffffffffffffffc0000000000000000082600f0b1215611afc5760009050611b22565b611b1f6080700171547652b82fe1777d0ffda0d23a7d1284600f0b02901d611b50565b90505b919050565b60008082600f0b1215611b3957600080fd5b604082600f0b901d9050919050565b600033905090565b60006840000000000000000082600f0b12611b6a57600080fd5b7fffffffffffffffffffffffffffffffffffffffffffffffc0000000000000000082600f0b1215611b9e576000905061274b565b60006f80000000000000000000000000000000905060006780000000000000008416600f0b1315611be457608070016a09e667f3bcc908b2fb1366ea957d3e8202901c90505b60006740000000000000008416600f0b1315611c155760807001306fe0a31b7152de8d5a46305c85edec8202901c90505b60006720000000000000008416600f0b1315611c465760807001172b83c7d517adcdf7c8c50eb14a791f8202901c90505b60006710000000000000008416600f0b1315611c7757608070010b5586cf9890f6298b92b71842a983638202901c90505b60006708000000000000008416600f0b1315611ca85760807001059b0d31585743ae7c548eb68ca417fd8202901c90505b60006704000000000000008416600f0b1315611cd9576080700102c9a3e778060ee6f7caca4f7a29bde88202901c90505b60006702000000000000008416600f0b1315611d0a57608070010163da9fb33356d84a66ae336dcdfa3f8202901c90505b60006701000000000000008416600f0b1315611d3b576080700100b1afa5abcbed6129ab13ec11dc95438202901c90505b600066800000000000008416600f0b1315611d6b57608070010058c86da1c09ea1ff19d294cf2f679b8202901c90505b600066400000000000008416600f0b1315611d9b5760807001002c605e2e8cec506d21bfc89a23a00f8202901c90505b600066200000000000008416600f0b1315611dcb576080700100162f3904051fa128bca9c55c31e5df8202901c90505b600066100000000000008416600f0b1315611dfb5760807001000b175effdc76ba38e31671ca9397258202901c90505b600066080000000000008416600f0b1315611e2b576080700100058ba01fb9f96d6cacd4b180917c3d8202901c90505b600066040000000000008416600f0b1315611e5b57608070010002c5cc37da9491d0985c348c68e7b38202901c90505b600066020000000000008416600f0b1315611e8b5760807001000162e525ee054754457d59952920268202901c90505b600066010000000000008416600f0b1315611ebb57608070010000b17255775c040618bf4a4ade83fc8202901c90505b6000658000000000008416600f0b1315611eea5760807001000058b91b5bc9ae2eed81e9b7d4cfab8202901c90505b6000654000000000008416600f0b1315611f19576080700100002c5c89d5ec6ca4d7c8acc017b7c98202901c90505b6000652000000000008416600f0b1315611f4857608070010000162e43f4f831060e02d839a9d16d8202901c90505b6000651000000000008416600f0b1315611f77576080700100000b1721bcfc99d9f890ea069117638202901c90505b6000650800000000008416600f0b1315611fa657608070010000058b90cf1e6d97f9ca14dbcc16288202901c90505b6000650400000000008416600f0b1315611fd55760807001000002c5c863b73f016468f6bac5ca2b8202901c90505b6000650200000000008416600f0b1315612004576080700100000162e430e5a18f6119e3c02282a58202901c90505b6000650100000000008416600f0b13156120335760807001000000b1721835514b86e6d96efd1bfe8202901c90505b60006480000000008416600f0b1315612061576080700100000058b90c0b48c6be5df846c5b2ef8202901c90505b60006440000000008416600f0b131561208f57608070010000002c5c8601cc6b9e94213c72737a8202901c90505b60006420000000008416600f0b13156120bd5760807001000000162e42fff037df38aa2b219f068202901c90505b60006410000000008416600f0b13156120eb57608070010000000b17217fba9c739aa5819f44f98202901c90505b60006408000000008416600f0b13156121195760807001000000058b90bfcdee5acd3c1cedc8238202901c90505b60006404000000008416600f0b1315612147576080700100000002c5c85fe31f35a6a30da1be508202901c90505b60006402000000008416600f0b131561217557608070010000000162e42ff0999ce3541b9fffcf8202901c90505b60006401000000008416600f0b13156121a3576080700100000000b17217f80f4ef5aadda455548202901c90505b600063800000008416600f0b13156121d057608070010000000058b90bfbf8479bd5a81b51ad8202901c90505b600063400000008416600f0b13156121fd5760807001000000002c5c85fdf84bd62ae30a74cc8202901c90505b600063200000008416600f0b131561222a576080700100000000162e42fefb2fed257559bdaa8202901c90505b600063100000008416600f0b13156122575760807001000000000b17217f7d5a7716bba4a9ae8202901c90505b600063080000008416600f0b1315612284576080700100000000058b90bfbe9ddbac5e109cce8202901c90505b600063040000008416600f0b13156122b157608070010000000002c5c85fdf4b15de6f17eb0d8202901c90505b600063020000008416600f0b13156122de5760807001000000000162e42fefa494f1478fde058202901c90505b600063010000008416600f0b131561230b57608070010000000000b17217f7d20cf927c8e94c8202901c90505b6000628000008416600f0b13156123375760807001000000000058b90bfbe8f71cb4e4b33d8202901c90505b6000624000008416600f0b1315612363576080700100000000002c5c85fdf477b662b269458202901c90505b6000622000008416600f0b131561238f57608070010000000000162e42fefa3ae53369388c8202901c90505b6000621000008416600f0b13156123bb576080700100000000000b17217f7d1d351a389d408202901c90505b6000620800008416600f0b13156123e757608070010000000000058b90bfbe8e8b2d3d4ede8202901c90505b6000620400008416600f0b13156124135760807001000000000002c5c85fdf4741bea6e77e8202901c90505b6000620200008416600f0b131561243f576080700100000000000162e42fefa39fe95583c28202901c90505b6000620100008416600f0b131561246b5760807001000000000000b17217f7d1cfb72b45e18202901c90505b60006180008416600f0b1315612496576080700100000000000058b90bfbe8e7cc35c3f08202901c90505b60006140008416600f0b13156124c157608070010000000000002c5c85fdf473e242ea388202901c90505b60006120008416600f0b13156124ec5760807001000000000000162e42fefa39f02b772c8202901c90505b60006110008416600f0b131561251757608070010000000000000b17217f7d1cf7d83c1a8202901c90505b60006108008416600f0b13156125425760807001000000000000058b90bfbe8e7bdcbe2e8202901c90505b60006104008416600f0b131561256d576080700100000000000002c5c85fdf473dea871f8202901c90505b60006102008416600f0b131561259857608070010000000000000162e42fefa39ef44d918202901c90505b60006101008416600f0b13156125c3576080700100000000000000b17217f7d1cf79e9498202901c90505b600060808416600f0b13156125ed57608070010000000000000058b90bfbe8e7bce5448202901c90505b600060408416600f0b13156126175760807001000000000000002c5c85fdf473de6eca8202901c90505b600060208416600f0b1315612641576080700100000000000000162e42fefa39ef366f8202901c90505b600060108416600f0b131561266b5760807001000000000000000b17217f7d1cf79afa8202901c90505b600060088416600f0b1315612695576080700100000000000000058b90bfbe8e7bcd6d8202901c90505b600060048416600f0b13156126bf57608070010000000000000002c5c85fdf473de6b28202901c90505b600060028416600f0b13156126e95760807001000000000000000162e42fefa39ef3588202901c90505b600060018416600f0b131561271357608070010000000000000000b17217f7d1cf79ab8202901c90505b604083600f0b901d603f03600f0b81901c90506f7fffffffffffffffffffffffffffffff600f0b81111561274657600080fd5b809150505b919050565b600061276361275e84613201565b6131d0565b9050808382526020820190508285602086028201111561278257600080fd5b60005b858110156127b257816127988882612825565b845260208401935060208301925050600181019050612785565b5050509392505050565b6000813590506127cb816134df565b92915050565b600082601f8301126127e257600080fd5b81516127f2848260208601612750565b91505092915050565b60008151905061280a816134f6565b92915050565b60008135905061281f8161350d565b92915050565b6000815190506128348161350d565b92915050565b60006020828403121561284c57600080fd5b600061285a848285016127bc565b91505092915050565b60006020828403121561287557600080fd5b600082015167ffffffffffffffff81111561288f57600080fd5b61289b848285016127d1565b91505092915050565b6000602082840312156128b657600080fd5b60006128c4848285016127fb565b91505092915050565b6000602082840312156128df57600080fd5b60006128ed84828501612810565b91505092915050565b6000806040838503121561290957600080fd5b600061291785828601612810565b925050602061292885828601612810565b9150509250929050565b60008060006060848603121561294757600080fd5b600061295586828701612810565b935050602061296686828701612810565b925050604061297786828701612810565b9150509250925092565b600061298d8383612999565b60208301905092915050565b6129a2816133b1565b82525050565b6129b1816133b1565b82525050565b60006129c282613242565b6129cc818561325a565b93506129d78361322d565b8060005b83811015612a0f576129ec826134bf565b6129f68882612981565b9750612a018361324d565b9250506001810190506129db565b5085935050505092915050565b612a25816133cf565b82525050565b612a3481613406565b82525050565b6000612a4760268361326b565b91507f4f776e61626c653a206e6577206f776e657220697320746865207a65726f206160008301527f64647265737300000000000000000000000000000000000000000000000000006020830152604082019050919050565b6000612aad60188361326b565b91507f6c69714665655368617265206f7574206f662072616e676500000000000000006000830152602082019050919050565b6000612aed60308361326b565b91507f7769746864726177206c657373206f6620636f6c6c61746572616c207261746960008301527f6f206265636f6d657320756e73616665000000000000000000000000000000006020830152604082019050919050565b6000612b5360188361326b565b91507f7769746864726177207472616e73666572206661696c656400000000000000006000830152602082019050919050565b6000612b9360208361326b565b91507f78535553484920636f6e7472616374206e6f74207a65726f20616464726573736000830152602082019050919050565b6000612bd360298361326b565b91507f626f72726f77207468726573686f6c64206d757374206265203e207363616c6960008301527f6e6720666163746f7200000000000000000000000000000000000000000000006020830152604082019050919050565b6000612c3960278361326b565b91507f636f6c6c61746572616c20726174696f206973203c3d20626f72726f7720746860008301527f726573686f6c64000000000000000000000000000000000000000000000000006020830152604082019050919050565b6000612c9f601e8361326b565b91507f7573647a20636f6e7472616374206e6f74207a65726f206164647265737300006000830152602082019050919050565b6000612cdf60208361326b565b91507f4f776e61626c653a2063616c6c6572206973206e6f7420746865206f776e65726000830152602082019050919050565b6000612d1f60188361326b565b91507f6c6971546f74616c466565206f7574206f662072616e676500000000000000006000830152602082019050919050565b6000612d5f60008361326b565b9150600082019050919050565b6000612d79600e8361326b565b91507f6465706f736974206661696c65640000000000000000000000000000000000006000830152602082019050919050565b6000612db960198361326b565b91507f696e74657265737452617465206f7574206f662072616e6765000000000000006000830152602082019050919050565b6000612df960268361326b565b91507f6c6971207468726573686f6c64206d757374206265203e207363616c696e672060008301527f666163746f7200000000000000000000000000000000000000000000000000006020830152604082019050919050565b6000612e5f60208361326b565b91507f6e6f7420656e6f75676820636f6c6c61746572616c20696e206163636f756e746000830152602082019050919050565b612e9b816133fc565b82525050565b6000602082019050612eb660008301846129a8565b92915050565b6000606082019050612ed160008301866129a8565b612ede60208301856129a8565b612eeb6040830184612e92565b949350505050565b6000604082019050612f0860008301856129a8565b612f156020830184612e92565b9392505050565b6000602082019050612f316000830184612a1c565b92915050565b6000606082019050612f4c6000830186612a2b565b612f596020830185612a2b565b612f666040830184612a2b565b949350505050565b60006020820190508181036000830152612f8781612a3a565b9050919050565b60006020820190508181036000830152612fa781612aa0565b9050919050565b60006020820190508181036000830152612fc781612ae0565b9050919050565b60006020820190508181036000830152612fe781612b46565b9050919050565b6000602082019050818103600083015261300781612b86565b9050919050565b6000602082019050818103600083015261302781612bc6565b9050919050565b6000602082019050818103600083015261304781612c2c565b9050919050565b6000602082019050818103600083015261306781612c92565b9050919050565b6000602082019050818103600083015261308781612cd2565b9050919050565b600060208201905081810360008301526130a781612d12565b9050919050565b600060208201905081810360008301526130c781612d52565b9050919050565b600060208201905081810360008301526130e781612d6c565b9050919050565b6000602082019050818103600083015261310781612dac565b9050919050565b6000602082019050818103600083015261312781612dec565b9050919050565b6000602082019050818103600083015261314781612e52565b9050919050565b60006020820190506131636000830184612e92565b92915050565b600060408201905061317e6000830185612e92565b818103602083015261319081846129b7565b90509392505050565b60006060820190506131ae6000830186612e92565b6131bb6020830185612a2b565b6131c86040830184612a2b565b949350505050565b6000604051905081810181811067ffffffffffffffff821117156131f7576131f6613490565b5b8060405250919050565b600067ffffffffffffffff82111561321c5761321b613490565b5b602082029050602081019050919050565b60008190508160005260206000209050919050565b600081549050919050565b6000600182019050919050565b600082825260208201905092915050565b600082825260208201905092915050565b6000613287826133fc565b9150613292836133fc565b9250827fffffffffffffffffffffffffffffffffffffffffffffffffffffffffffffffff038211156132c7576132c6613432565b5b828201905092915050565b60006132dd826133fc565b91506132e8836133fc565b9250826132f8576132f7613461565b5b828204905092915050565b600061330e826133fc565b9150613319836133fc565b9250817fffffffffffffffffffffffffffffffffffffffffffffffffffffffffffffffff048311821515161561335257613351613432565b5b828202905092915050565b6000613368826133fc565b9150613373836133fc565b92508282101561338657613385613432565b5b828203905092915050565b600073ffffffffffffffffffffffffffffffffffffffff82169050919050565b60006133bc826133dc565b9050919050565b60008115159050919050565b600081600f0b9050919050565b600073ffffffffffffffffffffffffffffffffffffffff82169050919050565b6000819050919050565b6000613411826133fc565b9050919050565b600061342b613426836134d2565b613391565b9050919050565b7f4e487b7100000000000000000000000000000000000000000000000000000000600052601160045260246000fd5b7f4e487b7100000000000000000000000000000000000000000000000000000000600052601260045260246000fd5b7f4e487b7100000000000000000000000000000000000000000000000000000000600052604160045260246000fd5b60006134cb8254613418565b9050919050565b60008160001c9050919050565b6134e8816133b1565b81146134f357600080fd5b50565b6134ff816133c3565b811461350a57600080fd5b50565b613516816133fc565b811461352157600080fd5b5056fea2646970667358221220dab2db3e95f538bdbb3a8a17b20730f4bbad7644ea2ccbe9180faa458d96073d64736f6c63430008000033",
  "linkReferences": {},
  "deployedLinkReferences": {}
}