{
  "_format": "hh-sol-artifact-1",
  "contractName": "Controller",
  "sourceName": "contracts/Controller.sol",
  "abi": [
    {
      "inputs": [
        {
          "internalType": "address",
          "name": "_usdzAddress",
          "type": "address"
        },
        {
          "internalType": "address",
          "name": "_usdcAddress",
          "type": "address"
        },
        {
          "internalType": "address",
          "name": "_xSushiAddress",
          "type": "address"
        },
        {
          "internalType": "address",
          "name": "_routerAddress",
          "type": "address"
        },
        {
          "internalType": "address[]",
          "name": "_swapPath",
          "type": "address[]"
        },
        {
          "internalType": "uint256",
          "name": "_liqFeeProtocol",
          "type": "uint256"
        },
        {
          "internalType": "uint256",
          "name": "_liqFeeSender",
          "type": "uint256"
        },
        {
          "internalType": "uint256",
          "name": "_interestRate",
          "type": "uint256"
        },
        {
          "internalType": "uint256",
          "name": "_borrowThreshold",
          "type": "uint256"
        },
        {
          "internalType": "uint256",
          "name": "_liqThreshold",
          "type": "uint256"
        }
      ],
      "stateMutability": "nonpayable",
      "type": "constructor"
    },
    {
      "anonymous": false,
      "inputs": [
        {
          "indexed": true,
          "internalType": "address",
          "name": "account",
          "type": "address"
        },
        {
          "indexed": false,
          "internalType": "uint256",
          "name": "amountBorrowed",
          "type": "uint256"
        },
        {
          "indexed": false,
          "internalType": "uint256",
          "name": "totalDebt",
          "type": "uint256"
        },
        {
          "indexed": false,
          "internalType": "uint256",
          "name": "collateralAmount",
          "type": "uint256"
        }
      ],
      "name": "Borrow",
      "type": "event"
    },
    {
      "anonymous": false,
      "inputs": [
        {
          "indexed": true,
          "internalType": "address",
          "name": "account",
          "type": "address"
        },
        {
          "indexed": false,
          "internalType": "uint256",
          "name": "amount",
          "type": "uint256"
        }
      ],
      "name": "Deposit",
      "type": "event"
    },
    {
      "anonymous": false,
      "inputs": [
        {
          "indexed": true,
          "internalType": "address",
          "name": "account",
          "type": "address"
        },
        {
          "indexed": true,
          "internalType": "address",
          "name": "liquidator",
          "type": "address"
        },
        {
          "indexed": false,
          "internalType": "uint256",
          "name": "collateralLiquidated",
          "type": "uint256"
        },
        {
          "indexed": false,
          "internalType": "uint256",
          "name": "lastCollateralRatio",
          "type": "uint256"
        },
        {
          "indexed": false,
          "internalType": "uint256",
          "name": "lastDebtOutstanding",
          "type": "uint256"
        }
      ],
      "name": "Liquidation",
      "type": "event"
    },
    {
      "anonymous": false,
      "inputs": [
        {
          "indexed": true,
          "internalType": "address",
          "name": "previousOwner",
          "type": "address"
        },
        {
          "indexed": true,
          "internalType": "address",
          "name": "newOwner",
          "type": "address"
        }
      ],
      "name": "OwnershipTransferred",
      "type": "event"
    },
    {
      "anonymous": false,
      "inputs": [
        {
          "indexed": true,
          "internalType": "address",
          "name": "account",
          "type": "address"
        },
        {
          "indexed": false,
          "internalType": "uint256",
          "name": "debtRepaid",
          "type": "uint256"
        },
        {
          "indexed": false,
          "internalType": "uint256",
          "name": "debtRemaining",
          "type": "uint256"
        },
        {
          "indexed": false,
          "internalType": "uint256",
          "name": "collateralAmount",
          "type": "uint256"
        }
      ],
      "name": "Repay",
      "type": "event"
    },
    {
      "anonymous": false,
      "inputs": [
        {
          "indexed": true,
          "internalType": "address",
          "name": "account",
          "type": "address"
        },
        {
          "indexed": false,
          "internalType": "uint256",
          "name": "amount",
          "type": "uint256"
        }
      ],
      "name": "Withdraw",
      "type": "event"
    },
    {
      "inputs": [],
      "name": "SCALING_FACTOR",
      "outputs": [
        {
          "internalType": "uint256",
          "name": "",
          "type": "uint256"
        }
      ],
      "stateMutability": "view",
      "type": "function"
    },
    {
      "inputs": [],
      "name": "SECONDS_IN_YEAR",
      "outputs": [
        {
          "internalType": "int128",
          "name": "",
          "type": "int128"
        }
      ],
      "stateMutability": "view",
      "type": "function"
    },
    {
      "inputs": [
        {
          "internalType": "uint256",
          "name": "_amount",
          "type": "uint256"
        }
      ],
      "name": "borrow",
      "outputs": [],
      "stateMutability": "nonpayable",
      "type": "function"
    },
    {
      "inputs": [],
      "name": "borrowThreshold",
      "outputs": [
        {
          "internalType": "uint256",
          "name": "",
          "type": "uint256"
        }
      ],
      "stateMutability": "view",
      "type": "function"
    },
    {
      "inputs": [
        {
          "internalType": "address",
          "name": "_account",
          "type": "address"
        }
      ],
      "name": "calcInterest",
      "outputs": [
        {
          "internalType": "uint256",
          "name": "interest",
          "type": "uint256"
        }
      ],
      "stateMutability": "view",
      "type": "function"
    },
    {
      "inputs": [
        {
          "internalType": "uint256",
          "name": "_amount",
          "type": "uint256"
        }
      ],
      "name": "claimLiquidationFees",
      "outputs": [],
      "stateMutability": "nonpayable",
      "type": "function"
    },
    {
      "inputs": [
        {
          "internalType": "uint256",
          "name": "_amount",
          "type": "uint256"
        }
      ],
      "name": "deposit",
      "outputs": [],
      "stateMutability": "nonpayable",
      "type": "function"
    },
    {
      "inputs": [
        {
          "internalType": "address",
          "name": "_account",
          "type": "address"
        }
      ],
      "name": "getCurrentCollateralRatio",
      "outputs": [
        {
          "internalType": "uint256",
          "name": "",
          "type": "uint256"
        }
      ],
      "stateMutability": "view",
      "type": "function"
    },
    {
      "inputs": [
        {
          "internalType": "address",
          "name": "_account",
          "type": "address"
        },
        {
          "internalType": "uint256",
          "name": "_totalDebt",
          "type": "uint256"
        }
      ],
      "name": "getForwardCollateralRatio",
      "outputs": [
        {
          "internalType": "uint256",
          "name": "",
          "type": "uint256"
        }
      ],
      "stateMutability": "view",
      "type": "function"
    },
    {
      "inputs": [
        {
          "internalType": "address",
          "name": "_account",
          "type": "address"
        }
      ],
      "name": "getLiquidationFees",
      "outputs": [
        {
          "internalType": "uint256",
          "name": "",
          "type": "uint256"
        }
      ],
      "stateMutability": "view",
      "type": "function"
    },
    {
      "inputs": [
        {
          "internalType": "address",
          "name": "_account",
          "type": "address"
        }
      ],
      "name": "getPosition",
      "outputs": [
        {
          "internalType": "uint256",
          "name": "",
          "type": "uint256"
        },
        {
          "internalType": "uint256",
          "name": "",
          "type": "uint256"
        },
        {
          "internalType": "uint256",
          "name": "",
          "type": "uint256"
        },
        {
          "internalType": "uint256",
          "name": "",
          "type": "uint256"
        }
      ],
      "stateMutability": "view",
      "type": "function"
    },
    {
      "inputs": [],
      "name": "interestRate",
      "outputs": [
        {
          "internalType": "uint256",
          "name": "",
          "type": "uint256"
        }
      ],
      "stateMutability": "view",
      "type": "function"
    },
    {
      "inputs": [
        {
          "internalType": "address",
          "name": "_account",
          "type": "address"
        }
      ],
      "name": "isLiquidatable",
      "outputs": [
        {
          "internalType": "uint256",
          "name": "",
          "type": "uint256"
        },
        {
          "internalType": "bool",
          "name": "",
          "type": "bool"
        }
      ],
      "stateMutability": "view",
      "type": "function"
    },
    {
      "inputs": [],
      "name": "liqFeeProtocol",
      "outputs": [
        {
          "internalType": "uint256",
          "name": "",
          "type": "uint256"
        }
      ],
      "stateMutability": "view",
      "type": "function"
    },
    {
      "inputs": [],
      "name": "liqFeeSender",
      "outputs": [
        {
          "internalType": "uint256",
          "name": "",
          "type": "uint256"
        }
      ],
      "stateMutability": "view",
      "type": "function"
    },
    {
      "inputs": [],
      "name": "liqThreshold",
      "outputs": [
        {
          "internalType": "uint256",
          "name": "",
          "type": "uint256"
        }
      ],
      "stateMutability": "view",
      "type": "function"
    },
    {
      "inputs": [
        {
          "internalType": "address",
          "name": "_account",
          "type": "address"
        }
      ],
      "name": "liquidate",
      "outputs": [],
      "stateMutability": "nonpayable",
      "type": "function"
    },
    {
      "inputs": [],
      "name": "owner",
      "outputs": [
        {
          "internalType": "address",
          "name": "",
          "type": "address"
        }
      ],
      "stateMutability": "view",
      "type": "function"
    },
    {
      "inputs": [],
      "name": "protocolDebt",
      "outputs": [
        {
          "internalType": "uint256",
          "name": "",
          "type": "uint256"
        }
      ],
      "stateMutability": "view",
      "type": "function"
    },
    {
      "inputs": [],
      "name": "protocolIntRev",
      "outputs": [
        {
          "internalType": "uint256",
          "name": "",
          "type": "uint256"
        }
      ],
      "stateMutability": "view",
      "type": "function"
    },
    {
      "inputs": [],
      "name": "renounceOwnership",
      "outputs": [],
      "stateMutability": "nonpayable",
      "type": "function"
    },
    {
      "inputs": [
        {
          "internalType": "uint256",
          "name": "_amount",
          "type": "uint256"
        }
      ],
      "name": "repay",
      "outputs": [],
      "stateMutability": "nonpayable",
      "type": "function"
    },
    {
      "inputs": [
        {
          "internalType": "uint256",
          "name": "_liqFeeProtocol",
          "type": "uint256"
        },
        {
          "internalType": "uint256",
          "name": "_liqFeeSender",
          "type": "uint256"
        },
        {
          "internalType": "uint256",
          "name": "_interestRate",
          "type": "uint256"
        }
      ],
      "name": "setFeesAndRates",
      "outputs": [],
      "stateMutability": "nonpayable",
      "type": "function"
    },
    {
      "inputs": [
        {
          "internalType": "address",
          "name": "_sushiRouter",
          "type": "address"
        }
      ],
      "name": "setSushiAddresses",
      "outputs": [],
      "stateMutability": "nonpayable",
      "type": "function"
    },
    {
      "inputs": [
        {
          "internalType": "uint256",
          "name": "_borrowThreshold",
          "type": "uint256"
        },
        {
          "internalType": "uint256",
          "name": "_liqThreshold",
          "type": "uint256"
        }
      ],
      "name": "setThresholds",
      "outputs": [],
      "stateMutability": "nonpayable",
      "type": "function"
    },
    {
      "inputs": [
        {
          "internalType": "address",
          "name": "_usdz",
          "type": "address"
        },
        {
          "internalType": "address",
          "name": "_usdc",
          "type": "address"
        },
        {
          "internalType": "address",
          "name": "_xsushi",
          "type": "address"
        }
      ],
      "name": "setTokenAddresses",
      "outputs": [],
      "stateMutability": "nonpayable",
      "type": "function"
    },
    {
      "inputs": [],
      "name": "sushiRouterAddress",
      "outputs": [
        {
          "internalType": "address",
          "name": "",
          "type": "address"
        }
      ],
      "stateMutability": "view",
      "type": "function"
    },
    {
      "inputs": [
        {
          "internalType": "uint256",
          "name": "_usdcAmount",
          "type": "uint256"
        }
      ],
      "name": "swapUSDCforUSDZ",
      "outputs": [],
      "stateMutability": "nonpayable",
      "type": "function"
    },
    {
      "inputs": [
        {
          "internalType": "uint256",
          "name": "_usdzAmount",
          "type": "uint256"
        }
      ],
      "name": "swapUSDZforUSDC",
      "outputs": [],
      "stateMutability": "nonpayable",
      "type": "function"
    },
    {
      "inputs": [
        {
          "internalType": "address",
          "name": "newOwner",
          "type": "address"
        }
      ],
      "name": "transferOwnership",
      "outputs": [],
      "stateMutability": "nonpayable",
      "type": "function"
    },
    {
      "inputs": [],
      "name": "usdcAddress",
      "outputs": [
        {
          "internalType": "address",
          "name": "",
          "type": "address"
        }
      ],
      "stateMutability": "view",
      "type": "function"
    },
    {
      "inputs": [],
      "name": "usdzAddress",
      "outputs": [
        {
          "internalType": "address",
          "name": "",
          "type": "address"
        }
      ],
      "stateMutability": "view",
      "type": "function"
    },
    {
      "inputs": [
        {
          "internalType": "uint256",
          "name": "_amount",
          "type": "uint256"
        }
      ],
      "name": "withdraw",
      "outputs": [],
      "stateMutability": "nonpayable",
      "type": "function"
    },
    {
      "inputs": [],
      "name": "xSushiAddress",
      "outputs": [
        {
          "internalType": "address",
          "name": "",
          "type": "address"
        }
      ],
      "stateMutability": "view",
      "type": "function"
    },
    {
      "inputs": [
        {
          "internalType": "uint256",
          "name": "",
          "type": "uint256"
        }
      ],
      "name": "xSushiToUsdcPath",
      "outputs": [
        {
          "internalType": "address",
          "name": "",
          "type": "address"
        }
      ],
      "stateMutability": "view",
      "type": "function"
    }
  ],
  "bytecode": "0x60806040523480156200001157600080fd5b506040516200528d3803806200528d833981810160405281019062000037919062000586565b600062000049620003c560201b60201c565b9050806000806101000a81548173ffffffffffffffffffffffffffffffffffffffff021916908373ffffffffffffffffffffffffffffffffffffffff1602179055508073ffffffffffffffffffffffffffffffffffffffff16600073ffffffffffffffffffffffffffffffffffffffff167f8be0079c531659141344cd1fd0a4f28419497f9722a3daafe3b4186f6b6457e060405160405180910390a35089600660006101000a81548173ffffffffffffffffffffffffffffffffffffffff021916908373ffffffffffffffffffffffffffffffffffffffff16021790555088600560006101000a81548173ffffffffffffffffffffffffffffffffffffffff021916908373ffffffffffffffffffffffffffffffffffffffff16021790555087600760006101000a81548173ffffffffffffffffffffffffffffffffffffffff021916908373ffffffffffffffffffffffffffffffffffffffff16021790555086600860006101000a81548173ffffffffffffffffffffffffffffffffffffffff021916908373ffffffffffffffffffffffffffffffffffffffff16021790555084600a8190555083600b8190555082600c8190555081600d8190555080600e81905550856009908051906020019062000226929190620003f1565b50620002416301e18558620003cd60201b6200278a1760201c565b600f60006101000a8154816fffffffffffffffffffffffffffffffff0219169083600f0b6fffffffffffffffffffffffffffffffff160217905550600760009054906101000a900473ffffffffffffffffffffffffffffffffffffffff1673ffffffffffffffffffffffffffffffffffffffff1663095ea7b3600860009054906101000a900473ffffffffffffffffffffffffffffffffffffffff167fffffffffffffffffffffffffffffffffffffffffffffffffffffffffffffffff6040518363ffffffff1660e01b81526004016200031d9291906200071f565b602060405180830381600087803b1580156200033857600080fd5b505af11580156200034d573d6000803e3d6000fd5b505050506040513d601f19601f820116820180604052508101906200037391906200068f565b620003b5576040517f08c379a0000000000000000000000000000000000000000000000000000000008152600401620003ac906200074c565b60405180910390fd5b50505050505050505050620008a9565b600033905090565b6000677fffffffffffffff821115620003e557600080fd5b604082901b9050919050565b8280548282559060005260206000209081019282156200046d579160200282015b828111156200046c5782518260006101000a81548173ffffffffffffffffffffffffffffffffffffffff021916908373ffffffffffffffffffffffffffffffffffffffff1602179055509160200191906001019062000412565b5b5090506200047c919062000480565b5090565b5b808211156200049b57600081600090555060010162000481565b5090565b6000620004b6620004b084620007a2565b6200076e565b90508083825260208201905082856020860282011115620004d657600080fd5b60005b858110156200050a5781620004ef888262000514565b845260208401935060208301925050600181019050620004d9565b5050509392505050565b60008151905062000525816200085b565b92915050565b600082601f8301126200053d57600080fd5b81516200054f8482602086016200049f565b91505092915050565b600081519050620005698162000875565b92915050565b60008151905062000580816200088f565b92915050565b6000806000806000806000806000806101408b8d031215620005a757600080fd5b6000620005b78d828e0162000514565b9a50506020620005ca8d828e0162000514565b9950506040620005dd8d828e0162000514565b9850506060620005f08d828e0162000514565b97505060808b015167ffffffffffffffff8111156200060e57600080fd5b6200061c8d828e016200052b565b96505060a06200062f8d828e016200056f565b95505060c0620006428d828e016200056f565b94505060e0620006558d828e016200056f565b935050610100620006698d828e016200056f565b9250506101206200067d8d828e016200056f565b9150509295989b9194979a5092959850565b600060208284031215620006a257600080fd5b6000620006b28482850162000558565b91505092915050565b620006c681620007e2565b82525050565b6000620006db601583620007d1565b91507f78737573686920617070726f7665206661696c656400000000000000000000006000830152602082019050919050565b620007198162000822565b82525050565b6000604082019050620007366000830185620006bb565b6200074560208301846200070e565b9392505050565b600060208201905081810360008301526200076781620006cc565b9050919050565b6000604051905081810181811067ffffffffffffffff821117156200079857620007976200082c565b5b8060405250919050565b600067ffffffffffffffff821115620007c057620007bf6200082c565b5b602082029050602081019050919050565b600082825260208201905092915050565b6000620007ef8262000802565b9050919050565b60008115159050919050565b600073ffffffffffffffffffffffffffffffffffffffff82169050919050565b6000819050919050565b7f4e487b7100000000000000000000000000000000000000000000000000000000600052604160045260246000fd5b6200086681620007e2565b81146200087257600080fd5b50565b6200088081620007f6565b81146200088c57600080fd5b50565b6200089a8162000822565b8114620008a657600080fd5b50565b6149d480620008b96000396000f3fe608060405234801561001057600080fd5b50600436106102115760003560e01c80637348725111610125578063bfaf48d4116100ad578063de0bb74f1161007c578063de0bb74f146105f6578063e3064a7714610612578063ef4cadc51461062e578063f248e7e81461064c578063f2fde38b1461066857610211565b8063bfaf48d414610572578063c5ebeaec1461058e578063cde5f672146105aa578063daf5539e146105c657610211565b8063927e0a8f116100f4578063927e0a8f146104de578063ae2293d7146104fc578063b6b55f251461051a578063bd48b2df14610536578063bdfccad31461055457610211565b8063734872511461046657806379bbce8f146104845780637c3a00fd146104a25780638da5cb5b146104c057610211565b8063371fd8e6116101a85780635ae547e3116101775780635ae547e3146103c05780635dcc9391146103de57806369cb89c7146103fc5780637046b7a91461042c578063715018a61461045c57610211565b8063371fd8e61461033a578063410e73f7146103565780634a63a5ce146103745780634d3f9d3e146103a457610211565b806320809c6b116101e457806320809c6b146102b457806320bdf800146102e45780632e1a7d4d146103025780632f8655681461031e57610211565b806302d4545714610216578063042e02cf1461023457806316c19739146102655780631d89b10314610298575b600080fd5b61021e610684565b60405161022b9190614153565b60405180910390f35b61024e60048036038101906102499190613803565b6106aa565b60405161025c92919061454b565b60405180910390f35b61027f600480360381019061027a9190613803565b6106f1565b60405161028f9493929190614605565b60405180910390f35b6102b260048036038101906102ad9190613921565b6107e2565b005b6102ce60048036038101906102c99190613803565b610a17565b6040516102db9190614500565b60405180910390f35b6102ec610a60565b6040516102f99190614153565b60405180910390f35b61031c60048036038101906103179190613921565b610a86565b005b61033860048036038101906103339190613803565b610d78565b005b610354600480360381019061034f9190613921565b611112565b005b61035e61143d565b60405161036b9190614500565b60405180910390f35b61038e60048036038101906103899190613921565b611443565b60405161039b9190614153565b60405180910390f35b6103be60048036038101906103b9919061382c565b611482565b005b6103c86116a8565b6040516103d59190614500565b60405180910390f35b6103e66116ae565b6040516103f391906141ce565b60405180910390f35b61041660048036038101906104119190613803565b6116c1565b6040516104239190614500565b60405180910390f35b6104466004803603810190610441919061387b565b611930565b6040516104539190614500565b60405180910390f35b610464611944565b005b61046e611a7e565b60405161047b9190614500565b60405180910390f35b61048c611a84565b6040516104999190614153565b60405180910390f35b6104aa611aaa565b6040516104b79190614500565b60405180910390f35b6104c8611ab0565b6040516104d59190614153565b60405180910390f35b6104e6611ad9565b6040516104f39190614500565b60405180910390f35b610504611adf565b6040516105119190614500565b60405180910390f35b610534600480360381019061052f9190613921565b611ae5565b005b61053e611c7f565b60405161054b9190614500565b60405180910390f35b61055c611c85565b6040516105699190614153565b60405180910390f35b61058c600480360381019061058791906139af565b611cab565b005b6105a860048036038101906105a39190613921565b611dd6565b005b6105c460048036038101906105bf9190613921565b611fee565b005b6105e060048036038101906105db9190613803565b6121b3565b6040516105ed9190614500565b60405180910390f35b610610600480360381019061060b9190613921565b612208565b005b61062c60048036038101906106279190613973565b612393565b005b6106366124ab565b6040516106439190614500565b60405180910390f35b61066660048036038101906106619190613803565b6124b1565b005b610682600480360381019061067d9190613803565b6125e1565b005b600560009054906101000a900473ffffffffffffffffffffffffffffffffffffffff1681565b60008060008060006106bb866106f1565b909192505080925081935050506106dd8682846106d891906146f6565b611930565b925082600e54841094509450505050915091565b600080600080610700856116c1565b50600160008673ffffffffffffffffffffffffffffffffffffffff1673ffffffffffffffffffffffffffffffffffffffff16815260200190815260200160002060000154600160008773ffffffffffffffffffffffffffffffffffffffff1673ffffffffffffffffffffffffffffffffffffffff16815260200190815260200160002060010154610790876116c1565b600160008973ffffffffffffffffffffffffffffffffffffffff1673ffffffffffffffffffffffffffffffffffffffff1681526020019081526020016000206002015493509350935093509193509193565b6000600560009054906101000a900473ffffffffffffffffffffffffffffffffffffffff1673ffffffffffffffffffffffffffffffffffffffff166370a08231306040518263ffffffff1660e01b815260040161083f9190614153565b60206040518083038186803b15801561085757600080fd5b505afa15801561086b573d6000803e3d6000fd5b505050506040513d601f19601f8201168201806040525081019061088f919061394a565b9050818110156108d4576040517f08c379a00000000000000000000000000000000000000000000000000000000081526004016108cb906143c0565b60405180910390fd5b600660009054906101000a900473ffffffffffffffffffffffffffffffffffffffff1673ffffffffffffffffffffffffffffffffffffffff16639dc29fac33846040518363ffffffff1660e01b81526004016109319291906141a5565b600060405180830381600087803b15801561094b57600080fd5b505af115801561095f573d6000803e3d6000fd5b50505050600560009054906101000a900473ffffffffffffffffffffffffffffffffffffffff1673ffffffffffffffffffffffffffffffffffffffff1663a9059cbb33846040518363ffffffff1660e01b81526004016109c09291906141a5565b602060405180830381600087803b1580156109da57600080fd5b505af11580156109ee573d6000803e3d6000fd5b505050506040513d601f19601f82011682018060405250810190610a1291906138f8565b505050565b6000600260008373ffffffffffffffffffffffffffffffffffffffff1673ffffffffffffffffffffffffffffffffffffffff168152602001908152602001600020549050919050565b600660009054906101000a900473ffffffffffffffffffffffffffffffffffffffff1681565b6000600160003373ffffffffffffffffffffffffffffffffffffffff1673ffffffffffffffffffffffffffffffffffffffff16815260200190815260200160002090508181600001541015610b10576040517f08c379a0000000000000000000000000000000000000000000000000000000008152600401610b07906144e0565b60405180910390fd5b6000610b1b336116c1565b905080826001016000828254610b3191906146f6565b925050819055504282600201819055506000610b4c336121b3565b9050600d548111610b92576040517f08c379a0000000000000000000000000000000000000000000000000000000008152600401610b8990614280565b60405180910390fd5b60008084600101541415610bac5783600001549050610bd7565b600d5482610bba91906147d7565b828560000154610bca919061474c565b610bd4919061477d565b90505b84811015610c1a576040517f08c379a0000000000000000000000000000000000000000000000000000000008152600401610c1190614340565b60405180910390fd5b84846000016000828254610c2e91906147d7565b92505081905550600760009054906101000a900473ffffffffffffffffffffffffffffffffffffffff1673ffffffffffffffffffffffffffffffffffffffff1663a9059cbb33876040518363ffffffff1660e01b8152600401610c929291906141a5565b602060405180830381600087803b158015610cac57600080fd5b505af1158015610cc0573d6000803e3d6000fd5b505050506040513d601f19601f82011682018060405250810190610ce491906138f8565b610d23576040517f08c379a0000000000000000000000000000000000000000000000000000000008152600401610d1a90614300565b60405180910390fd5b3373ffffffffffffffffffffffffffffffffffffffff167f884edad9ce6fa2440d8a54cc123490eb96d2768479d49ff9c7366125a942436486604051610d699190614500565b60405180910390a25050505050565b6000600160008373ffffffffffffffffffffffffffffffffffffffff1673ffffffffffffffffffffffffffffffffffffffff16815260200190815260200160002090506000816000015411610e02576040517f08c379a0000000000000000000000000000000000000000000000000000000008152600401610df9906142e0565b60405180910390fd5b6000610e0d836116c1565b9050600e54610e2b84838560010154610e2691906146f6565b611930565b10610e6b576040517f08c379a0000000000000000000000000000000000000000000000000000000008152600401610e6290614460565b60405180910390fd5b6000612710600a548460000154610e82919061477d565b610e8c919061474c565b90506000612710600b548560000154610ea5919061477d565b610eaf919061474c565b905083600001548183610ec291906146f6565b1115610f03576040517f08c379a0000000000000000000000000000000000000000000000000000000008152600401610efa90614440565b60405180910390fd5b81600260003073ffffffffffffffffffffffffffffffffffffffff1673ffffffffffffffffffffffffffffffffffffffff1681526020019081526020016000206000828254610f5291906146f6565b9250508190555080600260003373ffffffffffffffffffffffffffffffffffffffff1673ffffffffffffffffffffffffffffffffffffffff1681526020019081526020016000206000828254610fa891906146f6565b9250508190555060008183610fbd91906146f6565b8560000154610fcc91906147d7565b9050600860009054906101000a900473ffffffffffffffffffffffffffffffffffffffff1673ffffffffffffffffffffffffffffffffffffffff166338ed1739826000600930426040518663ffffffff1660e01b8152600401611033959493929190614574565b600060405180830381600087803b15801561104d57600080fd5b505af1158015611061573d6000803e3d6000fd5b505050506040513d6000823e3d601f19601f8201168201806040525081019061108a91906138b7565b5060008560000181905550600085600101819055503373ffffffffffffffffffffffffffffffffffffffff168673ffffffffffffffffffffffffffffffffffffffff167f5a821a618ddb1a1fd304234a69c9d7f20c129d122fcf35593d13a071926643076000806000604051611102939291906141e9565b60405180910390a3505050505050565b60008111611155576040517f08c379a000000000000000000000000000000000000000000000000000000000815260040161114c90614420565b60405180910390fd5b6000600160003373ffffffffffffffffffffffffffffffffffffffff1673ffffffffffffffffffffffffffffffffffffffff16815260200190815260200160002090506111a1336116c1565b8160010160008282546111b491906146f6565b9250508190555042816002018190555081816001015411156112e057600660009054906101000a900473ffffffffffffffffffffffffffffffffffffffff1673ffffffffffffffffffffffffffffffffffffffff166323b872dd3330856040518463ffffffff1660e01b815260040161122f9392919061416e565b602060405180830381600087803b15801561124957600080fd5b505af115801561125d573d6000803e3d6000fd5b505050506040513d601f19601f8201168201806040525081019061128191906138f8565b6112c0576040517f08c379a00000000000000000000000000000000000000000000000000000000081526004016112b7906143e0565b60405180910390fd5b818160010160008282546112d491906147d7565b925050819055506113df565b600660009054906101000a900473ffffffffffffffffffffffffffffffffffffffff1673ffffffffffffffffffffffffffffffffffffffff166323b872dd333084600101546040518463ffffffff1660e01b81526004016113439392919061416e565b602060405180830381600087803b15801561135d57600080fd5b505af1158015611371573d6000803e3d6000fd5b505050506040513d601f19601f8201168201806040525081019061139591906138f8565b6113d4576040517f08c379a00000000000000000000000000000000000000000000000000000000081526004016113cb906143e0565b60405180910390fd5b600081600101819055505b3373ffffffffffffffffffffffffffffffffffffffff167f2fe77b1c99aca6b022b8efc6e3e8dd1b48b30748709339b65c50ef3263443e098383600101548460000154604051611431939291906145ce565b60405180910390a25050565b600a5481565b6009818154811061145357600080fd5b906000526020600020016000915054906101000a900473ffffffffffffffffffffffffffffffffffffffff1681565b61148a6127ad565b73ffffffffffffffffffffffffffffffffffffffff166114a8611ab0565b73ffffffffffffffffffffffffffffffffffffffff16146114fe576040517f08c379a00000000000000000000000000000000000000000000000000000000081526004016114f590614400565b60405180910390fd5b600073ffffffffffffffffffffffffffffffffffffffff168373ffffffffffffffffffffffffffffffffffffffff16141580156115685750600073ffffffffffffffffffffffffffffffffffffffff168273ffffffffffffffffffffffffffffffffffffffff1614155b80156115a15750600073ffffffffffffffffffffffffffffffffffffffff168173ffffffffffffffffffffffffffffffffffffffff1614155b6115e0576040517f08c379a00000000000000000000000000000000000000000000000000000000081526004016115d790614380565b60405180910390fd5b82600660006101000a81548173ffffffffffffffffffffffffffffffffffffffff021916908373ffffffffffffffffffffffffffffffffffffffff16021790555081600560006101000a81548173ffffffffffffffffffffffffffffffffffffffff021916908373ffffffffffffffffffffffffffffffffffffffff16021790555080600760006101000a81548173ffffffffffffffffffffffffffffffffffffffff021916908373ffffffffffffffffffffffffffffffffffffffff160217905550505050565b600d5481565b600f60009054906101000a9004600f0b81565b600080600160008473ffffffffffffffffffffffffffffffffffffffff1673ffffffffffffffffffffffffffffffffffffffff16815260200190815260200160002060010154148061175557506000600160008473ffffffffffffffffffffffffffffffffffffffff1673ffffffffffffffffffffffffffffffffffffffff16815260200190815260200160002060020154145b8061176257506000600c54145b806117ae5750600160008373ffffffffffffffffffffffffffffffffffffffff1673ffffffffffffffffffffffffffffffffffffffff1681526020019081526020016000206002015442145b156117bc576000905061192b565b6000600160008473ffffffffffffffffffffffffffffffffffffffff1673ffffffffffffffffffffffffffffffffffffffff168152602001908152602001600020600201544261180c91906147d7565b9050600061183161181c8361278a565b600f60009054906101000a9004600f0b6127b5565b90506000611853611843600c5461278a565b61184e61271061278a565b6127b5565b905060006118a2600160008873ffffffffffffffffffffffffffffffffffffffff1673ffffffffffffffffffffffffffffffffffffffff1681526020019081526020016000206001015461278a565b905060006118c96118c4836118bf6118ba8789612865565b6128d0565b612865565b612949565b9050600160008873ffffffffffffffffffffffffffffffffffffffff1673ffffffffffffffffffffffffffffffffffffffff168152602001908152602001600020600101548167ffffffffffffffff1661192391906147d7565b955050505050505b919050565b600061193c838361296a565b905092915050565b61194c6127ad565b73ffffffffffffffffffffffffffffffffffffffff1661196a611ab0565b73ffffffffffffffffffffffffffffffffffffffff16146119c0576040517f08c379a00000000000000000000000000000000000000000000000000000000081526004016119b790614400565b60405180910390fd5b600073ffffffffffffffffffffffffffffffffffffffff1660008054906101000a900473ffffffffffffffffffffffffffffffffffffffff1673ffffffffffffffffffffffffffffffffffffffff167f8be0079c531659141344cd1fd0a4f28419497f9722a3daafe3b4186f6b6457e060405160405180910390a360008060006101000a81548173ffffffffffffffffffffffffffffffffffffffff021916908373ffffffffffffffffffffffffffffffffffffffff160217905550565b60045481565b600860009054906101000a900473ffffffffffffffffffffffffffffffffffffffff1681565b600c5481565b60008060009054906101000a900473ffffffffffffffffffffffffffffffffffffffff16905090565b60035481565b600e5481565b600760009054906101000a900473ffffffffffffffffffffffffffffffffffffffff1673ffffffffffffffffffffffffffffffffffffffff166323b872dd3330846040518463ffffffff1660e01b8152600401611b449392919061416e565b602060405180830381600087803b158015611b5e57600080fd5b505af1158015611b72573d6000803e3d6000fd5b505050506040513d601f19601f82011682018060405250810190611b9691906138f8565b611bd5576040517f08c379a0000000000000000000000000000000000000000000000000000000008152600401611bcc90614480565b60405180910390fd5b80600160003373ffffffffffffffffffffffffffffffffffffffff1673ffffffffffffffffffffffffffffffffffffffff1681526020019081526020016000206000016000828254611c2791906146f6565b925050819055503373ffffffffffffffffffffffffffffffffffffffff167fe1fffcc4923d04b559f4d29a8bfc6cda04eb5b0d3c460751c2402c5c5cc9109c82604051611c749190614500565b60405180910390a250565b600b5481565b600760009054906101000a900473ffffffffffffffffffffffffffffffffffffffff1681565b611cb36127ad565b73ffffffffffffffffffffffffffffffffffffffff16611cd1611ab0565b73ffffffffffffffffffffffffffffffffffffffff1614611d27576040517f08c379a0000000000000000000000000000000000000000000000000000000008152600401611d1e90614400565b60405180910390fd5b6127108284611d3691906146f6565b1115611d77576040517f08c379a0000000000000000000000000000000000000000000000000000000008152600401611d6e90614360565b60405180910390fd5b82600a8190555081600b81905550612710811115611dca576040517f08c379a0000000000000000000000000000000000000000000000000000000008152600401611dc1906144a0565b60405180910390fd5b80600c81905550505050565b60008111611e19576040517f08c379a0000000000000000000000000000000000000000000000000000000008152600401611e10906142c0565b60405180910390fd5b6000600160003373ffffffffffffffffffffffffffffffffffffffff1673ffffffffffffffffffffffffffffffffffffffff16815260200190815260200160002090506000611e67336116c1565b9050600d54611e903385848660010154611e8191906146f6565b611e8b91906146f6565b611930565b1015611ed1576040517f08c379a0000000000000000000000000000000000000000000000000000000008152600401611ec890614240565b60405180910390fd5b8083611edd91906146f6565b826001016000828254611ef091906146f6565b92505081905550428260020181905550600660009054906101000a900473ffffffffffffffffffffffffffffffffffffffff1673ffffffffffffffffffffffffffffffffffffffff166340c10f1933856040518363ffffffff1660e01b8152600401611f5d9291906141a5565b600060405180830381600087803b158015611f7757600080fd5b505af1158015611f8b573d6000803e3d6000fd5b505050503373ffffffffffffffffffffffffffffffffffffffff167f13ed6866d4e1ee6da46f845c46d7e54120883d75c5ea9a2dacc1c4ca8984ab808484600101548560000154604051611fe1939291906145ce565b60405180910390a2505050565b60008111612031576040517f08c379a0000000000000000000000000000000000000000000000000000000008152600401612028906142a0565b60405180910390fd5b600560009054906101000a900473ffffffffffffffffffffffffffffffffffffffff1673ffffffffffffffffffffffffffffffffffffffff166323b872dd3330846040518463ffffffff1660e01b81526004016120909392919061416e565b602060405180830381600087803b1580156120aa57600080fd5b505af11580156120be573d6000803e3d6000fd5b505050506040513d601f19601f820116820180604052508101906120e291906138f8565b612121576040517f08c379a000000000000000000000000000000000000000000000000000000000815260040161211890614220565b60405180910390fd5b600660009054906101000a900473ffffffffffffffffffffffffffffffffffffffff1673ffffffffffffffffffffffffffffffffffffffff166340c10f1933836040518363ffffffff1660e01b815260040161217e9291906141a5565b600060405180830381600087803b15801561219857600080fd5b505af11580156121ac573d6000803e3d6000fd5b5050505050565b600061220182600160008573ffffffffffffffffffffffffffffffffffffffff1673ffffffffffffffffffffffffffffffffffffffff1681526020019081526020016000206001015461296a565b9050919050565b80600260003373ffffffffffffffffffffffffffffffffffffffff1673ffffffffffffffffffffffffffffffffffffffff16815260200190815260200160002054101561228a576040517f08c379a0000000000000000000000000000000000000000000000000000000008152600401612281906143a0565b60405180910390fd5b80600260003373ffffffffffffffffffffffffffffffffffffffff1673ffffffffffffffffffffffffffffffffffffffff16815260200190815260200160002060008282546122d991906147d7565b92505081905550600760009054906101000a900473ffffffffffffffffffffffffffffffffffffffff1673ffffffffffffffffffffffffffffffffffffffff1663a9059cbb33836040518363ffffffff1660e01b815260040161233d9291906141a5565b602060405180830381600087803b15801561235757600080fd5b505af115801561236b573d6000803e3d6000fd5b505050506040513d601f19601f8201168201806040525081019061238f91906138f8565b5050565b61239b6127ad565b73ffffffffffffffffffffffffffffffffffffffff166123b9611ab0565b73ffffffffffffffffffffffffffffffffffffffff161461240f576040517f08c379a000000000000000000000000000000000000000000000000000000000815260040161240690614400565b60405180910390fd5b612710821015612454576040517f08c379a000000000000000000000000000000000000000000000000000000000815260040161244b90614320565b60405180910390fd5b612710811015612499576040517f08c379a0000000000000000000000000000000000000000000000000000000008152600401612490906144c0565b60405180910390fd5b81600d8190555080600e819055505050565b61271081565b6124b96127ad565b73ffffffffffffffffffffffffffffffffffffffff166124d7611ab0565b73ffffffffffffffffffffffffffffffffffffffff161461252d576040517f08c379a000000000000000000000000000000000000000000000000000000000815260040161252490614400565b60405180910390fd5b600073ffffffffffffffffffffffffffffffffffffffff168173ffffffffffffffffffffffffffffffffffffffff16141561259d576040517f08c379a000000000000000000000000000000000000000000000000000000000815260040161259490614380565b60405180910390fd5b80600860006101000a81548173ffffffffffffffffffffffffffffffffffffffff021916908373ffffffffffffffffffffffffffffffffffffffff16021790555050565b6125e96127ad565b73ffffffffffffffffffffffffffffffffffffffff16612607611ab0565b73ffffffffffffffffffffffffffffffffffffffff161461265d576040517f08c379a000000000000000000000000000000000000000000000000000000000815260040161265490614400565b60405180910390fd5b600073ffffffffffffffffffffffffffffffffffffffff168173ffffffffffffffffffffffffffffffffffffffff1614156126cd576040517f08c379a00000000000000000000000000000000000000000000000000000000081526004016126c490614260565b60405180910390fd5b8073ffffffffffffffffffffffffffffffffffffffff1660008054906101000a900473ffffffffffffffffffffffffffffffffffffffff1673ffffffffffffffffffffffffffffffffffffffff167f8be0079c531659141344cd1fd0a4f28419497f9722a3daafe3b4186f6b6457e060405160405180910390a3806000806101000a81548173ffffffffffffffffffffffffffffffffffffffff021916908373ffffffffffffffffffffffffffffffffffffffff16021790555050565b6000677fffffffffffffff8211156127a157600080fd5b604082901b9050919050565b600033905090565b60008082600f0b14156127c757600080fd5b600082600f0b604085600f0b901b81612809577f4e487b7100000000000000000000000000000000000000000000000000000000600052601260045260246000fd5b0590507fffffffffffffffffffffffffffffffff80000000000000000000000000000000600f0b811215801561285257506f7fffffffffffffffffffffffffffffff600f0b8113155b61285b57600080fd5b8091505092915050565b600080604083600f0b85600f0b02901d90507fffffffffffffffffffffffffffffffff80000000000000000000000000000000600f0b81121580156128bd57506f7fffffffffffffffffffffffffffffff600f0b8113155b6128c657600080fd5b8091505092915050565b60006840000000000000000082600f0b126128ea57600080fd5b7fffffffffffffffffffffffffffffffffffffffffffffffc0000000000000000082600f0b121561291e5760009050612944565b6129416080700171547652b82fe1777d0ffda0d23a7d1284600f0b02901d612b19565b90505b919050565b60008082600f0b121561295b57600080fd5b604082600f0b901d9050919050565b600080600160008573ffffffffffffffffffffffffffffffffffffffff1673ffffffffffffffffffffffffffffffffffffffff16815260200190815260200160002060000154905060008114156129c5576000915050612b13565b60008314156129f7577fffffffffffffffffffffffffffffffffffffffffffffffffffffffffffffffff915050612b13565b6000600860009054906101000a900473ffffffffffffffffffffffffffffffffffffffff16905060008173ffffffffffffffffffffffffffffffffffffffff1663d06ca61f8460096040518363ffffffff1660e01b8152600401612a5c92919061451b565b60006040518083038186803b158015612a7457600080fd5b505afa158015612a88573d6000803e3d6000fd5b505050506040513d6000823e3d601f19601f82011682018060405250810190612ab191906138b7565b600281518110612aea577f4e487b7100000000000000000000000000000000000000000000000000000000600052603260045260246000fd5b602002602001015190508461271082612b03919061477d565b612b0d919061474c565b93505050505b92915050565b60006840000000000000000082600f0b12612b3357600080fd5b7fffffffffffffffffffffffffffffffffffffffffffffffc0000000000000000082600f0b1215612b675760009050613714565b60006f80000000000000000000000000000000905060006780000000000000008416600f0b1315612bad57608070016a09e667f3bcc908b2fb1366ea957d3e8202901c90505b60006740000000000000008416600f0b1315612bde5760807001306fe0a31b7152de8d5a46305c85edec8202901c90505b60006720000000000000008416600f0b1315612c0f5760807001172b83c7d517adcdf7c8c50eb14a791f8202901c90505b60006710000000000000008416600f0b1315612c4057608070010b5586cf9890f6298b92b71842a983638202901c90505b60006708000000000000008416600f0b1315612c715760807001059b0d31585743ae7c548eb68ca417fd8202901c90505b60006704000000000000008416600f0b1315612ca2576080700102c9a3e778060ee6f7caca4f7a29bde88202901c90505b60006702000000000000008416600f0b1315612cd357608070010163da9fb33356d84a66ae336dcdfa3f8202901c90505b60006701000000000000008416600f0b1315612d04576080700100b1afa5abcbed6129ab13ec11dc95438202901c90505b600066800000000000008416600f0b1315612d3457608070010058c86da1c09ea1ff19d294cf2f679b8202901c90505b600066400000000000008416600f0b1315612d645760807001002c605e2e8cec506d21bfc89a23a00f8202901c90505b600066200000000000008416600f0b1315612d94576080700100162f3904051fa128bca9c55c31e5df8202901c90505b600066100000000000008416600f0b1315612dc45760807001000b175effdc76ba38e31671ca9397258202901c90505b600066080000000000008416600f0b1315612df4576080700100058ba01fb9f96d6cacd4b180917c3d8202901c90505b600066040000000000008416600f0b1315612e2457608070010002c5cc37da9491d0985c348c68e7b38202901c90505b600066020000000000008416600f0b1315612e545760807001000162e525ee054754457d59952920268202901c90505b600066010000000000008416600f0b1315612e8457608070010000b17255775c040618bf4a4ade83fc8202901c90505b6000658000000000008416600f0b1315612eb35760807001000058b91b5bc9ae2eed81e9b7d4cfab8202901c90505b6000654000000000008416600f0b1315612ee2576080700100002c5c89d5ec6ca4d7c8acc017b7c98202901c90505b6000652000000000008416600f0b1315612f1157608070010000162e43f4f831060e02d839a9d16d8202901c90505b6000651000000000008416600f0b1315612f40576080700100000b1721bcfc99d9f890ea069117638202901c90505b6000650800000000008416600f0b1315612f6f57608070010000058b90cf1e6d97f9ca14dbcc16288202901c90505b6000650400000000008416600f0b1315612f9e5760807001000002c5c863b73f016468f6bac5ca2b8202901c90505b6000650200000000008416600f0b1315612fcd576080700100000162e430e5a18f6119e3c02282a58202901c90505b6000650100000000008416600f0b1315612ffc5760807001000000b1721835514b86e6d96efd1bfe8202901c90505b60006480000000008416600f0b131561302a576080700100000058b90c0b48c6be5df846c5b2ef8202901c90505b60006440000000008416600f0b131561305857608070010000002c5c8601cc6b9e94213c72737a8202901c90505b60006420000000008416600f0b13156130865760807001000000162e42fff037df38aa2b219f068202901c90505b60006410000000008416600f0b13156130b457608070010000000b17217fba9c739aa5819f44f98202901c90505b60006408000000008416600f0b13156130e25760807001000000058b90bfcdee5acd3c1cedc8238202901c90505b60006404000000008416600f0b1315613110576080700100000002c5c85fe31f35a6a30da1be508202901c90505b60006402000000008416600f0b131561313e57608070010000000162e42ff0999ce3541b9fffcf8202901c90505b60006401000000008416600f0b131561316c576080700100000000b17217f80f4ef5aadda455548202901c90505b600063800000008416600f0b131561319957608070010000000058b90bfbf8479bd5a81b51ad8202901c90505b600063400000008416600f0b13156131c65760807001000000002c5c85fdf84bd62ae30a74cc8202901c90505b600063200000008416600f0b13156131f3576080700100000000162e42fefb2fed257559bdaa8202901c90505b600063100000008416600f0b13156132205760807001000000000b17217f7d5a7716bba4a9ae8202901c90505b600063080000008416600f0b131561324d576080700100000000058b90bfbe9ddbac5e109cce8202901c90505b600063040000008416600f0b131561327a57608070010000000002c5c85fdf4b15de6f17eb0d8202901c90505b600063020000008416600f0b13156132a75760807001000000000162e42fefa494f1478fde058202901c90505b600063010000008416600f0b13156132d457608070010000000000b17217f7d20cf927c8e94c8202901c90505b6000628000008416600f0b13156133005760807001000000000058b90bfbe8f71cb4e4b33d8202901c90505b6000624000008416600f0b131561332c576080700100000000002c5c85fdf477b662b269458202901c90505b6000622000008416600f0b131561335857608070010000000000162e42fefa3ae53369388c8202901c90505b6000621000008416600f0b1315613384576080700100000000000b17217f7d1d351a389d408202901c90505b6000620800008416600f0b13156133b057608070010000000000058b90bfbe8e8b2d3d4ede8202901c90505b6000620400008416600f0b13156133dc5760807001000000000002c5c85fdf4741bea6e77e8202901c90505b6000620200008416600f0b1315613408576080700100000000000162e42fefa39fe95583c28202901c90505b6000620100008416600f0b13156134345760807001000000000000b17217f7d1cfb72b45e18202901c90505b60006180008416600f0b131561345f576080700100000000000058b90bfbe8e7cc35c3f08202901c90505b60006140008416600f0b131561348a57608070010000000000002c5c85fdf473e242ea388202901c90505b60006120008416600f0b13156134b55760807001000000000000162e42fefa39f02b772c8202901c90505b60006110008416600f0b13156134e057608070010000000000000b17217f7d1cf7d83c1a8202901c90505b60006108008416600f0b131561350b5760807001000000000000058b90bfbe8e7bdcbe2e8202901c90505b60006104008416600f0b1315613536576080700100000000000002c5c85fdf473dea871f8202901c90505b60006102008416600f0b131561356157608070010000000000000162e42fefa39ef44d918202901c90505b60006101008416600f0b131561358c576080700100000000000000b17217f7d1cf79e9498202901c90505b600060808416600f0b13156135b657608070010000000000000058b90bfbe8e7bce5448202901c90505b600060408416600f0b13156135e05760807001000000000000002c5c85fdf473de6eca8202901c90505b600060208416600f0b131561360a576080700100000000000000162e42fefa39ef366f8202901c90505b600060108416600f0b13156136345760807001000000000000000b17217f7d1cf79afa8202901c90505b600060088416600f0b131561365e576080700100000000000000058b90bfbe8e7bcd6d8202901c90505b600060048416600f0b131561368857608070010000000000000002c5c85fdf473de6b28202901c90505b600060028416600f0b13156136b25760807001000000000000000162e42fefa39ef3588202901c90505b600060018416600f0b13156136dc57608070010000000000000000b17217f7d1cf79ab8202901c90505b604083600f0b901d603f03600f0b81901c90506f7fffffffffffffffffffffffffffffff600f0b81111561370f57600080fd5b809150505b919050565b600061372c6137278461467b565b61464a565b9050808382526020820190508285602086028201111561374b57600080fd5b60005b8581101561377b578161376188826137ee565b84526020840193506020830192505060018101905061374e565b5050509392505050565b60008135905061379481614959565b92915050565b600082601f8301126137ab57600080fd5b81516137bb848260208601613719565b91505092915050565b6000815190506137d381614970565b92915050565b6000813590506137e881614987565b92915050565b6000815190506137fd81614987565b92915050565b60006020828403121561381557600080fd5b600061382384828501613785565b91505092915050565b60008060006060848603121561384157600080fd5b600061384f86828701613785565b935050602061386086828701613785565b925050604061387186828701613785565b9150509250925092565b6000806040838503121561388e57600080fd5b600061389c85828601613785565b92505060206138ad858286016137d9565b9150509250929050565b6000602082840312156138c957600080fd5b600082015167ffffffffffffffff8111156138e357600080fd5b6138ef8482850161379a565b91505092915050565b60006020828403121561390a57600080fd5b6000613918848285016137c4565b91505092915050565b60006020828403121561393357600080fd5b6000613941848285016137d9565b91505092915050565b60006020828403121561395c57600080fd5b600061396a848285016137ee565b91505092915050565b6000806040838503121561398657600080fd5b6000613994858286016137d9565b92505060206139a5858286016137d9565b9150509250929050565b6000806000606084860312156139c457600080fd5b60006139d2868287016137d9565b93505060206139e3868287016137d9565b92505060406139f4868287016137d9565b9150509250925092565b6000613a0a8383613a16565b60208301905092915050565b613a1f8161482b565b82525050565b613a2e8161482b565b82525050565b6000613a3f826146bc565b613a4981856146d4565b9350613a54836146a7565b8060005b83811015613a8c57613a6982614939565b613a7388826139fe565b9750613a7e836146c7565b925050600181019050613a58565b5085935050505092915050565b613aa28161483d565b82525050565b613ab181614849565b82525050565b613ac081614880565b82525050565b6000613ad36014836146e5565b91507f55534443207472616e73666572206661696c65640000000000000000000000006000830152602082019050919050565b6000613b136029836146e5565b91507f6e6f7420656e6f75676820636f6c6c61746572616c20746f20626f72726f772060008301527f74686174206d75636800000000000000000000000000000000000000000000006020830152604082019050919050565b6000613b796026836146e5565b91507f4f776e61626c653a206e6577206f776e657220697320746865207a65726f206160008301527f64647265737300000000000000000000000000000000000000000000000000006020830152604082019050919050565b6000613bdf6022836146e5565b91507f6163636f756e7420616c72656164792062656c6f77207361666574792072617460008301527f696f0000000000000000000000000000000000000000000000000000000000006020830152604082019050919050565b6000613c456014836146e5565b91507f63616e2774206d696e74207a65726f205553445a0000000000000000000000006000830152602082019050919050565b6000613c85600e836146e5565b91507f63616e277420626f72726f7720300000000000000000000000000000000000006000830152602082019050919050565b6000613cc56019836146e5565b91507f6163636f756e7420686173206e6f20636f6c6c61746572616c000000000000006000830152602082019050919050565b6000613d056018836146e5565b91507f7769746864726177207472616e73666572206661696c656400000000000000006000830152602082019050919050565b6000613d456029836146e5565b91507f626f72726f77207468726573686f6c64206d757374206265203e207363616c6960008301527f6e6720666163746f7200000000000000000000000000000000000000000000006020830152604082019050919050565b6000613dab6019836146e5565b91507f616d6f756e7420756e7361666520746f207769746864726177000000000000006000830152602082019050919050565b6000613deb6015836146e5565b91507f6c69712066656573206f7574206f662072616e676500000000000000000000006000830152602082019050919050565b6000613e2b6018836146e5565b91507f7a65726f2061646472657373206e6f7420616c6c6f77656400000000000000006000830152602082019050919050565b6000613e6b601a836146e5565b91507f616d6f756e7420686967686572207468616e2062616c616e63650000000000006000830152602082019050919050565b6000613eab6014836146e5565b91507f55534443207265736572766520746f6f206c6f770000000000000000000000006000830152602082019050919050565b6000613eeb6015836146e5565b91507f7265706179207472616e73666572206661696c656400000000000000000000006000830152602082019050919050565b6000613f2b6020836146e5565b91507f4f776e61626c653a2063616c6c6572206973206e6f7420746865206f776e65726000830152602082019050919050565b6000613f6b600d836146e5565b91507f63616e27742072657061792030000000000000000000000000000000000000006000830152602082019050919050565b6000613fab6018836146e5565b91507f6c6971206665657320696e636f72726563746c792073657400000000000000006000830152602082019050919050565b6000613feb601f836146e5565b91507f6163636f756e74206e6f742062656c6f77206c6971207468726573686f6c64006000830152602082019050919050565b600061402b600e836146e5565b91507f6465706f736974206661696c65640000000000000000000000000000000000006000830152602082019050919050565b600061406b6019836146e5565b91507f696e74657265737452617465206f7574206f662072616e6765000000000000006000830152602082019050919050565b60006140ab6026836146e5565b91507f6c6971207468726573686f6c64206d757374206265203e207363616c696e672060008301527f666163746f7200000000000000000000000000000000000000000000000000006020830152604082019050919050565b60006141116020836146e5565b91507f6e6f7420656e6f75676820636f6c6c61746572616c20696e206163636f756e746000830152602082019050919050565b61414d81614876565b82525050565b60006020820190506141686000830184613a25565b92915050565b60006060820190506141836000830186613a25565b6141906020830185613a25565b61419d6040830184614144565b949350505050565b60006040820190506141ba6000830185613a25565b6141c76020830184614144565b9392505050565b60006020820190506141e36000830184613aa8565b92915050565b60006060820190506141fe6000830186613ab7565b61420b6020830185613ab7565b6142186040830184613ab7565b949350505050565b6000602082019050818103600083015261423981613ac6565b9050919050565b6000602082019050818103600083015261425981613b06565b9050919050565b6000602082019050818103600083015261427981613b6c565b9050919050565b6000602082019050818103600083015261429981613bd2565b9050919050565b600060208201905081810360008301526142b981613c38565b9050919050565b600060208201905081810360008301526142d981613c78565b9050919050565b600060208201905081810360008301526142f981613cb8565b9050919050565b6000602082019050818103600083015261431981613cf8565b9050919050565b6000602082019050818103600083015261433981613d38565b9050919050565b6000602082019050818103600083015261435981613d9e565b9050919050565b6000602082019050818103600083015261437981613dde565b9050919050565b6000602082019050818103600083015261439981613e1e565b9050919050565b600060208201905081810360008301526143b981613e5e565b9050919050565b600060208201905081810360008301526143d981613e9e565b9050919050565b600060208201905081810360008301526143f981613ede565b9050919050565b6000602082019050818103600083015261441981613f1e565b9050919050565b6000602082019050818103600083015261443981613f5e565b9050919050565b6000602082019050818103600083015261445981613f9e565b9050919050565b6000602082019050818103600083015261447981613fde565b9050919050565b600060208201905081810360008301526144998161401e565b9050919050565b600060208201905081810360008301526144b98161405e565b9050919050565b600060208201905081810360008301526144d98161409e565b9050919050565b600060208201905081810360008301526144f981614104565b9050919050565b60006020820190506145156000830184614144565b92915050565b60006040820190506145306000830185614144565b81810360208301526145428184613a34565b90509392505050565b60006040820190506145606000830185614144565b61456d6020830184613a99565b9392505050565b600060a0820190506145896000830188614144565b6145966020830187613ab7565b81810360408301526145a88186613a34565b90506145b76060830185613a25565b6145c46080830184614144565b9695505050505050565b60006060820190506145e36000830186614144565b6145f06020830185614144565b6145fd6040830184614144565b949350505050565b600060808201905061461a6000830187614144565b6146276020830186614144565b6146346040830185614144565b6146416060830184614144565b95945050505050565b6000604051905081810181811067ffffffffffffffff821117156146715761467061490a565b5b8060405250919050565b600067ffffffffffffffff8211156146965761469561490a565b5b602082029050602081019050919050565b60008190508160005260206000209050919050565b600081549050919050565b6000600182019050919050565b600082825260208201905092915050565b600082825260208201905092915050565b600061470182614876565b915061470c83614876565b9250827fffffffffffffffffffffffffffffffffffffffffffffffffffffffffffffffff03821115614741576147406148ac565b5b828201905092915050565b600061475782614876565b915061476283614876565b925082614772576147716148db565b5b828204905092915050565b600061478882614876565b915061479383614876565b9250817fffffffffffffffffffffffffffffffffffffffffffffffffffffffffffffffff04831182151516156147cc576147cb6148ac565b5b828202905092915050565b60006147e282614876565b91506147ed83614876565b925082821015614800576147ff6148ac565b5b828203905092915050565b600073ffffffffffffffffffffffffffffffffffffffff82169050919050565b600061483682614856565b9050919050565b60008115159050919050565b600081600f0b9050919050565b600073ffffffffffffffffffffffffffffffffffffffff82169050919050565b6000819050919050565b600061488b82614876565b9050919050565b60006148a56148a08361494c565b61480b565b9050919050565b7f4e487b7100000000000000000000000000000000000000000000000000000000600052601160045260246000fd5b7f4e487b7100000000000000000000000000000000000000000000000000000000600052601260045260246000fd5b7f4e487b7100000000000000000000000000000000000000000000000000000000600052604160045260246000fd5b60006149458254614892565b9050919050565b60008160001c9050919050565b6149628161482b565b811461496d57600080fd5b50565b6149798161483d565b811461498457600080fd5b50565b61499081614876565b811461499b57600080fd5b5056fea26469706673582212206415ccf5927f98c040efacdf0547a2fba6c1033ccf2611c834f08abfa5cce01764736f6c63430008000033",
  "linkReferences": {},
  "deployedLinkReferences": {}
}