{
  "_format": "hh-sol-artifact-1",
  "contractName": "Controller",
  "sourceName": "contracts/Controller.sol",
  "abi": [
    {
      "inputs": [
        {
          "internalType": "address",
          "name": "_usdzAddress",
          "type": "address"
        },
        {
          "internalType": "address",
          "name": "_usdcAddress",
          "type": "address"
        },
        {
          "internalType": "address",
          "name": "_xSushiAddress",
          "type": "address"
        },
        {
          "internalType": "address",
          "name": "_routerAddress",
          "type": "address"
        },
        {
          "internalType": "uint256",
          "name": "_liqTotalFee",
          "type": "uint256"
        },
        {
          "internalType": "uint256",
          "name": "_liqFeeShare",
          "type": "uint256"
        },
        {
          "internalType": "uint256",
          "name": "_interestRate",
          "type": "uint256"
        },
        {
          "internalType": "uint256",
          "name": "_borrowThreshold",
          "type": "uint256"
        },
        {
          "internalType": "uint256",
          "name": "_liqThreshold",
          "type": "uint256"
        }
      ],
      "stateMutability": "nonpayable",
      "type": "constructor"
    },
    {
      "anonymous": false,
      "inputs": [
        {
          "indexed": true,
          "internalType": "address",
          "name": "account",
          "type": "address"
        },
        {
          "indexed": false,
          "internalType": "uint256",
          "name": "amountBorrowed",
          "type": "uint256"
        },
        {
          "indexed": false,
          "internalType": "uint256",
          "name": "totalDebt",
          "type": "uint256"
        },
        {
          "indexed": false,
          "internalType": "uint256",
          "name": "collateralAmount",
          "type": "uint256"
        }
      ],
      "name": "Borrow",
      "type": "event"
    },
    {
      "anonymous": false,
      "inputs": [
        {
          "indexed": true,
          "internalType": "address",
          "name": "account",
          "type": "address"
        },
        {
          "indexed": false,
          "internalType": "uint256",
          "name": "amount",
          "type": "uint256"
        }
      ],
      "name": "Deposit",
      "type": "event"
    },
    {
      "anonymous": false,
      "inputs": [
        {
          "indexed": true,
          "internalType": "address",
          "name": "account",
          "type": "address"
        },
        {
          "indexed": true,
          "internalType": "address",
          "name": "liquidator",
          "type": "address"
        },
        {
          "indexed": false,
          "internalType": "uint256",
          "name": "collateralLiquidated",
          "type": "uint256"
        },
        {
          "indexed": false,
          "internalType": "uint256",
          "name": "lastCollateralRatio",
          "type": "uint256"
        },
        {
          "indexed": false,
          "internalType": "uint256",
          "name": "lastDebtOutstanding",
          "type": "uint256"
        }
      ],
      "name": "Liquidation",
      "type": "event"
    },
    {
      "anonymous": false,
      "inputs": [
        {
          "indexed": true,
          "internalType": "address",
          "name": "previousOwner",
          "type": "address"
        },
        {
          "indexed": true,
          "internalType": "address",
          "name": "newOwner",
          "type": "address"
        }
      ],
      "name": "OwnershipTransferred",
      "type": "event"
    },
    {
      "anonymous": false,
      "inputs": [
        {
          "indexed": true,
          "internalType": "address",
          "name": "account",
          "type": "address"
        },
        {
          "indexed": false,
          "internalType": "uint256",
          "name": "debtRepaid",
          "type": "uint256"
        },
        {
          "indexed": false,
          "internalType": "uint256",
          "name": "debtRemaining",
          "type": "uint256"
        },
        {
          "indexed": false,
          "internalType": "uint256",
          "name": "collateralAmount",
          "type": "uint256"
        }
      ],
      "name": "Repay",
      "type": "event"
    },
    {
      "anonymous": false,
      "inputs": [
        {
          "indexed": true,
          "internalType": "address",
          "name": "account",
          "type": "address"
        },
        {
          "indexed": false,
          "internalType": "uint256",
          "name": "amount",
          "type": "uint256"
        }
      ],
      "name": "Withdraw",
      "type": "event"
    },
    {
      "inputs": [],
      "name": "SCALING_FACTOR",
      "outputs": [
        {
          "internalType": "uint256",
          "name": "",
          "type": "uint256"
        }
      ],
      "stateMutability": "view",
      "type": "function"
    },
    {
      "inputs": [],
      "name": "SECONDS_IN_YEAR",
      "outputs": [
        {
          "internalType": "int128",
          "name": "",
          "type": "int128"
        }
      ],
      "stateMutability": "view",
      "type": "function"
    },
    {
      "inputs": [
        {
          "internalType": "uint256",
          "name": "_amount",
          "type": "uint256"
        }
      ],
      "name": "borrow",
      "outputs": [],
      "stateMutability": "nonpayable",
      "type": "function"
    },
    {
      "inputs": [],
      "name": "borrowThreshold",
      "outputs": [
        {
          "internalType": "uint256",
          "name": "",
          "type": "uint256"
        }
      ],
      "stateMutability": "view",
      "type": "function"
    },
    {
      "inputs": [
        {
          "internalType": "address",
          "name": "_account",
          "type": "address"
        }
      ],
      "name": "calcInterest",
      "outputs": [
        {
          "internalType": "uint256",
          "name": "interest",
          "type": "uint256"
        }
      ],
      "stateMutability": "view",
      "type": "function"
    },
    {
      "inputs": [
        {
          "internalType": "uint256",
          "name": "_amount",
          "type": "uint256"
        }
      ],
      "name": "deposit",
      "outputs": [],
      "stateMutability": "nonpayable",
      "type": "function"
    },
    {
      "inputs": [
        {
          "internalType": "address",
          "name": "_account",
          "type": "address"
        }
      ],
      "name": "getCurrentCollateralRatio",
      "outputs": [
        {
          "internalType": "uint256",
          "name": "",
          "type": "uint256"
        }
      ],
      "stateMutability": "view",
      "type": "function"
    },
    {
      "inputs": [
        {
          "internalType": "address",
          "name": "_account",
          "type": "address"
        },
        {
          "internalType": "uint256",
          "name": "_totalDebt",
          "type": "uint256"
        }
      ],
      "name": "getForwardCollateralRatio",
      "outputs": [
        {
          "internalType": "uint256",
          "name": "",
          "type": "uint256"
        }
      ],
      "stateMutability": "view",
      "type": "function"
    },
    {
      "inputs": [
        {
          "internalType": "address",
          "name": "_account",
          "type": "address"
        }
      ],
      "name": "getPosition",
      "outputs": [
        {
          "internalType": "uint256",
          "name": "",
          "type": "uint256"
        },
        {
          "internalType": "uint256",
          "name": "",
          "type": "uint256"
        },
        {
          "internalType": "uint256",
          "name": "",
          "type": "uint256"
        }
      ],
      "stateMutability": "view",
      "type": "function"
    },
    {
      "inputs": [],
      "name": "interestRate",
      "outputs": [
        {
          "internalType": "uint256",
          "name": "",
          "type": "uint256"
        }
      ],
      "stateMutability": "view",
      "type": "function"
    },
    {
      "inputs": [
        {
          "internalType": "address",
          "name": "_account",
          "type": "address"
        }
      ],
      "name": "liquidate",
      "outputs": [],
      "stateMutability": "nonpayable",
      "type": "function"
    },
    {
      "inputs": [],
      "name": "liquidationFee",
      "outputs": [
        {
          "internalType": "uint256",
          "name": "",
          "type": "uint256"
        }
      ],
      "stateMutability": "view",
      "type": "function"
    },
    {
      "inputs": [],
      "name": "liquidationThreshold",
      "outputs": [
        {
          "internalType": "uint256",
          "name": "",
          "type": "uint256"
        }
      ],
      "stateMutability": "view",
      "type": "function"
    },
    {
      "inputs": [],
      "name": "liquidatorFeeShare",
      "outputs": [
        {
          "internalType": "uint256",
          "name": "",
          "type": "uint256"
        }
      ],
      "stateMutability": "view",
      "type": "function"
    },
    {
      "inputs": [],
      "name": "owner",
      "outputs": [
        {
          "internalType": "address",
          "name": "",
          "type": "address"
        }
      ],
      "stateMutability": "view",
      "type": "function"
    },
    {
      "inputs": [],
      "name": "protocolShortfall",
      "outputs": [
        {
          "internalType": "uint256",
          "name": "",
          "type": "uint256"
        }
      ],
      "stateMutability": "view",
      "type": "function"
    },
    {
      "inputs": [],
      "name": "renounceOwnership",
      "outputs": [],
      "stateMutability": "nonpayable",
      "type": "function"
    },
    {
      "inputs": [
        {
          "internalType": "uint256",
          "name": "_amount",
          "type": "uint256"
        }
      ],
      "name": "repay",
      "outputs": [],
      "stateMutability": "nonpayable",
      "type": "function"
    },
    {
      "inputs": [
        {
          "internalType": "uint256",
          "name": "_liqTotalFee",
          "type": "uint256"
        },
        {
          "internalType": "uint256",
          "name": "_liqFeeShare",
          "type": "uint256"
        },
        {
          "internalType": "uint256",
          "name": "_interestRate",
          "type": "uint256"
        }
      ],
      "name": "setFeesAndRates",
      "outputs": [],
      "stateMutability": "nonpayable",
      "type": "function"
    },
    {
      "inputs": [
        {
          "internalType": "uint256",
          "name": "_borrowThreshold",
          "type": "uint256"
        },
        {
          "internalType": "uint256",
          "name": "_liqThreshold",
          "type": "uint256"
        }
      ],
      "name": "setThresholds",
      "outputs": [],
      "stateMutability": "nonpayable",
      "type": "function"
    },
    {
      "inputs": [
        {
          "internalType": "address",
          "name": "_newAddress",
          "type": "address"
        }
      ],
      "name": "setUSDZAddress",
      "outputs": [],
      "stateMutability": "nonpayable",
      "type": "function"
    },
    {
      "inputs": [
        {
          "internalType": "address",
          "name": "_newAddress",
          "type": "address"
        }
      ],
      "name": "setXSUSHIAddress",
      "outputs": [],
      "stateMutability": "nonpayable",
      "type": "function"
    },
    {
      "inputs": [],
      "name": "sushiRouterAddress",
      "outputs": [
        {
          "internalType": "address",
          "name": "",
          "type": "address"
        }
      ],
      "stateMutability": "view",
      "type": "function"
    },
    {
      "inputs": [
        {
          "internalType": "address",
          "name": "newOwner",
          "type": "address"
        }
      ],
      "name": "transferOwnership",
      "outputs": [],
      "stateMutability": "nonpayable",
      "type": "function"
    },
    {
      "inputs": [],
      "name": "usdcAddress",
      "outputs": [
        {
          "internalType": "address",
          "name": "",
          "type": "address"
        }
      ],
      "stateMutability": "view",
      "type": "function"
    },
    {
      "inputs": [],
      "name": "usdzAddress",
      "outputs": [
        {
          "internalType": "address",
          "name": "",
          "type": "address"
        }
      ],
      "stateMutability": "view",
      "type": "function"
    },
    {
      "inputs": [
        {
          "internalType": "uint256",
          "name": "_amount",
          "type": "uint256"
        }
      ],
      "name": "withdraw",
      "outputs": [],
      "stateMutability": "nonpayable",
      "type": "function"
    },
    {
      "inputs": [],
      "name": "xSushiAddress",
      "outputs": [
        {
          "internalType": "address",
          "name": "",
          "type": "address"
        }
      ],
      "stateMutability": "view",
      "type": "function"
    },
    {
      "inputs": [
        {
          "internalType": "uint256",
          "name": "",
          "type": "uint256"
        }
      ],
      "name": "xSushiToUsdcPath",
      "outputs": [
        {
          "internalType": "address",
          "name": "",
          "type": "address"
        }
      ],
      "stateMutability": "view",
      "type": "function"
    }
  ],
  "bytecode": "0x60806040523480156200001157600080fd5b50604051620044bd380380620044bd83398181016040528101906200003791906200050e565b6000620000496200040660201b60201c565b9050806000806101000a81548173ffffffffffffffffffffffffffffffffffffffff021916908373ffffffffffffffffffffffffffffffffffffffff1602179055508073ffffffffffffffffffffffffffffffffffffffff16600073ffffffffffffffffffffffffffffffffffffffff167f8be0079c531659141344cd1fd0a4f28419497f9722a3daafe3b4186f6b6457e060405160405180910390a35088600360006101000a81548173ffffffffffffffffffffffffffffffffffffffff021916908373ffffffffffffffffffffffffffffffffffffffff16021790555087600460006101000a81548173ffffffffffffffffffffffffffffffffffffffff021916908373ffffffffffffffffffffffffffffffffffffffff16021790555086600560006101000a81548173ffffffffffffffffffffffffffffffffffffffff021916908373ffffffffffffffffffffffffffffffffffffffff16021790555085600660006101000a81548173ffffffffffffffffffffffffffffffffffffffff021916908373ffffffffffffffffffffffffffffffffffffffff160217905550846008819055508360098190555082600a8190555081600b8190555080600c81905550600267ffffffffffffffff81111562000250577f4e487b7100000000000000000000000000000000000000000000000000000000600052604160045260246000fd5b6040519080825280602002602001820160405280156200027f5781602001602082028036833780820191505090505b50600790805190602001906200029792919062000432565b50866007600081548110620002d5577f4e487b7100000000000000000000000000000000000000000000000000000000600052603260045260246000fd5b9060005260206000200160006101000a81548173ffffffffffffffffffffffffffffffffffffffff021916908373ffffffffffffffffffffffffffffffffffffffff1602179055508760076001815481106200035a577f4e487b7100000000000000000000000000000000000000000000000000000000600052603260045260246000fd5b9060005260206000200160006101000a81548173ffffffffffffffffffffffffffffffffffffffff021916908373ffffffffffffffffffffffffffffffffffffffff160217905550620003bc6301e185586200040e60201b62001e8a1760201c565b600d60006101000a8154816fffffffffffffffffffffffffffffffff0219169083600f0b6fffffffffffffffffffffffffffffffff16021790555050505050505050505062000659565b600033905090565b6000677fffffffffffffff8211156200042657600080fd5b604082901b9050919050565b828054828255906000526020600020908101928215620004ae579160200282015b82811115620004ad5782518260006101000a81548173ffffffffffffffffffffffffffffffffffffffff021916908373ffffffffffffffffffffffffffffffffffffffff1602179055509160200191906001019062000453565b5b509050620004bd9190620004c1565b5090565b5b80821115620004dc576000816000905550600101620004c2565b5090565b600081519050620004f18162000625565b92915050565b60008151905062000508816200063f565b92915050565b60008060008060008060008060006101208a8c0312156200052e57600080fd5b60006200053e8c828d01620004e0565b9950506020620005518c828d01620004e0565b9850506040620005648c828d01620004e0565b9750506060620005778c828d01620004e0565b96505060806200058a8c828d01620004f7565b95505060a06200059d8c828d01620004f7565b94505060c0620005b08c828d01620004f7565b93505060e0620005c38c828d01620004f7565b925050610100620005d78c828d01620004f7565b9150509295985092959850929598565b6000620005f482620005fb565b9050919050565b600073ffffffffffffffffffffffffffffffffffffffff82169050919050565b6000819050919050565b6200063081620005e7565b81146200063c57600080fd5b50565b6200064a816200061b565b81146200065657600080fd5b50565b613e5480620006696000396000f3fe608060405234801561001057600080fd5b50600436106101cf5760003560e01c806379bbce8f11610104578063b6b55f25116100a2578063daf5539e11610071578063daf5539e146104e8578063e3064a7714610518578063ef4cadc514610534578063f2fde38b14610552576101cf565b8063b6b55f2514610476578063bdfccad314610492578063bfaf48d4146104b0578063c5ebeaec146104cc576101cf565b80638da5cb5b116100de5780638da5cb5b146104005780638f6ba29a1461041e578063a36a36301461043a578063af1f556f14610458576101cf565b806379bbce8f146103a85780637c3a00fd146103c65780638456b755146103e4576101cf565b80634a63a5ce116101715780635dcc93911161014b5780635dcc93911461032057806369cb89c71461033e5780637046b7a91461036e578063715018a61461039e576101cf565b80634a63a5ce146102b457806354054808146102e45780635ae547e314610302576101cf565b80632e1a7d4d116101ad5780632e1a7d4d146102425780632f8655681461025e578063371fd8e61461027a5780634031234c14610296576101cf565b806302d45457146101d457806316c19739146101f257806320bdf80014610224575b600080fd5b6101dc61056e565b6040516101e9919061371b565b60405180910390f35b61020c60048036038101906102079190612f52565b610594565b60405161021b93929190613a93565b60405180910390f35b61022c61066f565b604051610239919061371b565b60405180910390f35b61025c60048036038101906102579190613021565b610695565b005b61027860048036038101906102739190612f52565b610a4a565b005b610294600480360381019061028f9190613021565b610ab8565b005b61029e610de3565b6040516102ab9190613a48565b60405180910390f35b6102ce60048036038101906102c99190613021565b610de9565b6040516102db919061371b565b60405180910390f35b6102ec610e28565b6040516102f99190613a48565b60405180910390f35b61030a610e2e565b6040516103179190613a48565b60405180910390f35b610328610e34565b6040516103359190613796565b60405180910390f35b61035860048036038101906103539190612f52565b610e47565b6040516103659190613a48565b60405180910390f35b61038860048036038101906103839190612f7b565b6110b6565b6040516103959190613a48565b60405180910390f35b6103a66110ca565b005b6103b0611204565b6040516103bd919061371b565b60405180910390f35b6103ce61122a565b6040516103db9190613a48565b60405180910390f35b6103fe60048036038101906103f99190612f52565b611230565b005b610408611360565b604051610415919061371b565b60405180910390f35b61043860048036038101906104339190612f52565b611389565b005b6104426114b9565b60405161044f9190613a48565b60405180910390f35b6104606114bf565b60405161046d9190613a48565b60405180910390f35b610490600480360381019061048b9190613021565b6114c5565b005b61049a6116a6565b6040516104a7919061371b565b60405180910390f35b6104ca60048036038101906104c59190613086565b6116cc565b005b6104e660048036038101906104e19190613021565b611864565b005b61050260048036038101906104fd9190612f52565b611b6e565b60405161050f9190613a48565b60405180910390f35b610532600480360381019061052d919061304a565b611bc3565b005b61053c611cdb565b6040516105499190613a48565b60405180910390f35b61056c60048036038101906105679190612f52565b611ce1565b005b600460009054906101000a900473ffffffffffffffffffffffffffffffffffffffff1681565b6000806000600160008573ffffffffffffffffffffffffffffffffffffffff1673ffffffffffffffffffffffffffffffffffffffff16815260200190815260200160002060000154600160008673ffffffffffffffffffffffffffffffffffffffff1673ffffffffffffffffffffffffffffffffffffffff16815260200190815260200160002060010154600160008773ffffffffffffffffffffffffffffffffffffffff1673ffffffffffffffffffffffffffffffffffffffff168152602001908152602001600020600201549250925092509193909250565b600360009054906101000a900473ffffffffffffffffffffffffffffffffffffffff1681565b6000600160003373ffffffffffffffffffffffffffffffffffffffff1673ffffffffffffffffffffffffffffffffffffffff1681526020019081526020016000206000015490508181101561071f576040517f08c379a000000000000000000000000000000000000000000000000000000000815260040161071690613a28565b60405180910390fd5b600061072a33610e47565b905080600160003373ffffffffffffffffffffffffffffffffffffffff1673ffffffffffffffffffffffffffffffffffffffff168152602001908152602001600020600101600082825461077e9190613b76565b9250508190555042600160003373ffffffffffffffffffffffffffffffffffffffff1673ffffffffffffffffffffffffffffffffffffffff1681526020019081526020016000206002018190555060006107d733611b6e565b9050600b54811161081d576040517f08c379a0000000000000000000000000000000000000000000000000000000008152600401610814906138e8565b60405180910390fd5b6000837fffffffffffffffffffffffffffffffffffffffffffffffffffffffffffffffff612710600b546108519190613bcc565b8461085c9190613c57565b6108669190613bcc565b6108709190613bfd565b9050848110156108b5576040517f08c379a00000000000000000000000000000000000000000000000000000000081526004016108ac90613868565b60405180910390fd5b84846108c19190613c57565b600160003373ffffffffffffffffffffffffffffffffffffffff1673ffffffffffffffffffffffffffffffffffffffff16815260200190815260200160002060000181905550600560009054906101000a900473ffffffffffffffffffffffffffffffffffffffff1673ffffffffffffffffffffffffffffffffffffffff1663a9059cbb33876040518363ffffffff1660e01b815260040161096492919061376d565b602060405180830381600087803b15801561097e57600080fd5b505af1158015610992573d6000803e3d6000fd5b505050506040513d601f19601f820116820180604052508101906109b69190612ff8565b6109f5576040517f08c379a00000000000000000000000000000000000000000000000000000000081526004016109ec90613888565b60405180910390fd5b3373ffffffffffffffffffffffffffffffffffffffff167f884edad9ce6fa2440d8a54cc123490eb96d2768479d49ff9c7366125a942436486604051610a3b9190613a48565b60405180910390a25050505050565b3373ffffffffffffffffffffffffffffffffffffffff168173ffffffffffffffffffffffffffffffffffffffff167f5a821a618ddb1a1fd304234a69c9d7f20c129d122fcf35593d13a071926643076000806000604051610aad939291906137b1565b60405180910390a350565b60008111610afb576040517f08c379a0000000000000000000000000000000000000000000000000000000008152600401610af290613988565b60405180910390fd5b6000600160003373ffffffffffffffffffffffffffffffffffffffff1673ffffffffffffffffffffffffffffffffffffffff1681526020019081526020016000209050610b4733610e47565b816001016000828254610b5a9190613b76565b925050819055504281600201819055508181600101541115610c8657600360009054906101000a900473ffffffffffffffffffffffffffffffffffffffff1673ffffffffffffffffffffffffffffffffffffffff166323b872dd3330856040518463ffffffff1660e01b8152600401610bd593929190613736565b602060405180830381600087803b158015610bef57600080fd5b505af1158015610c03573d6000803e3d6000fd5b505050506040513d601f19601f82011682018060405250810190610c279190612ff8565b610c66576040517f08c379a0000000000000000000000000000000000000000000000000000000008152600401610c5d90613908565b60405180910390fd5b81816001016000828254610c7a9190613c57565b92505081905550610d85565b600360009054906101000a900473ffffffffffffffffffffffffffffffffffffffff1673ffffffffffffffffffffffffffffffffffffffff166323b872dd333084600101546040518463ffffffff1660e01b8152600401610ce993929190613736565b602060405180830381600087803b158015610d0357600080fd5b505af1158015610d17573d6000803e3d6000fd5b505050506040513d601f19601f82011682018060405250810190610d3b9190612ff8565b610d7a576040517f08c379a0000000000000000000000000000000000000000000000000000000008152600401610d7190613908565b60405180910390fd5b600081600101819055505b3373ffffffffffffffffffffffffffffffffffffffff167f2fe77b1c99aca6b022b8efc6e3e8dd1b48b30748709339b65c50ef3263443e098383600101548460000154604051610dd793929190613a93565b60405180910390a25050565b600c5481565b60078181548110610df957600080fd5b906000526020600020016000915054906101000a900473ffffffffffffffffffffffffffffffffffffffff1681565b60095481565b600b5481565b600d60009054906101000a9004600f0b81565b600080600160008473ffffffffffffffffffffffffffffffffffffffff1673ffffffffffffffffffffffffffffffffffffffff168152602001908152602001600020600101541480610edb57506000600160008473ffffffffffffffffffffffffffffffffffffffff1673ffffffffffffffffffffffffffffffffffffffff16815260200190815260200160002060020154145b80610ee857506000600a54145b80610f345750600160008373ffffffffffffffffffffffffffffffffffffffff1673ffffffffffffffffffffffffffffffffffffffff1681526020019081526020016000206002015442145b15610f4257600090506110b1565b6000600160008473ffffffffffffffffffffffffffffffffffffffff1673ffffffffffffffffffffffffffffffffffffffff1681526020019081526020016000206002015442610f929190613c57565b90506000610fb7610fa283611e8a565b600d60009054906101000a9004600f0b611ead565b90506000610fd9610fc9600a54611e8a565b610fd4612710611e8a565b611ead565b90506000611028600160008873ffffffffffffffffffffffffffffffffffffffff1673ffffffffffffffffffffffffffffffffffffffff16815260200190815260200160002060010154611e8a565b9050600061104f61104a836110456110408789611f5d565b611fc8565b611f5d565b612041565b9050600160008873ffffffffffffffffffffffffffffffffffffffff1673ffffffffffffffffffffffffffffffffffffffff168152602001908152602001600020600101548167ffffffffffffffff166110a99190613c57565b955050505050505b919050565b60006110c28383612062565b905092915050565b6110d2612260565b73ffffffffffffffffffffffffffffffffffffffff166110f0611360565b73ffffffffffffffffffffffffffffffffffffffff1614611146576040517f08c379a000000000000000000000000000000000000000000000000000000000815260040161113d90613948565b60405180910390fd5b600073ffffffffffffffffffffffffffffffffffffffff1660008054906101000a900473ffffffffffffffffffffffffffffffffffffffff1673ffffffffffffffffffffffffffffffffffffffff167f8be0079c531659141344cd1fd0a4f28419497f9722a3daafe3b4186f6b6457e060405160405180910390a360008060006101000a81548173ffffffffffffffffffffffffffffffffffffffff021916908373ffffffffffffffffffffffffffffffffffffffff160217905550565b600660009054906101000a900473ffffffffffffffffffffffffffffffffffffffff1681565b600a5481565b611238612260565b73ffffffffffffffffffffffffffffffffffffffff16611256611360565b73ffffffffffffffffffffffffffffffffffffffff16146112ac576040517f08c379a00000000000000000000000000000000000000000000000000000000081526004016112a390613948565b60405180910390fd5b600073ffffffffffffffffffffffffffffffffffffffff168173ffffffffffffffffffffffffffffffffffffffff16141561131c576040517f08c379a0000000000000000000000000000000000000000000000000000000008152600401611313906138a8565b60405180910390fd5b80600560006101000a81548173ffffffffffffffffffffffffffffffffffffffff021916908373ffffffffffffffffffffffffffffffffffffffff16021790555050565b60008060009054906101000a900473ffffffffffffffffffffffffffffffffffffffff16905090565b611391612260565b73ffffffffffffffffffffffffffffffffffffffff166113af611360565b73ffffffffffffffffffffffffffffffffffffffff1614611405576040517f08c379a00000000000000000000000000000000000000000000000000000000081526004016113fc90613948565b60405180910390fd5b600073ffffffffffffffffffffffffffffffffffffffff168173ffffffffffffffffffffffffffffffffffffffff161415611475576040517f08c379a000000000000000000000000000000000000000000000000000000000815260040161146c90613928565b60405180910390fd5b80600360006101000a81548173ffffffffffffffffffffffffffffffffffffffff021916908373ffffffffffffffffffffffffffffffffffffffff16021790555050565b60085481565b60025481565b6000600560009054906101000a900473ffffffffffffffffffffffffffffffffffffffff1690508073ffffffffffffffffffffffffffffffffffffffff166323b872dd3330856040518463ffffffff1660e01b815260040161152993929190613736565b602060405180830381600087803b15801561154357600080fd5b505af1158015611557573d6000803e3d6000fd5b505050506040513d601f19601f8201168201806040525081019061157b9190612ff8565b6115ba576040517f08c379a00000000000000000000000000000000000000000000000000000000081526004016115b1906139c8565b60405180910390fd5b6000600160003373ffffffffffffffffffffffffffffffffffffffff1673ffffffffffffffffffffffffffffffffffffffff168152602001908152602001600020600001549050828161160d9190613b76565b600160003373ffffffffffffffffffffffffffffffffffffffff1673ffffffffffffffffffffffffffffffffffffffff168152602001908152602001600020600001819055503373ffffffffffffffffffffffffffffffffffffffff167fe1fffcc4923d04b559f4d29a8bfc6cda04eb5b0d3c460751c2402c5c5cc9109c846040516116999190613a48565b60405180910390a2505050565b600560009054906101000a900473ffffffffffffffffffffffffffffffffffffffff1681565b6116d4612260565b73ffffffffffffffffffffffffffffffffffffffff166116f2611360565b73ffffffffffffffffffffffffffffffffffffffff1614611748576040517f08c379a000000000000000000000000000000000000000000000000000000000815260040161173f90613948565b60405180910390fd5b612710831115801561175b575060008310155b61179a576040517f08c379a000000000000000000000000000000000000000000000000000000000815260040161179190613968565b60405180910390fd5b61271082111580156117ad575060008210155b80156117b95750828211155b6117f8576040517f08c379a00000000000000000000000000000000000000000000000000000000081526004016117ef90613828565b60405180910390fd5b82600881905550816009819055506127108111158015611819575060008110155b611858576040517f08c379a000000000000000000000000000000000000000000000000000000000815260040161184f906139e8565b60405180910390fd5b80600a81905550505050565b600081116118a7576040517f08c379a000000000000000000000000000000000000000000000000000000000815260040161189e90613848565b60405180910390fd5b60006118b233610e47565b9050600b54611919338484600160003373ffffffffffffffffffffffffffffffffffffffff1673ffffffffffffffffffffffffffffffffffffffff1681526020019081526020016000206001015461190a9190613b76565b6119149190613b76565b6110b6565b101561195a576040517f08c379a0000000000000000000000000000000000000000000000000000000008152600401611951906137e8565b60405180910390fd5b80826119669190613b76565b600160003373ffffffffffffffffffffffffffffffffffffffff1673ffffffffffffffffffffffffffffffffffffffff16815260200190815260200160002060010160008282546119b79190613b76565b9250508190555042600160003373ffffffffffffffffffffffffffffffffffffffff1673ffffffffffffffffffffffffffffffffffffffff16815260200190815260200160002060020181905550600360009054906101000a900473ffffffffffffffffffffffffffffffffffffffff1673ffffffffffffffffffffffffffffffffffffffff166340c10f1933846040518363ffffffff1660e01b8152600401611a6292919061376d565b600060405180830381600087803b158015611a7c57600080fd5b505af1158015611a90573d6000803e3d6000fd5b505050503373ffffffffffffffffffffffffffffffffffffffff167f13ed6866d4e1ee6da46f845c46d7e54120883d75c5ea9a2dacc1c4ca8984ab8083600160003373ffffffffffffffffffffffffffffffffffffffff1673ffffffffffffffffffffffffffffffffffffffff16815260200190815260200160002060010154600160003373ffffffffffffffffffffffffffffffffffffffff1673ffffffffffffffffffffffffffffffffffffffff16815260200190815260200160002060000154604051611b6293929190613a93565b60405180910390a25050565b6000611bbc82600160008573ffffffffffffffffffffffffffffffffffffffff1673ffffffffffffffffffffffffffffffffffffffff16815260200190815260200160002060010154612062565b9050919050565b611bcb612260565b73ffffffffffffffffffffffffffffffffffffffff16611be9611360565b73ffffffffffffffffffffffffffffffffffffffff1614611c3f576040517f08c379a0000000000000000000000000000000000000000000000000000000008152600401611c3690613948565b60405180910390fd5b612710821015611c84576040517f08c379a0000000000000000000000000000000000000000000000000000000008152600401611c7b906138c8565b60405180910390fd5b612710811015611cc9576040517f08c379a0000000000000000000000000000000000000000000000000000000008152600401611cc090613a08565b60405180910390fd5b81600b8190555080600c819055505050565b61271081565b611ce9612260565b73ffffffffffffffffffffffffffffffffffffffff16611d07611360565b73ffffffffffffffffffffffffffffffffffffffff1614611d5d576040517f08c379a0000000000000000000000000000000000000000000000000000000008152600401611d5490613948565b60405180910390fd5b600073ffffffffffffffffffffffffffffffffffffffff168173ffffffffffffffffffffffffffffffffffffffff161415611dcd576040517f08c379a0000000000000000000000000000000000000000000000000000000008152600401611dc490613808565b60405180910390fd5b8073ffffffffffffffffffffffffffffffffffffffff1660008054906101000a900473ffffffffffffffffffffffffffffffffffffffff1673ffffffffffffffffffffffffffffffffffffffff167f8be0079c531659141344cd1fd0a4f28419497f9722a3daafe3b4186f6b6457e060405160405180910390a3806000806101000a81548173ffffffffffffffffffffffffffffffffffffffff021916908373ffffffffffffffffffffffffffffffffffffffff16021790555050565b6000677fffffffffffffff821115611ea157600080fd5b604082901b9050919050565b60008082600f0b1415611ebf57600080fd5b600082600f0b604085600f0b901b81611f01577f4e487b7100000000000000000000000000000000000000000000000000000000600052601260045260246000fd5b0590507fffffffffffffffffffffffffffffffff80000000000000000000000000000000600f0b8112158015611f4a57506f7fffffffffffffffffffffffffffffff600f0b8113155b611f5357600080fd5b8091505092915050565b600080604083600f0b85600f0b02901d90507fffffffffffffffffffffffffffffffff80000000000000000000000000000000600f0b8112158015611fb557506f7fffffffffffffffffffffffffffffff600f0b8113155b611fbe57600080fd5b8091505092915050565b60006840000000000000000082600f0b12611fe257600080fd5b7fffffffffffffffffffffffffffffffffffffffffffffffc0000000000000000082600f0b1215612016576000905061203c565b6120396080700171547652b82fe1777d0ffda0d23a7d1284600f0b02901d612268565b90505b919050565b60008082600f0b121561205357600080fd5b604082600f0b901d9050919050565b600080600160008573ffffffffffffffffffffffffffffffffffffffff1673ffffffffffffffffffffffffffffffffffffffff16815260200190815260200160002060000154905060008114156120bd57600091505061225a565b60008314156120ef577fffffffffffffffffffffffffffffffffffffffffffffffffffffffffffffffff91505061225a565b60008111612132576040517f08c379a0000000000000000000000000000000000000000000000000000000008152600401612129906139a8565b60405180910390fd5b6000600660009054906101000a900473ffffffffffffffffffffffffffffffffffffffff16905060008173ffffffffffffffffffffffffffffffffffffffff1663d06ca61f8460076040518363ffffffff1660e01b8152600401612197929190613a63565b60006040518083038186803b1580156121af57600080fd5b505afa1580156121c3573d6000803e3d6000fd5b505050506040513d6000823e3d601f19601f820116820180604052508101906121ec9190612fb7565b600181518110612225577f4e487b7100000000000000000000000000000000000000000000000000000000600052603260045260246000fd5b60200260200101519050846064612710836122409190613bfd565b61224a9190613bfd565b6122549190613bcc565b93505050505b92915050565b600033905090565b60006840000000000000000082600f0b1261228257600080fd5b7fffffffffffffffffffffffffffffffffffffffffffffffc0000000000000000082600f0b12156122b65760009050612e63565b60006f80000000000000000000000000000000905060006780000000000000008416600f0b13156122fc57608070016a09e667f3bcc908b2fb1366ea957d3e8202901c90505b60006740000000000000008416600f0b131561232d5760807001306fe0a31b7152de8d5a46305c85edec8202901c90505b60006720000000000000008416600f0b131561235e5760807001172b83c7d517adcdf7c8c50eb14a791f8202901c90505b60006710000000000000008416600f0b131561238f57608070010b5586cf9890f6298b92b71842a983638202901c90505b60006708000000000000008416600f0b13156123c05760807001059b0d31585743ae7c548eb68ca417fd8202901c90505b60006704000000000000008416600f0b13156123f1576080700102c9a3e778060ee6f7caca4f7a29bde88202901c90505b60006702000000000000008416600f0b131561242257608070010163da9fb33356d84a66ae336dcdfa3f8202901c90505b60006701000000000000008416600f0b1315612453576080700100b1afa5abcbed6129ab13ec11dc95438202901c90505b600066800000000000008416600f0b131561248357608070010058c86da1c09ea1ff19d294cf2f679b8202901c90505b600066400000000000008416600f0b13156124b35760807001002c605e2e8cec506d21bfc89a23a00f8202901c90505b600066200000000000008416600f0b13156124e3576080700100162f3904051fa128bca9c55c31e5df8202901c90505b600066100000000000008416600f0b13156125135760807001000b175effdc76ba38e31671ca9397258202901c90505b600066080000000000008416600f0b1315612543576080700100058ba01fb9f96d6cacd4b180917c3d8202901c90505b600066040000000000008416600f0b131561257357608070010002c5cc37da9491d0985c348c68e7b38202901c90505b600066020000000000008416600f0b13156125a35760807001000162e525ee054754457d59952920268202901c90505b600066010000000000008416600f0b13156125d357608070010000b17255775c040618bf4a4ade83fc8202901c90505b6000658000000000008416600f0b13156126025760807001000058b91b5bc9ae2eed81e9b7d4cfab8202901c90505b6000654000000000008416600f0b1315612631576080700100002c5c89d5ec6ca4d7c8acc017b7c98202901c90505b6000652000000000008416600f0b131561266057608070010000162e43f4f831060e02d839a9d16d8202901c90505b6000651000000000008416600f0b131561268f576080700100000b1721bcfc99d9f890ea069117638202901c90505b6000650800000000008416600f0b13156126be57608070010000058b90cf1e6d97f9ca14dbcc16288202901c90505b6000650400000000008416600f0b13156126ed5760807001000002c5c863b73f016468f6bac5ca2b8202901c90505b6000650200000000008416600f0b131561271c576080700100000162e430e5a18f6119e3c02282a58202901c90505b6000650100000000008416600f0b131561274b5760807001000000b1721835514b86e6d96efd1bfe8202901c90505b60006480000000008416600f0b1315612779576080700100000058b90c0b48c6be5df846c5b2ef8202901c90505b60006440000000008416600f0b13156127a757608070010000002c5c8601cc6b9e94213c72737a8202901c90505b60006420000000008416600f0b13156127d55760807001000000162e42fff037df38aa2b219f068202901c90505b60006410000000008416600f0b131561280357608070010000000b17217fba9c739aa5819f44f98202901c90505b60006408000000008416600f0b13156128315760807001000000058b90bfcdee5acd3c1cedc8238202901c90505b60006404000000008416600f0b131561285f576080700100000002c5c85fe31f35a6a30da1be508202901c90505b60006402000000008416600f0b131561288d57608070010000000162e42ff0999ce3541b9fffcf8202901c90505b60006401000000008416600f0b13156128bb576080700100000000b17217f80f4ef5aadda455548202901c90505b600063800000008416600f0b13156128e857608070010000000058b90bfbf8479bd5a81b51ad8202901c90505b600063400000008416600f0b13156129155760807001000000002c5c85fdf84bd62ae30a74cc8202901c90505b600063200000008416600f0b1315612942576080700100000000162e42fefb2fed257559bdaa8202901c90505b600063100000008416600f0b131561296f5760807001000000000b17217f7d5a7716bba4a9ae8202901c90505b600063080000008416600f0b131561299c576080700100000000058b90bfbe9ddbac5e109cce8202901c90505b600063040000008416600f0b13156129c957608070010000000002c5c85fdf4b15de6f17eb0d8202901c90505b600063020000008416600f0b13156129f65760807001000000000162e42fefa494f1478fde058202901c90505b600063010000008416600f0b1315612a2357608070010000000000b17217f7d20cf927c8e94c8202901c90505b6000628000008416600f0b1315612a4f5760807001000000000058b90bfbe8f71cb4e4b33d8202901c90505b6000624000008416600f0b1315612a7b576080700100000000002c5c85fdf477b662b269458202901c90505b6000622000008416600f0b1315612aa757608070010000000000162e42fefa3ae53369388c8202901c90505b6000621000008416600f0b1315612ad3576080700100000000000b17217f7d1d351a389d408202901c90505b6000620800008416600f0b1315612aff57608070010000000000058b90bfbe8e8b2d3d4ede8202901c90505b6000620400008416600f0b1315612b2b5760807001000000000002c5c85fdf4741bea6e77e8202901c90505b6000620200008416600f0b1315612b57576080700100000000000162e42fefa39fe95583c28202901c90505b6000620100008416600f0b1315612b835760807001000000000000b17217f7d1cfb72b45e18202901c90505b60006180008416600f0b1315612bae576080700100000000000058b90bfbe8e7cc35c3f08202901c90505b60006140008416600f0b1315612bd957608070010000000000002c5c85fdf473e242ea388202901c90505b60006120008416600f0b1315612c045760807001000000000000162e42fefa39f02b772c8202901c90505b60006110008416600f0b1315612c2f57608070010000000000000b17217f7d1cf7d83c1a8202901c90505b60006108008416600f0b1315612c5a5760807001000000000000058b90bfbe8e7bdcbe2e8202901c90505b60006104008416600f0b1315612c85576080700100000000000002c5c85fdf473dea871f8202901c90505b60006102008416600f0b1315612cb057608070010000000000000162e42fefa39ef44d918202901c90505b60006101008416600f0b1315612cdb576080700100000000000000b17217f7d1cf79e9498202901c90505b600060808416600f0b1315612d0557608070010000000000000058b90bfbe8e7bce5448202901c90505b600060408416600f0b1315612d2f5760807001000000000000002c5c85fdf473de6eca8202901c90505b600060208416600f0b1315612d59576080700100000000000000162e42fefa39ef366f8202901c90505b600060108416600f0b1315612d835760807001000000000000000b17217f7d1cf79afa8202901c90505b600060088416600f0b1315612dad576080700100000000000000058b90bfbe8e7bcd6d8202901c90505b600060048416600f0b1315612dd757608070010000000000000002c5c85fdf473de6b28202901c90505b600060028416600f0b1315612e015760807001000000000000000162e42fefa39ef3588202901c90505b600060018416600f0b1315612e2b57608070010000000000000000b17217f7d1cf79ab8202901c90505b604083600f0b901d603f03600f0b81901c90506f7fffffffffffffffffffffffffffffff600f0b811115612e5e57600080fd5b809150505b919050565b6000612e7b612e7684613afb565b613aca565b90508083825260208201905082856020860282011115612e9a57600080fd5b60005b85811015612eca5781612eb08882612f3d565b845260208401935060208301925050600181019050612e9d565b5050509392505050565b600081359050612ee381613dd9565b92915050565b600082601f830112612efa57600080fd5b8151612f0a848260208601612e68565b91505092915050565b600081519050612f2281613df0565b92915050565b600081359050612f3781613e07565b92915050565b600081519050612f4c81613e07565b92915050565b600060208284031215612f6457600080fd5b6000612f7284828501612ed4565b91505092915050565b60008060408385031215612f8e57600080fd5b6000612f9c85828601612ed4565b9250506020612fad85828601612f28565b9150509250929050565b600060208284031215612fc957600080fd5b600082015167ffffffffffffffff811115612fe357600080fd5b612fef84828501612ee9565b91505092915050565b60006020828403121561300a57600080fd5b600061301884828501612f13565b91505092915050565b60006020828403121561303357600080fd5b600061304184828501612f28565b91505092915050565b6000806040838503121561305d57600080fd5b600061306b85828601612f28565b925050602061307c85828601612f28565b9150509250929050565b60008060006060848603121561309b57600080fd5b60006130a986828701612f28565b93505060206130ba86828701612f28565b92505060406130cb86828701612f28565b9150509250925092565b60006130e183836130ed565b60208301905092915050565b6130f681613cab565b82525050565b61310581613cab565b82525050565b600061311682613b3c565b6131208185613b54565b935061312b83613b27565b8060005b838110156131635761314082613db9565b61314a88826130d5565b975061315583613b47565b92505060018101905061312f565b5085935050505092915050565b61317981613cc9565b82525050565b61318881613d00565b82525050565b600061319b602983613b65565b91507f6e6f7420656e6f75676820636f6c6c61746572616c20746f20626f72726f772060008301527f74686174206d75636800000000000000000000000000000000000000000000006020830152604082019050919050565b6000613201602683613b65565b91507f4f776e61626c653a206e6577206f776e657220697320746865207a65726f206160008301527f64647265737300000000000000000000000000000000000000000000000000006020830152604082019050919050565b6000613267601883613b65565b91507f6c69714665655368617265206f7574206f662072616e676500000000000000006000830152602082019050919050565b60006132a7600e83613b65565b91507f63616e277420626f72726f7720300000000000000000000000000000000000006000830152602082019050919050565b60006132e7603083613b65565b91507f7769746864726177206c657373206f6620636f6c6c61746572616c207261746960008301527f6f206265636f6d657320756e73616665000000000000000000000000000000006020830152604082019050919050565b600061334d601883613b65565b91507f7769746864726177207472616e73666572206661696c656400000000000000006000830152602082019050919050565b600061338d602083613b65565b91507f78535553484920636f6e7472616374206e6f74207a65726f20616464726573736000830152602082019050919050565b60006133cd602983613b65565b91507f626f72726f77207468726573686f6c64206d757374206265203e207363616c6960008301527f6e6720666163746f7200000000000000000000000000000000000000000000006020830152604082019050919050565b6000613433602783613b65565b91507f636f6c6c61746572616c20726174696f206973203c3d20626f72726f7720746860008301527f726573686f6c64000000000000000000000000000000000000000000000000006020830152604082019050919050565b6000613499601583613b65565b91507f7265706179207472616e73666572206661696c656400000000000000000000006000830152602082019050919050565b60006134d9601e83613b65565b91507f7573647a20636f6e7472616374206e6f74207a65726f206164647265737300006000830152602082019050919050565b6000613519602083613b65565b91507f4f776e61626c653a2063616c6c6572206973206e6f7420746865206f776e65726000830152602082019050919050565b6000613559601883613b65565b91507f6c6971546f74616c466565206f7574206f662072616e676500000000000000006000830152602082019050919050565b6000613599600d83613b65565b91507f63616e27742072657061792030000000000000000000000000000000000000006000830152602082019050919050565b60006135d9600083613b65565b9150600082019050919050565b60006135f3600e83613b65565b91507f6465706f736974206661696c65640000000000000000000000000000000000006000830152602082019050919050565b6000613633601983613b65565b91507f696e74657265737452617465206f7574206f662072616e6765000000000000006000830152602082019050919050565b6000613673602683613b65565b91507f6c6971207468726573686f6c64206d757374206265203e207363616c696e672060008301527f666163746f7200000000000000000000000000000000000000000000000000006020830152604082019050919050565b60006136d9602083613b65565b91507f6e6f7420656e6f75676820636f6c6c61746572616c20696e206163636f756e746000830152602082019050919050565b61371581613cf6565b82525050565b600060208201905061373060008301846130fc565b92915050565b600060608201905061374b60008301866130fc565b61375860208301856130fc565b613765604083018461370c565b949350505050565b600060408201905061378260008301856130fc565b61378f602083018461370c565b9392505050565b60006020820190506137ab6000830184613170565b92915050565b60006060820190506137c6600083018661317f565b6137d3602083018561317f565b6137e0604083018461317f565b949350505050565b600060208201905081810360008301526138018161318e565b9050919050565b60006020820190508181036000830152613821816131f4565b9050919050565b600060208201905081810360008301526138418161325a565b9050919050565b600060208201905081810360008301526138618161329a565b9050919050565b60006020820190508181036000830152613881816132da565b9050919050565b600060208201905081810360008301526138a181613340565b9050919050565b600060208201905081810360008301526138c181613380565b9050919050565b600060208201905081810360008301526138e1816133c0565b9050919050565b6000602082019050818103600083015261390181613426565b9050919050565b600060208201905081810360008301526139218161348c565b9050919050565b60006020820190508181036000830152613941816134cc565b9050919050565b600060208201905081810360008301526139618161350c565b9050919050565b600060208201905081810360008301526139818161354c565b9050919050565b600060208201905081810360008301526139a18161358c565b9050919050565b600060208201905081810360008301526139c1816135cc565b9050919050565b600060208201905081810360008301526139e1816135e6565b9050919050565b60006020820190508181036000830152613a0181613626565b9050919050565b60006020820190508181036000830152613a2181613666565b9050919050565b60006020820190508181036000830152613a41816136cc565b9050919050565b6000602082019050613a5d600083018461370c565b92915050565b6000604082019050613a78600083018561370c565b8181036020830152613a8a818461310b565b90509392505050565b6000606082019050613aa8600083018661370c565b613ab5602083018561370c565b613ac2604083018461370c565b949350505050565b6000604051905081810181811067ffffffffffffffff82111715613af157613af0613d8a565b5b8060405250919050565b600067ffffffffffffffff821115613b1657613b15613d8a565b5b602082029050602081019050919050565b60008190508160005260206000209050919050565b600081549050919050565b6000600182019050919050565b600082825260208201905092915050565b600082825260208201905092915050565b6000613b8182613cf6565b9150613b8c83613cf6565b9250827fffffffffffffffffffffffffffffffffffffffffffffffffffffffffffffffff03821115613bc157613bc0613d2c565b5b828201905092915050565b6000613bd782613cf6565b9150613be283613cf6565b925082613bf257613bf1613d5b565b5b828204905092915050565b6000613c0882613cf6565b9150613c1383613cf6565b9250817fffffffffffffffffffffffffffffffffffffffffffffffffffffffffffffffff0483118215151615613c4c57613c4b613d2c565b5b828202905092915050565b6000613c6282613cf6565b9150613c6d83613cf6565b925082821015613c8057613c7f613d2c565b5b828203905092915050565b600073ffffffffffffffffffffffffffffffffffffffff82169050919050565b6000613cb682613cd6565b9050919050565b60008115159050919050565b600081600f0b9050919050565b600073ffffffffffffffffffffffffffffffffffffffff82169050919050565b6000819050919050565b6000613d0b82613cf6565b9050919050565b6000613d25613d2083613dcc565b613c8b565b9050919050565b7f4e487b7100000000000000000000000000000000000000000000000000000000600052601160045260246000fd5b7f4e487b7100000000000000000000000000000000000000000000000000000000600052601260045260246000fd5b7f4e487b7100000000000000000000000000000000000000000000000000000000600052604160045260246000fd5b6000613dc58254613d12565b9050919050565b60008160001c9050919050565b613de281613cab565b8114613ded57600080fd5b50565b613df981613cbd565b8114613e0457600080fd5b50565b613e1081613cf6565b8114613e1b57600080fd5b5056fea2646970667358221220f84d70d6ebf328a5515cb5b07a63917adb8d9c296d1671a556ec258679eba61b64736f6c63430008000033",
  "linkReferences": {},
  "deployedLinkReferences": {}
}