{
  "_format": "hh-sol-artifact-1",
  "contractName": "Controller",
  "sourceName": "contracts/Controller.sol",
  "abi": [
    {
      "inputs": [
        {
          "internalType": "address",
          "name": "_usdzAddress",
          "type": "address"
        },
        {
          "internalType": "address",
          "name": "_usdcAddress",
          "type": "address"
        },
        {
          "internalType": "address",
          "name": "_xSushiAddress",
          "type": "address"
        },
        {
          "internalType": "address",
          "name": "_routerAddress",
          "type": "address"
        },
        {
          "internalType": "uint256",
          "name": "_liqTotalFee",
          "type": "uint256"
        },
        {
          "internalType": "uint256",
          "name": "_liqFeeShare",
          "type": "uint256"
        },
        {
          "internalType": "uint256",
          "name": "_interestRate",
          "type": "uint256"
        },
        {
          "internalType": "uint256",
          "name": "_borrowThreshold",
          "type": "uint256"
        },
        {
          "internalType": "uint256",
          "name": "_liqThreshold",
          "type": "uint256"
        }
      ],
      "stateMutability": "nonpayable",
      "type": "constructor"
    },
    {
      "anonymous": false,
      "inputs": [
        {
          "indexed": true,
          "internalType": "address",
          "name": "account",
          "type": "address"
        },
        {
          "indexed": false,
          "internalType": "uint256",
          "name": "amountBorrowed",
          "type": "uint256"
        },
        {
          "indexed": false,
          "internalType": "uint256",
          "name": "collateral",
          "type": "uint256"
        },
        {
          "indexed": false,
          "internalType": "uint256",
          "name": "totalDebt",
          "type": "uint256"
        }
      ],
      "name": "Borrow",
      "type": "event"
    },
    {
      "anonymous": false,
      "inputs": [
        {
          "indexed": true,
          "internalType": "address",
          "name": "account",
          "type": "address"
        },
        {
          "indexed": false,
          "internalType": "uint256",
          "name": "amount",
          "type": "uint256"
        }
      ],
      "name": "Deposit",
      "type": "event"
    },
    {
      "anonymous": false,
      "inputs": [
        {
          "indexed": true,
          "internalType": "address",
          "name": "account",
          "type": "address"
        },
        {
          "indexed": true,
          "internalType": "address",
          "name": "liquidator",
          "type": "address"
        },
        {
          "indexed": false,
          "internalType": "uint256",
          "name": "collateralLiquidated",
          "type": "uint256"
        },
        {
          "indexed": false,
          "internalType": "uint256",
          "name": "lastCollateralRatio",
          "type": "uint256"
        },
        {
          "indexed": false,
          "internalType": "uint256",
          "name": "lastDebtOutstanding",
          "type": "uint256"
        }
      ],
      "name": "Liquidation",
      "type": "event"
    },
    {
      "anonymous": false,
      "inputs": [
        {
          "indexed": true,
          "internalType": "address",
          "name": "previousOwner",
          "type": "address"
        },
        {
          "indexed": true,
          "internalType": "address",
          "name": "newOwner",
          "type": "address"
        }
      ],
      "name": "OwnershipTransferred",
      "type": "event"
    },
    {
      "anonymous": false,
      "inputs": [
        {
          "indexed": true,
          "internalType": "address",
          "name": "account",
          "type": "address"
        },
        {
          "indexed": false,
          "internalType": "uint256",
          "name": "debtRepaid",
          "type": "uint256"
        },
        {
          "indexed": false,
          "internalType": "uint256",
          "name": "debtRemaining",
          "type": "uint256"
        },
        {
          "indexed": false,
          "internalType": "uint256",
          "name": "collateral",
          "type": "uint256"
        }
      ],
      "name": "Repay",
      "type": "event"
    },
    {
      "anonymous": false,
      "inputs": [
        {
          "indexed": true,
          "internalType": "address",
          "name": "account",
          "type": "address"
        },
        {
          "indexed": false,
          "internalType": "uint256",
          "name": "amount",
          "type": "uint256"
        }
      ],
      "name": "Withdraw",
      "type": "event"
    },
    {
      "inputs": [],
      "name": "SCALING_FACTOR",
      "outputs": [
        {
          "internalType": "uint256",
          "name": "",
          "type": "uint256"
        }
      ],
      "stateMutability": "view",
      "type": "function"
    },
    {
      "inputs": [],
      "name": "SECONDS_IN_YEAR",
      "outputs": [
        {
          "internalType": "int128",
          "name": "",
          "type": "int128"
        }
      ],
      "stateMutability": "view",
      "type": "function"
    },
    {
      "inputs": [
        {
          "internalType": "uint256",
          "name": "_amount",
          "type": "uint256"
        }
      ],
      "name": "borrow",
      "outputs": [],
      "stateMutability": "nonpayable",
      "type": "function"
    },
    {
      "inputs": [],
      "name": "borrowThreshold",
      "outputs": [
        {
          "internalType": "uint256",
          "name": "",
          "type": "uint256"
        }
      ],
      "stateMutability": "view",
      "type": "function"
    },
    {
      "inputs": [
        {
          "internalType": "address",
          "name": "_account",
          "type": "address"
        }
      ],
      "name": "calcInterest",
      "outputs": [
        {
          "internalType": "uint256",
          "name": "interest",
          "type": "uint256"
        }
      ],
      "stateMutability": "view",
      "type": "function"
    },
    {
      "inputs": [
        {
          "internalType": "uint256",
          "name": "_amount",
          "type": "uint256"
        }
      ],
      "name": "deposit",
      "outputs": [],
      "stateMutability": "nonpayable",
      "type": "function"
    },
    {
      "inputs": [
        {
          "internalType": "address",
          "name": "_account",
          "type": "address"
        }
      ],
      "name": "getCollateralRatio",
      "outputs": [
        {
          "internalType": "uint256",
          "name": "",
          "type": "uint256"
        }
      ],
      "stateMutability": "view",
      "type": "function"
    },
    {
      "inputs": [],
      "name": "interestRate",
      "outputs": [
        {
          "internalType": "uint256",
          "name": "",
          "type": "uint256"
        }
      ],
      "stateMutability": "view",
      "type": "function"
    },
    {
      "inputs": [
        {
          "internalType": "address",
          "name": "_account",
          "type": "address"
        }
      ],
      "name": "liquidate",
      "outputs": [],
      "stateMutability": "nonpayable",
      "type": "function"
    },
    {
      "inputs": [],
      "name": "liquidationFee",
      "outputs": [
        {
          "internalType": "uint256",
          "name": "",
          "type": "uint256"
        }
      ],
      "stateMutability": "view",
      "type": "function"
    },
    {
      "inputs": [],
      "name": "liquidationThreshold",
      "outputs": [
        {
          "internalType": "uint256",
          "name": "",
          "type": "uint256"
        }
      ],
      "stateMutability": "view",
      "type": "function"
    },
    {
      "inputs": [],
      "name": "liquidatorFeeShare",
      "outputs": [
        {
          "internalType": "uint256",
          "name": "",
          "type": "uint256"
        }
      ],
      "stateMutability": "view",
      "type": "function"
    },
    {
      "inputs": [],
      "name": "owner",
      "outputs": [
        {
          "internalType": "address",
          "name": "",
          "type": "address"
        }
      ],
      "stateMutability": "view",
      "type": "function"
    },
    {
      "inputs": [],
      "name": "protocolShortfall",
      "outputs": [
        {
          "internalType": "uint256",
          "name": "",
          "type": "uint256"
        }
      ],
      "stateMutability": "view",
      "type": "function"
    },
    {
      "inputs": [],
      "name": "renounceOwnership",
      "outputs": [],
      "stateMutability": "nonpayable",
      "type": "function"
    },
    {
      "inputs": [
        {
          "internalType": "uint256",
          "name": "_amount",
          "type": "uint256"
        }
      ],
      "name": "repay",
      "outputs": [],
      "stateMutability": "nonpayable",
      "type": "function"
    },
    {
      "inputs": [
        {
          "internalType": "uint256",
          "name": "_liqTotalFee",
          "type": "uint256"
        },
        {
          "internalType": "uint256",
          "name": "_liqFeeShare",
          "type": "uint256"
        },
        {
          "internalType": "uint256",
          "name": "_interestRate",
          "type": "uint256"
        }
      ],
      "name": "setFeesAndRates",
      "outputs": [],
      "stateMutability": "nonpayable",
      "type": "function"
    },
    {
      "inputs": [
        {
          "internalType": "uint256",
          "name": "_borrowThreshold",
          "type": "uint256"
        },
        {
          "internalType": "uint256",
          "name": "_liqThreshold",
          "type": "uint256"
        }
      ],
      "name": "setThresholds",
      "outputs": [],
      "stateMutability": "nonpayable",
      "type": "function"
    },
    {
      "inputs": [
        {
          "internalType": "address",
          "name": "_newAddress",
          "type": "address"
        }
      ],
      "name": "setUSDZAddress",
      "outputs": [],
      "stateMutability": "nonpayable",
      "type": "function"
    },
    {
      "inputs": [
        {
          "internalType": "address",
          "name": "_newAddress",
          "type": "address"
        }
      ],
      "name": "setXSUSHIAddress",
      "outputs": [],
      "stateMutability": "nonpayable",
      "type": "function"
    },
    {
      "inputs": [],
      "name": "sushiRouterAddress",
      "outputs": [
        {
          "internalType": "address",
          "name": "",
          "type": "address"
        }
      ],
      "stateMutability": "view",
      "type": "function"
    },
    {
      "inputs": [
        {
          "internalType": "address",
          "name": "newOwner",
          "type": "address"
        }
      ],
      "name": "transferOwnership",
      "outputs": [],
      "stateMutability": "nonpayable",
      "type": "function"
    },
    {
      "inputs": [],
      "name": "usdcAddress",
      "outputs": [
        {
          "internalType": "address",
          "name": "",
          "type": "address"
        }
      ],
      "stateMutability": "view",
      "type": "function"
    },
    {
      "inputs": [],
      "name": "usdzAddress",
      "outputs": [
        {
          "internalType": "address",
          "name": "",
          "type": "address"
        }
      ],
      "stateMutability": "view",
      "type": "function"
    },
    {
      "inputs": [
        {
          "internalType": "uint256",
          "name": "_amount",
          "type": "uint256"
        }
      ],
      "name": "withdraw",
      "outputs": [],
      "stateMutability": "nonpayable",
      "type": "function"
    },
    {
      "inputs": [],
      "name": "xSushiAddress",
      "outputs": [
        {
          "internalType": "address",
          "name": "",
          "type": "address"
        }
      ],
      "stateMutability": "view",
      "type": "function"
    },
    {
      "inputs": [
        {
          "internalType": "uint256",
          "name": "",
          "type": "uint256"
        }
      ],
      "name": "xSushiToUsdcPath",
      "outputs": [
        {
          "internalType": "address",
          "name": "",
          "type": "address"
        }
      ],
      "stateMutability": "view",
      "type": "function"
    }
  ],
  "bytecode": "0x60806040523480156200001157600080fd5b5060405162003ac938038062003ac983398181016040528101906200003791906200050e565b6000620000496200040660201b60201c565b9050806000806101000a81548173ffffffffffffffffffffffffffffffffffffffff021916908373ffffffffffffffffffffffffffffffffffffffff1602179055508073ffffffffffffffffffffffffffffffffffffffff16600073ffffffffffffffffffffffffffffffffffffffff167f8be0079c531659141344cd1fd0a4f28419497f9722a3daafe3b4186f6b6457e060405160405180910390a35088600360006101000a81548173ffffffffffffffffffffffffffffffffffffffff021916908373ffffffffffffffffffffffffffffffffffffffff16021790555087600460006101000a81548173ffffffffffffffffffffffffffffffffffffffff021916908373ffffffffffffffffffffffffffffffffffffffff16021790555086600560006101000a81548173ffffffffffffffffffffffffffffffffffffffff021916908373ffffffffffffffffffffffffffffffffffffffff16021790555085600660006101000a81548173ffffffffffffffffffffffffffffffffffffffff021916908373ffffffffffffffffffffffffffffffffffffffff160217905550846008819055508360098190555082600a8190555081600b8190555080600c81905550600267ffffffffffffffff81111562000250577f4e487b7100000000000000000000000000000000000000000000000000000000600052604160045260246000fd5b6040519080825280602002602001820160405280156200027f5781602001602082028036833780820191505090505b50600790805190602001906200029792919062000432565b50866007600081548110620002d5577f4e487b7100000000000000000000000000000000000000000000000000000000600052603260045260246000fd5b9060005260206000200160006101000a81548173ffffffffffffffffffffffffffffffffffffffff021916908373ffffffffffffffffffffffffffffffffffffffff1602179055508760076001815481106200035a577f4e487b7100000000000000000000000000000000000000000000000000000000600052603260045260246000fd5b9060005260206000200160006101000a81548173ffffffffffffffffffffffffffffffffffffffff021916908373ffffffffffffffffffffffffffffffffffffffff160217905550620003bc6301e185586200040e60201b620018761760201c565b600d60006101000a8154816fffffffffffffffffffffffffffffffff0219169083600f0b6fffffffffffffffffffffffffffffffff16021790555050505050505050505062000659565b600033905090565b6000677fffffffffffffff8211156200042657600080fd5b604082901b9050919050565b828054828255906000526020600020908101928215620004ae579160200282015b82811115620004ad5782518260006101000a81548173ffffffffffffffffffffffffffffffffffffffff021916908373ffffffffffffffffffffffffffffffffffffffff1602179055509160200191906001019062000453565b5b509050620004bd9190620004c1565b5090565b5b80821115620004dc576000816000905550600101620004c2565b5090565b600081519050620004f18162000625565b92915050565b60008151905062000508816200063f565b92915050565b60008060008060008060008060006101208a8c0312156200052e57600080fd5b60006200053e8c828d01620004e0565b9950506020620005518c828d01620004e0565b9850506040620005648c828d01620004e0565b9750506060620005778c828d01620004e0565b96505060806200058a8c828d01620004f7565b95505060a06200059d8c828d01620004f7565b94505060c0620005b08c828d01620004f7565b93505060e0620005c38c828d01620004f7565b925050610100620005d78c828d01620004f7565b9150509295985092959850929598565b6000620005f482620005fb565b9050919050565b600073ffffffffffffffffffffffffffffffffffffffff82169050919050565b6000819050919050565b6200063081620005e7565b81146200063c57600080fd5b50565b6200064a816200061b565b81146200065657600080fd5b50565b61346080620006696000396000f3fe608060405234801561001057600080fd5b50600436106101a95760003560e01c806379bbce8f116100f9578063b6b55f2511610097578063c5ebeaec11610071578063c5ebeaec14610474578063e3064a7714610490578063ef4cadc5146104ac578063f2fde38b146104ca576101a9565b8063b6b55f251461041e578063bdfccad31461043a578063bfaf48d414610458576101a9565b80638da5cb5b116100d35780638da5cb5b146103a85780638f6ba29a146103c6578063a36a3630146103e2578063af1f556f14610400576101a9565b806379bbce8f146103505780637c3a00fd1461036e5780638456b7551461038c576101a9565b80634031234c116101665780635ae547e3116101405780635ae547e3146102da5780635dcc9391146102f857806369cb89c714610316578063715018a614610346576101a9565b80634031234c1461026e5780634a63a5ce1461028c57806354054808146102bc576101a9565b806302d45457146101ae57806315a3ba43146101cc57806320bdf800146101fc5780632e1a7d4d1461021a5780632f86556814610236578063371fd8e614610252575b600080fd5b6101b66104e6565b6040516101c39190612da7565b60405180910390f35b6101e660048036038101906101e19190612740565b61050c565b6040516101f39190613054565b60405180910390f35b610204610747565b6040516102119190612da7565b60405180910390f35b610234600480360381019061022f91906127d3565b61076d565b005b610250600480360381019061024b9190612740565b610a74565b005b61026c600480360381019061026791906127d3565b610ae2565b005b610276610b38565b6040516102839190613054565b60405180910390f35b6102a660048036038101906102a191906127d3565b610b3e565b6040516102b39190612da7565b60405180910390f35b6102c4610b7d565b6040516102d19190613054565b60405180910390f35b6102e2610b83565b6040516102ef9190613054565b60405180910390f35b610300610b89565b60405161030d9190612e22565b60405180910390f35b610330600480360381019061032b9190612740565b610b9c565b60405161033d9190613054565b60405180910390f35b61034e610dbf565b005b610358610ef9565b6040516103659190612da7565b60405180910390f35b610376610f1f565b6040516103839190613054565b60405180910390f35b6103a660048036038101906103a19190612740565b610f25565b005b6103b0611055565b6040516103bd9190612da7565b60405180910390f35b6103e060048036038101906103db9190612740565b61107e565b005b6103ea6111ae565b6040516103f79190613054565b60405180910390f35b6104086111b4565b6040516104159190613054565b60405180910390f35b610438600480360381019061043391906127d3565b6111ba565b005b61044261139b565b60405161044f9190612da7565b60405180910390f35b610472600480360381019061046d9190612838565b6113c1565b005b61048e600480360381019061048991906127d3565b611559565b005b6104aa60048036038101906104a591906127fc565b6115af565b005b6104b46116c7565b6040516104c19190613054565b60405180910390f35b6104e460048036038101906104df9190612740565b6116cd565b005b600460009054906101000a900473ffffffffffffffffffffffffffffffffffffffff1681565b600080600160008473ffffffffffffffffffffffffffffffffffffffff1673ffffffffffffffffffffffffffffffffffffffff1681526020019081526020016000206000015490506000600160008573ffffffffffffffffffffffffffffffffffffffff1673ffffffffffffffffffffffffffffffffffffffff16815260200190815260200160002060010154905060008214156105af57600092505050610742565b60008114156105e2577fffffffffffffffffffffffffffffffffffffffffffffffffffffffffffffffff92505050610742565b60008211610625576040517f08c379a000000000000000000000000000000000000000000000000000000000815260040161061c90612fb4565b60405180910390fd5b6000600660009054906101000a900473ffffffffffffffffffffffffffffffffffffffff16905060008173ffffffffffffffffffffffffffffffffffffffff1663d06ca61f8560076040518363ffffffff1660e01b815260040161068a92919061306f565b60006040518083038186803b1580156106a257600080fd5b505afa1580156106b6573d6000803e3d6000fd5b505050506040513d6000823e3d601f19601f820116820180604052508101906106df9190612769565b600181518110610718577f4e487b7100000000000000000000000000000000000000000000000000000000600052603260045260246000fd5b6020026020010151905082612710826107319190613209565b61073b91906131d8565b9450505050505b919050565b600360009054906101000a900473ffffffffffffffffffffffffffffffffffffffff1681565b6000600160003373ffffffffffffffffffffffffffffffffffffffff1673ffffffffffffffffffffffffffffffffffffffff168152602001908152602001600020600001549050818110156107f7576040517f08c379a00000000000000000000000000000000000000000000000000000000081526004016107ee90613034565b60405180910390fd5b60006108023361050c565b9050600b548111610848576040517f08c379a000000000000000000000000000000000000000000000000000000000815260040161083f90612f34565b60405180910390fd5b6000827fffffffffffffffffffffffffffffffffffffffffffffffffffffffffffffffff612710600b5461087c91906131d8565b846108879190613263565b61089191906131d8565b61089b9190613209565b9050838110156108e0576040517f08c379a00000000000000000000000000000000000000000000000000000000081526004016108d790612eb4565b60405180910390fd5b83836108ec9190613263565b600160003373ffffffffffffffffffffffffffffffffffffffff1673ffffffffffffffffffffffffffffffffffffffff16815260200190815260200160002060000181905550600560009054906101000a900473ffffffffffffffffffffffffffffffffffffffff1673ffffffffffffffffffffffffffffffffffffffff1663a9059cbb33866040518363ffffffff1660e01b815260040161098f929190612df9565b602060405180830381600087803b1580156109a957600080fd5b505af11580156109bd573d6000803e3d6000fd5b505050506040513d601f19601f820116820180604052508101906109e191906127aa565b610a20576040517f08c379a0000000000000000000000000000000000000000000000000000000008152600401610a1790612ed4565b60405180910390fd5b3373ffffffffffffffffffffffffffffffffffffffff167f884edad9ce6fa2440d8a54cc123490eb96d2768479d49ff9c7366125a942436485604051610a669190613054565b60405180910390a250505050565b3373ffffffffffffffffffffffffffffffffffffffff168173ffffffffffffffffffffffffffffffffffffffff167f5a821a618ddb1a1fd304234a69c9d7f20c129d122fcf35593d13a071926643076000806000604051610ad793929190612e3d565b60405180910390a350565b3373ffffffffffffffffffffffffffffffffffffffff167f2fe77b1c99aca6b022b8efc6e3e8dd1b48b30748709339b65c50ef3263443e0982600080604051610b2d9392919061309f565b60405180910390a250565b600c5481565b60078181548110610b4e57600080fd5b906000526020600020016000915054906101000a900473ffffffffffffffffffffffffffffffffffffffff1681565b60095481565b600b5481565b600d60009054906101000a9004600f0b81565b600080600160008473ffffffffffffffffffffffffffffffffffffffff1673ffffffffffffffffffffffffffffffffffffffff168152602001908152602001600020600101541480610c3057506000600160008473ffffffffffffffffffffffffffffffffffffffff1673ffffffffffffffffffffffffffffffffffffffff16815260200190815260200160002060020154145b80610c3d57506000600a54145b15610c4b5760009050610dba565b6000600160008473ffffffffffffffffffffffffffffffffffffffff1673ffffffffffffffffffffffffffffffffffffffff1681526020019081526020016000206002015442610c9b9190613263565b90506000610cc0610cab83611876565b600d60009054906101000a9004600f0b611899565b90506000610ce2610cd2600a54611876565b610cdd612710611876565b611899565b90506000610d31600160008873ffffffffffffffffffffffffffffffffffffffff1673ffffffffffffffffffffffffffffffffffffffff16815260200190815260200160002060010154611876565b90506000610d58610d5383610d4e610d498789611949565b6119b4565b611949565b611a2d565b9050600160008873ffffffffffffffffffffffffffffffffffffffff1673ffffffffffffffffffffffffffffffffffffffff168152602001908152602001600020600101548167ffffffffffffffff16610db29190613263565b955050505050505b919050565b610dc7611a4e565b73ffffffffffffffffffffffffffffffffffffffff16610de5611055565b73ffffffffffffffffffffffffffffffffffffffff1614610e3b576040517f08c379a0000000000000000000000000000000000000000000000000000000008152600401610e3290612f74565b60405180910390fd5b600073ffffffffffffffffffffffffffffffffffffffff1660008054906101000a900473ffffffffffffffffffffffffffffffffffffffff1673ffffffffffffffffffffffffffffffffffffffff167f8be0079c531659141344cd1fd0a4f28419497f9722a3daafe3b4186f6b6457e060405160405180910390a360008060006101000a81548173ffffffffffffffffffffffffffffffffffffffff021916908373ffffffffffffffffffffffffffffffffffffffff160217905550565b600660009054906101000a900473ffffffffffffffffffffffffffffffffffffffff1681565b600a5481565b610f2d611a4e565b73ffffffffffffffffffffffffffffffffffffffff16610f4b611055565b73ffffffffffffffffffffffffffffffffffffffff1614610fa1576040517f08c379a0000000000000000000000000000000000000000000000000000000008152600401610f9890612f74565b60405180910390fd5b600073ffffffffffffffffffffffffffffffffffffffff168173ffffffffffffffffffffffffffffffffffffffff161415611011576040517f08c379a000000000000000000000000000000000000000000000000000000000815260040161100890612ef4565b60405180910390fd5b80600560006101000a81548173ffffffffffffffffffffffffffffffffffffffff021916908373ffffffffffffffffffffffffffffffffffffffff16021790555050565b60008060009054906101000a900473ffffffffffffffffffffffffffffffffffffffff16905090565b611086611a4e565b73ffffffffffffffffffffffffffffffffffffffff166110a4611055565b73ffffffffffffffffffffffffffffffffffffffff16146110fa576040517f08c379a00000000000000000000000000000000000000000000000000000000081526004016110f190612f74565b60405180910390fd5b600073ffffffffffffffffffffffffffffffffffffffff168173ffffffffffffffffffffffffffffffffffffffff16141561116a576040517f08c379a000000000000000000000000000000000000000000000000000000000815260040161116190612f54565b60405180910390fd5b80600360006101000a81548173ffffffffffffffffffffffffffffffffffffffff021916908373ffffffffffffffffffffffffffffffffffffffff16021790555050565b60085481565b60025481565b6000600560009054906101000a900473ffffffffffffffffffffffffffffffffffffffff1690508073ffffffffffffffffffffffffffffffffffffffff166323b872dd3330856040518463ffffffff1660e01b815260040161121e93929190612dc2565b602060405180830381600087803b15801561123857600080fd5b505af115801561124c573d6000803e3d6000fd5b505050506040513d601f19601f8201168201806040525081019061127091906127aa565b6112af576040517f08c379a00000000000000000000000000000000000000000000000000000000081526004016112a690612fd4565b60405180910390fd5b6000600160003373ffffffffffffffffffffffffffffffffffffffff1673ffffffffffffffffffffffffffffffffffffffff16815260200190815260200160002060000154905082816113029190613182565b600160003373ffffffffffffffffffffffffffffffffffffffff1673ffffffffffffffffffffffffffffffffffffffff168152602001908152602001600020600001819055503373ffffffffffffffffffffffffffffffffffffffff167fe1fffcc4923d04b559f4d29a8bfc6cda04eb5b0d3c460751c2402c5c5cc9109c8460405161138e9190613054565b60405180910390a2505050565b600560009054906101000a900473ffffffffffffffffffffffffffffffffffffffff1681565b6113c9611a4e565b73ffffffffffffffffffffffffffffffffffffffff166113e7611055565b73ffffffffffffffffffffffffffffffffffffffff161461143d576040517f08c379a000000000000000000000000000000000000000000000000000000000815260040161143490612f74565b60405180910390fd5b6127108311158015611450575060008310155b61148f576040517f08c379a000000000000000000000000000000000000000000000000000000000815260040161148690612f94565b60405180910390fd5b61271082111580156114a2575060008210155b80156114ae5750828211155b6114ed576040517f08c379a00000000000000000000000000000000000000000000000000000000081526004016114e490612e94565b60405180910390fd5b8260088190555081600981905550612710811115801561150e575060008110155b61154d576040517f08c379a000000000000000000000000000000000000000000000000000000000815260040161154490612ff4565b60405180910390fd5b80600a81905550505050565b3373ffffffffffffffffffffffffffffffffffffffff167f13ed6866d4e1ee6da46f845c46d7e54120883d75c5ea9a2dacc1c4ca8984ab80826000806040516115a49392919061309f565b60405180910390a250565b6115b7611a4e565b73ffffffffffffffffffffffffffffffffffffffff166115d5611055565b73ffffffffffffffffffffffffffffffffffffffff161461162b576040517f08c379a000000000000000000000000000000000000000000000000000000000815260040161162290612f74565b60405180910390fd5b612710821015611670576040517f08c379a000000000000000000000000000000000000000000000000000000000815260040161166790612f14565b60405180910390fd5b6127108110156116b5576040517f08c379a00000000000000000000000000000000000000000000000000000000081526004016116ac90613014565b60405180910390fd5b81600b8190555080600c819055505050565b61271081565b6116d5611a4e565b73ffffffffffffffffffffffffffffffffffffffff166116f3611055565b73ffffffffffffffffffffffffffffffffffffffff1614611749576040517f08c379a000000000000000000000000000000000000000000000000000000000815260040161174090612f74565b60405180910390fd5b600073ffffffffffffffffffffffffffffffffffffffff168173ffffffffffffffffffffffffffffffffffffffff1614156117b9576040517f08c379a00000000000000000000000000000000000000000000000000000000081526004016117b090612e74565b60405180910390fd5b8073ffffffffffffffffffffffffffffffffffffffff1660008054906101000a900473ffffffffffffffffffffffffffffffffffffffff1673ffffffffffffffffffffffffffffffffffffffff167f8be0079c531659141344cd1fd0a4f28419497f9722a3daafe3b4186f6b6457e060405160405180910390a3806000806101000a81548173ffffffffffffffffffffffffffffffffffffffff021916908373ffffffffffffffffffffffffffffffffffffffff16021790555050565b6000677fffffffffffffff82111561188d57600080fd5b604082901b9050919050565b60008082600f0b14156118ab57600080fd5b600082600f0b604085600f0b901b816118ed577f4e487b7100000000000000000000000000000000000000000000000000000000600052601260045260246000fd5b0590507fffffffffffffffffffffffffffffffff80000000000000000000000000000000600f0b811215801561193657506f7fffffffffffffffffffffffffffffff600f0b8113155b61193f57600080fd5b8091505092915050565b600080604083600f0b85600f0b02901d90507fffffffffffffffffffffffffffffffff80000000000000000000000000000000600f0b81121580156119a157506f7fffffffffffffffffffffffffffffff600f0b8113155b6119aa57600080fd5b8091505092915050565b60006840000000000000000082600f0b126119ce57600080fd5b7fffffffffffffffffffffffffffffffffffffffffffffffc0000000000000000082600f0b1215611a025760009050611a28565b611a256080700171547652b82fe1777d0ffda0d23a7d1284600f0b02901d611a56565b90505b919050565b60008082600f0b1215611a3f57600080fd5b604082600f0b901d9050919050565b600033905090565b60006840000000000000000082600f0b12611a7057600080fd5b7fffffffffffffffffffffffffffffffffffffffffffffffc0000000000000000082600f0b1215611aa45760009050612651565b60006f80000000000000000000000000000000905060006780000000000000008416600f0b1315611aea57608070016a09e667f3bcc908b2fb1366ea957d3e8202901c90505b60006740000000000000008416600f0b1315611b1b5760807001306fe0a31b7152de8d5a46305c85edec8202901c90505b60006720000000000000008416600f0b1315611b4c5760807001172b83c7d517adcdf7c8c50eb14a791f8202901c90505b60006710000000000000008416600f0b1315611b7d57608070010b5586cf9890f6298b92b71842a983638202901c90505b60006708000000000000008416600f0b1315611bae5760807001059b0d31585743ae7c548eb68ca417fd8202901c90505b60006704000000000000008416600f0b1315611bdf576080700102c9a3e778060ee6f7caca4f7a29bde88202901c90505b60006702000000000000008416600f0b1315611c1057608070010163da9fb33356d84a66ae336dcdfa3f8202901c90505b60006701000000000000008416600f0b1315611c41576080700100b1afa5abcbed6129ab13ec11dc95438202901c90505b600066800000000000008416600f0b1315611c7157608070010058c86da1c09ea1ff19d294cf2f679b8202901c90505b600066400000000000008416600f0b1315611ca15760807001002c605e2e8cec506d21bfc89a23a00f8202901c90505b600066200000000000008416600f0b1315611cd1576080700100162f3904051fa128bca9c55c31e5df8202901c90505b600066100000000000008416600f0b1315611d015760807001000b175effdc76ba38e31671ca9397258202901c90505b600066080000000000008416600f0b1315611d31576080700100058ba01fb9f96d6cacd4b180917c3d8202901c90505b600066040000000000008416600f0b1315611d6157608070010002c5cc37da9491d0985c348c68e7b38202901c90505b600066020000000000008416600f0b1315611d915760807001000162e525ee054754457d59952920268202901c90505b600066010000000000008416600f0b1315611dc157608070010000b17255775c040618bf4a4ade83fc8202901c90505b6000658000000000008416600f0b1315611df05760807001000058b91b5bc9ae2eed81e9b7d4cfab8202901c90505b6000654000000000008416600f0b1315611e1f576080700100002c5c89d5ec6ca4d7c8acc017b7c98202901c90505b6000652000000000008416600f0b1315611e4e57608070010000162e43f4f831060e02d839a9d16d8202901c90505b6000651000000000008416600f0b1315611e7d576080700100000b1721bcfc99d9f890ea069117638202901c90505b6000650800000000008416600f0b1315611eac57608070010000058b90cf1e6d97f9ca14dbcc16288202901c90505b6000650400000000008416600f0b1315611edb5760807001000002c5c863b73f016468f6bac5ca2b8202901c90505b6000650200000000008416600f0b1315611f0a576080700100000162e430e5a18f6119e3c02282a58202901c90505b6000650100000000008416600f0b1315611f395760807001000000b1721835514b86e6d96efd1bfe8202901c90505b60006480000000008416600f0b1315611f67576080700100000058b90c0b48c6be5df846c5b2ef8202901c90505b60006440000000008416600f0b1315611f9557608070010000002c5c8601cc6b9e94213c72737a8202901c90505b60006420000000008416600f0b1315611fc35760807001000000162e42fff037df38aa2b219f068202901c90505b60006410000000008416600f0b1315611ff157608070010000000b17217fba9c739aa5819f44f98202901c90505b60006408000000008416600f0b131561201f5760807001000000058b90bfcdee5acd3c1cedc8238202901c90505b60006404000000008416600f0b131561204d576080700100000002c5c85fe31f35a6a30da1be508202901c90505b60006402000000008416600f0b131561207b57608070010000000162e42ff0999ce3541b9fffcf8202901c90505b60006401000000008416600f0b13156120a9576080700100000000b17217f80f4ef5aadda455548202901c90505b600063800000008416600f0b13156120d657608070010000000058b90bfbf8479bd5a81b51ad8202901c90505b600063400000008416600f0b13156121035760807001000000002c5c85fdf84bd62ae30a74cc8202901c90505b600063200000008416600f0b1315612130576080700100000000162e42fefb2fed257559bdaa8202901c90505b600063100000008416600f0b131561215d5760807001000000000b17217f7d5a7716bba4a9ae8202901c90505b600063080000008416600f0b131561218a576080700100000000058b90bfbe9ddbac5e109cce8202901c90505b600063040000008416600f0b13156121b757608070010000000002c5c85fdf4b15de6f17eb0d8202901c90505b600063020000008416600f0b13156121e45760807001000000000162e42fefa494f1478fde058202901c90505b600063010000008416600f0b131561221157608070010000000000b17217f7d20cf927c8e94c8202901c90505b6000628000008416600f0b131561223d5760807001000000000058b90bfbe8f71cb4e4b33d8202901c90505b6000624000008416600f0b1315612269576080700100000000002c5c85fdf477b662b269458202901c90505b6000622000008416600f0b131561229557608070010000000000162e42fefa3ae53369388c8202901c90505b6000621000008416600f0b13156122c1576080700100000000000b17217f7d1d351a389d408202901c90505b6000620800008416600f0b13156122ed57608070010000000000058b90bfbe8e8b2d3d4ede8202901c90505b6000620400008416600f0b13156123195760807001000000000002c5c85fdf4741bea6e77e8202901c90505b6000620200008416600f0b1315612345576080700100000000000162e42fefa39fe95583c28202901c90505b6000620100008416600f0b13156123715760807001000000000000b17217f7d1cfb72b45e18202901c90505b60006180008416600f0b131561239c576080700100000000000058b90bfbe8e7cc35c3f08202901c90505b60006140008416600f0b13156123c757608070010000000000002c5c85fdf473e242ea388202901c90505b60006120008416600f0b13156123f25760807001000000000000162e42fefa39f02b772c8202901c90505b60006110008416600f0b131561241d57608070010000000000000b17217f7d1cf7d83c1a8202901c90505b60006108008416600f0b13156124485760807001000000000000058b90bfbe8e7bdcbe2e8202901c90505b60006104008416600f0b1315612473576080700100000000000002c5c85fdf473dea871f8202901c90505b60006102008416600f0b131561249e57608070010000000000000162e42fefa39ef44d918202901c90505b60006101008416600f0b13156124c9576080700100000000000000b17217f7d1cf79e9498202901c90505b600060808416600f0b13156124f357608070010000000000000058b90bfbe8e7bce5448202901c90505b600060408416600f0b131561251d5760807001000000000000002c5c85fdf473de6eca8202901c90505b600060208416600f0b1315612547576080700100000000000000162e42fefa39ef366f8202901c90505b600060108416600f0b13156125715760807001000000000000000b17217f7d1cf79afa8202901c90505b600060088416600f0b131561259b576080700100000000000000058b90bfbe8e7bcd6d8202901c90505b600060048416600f0b13156125c557608070010000000000000002c5c85fdf473de6b28202901c90505b600060028416600f0b13156125ef5760807001000000000000000162e42fefa39ef3588202901c90505b600060018416600f0b131561261957608070010000000000000000b17217f7d1cf79ab8202901c90505b604083600f0b901d603f03600f0b81901c90506f7fffffffffffffffffffffffffffffff600f0b81111561264c57600080fd5b809150505b919050565b600061266961266484613107565b6130d6565b9050808382526020820190508285602086028201111561268857600080fd5b60005b858110156126b8578161269e888261272b565b84526020840193506020830192505060018101905061268b565b5050509392505050565b6000813590506126d1816133e5565b92915050565b600082601f8301126126e857600080fd5b81516126f8848260208601612656565b91505092915050565b600081519050612710816133fc565b92915050565b60008135905061272581613413565b92915050565b60008151905061273a81613413565b92915050565b60006020828403121561275257600080fd5b6000612760848285016126c2565b91505092915050565b60006020828403121561277b57600080fd5b600082015167ffffffffffffffff81111561279557600080fd5b6127a1848285016126d7565b91505092915050565b6000602082840312156127bc57600080fd5b60006127ca84828501612701565b91505092915050565b6000602082840312156127e557600080fd5b60006127f384828501612716565b91505092915050565b6000806040838503121561280f57600080fd5b600061281d85828601612716565b925050602061282e85828601612716565b9150509250929050565b60008060006060848603121561284d57600080fd5b600061285b86828701612716565b935050602061286c86828701612716565b925050604061287d86828701612716565b9150509250925092565b6000612893838361289f565b60208301905092915050565b6128a8816132b7565b82525050565b6128b7816132b7565b82525050565b60006128c882613148565b6128d28185613160565b93506128dd83613133565b8060005b83811015612915576128f2826133c5565b6128fc8882612887565b975061290783613153565b9250506001810190506128e1565b5085935050505092915050565b61292b816132d5565b82525050565b61293a8161330c565b82525050565b600061294d602683613171565b91507f4f776e61626c653a206e6577206f776e657220697320746865207a65726f206160008301527f64647265737300000000000000000000000000000000000000000000000000006020830152604082019050919050565b60006129b3601883613171565b91507f6c69714665655368617265206f7574206f662072616e676500000000000000006000830152602082019050919050565b60006129f3603083613171565b91507f7769746864726177206c657373206f6620636f6c6c61746572616c207261746960008301527f6f206265636f6d657320756e73616665000000000000000000000000000000006020830152604082019050919050565b6000612a59601883613171565b91507f7769746864726177207472616e73666572206661696c656400000000000000006000830152602082019050919050565b6000612a99602083613171565b91507f78535553484920636f6e7472616374206e6f74207a65726f20616464726573736000830152602082019050919050565b6000612ad9602983613171565b91507f626f72726f77207468726573686f6c64206d757374206265203e207363616c6960008301527f6e6720666163746f7200000000000000000000000000000000000000000000006020830152604082019050919050565b6000612b3f602783613171565b91507f636f6c6c61746572616c20726174696f206973203c3d20626f72726f7720746860008301527f726573686f6c64000000000000000000000000000000000000000000000000006020830152604082019050919050565b6000612ba5601e83613171565b91507f7573647a20636f6e7472616374206e6f74207a65726f206164647265737300006000830152602082019050919050565b6000612be5602083613171565b91507f4f776e61626c653a2063616c6c6572206973206e6f7420746865206f776e65726000830152602082019050919050565b6000612c25601883613171565b91507f6c6971546f74616c466565206f7574206f662072616e676500000000000000006000830152602082019050919050565b6000612c65600083613171565b9150600082019050919050565b6000612c7f600e83613171565b91507f6465706f736974206661696c65640000000000000000000000000000000000006000830152602082019050919050565b6000612cbf601983613171565b91507f696e74657265737452617465206f7574206f662072616e6765000000000000006000830152602082019050919050565b6000612cff602683613171565b91507f6c6971207468726573686f6c64206d757374206265203e207363616c696e672060008301527f666163746f7200000000000000000000000000000000000000000000000000006020830152604082019050919050565b6000612d65602083613171565b91507f6e6f7420656e6f75676820636f6c6c61746572616c20696e206163636f756e746000830152602082019050919050565b612da181613302565b82525050565b6000602082019050612dbc60008301846128ae565b92915050565b6000606082019050612dd760008301866128ae565b612de460208301856128ae565b612df16040830184612d98565b949350505050565b6000604082019050612e0e60008301856128ae565b612e1b6020830184612d98565b9392505050565b6000602082019050612e376000830184612922565b92915050565b6000606082019050612e526000830186612931565b612e5f6020830185612931565b612e6c6040830184612931565b949350505050565b60006020820190508181036000830152612e8d81612940565b9050919050565b60006020820190508181036000830152612ead816129a6565b9050919050565b60006020820190508181036000830152612ecd816129e6565b9050919050565b60006020820190508181036000830152612eed81612a4c565b9050919050565b60006020820190508181036000830152612f0d81612a8c565b9050919050565b60006020820190508181036000830152612f2d81612acc565b9050919050565b60006020820190508181036000830152612f4d81612b32565b9050919050565b60006020820190508181036000830152612f6d81612b98565b9050919050565b60006020820190508181036000830152612f8d81612bd8565b9050919050565b60006020820190508181036000830152612fad81612c18565b9050919050565b60006020820190508181036000830152612fcd81612c58565b9050919050565b60006020820190508181036000830152612fed81612c72565b9050919050565b6000602082019050818103600083015261300d81612cb2565b9050919050565b6000602082019050818103600083015261302d81612cf2565b9050919050565b6000602082019050818103600083015261304d81612d58565b9050919050565b60006020820190506130696000830184612d98565b92915050565b60006040820190506130846000830185612d98565b818103602083015261309681846128bd565b90509392505050565b60006060820190506130b46000830186612d98565b6130c16020830185612931565b6130ce6040830184612931565b949350505050565b6000604051905081810181811067ffffffffffffffff821117156130fd576130fc613396565b5b8060405250919050565b600067ffffffffffffffff82111561312257613121613396565b5b602082029050602081019050919050565b60008190508160005260206000209050919050565b600081549050919050565b6000600182019050919050565b600082825260208201905092915050565b600082825260208201905092915050565b600061318d82613302565b915061319883613302565b9250827fffffffffffffffffffffffffffffffffffffffffffffffffffffffffffffffff038211156131cd576131cc613338565b5b828201905092915050565b60006131e382613302565b91506131ee83613302565b9250826131fe576131fd613367565b5b828204905092915050565b600061321482613302565b915061321f83613302565b9250817fffffffffffffffffffffffffffffffffffffffffffffffffffffffffffffffff048311821515161561325857613257613338565b5b828202905092915050565b600061326e82613302565b915061327983613302565b92508282101561328c5761328b613338565b5b828203905092915050565b600073ffffffffffffffffffffffffffffffffffffffff82169050919050565b60006132c2826132e2565b9050919050565b60008115159050919050565b600081600f0b9050919050565b600073ffffffffffffffffffffffffffffffffffffffff82169050919050565b6000819050919050565b600061331782613302565b9050919050565b600061333161332c836133d8565b613297565b9050919050565b7f4e487b7100000000000000000000000000000000000000000000000000000000600052601160045260246000fd5b7f4e487b7100000000000000000000000000000000000000000000000000000000600052601260045260246000fd5b7f4e487b7100000000000000000000000000000000000000000000000000000000600052604160045260246000fd5b60006133d1825461331e565b9050919050565b60008160001c9050919050565b6133ee816132b7565b81146133f957600080fd5b50565b613405816132c9565b811461341057600080fd5b50565b61341c81613302565b811461342757600080fd5b5056fea264697066735822122003fef7a42a079bcf79bfdb968e55ba90600227f301de0993041406057676cc7064736f6c63430008000033",
  "linkReferences": {},
  "deployedLinkReferences": {}
}