{
  "_format": "hh-sol-artifact-1",
  "contractName": "Controller",
  "sourceName": "contracts/Controller.sol",
  "abi": [
    {
      "inputs": [
        {
          "internalType": "address",
          "name": "_usdzAddress",
          "type": "address"
        },
        {
          "internalType": "address",
          "name": "_usdcAddress",
          "type": "address"
        },
        {
          "internalType": "address",
          "name": "_xSushiAddress",
          "type": "address"
        },
        {
          "internalType": "address",
          "name": "_routerAddress",
          "type": "address"
        },
        {
          "internalType": "uint256",
          "name": "_liqTotalFee",
          "type": "uint256"
        },
        {
          "internalType": "uint256",
          "name": "_liqFeeShare",
          "type": "uint256"
        },
        {
          "internalType": "uint256",
          "name": "_interestRate",
          "type": "uint256"
        },
        {
          "internalType": "uint256",
          "name": "_borrowThreshold",
          "type": "uint256"
        },
        {
          "internalType": "uint256",
          "name": "_liqThreshold",
          "type": "uint256"
        }
      ],
      "stateMutability": "nonpayable",
      "type": "constructor"
    },
    {
      "anonymous": false,
      "inputs": [
        {
          "indexed": true,
          "internalType": "address",
          "name": "account",
          "type": "address"
        },
        {
          "indexed": false,
          "internalType": "uint256",
          "name": "amountBorrowed",
          "type": "uint256"
        },
        {
          "indexed": false,
          "internalType": "uint256",
          "name": "totalDebt",
          "type": "uint256"
        },
        {
          "indexed": false,
          "internalType": "uint256",
          "name": "collateralAmount",
          "type": "uint256"
        }
      ],
      "name": "Borrow",
      "type": "event"
    },
    {
      "anonymous": false,
      "inputs": [
        {
          "indexed": true,
          "internalType": "address",
          "name": "account",
          "type": "address"
        },
        {
          "indexed": false,
          "internalType": "uint256",
          "name": "amount",
          "type": "uint256"
        }
      ],
      "name": "Deposit",
      "type": "event"
    },
    {
      "anonymous": false,
      "inputs": [
        {
          "indexed": true,
          "internalType": "address",
          "name": "account",
          "type": "address"
        },
        {
          "indexed": true,
          "internalType": "address",
          "name": "liquidator",
          "type": "address"
        },
        {
          "indexed": false,
          "internalType": "uint256",
          "name": "collateralLiquidated",
          "type": "uint256"
        },
        {
          "indexed": false,
          "internalType": "uint256",
          "name": "lastCollateralRatio",
          "type": "uint256"
        },
        {
          "indexed": false,
          "internalType": "uint256",
          "name": "lastDebtOutstanding",
          "type": "uint256"
        }
      ],
      "name": "Liquidation",
      "type": "event"
    },
    {
      "anonymous": false,
      "inputs": [
        {
          "indexed": true,
          "internalType": "address",
          "name": "previousOwner",
          "type": "address"
        },
        {
          "indexed": true,
          "internalType": "address",
          "name": "newOwner",
          "type": "address"
        }
      ],
      "name": "OwnershipTransferred",
      "type": "event"
    },
    {
      "anonymous": false,
      "inputs": [
        {
          "indexed": true,
          "internalType": "address",
          "name": "account",
          "type": "address"
        },
        {
          "indexed": false,
          "internalType": "uint256",
          "name": "debtRepaid",
          "type": "uint256"
        },
        {
          "indexed": false,
          "internalType": "uint256",
          "name": "debtRemaining",
          "type": "uint256"
        },
        {
          "indexed": false,
          "internalType": "uint256",
          "name": "collateralAmount",
          "type": "uint256"
        }
      ],
      "name": "Repay",
      "type": "event"
    },
    {
      "anonymous": false,
      "inputs": [
        {
          "indexed": true,
          "internalType": "address",
          "name": "account",
          "type": "address"
        },
        {
          "indexed": false,
          "internalType": "uint256",
          "name": "amount",
          "type": "uint256"
        }
      ],
      "name": "Withdraw",
      "type": "event"
    },
    {
      "inputs": [],
      "name": "SCALING_FACTOR",
      "outputs": [
        {
          "internalType": "uint256",
          "name": "",
          "type": "uint256"
        }
      ],
      "stateMutability": "view",
      "type": "function"
    },
    {
      "inputs": [],
      "name": "SECONDS_IN_YEAR",
      "outputs": [
        {
          "internalType": "int128",
          "name": "",
          "type": "int128"
        }
      ],
      "stateMutability": "view",
      "type": "function"
    },
    {
      "inputs": [
        {
          "internalType": "uint256",
          "name": "_amount",
          "type": "uint256"
        }
      ],
      "name": "borrow",
      "outputs": [],
      "stateMutability": "nonpayable",
      "type": "function"
    },
    {
      "inputs": [],
      "name": "borrowThreshold",
      "outputs": [
        {
          "internalType": "uint256",
          "name": "",
          "type": "uint256"
        }
      ],
      "stateMutability": "view",
      "type": "function"
    },
    {
      "inputs": [
        {
          "internalType": "address",
          "name": "_account",
          "type": "address"
        }
      ],
      "name": "calcInterest",
      "outputs": [
        {
          "internalType": "uint256",
          "name": "interest",
          "type": "uint256"
        }
      ],
      "stateMutability": "view",
      "type": "function"
    },
    {
      "inputs": [
        {
          "internalType": "uint256",
          "name": "_amount",
          "type": "uint256"
        }
      ],
      "name": "deposit",
      "outputs": [],
      "stateMutability": "nonpayable",
      "type": "function"
    },
    {
      "inputs": [
        {
          "internalType": "address",
          "name": "_account",
          "type": "address"
        }
      ],
      "name": "getCurrentCollateralRatio",
      "outputs": [
        {
          "internalType": "uint256",
          "name": "",
          "type": "uint256"
        }
      ],
      "stateMutability": "view",
      "type": "function"
    },
    {
      "inputs": [
        {
          "internalType": "address",
          "name": "_account",
          "type": "address"
        },
        {
          "internalType": "uint256",
          "name": "_totalDebt",
          "type": "uint256"
        }
      ],
      "name": "getForwardCollateralRatio",
      "outputs": [
        {
          "internalType": "uint256",
          "name": "",
          "type": "uint256"
        }
      ],
      "stateMutability": "view",
      "type": "function"
    },
    {
      "inputs": [],
      "name": "interestRate",
      "outputs": [
        {
          "internalType": "uint256",
          "name": "",
          "type": "uint256"
        }
      ],
      "stateMutability": "view",
      "type": "function"
    },
    {
      "inputs": [
        {
          "internalType": "address",
          "name": "_account",
          "type": "address"
        }
      ],
      "name": "liquidate",
      "outputs": [],
      "stateMutability": "nonpayable",
      "type": "function"
    },
    {
      "inputs": [],
      "name": "liquidationFee",
      "outputs": [
        {
          "internalType": "uint256",
          "name": "",
          "type": "uint256"
        }
      ],
      "stateMutability": "view",
      "type": "function"
    },
    {
      "inputs": [],
      "name": "liquidationThreshold",
      "outputs": [
        {
          "internalType": "uint256",
          "name": "",
          "type": "uint256"
        }
      ],
      "stateMutability": "view",
      "type": "function"
    },
    {
      "inputs": [],
      "name": "liquidatorFeeShare",
      "outputs": [
        {
          "internalType": "uint256",
          "name": "",
          "type": "uint256"
        }
      ],
      "stateMutability": "view",
      "type": "function"
    },
    {
      "inputs": [],
      "name": "owner",
      "outputs": [
        {
          "internalType": "address",
          "name": "",
          "type": "address"
        }
      ],
      "stateMutability": "view",
      "type": "function"
    },
    {
      "inputs": [],
      "name": "protocolShortfall",
      "outputs": [
        {
          "internalType": "uint256",
          "name": "",
          "type": "uint256"
        }
      ],
      "stateMutability": "view",
      "type": "function"
    },
    {
      "inputs": [],
      "name": "renounceOwnership",
      "outputs": [],
      "stateMutability": "nonpayable",
      "type": "function"
    },
    {
      "inputs": [
        {
          "internalType": "uint256",
          "name": "_amount",
          "type": "uint256"
        }
      ],
      "name": "repay",
      "outputs": [],
      "stateMutability": "nonpayable",
      "type": "function"
    },
    {
      "inputs": [
        {
          "internalType": "uint256",
          "name": "_liqTotalFee",
          "type": "uint256"
        },
        {
          "internalType": "uint256",
          "name": "_liqFeeShare",
          "type": "uint256"
        },
        {
          "internalType": "uint256",
          "name": "_interestRate",
          "type": "uint256"
        }
      ],
      "name": "setFeesAndRates",
      "outputs": [],
      "stateMutability": "nonpayable",
      "type": "function"
    },
    {
      "inputs": [
        {
          "internalType": "uint256",
          "name": "_borrowThreshold",
          "type": "uint256"
        },
        {
          "internalType": "uint256",
          "name": "_liqThreshold",
          "type": "uint256"
        }
      ],
      "name": "setThresholds",
      "outputs": [],
      "stateMutability": "nonpayable",
      "type": "function"
    },
    {
      "inputs": [
        {
          "internalType": "address",
          "name": "_newAddress",
          "type": "address"
        }
      ],
      "name": "setUSDZAddress",
      "outputs": [],
      "stateMutability": "nonpayable",
      "type": "function"
    },
    {
      "inputs": [
        {
          "internalType": "address",
          "name": "_newAddress",
          "type": "address"
        }
      ],
      "name": "setXSUSHIAddress",
      "outputs": [],
      "stateMutability": "nonpayable",
      "type": "function"
    },
    {
      "inputs": [],
      "name": "sushiRouterAddress",
      "outputs": [
        {
          "internalType": "address",
          "name": "",
          "type": "address"
        }
      ],
      "stateMutability": "view",
      "type": "function"
    },
    {
      "inputs": [
        {
          "internalType": "address",
          "name": "newOwner",
          "type": "address"
        }
      ],
      "name": "transferOwnership",
      "outputs": [],
      "stateMutability": "nonpayable",
      "type": "function"
    },
    {
      "inputs": [],
      "name": "usdcAddress",
      "outputs": [
        {
          "internalType": "address",
          "name": "",
          "type": "address"
        }
      ],
      "stateMutability": "view",
      "type": "function"
    },
    {
      "inputs": [],
      "name": "usdzAddress",
      "outputs": [
        {
          "internalType": "address",
          "name": "",
          "type": "address"
        }
      ],
      "stateMutability": "view",
      "type": "function"
    },
    {
      "inputs": [
        {
          "internalType": "uint256",
          "name": "_amount",
          "type": "uint256"
        }
      ],
      "name": "withdraw",
      "outputs": [],
      "stateMutability": "nonpayable",
      "type": "function"
    },
    {
      "inputs": [],
      "name": "xSushiAddress",
      "outputs": [
        {
          "internalType": "address",
          "name": "",
          "type": "address"
        }
      ],
      "stateMutability": "view",
      "type": "function"
    },
    {
      "inputs": [
        {
          "internalType": "uint256",
          "name": "",
          "type": "uint256"
        }
      ],
      "name": "xSushiToUsdcPath",
      "outputs": [
        {
          "internalType": "address",
          "name": "",
          "type": "address"
        }
      ],
      "stateMutability": "view",
      "type": "function"
    }
  ],
  "bytecode": "0x60806040523480156200001157600080fd5b50604051620040c6380380620040c683398181016040528101906200003791906200050e565b6000620000496200040660201b60201c565b9050806000806101000a81548173ffffffffffffffffffffffffffffffffffffffff021916908373ffffffffffffffffffffffffffffffffffffffff1602179055508073ffffffffffffffffffffffffffffffffffffffff16600073ffffffffffffffffffffffffffffffffffffffff167f8be0079c531659141344cd1fd0a4f28419497f9722a3daafe3b4186f6b6457e060405160405180910390a35088600360006101000a81548173ffffffffffffffffffffffffffffffffffffffff021916908373ffffffffffffffffffffffffffffffffffffffff16021790555087600460006101000a81548173ffffffffffffffffffffffffffffffffffffffff021916908373ffffffffffffffffffffffffffffffffffffffff16021790555086600560006101000a81548173ffffffffffffffffffffffffffffffffffffffff021916908373ffffffffffffffffffffffffffffffffffffffff16021790555085600660006101000a81548173ffffffffffffffffffffffffffffffffffffffff021916908373ffffffffffffffffffffffffffffffffffffffff160217905550846008819055508360098190555082600a8190555081600b8190555080600c81905550600267ffffffffffffffff81111562000250577f4e487b7100000000000000000000000000000000000000000000000000000000600052604160045260246000fd5b6040519080825280602002602001820160405280156200027f5781602001602082028036833780820191505090505b50600790805190602001906200029792919062000432565b50866007600081548110620002d5577f4e487b7100000000000000000000000000000000000000000000000000000000600052603260045260246000fd5b9060005260206000200160006101000a81548173ffffffffffffffffffffffffffffffffffffffff021916908373ffffffffffffffffffffffffffffffffffffffff1602179055508760076001815481106200035a577f4e487b7100000000000000000000000000000000000000000000000000000000600052603260045260246000fd5b9060005260206000200160006101000a81548173ffffffffffffffffffffffffffffffffffffffff021916908373ffffffffffffffffffffffffffffffffffffffff160217905550620003bc6301e185586200040e60201b62001aff1760201c565b600d60006101000a8154816fffffffffffffffffffffffffffffffff0219169083600f0b6fffffffffffffffffffffffffffffffff16021790555050505050505050505062000659565b600033905090565b6000677fffffffffffffff8211156200042657600080fd5b604082901b9050919050565b828054828255906000526020600020908101928215620004ae579160200282015b82811115620004ad5782518260006101000a81548173ffffffffffffffffffffffffffffffffffffffff021916908373ffffffffffffffffffffffffffffffffffffffff1602179055509160200191906001019062000453565b5b509050620004bd9190620004c1565b5090565b5b80821115620004dc576000816000905550600101620004c2565b5090565b600081519050620004f18162000625565b92915050565b60008151905062000508816200063f565b92915050565b60008060008060008060008060006101208a8c0312156200052e57600080fd5b60006200053e8c828d01620004e0565b9950506020620005518c828d01620004e0565b9850506040620005648c828d01620004e0565b9750506060620005778c828d01620004e0565b96505060806200058a8c828d01620004f7565b95505060a06200059d8c828d01620004f7565b94505060c0620005b08c828d01620004f7565b93505060e0620005c38c828d01620004f7565b925050610100620005d78c828d01620004f7565b9150509295985092959850929598565b6000620005f482620005fb565b9050919050565b600073ffffffffffffffffffffffffffffffffffffffff82169050919050565b6000819050919050565b6200063081620005e7565b81146200063c57600080fd5b50565b6200064a816200061b565b81146200065657600080fd5b50565b613a5d80620006696000396000f3fe608060405234801561001057600080fd5b50600436106101c45760003560e01c80637c3a00fd116100f9578063bdfccad311610097578063daf5539e11610071578063daf5539e146104ab578063e3064a77146104db578063ef4cadc5146104f7578063f2fde38b14610515576101c4565b8063bdfccad314610455578063bfaf48d414610473578063c5ebeaec1461048f576101c4565b80638f6ba29a116100d35780638f6ba29a146103e1578063a36a3630146103fd578063af1f556f1461041b578063b6b55f2514610439576101c4565b80637c3a00fd146103895780638456b755146103a75780638da5cb5b146103c3576101c4565b8063540548081161016657806369cb89c71161014057806369cb89c7146103015780637046b7a914610331578063715018a61461036157806379bbce8f1461036b576101c4565b806354054808146102a75780635ae547e3146102c55780635dcc9391146102e3576101c4565b80632f865568116101a25780632f86556814610221578063371fd8e61461023d5780634031234c146102595780634a63a5ce14610277576101c4565b806302d45457146101c957806320bdf800146101e75780632e1a7d4d14610205575b600080fd5b6101d1610531565b6040516101de9190613344565b60405180910390f35b6101ef610557565b6040516101fc9190613344565b60405180910390f35b61021f600480360381019061021a9190612c8a565b61057d565b005b61023b60048036038101906102369190612bbb565b610932565b005b61025760048036038101906102529190612c8a565b6109a0565b005b610261610ae7565b60405161026e9190613651565b60405180910390f35b610291600480360381019061028c9190612c8a565b610aed565b60405161029e9190613344565b60405180910390f35b6102af610b2c565b6040516102bc9190613651565b60405180910390f35b6102cd610b32565b6040516102da9190613651565b60405180910390f35b6102eb610b38565b6040516102f891906133bf565b60405180910390f35b61031b60048036038101906103169190612bbb565b610b4b565b6040516103289190613651565b60405180910390f35b61034b60048036038101906103469190612be4565b610dba565b6040516103589190613651565b60405180910390f35b610369610dce565b005b610373610f08565b6040516103809190613344565b60405180910390f35b610391610f2e565b60405161039e9190613651565b60405180910390f35b6103c160048036038101906103bc9190612bbb565b610f34565b005b6103cb611064565b6040516103d89190613344565b60405180910390f35b6103fb60048036038101906103f69190612bbb565b61108d565b005b6104056111bd565b6040516104129190613651565b60405180910390f35b6104236111c3565b6040516104309190613651565b60405180910390f35b610453600480360381019061044e9190612c8a565b6111c9565b005b61045d6113aa565b60405161046a9190613344565b60405180910390f35b61048d60048036038101906104889190612cef565b6113d0565b005b6104a960048036038101906104a49190612c8a565b611568565b005b6104c560048036038101906104c09190612bbb565b6117e3565b6040516104d29190613651565b60405180910390f35b6104f560048036038101906104f09190612cb3565b611838565b005b6104ff611950565b60405161050c9190613651565b60405180910390f35b61052f600480360381019061052a9190612bbb565b611956565b005b600460009054906101000a900473ffffffffffffffffffffffffffffffffffffffff1681565b600360009054906101000a900473ffffffffffffffffffffffffffffffffffffffff1681565b6000600160003373ffffffffffffffffffffffffffffffffffffffff1673ffffffffffffffffffffffffffffffffffffffff16815260200190815260200160002060000154905081811015610607576040517f08c379a00000000000000000000000000000000000000000000000000000000081526004016105fe90613631565b60405180910390fd5b600061061233610b4b565b905080600160003373ffffffffffffffffffffffffffffffffffffffff1673ffffffffffffffffffffffffffffffffffffffff1681526020019081526020016000206001016000828254610666919061377f565b9250508190555042600160003373ffffffffffffffffffffffffffffffffffffffff1673ffffffffffffffffffffffffffffffffffffffff1681526020019081526020016000206002018190555060006106bf336117e3565b9050600b548111610705576040517f08c379a00000000000000000000000000000000000000000000000000000000081526004016106fc90613511565b60405180910390fd5b6000837fffffffffffffffffffffffffffffffffffffffffffffffffffffffffffffffff612710600b5461073991906137d5565b846107449190613860565b61074e91906137d5565b6107589190613806565b90508481101561079d576040517f08c379a000000000000000000000000000000000000000000000000000000000815260040161079490613491565b60405180910390fd5b84846107a99190613860565b600160003373ffffffffffffffffffffffffffffffffffffffff1673ffffffffffffffffffffffffffffffffffffffff16815260200190815260200160002060000181905550600560009054906101000a900473ffffffffffffffffffffffffffffffffffffffff1673ffffffffffffffffffffffffffffffffffffffff1663a9059cbb33876040518363ffffffff1660e01b815260040161084c929190613396565b602060405180830381600087803b15801561086657600080fd5b505af115801561087a573d6000803e3d6000fd5b505050506040513d601f19601f8201168201806040525081019061089e9190612c61565b6108dd576040517f08c379a00000000000000000000000000000000000000000000000000000000081526004016108d4906134b1565b60405180910390fd5b3373ffffffffffffffffffffffffffffffffffffffff167f884edad9ce6fa2440d8a54cc123490eb96d2768479d49ff9c7366125a9424364866040516109239190613651565b60405180910390a25050505050565b3373ffffffffffffffffffffffffffffffffffffffff168173ffffffffffffffffffffffffffffffffffffffff167f5a821a618ddb1a1fd304234a69c9d7f20c129d122fcf35593d13a071926643076000806000604051610995939291906133da565b60405180910390a350565b600081116109e3576040517f08c379a00000000000000000000000000000000000000000000000000000000081526004016109da90613591565b60405180910390fd5b6000600160003373ffffffffffffffffffffffffffffffffffffffff1673ffffffffffffffffffffffffffffffffffffffff1681526020019081526020016000209050610a2f33610b4b565b816001016000828254610a42919061377f565b925050819055504281600201819055508181600101541115610a7e5781816001016000828254610a729190613860565b92505081905550610a89565b600081600101819055505b3373ffffffffffffffffffffffffffffffffffffffff167f2fe77b1c99aca6b022b8efc6e3e8dd1b48b30748709339b65c50ef3263443e098383600101548460000154604051610adb9392919061369c565b60405180910390a25050565b600c5481565b60078181548110610afd57600080fd5b906000526020600020016000915054906101000a900473ffffffffffffffffffffffffffffffffffffffff1681565b60095481565b600b5481565b600d60009054906101000a9004600f0b81565b600080600160008473ffffffffffffffffffffffffffffffffffffffff1673ffffffffffffffffffffffffffffffffffffffff168152602001908152602001600020600101541480610bdf57506000600160008473ffffffffffffffffffffffffffffffffffffffff1673ffffffffffffffffffffffffffffffffffffffff16815260200190815260200160002060020154145b80610bec57506000600a54145b80610c385750600160008373ffffffffffffffffffffffffffffffffffffffff1673ffffffffffffffffffffffffffffffffffffffff1681526020019081526020016000206002015442145b15610c465760009050610db5565b6000600160008473ffffffffffffffffffffffffffffffffffffffff1673ffffffffffffffffffffffffffffffffffffffff1681526020019081526020016000206002015442610c969190613860565b90506000610cbb610ca683611aff565b600d60009054906101000a9004600f0b611b22565b90506000610cdd610ccd600a54611aff565b610cd8612710611aff565b611b22565b90506000610d2c600160008873ffffffffffffffffffffffffffffffffffffffff1673ffffffffffffffffffffffffffffffffffffffff16815260200190815260200160002060010154611aff565b90506000610d53610d4e83610d49610d448789611bd2565b611c3d565b611bd2565b611cb6565b9050600160008873ffffffffffffffffffffffffffffffffffffffff1673ffffffffffffffffffffffffffffffffffffffff168152602001908152602001600020600101548167ffffffffffffffff16610dad9190613860565b955050505050505b919050565b6000610dc68383611cd7565b905092915050565b610dd6611ec9565b73ffffffffffffffffffffffffffffffffffffffff16610df4611064565b73ffffffffffffffffffffffffffffffffffffffff1614610e4a576040517f08c379a0000000000000000000000000000000000000000000000000000000008152600401610e4190613551565b60405180910390fd5b600073ffffffffffffffffffffffffffffffffffffffff1660008054906101000a900473ffffffffffffffffffffffffffffffffffffffff1673ffffffffffffffffffffffffffffffffffffffff167f8be0079c531659141344cd1fd0a4f28419497f9722a3daafe3b4186f6b6457e060405160405180910390a360008060006101000a81548173ffffffffffffffffffffffffffffffffffffffff021916908373ffffffffffffffffffffffffffffffffffffffff160217905550565b600660009054906101000a900473ffffffffffffffffffffffffffffffffffffffff1681565b600a5481565b610f3c611ec9565b73ffffffffffffffffffffffffffffffffffffffff16610f5a611064565b73ffffffffffffffffffffffffffffffffffffffff1614610fb0576040517f08c379a0000000000000000000000000000000000000000000000000000000008152600401610fa790613551565b60405180910390fd5b600073ffffffffffffffffffffffffffffffffffffffff168173ffffffffffffffffffffffffffffffffffffffff161415611020576040517f08c379a0000000000000000000000000000000000000000000000000000000008152600401611017906134d1565b60405180910390fd5b80600560006101000a81548173ffffffffffffffffffffffffffffffffffffffff021916908373ffffffffffffffffffffffffffffffffffffffff16021790555050565b60008060009054906101000a900473ffffffffffffffffffffffffffffffffffffffff16905090565b611095611ec9565b73ffffffffffffffffffffffffffffffffffffffff166110b3611064565b73ffffffffffffffffffffffffffffffffffffffff1614611109576040517f08c379a000000000000000000000000000000000000000000000000000000000815260040161110090613551565b60405180910390fd5b600073ffffffffffffffffffffffffffffffffffffffff168173ffffffffffffffffffffffffffffffffffffffff161415611179576040517f08c379a000000000000000000000000000000000000000000000000000000000815260040161117090613531565b60405180910390fd5b80600360006101000a81548173ffffffffffffffffffffffffffffffffffffffff021916908373ffffffffffffffffffffffffffffffffffffffff16021790555050565b60085481565b60025481565b6000600560009054906101000a900473ffffffffffffffffffffffffffffffffffffffff1690508073ffffffffffffffffffffffffffffffffffffffff166323b872dd3330856040518463ffffffff1660e01b815260040161122d9392919061335f565b602060405180830381600087803b15801561124757600080fd5b505af115801561125b573d6000803e3d6000fd5b505050506040513d601f19601f8201168201806040525081019061127f9190612c61565b6112be576040517f08c379a00000000000000000000000000000000000000000000000000000000081526004016112b5906135d1565b60405180910390fd5b6000600160003373ffffffffffffffffffffffffffffffffffffffff1673ffffffffffffffffffffffffffffffffffffffff1681526020019081526020016000206000015490508281611311919061377f565b600160003373ffffffffffffffffffffffffffffffffffffffff1673ffffffffffffffffffffffffffffffffffffffff168152602001908152602001600020600001819055503373ffffffffffffffffffffffffffffffffffffffff167fe1fffcc4923d04b559f4d29a8bfc6cda04eb5b0d3c460751c2402c5c5cc9109c8460405161139d9190613651565b60405180910390a2505050565b600560009054906101000a900473ffffffffffffffffffffffffffffffffffffffff1681565b6113d8611ec9565b73ffffffffffffffffffffffffffffffffffffffff166113f6611064565b73ffffffffffffffffffffffffffffffffffffffff161461144c576040517f08c379a000000000000000000000000000000000000000000000000000000000815260040161144390613551565b60405180910390fd5b612710831115801561145f575060008310155b61149e576040517f08c379a000000000000000000000000000000000000000000000000000000000815260040161149590613571565b60405180910390fd5b61271082111580156114b1575060008210155b80156114bd5750828211155b6114fc576040517f08c379a00000000000000000000000000000000000000000000000000000000081526004016114f390613451565b60405180910390fd5b8260088190555081600981905550612710811115801561151d575060008110155b61155c576040517f08c379a0000000000000000000000000000000000000000000000000000000008152600401611553906135f1565b60405180910390fd5b80600a81905550505050565b600081116115ab576040517f08c379a00000000000000000000000000000000000000000000000000000000081526004016115a290613471565b60405180910390fd5b60006115b633610b4b565b9050600b5461161d338484600160003373ffffffffffffffffffffffffffffffffffffffff1673ffffffffffffffffffffffffffffffffffffffff1681526020019081526020016000206001015461160e919061377f565b611618919061377f565b610dba565b101561165e576040517f08c379a000000000000000000000000000000000000000000000000000000000815260040161165590613411565b60405180910390fd5b808261166a919061377f565b600160003373ffffffffffffffffffffffffffffffffffffffff1673ffffffffffffffffffffffffffffffffffffffff16815260200190815260200160002060010160008282546116bb919061377f565b9250508190555042600160003373ffffffffffffffffffffffffffffffffffffffff1673ffffffffffffffffffffffffffffffffffffffff168152602001908152602001600020600201819055503373ffffffffffffffffffffffffffffffffffffffff167f13ed6866d4e1ee6da46f845c46d7e54120883d75c5ea9a2dacc1c4ca8984ab8083600160003373ffffffffffffffffffffffffffffffffffffffff1673ffffffffffffffffffffffffffffffffffffffff16815260200190815260200160002060010154600160003373ffffffffffffffffffffffffffffffffffffffff1673ffffffffffffffffffffffffffffffffffffffff168152602001908152602001600020600001546040516117d79392919061369c565b60405180910390a25050565b600061183182600160008573ffffffffffffffffffffffffffffffffffffffff1673ffffffffffffffffffffffffffffffffffffffff16815260200190815260200160002060010154611cd7565b9050919050565b611840611ec9565b73ffffffffffffffffffffffffffffffffffffffff1661185e611064565b73ffffffffffffffffffffffffffffffffffffffff16146118b4576040517f08c379a00000000000000000000000000000000000000000000000000000000081526004016118ab90613551565b60405180910390fd5b6127108210156118f9576040517f08c379a00000000000000000000000000000000000000000000000000000000081526004016118f0906134f1565b60405180910390fd5b61271081101561193e576040517f08c379a000000000000000000000000000000000000000000000000000000000815260040161193590613611565b60405180910390fd5b81600b8190555080600c819055505050565b61271081565b61195e611ec9565b73ffffffffffffffffffffffffffffffffffffffff1661197c611064565b73ffffffffffffffffffffffffffffffffffffffff16146119d2576040517f08c379a00000000000000000000000000000000000000000000000000000000081526004016119c990613551565b60405180910390fd5b600073ffffffffffffffffffffffffffffffffffffffff168173ffffffffffffffffffffffffffffffffffffffff161415611a42576040517f08c379a0000000000000000000000000000000000000000000000000000000008152600401611a3990613431565b60405180910390fd5b8073ffffffffffffffffffffffffffffffffffffffff1660008054906101000a900473ffffffffffffffffffffffffffffffffffffffff1673ffffffffffffffffffffffffffffffffffffffff167f8be0079c531659141344cd1fd0a4f28419497f9722a3daafe3b4186f6b6457e060405160405180910390a3806000806101000a81548173ffffffffffffffffffffffffffffffffffffffff021916908373ffffffffffffffffffffffffffffffffffffffff16021790555050565b6000677fffffffffffffff821115611b1657600080fd5b604082901b9050919050565b60008082600f0b1415611b3457600080fd5b600082600f0b604085600f0b901b81611b76577f4e487b7100000000000000000000000000000000000000000000000000000000600052601260045260246000fd5b0590507fffffffffffffffffffffffffffffffff80000000000000000000000000000000600f0b8112158015611bbf57506f7fffffffffffffffffffffffffffffff600f0b8113155b611bc857600080fd5b8091505092915050565b600080604083600f0b85600f0b02901d90507fffffffffffffffffffffffffffffffff80000000000000000000000000000000600f0b8112158015611c2a57506f7fffffffffffffffffffffffffffffff600f0b8113155b611c3357600080fd5b8091505092915050565b60006840000000000000000082600f0b12611c5757600080fd5b7fffffffffffffffffffffffffffffffffffffffffffffffc0000000000000000082600f0b1215611c8b5760009050611cb1565b611cae6080700171547652b82fe1777d0ffda0d23a7d1284600f0b02901d611ed1565b90505b919050565b60008082600f0b1215611cc857600080fd5b604082600f0b901d9050919050565b600080600160008573ffffffffffffffffffffffffffffffffffffffff1673ffffffffffffffffffffffffffffffffffffffff1681526020019081526020016000206000015490506000811415611d32576000915050611ec3565b6000831415611d64577fffffffffffffffffffffffffffffffffffffffffffffffffffffffffffffffff915050611ec3565b60008111611da7576040517f08c379a0000000000000000000000000000000000000000000000000000000008152600401611d9e906135b1565b60405180910390fd5b6000600660009054906101000a900473ffffffffffffffffffffffffffffffffffffffff16905060008173ffffffffffffffffffffffffffffffffffffffff1663d06ca61f8460076040518363ffffffff1660e01b8152600401611e0c92919061366c565b60006040518083038186803b158015611e2457600080fd5b505afa158015611e38573d6000803e3d6000fd5b505050506040513d6000823e3d601f19601f82011682018060405250810190611e619190612c20565b600181518110611e9a577f4e487b7100000000000000000000000000000000000000000000000000000000600052603260045260246000fd5b602002602001015190508461271082611eb39190613806565b611ebd91906137d5565b93505050505b92915050565b600033905090565b60006840000000000000000082600f0b12611eeb57600080fd5b7fffffffffffffffffffffffffffffffffffffffffffffffc0000000000000000082600f0b1215611f1f5760009050612acc565b60006f80000000000000000000000000000000905060006780000000000000008416600f0b1315611f6557608070016a09e667f3bcc908b2fb1366ea957d3e8202901c90505b60006740000000000000008416600f0b1315611f965760807001306fe0a31b7152de8d5a46305c85edec8202901c90505b60006720000000000000008416600f0b1315611fc75760807001172b83c7d517adcdf7c8c50eb14a791f8202901c90505b60006710000000000000008416600f0b1315611ff857608070010b5586cf9890f6298b92b71842a983638202901c90505b60006708000000000000008416600f0b13156120295760807001059b0d31585743ae7c548eb68ca417fd8202901c90505b60006704000000000000008416600f0b131561205a576080700102c9a3e778060ee6f7caca4f7a29bde88202901c90505b60006702000000000000008416600f0b131561208b57608070010163da9fb33356d84a66ae336dcdfa3f8202901c90505b60006701000000000000008416600f0b13156120bc576080700100b1afa5abcbed6129ab13ec11dc95438202901c90505b600066800000000000008416600f0b13156120ec57608070010058c86da1c09ea1ff19d294cf2f679b8202901c90505b600066400000000000008416600f0b131561211c5760807001002c605e2e8cec506d21bfc89a23a00f8202901c90505b600066200000000000008416600f0b131561214c576080700100162f3904051fa128bca9c55c31e5df8202901c90505b600066100000000000008416600f0b131561217c5760807001000b175effdc76ba38e31671ca9397258202901c90505b600066080000000000008416600f0b13156121ac576080700100058ba01fb9f96d6cacd4b180917c3d8202901c90505b600066040000000000008416600f0b13156121dc57608070010002c5cc37da9491d0985c348c68e7b38202901c90505b600066020000000000008416600f0b131561220c5760807001000162e525ee054754457d59952920268202901c90505b600066010000000000008416600f0b131561223c57608070010000b17255775c040618bf4a4ade83fc8202901c90505b6000658000000000008416600f0b131561226b5760807001000058b91b5bc9ae2eed81e9b7d4cfab8202901c90505b6000654000000000008416600f0b131561229a576080700100002c5c89d5ec6ca4d7c8acc017b7c98202901c90505b6000652000000000008416600f0b13156122c957608070010000162e43f4f831060e02d839a9d16d8202901c90505b6000651000000000008416600f0b13156122f8576080700100000b1721bcfc99d9f890ea069117638202901c90505b6000650800000000008416600f0b131561232757608070010000058b90cf1e6d97f9ca14dbcc16288202901c90505b6000650400000000008416600f0b13156123565760807001000002c5c863b73f016468f6bac5ca2b8202901c90505b6000650200000000008416600f0b1315612385576080700100000162e430e5a18f6119e3c02282a58202901c90505b6000650100000000008416600f0b13156123b45760807001000000b1721835514b86e6d96efd1bfe8202901c90505b60006480000000008416600f0b13156123e2576080700100000058b90c0b48c6be5df846c5b2ef8202901c90505b60006440000000008416600f0b131561241057608070010000002c5c8601cc6b9e94213c72737a8202901c90505b60006420000000008416600f0b131561243e5760807001000000162e42fff037df38aa2b219f068202901c90505b60006410000000008416600f0b131561246c57608070010000000b17217fba9c739aa5819f44f98202901c90505b60006408000000008416600f0b131561249a5760807001000000058b90bfcdee5acd3c1cedc8238202901c90505b60006404000000008416600f0b13156124c8576080700100000002c5c85fe31f35a6a30da1be508202901c90505b60006402000000008416600f0b13156124f657608070010000000162e42ff0999ce3541b9fffcf8202901c90505b60006401000000008416600f0b1315612524576080700100000000b17217f80f4ef5aadda455548202901c90505b600063800000008416600f0b131561255157608070010000000058b90bfbf8479bd5a81b51ad8202901c90505b600063400000008416600f0b131561257e5760807001000000002c5c85fdf84bd62ae30a74cc8202901c90505b600063200000008416600f0b13156125ab576080700100000000162e42fefb2fed257559bdaa8202901c90505b600063100000008416600f0b13156125d85760807001000000000b17217f7d5a7716bba4a9ae8202901c90505b600063080000008416600f0b1315612605576080700100000000058b90bfbe9ddbac5e109cce8202901c90505b600063040000008416600f0b131561263257608070010000000002c5c85fdf4b15de6f17eb0d8202901c90505b600063020000008416600f0b131561265f5760807001000000000162e42fefa494f1478fde058202901c90505b600063010000008416600f0b131561268c57608070010000000000b17217f7d20cf927c8e94c8202901c90505b6000628000008416600f0b13156126b85760807001000000000058b90bfbe8f71cb4e4b33d8202901c90505b6000624000008416600f0b13156126e4576080700100000000002c5c85fdf477b662b269458202901c90505b6000622000008416600f0b131561271057608070010000000000162e42fefa3ae53369388c8202901c90505b6000621000008416600f0b131561273c576080700100000000000b17217f7d1d351a389d408202901c90505b6000620800008416600f0b131561276857608070010000000000058b90bfbe8e8b2d3d4ede8202901c90505b6000620400008416600f0b13156127945760807001000000000002c5c85fdf4741bea6e77e8202901c90505b6000620200008416600f0b13156127c0576080700100000000000162e42fefa39fe95583c28202901c90505b6000620100008416600f0b13156127ec5760807001000000000000b17217f7d1cfb72b45e18202901c90505b60006180008416600f0b1315612817576080700100000000000058b90bfbe8e7cc35c3f08202901c90505b60006140008416600f0b131561284257608070010000000000002c5c85fdf473e242ea388202901c90505b60006120008416600f0b131561286d5760807001000000000000162e42fefa39f02b772c8202901c90505b60006110008416600f0b131561289857608070010000000000000b17217f7d1cf7d83c1a8202901c90505b60006108008416600f0b13156128c35760807001000000000000058b90bfbe8e7bdcbe2e8202901c90505b60006104008416600f0b13156128ee576080700100000000000002c5c85fdf473dea871f8202901c90505b60006102008416600f0b131561291957608070010000000000000162e42fefa39ef44d918202901c90505b60006101008416600f0b1315612944576080700100000000000000b17217f7d1cf79e9498202901c90505b600060808416600f0b131561296e57608070010000000000000058b90bfbe8e7bce5448202901c90505b600060408416600f0b13156129985760807001000000000000002c5c85fdf473de6eca8202901c90505b600060208416600f0b13156129c2576080700100000000000000162e42fefa39ef366f8202901c90505b600060108416600f0b13156129ec5760807001000000000000000b17217f7d1cf79afa8202901c90505b600060088416600f0b1315612a16576080700100000000000000058b90bfbe8e7bcd6d8202901c90505b600060048416600f0b1315612a4057608070010000000000000002c5c85fdf473de6b28202901c90505b600060028416600f0b1315612a6a5760807001000000000000000162e42fefa39ef3588202901c90505b600060018416600f0b1315612a9457608070010000000000000000b17217f7d1cf79ab8202901c90505b604083600f0b901d603f03600f0b81901c90506f7fffffffffffffffffffffffffffffff600f0b811115612ac757600080fd5b809150505b919050565b6000612ae4612adf84613704565b6136d3565b90508083825260208201905082856020860282011115612b0357600080fd5b60005b85811015612b335781612b198882612ba6565b845260208401935060208301925050600181019050612b06565b5050509392505050565b600081359050612b4c816139e2565b92915050565b600082601f830112612b6357600080fd5b8151612b73848260208601612ad1565b91505092915050565b600081519050612b8b816139f9565b92915050565b600081359050612ba081613a10565b92915050565b600081519050612bb581613a10565b92915050565b600060208284031215612bcd57600080fd5b6000612bdb84828501612b3d565b91505092915050565b60008060408385031215612bf757600080fd5b6000612c0585828601612b3d565b9250506020612c1685828601612b91565b9150509250929050565b600060208284031215612c3257600080fd5b600082015167ffffffffffffffff811115612c4c57600080fd5b612c5884828501612b52565b91505092915050565b600060208284031215612c7357600080fd5b6000612c8184828501612b7c565b91505092915050565b600060208284031215612c9c57600080fd5b6000612caa84828501612b91565b91505092915050565b60008060408385031215612cc657600080fd5b6000612cd485828601612b91565b9250506020612ce585828601612b91565b9150509250929050565b600080600060608486031215612d0457600080fd5b6000612d1286828701612b91565b9350506020612d2386828701612b91565b9250506040612d3486828701612b91565b9150509250925092565b6000612d4a8383612d56565b60208301905092915050565b612d5f816138b4565b82525050565b612d6e816138b4565b82525050565b6000612d7f82613745565b612d89818561375d565b9350612d9483613730565b8060005b83811015612dcc57612da9826139c2565b612db38882612d3e565b9750612dbe83613750565b925050600181019050612d98565b5085935050505092915050565b612de2816138d2565b82525050565b612df181613909565b82525050565b6000612e0460298361376e565b91507f6e6f7420656e6f75676820636f6c6c61746572616c20746f20626f72726f772060008301527f74686174206d75636800000000000000000000000000000000000000000000006020830152604082019050919050565b6000612e6a60268361376e565b91507f4f776e61626c653a206e6577206f776e657220697320746865207a65726f206160008301527f64647265737300000000000000000000000000000000000000000000000000006020830152604082019050919050565b6000612ed060188361376e565b91507f6c69714665655368617265206f7574206f662072616e676500000000000000006000830152602082019050919050565b6000612f10600e8361376e565b91507f63616e277420626f72726f7720300000000000000000000000000000000000006000830152602082019050919050565b6000612f5060308361376e565b91507f7769746864726177206c657373206f6620636f6c6c61746572616c207261746960008301527f6f206265636f6d657320756e73616665000000000000000000000000000000006020830152604082019050919050565b6000612fb660188361376e565b91507f7769746864726177207472616e73666572206661696c656400000000000000006000830152602082019050919050565b6000612ff660208361376e565b91507f78535553484920636f6e7472616374206e6f74207a65726f20616464726573736000830152602082019050919050565b600061303660298361376e565b91507f626f72726f77207468726573686f6c64206d757374206265203e207363616c6960008301527f6e6720666163746f7200000000000000000000000000000000000000000000006020830152604082019050919050565b600061309c60278361376e565b91507f636f6c6c61746572616c20726174696f206973203c3d20626f72726f7720746860008301527f726573686f6c64000000000000000000000000000000000000000000000000006020830152604082019050919050565b6000613102601e8361376e565b91507f7573647a20636f6e7472616374206e6f74207a65726f206164647265737300006000830152602082019050919050565b600061314260208361376e565b91507f4f776e61626c653a2063616c6c6572206973206e6f7420746865206f776e65726000830152602082019050919050565b600061318260188361376e565b91507f6c6971546f74616c466565206f7574206f662072616e676500000000000000006000830152602082019050919050565b60006131c2600d8361376e565b91507f63616e27742072657061792030000000000000000000000000000000000000006000830152602082019050919050565b600061320260008361376e565b9150600082019050919050565b600061321c600e8361376e565b91507f6465706f736974206661696c65640000000000000000000000000000000000006000830152602082019050919050565b600061325c60198361376e565b91507f696e74657265737452617465206f7574206f662072616e6765000000000000006000830152602082019050919050565b600061329c60268361376e565b91507f6c6971207468726573686f6c64206d757374206265203e207363616c696e672060008301527f666163746f7200000000000000000000000000000000000000000000000000006020830152604082019050919050565b600061330260208361376e565b91507f6e6f7420656e6f75676820636f6c6c61746572616c20696e206163636f756e746000830152602082019050919050565b61333e816138ff565b82525050565b60006020820190506133596000830184612d65565b92915050565b60006060820190506133746000830186612d65565b6133816020830185612d65565b61338e6040830184613335565b949350505050565b60006040820190506133ab6000830185612d65565b6133b86020830184613335565b9392505050565b60006020820190506133d46000830184612dd9565b92915050565b60006060820190506133ef6000830186612de8565b6133fc6020830185612de8565b6134096040830184612de8565b949350505050565b6000602082019050818103600083015261342a81612df7565b9050919050565b6000602082019050818103600083015261344a81612e5d565b9050919050565b6000602082019050818103600083015261346a81612ec3565b9050919050565b6000602082019050818103600083015261348a81612f03565b9050919050565b600060208201905081810360008301526134aa81612f43565b9050919050565b600060208201905081810360008301526134ca81612fa9565b9050919050565b600060208201905081810360008301526134ea81612fe9565b9050919050565b6000602082019050818103600083015261350a81613029565b9050919050565b6000602082019050818103600083015261352a8161308f565b9050919050565b6000602082019050818103600083015261354a816130f5565b9050919050565b6000602082019050818103600083015261356a81613135565b9050919050565b6000602082019050818103600083015261358a81613175565b9050919050565b600060208201905081810360008301526135aa816131b5565b9050919050565b600060208201905081810360008301526135ca816131f5565b9050919050565b600060208201905081810360008301526135ea8161320f565b9050919050565b6000602082019050818103600083015261360a8161324f565b9050919050565b6000602082019050818103600083015261362a8161328f565b9050919050565b6000602082019050818103600083015261364a816132f5565b9050919050565b60006020820190506136666000830184613335565b92915050565b60006040820190506136816000830185613335565b81810360208301526136938184612d74565b90509392505050565b60006060820190506136b16000830186613335565b6136be6020830185613335565b6136cb6040830184613335565b949350505050565b6000604051905081810181811067ffffffffffffffff821117156136fa576136f9613993565b5b8060405250919050565b600067ffffffffffffffff82111561371f5761371e613993565b5b602082029050602081019050919050565b60008190508160005260206000209050919050565b600081549050919050565b6000600182019050919050565b600082825260208201905092915050565b600082825260208201905092915050565b600061378a826138ff565b9150613795836138ff565b9250827fffffffffffffffffffffffffffffffffffffffffffffffffffffffffffffffff038211156137ca576137c9613935565b5b828201905092915050565b60006137e0826138ff565b91506137eb836138ff565b9250826137fb576137fa613964565b5b828204905092915050565b6000613811826138ff565b915061381c836138ff565b9250817fffffffffffffffffffffffffffffffffffffffffffffffffffffffffffffffff048311821515161561385557613854613935565b5b828202905092915050565b600061386b826138ff565b9150613876836138ff565b92508282101561388957613888613935565b5b828203905092915050565b600073ffffffffffffffffffffffffffffffffffffffff82169050919050565b60006138bf826138df565b9050919050565b60008115159050919050565b600081600f0b9050919050565b600073ffffffffffffffffffffffffffffffffffffffff82169050919050565b6000819050919050565b6000613914826138ff565b9050919050565b600061392e613929836139d5565b613894565b9050919050565b7f4e487b7100000000000000000000000000000000000000000000000000000000600052601160045260246000fd5b7f4e487b7100000000000000000000000000000000000000000000000000000000600052601260045260246000fd5b7f4e487b7100000000000000000000000000000000000000000000000000000000600052604160045260246000fd5b60006139ce825461391b565b9050919050565b60008160001c9050919050565b6139eb816138b4565b81146139f657600080fd5b50565b613a02816138c6565b8114613a0d57600080fd5b50565b613a19816138ff565b8114613a2457600080fd5b5056fea2646970667358221220fcc64f9c9f5e92e9dfc55ed5f5e1e284a9de4ac6bcf3a4ea1314dcf7010ad34364736f6c63430008000033",
  "linkReferences": {},
  "deployedLinkReferences": {}
}