{
  "_format": "hh-sol-artifact-1",
  "contractName": "Controller",
  "sourceName": "contracts/Controller.sol",
  "abi": [
    {
      "inputs": [
        {
          "internalType": "address",
          "name": "_usdzAddress",
          "type": "address"
        },
        {
          "internalType": "address",
          "name": "_usdcAddress",
          "type": "address"
        },
        {
          "internalType": "address",
          "name": "_xSushiAddress",
          "type": "address"
        },
        {
          "internalType": "address",
          "name": "_routerAddress",
          "type": "address"
        },
        {
          "internalType": "uint256",
          "name": "_liqTotalFee",
          "type": "uint256"
        },
        {
          "internalType": "uint256",
          "name": "_liqFeeShare",
          "type": "uint256"
        },
        {
          "internalType": "uint256",
          "name": "_interestRate",
          "type": "uint256"
        },
        {
          "internalType": "uint256",
          "name": "_borrowThreshold",
          "type": "uint256"
        },
        {
          "internalType": "uint256",
          "name": "_liqThreshold",
          "type": "uint256"
        }
      ],
      "stateMutability": "nonpayable",
      "type": "constructor"
    },
    {
      "anonymous": false,
      "inputs": [
        {
          "indexed": true,
          "internalType": "address",
          "name": "account",
          "type": "address"
        },
        {
          "indexed": false,
          "internalType": "uint256",
          "name": "amountBorrowed",
          "type": "uint256"
        },
        {
          "indexed": false,
          "internalType": "uint256",
          "name": "collateral",
          "type": "uint256"
        },
        {
          "indexed": false,
          "internalType": "uint256",
          "name": "totalDebt",
          "type": "uint256"
        }
      ],
      "name": "Borrow",
      "type": "event"
    },
    {
      "anonymous": false,
      "inputs": [
        {
          "indexed": true,
          "internalType": "address",
          "name": "account",
          "type": "address"
        },
        {
          "indexed": false,
          "internalType": "uint256",
          "name": "amount",
          "type": "uint256"
        }
      ],
      "name": "Deposit",
      "type": "event"
    },
    {
      "anonymous": false,
      "inputs": [
        {
          "indexed": true,
          "internalType": "address",
          "name": "account",
          "type": "address"
        },
        {
          "indexed": true,
          "internalType": "address",
          "name": "liquidator",
          "type": "address"
        },
        {
          "indexed": false,
          "internalType": "uint256",
          "name": "collateralLiquidated",
          "type": "uint256"
        },
        {
          "indexed": false,
          "internalType": "uint256",
          "name": "lastCollateralRatio",
          "type": "uint256"
        },
        {
          "indexed": false,
          "internalType": "uint256",
          "name": "lastDebtOutstanding",
          "type": "uint256"
        }
      ],
      "name": "Liquidation",
      "type": "event"
    },
    {
      "anonymous": false,
      "inputs": [
        {
          "indexed": true,
          "internalType": "address",
          "name": "previousOwner",
          "type": "address"
        },
        {
          "indexed": true,
          "internalType": "address",
          "name": "newOwner",
          "type": "address"
        }
      ],
      "name": "OwnershipTransferred",
      "type": "event"
    },
    {
      "anonymous": false,
      "inputs": [
        {
          "indexed": true,
          "internalType": "address",
          "name": "account",
          "type": "address"
        },
        {
          "indexed": false,
          "internalType": "uint256",
          "name": "debtRepaid",
          "type": "uint256"
        },
        {
          "indexed": false,
          "internalType": "uint256",
          "name": "debtRemaining",
          "type": "uint256"
        },
        {
          "indexed": false,
          "internalType": "uint256",
          "name": "collateral",
          "type": "uint256"
        }
      ],
      "name": "Repay",
      "type": "event"
    },
    {
      "anonymous": false,
      "inputs": [
        {
          "indexed": true,
          "internalType": "address",
          "name": "account",
          "type": "address"
        },
        {
          "indexed": false,
          "internalType": "uint256",
          "name": "amount",
          "type": "uint256"
        }
      ],
      "name": "Withdraw",
      "type": "event"
    },
    {
      "inputs": [],
      "name": "SCALING_FACTOR",
      "outputs": [
        {
          "internalType": "uint256",
          "name": "",
          "type": "uint256"
        }
      ],
      "stateMutability": "view",
      "type": "function"
    },
    {
      "inputs": [
        {
          "internalType": "uint256",
          "name": "_amount",
          "type": "uint256"
        }
      ],
      "name": "borrow",
      "outputs": [],
      "stateMutability": "nonpayable",
      "type": "function"
    },
    {
      "inputs": [],
      "name": "borrowThreshold",
      "outputs": [
        {
          "internalType": "uint256",
          "name": "",
          "type": "uint256"
        }
      ],
      "stateMutability": "view",
      "type": "function"
    },
    {
      "inputs": [
        {
          "internalType": "address",
          "name": "account_",
          "type": "address"
        }
      ],
      "name": "calcCollateralRatio",
      "outputs": [
        {
          "internalType": "uint256",
          "name": "",
          "type": "uint256"
        }
      ],
      "stateMutability": "view",
      "type": "function"
    },
    {
      "inputs": [
        {
          "internalType": "uint256",
          "name": "_amount",
          "type": "uint256"
        }
      ],
      "name": "deposit",
      "outputs": [],
      "stateMutability": "nonpayable",
      "type": "function"
    },
    {
      "inputs": [],
      "name": "interestRate",
      "outputs": [
        {
          "internalType": "uint256",
          "name": "",
          "type": "uint256"
        }
      ],
      "stateMutability": "view",
      "type": "function"
    },
    {
      "inputs": [
        {
          "internalType": "address",
          "name": "_account",
          "type": "address"
        }
      ],
      "name": "liquidate",
      "outputs": [],
      "stateMutability": "nonpayable",
      "type": "function"
    },
    {
      "inputs": [],
      "name": "liquidationFee",
      "outputs": [
        {
          "internalType": "uint256",
          "name": "",
          "type": "uint256"
        }
      ],
      "stateMutability": "view",
      "type": "function"
    },
    {
      "inputs": [],
      "name": "liquidationThreshold",
      "outputs": [
        {
          "internalType": "uint256",
          "name": "",
          "type": "uint256"
        }
      ],
      "stateMutability": "view",
      "type": "function"
    },
    {
      "inputs": [],
      "name": "liquidatorFeeShare",
      "outputs": [
        {
          "internalType": "uint256",
          "name": "",
          "type": "uint256"
        }
      ],
      "stateMutability": "view",
      "type": "function"
    },
    {
      "inputs": [],
      "name": "owner",
      "outputs": [
        {
          "internalType": "address",
          "name": "",
          "type": "address"
        }
      ],
      "stateMutability": "view",
      "type": "function"
    },
    {
      "inputs": [],
      "name": "protocolShortfall",
      "outputs": [
        {
          "internalType": "uint256",
          "name": "",
          "type": "uint256"
        }
      ],
      "stateMutability": "view",
      "type": "function"
    },
    {
      "inputs": [],
      "name": "renounceOwnership",
      "outputs": [],
      "stateMutability": "nonpayable",
      "type": "function"
    },
    {
      "inputs": [
        {
          "internalType": "uint256",
          "name": "_amount",
          "type": "uint256"
        }
      ],
      "name": "repay",
      "outputs": [],
      "stateMutability": "nonpayable",
      "type": "function"
    },
    {
      "inputs": [
        {
          "internalType": "uint256",
          "name": "_liqTotalFee",
          "type": "uint256"
        },
        {
          "internalType": "uint256",
          "name": "_liqFeeShare",
          "type": "uint256"
        },
        {
          "internalType": "uint256",
          "name": "_interestRate",
          "type": "uint256"
        }
      ],
      "name": "setFeesAndRates",
      "outputs": [],
      "stateMutability": "nonpayable",
      "type": "function"
    },
    {
      "inputs": [
        {
          "internalType": "uint256",
          "name": "_borrowThreshold",
          "type": "uint256"
        },
        {
          "internalType": "uint256",
          "name": "_liqThreshold",
          "type": "uint256"
        }
      ],
      "name": "setThresholds",
      "outputs": [],
      "stateMutability": "nonpayable",
      "type": "function"
    },
    {
      "inputs": [
        {
          "internalType": "address",
          "name": "_newAddress",
          "type": "address"
        }
      ],
      "name": "setUSDZAddress",
      "outputs": [],
      "stateMutability": "nonpayable",
      "type": "function"
    },
    {
      "inputs": [
        {
          "internalType": "address",
          "name": "_newAddress",
          "type": "address"
        }
      ],
      "name": "setXSUSHIAddress",
      "outputs": [],
      "stateMutability": "nonpayable",
      "type": "function"
    },
    {
      "inputs": [],
      "name": "sushiRouterAddress",
      "outputs": [
        {
          "internalType": "address",
          "name": "",
          "type": "address"
        }
      ],
      "stateMutability": "view",
      "type": "function"
    },
    {
      "inputs": [
        {
          "internalType": "address",
          "name": "newOwner",
          "type": "address"
        }
      ],
      "name": "transferOwnership",
      "outputs": [],
      "stateMutability": "nonpayable",
      "type": "function"
    },
    {
      "inputs": [],
      "name": "usdcAddress",
      "outputs": [
        {
          "internalType": "address",
          "name": "",
          "type": "address"
        }
      ],
      "stateMutability": "view",
      "type": "function"
    },
    {
      "inputs": [],
      "name": "usdzAddress",
      "outputs": [
        {
          "internalType": "address",
          "name": "",
          "type": "address"
        }
      ],
      "stateMutability": "view",
      "type": "function"
    },
    {
      "inputs": [
        {
          "internalType": "uint256",
          "name": "_amount",
          "type": "uint256"
        }
      ],
      "name": "withdraw",
      "outputs": [],
      "stateMutability": "nonpayable",
      "type": "function"
    },
    {
      "inputs": [],
      "name": "xSushiAddress",
      "outputs": [
        {
          "internalType": "address",
          "name": "",
          "type": "address"
        }
      ],
      "stateMutability": "view",
      "type": "function"
    },
    {
      "inputs": [
        {
          "internalType": "uint256",
          "name": "",
          "type": "uint256"
        }
      ],
      "name": "xSushiToUsdcPath",
      "outputs": [
        {
          "internalType": "address",
          "name": "",
          "type": "address"
        }
      ],
      "stateMutability": "view",
      "type": "function"
    }
  ],
  "bytecode": "0x60a06040526127106080908152503480156200001a57600080fd5b50604051620026783803806200267883398181016040528101906200004091906200049e565b600062000052620003ba60201b60201c565b9050806000806101000a81548173ffffffffffffffffffffffffffffffffffffffff021916908373ffffffffffffffffffffffffffffffffffffffff1602179055508073ffffffffffffffffffffffffffffffffffffffff16600073ffffffffffffffffffffffffffffffffffffffff167f8be0079c531659141344cd1fd0a4f28419497f9722a3daafe3b4186f6b6457e060405160405180910390a35088600360006101000a81548173ffffffffffffffffffffffffffffffffffffffff021916908373ffffffffffffffffffffffffffffffffffffffff16021790555087600460006101000a81548173ffffffffffffffffffffffffffffffffffffffff021916908373ffffffffffffffffffffffffffffffffffffffff16021790555086600560006101000a81548173ffffffffffffffffffffffffffffffffffffffff021916908373ffffffffffffffffffffffffffffffffffffffff16021790555085600660006101000a81548173ffffffffffffffffffffffffffffffffffffffff021916908373ffffffffffffffffffffffffffffffffffffffff160217905550846008819055508360098190555082600a8190555081600b8190555080600c81905550600267ffffffffffffffff81111562000259577f4e487b7100000000000000000000000000000000000000000000000000000000600052604160045260246000fd5b604051908082528060200260200182016040528015620002885781602001602082028036833780820191505090505b5060079080519060200190620002a0929190620003c2565b50866007600081548110620002de577f4e487b7100000000000000000000000000000000000000000000000000000000600052603260045260246000fd5b9060005260206000200160006101000a81548173ffffffffffffffffffffffffffffffffffffffff021916908373ffffffffffffffffffffffffffffffffffffffff16021790555087600760018154811062000363577f4e487b7100000000000000000000000000000000000000000000000000000000600052603260045260246000fd5b9060005260206000200160006101000a81548173ffffffffffffffffffffffffffffffffffffffff021916908373ffffffffffffffffffffffffffffffffffffffff160217905550505050505050505050620005e9565b600033905090565b8280548282559060005260206000209081019282156200043e579160200282015b828111156200043d5782518260006101000a81548173ffffffffffffffffffffffffffffffffffffffff021916908373ffffffffffffffffffffffffffffffffffffffff16021790555091602001919060010190620003e3565b5b5090506200044d919062000451565b5090565b5b808211156200046c57600081600090555060010162000452565b5090565b6000815190506200048181620005b5565b92915050565b6000815190506200049881620005cf565b92915050565b60008060008060008060008060006101208a8c031215620004be57600080fd5b6000620004ce8c828d0162000470565b9950506020620004e18c828d0162000470565b9850506040620004f48c828d0162000470565b9750506060620005078c828d0162000470565b96505060806200051a8c828d0162000487565b95505060a06200052d8c828d0162000487565b94505060c0620005408c828d0162000487565b93505060e0620005538c828d0162000487565b925050610100620005678c828d0162000487565b9150509295985092959850929598565b600062000584826200058b565b9050919050565b600073ffffffffffffffffffffffffffffffffffffffff82169050919050565b6000819050919050565b620005c08162000577565b8114620005cc57600080fd5b50565b620005da81620005ab565b8114620005e657600080fd5b50565b6080516120506200062860003960008181610f5301528181610fc30152818161104d0152818161119b015281816111fe015261127301526120506000f3fe608060405234801561001057600080fd5b50600436106101735760003560e01c80637c3a00fd116100de578063b6b55f2511610097578063c5ebeaec11610071578063c5ebeaec146103f0578063e3064a771461040c578063ef4cadc514610428578063f2fde38b1461044657610173565b8063b6b55f251461039a578063bdfccad3146103b6578063bfaf48d4146103d457610173565b80637c3a00fd146102ea5780638456b755146103085780638da5cb5b146103245780638f6ba29a14610342578063a36a36301461035e578063af1f556f1461037c57610173565b80634031234c116101305780634031234c146102385780634a63a5ce1461025657806354054808146102865780635ae547e3146102a4578063715018a6146102c257806379bbce8f146102cc57610173565b8063027bbd861461017857806302d45457146101a857806320bdf800146101c65780632e1a7d4d146101e45780632f86556814610200578063371fd8e61461021c575b600080fd5b610192600480360381019061018d9190611530565b610462565b60405161019f9190611c85565b60405180910390f35b6101b061069c565b6040516101bd9190611a7c565b60405180910390f35b6101ce6106c2565b6040516101db9190611a7c565b60405180910390f35b6101fe60048036038101906101f991906115c3565b6106e8565b005b61021a60048036038101906102159190611530565b6107be565b005b610236600480360381019061023191906115c3565b61082c565b005b610240610882565b60405161024d9190611c85565b60405180910390f35b610270600480360381019061026b91906115c3565b610888565b60405161027d9190611a7c565b60405180910390f35b61028e6108c7565b60405161029b9190611c85565b60405180910390f35b6102ac6108cd565b6040516102b99190611c85565b60405180910390f35b6102ca6108d3565b005b6102d4610a0d565b6040516102e19190611a7c565b60405180910390f35b6102f2610a33565b6040516102ff9190611c85565b60405180910390f35b610322600480360381019061031d9190611530565b610a39565b005b61032c610b69565b6040516103399190611a7c565b60405180910390f35b61035c60048036038101906103579190611530565b610b92565b005b610366610cc2565b6040516103739190611c85565b60405180910390f35b610384610cc8565b6040516103919190611c85565b60405180910390f35b6103b460048036038101906103af91906115c3565b610cce565b005b6103be610eaf565b6040516103cb9190611a7c565b60405180910390f35b6103ee60048036038101906103e99190611628565b610ed5565b005b61040a600480360381019061040591906115c3565b6110c7565b005b610426600480360381019061042191906115ec565b61111d565b005b610430611271565b60405161043d9190611c85565b60405180910390f35b610460600480360381019061045b9190611530565b611295565b005b600080600160008473ffffffffffffffffffffffffffffffffffffffff1673ffffffffffffffffffffffffffffffffffffffff1681526020019081526020016000206000015490506000600160008573ffffffffffffffffffffffffffffffffffffffff1673ffffffffffffffffffffffffffffffffffffffff168152602001908152602001600020600101549050600082141561050557600092505050610697565b6000811415610538577fffffffffffffffffffffffffffffffffffffffffffffffffffffffffffffffff92505050610697565b6000821161057b576040517f08c379a000000000000000000000000000000000000000000000000000000000815260040161057290611be5565b60405180910390fd5b6000600660009054906101000a900473ffffffffffffffffffffffffffffffffffffffff16905060008173ffffffffffffffffffffffffffffffffffffffff1663d06ca61f8560076040518363ffffffff1660e01b81526004016105e0929190611ca0565b60006040518083038186803b1580156105f857600080fd5b505afa15801561060c573d6000803e3d6000fd5b505050506040513d6000823e3d601f19601f820116820180604052508101906106359190611559565b60018151811061066e577f4e487b7100000000000000000000000000000000000000000000000000000000600052603260045260246000fd5b60200260200101519050826064826106869190611e3a565b6106909190611e09565b9450505050505b919050565b600460009054906101000a900473ffffffffffffffffffffffffffffffffffffffff1681565b600360009054906101000a900473ffffffffffffffffffffffffffffffffffffffff1681565b80600160003373ffffffffffffffffffffffffffffffffffffffff1673ffffffffffffffffffffffffffffffffffffffff16815260200190815260200160002060000154101561076d576040517f08c379a000000000000000000000000000000000000000000000000000000000815260040161076490611c65565b60405180910390fd5b3373ffffffffffffffffffffffffffffffffffffffff167f884edad9ce6fa2440d8a54cc123490eb96d2768479d49ff9c7366125a9424364826040516107b39190611c85565b60405180910390a250565b3373ffffffffffffffffffffffffffffffffffffffff168173ffffffffffffffffffffffffffffffffffffffff167f5a821a618ddb1a1fd304234a69c9d7f20c129d122fcf35593d13a07192664307600080600060405161082193929190611ace565b60405180910390a350565b3373ffffffffffffffffffffffffffffffffffffffff167f2fe77b1c99aca6b022b8efc6e3e8dd1b48b30748709339b65c50ef3263443e098260008060405161087793929190611cd0565b60405180910390a250565b600c5481565b6007818154811061089857600080fd5b906000526020600020016000915054906101000a900473ffffffffffffffffffffffffffffffffffffffff1681565b60095481565b600b5481565b6108db61143e565b73ffffffffffffffffffffffffffffffffffffffff166108f9610b69565b73ffffffffffffffffffffffffffffffffffffffff161461094f576040517f08c379a000000000000000000000000000000000000000000000000000000000815260040161094690611ba5565b60405180910390fd5b600073ffffffffffffffffffffffffffffffffffffffff1660008054906101000a900473ffffffffffffffffffffffffffffffffffffffff1673ffffffffffffffffffffffffffffffffffffffff167f8be0079c531659141344cd1fd0a4f28419497f9722a3daafe3b4186f6b6457e060405160405180910390a360008060006101000a81548173ffffffffffffffffffffffffffffffffffffffff021916908373ffffffffffffffffffffffffffffffffffffffff160217905550565b600660009054906101000a900473ffffffffffffffffffffffffffffffffffffffff1681565b600a5481565b610a4161143e565b73ffffffffffffffffffffffffffffffffffffffff16610a5f610b69565b73ffffffffffffffffffffffffffffffffffffffff1614610ab5576040517f08c379a0000000000000000000000000000000000000000000000000000000008152600401610aac90611ba5565b60405180910390fd5b600073ffffffffffffffffffffffffffffffffffffffff168173ffffffffffffffffffffffffffffffffffffffff161415610b25576040517f08c379a0000000000000000000000000000000000000000000000000000000008152600401610b1c90611b45565b60405180910390fd5b80600560006101000a81548173ffffffffffffffffffffffffffffffffffffffff021916908373ffffffffffffffffffffffffffffffffffffffff16021790555050565b60008060009054906101000a900473ffffffffffffffffffffffffffffffffffffffff16905090565b610b9a61143e565b73ffffffffffffffffffffffffffffffffffffffff16610bb8610b69565b73ffffffffffffffffffffffffffffffffffffffff1614610c0e576040517f08c379a0000000000000000000000000000000000000000000000000000000008152600401610c0590611ba5565b60405180910390fd5b600073ffffffffffffffffffffffffffffffffffffffff168173ffffffffffffffffffffffffffffffffffffffff161415610c7e576040517f08c379a0000000000000000000000000000000000000000000000000000000008152600401610c7590611b85565b60405180910390fd5b80600360006101000a81548173ffffffffffffffffffffffffffffffffffffffff021916908373ffffffffffffffffffffffffffffffffffffffff16021790555050565b60085481565b60025481565b6000600560009054906101000a900473ffffffffffffffffffffffffffffffffffffffff1690508073ffffffffffffffffffffffffffffffffffffffff166323b872dd3330856040518463ffffffff1660e01b8152600401610d3293929190611a97565b602060405180830381600087803b158015610d4c57600080fd5b505af1158015610d60573d6000803e3d6000fd5b505050506040513d601f19601f82011682018060405250810190610d84919061159a565b610dc3576040517f08c379a0000000000000000000000000000000000000000000000000000000008152600401610dba90611c05565b60405180910390fd5b6000600160003373ffffffffffffffffffffffffffffffffffffffff1673ffffffffffffffffffffffffffffffffffffffff1681526020019081526020016000206000015490508281610e169190611db3565b600160003373ffffffffffffffffffffffffffffffffffffffff1673ffffffffffffffffffffffffffffffffffffffff168152602001908152602001600020600001819055503373ffffffffffffffffffffffffffffffffffffffff167fe1fffcc4923d04b559f4d29a8bfc6cda04eb5b0d3c460751c2402c5c5cc9109c84604051610ea29190611c85565b60405180910390a2505050565b600560009054906101000a900473ffffffffffffffffffffffffffffffffffffffff1681565b610edd61143e565b73ffffffffffffffffffffffffffffffffffffffff16610efb610b69565b73ffffffffffffffffffffffffffffffffffffffff1614610f51576040517f08c379a0000000000000000000000000000000000000000000000000000000008152600401610f4890611ba5565b60405180910390fd5b7f00000000000000000000000000000000000000000000000000000000000000008311158015610f82575060008310155b610fc1576040517f08c379a0000000000000000000000000000000000000000000000000000000008152600401610fb890611bc5565b60405180910390fd5b7f00000000000000000000000000000000000000000000000000000000000000008211158015610ff2575060008210155b8015610ffe5750828211155b61103d576040517f08c379a000000000000000000000000000000000000000000000000000000000815260040161103490611b25565b60405180910390fd5b82600881905550816009819055507f0000000000000000000000000000000000000000000000000000000000000000811115801561107c575060008110155b6110bb576040517f08c379a00000000000000000000000000000000000000000000000000000000081526004016110b290611c25565b60405180910390fd5b80600a81905550505050565b3373ffffffffffffffffffffffffffffffffffffffff167f13ed6866d4e1ee6da46f845c46d7e54120883d75c5ea9a2dacc1c4ca8984ab808260008060405161111293929190611cd0565b60405180910390a250565b61112561143e565b73ffffffffffffffffffffffffffffffffffffffff16611143610b69565b73ffffffffffffffffffffffffffffffffffffffff1614611199576040517f08c379a000000000000000000000000000000000000000000000000000000000815260040161119090611ba5565b60405180910390fd5b7f00000000000000000000000000000000000000000000000000000000000000008210156111fc576040517f08c379a00000000000000000000000000000000000000000000000000000000081526004016111f390611b65565b60405180910390fd5b7f000000000000000000000000000000000000000000000000000000000000000081101561125f576040517f08c379a000000000000000000000000000000000000000000000000000000000815260040161125690611c45565b60405180910390fd5b81600b8190555080600c819055505050565b7f000000000000000000000000000000000000000000000000000000000000000081565b61129d61143e565b73ffffffffffffffffffffffffffffffffffffffff166112bb610b69565b73ffffffffffffffffffffffffffffffffffffffff1614611311576040517f08c379a000000000000000000000000000000000000000000000000000000000815260040161130890611ba5565b60405180910390fd5b600073ffffffffffffffffffffffffffffffffffffffff168173ffffffffffffffffffffffffffffffffffffffff161415611381576040517f08c379a000000000000000000000000000000000000000000000000000000000815260040161137890611b05565b60405180910390fd5b8073ffffffffffffffffffffffffffffffffffffffff1660008054906101000a900473ffffffffffffffffffffffffffffffffffffffff1673ffffffffffffffffffffffffffffffffffffffff167f8be0079c531659141344cd1fd0a4f28419497f9722a3daafe3b4186f6b6457e060405160405180910390a3806000806101000a81548173ffffffffffffffffffffffffffffffffffffffff021916908373ffffffffffffffffffffffffffffffffffffffff16021790555050565b600033905090565b600061145961145484611d38565b611d07565b9050808382526020820190508285602086028201111561147857600080fd5b60005b858110156114a8578161148e888261151b565b84526020840193506020830192505060018101905061147b565b5050509392505050565b6000813590506114c181611fd5565b92915050565b600082601f8301126114d857600080fd5b81516114e8848260208601611446565b91505092915050565b60008151905061150081611fec565b92915050565b60008135905061151581612003565b92915050565b60008151905061152a81612003565b92915050565b60006020828403121561154257600080fd5b6000611550848285016114b2565b91505092915050565b60006020828403121561156b57600080fd5b600082015167ffffffffffffffff81111561158557600080fd5b611591848285016114c7565b91505092915050565b6000602082840312156115ac57600080fd5b60006115ba848285016114f1565b91505092915050565b6000602082840312156115d557600080fd5b60006115e384828501611506565b91505092915050565b600080604083850312156115ff57600080fd5b600061160d85828601611506565b925050602061161e85828601611506565b9150509250929050565b60008060006060848603121561163d57600080fd5b600061164b86828701611506565b935050602061165c86828701611506565b925050604061166d86828701611506565b9150509250925092565b6000611683838361168f565b60208301905092915050565b61169881611eb4565b82525050565b6116a781611eb4565b82525050565b60006116b882611d79565b6116c28185611d91565b93506116cd83611d64565b8060005b83811015611705576116e282611fb5565b6116ec8882611677565b97506116f783611d84565b9250506001810190506116d1565b5085935050505092915050565b61171b81611efc565b82525050565b600061172e602683611da2565b91507f4f776e61626c653a206e6577206f776e657220697320746865207a65726f206160008301527f64647265737300000000000000000000000000000000000000000000000000006020830152604082019050919050565b6000611794601883611da2565b91507f6c69714665655368617265206f7574206f662072616e676500000000000000006000830152602082019050919050565b60006117d4602083611da2565b91507f78535553484920636f6e7472616374206e6f74207a65726f20616464726573736000830152602082019050919050565b6000611814602983611da2565b91507f626f72726f77207468726573686f6c64206d757374206265203e207363616c6960008301527f6e6720666163746f7200000000000000000000000000000000000000000000006020830152604082019050919050565b600061187a601e83611da2565b91507f7573647a20636f6e7472616374206e6f74207a65726f206164647265737300006000830152602082019050919050565b60006118ba602083611da2565b91507f4f776e61626c653a2063616c6c6572206973206e6f7420746865206f776e65726000830152602082019050919050565b60006118fa601883611da2565b91507f6c6971546f74616c466565206f7574206f662072616e676500000000000000006000830152602082019050919050565b600061193a600083611da2565b9150600082019050919050565b6000611954600e83611da2565b91507f6465706f736974206661696c65640000000000000000000000000000000000006000830152602082019050919050565b6000611994601983611da2565b91507f696e74657265737452617465206f7574206f662072616e6765000000000000006000830152602082019050919050565b60006119d4602683611da2565b91507f6c6971207468726573686f6c64206d757374206265203e207363616c696e672060008301527f666163746f7200000000000000000000000000000000000000000000000000006020830152604082019050919050565b6000611a3a602083611da2565b91507f6e6f7420656e6f75676820636f6c6c61746572616c20696e206163636f756e746000830152602082019050919050565b611a7681611ef2565b82525050565b6000602082019050611a91600083018461169e565b92915050565b6000606082019050611aac600083018661169e565b611ab9602083018561169e565b611ac66040830184611a6d565b949350505050565b6000606082019050611ae36000830186611712565b611af06020830185611712565b611afd6040830184611712565b949350505050565b60006020820190508181036000830152611b1e81611721565b9050919050565b60006020820190508181036000830152611b3e81611787565b9050919050565b60006020820190508181036000830152611b5e816117c7565b9050919050565b60006020820190508181036000830152611b7e81611807565b9050919050565b60006020820190508181036000830152611b9e8161186d565b9050919050565b60006020820190508181036000830152611bbe816118ad565b9050919050565b60006020820190508181036000830152611bde816118ed565b9050919050565b60006020820190508181036000830152611bfe8161192d565b9050919050565b60006020820190508181036000830152611c1e81611947565b9050919050565b60006020820190508181036000830152611c3e81611987565b9050919050565b60006020820190508181036000830152611c5e816119c7565b9050919050565b60006020820190508181036000830152611c7e81611a2d565b9050919050565b6000602082019050611c9a6000830184611a6d565b92915050565b6000604082019050611cb56000830185611a6d565b8181036020830152611cc781846116ad565b90509392505050565b6000606082019050611ce56000830186611a6d565b611cf26020830185611712565b611cff6040830184611712565b949350505050565b6000604051905081810181811067ffffffffffffffff82111715611d2e57611d2d611f86565b5b8060405250919050565b600067ffffffffffffffff821115611d5357611d52611f86565b5b602082029050602081019050919050565b60008190508160005260206000209050919050565b600081549050919050565b6000600182019050919050565b600082825260208201905092915050565b600082825260208201905092915050565b6000611dbe82611ef2565b9150611dc983611ef2565b9250827fffffffffffffffffffffffffffffffffffffffffffffffffffffffffffffffff03821115611dfe57611dfd611f28565b5b828201905092915050565b6000611e1482611ef2565b9150611e1f83611ef2565b925082611e2f57611e2e611f57565b5b828204905092915050565b6000611e4582611ef2565b9150611e5083611ef2565b9250817fffffffffffffffffffffffffffffffffffffffffffffffffffffffffffffffff0483118215151615611e8957611e88611f28565b5b828202905092915050565b600073ffffffffffffffffffffffffffffffffffffffff82169050919050565b6000611ebf82611ed2565b9050919050565b60008115159050919050565b600073ffffffffffffffffffffffffffffffffffffffff82169050919050565b6000819050919050565b6000611f0782611ef2565b9050919050565b6000611f21611f1c83611fc8565b611e94565b9050919050565b7f4e487b7100000000000000000000000000000000000000000000000000000000600052601160045260246000fd5b7f4e487b7100000000000000000000000000000000000000000000000000000000600052601260045260246000fd5b7f4e487b7100000000000000000000000000000000000000000000000000000000600052604160045260246000fd5b6000611fc18254611f0e565b9050919050565b60008160001c9050919050565b611fde81611eb4565b8114611fe957600080fd5b50565b611ff581611ec6565b811461200057600080fd5b50565b61200c81611ef2565b811461201757600080fd5b5056fea2646970667358221220efa9a9d84a742553e3634bac52671523555930a12518925c74226e48944a6b8a64736f6c63430008000033",
  "linkReferences": {},
  "deployedLinkReferences": {}
}