{
  "_format": "hh-sol-artifact-1",
  "contractName": "Controller",
  "sourceName": "contracts/Controller.sol",
  "abi": [
    {
      "inputs": [
        {
          "internalType": "address",
          "name": "_usdzAddress",
          "type": "address"
        },
        {
          "internalType": "address",
          "name": "_usdcAddress",
          "type": "address"
        },
        {
          "internalType": "address",
          "name": "_xSushiAddress",
          "type": "address"
        },
        {
          "internalType": "address",
          "name": "_routerAddress",
          "type": "address"
        },
        {
          "internalType": "address[]",
          "name": "_swapPath",
          "type": "address[]"
        },
        {
          "internalType": "uint256",
          "name": "_liqFeeProtocol",
          "type": "uint256"
        },
        {
          "internalType": "uint256",
          "name": "_liqFeeSender",
          "type": "uint256"
        },
        {
          "internalType": "uint256",
          "name": "_interestRate",
          "type": "uint256"
        },
        {
          "internalType": "uint256",
          "name": "_borrowThreshold",
          "type": "uint256"
        },
        {
          "internalType": "uint256",
          "name": "_liqThreshold",
          "type": "uint256"
        }
      ],
      "stateMutability": "nonpayable",
      "type": "constructor"
    },
    {
      "anonymous": false,
      "inputs": [
        {
          "indexed": true,
          "internalType": "address",
          "name": "account",
          "type": "address"
        },
        {
          "indexed": false,
          "internalType": "uint256",
          "name": "amountBorrowed",
          "type": "uint256"
        },
        {
          "indexed": false,
          "internalType": "uint256",
          "name": "totalDebt",
          "type": "uint256"
        },
        {
          "indexed": false,
          "internalType": "uint256",
          "name": "collateralAmount",
          "type": "uint256"
        }
      ],
      "name": "Borrow",
      "type": "event"
    },
    {
      "anonymous": false,
      "inputs": [
        {
          "indexed": true,
          "internalType": "address",
          "name": "account",
          "type": "address"
        },
        {
          "indexed": false,
          "internalType": "uint256",
          "name": "amount",
          "type": "uint256"
        }
      ],
      "name": "Deposit",
      "type": "event"
    },
    {
      "anonymous": false,
      "inputs": [
        {
          "indexed": true,
          "internalType": "address",
          "name": "account",
          "type": "address"
        },
        {
          "indexed": true,
          "internalType": "address",
          "name": "liquidator",
          "type": "address"
        },
        {
          "indexed": false,
          "internalType": "uint256",
          "name": "collateralLiquidated",
          "type": "uint256"
        },
        {
          "indexed": false,
          "internalType": "uint256",
          "name": "lastCollateralRatio",
          "type": "uint256"
        },
        {
          "indexed": false,
          "internalType": "uint256",
          "name": "lastDebtOutstanding",
          "type": "uint256"
        }
      ],
      "name": "Liquidation",
      "type": "event"
    },
    {
      "anonymous": false,
      "inputs": [
        {
          "indexed": true,
          "internalType": "address",
          "name": "previousOwner",
          "type": "address"
        },
        {
          "indexed": true,
          "internalType": "address",
          "name": "newOwner",
          "type": "address"
        }
      ],
      "name": "OwnershipTransferred",
      "type": "event"
    },
    {
      "anonymous": false,
      "inputs": [
        {
          "indexed": true,
          "internalType": "address",
          "name": "account",
          "type": "address"
        },
        {
          "indexed": false,
          "internalType": "uint256",
          "name": "debtRepaid",
          "type": "uint256"
        },
        {
          "indexed": false,
          "internalType": "uint256",
          "name": "debtRemaining",
          "type": "uint256"
        },
        {
          "indexed": false,
          "internalType": "uint256",
          "name": "collateralAmount",
          "type": "uint256"
        }
      ],
      "name": "Repay",
      "type": "event"
    },
    {
      "anonymous": false,
      "inputs": [
        {
          "indexed": true,
          "internalType": "address",
          "name": "account",
          "type": "address"
        },
        {
          "indexed": false,
          "internalType": "uint256",
          "name": "amount",
          "type": "uint256"
        }
      ],
      "name": "Withdraw",
      "type": "event"
    },
    {
      "inputs": [],
      "name": "SCALING_FACTOR",
      "outputs": [
        {
          "internalType": "uint256",
          "name": "",
          "type": "uint256"
        }
      ],
      "stateMutability": "view",
      "type": "function"
    },
    {
      "inputs": [],
      "name": "SECONDS_IN_YEAR",
      "outputs": [
        {
          "internalType": "int128",
          "name": "",
          "type": "int128"
        }
      ],
      "stateMutability": "view",
      "type": "function"
    },
    {
      "inputs": [
        {
          "internalType": "uint256",
          "name": "_amount",
          "type": "uint256"
        }
      ],
      "name": "borrow",
      "outputs": [],
      "stateMutability": "nonpayable",
      "type": "function"
    },
    {
      "inputs": [],
      "name": "borrowThreshold",
      "outputs": [
        {
          "internalType": "uint256",
          "name": "",
          "type": "uint256"
        }
      ],
      "stateMutability": "view",
      "type": "function"
    },
    {
      "inputs": [
        {
          "internalType": "address",
          "name": "_account",
          "type": "address"
        }
      ],
      "name": "calcInterest",
      "outputs": [
        {
          "internalType": "uint256",
          "name": "interest",
          "type": "uint256"
        }
      ],
      "stateMutability": "view",
      "type": "function"
    },
    {
      "inputs": [
        {
          "internalType": "uint256",
          "name": "_amount",
          "type": "uint256"
        }
      ],
      "name": "claimFees",
      "outputs": [],
      "stateMutability": "nonpayable",
      "type": "function"
    },
    {
      "inputs": [
        {
          "internalType": "uint256",
          "name": "_amount",
          "type": "uint256"
        }
      ],
      "name": "deposit",
      "outputs": [],
      "stateMutability": "nonpayable",
      "type": "function"
    },
    {
      "inputs": [
        {
          "internalType": "address",
          "name": "_account",
          "type": "address"
        }
      ],
      "name": "getCurrentCollateralRatio",
      "outputs": [
        {
          "internalType": "uint256",
          "name": "",
          "type": "uint256"
        }
      ],
      "stateMutability": "view",
      "type": "function"
    },
    {
      "inputs": [
        {
          "internalType": "address",
          "name": "_account",
          "type": "address"
        },
        {
          "internalType": "uint256",
          "name": "_totalDebt",
          "type": "uint256"
        }
      ],
      "name": "getForwardCollateralRatio",
      "outputs": [
        {
          "internalType": "uint256",
          "name": "",
          "type": "uint256"
        }
      ],
      "stateMutability": "view",
      "type": "function"
    },
    {
      "inputs": [
        {
          "internalType": "address",
          "name": "_account",
          "type": "address"
        }
      ],
      "name": "getPosition",
      "outputs": [
        {
          "internalType": "uint256",
          "name": "",
          "type": "uint256"
        },
        {
          "internalType": "uint256",
          "name": "",
          "type": "uint256"
        },
        {
          "internalType": "uint256",
          "name": "",
          "type": "uint256"
        },
        {
          "internalType": "uint256",
          "name": "",
          "type": "uint256"
        }
      ],
      "stateMutability": "view",
      "type": "function"
    },
    {
      "inputs": [],
      "name": "interestRate",
      "outputs": [
        {
          "internalType": "uint256",
          "name": "",
          "type": "uint256"
        }
      ],
      "stateMutability": "view",
      "type": "function"
    },
    {
      "inputs": [],
      "name": "liqFeeProtocol",
      "outputs": [
        {
          "internalType": "uint256",
          "name": "",
          "type": "uint256"
        }
      ],
      "stateMutability": "view",
      "type": "function"
    },
    {
      "inputs": [],
      "name": "liqFeeSender",
      "outputs": [
        {
          "internalType": "uint256",
          "name": "",
          "type": "uint256"
        }
      ],
      "stateMutability": "view",
      "type": "function"
    },
    {
      "inputs": [],
      "name": "liqThreshold",
      "outputs": [
        {
          "internalType": "uint256",
          "name": "",
          "type": "uint256"
        }
      ],
      "stateMutability": "view",
      "type": "function"
    },
    {
      "inputs": [
        {
          "internalType": "address",
          "name": "_account",
          "type": "address"
        }
      ],
      "name": "liquidate",
      "outputs": [],
      "stateMutability": "nonpayable",
      "type": "function"
    },
    {
      "inputs": [],
      "name": "owner",
      "outputs": [
        {
          "internalType": "address",
          "name": "",
          "type": "address"
        }
      ],
      "stateMutability": "view",
      "type": "function"
    },
    {
      "inputs": [],
      "name": "protocolDebt",
      "outputs": [
        {
          "internalType": "uint256",
          "name": "",
          "type": "uint256"
        }
      ],
      "stateMutability": "view",
      "type": "function"
    },
    {
      "inputs": [],
      "name": "protocolIntRev",
      "outputs": [
        {
          "internalType": "uint256",
          "name": "",
          "type": "uint256"
        }
      ],
      "stateMutability": "view",
      "type": "function"
    },
    {
      "inputs": [],
      "name": "renounceOwnership",
      "outputs": [],
      "stateMutability": "nonpayable",
      "type": "function"
    },
    {
      "inputs": [
        {
          "internalType": "uint256",
          "name": "_amount",
          "type": "uint256"
        }
      ],
      "name": "repay",
      "outputs": [],
      "stateMutability": "nonpayable",
      "type": "function"
    },
    {
      "inputs": [
        {
          "internalType": "uint256",
          "name": "_liqFeeProtocol",
          "type": "uint256"
        },
        {
          "internalType": "uint256",
          "name": "_liqFeeSender",
          "type": "uint256"
        },
        {
          "internalType": "uint256",
          "name": "_interestRate",
          "type": "uint256"
        }
      ],
      "name": "setFeesAndRates",
      "outputs": [],
      "stateMutability": "nonpayable",
      "type": "function"
    },
    {
      "inputs": [
        {
          "internalType": "address",
          "name": "_sushiRouter",
          "type": "address"
        }
      ],
      "name": "setSushiAddresses",
      "outputs": [],
      "stateMutability": "nonpayable",
      "type": "function"
    },
    {
      "inputs": [
        {
          "internalType": "uint256",
          "name": "_borrowThreshold",
          "type": "uint256"
        },
        {
          "internalType": "uint256",
          "name": "_liqThreshold",
          "type": "uint256"
        }
      ],
      "name": "setThresholds",
      "outputs": [],
      "stateMutability": "nonpayable",
      "type": "function"
    },
    {
      "inputs": [
        {
          "internalType": "address",
          "name": "_usdz",
          "type": "address"
        },
        {
          "internalType": "address",
          "name": "_usdc",
          "type": "address"
        },
        {
          "internalType": "address",
          "name": "_xsushi",
          "type": "address"
        }
      ],
      "name": "setTokenAddresses",
      "outputs": [],
      "stateMutability": "nonpayable",
      "type": "function"
    },
    {
      "inputs": [],
      "name": "sushiRouterAddress",
      "outputs": [
        {
          "internalType": "address",
          "name": "",
          "type": "address"
        }
      ],
      "stateMutability": "view",
      "type": "function"
    },
    {
      "inputs": [
        {
          "internalType": "uint256",
          "name": "_usdcAmount",
          "type": "uint256"
        }
      ],
      "name": "swapUSDCforUSDZ",
      "outputs": [],
      "stateMutability": "nonpayable",
      "type": "function"
    },
    {
      "inputs": [
        {
          "internalType": "uint256",
          "name": "_usdzAmount",
          "type": "uint256"
        }
      ],
      "name": "swapUSDZforUSDC",
      "outputs": [],
      "stateMutability": "nonpayable",
      "type": "function"
    },
    {
      "inputs": [
        {
          "internalType": "address",
          "name": "newOwner",
          "type": "address"
        }
      ],
      "name": "transferOwnership",
      "outputs": [],
      "stateMutability": "nonpayable",
      "type": "function"
    },
    {
      "inputs": [],
      "name": "usdcAddress",
      "outputs": [
        {
          "internalType": "address",
          "name": "",
          "type": "address"
        }
      ],
      "stateMutability": "view",
      "type": "function"
    },
    {
      "inputs": [],
      "name": "usdzAddress",
      "outputs": [
        {
          "internalType": "address",
          "name": "",
          "type": "address"
        }
      ],
      "stateMutability": "view",
      "type": "function"
    },
    {
      "inputs": [
        {
          "internalType": "uint256",
          "name": "_amount",
          "type": "uint256"
        }
      ],
      "name": "withdraw",
      "outputs": [],
      "stateMutability": "nonpayable",
      "type": "function"
    },
    {
      "inputs": [],
      "name": "xSushiAddress",
      "outputs": [
        {
          "internalType": "address",
          "name": "",
          "type": "address"
        }
      ],
      "stateMutability": "view",
      "type": "function"
    },
    {
      "inputs": [
        {
          "internalType": "uint256",
          "name": "",
          "type": "uint256"
        }
      ],
      "name": "xSushiToUsdcPath",
      "outputs": [
        {
          "internalType": "address",
          "name": "",
          "type": "address"
        }
      ],
      "stateMutability": "view",
      "type": "function"
    }
  ],
  "bytecode": "0x60806040523480156200001157600080fd5b5060405162004bb538038062004bb5833981810160405281019062000037919062000436565b6000620000496200028c60201b60201c565b9050806000806101000a81548173ffffffffffffffffffffffffffffffffffffffff021916908373ffffffffffffffffffffffffffffffffffffffff1602179055508073ffffffffffffffffffffffffffffffffffffffff16600073ffffffffffffffffffffffffffffffffffffffff167f8be0079c531659141344cd1fd0a4f28419497f9722a3daafe3b4186f6b6457e060405160405180910390a35089600660006101000a81548173ffffffffffffffffffffffffffffffffffffffff021916908373ffffffffffffffffffffffffffffffffffffffff16021790555088600560006101000a81548173ffffffffffffffffffffffffffffffffffffffff021916908373ffffffffffffffffffffffffffffffffffffffff16021790555087600760006101000a81548173ffffffffffffffffffffffffffffffffffffffff021916908373ffffffffffffffffffffffffffffffffffffffff16021790555086600860006101000a81548173ffffffffffffffffffffffffffffffffffffffff021916908373ffffffffffffffffffffffffffffffffffffffff16021790555084600a8190555083600b8190555082600c8190555081600d8190555080600e81905550856009908051906020019062000226929190620002b8565b50620002416301e185586200029460201b6200240a1760201c565b600f60006101000a8154816fffffffffffffffffffffffffffffffff0219169083600f0b6fffffffffffffffffffffffffffffffff1602179055505050505050505050505062000643565b600033905090565b6000677fffffffffffffff821115620002ac57600080fd5b604082901b9050919050565b82805482825590600052602060002090810192821562000334579160200282015b82811115620003335782518260006101000a81548173ffffffffffffffffffffffffffffffffffffffff021916908373ffffffffffffffffffffffffffffffffffffffff16021790555091602001919060010190620002d9565b5b50905062000343919062000347565b5090565b5b808211156200036257600081600090555060010162000348565b5090565b60006200037d620003778462000573565b6200053f565b905080838252602082019050828560208602820111156200039d57600080fd5b60005b85811015620003d15781620003b68882620003db565b845260208401935060208301925050600181019050620003a0565b5050509392505050565b600081519050620003ec816200060f565b92915050565b600082601f8301126200040457600080fd5b81516200041684826020860162000366565b91505092915050565b600081519050620004308162000629565b92915050565b6000806000806000806000806000806101408b8d0312156200045757600080fd5b6000620004678d828e01620003db565b9a505060206200047a8d828e01620003db565b99505060406200048d8d828e01620003db565b9850506060620004a08d828e01620003db565b97505060808b015167ffffffffffffffff811115620004be57600080fd5b620004cc8d828e01620003f2565b96505060a0620004df8d828e016200041f565b95505060c0620004f28d828e016200041f565b94505060e0620005058d828e016200041f565b935050610100620005198d828e016200041f565b9250506101206200052d8d828e016200041f565b9150509295989b9194979a5092959850565b6000604051905081810181811067ffffffffffffffff82111715620005695762000568620005e0565b5b8060405250919050565b600067ffffffffffffffff821115620005915762000590620005e0565b5b602082029050602081019050919050565b6000620005af82620005b6565b9050919050565b600073ffffffffffffffffffffffffffffffffffffffff82169050919050565b6000819050919050565b7f4e487b7100000000000000000000000000000000000000000000000000000000600052604160045260246000fd5b6200061a81620005a2565b81146200062657600080fd5b50565b6200063481620005d6565b81146200064057600080fd5b50565b61456280620006536000396000f3fe608060405234801561001057600080fd5b50600436106101fb5760003560e01c806379bbce8f1161011a578063bdfccad3116100ad578063daf5539e1161007c578063daf5539e1461056b578063e3064a771461059b578063ef4cadc5146105b7578063f248e7e8146105d5578063f2fde38b146105f1576101fb565b8063bdfccad3146104f9578063bfaf48d414610517578063c5ebeaec14610533578063cde5f6721461054f576101fb565b8063ac68a748116100e9578063ac68a74814610485578063ae2293d7146104a1578063b6b55f25146104bf578063bd48b2df146104db576101fb565b806379bbce8f1461040d5780637c3a00fd1461042b5780638da5cb5b14610449578063927e0a8f14610467576101fb565b80634a63a5ce1161019257806369cb89c71161016157806369cb89c7146103855780637046b7a9146103b5578063715018a6146103e557806373487251146103ef576101fb565b80634a63a5ce146102fd5780634d3f9d3e1461032d5780635ae547e3146103495780635dcc939114610367576101fb565b80632e1a7d4d116101ce5780632e1a7d4d1461028b5780632f865568146102a7578063371fd8e6146102c3578063410e73f7146102df576101fb565b806302d454571461020057806316c197391461021e5780631d89b1031461025157806320bdf8001461026d575b600080fd5b61020861060d565b6040516102159190613d84565b60405180910390f35b61023860048036038101906102339190613483565b610633565b6040516102489493929190614193565b60405180910390f35b61026b600480360381019061026691906135a1565b610724565b005b610275610959565b6040516102829190613d84565b60405180910390f35b6102a560048036038101906102a091906135a1565b61097f565b005b6102c160048036038101906102bc9190613483565b610c71565b005b6102dd60048036038101906102d891906135a1565b610f1a565b005b6102e7611245565b6040516102f49190614111565b60405180910390f35b610317600480360381019061031291906135a1565b61124b565b6040516103249190613d84565b60405180910390f35b610347600480360381019061034291906134ac565b61128a565b005b6103516114b0565b60405161035e9190614111565b60405180910390f35b61036f6114b6565b60405161037c9190613dff565b60405180910390f35b61039f600480360381019061039a9190613483565b6114c9565b6040516103ac9190614111565b60405180910390f35b6103cf60048036038101906103ca91906134fb565b611738565b6040516103dc9190614111565b60405180910390f35b6103ed61174c565b005b6103f7611886565b6040516104049190614111565b60405180910390f35b61041561188c565b6040516104229190613d84565b60405180910390f35b6104336118b2565b6040516104409190614111565b60405180910390f35b6104516118b8565b60405161045e9190613d84565b60405180910390f35b61046f6118e1565b60405161047c9190614111565b60405180910390f35b61049f600480360381019061049a91906135a1565b6118e7565b005b6104a96118ea565b6040516104b69190614111565b60405180910390f35b6104d960048036038101906104d491906135a1565b6118f0565b005b6104e3611a8a565b6040516104f09190614111565b60405180910390f35b610501611a90565b60405161050e9190613d84565b60405180910390f35b610531600480360381019061052c919061362f565b611ab6565b005b61054d600480360381019061054891906135a1565b611be1565b005b610569600480360381019061056491906135a1565b611df9565b005b61058560048036038101906105809190613483565b611fbe565b6040516105929190614111565b60405180910390f35b6105b560048036038101906105b091906135f3565b612013565b005b6105bf61212b565b6040516105cc9190614111565b60405180910390f35b6105ef60048036038101906105ea9190613483565b612131565b005b61060b60048036038101906106069190613483565b612261565b005b600560009054906101000a900473ffffffffffffffffffffffffffffffffffffffff1681565b600080600080610642856114c9565b50600160008673ffffffffffffffffffffffffffffffffffffffff1673ffffffffffffffffffffffffffffffffffffffff16815260200190815260200160002060000154600160008773ffffffffffffffffffffffffffffffffffffffff1673ffffffffffffffffffffffffffffffffffffffff168152602001908152602001600020600101546106d2876114c9565b600160008973ffffffffffffffffffffffffffffffffffffffff1673ffffffffffffffffffffffffffffffffffffffff1681526020019081526020016000206002015493509350935093509193509193565b6000600560009054906101000a900473ffffffffffffffffffffffffffffffffffffffff1673ffffffffffffffffffffffffffffffffffffffff166370a08231306040518263ffffffff1660e01b81526004016107819190613d84565b60206040518083038186803b15801561079957600080fd5b505afa1580156107ad573d6000803e3d6000fd5b505050506040513d601f19601f820116820180604052508101906107d191906135ca565b905081811015610816576040517f08c379a000000000000000000000000000000000000000000000000000000000815260040161080d90613fd1565b60405180910390fd5b600660009054906101000a900473ffffffffffffffffffffffffffffffffffffffff1673ffffffffffffffffffffffffffffffffffffffff16639dc29fac33846040518363ffffffff1660e01b8152600401610873929190613dd6565b600060405180830381600087803b15801561088d57600080fd5b505af11580156108a1573d6000803e3d6000fd5b50505050600560009054906101000a900473ffffffffffffffffffffffffffffffffffffffff1673ffffffffffffffffffffffffffffffffffffffff1663a9059cbb33846040518363ffffffff1660e01b8152600401610902929190613dd6565b602060405180830381600087803b15801561091c57600080fd5b505af1158015610930573d6000803e3d6000fd5b505050506040513d601f19601f820116820180604052508101906109549190613578565b505050565b600660009054906101000a900473ffffffffffffffffffffffffffffffffffffffff1681565b6000600160003373ffffffffffffffffffffffffffffffffffffffff1673ffffffffffffffffffffffffffffffffffffffff16815260200190815260200160002090508181600001541015610a09576040517f08c379a0000000000000000000000000000000000000000000000000000000008152600401610a00906140f1565b60405180910390fd5b6000610a14336114c9565b905080826001016000828254610a2a9190614284565b925050819055504282600201819055506000610a4533611fbe565b9050600d548111610a8b576040517f08c379a0000000000000000000000000000000000000000000000000000000008152600401610a8290613eb1565b60405180910390fd5b60008084600101541415610aa55783600001549050610ad0565b600d5482610ab39190614365565b828560000154610ac391906142da565b610acd919061430b565b90505b84811015610b13576040517f08c379a0000000000000000000000000000000000000000000000000000000008152600401610b0a90613f71565b60405180910390fd5b84846000016000828254610b279190614365565b92505081905550600760009054906101000a900473ffffffffffffffffffffffffffffffffffffffff1673ffffffffffffffffffffffffffffffffffffffff1663a9059cbb33876040518363ffffffff1660e01b8152600401610b8b929190613dd6565b602060405180830381600087803b158015610ba557600080fd5b505af1158015610bb9573d6000803e3d6000fd5b505050506040513d601f19601f82011682018060405250810190610bdd9190613578565b610c1c576040517f08c379a0000000000000000000000000000000000000000000000000000000008152600401610c1390613f31565b60405180910390fd5b3373ffffffffffffffffffffffffffffffffffffffff167f884edad9ce6fa2440d8a54cc123490eb96d2768479d49ff9c7366125a942436486604051610c629190614111565b60405180910390a25050505050565b6000600160008373ffffffffffffffffffffffffffffffffffffffff1673ffffffffffffffffffffffffffffffffffffffff16815260200190815260200160002090506000816000015411610cfb576040517f08c379a0000000000000000000000000000000000000000000000000000000008152600401610cf290613f11565b60405180910390fd5b6000610d06836114c9565b9050600e54610d2484838560010154610d1f9190614284565b611738565b10610d64576040517f08c379a0000000000000000000000000000000000000000000000000000000008152600401610d5b90614071565b60405180910390fd5b6000612710600a548460000154610d7b919061430b565b610d8591906142da565b90506000612710600a548560000154610d9e919061430b565b610da891906142da565b905083600001548183610dbb9190614284565b1115610dfc576040517f08c379a0000000000000000000000000000000000000000000000000000000008152600401610df390614051565b60405180910390fd5b81600260003073ffffffffffffffffffffffffffffffffffffffff1673ffffffffffffffffffffffffffffffffffffffff1681526020019081526020016000206000828254610e4b9190614284565b9250508190555080600260003373ffffffffffffffffffffffffffffffffffffffff1673ffffffffffffffffffffffffffffffffffffffff1681526020019081526020016000206000828254610ea19190614284565b925050819055503373ffffffffffffffffffffffffffffffffffffffff168573ffffffffffffffffffffffffffffffffffffffff167f5a821a618ddb1a1fd304234a69c9d7f20c129d122fcf35593d13a071926643076000806000604051610f0b93929190613e1a565b60405180910390a35050505050565b60008111610f5d576040517f08c379a0000000000000000000000000000000000000000000000000000000008152600401610f5490614031565b60405180910390fd5b6000600160003373ffffffffffffffffffffffffffffffffffffffff1673ffffffffffffffffffffffffffffffffffffffff1681526020019081526020016000209050610fa9336114c9565b816001016000828254610fbc9190614284565b9250508190555042816002018190555081816001015411156110e857600660009054906101000a900473ffffffffffffffffffffffffffffffffffffffff1673ffffffffffffffffffffffffffffffffffffffff166323b872dd3330856040518463ffffffff1660e01b815260040161103793929190613d9f565b602060405180830381600087803b15801561105157600080fd5b505af1158015611065573d6000803e3d6000fd5b505050506040513d601f19601f820116820180604052508101906110899190613578565b6110c8576040517f08c379a00000000000000000000000000000000000000000000000000000000081526004016110bf90613ff1565b60405180910390fd5b818160010160008282546110dc9190614365565b925050819055506111e7565b600660009054906101000a900473ffffffffffffffffffffffffffffffffffffffff1673ffffffffffffffffffffffffffffffffffffffff166323b872dd333084600101546040518463ffffffff1660e01b815260040161114b93929190613d9f565b602060405180830381600087803b15801561116557600080fd5b505af1158015611179573d6000803e3d6000fd5b505050506040513d601f19601f8201168201806040525081019061119d9190613578565b6111dc576040517f08c379a00000000000000000000000000000000000000000000000000000000081526004016111d390613ff1565b60405180910390fd5b600081600101819055505b3373ffffffffffffffffffffffffffffffffffffffff167f2fe77b1c99aca6b022b8efc6e3e8dd1b48b30748709339b65c50ef3263443e0983836001015484600001546040516112399392919061415c565b60405180910390a25050565b600a5481565b6009818154811061125b57600080fd5b906000526020600020016000915054906101000a900473ffffffffffffffffffffffffffffffffffffffff1681565b61129261242d565b73ffffffffffffffffffffffffffffffffffffffff166112b06118b8565b73ffffffffffffffffffffffffffffffffffffffff1614611306576040517f08c379a00000000000000000000000000000000000000000000000000000000081526004016112fd90614011565b60405180910390fd5b600073ffffffffffffffffffffffffffffffffffffffff168373ffffffffffffffffffffffffffffffffffffffff16141580156113705750600073ffffffffffffffffffffffffffffffffffffffff168273ffffffffffffffffffffffffffffffffffffffff1614155b80156113a95750600073ffffffffffffffffffffffffffffffffffffffff168173ffffffffffffffffffffffffffffffffffffffff1614155b6113e8576040517f08c379a00000000000000000000000000000000000000000000000000000000081526004016113df90613fb1565b60405180910390fd5b82600660006101000a81548173ffffffffffffffffffffffffffffffffffffffff021916908373ffffffffffffffffffffffffffffffffffffffff16021790555081600560006101000a81548173ffffffffffffffffffffffffffffffffffffffff021916908373ffffffffffffffffffffffffffffffffffffffff16021790555080600760006101000a81548173ffffffffffffffffffffffffffffffffffffffff021916908373ffffffffffffffffffffffffffffffffffffffff160217905550505050565b600d5481565b600f60009054906101000a9004600f0b81565b600080600160008473ffffffffffffffffffffffffffffffffffffffff1673ffffffffffffffffffffffffffffffffffffffff16815260200190815260200160002060010154148061155d57506000600160008473ffffffffffffffffffffffffffffffffffffffff1673ffffffffffffffffffffffffffffffffffffffff16815260200190815260200160002060020154145b8061156a57506000600c54145b806115b65750600160008373ffffffffffffffffffffffffffffffffffffffff1673ffffffffffffffffffffffffffffffffffffffff1681526020019081526020016000206002015442145b156115c45760009050611733565b6000600160008473ffffffffffffffffffffffffffffffffffffffff1673ffffffffffffffffffffffffffffffffffffffff16815260200190815260200160002060020154426116149190614365565b905060006116396116248361240a565b600f60009054906101000a9004600f0b612435565b9050600061165b61164b600c5461240a565b61165661271061240a565b612435565b905060006116aa600160008873ffffffffffffffffffffffffffffffffffffffff1673ffffffffffffffffffffffffffffffffffffffff1681526020019081526020016000206001015461240a565b905060006116d16116cc836116c76116c287896124e5565b612550565b6124e5565b6125c9565b9050600160008873ffffffffffffffffffffffffffffffffffffffff1673ffffffffffffffffffffffffffffffffffffffff168152602001908152602001600020600101548167ffffffffffffffff1661172b9190614365565b955050505050505b919050565b600061174483836125ea565b905092915050565b61175461242d565b73ffffffffffffffffffffffffffffffffffffffff166117726118b8565b73ffffffffffffffffffffffffffffffffffffffff16146117c8576040517f08c379a00000000000000000000000000000000000000000000000000000000081526004016117bf90614011565b60405180910390fd5b600073ffffffffffffffffffffffffffffffffffffffff1660008054906101000a900473ffffffffffffffffffffffffffffffffffffffff1673ffffffffffffffffffffffffffffffffffffffff167f8be0079c531659141344cd1fd0a4f28419497f9722a3daafe3b4186f6b6457e060405160405180910390a360008060006101000a81548173ffffffffffffffffffffffffffffffffffffffff021916908373ffffffffffffffffffffffffffffffffffffffff160217905550565b60045481565b600860009054906101000a900473ffffffffffffffffffffffffffffffffffffffff1681565b600c5481565b60008060009054906101000a900473ffffffffffffffffffffffffffffffffffffffff16905090565b60035481565b50565b600e5481565b600760009054906101000a900473ffffffffffffffffffffffffffffffffffffffff1673ffffffffffffffffffffffffffffffffffffffff166323b872dd3330846040518463ffffffff1660e01b815260040161194f93929190613d9f565b602060405180830381600087803b15801561196957600080fd5b505af115801561197d573d6000803e3d6000fd5b505050506040513d601f19601f820116820180604052508101906119a19190613578565b6119e0576040517f08c379a00000000000000000000000000000000000000000000000000000000081526004016119d790614091565b60405180910390fd5b80600160003373ffffffffffffffffffffffffffffffffffffffff1673ffffffffffffffffffffffffffffffffffffffff1681526020019081526020016000206000016000828254611a329190614284565b925050819055503373ffffffffffffffffffffffffffffffffffffffff167fe1fffcc4923d04b559f4d29a8bfc6cda04eb5b0d3c460751c2402c5c5cc9109c82604051611a7f9190614111565b60405180910390a250565b600b5481565b600760009054906101000a900473ffffffffffffffffffffffffffffffffffffffff1681565b611abe61242d565b73ffffffffffffffffffffffffffffffffffffffff16611adc6118b8565b73ffffffffffffffffffffffffffffffffffffffff1614611b32576040517f08c379a0000000000000000000000000000000000000000000000000000000008152600401611b2990614011565b60405180910390fd5b6127108284611b419190614284565b1115611b82576040517f08c379a0000000000000000000000000000000000000000000000000000000008152600401611b7990613f91565b60405180910390fd5b82600a8190555081600b81905550612710811115611bd5576040517f08c379a0000000000000000000000000000000000000000000000000000000008152600401611bcc906140b1565b60405180910390fd5b80600c81905550505050565b60008111611c24576040517f08c379a0000000000000000000000000000000000000000000000000000000008152600401611c1b90613ef1565b60405180910390fd5b6000600160003373ffffffffffffffffffffffffffffffffffffffff1673ffffffffffffffffffffffffffffffffffffffff16815260200190815260200160002090506000611c72336114c9565b9050600d54611c9b3385848660010154611c8c9190614284565b611c969190614284565b611738565b1015611cdc576040517f08c379a0000000000000000000000000000000000000000000000000000000008152600401611cd390613e71565b60405180910390fd5b8083611ce89190614284565b826001016000828254611cfb9190614284565b92505081905550428260020181905550600660009054906101000a900473ffffffffffffffffffffffffffffffffffffffff1673ffffffffffffffffffffffffffffffffffffffff166340c10f1933856040518363ffffffff1660e01b8152600401611d68929190613dd6565b600060405180830381600087803b158015611d8257600080fd5b505af1158015611d96573d6000803e3d6000fd5b505050503373ffffffffffffffffffffffffffffffffffffffff167f13ed6866d4e1ee6da46f845c46d7e54120883d75c5ea9a2dacc1c4ca8984ab808484600101548560000154604051611dec9392919061415c565b60405180910390a2505050565b60008111611e3c576040517f08c379a0000000000000000000000000000000000000000000000000000000008152600401611e3390613ed1565b60405180910390fd5b600560009054906101000a900473ffffffffffffffffffffffffffffffffffffffff1673ffffffffffffffffffffffffffffffffffffffff166323b872dd3330846040518463ffffffff1660e01b8152600401611e9b93929190613d9f565b602060405180830381600087803b158015611eb557600080fd5b505af1158015611ec9573d6000803e3d6000fd5b505050506040513d601f19601f82011682018060405250810190611eed9190613578565b611f2c576040517f08c379a0000000000000000000000000000000000000000000000000000000008152600401611f2390613e51565b60405180910390fd5b600660009054906101000a900473ffffffffffffffffffffffffffffffffffffffff1673ffffffffffffffffffffffffffffffffffffffff166340c10f1933836040518363ffffffff1660e01b8152600401611f89929190613dd6565b600060405180830381600087803b158015611fa357600080fd5b505af1158015611fb7573d6000803e3d6000fd5b5050505050565b600061200c82600160008573ffffffffffffffffffffffffffffffffffffffff1673ffffffffffffffffffffffffffffffffffffffff168152602001908152602001600020600101546125ea565b9050919050565b61201b61242d565b73ffffffffffffffffffffffffffffffffffffffff166120396118b8565b73ffffffffffffffffffffffffffffffffffffffff161461208f576040517f08c379a000000000000000000000000000000000000000000000000000000000815260040161208690614011565b60405180910390fd5b6127108210156120d4576040517f08c379a00000000000000000000000000000000000000000000000000000000081526004016120cb90613f51565b60405180910390fd5b612710811015612119576040517f08c379a0000000000000000000000000000000000000000000000000000000008152600401612110906140d1565b60405180910390fd5b81600d8190555080600e819055505050565b61271081565b61213961242d565b73ffffffffffffffffffffffffffffffffffffffff166121576118b8565b73ffffffffffffffffffffffffffffffffffffffff16146121ad576040517f08c379a00000000000000000000000000000000000000000000000000000000081526004016121a490614011565b60405180910390fd5b600073ffffffffffffffffffffffffffffffffffffffff168173ffffffffffffffffffffffffffffffffffffffff16141561221d576040517f08c379a000000000000000000000000000000000000000000000000000000000815260040161221490613fb1565b60405180910390fd5b80600860006101000a81548173ffffffffffffffffffffffffffffffffffffffff021916908373ffffffffffffffffffffffffffffffffffffffff16021790555050565b61226961242d565b73ffffffffffffffffffffffffffffffffffffffff166122876118b8565b73ffffffffffffffffffffffffffffffffffffffff16146122dd576040517f08c379a00000000000000000000000000000000000000000000000000000000081526004016122d490614011565b60405180910390fd5b600073ffffffffffffffffffffffffffffffffffffffff168173ffffffffffffffffffffffffffffffffffffffff16141561234d576040517f08c379a000000000000000000000000000000000000000000000000000000000815260040161234490613e91565b60405180910390fd5b8073ffffffffffffffffffffffffffffffffffffffff1660008054906101000a900473ffffffffffffffffffffffffffffffffffffffff1673ffffffffffffffffffffffffffffffffffffffff167f8be0079c531659141344cd1fd0a4f28419497f9722a3daafe3b4186f6b6457e060405160405180910390a3806000806101000a81548173ffffffffffffffffffffffffffffffffffffffff021916908373ffffffffffffffffffffffffffffffffffffffff16021790555050565b6000677fffffffffffffff82111561242157600080fd5b604082901b9050919050565b600033905090565b60008082600f0b141561244757600080fd5b600082600f0b604085600f0b901b81612489577f4e487b7100000000000000000000000000000000000000000000000000000000600052601260045260246000fd5b0590507fffffffffffffffffffffffffffffffff80000000000000000000000000000000600f0b81121580156124d257506f7fffffffffffffffffffffffffffffff600f0b8113155b6124db57600080fd5b8091505092915050565b600080604083600f0b85600f0b02901d90507fffffffffffffffffffffffffffffffff80000000000000000000000000000000600f0b811215801561253d57506f7fffffffffffffffffffffffffffffff600f0b8113155b61254657600080fd5b8091505092915050565b60006840000000000000000082600f0b1261256a57600080fd5b7fffffffffffffffffffffffffffffffffffffffffffffffc0000000000000000082600f0b121561259e57600090506125c4565b6125c16080700171547652b82fe1777d0ffda0d23a7d1284600f0b02901d612799565b90505b919050565b60008082600f0b12156125db57600080fd5b604082600f0b901d9050919050565b600080600160008573ffffffffffffffffffffffffffffffffffffffff1673ffffffffffffffffffffffffffffffffffffffff1681526020019081526020016000206000015490506000811415612645576000915050612793565b6000831415612677577fffffffffffffffffffffffffffffffffffffffffffffffffffffffffffffffff915050612793565b6000600860009054906101000a900473ffffffffffffffffffffffffffffffffffffffff16905060008173ffffffffffffffffffffffffffffffffffffffff1663d06ca61f8460096040518363ffffffff1660e01b81526004016126dc92919061412c565b60006040518083038186803b1580156126f457600080fd5b505afa158015612708573d6000803e3d6000fd5b505050506040513d6000823e3d601f19601f820116820180604052508101906127319190613537565b60028151811061276a577f4e487b7100000000000000000000000000000000000000000000000000000000600052603260045260246000fd5b602002602001015190508461271082612783919061430b565b61278d91906142da565b93505050505b92915050565b60006840000000000000000082600f0b126127b357600080fd5b7fffffffffffffffffffffffffffffffffffffffffffffffc0000000000000000082600f0b12156127e75760009050613394565b60006f80000000000000000000000000000000905060006780000000000000008416600f0b131561282d57608070016a09e667f3bcc908b2fb1366ea957d3e8202901c90505b60006740000000000000008416600f0b131561285e5760807001306fe0a31b7152de8d5a46305c85edec8202901c90505b60006720000000000000008416600f0b131561288f5760807001172b83c7d517adcdf7c8c50eb14a791f8202901c90505b60006710000000000000008416600f0b13156128c057608070010b5586cf9890f6298b92b71842a983638202901c90505b60006708000000000000008416600f0b13156128f15760807001059b0d31585743ae7c548eb68ca417fd8202901c90505b60006704000000000000008416600f0b1315612922576080700102c9a3e778060ee6f7caca4f7a29bde88202901c90505b60006702000000000000008416600f0b131561295357608070010163da9fb33356d84a66ae336dcdfa3f8202901c90505b60006701000000000000008416600f0b1315612984576080700100b1afa5abcbed6129ab13ec11dc95438202901c90505b600066800000000000008416600f0b13156129b457608070010058c86da1c09ea1ff19d294cf2f679b8202901c90505b600066400000000000008416600f0b13156129e45760807001002c605e2e8cec506d21bfc89a23a00f8202901c90505b600066200000000000008416600f0b1315612a14576080700100162f3904051fa128bca9c55c31e5df8202901c90505b600066100000000000008416600f0b1315612a445760807001000b175effdc76ba38e31671ca9397258202901c90505b600066080000000000008416600f0b1315612a74576080700100058ba01fb9f96d6cacd4b180917c3d8202901c90505b600066040000000000008416600f0b1315612aa457608070010002c5cc37da9491d0985c348c68e7b38202901c90505b600066020000000000008416600f0b1315612ad45760807001000162e525ee054754457d59952920268202901c90505b600066010000000000008416600f0b1315612b0457608070010000b17255775c040618bf4a4ade83fc8202901c90505b6000658000000000008416600f0b1315612b335760807001000058b91b5bc9ae2eed81e9b7d4cfab8202901c90505b6000654000000000008416600f0b1315612b62576080700100002c5c89d5ec6ca4d7c8acc017b7c98202901c90505b6000652000000000008416600f0b1315612b9157608070010000162e43f4f831060e02d839a9d16d8202901c90505b6000651000000000008416600f0b1315612bc0576080700100000b1721bcfc99d9f890ea069117638202901c90505b6000650800000000008416600f0b1315612bef57608070010000058b90cf1e6d97f9ca14dbcc16288202901c90505b6000650400000000008416600f0b1315612c1e5760807001000002c5c863b73f016468f6bac5ca2b8202901c90505b6000650200000000008416600f0b1315612c4d576080700100000162e430e5a18f6119e3c02282a58202901c90505b6000650100000000008416600f0b1315612c7c5760807001000000b1721835514b86e6d96efd1bfe8202901c90505b60006480000000008416600f0b1315612caa576080700100000058b90c0b48c6be5df846c5b2ef8202901c90505b60006440000000008416600f0b1315612cd857608070010000002c5c8601cc6b9e94213c72737a8202901c90505b60006420000000008416600f0b1315612d065760807001000000162e42fff037df38aa2b219f068202901c90505b60006410000000008416600f0b1315612d3457608070010000000b17217fba9c739aa5819f44f98202901c90505b60006408000000008416600f0b1315612d625760807001000000058b90bfcdee5acd3c1cedc8238202901c90505b60006404000000008416600f0b1315612d90576080700100000002c5c85fe31f35a6a30da1be508202901c90505b60006402000000008416600f0b1315612dbe57608070010000000162e42ff0999ce3541b9fffcf8202901c90505b60006401000000008416600f0b1315612dec576080700100000000b17217f80f4ef5aadda455548202901c90505b600063800000008416600f0b1315612e1957608070010000000058b90bfbf8479bd5a81b51ad8202901c90505b600063400000008416600f0b1315612e465760807001000000002c5c85fdf84bd62ae30a74cc8202901c90505b600063200000008416600f0b1315612e73576080700100000000162e42fefb2fed257559bdaa8202901c90505b600063100000008416600f0b1315612ea05760807001000000000b17217f7d5a7716bba4a9ae8202901c90505b600063080000008416600f0b1315612ecd576080700100000000058b90bfbe9ddbac5e109cce8202901c90505b600063040000008416600f0b1315612efa57608070010000000002c5c85fdf4b15de6f17eb0d8202901c90505b600063020000008416600f0b1315612f275760807001000000000162e42fefa494f1478fde058202901c90505b600063010000008416600f0b1315612f5457608070010000000000b17217f7d20cf927c8e94c8202901c90505b6000628000008416600f0b1315612f805760807001000000000058b90bfbe8f71cb4e4b33d8202901c90505b6000624000008416600f0b1315612fac576080700100000000002c5c85fdf477b662b269458202901c90505b6000622000008416600f0b1315612fd857608070010000000000162e42fefa3ae53369388c8202901c90505b6000621000008416600f0b1315613004576080700100000000000b17217f7d1d351a389d408202901c90505b6000620800008416600f0b131561303057608070010000000000058b90bfbe8e8b2d3d4ede8202901c90505b6000620400008416600f0b131561305c5760807001000000000002c5c85fdf4741bea6e77e8202901c90505b6000620200008416600f0b1315613088576080700100000000000162e42fefa39fe95583c28202901c90505b6000620100008416600f0b13156130b45760807001000000000000b17217f7d1cfb72b45e18202901c90505b60006180008416600f0b13156130df576080700100000000000058b90bfbe8e7cc35c3f08202901c90505b60006140008416600f0b131561310a57608070010000000000002c5c85fdf473e242ea388202901c90505b60006120008416600f0b13156131355760807001000000000000162e42fefa39f02b772c8202901c90505b60006110008416600f0b131561316057608070010000000000000b17217f7d1cf7d83c1a8202901c90505b60006108008416600f0b131561318b5760807001000000000000058b90bfbe8e7bdcbe2e8202901c90505b60006104008416600f0b13156131b6576080700100000000000002c5c85fdf473dea871f8202901c90505b60006102008416600f0b13156131e157608070010000000000000162e42fefa39ef44d918202901c90505b60006101008416600f0b131561320c576080700100000000000000b17217f7d1cf79e9498202901c90505b600060808416600f0b131561323657608070010000000000000058b90bfbe8e7bce5448202901c90505b600060408416600f0b13156132605760807001000000000000002c5c85fdf473de6eca8202901c90505b600060208416600f0b131561328a576080700100000000000000162e42fefa39ef366f8202901c90505b600060108416600f0b13156132b45760807001000000000000000b17217f7d1cf79afa8202901c90505b600060088416600f0b13156132de576080700100000000000000058b90bfbe8e7bcd6d8202901c90505b600060048416600f0b131561330857608070010000000000000002c5c85fdf473de6b28202901c90505b600060028416600f0b13156133325760807001000000000000000162e42fefa39ef3588202901c90505b600060018416600f0b131561335c57608070010000000000000000b17217f7d1cf79ab8202901c90505b604083600f0b901d603f03600f0b81901c90506f7fffffffffffffffffffffffffffffff600f0b81111561338f57600080fd5b809150505b919050565b60006133ac6133a784614209565b6141d8565b905080838252602082019050828560208602820111156133cb57600080fd5b60005b858110156133fb57816133e1888261346e565b8452602084019350602083019250506001810190506133ce565b5050509392505050565b600081359050613414816144e7565b92915050565b600082601f83011261342b57600080fd5b815161343b848260208601613399565b91505092915050565b600081519050613453816144fe565b92915050565b60008135905061346881614515565b92915050565b60008151905061347d81614515565b92915050565b60006020828403121561349557600080fd5b60006134a384828501613405565b91505092915050565b6000806000606084860312156134c157600080fd5b60006134cf86828701613405565b93505060206134e086828701613405565b92505060406134f186828701613405565b9150509250925092565b6000806040838503121561350e57600080fd5b600061351c85828601613405565b925050602061352d85828601613459565b9150509250929050565b60006020828403121561354957600080fd5b600082015167ffffffffffffffff81111561356357600080fd5b61356f8482850161341a565b91505092915050565b60006020828403121561358a57600080fd5b600061359884828501613444565b91505092915050565b6000602082840312156135b357600080fd5b60006135c184828501613459565b91505092915050565b6000602082840312156135dc57600080fd5b60006135ea8482850161346e565b91505092915050565b6000806040838503121561360657600080fd5b600061361485828601613459565b925050602061362585828601613459565b9150509250929050565b60008060006060848603121561364457600080fd5b600061365286828701613459565b935050602061366386828701613459565b925050604061367486828701613459565b9150509250925092565b600061368a8383613696565b60208301905092915050565b61369f816143b9565b82525050565b6136ae816143b9565b82525050565b60006136bf8261424a565b6136c98185614262565b93506136d483614235565b8060005b8381101561370c576136e9826144c7565b6136f3888261367e565b97506136fe83614255565b9250506001810190506136d8565b5085935050505092915050565b613722816143d7565b82525050565b6137318161440e565b82525050565b6000613744601483614273565b91507f55534443207472616e73666572206661696c65640000000000000000000000006000830152602082019050919050565b6000613784602983614273565b91507f6e6f7420656e6f75676820636f6c6c61746572616c20746f20626f72726f772060008301527f74686174206d75636800000000000000000000000000000000000000000000006020830152604082019050919050565b60006137ea602683614273565b91507f4f776e61626c653a206e6577206f776e657220697320746865207a65726f206160008301527f64647265737300000000000000000000000000000000000000000000000000006020830152604082019050919050565b6000613850602283614273565b91507f6163636f756e7420616c72656164792062656c6f77207361666574792072617460008301527f696f0000000000000000000000000000000000000000000000000000000000006020830152604082019050919050565b60006138b6601483614273565b91507f63616e2774206d696e74207a65726f205553445a0000000000000000000000006000830152602082019050919050565b60006138f6600e83614273565b91507f63616e277420626f72726f7720300000000000000000000000000000000000006000830152602082019050919050565b6000613936601983614273565b91507f6163636f756e7420686173206e6f20636f6c6c61746572616c000000000000006000830152602082019050919050565b6000613976601883614273565b91507f7769746864726177207472616e73666572206661696c656400000000000000006000830152602082019050919050565b60006139b6602983614273565b91507f626f72726f77207468726573686f6c64206d757374206265203e207363616c6960008301527f6e6720666163746f7200000000000000000000000000000000000000000000006020830152604082019050919050565b6000613a1c601983614273565b91507f616d6f756e7420756e7361666520746f207769746864726177000000000000006000830152602082019050919050565b6000613a5c601583614273565b91507f6c69712066656573206f7574206f662072616e676500000000000000000000006000830152602082019050919050565b6000613a9c601883614273565b91507f7a65726f2061646472657373206e6f7420616c6c6f77656400000000000000006000830152602082019050919050565b6000613adc601483614273565b91507f55534443207265736572766520746f6f206c6f770000000000000000000000006000830152602082019050919050565b6000613b1c601583614273565b91507f7265706179207472616e73666572206661696c656400000000000000000000006000830152602082019050919050565b6000613b5c602083614273565b91507f4f776e61626c653a2063616c6c6572206973206e6f7420746865206f776e65726000830152602082019050919050565b6000613b9c600d83614273565b91507f63616e27742072657061792030000000000000000000000000000000000000006000830152602082019050919050565b6000613bdc601883614273565b91507f6c6971206665657320696e636f72726563746c792073657400000000000000006000830152602082019050919050565b6000613c1c601f83614273565b91507f6163636f756e74206e6f742062656c6f77206c6971207468726573686f6c64006000830152602082019050919050565b6000613c5c600e83614273565b91507f6465706f736974206661696c65640000000000000000000000000000000000006000830152602082019050919050565b6000613c9c601983614273565b91507f696e74657265737452617465206f7574206f662072616e6765000000000000006000830152602082019050919050565b6000613cdc602683614273565b91507f6c6971207468726573686f6c64206d757374206265203e207363616c696e672060008301527f666163746f7200000000000000000000000000000000000000000000000000006020830152604082019050919050565b6000613d42602083614273565b91507f6e6f7420656e6f75676820636f6c6c61746572616c20696e206163636f756e746000830152602082019050919050565b613d7e81614404565b82525050565b6000602082019050613d9960008301846136a5565b92915050565b6000606082019050613db460008301866136a5565b613dc160208301856136a5565b613dce6040830184613d75565b949350505050565b6000604082019050613deb60008301856136a5565b613df86020830184613d75565b9392505050565b6000602082019050613e146000830184613719565b92915050565b6000606082019050613e2f6000830186613728565b613e3c6020830185613728565b613e496040830184613728565b949350505050565b60006020820190508181036000830152613e6a81613737565b9050919050565b60006020820190508181036000830152613e8a81613777565b9050919050565b60006020820190508181036000830152613eaa816137dd565b9050919050565b60006020820190508181036000830152613eca81613843565b9050919050565b60006020820190508181036000830152613eea816138a9565b9050919050565b60006020820190508181036000830152613f0a816138e9565b9050919050565b60006020820190508181036000830152613f2a81613929565b9050919050565b60006020820190508181036000830152613f4a81613969565b9050919050565b60006020820190508181036000830152613f6a816139a9565b9050919050565b60006020820190508181036000830152613f8a81613a0f565b9050919050565b60006020820190508181036000830152613faa81613a4f565b9050919050565b60006020820190508181036000830152613fca81613a8f565b9050919050565b60006020820190508181036000830152613fea81613acf565b9050919050565b6000602082019050818103600083015261400a81613b0f565b9050919050565b6000602082019050818103600083015261402a81613b4f565b9050919050565b6000602082019050818103600083015261404a81613b8f565b9050919050565b6000602082019050818103600083015261406a81613bcf565b9050919050565b6000602082019050818103600083015261408a81613c0f565b9050919050565b600060208201905081810360008301526140aa81613c4f565b9050919050565b600060208201905081810360008301526140ca81613c8f565b9050919050565b600060208201905081810360008301526140ea81613ccf565b9050919050565b6000602082019050818103600083015261410a81613d35565b9050919050565b60006020820190506141266000830184613d75565b92915050565b60006040820190506141416000830185613d75565b818103602083015261415381846136b4565b90509392505050565b60006060820190506141716000830186613d75565b61417e6020830185613d75565b61418b6040830184613d75565b949350505050565b60006080820190506141a86000830187613d75565b6141b56020830186613d75565b6141c26040830185613d75565b6141cf6060830184613d75565b95945050505050565b6000604051905081810181811067ffffffffffffffff821117156141ff576141fe614498565b5b8060405250919050565b600067ffffffffffffffff82111561422457614223614498565b5b602082029050602081019050919050565b60008190508160005260206000209050919050565b600081549050919050565b6000600182019050919050565b600082825260208201905092915050565b600082825260208201905092915050565b600061428f82614404565b915061429a83614404565b9250827fffffffffffffffffffffffffffffffffffffffffffffffffffffffffffffffff038211156142cf576142ce61443a565b5b828201905092915050565b60006142e582614404565b91506142f083614404565b925082614300576142ff614469565b5b828204905092915050565b600061431682614404565b915061432183614404565b9250817fffffffffffffffffffffffffffffffffffffffffffffffffffffffffffffffff048311821515161561435a5761435961443a565b5b828202905092915050565b600061437082614404565b915061437b83614404565b92508282101561438e5761438d61443a565b5b828203905092915050565b600073ffffffffffffffffffffffffffffffffffffffff82169050919050565b60006143c4826143e4565b9050919050565b60008115159050919050565b600081600f0b9050919050565b600073ffffffffffffffffffffffffffffffffffffffff82169050919050565b6000819050919050565b600061441982614404565b9050919050565b600061443361442e836144da565b614399565b9050919050565b7f4e487b7100000000000000000000000000000000000000000000000000000000600052601160045260246000fd5b7f4e487b7100000000000000000000000000000000000000000000000000000000600052601260045260246000fd5b7f4e487b7100000000000000000000000000000000000000000000000000000000600052604160045260246000fd5b60006144d38254614420565b9050919050565b60008160001c9050919050565b6144f0816143b9565b81146144fb57600080fd5b50565b614507816143cb565b811461451257600080fd5b50565b61451e81614404565b811461452957600080fd5b5056fea2646970667358221220d2ca8aff2d8f0ed17f736821fc3c2692d8cb3ab79b5d3e085d9816ff9597b02f64736f6c63430008000033",
  "linkReferences": {},
  "deployedLinkReferences": {}
}