{
  "_format": "hh-sol-artifact-1",
  "contractName": "Controller",
  "sourceName": "contracts/Controller.sol",
  "abi": [
    {
      "inputs": [
        {
          "internalType": "address",
          "name": "_usdzAddress",
          "type": "address"
        },
        {
          "internalType": "address",
          "name": "_usdcAddress",
          "type": "address"
        },
        {
          "internalType": "address",
          "name": "_xSushiAddress",
          "type": "address"
        },
        {
          "internalType": "address",
          "name": "_routerAddress",
          "type": "address"
        },
        {
          "internalType": "address[]",
          "name": "_swapPath",
          "type": "address[]"
        },
        {
          "internalType": "uint256",
          "name": "_liqFeeProtocol",
          "type": "uint256"
        },
        {
          "internalType": "uint256",
          "name": "_liqFeeSender",
          "type": "uint256"
        },
        {
          "internalType": "uint256",
          "name": "_interestRate",
          "type": "uint256"
        },
        {
          "internalType": "uint256",
          "name": "_borrowThreshold",
          "type": "uint256"
        },
        {
          "internalType": "uint256",
          "name": "_liqThreshold",
          "type": "uint256"
        }
      ],
      "stateMutability": "nonpayable",
      "type": "constructor"
    },
    {
      "anonymous": false,
      "inputs": [
        {
          "indexed": true,
          "internalType": "address",
          "name": "account",
          "type": "address"
        },
        {
          "indexed": false,
          "internalType": "uint256",
          "name": "amountBorrowed",
          "type": "uint256"
        },
        {
          "indexed": false,
          "internalType": "uint256",
          "name": "totalDebt",
          "type": "uint256"
        },
        {
          "indexed": false,
          "internalType": "uint256",
          "name": "collateralAmount",
          "type": "uint256"
        }
      ],
      "name": "Borrow",
      "type": "event"
    },
    {
      "anonymous": false,
      "inputs": [
        {
          "indexed": true,
          "internalType": "address",
          "name": "account",
          "type": "address"
        },
        {
          "indexed": false,
          "internalType": "uint256",
          "name": "amount",
          "type": "uint256"
        }
      ],
      "name": "Deposit",
      "type": "event"
    },
    {
      "anonymous": false,
      "inputs": [
        {
          "indexed": true,
          "internalType": "address",
          "name": "account",
          "type": "address"
        },
        {
          "indexed": true,
          "internalType": "address",
          "name": "liquidator",
          "type": "address"
        },
        {
          "indexed": false,
          "internalType": "uint256",
          "name": "collateralLiquidated",
          "type": "uint256"
        },
        {
          "indexed": false,
          "internalType": "uint256",
          "name": "lastCollateralRatio",
          "type": "uint256"
        },
        {
          "indexed": false,
          "internalType": "uint256",
          "name": "lastDebtOutstanding",
          "type": "uint256"
        }
      ],
      "name": "Liquidation",
      "type": "event"
    },
    {
      "anonymous": false,
      "inputs": [
        {
          "indexed": true,
          "internalType": "address",
          "name": "previousOwner",
          "type": "address"
        },
        {
          "indexed": true,
          "internalType": "address",
          "name": "newOwner",
          "type": "address"
        }
      ],
      "name": "OwnershipTransferred",
      "type": "event"
    },
    {
      "anonymous": false,
      "inputs": [
        {
          "indexed": true,
          "internalType": "address",
          "name": "account",
          "type": "address"
        },
        {
          "indexed": false,
          "internalType": "uint256",
          "name": "debtRepaid",
          "type": "uint256"
        },
        {
          "indexed": false,
          "internalType": "uint256",
          "name": "debtRemaining",
          "type": "uint256"
        },
        {
          "indexed": false,
          "internalType": "uint256",
          "name": "collateralAmount",
          "type": "uint256"
        }
      ],
      "name": "Repay",
      "type": "event"
    },
    {
      "anonymous": false,
      "inputs": [
        {
          "indexed": true,
          "internalType": "address",
          "name": "account",
          "type": "address"
        },
        {
          "indexed": false,
          "internalType": "uint256",
          "name": "amount",
          "type": "uint256"
        }
      ],
      "name": "Withdraw",
      "type": "event"
    },
    {
      "inputs": [],
      "name": "SCALING_FACTOR",
      "outputs": [
        {
          "internalType": "uint256",
          "name": "",
          "type": "uint256"
        }
      ],
      "stateMutability": "view",
      "type": "function"
    },
    {
      "inputs": [],
      "name": "SECONDS_IN_YEAR",
      "outputs": [
        {
          "internalType": "int128",
          "name": "",
          "type": "int128"
        }
      ],
      "stateMutability": "view",
      "type": "function"
    },
    {
      "inputs": [
        {
          "internalType": "uint256",
          "name": "_amount",
          "type": "uint256"
        }
      ],
      "name": "borrow",
      "outputs": [],
      "stateMutability": "nonpayable",
      "type": "function"
    },
    {
      "inputs": [],
      "name": "borrowThreshold",
      "outputs": [
        {
          "internalType": "uint256",
          "name": "",
          "type": "uint256"
        }
      ],
      "stateMutability": "view",
      "type": "function"
    },
    {
      "inputs": [
        {
          "internalType": "address",
          "name": "_account",
          "type": "address"
        }
      ],
      "name": "calcInterest",
      "outputs": [
        {
          "internalType": "uint256",
          "name": "interest",
          "type": "uint256"
        }
      ],
      "stateMutability": "view",
      "type": "function"
    },
    {
      "inputs": [
        {
          "internalType": "uint256",
          "name": "_amount",
          "type": "uint256"
        }
      ],
      "name": "claimFees",
      "outputs": [],
      "stateMutability": "nonpayable",
      "type": "function"
    },
    {
      "inputs": [
        {
          "internalType": "uint256",
          "name": "_amount",
          "type": "uint256"
        }
      ],
      "name": "deposit",
      "outputs": [],
      "stateMutability": "nonpayable",
      "type": "function"
    },
    {
      "inputs": [
        {
          "internalType": "address",
          "name": "_account",
          "type": "address"
        }
      ],
      "name": "getCurrentCollateralRatio",
      "outputs": [
        {
          "internalType": "uint256",
          "name": "",
          "type": "uint256"
        }
      ],
      "stateMutability": "view",
      "type": "function"
    },
    {
      "inputs": [
        {
          "internalType": "address",
          "name": "_account",
          "type": "address"
        },
        {
          "internalType": "uint256",
          "name": "_totalDebt",
          "type": "uint256"
        }
      ],
      "name": "getForwardCollateralRatio",
      "outputs": [
        {
          "internalType": "uint256",
          "name": "",
          "type": "uint256"
        }
      ],
      "stateMutability": "view",
      "type": "function"
    },
    {
      "inputs": [
        {
          "internalType": "address",
          "name": "_account",
          "type": "address"
        }
      ],
      "name": "getPosition",
      "outputs": [
        {
          "internalType": "uint256",
          "name": "",
          "type": "uint256"
        },
        {
          "internalType": "uint256",
          "name": "",
          "type": "uint256"
        },
        {
          "internalType": "uint256",
          "name": "",
          "type": "uint256"
        },
        {
          "internalType": "uint256",
          "name": "",
          "type": "uint256"
        }
      ],
      "stateMutability": "view",
      "type": "function"
    },
    {
      "inputs": [],
      "name": "interestRate",
      "outputs": [
        {
          "internalType": "uint256",
          "name": "",
          "type": "uint256"
        }
      ],
      "stateMutability": "view",
      "type": "function"
    },
    {
      "inputs": [],
      "name": "liqFeeProtocol",
      "outputs": [
        {
          "internalType": "uint256",
          "name": "",
          "type": "uint256"
        }
      ],
      "stateMutability": "view",
      "type": "function"
    },
    {
      "inputs": [],
      "name": "liqFeeSender",
      "outputs": [
        {
          "internalType": "uint256",
          "name": "",
          "type": "uint256"
        }
      ],
      "stateMutability": "view",
      "type": "function"
    },
    {
      "inputs": [],
      "name": "liqThreshold",
      "outputs": [
        {
          "internalType": "uint256",
          "name": "",
          "type": "uint256"
        }
      ],
      "stateMutability": "view",
      "type": "function"
    },
    {
      "inputs": [
        {
          "internalType": "address",
          "name": "_account",
          "type": "address"
        }
      ],
      "name": "liquidate",
      "outputs": [],
      "stateMutability": "nonpayable",
      "type": "function"
    },
    {
      "inputs": [],
      "name": "owner",
      "outputs": [
        {
          "internalType": "address",
          "name": "",
          "type": "address"
        }
      ],
      "stateMutability": "view",
      "type": "function"
    },
    {
      "inputs": [],
      "name": "protocolDebt",
      "outputs": [
        {
          "internalType": "uint256",
          "name": "",
          "type": "uint256"
        }
      ],
      "stateMutability": "view",
      "type": "function"
    },
    {
      "inputs": [],
      "name": "protocolIntRev",
      "outputs": [
        {
          "internalType": "uint256",
          "name": "",
          "type": "uint256"
        }
      ],
      "stateMutability": "view",
      "type": "function"
    },
    {
      "inputs": [],
      "name": "renounceOwnership",
      "outputs": [],
      "stateMutability": "nonpayable",
      "type": "function"
    },
    {
      "inputs": [
        {
          "internalType": "uint256",
          "name": "_amount",
          "type": "uint256"
        }
      ],
      "name": "repay",
      "outputs": [],
      "stateMutability": "nonpayable",
      "type": "function"
    },
    {
      "inputs": [
        {
          "internalType": "uint256",
          "name": "_liqFeeProtocol",
          "type": "uint256"
        },
        {
          "internalType": "uint256",
          "name": "_liqFeeSender",
          "type": "uint256"
        },
        {
          "internalType": "uint256",
          "name": "_interestRate",
          "type": "uint256"
        }
      ],
      "name": "setFeesAndRates",
      "outputs": [],
      "stateMutability": "nonpayable",
      "type": "function"
    },
    {
      "inputs": [
        {
          "internalType": "address",
          "name": "_sushiRouter",
          "type": "address"
        }
      ],
      "name": "setSushiAddresses",
      "outputs": [],
      "stateMutability": "nonpayable",
      "type": "function"
    },
    {
      "inputs": [
        {
          "internalType": "uint256",
          "name": "_borrowThreshold",
          "type": "uint256"
        },
        {
          "internalType": "uint256",
          "name": "_liqThreshold",
          "type": "uint256"
        }
      ],
      "name": "setThresholds",
      "outputs": [],
      "stateMutability": "nonpayable",
      "type": "function"
    },
    {
      "inputs": [
        {
          "internalType": "address",
          "name": "_usdz",
          "type": "address"
        },
        {
          "internalType": "address",
          "name": "_usdc",
          "type": "address"
        },
        {
          "internalType": "address",
          "name": "_xsushi",
          "type": "address"
        }
      ],
      "name": "setTokenAddresses",
      "outputs": [],
      "stateMutability": "nonpayable",
      "type": "function"
    },
    {
      "inputs": [],
      "name": "sushiRouterAddress",
      "outputs": [
        {
          "internalType": "address",
          "name": "",
          "type": "address"
        }
      ],
      "stateMutability": "view",
      "type": "function"
    },
    {
      "inputs": [
        {
          "internalType": "uint256",
          "name": "_usdcAmount",
          "type": "uint256"
        }
      ],
      "name": "swapUSDCforUSDZ",
      "outputs": [],
      "stateMutability": "nonpayable",
      "type": "function"
    },
    {
      "inputs": [
        {
          "internalType": "uint256",
          "name": "_usdzAmount",
          "type": "uint256"
        }
      ],
      "name": "swapUSDZforUSDC",
      "outputs": [],
      "stateMutability": "nonpayable",
      "type": "function"
    },
    {
      "inputs": [
        {
          "internalType": "address",
          "name": "newOwner",
          "type": "address"
        }
      ],
      "name": "transferOwnership",
      "outputs": [],
      "stateMutability": "nonpayable",
      "type": "function"
    },
    {
      "inputs": [],
      "name": "usdcAddress",
      "outputs": [
        {
          "internalType": "address",
          "name": "",
          "type": "address"
        }
      ],
      "stateMutability": "view",
      "type": "function"
    },
    {
      "inputs": [],
      "name": "usdzAddress",
      "outputs": [
        {
          "internalType": "address",
          "name": "",
          "type": "address"
        }
      ],
      "stateMutability": "view",
      "type": "function"
    },
    {
      "inputs": [
        {
          "internalType": "uint256",
          "name": "_amount",
          "type": "uint256"
        }
      ],
      "name": "withdraw",
      "outputs": [],
      "stateMutability": "nonpayable",
      "type": "function"
    },
    {
      "inputs": [],
      "name": "xSushiAddress",
      "outputs": [
        {
          "internalType": "address",
          "name": "",
          "type": "address"
        }
      ],
      "stateMutability": "view",
      "type": "function"
    },
    {
      "inputs": [
        {
          "internalType": "uint256",
          "name": "",
          "type": "uint256"
        }
      ],
      "name": "xSushiToUsdcPath",
      "outputs": [
        {
          "internalType": "address",
          "name": "",
          "type": "address"
        }
      ],
      "stateMutability": "view",
      "type": "function"
    }
  ],
  "bytecode": "0x60806040523480156200001157600080fd5b5060405162004a8338038062004a83833981810160405281019062000037919062000436565b6000620000496200028c60201b60201c565b9050806000806101000a81548173ffffffffffffffffffffffffffffffffffffffff021916908373ffffffffffffffffffffffffffffffffffffffff1602179055508073ffffffffffffffffffffffffffffffffffffffff16600073ffffffffffffffffffffffffffffffffffffffff167f8be0079c531659141344cd1fd0a4f28419497f9722a3daafe3b4186f6b6457e060405160405180910390a35089600660006101000a81548173ffffffffffffffffffffffffffffffffffffffff021916908373ffffffffffffffffffffffffffffffffffffffff16021790555088600560006101000a81548173ffffffffffffffffffffffffffffffffffffffff021916908373ffffffffffffffffffffffffffffffffffffffff16021790555087600760006101000a81548173ffffffffffffffffffffffffffffffffffffffff021916908373ffffffffffffffffffffffffffffffffffffffff16021790555086600860006101000a81548173ffffffffffffffffffffffffffffffffffffffff021916908373ffffffffffffffffffffffffffffffffffffffff16021790555084600a8190555083600b8190555082600c8190555081600d8190555080600e81905550856009908051906020019062000226929190620002b8565b50620002416301e185586200029460201b620023381760201c565b600f60006101000a8154816fffffffffffffffffffffffffffffffff0219169083600f0b6fffffffffffffffffffffffffffffffff1602179055505050505050505050505062000643565b600033905090565b6000677fffffffffffffff821115620002ac57600080fd5b604082901b9050919050565b82805482825590600052602060002090810192821562000334579160200282015b82811115620003335782518260006101000a81548173ffffffffffffffffffffffffffffffffffffffff021916908373ffffffffffffffffffffffffffffffffffffffff16021790555091602001919060010190620002d9565b5b50905062000343919062000347565b5090565b5b808211156200036257600081600090555060010162000348565b5090565b60006200037d620003778462000573565b6200053f565b905080838252602082019050828560208602820111156200039d57600080fd5b60005b85811015620003d15781620003b68882620003db565b845260208401935060208301925050600181019050620003a0565b5050509392505050565b600081519050620003ec816200060f565b92915050565b600082601f8301126200040457600080fd5b81516200041684826020860162000366565b91505092915050565b600081519050620004308162000629565b92915050565b6000806000806000806000806000806101408b8d0312156200045757600080fd5b6000620004678d828e01620003db565b9a505060206200047a8d828e01620003db565b99505060406200048d8d828e01620003db565b9850506060620004a08d828e01620003db565b97505060808b015167ffffffffffffffff811115620004be57600080fd5b620004cc8d828e01620003f2565b96505060a0620004df8d828e016200041f565b95505060c0620004f28d828e016200041f565b94505060e0620005058d828e016200041f565b935050610100620005198d828e016200041f565b9250506101206200052d8d828e016200041f565b9150509295989b9194979a5092959850565b6000604051905081810181811067ffffffffffffffff82111715620005695762000568620005e0565b5b8060405250919050565b600067ffffffffffffffff821115620005915762000590620005e0565b5b602082029050602081019050919050565b6000620005af82620005b6565b9050919050565b600073ffffffffffffffffffffffffffffffffffffffff82169050919050565b6000819050919050565b7f4e487b7100000000000000000000000000000000000000000000000000000000600052604160045260246000fd5b6200061a81620005a2565b81146200062657600080fd5b50565b6200063481620005d6565b81146200064057600080fd5b50565b61443080620006536000396000f3fe608060405234801561001057600080fd5b50600436106101fb5760003560e01c806379bbce8f1161011a578063bdfccad3116100ad578063daf5539e1161007c578063daf5539e1461056b578063e3064a771461059b578063ef4cadc5146105b7578063f248e7e8146105d5578063f2fde38b146105f1576101fb565b8063bdfccad3146104f9578063bfaf48d414610517578063c5ebeaec14610533578063cde5f6721461054f576101fb565b8063ac68a748116100e9578063ac68a74814610485578063ae2293d7146104a1578063b6b55f25146104bf578063bd48b2df146104db576101fb565b806379bbce8f1461040d5780637c3a00fd1461042b5780638da5cb5b14610449578063927e0a8f14610467576101fb565b80634a63a5ce1161019257806369cb89c71161016157806369cb89c7146103855780637046b7a9146103b5578063715018a6146103e557806373487251146103ef576101fb565b80634a63a5ce146102fd5780634d3f9d3e1461032d5780635ae547e3146103495780635dcc939114610367576101fb565b80632e1a7d4d116101ce5780632e1a7d4d1461028b5780632f865568146102a7578063371fd8e6146102c3578063410e73f7146102df576101fb565b806302d454571461020057806316c197391461021e5780631d89b1031461025157806320bdf8001461026d575b600080fd5b61020861060d565b6040516102159190613c72565b60405180910390f35b610238600480360381019061023391906133b1565b610633565b6040516102489493929190614061565b60405180910390f35b61026b600480360381019061026691906134cf565b610724565b005b610275610959565b6040516102829190613c72565b60405180910390f35b6102a560048036038101906102a091906134cf565b61097f565b005b6102c160048036038101906102bc91906133b1565b610c71565b005b6102dd60048036038101906102d891906134cf565b610e48565b005b6102e7611173565b6040516102f49190613fdf565b60405180910390f35b610317600480360381019061031291906134cf565b611179565b6040516103249190613c72565b60405180910390f35b610347600480360381019061034291906133da565b6111b8565b005b6103516113de565b60405161035e9190613fdf565b60405180910390f35b61036f6113e4565b60405161037c9190613ced565b60405180910390f35b61039f600480360381019061039a91906133b1565b6113f7565b6040516103ac9190613fdf565b60405180910390f35b6103cf60048036038101906103ca9190613429565b611666565b6040516103dc9190613fdf565b60405180910390f35b6103ed61167a565b005b6103f76117b4565b6040516104049190613fdf565b60405180910390f35b6104156117ba565b6040516104229190613c72565b60405180910390f35b6104336117e0565b6040516104409190613fdf565b60405180910390f35b6104516117e6565b60405161045e9190613c72565b60405180910390f35b61046f61180f565b60405161047c9190613fdf565b60405180910390f35b61049f600480360381019061049a91906134cf565b611815565b005b6104a9611818565b6040516104b69190613fdf565b60405180910390f35b6104d960048036038101906104d491906134cf565b61181e565b005b6104e36119b8565b6040516104f09190613fdf565b60405180910390f35b6105016119be565b60405161050e9190613c72565b60405180910390f35b610531600480360381019061052c919061355d565b6119e4565b005b61054d600480360381019061054891906134cf565b611b0f565b005b610569600480360381019061056491906134cf565b611d27565b005b610585600480360381019061058091906133b1565b611eec565b6040516105929190613fdf565b60405180910390f35b6105b560048036038101906105b09190613521565b611f41565b005b6105bf612059565b6040516105cc9190613fdf565b60405180910390f35b6105ef60048036038101906105ea91906133b1565b61205f565b005b61060b600480360381019061060691906133b1565b61218f565b005b600560009054906101000a900473ffffffffffffffffffffffffffffffffffffffff1681565b600080600080610642856113f7565b50600160008673ffffffffffffffffffffffffffffffffffffffff1673ffffffffffffffffffffffffffffffffffffffff16815260200190815260200160002060000154600160008773ffffffffffffffffffffffffffffffffffffffff1673ffffffffffffffffffffffffffffffffffffffff168152602001908152602001600020600101546106d2876113f7565b600160008973ffffffffffffffffffffffffffffffffffffffff1673ffffffffffffffffffffffffffffffffffffffff1681526020019081526020016000206002015493509350935093509193509193565b6000600560009054906101000a900473ffffffffffffffffffffffffffffffffffffffff1673ffffffffffffffffffffffffffffffffffffffff166370a08231306040518263ffffffff1660e01b81526004016107819190613c72565b60206040518083038186803b15801561079957600080fd5b505afa1580156107ad573d6000803e3d6000fd5b505050506040513d601f19601f820116820180604052508101906107d191906134f8565b905081811015610816576040517f08c379a000000000000000000000000000000000000000000000000000000000815260040161080d90613ebf565b60405180910390fd5b600660009054906101000a900473ffffffffffffffffffffffffffffffffffffffff1673ffffffffffffffffffffffffffffffffffffffff16639dc29fac33846040518363ffffffff1660e01b8152600401610873929190613cc4565b600060405180830381600087803b15801561088d57600080fd5b505af11580156108a1573d6000803e3d6000fd5b50505050600560009054906101000a900473ffffffffffffffffffffffffffffffffffffffff1673ffffffffffffffffffffffffffffffffffffffff1663a9059cbb33846040518363ffffffff1660e01b8152600401610902929190613cc4565b602060405180830381600087803b15801561091c57600080fd5b505af1158015610930573d6000803e3d6000fd5b505050506040513d601f19601f8201168201806040525081019061095491906134a6565b505050565b600660009054906101000a900473ffffffffffffffffffffffffffffffffffffffff1681565b6000600160003373ffffffffffffffffffffffffffffffffffffffff1673ffffffffffffffffffffffffffffffffffffffff16815260200190815260200160002090508181600001541015610a09576040517f08c379a0000000000000000000000000000000000000000000000000000000008152600401610a0090613fbf565b60405180910390fd5b6000610a14336113f7565b905080826001016000828254610a2a9190614152565b925050819055504282600201819055506000610a4533611eec565b9050600d548111610a8b576040517f08c379a0000000000000000000000000000000000000000000000000000000008152600401610a8290613d9f565b60405180910390fd5b60008084600101541415610aa55783600001549050610ad0565b600d5482610ab39190614233565b828560000154610ac391906141a8565b610acd91906141d9565b90505b84811015610b13576040517f08c379a0000000000000000000000000000000000000000000000000000000008152600401610b0a90613e5f565b60405180910390fd5b84846000016000828254610b279190614233565b92505081905550600760009054906101000a900473ffffffffffffffffffffffffffffffffffffffff1673ffffffffffffffffffffffffffffffffffffffff1663a9059cbb33876040518363ffffffff1660e01b8152600401610b8b929190613cc4565b602060405180830381600087803b158015610ba557600080fd5b505af1158015610bb9573d6000803e3d6000fd5b505050506040513d601f19601f82011682018060405250810190610bdd91906134a6565b610c1c576040517f08c379a0000000000000000000000000000000000000000000000000000000008152600401610c1390613e1f565b60405180910390fd5b3373ffffffffffffffffffffffffffffffffffffffff167f884edad9ce6fa2440d8a54cc123490eb96d2768479d49ff9c7366125a942436486604051610c629190613fdf565b60405180910390a25050505050565b6000600160008373ffffffffffffffffffffffffffffffffffffffff1673ffffffffffffffffffffffffffffffffffffffff16815260200190815260200160002090506000816000015411610cfb576040517f08c379a0000000000000000000000000000000000000000000000000000000008152600401610cf290613dff565b60405180910390fd5b6000610d06836113f7565b9050600e54610d2484838560010154610d1f9190614152565b611666565b10610d64576040517f08c379a0000000000000000000000000000000000000000000000000000000008152600401610d5b90613f3f565b60405180910390fd5b612710600a548360000154610d7991906141d9565b610d8391906141a8565b600260003073ffffffffffffffffffffffffffffffffffffffff1673ffffffffffffffffffffffffffffffffffffffff1681526020019081526020016000206000828254610dd19190614152565b925050819055503373ffffffffffffffffffffffffffffffffffffffff168373ffffffffffffffffffffffffffffffffffffffff167f5a821a618ddb1a1fd304234a69c9d7f20c129d122fcf35593d13a071926643076000806000604051610e3b93929190613d08565b60405180910390a3505050565b60008111610e8b576040517f08c379a0000000000000000000000000000000000000000000000000000000008152600401610e8290613f1f565b60405180910390fd5b6000600160003373ffffffffffffffffffffffffffffffffffffffff1673ffffffffffffffffffffffffffffffffffffffff1681526020019081526020016000209050610ed7336113f7565b816001016000828254610eea9190614152565b92505081905550428160020181905550818160010154111561101657600660009054906101000a900473ffffffffffffffffffffffffffffffffffffffff1673ffffffffffffffffffffffffffffffffffffffff166323b872dd3330856040518463ffffffff1660e01b8152600401610f6593929190613c8d565b602060405180830381600087803b158015610f7f57600080fd5b505af1158015610f93573d6000803e3d6000fd5b505050506040513d601f19601f82011682018060405250810190610fb791906134a6565b610ff6576040517f08c379a0000000000000000000000000000000000000000000000000000000008152600401610fed90613edf565b60405180910390fd5b8181600101600082825461100a9190614233565b92505081905550611115565b600660009054906101000a900473ffffffffffffffffffffffffffffffffffffffff1673ffffffffffffffffffffffffffffffffffffffff166323b872dd333084600101546040518463ffffffff1660e01b815260040161107993929190613c8d565b602060405180830381600087803b15801561109357600080fd5b505af11580156110a7573d6000803e3d6000fd5b505050506040513d601f19601f820116820180604052508101906110cb91906134a6565b61110a576040517f08c379a000000000000000000000000000000000000000000000000000000000815260040161110190613edf565b60405180910390fd5b600081600101819055505b3373ffffffffffffffffffffffffffffffffffffffff167f2fe77b1c99aca6b022b8efc6e3e8dd1b48b30748709339b65c50ef3263443e0983836001015484600001546040516111679392919061402a565b60405180910390a25050565b600a5481565b6009818154811061118957600080fd5b906000526020600020016000915054906101000a900473ffffffffffffffffffffffffffffffffffffffff1681565b6111c061235b565b73ffffffffffffffffffffffffffffffffffffffff166111de6117e6565b73ffffffffffffffffffffffffffffffffffffffff1614611234576040517f08c379a000000000000000000000000000000000000000000000000000000000815260040161122b90613eff565b60405180910390fd5b600073ffffffffffffffffffffffffffffffffffffffff168373ffffffffffffffffffffffffffffffffffffffff161415801561129e5750600073ffffffffffffffffffffffffffffffffffffffff168273ffffffffffffffffffffffffffffffffffffffff1614155b80156112d75750600073ffffffffffffffffffffffffffffffffffffffff168173ffffffffffffffffffffffffffffffffffffffff1614155b611316576040517f08c379a000000000000000000000000000000000000000000000000000000000815260040161130d90613e9f565b60405180910390fd5b82600660006101000a81548173ffffffffffffffffffffffffffffffffffffffff021916908373ffffffffffffffffffffffffffffffffffffffff16021790555081600560006101000a81548173ffffffffffffffffffffffffffffffffffffffff021916908373ffffffffffffffffffffffffffffffffffffffff16021790555080600760006101000a81548173ffffffffffffffffffffffffffffffffffffffff021916908373ffffffffffffffffffffffffffffffffffffffff160217905550505050565b600d5481565b600f60009054906101000a9004600f0b81565b600080600160008473ffffffffffffffffffffffffffffffffffffffff1673ffffffffffffffffffffffffffffffffffffffff16815260200190815260200160002060010154148061148b57506000600160008473ffffffffffffffffffffffffffffffffffffffff1673ffffffffffffffffffffffffffffffffffffffff16815260200190815260200160002060020154145b8061149857506000600c54145b806114e45750600160008373ffffffffffffffffffffffffffffffffffffffff1673ffffffffffffffffffffffffffffffffffffffff1681526020019081526020016000206002015442145b156114f25760009050611661565b6000600160008473ffffffffffffffffffffffffffffffffffffffff1673ffffffffffffffffffffffffffffffffffffffff16815260200190815260200160002060020154426115429190614233565b9050600061156761155283612338565b600f60009054906101000a9004600f0b612363565b90506000611589611579600c54612338565b611584612710612338565b612363565b905060006115d8600160008873ffffffffffffffffffffffffffffffffffffffff1673ffffffffffffffffffffffffffffffffffffffff16815260200190815260200160002060010154612338565b905060006115ff6115fa836115f56115f08789612413565b61247e565b612413565b6124f7565b9050600160008873ffffffffffffffffffffffffffffffffffffffff1673ffffffffffffffffffffffffffffffffffffffff168152602001908152602001600020600101548167ffffffffffffffff166116599190614233565b955050505050505b919050565b60006116728383612518565b905092915050565b61168261235b565b73ffffffffffffffffffffffffffffffffffffffff166116a06117e6565b73ffffffffffffffffffffffffffffffffffffffff16146116f6576040517f08c379a00000000000000000000000000000000000000000000000000000000081526004016116ed90613eff565b60405180910390fd5b600073ffffffffffffffffffffffffffffffffffffffff1660008054906101000a900473ffffffffffffffffffffffffffffffffffffffff1673ffffffffffffffffffffffffffffffffffffffff167f8be0079c531659141344cd1fd0a4f28419497f9722a3daafe3b4186f6b6457e060405160405180910390a360008060006101000a81548173ffffffffffffffffffffffffffffffffffffffff021916908373ffffffffffffffffffffffffffffffffffffffff160217905550565b60045481565b600860009054906101000a900473ffffffffffffffffffffffffffffffffffffffff1681565b600c5481565b60008060009054906101000a900473ffffffffffffffffffffffffffffffffffffffff16905090565b60035481565b50565b600e5481565b600760009054906101000a900473ffffffffffffffffffffffffffffffffffffffff1673ffffffffffffffffffffffffffffffffffffffff166323b872dd3330846040518463ffffffff1660e01b815260040161187d93929190613c8d565b602060405180830381600087803b15801561189757600080fd5b505af11580156118ab573d6000803e3d6000fd5b505050506040513d601f19601f820116820180604052508101906118cf91906134a6565b61190e576040517f08c379a000000000000000000000000000000000000000000000000000000000815260040161190590613f5f565b60405180910390fd5b80600160003373ffffffffffffffffffffffffffffffffffffffff1673ffffffffffffffffffffffffffffffffffffffff16815260200190815260200160002060000160008282546119609190614152565b925050819055503373ffffffffffffffffffffffffffffffffffffffff167fe1fffcc4923d04b559f4d29a8bfc6cda04eb5b0d3c460751c2402c5c5cc9109c826040516119ad9190613fdf565b60405180910390a250565b600b5481565b600760009054906101000a900473ffffffffffffffffffffffffffffffffffffffff1681565b6119ec61235b565b73ffffffffffffffffffffffffffffffffffffffff16611a0a6117e6565b73ffffffffffffffffffffffffffffffffffffffff1614611a60576040517f08c379a0000000000000000000000000000000000000000000000000000000008152600401611a5790613eff565b60405180910390fd5b6127108284611a6f9190614152565b1115611ab0576040517f08c379a0000000000000000000000000000000000000000000000000000000008152600401611aa790613e7f565b60405180910390fd5b82600a8190555081600b81905550612710811115611b03576040517f08c379a0000000000000000000000000000000000000000000000000000000008152600401611afa90613f7f565b60405180910390fd5b80600c81905550505050565b60008111611b52576040517f08c379a0000000000000000000000000000000000000000000000000000000008152600401611b4990613ddf565b60405180910390fd5b6000600160003373ffffffffffffffffffffffffffffffffffffffff1673ffffffffffffffffffffffffffffffffffffffff16815260200190815260200160002090506000611ba0336113f7565b9050600d54611bc93385848660010154611bba9190614152565b611bc49190614152565b611666565b1015611c0a576040517f08c379a0000000000000000000000000000000000000000000000000000000008152600401611c0190613d5f565b60405180910390fd5b8083611c169190614152565b826001016000828254611c299190614152565b92505081905550428260020181905550600660009054906101000a900473ffffffffffffffffffffffffffffffffffffffff1673ffffffffffffffffffffffffffffffffffffffff166340c10f1933856040518363ffffffff1660e01b8152600401611c96929190613cc4565b600060405180830381600087803b158015611cb057600080fd5b505af1158015611cc4573d6000803e3d6000fd5b505050503373ffffffffffffffffffffffffffffffffffffffff167f13ed6866d4e1ee6da46f845c46d7e54120883d75c5ea9a2dacc1c4ca8984ab808484600101548560000154604051611d1a9392919061402a565b60405180910390a2505050565b60008111611d6a576040517f08c379a0000000000000000000000000000000000000000000000000000000008152600401611d6190613dbf565b60405180910390fd5b600560009054906101000a900473ffffffffffffffffffffffffffffffffffffffff1673ffffffffffffffffffffffffffffffffffffffff166323b872dd3330846040518463ffffffff1660e01b8152600401611dc993929190613c8d565b602060405180830381600087803b158015611de357600080fd5b505af1158015611df7573d6000803e3d6000fd5b505050506040513d601f19601f82011682018060405250810190611e1b91906134a6565b611e5a576040517f08c379a0000000000000000000000000000000000000000000000000000000008152600401611e5190613d3f565b60405180910390fd5b600660009054906101000a900473ffffffffffffffffffffffffffffffffffffffff1673ffffffffffffffffffffffffffffffffffffffff166340c10f1933836040518363ffffffff1660e01b8152600401611eb7929190613cc4565b600060405180830381600087803b158015611ed157600080fd5b505af1158015611ee5573d6000803e3d6000fd5b5050505050565b6000611f3a82600160008573ffffffffffffffffffffffffffffffffffffffff1673ffffffffffffffffffffffffffffffffffffffff16815260200190815260200160002060010154612518565b9050919050565b611f4961235b565b73ffffffffffffffffffffffffffffffffffffffff16611f676117e6565b73ffffffffffffffffffffffffffffffffffffffff1614611fbd576040517f08c379a0000000000000000000000000000000000000000000000000000000008152600401611fb490613eff565b60405180910390fd5b612710821015612002576040517f08c379a0000000000000000000000000000000000000000000000000000000008152600401611ff990613e3f565b60405180910390fd5b612710811015612047576040517f08c379a000000000000000000000000000000000000000000000000000000000815260040161203e90613f9f565b60405180910390fd5b81600d8190555080600e819055505050565b61271081565b61206761235b565b73ffffffffffffffffffffffffffffffffffffffff166120856117e6565b73ffffffffffffffffffffffffffffffffffffffff16146120db576040517f08c379a00000000000000000000000000000000000000000000000000000000081526004016120d290613eff565b60405180910390fd5b600073ffffffffffffffffffffffffffffffffffffffff168173ffffffffffffffffffffffffffffffffffffffff16141561214b576040517f08c379a000000000000000000000000000000000000000000000000000000000815260040161214290613e9f565b60405180910390fd5b80600860006101000a81548173ffffffffffffffffffffffffffffffffffffffff021916908373ffffffffffffffffffffffffffffffffffffffff16021790555050565b61219761235b565b73ffffffffffffffffffffffffffffffffffffffff166121b56117e6565b73ffffffffffffffffffffffffffffffffffffffff161461220b576040517f08c379a000000000000000000000000000000000000000000000000000000000815260040161220290613eff565b60405180910390fd5b600073ffffffffffffffffffffffffffffffffffffffff168173ffffffffffffffffffffffffffffffffffffffff16141561227b576040517f08c379a000000000000000000000000000000000000000000000000000000000815260040161227290613d7f565b60405180910390fd5b8073ffffffffffffffffffffffffffffffffffffffff1660008054906101000a900473ffffffffffffffffffffffffffffffffffffffff1673ffffffffffffffffffffffffffffffffffffffff167f8be0079c531659141344cd1fd0a4f28419497f9722a3daafe3b4186f6b6457e060405160405180910390a3806000806101000a81548173ffffffffffffffffffffffffffffffffffffffff021916908373ffffffffffffffffffffffffffffffffffffffff16021790555050565b6000677fffffffffffffff82111561234f57600080fd5b604082901b9050919050565b600033905090565b60008082600f0b141561237557600080fd5b600082600f0b604085600f0b901b816123b7577f4e487b7100000000000000000000000000000000000000000000000000000000600052601260045260246000fd5b0590507fffffffffffffffffffffffffffffffff80000000000000000000000000000000600f0b811215801561240057506f7fffffffffffffffffffffffffffffff600f0b8113155b61240957600080fd5b8091505092915050565b600080604083600f0b85600f0b02901d90507fffffffffffffffffffffffffffffffff80000000000000000000000000000000600f0b811215801561246b57506f7fffffffffffffffffffffffffffffff600f0b8113155b61247457600080fd5b8091505092915050565b60006840000000000000000082600f0b1261249857600080fd5b7fffffffffffffffffffffffffffffffffffffffffffffffc0000000000000000082600f0b12156124cc57600090506124f2565b6124ef6080700171547652b82fe1777d0ffda0d23a7d1284600f0b02901d6126c7565b90505b919050565b60008082600f0b121561250957600080fd5b604082600f0b901d9050919050565b600080600160008573ffffffffffffffffffffffffffffffffffffffff1673ffffffffffffffffffffffffffffffffffffffff16815260200190815260200160002060000154905060008114156125735760009150506126c1565b60008314156125a5577fffffffffffffffffffffffffffffffffffffffffffffffffffffffffffffffff9150506126c1565b6000600860009054906101000a900473ffffffffffffffffffffffffffffffffffffffff16905060008173ffffffffffffffffffffffffffffffffffffffff1663d06ca61f8460096040518363ffffffff1660e01b815260040161260a929190613ffa565b60006040518083038186803b15801561262257600080fd5b505afa158015612636573d6000803e3d6000fd5b505050506040513d6000823e3d601f19601f8201168201806040525081019061265f9190613465565b600281518110612698577f4e487b7100000000000000000000000000000000000000000000000000000000600052603260045260246000fd5b6020026020010151905084612710826126b191906141d9565b6126bb91906141a8565b93505050505b92915050565b60006840000000000000000082600f0b126126e157600080fd5b7fffffffffffffffffffffffffffffffffffffffffffffffc0000000000000000082600f0b121561271557600090506132c2565b60006f80000000000000000000000000000000905060006780000000000000008416600f0b131561275b57608070016a09e667f3bcc908b2fb1366ea957d3e8202901c90505b60006740000000000000008416600f0b131561278c5760807001306fe0a31b7152de8d5a46305c85edec8202901c90505b60006720000000000000008416600f0b13156127bd5760807001172b83c7d517adcdf7c8c50eb14a791f8202901c90505b60006710000000000000008416600f0b13156127ee57608070010b5586cf9890f6298b92b71842a983638202901c90505b60006708000000000000008416600f0b131561281f5760807001059b0d31585743ae7c548eb68ca417fd8202901c90505b60006704000000000000008416600f0b1315612850576080700102c9a3e778060ee6f7caca4f7a29bde88202901c90505b60006702000000000000008416600f0b131561288157608070010163da9fb33356d84a66ae336dcdfa3f8202901c90505b60006701000000000000008416600f0b13156128b2576080700100b1afa5abcbed6129ab13ec11dc95438202901c90505b600066800000000000008416600f0b13156128e257608070010058c86da1c09ea1ff19d294cf2f679b8202901c90505b600066400000000000008416600f0b13156129125760807001002c605e2e8cec506d21bfc89a23a00f8202901c90505b600066200000000000008416600f0b1315612942576080700100162f3904051fa128bca9c55c31e5df8202901c90505b600066100000000000008416600f0b13156129725760807001000b175effdc76ba38e31671ca9397258202901c90505b600066080000000000008416600f0b13156129a2576080700100058ba01fb9f96d6cacd4b180917c3d8202901c90505b600066040000000000008416600f0b13156129d257608070010002c5cc37da9491d0985c348c68e7b38202901c90505b600066020000000000008416600f0b1315612a025760807001000162e525ee054754457d59952920268202901c90505b600066010000000000008416600f0b1315612a3257608070010000b17255775c040618bf4a4ade83fc8202901c90505b6000658000000000008416600f0b1315612a615760807001000058b91b5bc9ae2eed81e9b7d4cfab8202901c90505b6000654000000000008416600f0b1315612a90576080700100002c5c89d5ec6ca4d7c8acc017b7c98202901c90505b6000652000000000008416600f0b1315612abf57608070010000162e43f4f831060e02d839a9d16d8202901c90505b6000651000000000008416600f0b1315612aee576080700100000b1721bcfc99d9f890ea069117638202901c90505b6000650800000000008416600f0b1315612b1d57608070010000058b90cf1e6d97f9ca14dbcc16288202901c90505b6000650400000000008416600f0b1315612b4c5760807001000002c5c863b73f016468f6bac5ca2b8202901c90505b6000650200000000008416600f0b1315612b7b576080700100000162e430e5a18f6119e3c02282a58202901c90505b6000650100000000008416600f0b1315612baa5760807001000000b1721835514b86e6d96efd1bfe8202901c90505b60006480000000008416600f0b1315612bd8576080700100000058b90c0b48c6be5df846c5b2ef8202901c90505b60006440000000008416600f0b1315612c0657608070010000002c5c8601cc6b9e94213c72737a8202901c90505b60006420000000008416600f0b1315612c345760807001000000162e42fff037df38aa2b219f068202901c90505b60006410000000008416600f0b1315612c6257608070010000000b17217fba9c739aa5819f44f98202901c90505b60006408000000008416600f0b1315612c905760807001000000058b90bfcdee5acd3c1cedc8238202901c90505b60006404000000008416600f0b1315612cbe576080700100000002c5c85fe31f35a6a30da1be508202901c90505b60006402000000008416600f0b1315612cec57608070010000000162e42ff0999ce3541b9fffcf8202901c90505b60006401000000008416600f0b1315612d1a576080700100000000b17217f80f4ef5aadda455548202901c90505b600063800000008416600f0b1315612d4757608070010000000058b90bfbf8479bd5a81b51ad8202901c90505b600063400000008416600f0b1315612d745760807001000000002c5c85fdf84bd62ae30a74cc8202901c90505b600063200000008416600f0b1315612da1576080700100000000162e42fefb2fed257559bdaa8202901c90505b600063100000008416600f0b1315612dce5760807001000000000b17217f7d5a7716bba4a9ae8202901c90505b600063080000008416600f0b1315612dfb576080700100000000058b90bfbe9ddbac5e109cce8202901c90505b600063040000008416600f0b1315612e2857608070010000000002c5c85fdf4b15de6f17eb0d8202901c90505b600063020000008416600f0b1315612e555760807001000000000162e42fefa494f1478fde058202901c90505b600063010000008416600f0b1315612e8257608070010000000000b17217f7d20cf927c8e94c8202901c90505b6000628000008416600f0b1315612eae5760807001000000000058b90bfbe8f71cb4e4b33d8202901c90505b6000624000008416600f0b1315612eda576080700100000000002c5c85fdf477b662b269458202901c90505b6000622000008416600f0b1315612f0657608070010000000000162e42fefa3ae53369388c8202901c90505b6000621000008416600f0b1315612f32576080700100000000000b17217f7d1d351a389d408202901c90505b6000620800008416600f0b1315612f5e57608070010000000000058b90bfbe8e8b2d3d4ede8202901c90505b6000620400008416600f0b1315612f8a5760807001000000000002c5c85fdf4741bea6e77e8202901c90505b6000620200008416600f0b1315612fb6576080700100000000000162e42fefa39fe95583c28202901c90505b6000620100008416600f0b1315612fe25760807001000000000000b17217f7d1cfb72b45e18202901c90505b60006180008416600f0b131561300d576080700100000000000058b90bfbe8e7cc35c3f08202901c90505b60006140008416600f0b131561303857608070010000000000002c5c85fdf473e242ea388202901c90505b60006120008416600f0b13156130635760807001000000000000162e42fefa39f02b772c8202901c90505b60006110008416600f0b131561308e57608070010000000000000b17217f7d1cf7d83c1a8202901c90505b60006108008416600f0b13156130b95760807001000000000000058b90bfbe8e7bdcbe2e8202901c90505b60006104008416600f0b13156130e4576080700100000000000002c5c85fdf473dea871f8202901c90505b60006102008416600f0b131561310f57608070010000000000000162e42fefa39ef44d918202901c90505b60006101008416600f0b131561313a576080700100000000000000b17217f7d1cf79e9498202901c90505b600060808416600f0b131561316457608070010000000000000058b90bfbe8e7bce5448202901c90505b600060408416600f0b131561318e5760807001000000000000002c5c85fdf473de6eca8202901c90505b600060208416600f0b13156131b8576080700100000000000000162e42fefa39ef366f8202901c90505b600060108416600f0b13156131e25760807001000000000000000b17217f7d1cf79afa8202901c90505b600060088416600f0b131561320c576080700100000000000000058b90bfbe8e7bcd6d8202901c90505b600060048416600f0b131561323657608070010000000000000002c5c85fdf473de6b28202901c90505b600060028416600f0b13156132605760807001000000000000000162e42fefa39ef3588202901c90505b600060018416600f0b131561328a57608070010000000000000000b17217f7d1cf79ab8202901c90505b604083600f0b901d603f03600f0b81901c90506f7fffffffffffffffffffffffffffffff600f0b8111156132bd57600080fd5b809150505b919050565b60006132da6132d5846140d7565b6140a6565b905080838252602082019050828560208602820111156132f957600080fd5b60005b85811015613329578161330f888261339c565b8452602084019350602083019250506001810190506132fc565b5050509392505050565b600081359050613342816143b5565b92915050565b600082601f83011261335957600080fd5b81516133698482602086016132c7565b91505092915050565b600081519050613381816143cc565b92915050565b600081359050613396816143e3565b92915050565b6000815190506133ab816143e3565b92915050565b6000602082840312156133c357600080fd5b60006133d184828501613333565b91505092915050565b6000806000606084860312156133ef57600080fd5b60006133fd86828701613333565b935050602061340e86828701613333565b925050604061341f86828701613333565b9150509250925092565b6000806040838503121561343c57600080fd5b600061344a85828601613333565b925050602061345b85828601613387565b9150509250929050565b60006020828403121561347757600080fd5b600082015167ffffffffffffffff81111561349157600080fd5b61349d84828501613348565b91505092915050565b6000602082840312156134b857600080fd5b60006134c684828501613372565b91505092915050565b6000602082840312156134e157600080fd5b60006134ef84828501613387565b91505092915050565b60006020828403121561350a57600080fd5b60006135188482850161339c565b91505092915050565b6000806040838503121561353457600080fd5b600061354285828601613387565b925050602061355385828601613387565b9150509250929050565b60008060006060848603121561357257600080fd5b600061358086828701613387565b935050602061359186828701613387565b92505060406135a286828701613387565b9150509250925092565b60006135b883836135c4565b60208301905092915050565b6135cd81614287565b82525050565b6135dc81614287565b82525050565b60006135ed82614118565b6135f78185614130565b935061360283614103565b8060005b8381101561363a5761361782614395565b61362188826135ac565b975061362c83614123565b925050600181019050613606565b5085935050505092915050565b613650816142a5565b82525050565b61365f816142dc565b82525050565b6000613672601483614141565b91507f55534443207472616e73666572206661696c65640000000000000000000000006000830152602082019050919050565b60006136b2602983614141565b91507f6e6f7420656e6f75676820636f6c6c61746572616c20746f20626f72726f772060008301527f74686174206d75636800000000000000000000000000000000000000000000006020830152604082019050919050565b6000613718602683614141565b91507f4f776e61626c653a206e6577206f776e657220697320746865207a65726f206160008301527f64647265737300000000000000000000000000000000000000000000000000006020830152604082019050919050565b600061377e602283614141565b91507f6163636f756e7420616c72656164792062656c6f77207361666574792072617460008301527f696f0000000000000000000000000000000000000000000000000000000000006020830152604082019050919050565b60006137e4601483614141565b91507f63616e2774206d696e74207a65726f205553445a0000000000000000000000006000830152602082019050919050565b6000613824600e83614141565b91507f63616e277420626f72726f7720300000000000000000000000000000000000006000830152602082019050919050565b6000613864601983614141565b91507f6163636f756e7420686173206e6f20636f6c6c61746572616c000000000000006000830152602082019050919050565b60006138a4601883614141565b91507f7769746864726177207472616e73666572206661696c656400000000000000006000830152602082019050919050565b60006138e4602983614141565b91507f626f72726f77207468726573686f6c64206d757374206265203e207363616c6960008301527f6e6720666163746f7200000000000000000000000000000000000000000000006020830152604082019050919050565b600061394a601983614141565b91507f616d6f756e7420756e7361666520746f207769746864726177000000000000006000830152602082019050919050565b600061398a601583614141565b91507f6c69712066656573206f7574206f662072616e676500000000000000000000006000830152602082019050919050565b60006139ca601883614141565b91507f7a65726f2061646472657373206e6f7420616c6c6f77656400000000000000006000830152602082019050919050565b6000613a0a601483614141565b91507f55534443207265736572766520746f6f206c6f770000000000000000000000006000830152602082019050919050565b6000613a4a601583614141565b91507f7265706179207472616e73666572206661696c656400000000000000000000006000830152602082019050919050565b6000613a8a602083614141565b91507f4f776e61626c653a2063616c6c6572206973206e6f7420746865206f776e65726000830152602082019050919050565b6000613aca600d83614141565b91507f63616e27742072657061792030000000000000000000000000000000000000006000830152602082019050919050565b6000613b0a601f83614141565b91507f6163636f756e74206e6f742062656c6f77206c6971207468726573686f6c64006000830152602082019050919050565b6000613b4a600e83614141565b91507f6465706f736974206661696c65640000000000000000000000000000000000006000830152602082019050919050565b6000613b8a601983614141565b91507f696e74657265737452617465206f7574206f662072616e6765000000000000006000830152602082019050919050565b6000613bca602683614141565b91507f6c6971207468726573686f6c64206d757374206265203e207363616c696e672060008301527f666163746f7200000000000000000000000000000000000000000000000000006020830152604082019050919050565b6000613c30602083614141565b91507f6e6f7420656e6f75676820636f6c6c61746572616c20696e206163636f756e746000830152602082019050919050565b613c6c816142d2565b82525050565b6000602082019050613c8760008301846135d3565b92915050565b6000606082019050613ca260008301866135d3565b613caf60208301856135d3565b613cbc6040830184613c63565b949350505050565b6000604082019050613cd960008301856135d3565b613ce66020830184613c63565b9392505050565b6000602082019050613d026000830184613647565b92915050565b6000606082019050613d1d6000830186613656565b613d2a6020830185613656565b613d376040830184613656565b949350505050565b60006020820190508181036000830152613d5881613665565b9050919050565b60006020820190508181036000830152613d78816136a5565b9050919050565b60006020820190508181036000830152613d988161370b565b9050919050565b60006020820190508181036000830152613db881613771565b9050919050565b60006020820190508181036000830152613dd8816137d7565b9050919050565b60006020820190508181036000830152613df881613817565b9050919050565b60006020820190508181036000830152613e1881613857565b9050919050565b60006020820190508181036000830152613e3881613897565b9050919050565b60006020820190508181036000830152613e58816138d7565b9050919050565b60006020820190508181036000830152613e788161393d565b9050919050565b60006020820190508181036000830152613e988161397d565b9050919050565b60006020820190508181036000830152613eb8816139bd565b9050919050565b60006020820190508181036000830152613ed8816139fd565b9050919050565b60006020820190508181036000830152613ef881613a3d565b9050919050565b60006020820190508181036000830152613f1881613a7d565b9050919050565b60006020820190508181036000830152613f3881613abd565b9050919050565b60006020820190508181036000830152613f5881613afd565b9050919050565b60006020820190508181036000830152613f7881613b3d565b9050919050565b60006020820190508181036000830152613f9881613b7d565b9050919050565b60006020820190508181036000830152613fb881613bbd565b9050919050565b60006020820190508181036000830152613fd881613c23565b9050919050565b6000602082019050613ff46000830184613c63565b92915050565b600060408201905061400f6000830185613c63565b818103602083015261402181846135e2565b90509392505050565b600060608201905061403f6000830186613c63565b61404c6020830185613c63565b6140596040830184613c63565b949350505050565b60006080820190506140766000830187613c63565b6140836020830186613c63565b6140906040830185613c63565b61409d6060830184613c63565b95945050505050565b6000604051905081810181811067ffffffffffffffff821117156140cd576140cc614366565b5b8060405250919050565b600067ffffffffffffffff8211156140f2576140f1614366565b5b602082029050602081019050919050565b60008190508160005260206000209050919050565b600081549050919050565b6000600182019050919050565b600082825260208201905092915050565b600082825260208201905092915050565b600061415d826142d2565b9150614168836142d2565b9250827fffffffffffffffffffffffffffffffffffffffffffffffffffffffffffffffff0382111561419d5761419c614308565b5b828201905092915050565b60006141b3826142d2565b91506141be836142d2565b9250826141ce576141cd614337565b5b828204905092915050565b60006141e4826142d2565b91506141ef836142d2565b9250817fffffffffffffffffffffffffffffffffffffffffffffffffffffffffffffffff048311821515161561422857614227614308565b5b828202905092915050565b600061423e826142d2565b9150614249836142d2565b92508282101561425c5761425b614308565b5b828203905092915050565b600073ffffffffffffffffffffffffffffffffffffffff82169050919050565b6000614292826142b2565b9050919050565b60008115159050919050565b600081600f0b9050919050565b600073ffffffffffffffffffffffffffffffffffffffff82169050919050565b6000819050919050565b60006142e7826142d2565b9050919050565b60006143016142fc836143a8565b614267565b9050919050565b7f4e487b7100000000000000000000000000000000000000000000000000000000600052601160045260246000fd5b7f4e487b7100000000000000000000000000000000000000000000000000000000600052601260045260246000fd5b7f4e487b7100000000000000000000000000000000000000000000000000000000600052604160045260246000fd5b60006143a182546142ee565b9050919050565b60008160001c9050919050565b6143be81614287565b81146143c957600080fd5b50565b6143d581614299565b81146143e057600080fd5b50565b6143ec816142d2565b81146143f757600080fd5b5056fea26469706673582212208392042a6878d13033c20510ed02b9b09784cf5b2286c6119605bbedcf5c79c864736f6c63430008000033",
  "linkReferences": {},
  "deployedLinkReferences": {}
}