{
  "_format": "hh-sol-artifact-1",
  "contractName": "Controller",
  "sourceName": "contracts/Controller.sol",
  "abi": [
    {
      "inputs": [
        {
          "internalType": "address",
          "name": "_usdzAddress",
          "type": "address"
        },
        {
          "internalType": "address",
          "name": "_usdcAddress",
          "type": "address"
        },
        {
          "internalType": "address",
          "name": "_xSushiAddress",
          "type": "address"
        },
        {
          "internalType": "address",
          "name": "_routerAddress",
          "type": "address"
        },
        {
          "internalType": "address[]",
          "name": "_swapPath",
          "type": "address[]"
        },
        {
          "internalType": "uint256",
          "name": "_liqFeeProtocol",
          "type": "uint256"
        },
        {
          "internalType": "uint256",
          "name": "_liqFeeSender",
          "type": "uint256"
        },
        {
          "internalType": "uint256",
          "name": "_interestRate",
          "type": "uint256"
        },
        {
          "internalType": "uint256",
          "name": "_borrowThreshold",
          "type": "uint256"
        },
        {
          "internalType": "uint256",
          "name": "_liqThreshold",
          "type": "uint256"
        }
      ],
      "stateMutability": "nonpayable",
      "type": "constructor"
    },
    {
      "anonymous": false,
      "inputs": [
        {
          "indexed": true,
          "internalType": "address",
          "name": "account",
          "type": "address"
        },
        {
          "indexed": false,
          "internalType": "uint256",
          "name": "amountBorrowed",
          "type": "uint256"
        },
        {
          "indexed": false,
          "internalType": "uint256",
          "name": "totalDebt",
          "type": "uint256"
        },
        {
          "indexed": false,
          "internalType": "uint256",
          "name": "collateralAmount",
          "type": "uint256"
        }
      ],
      "name": "Borrow",
      "type": "event"
    },
    {
      "anonymous": false,
      "inputs": [
        {
          "indexed": true,
          "internalType": "address",
          "name": "account",
          "type": "address"
        },
        {
          "indexed": false,
          "internalType": "uint256",
          "name": "amount",
          "type": "uint256"
        }
      ],
      "name": "Deposit",
      "type": "event"
    },
    {
      "anonymous": false,
      "inputs": [
        {
          "indexed": true,
          "internalType": "address",
          "name": "account",
          "type": "address"
        },
        {
          "indexed": true,
          "internalType": "address",
          "name": "liquidator",
          "type": "address"
        },
        {
          "indexed": false,
          "internalType": "uint256",
          "name": "collateralLiquidated",
          "type": "uint256"
        },
        {
          "indexed": false,
          "internalType": "uint256",
          "name": "lastCollateralRatio",
          "type": "uint256"
        },
        {
          "indexed": false,
          "internalType": "uint256",
          "name": "lastDebtOutstanding",
          "type": "uint256"
        }
      ],
      "name": "Liquidation",
      "type": "event"
    },
    {
      "anonymous": false,
      "inputs": [
        {
          "indexed": true,
          "internalType": "address",
          "name": "previousOwner",
          "type": "address"
        },
        {
          "indexed": true,
          "internalType": "address",
          "name": "newOwner",
          "type": "address"
        }
      ],
      "name": "OwnershipTransferred",
      "type": "event"
    },
    {
      "anonymous": false,
      "inputs": [
        {
          "indexed": true,
          "internalType": "address",
          "name": "account",
          "type": "address"
        },
        {
          "indexed": false,
          "internalType": "uint256",
          "name": "debtRepaid",
          "type": "uint256"
        },
        {
          "indexed": false,
          "internalType": "uint256",
          "name": "debtRemaining",
          "type": "uint256"
        },
        {
          "indexed": false,
          "internalType": "uint256",
          "name": "collateralAmount",
          "type": "uint256"
        }
      ],
      "name": "Repay",
      "type": "event"
    },
    {
      "anonymous": false,
      "inputs": [
        {
          "indexed": true,
          "internalType": "address",
          "name": "account",
          "type": "address"
        },
        {
          "indexed": false,
          "internalType": "uint256",
          "name": "amount",
          "type": "uint256"
        }
      ],
      "name": "Withdraw",
      "type": "event"
    },
    {
      "inputs": [],
      "name": "SCALING_FACTOR",
      "outputs": [
        {
          "internalType": "uint256",
          "name": "",
          "type": "uint256"
        }
      ],
      "stateMutability": "view",
      "type": "function"
    },
    {
      "inputs": [],
      "name": "SECONDS_IN_YEAR",
      "outputs": [
        {
          "internalType": "int128",
          "name": "",
          "type": "int128"
        }
      ],
      "stateMutability": "view",
      "type": "function"
    },
    {
      "inputs": [
        {
          "internalType": "uint256",
          "name": "_amount",
          "type": "uint256"
        }
      ],
      "name": "borrow",
      "outputs": [],
      "stateMutability": "nonpayable",
      "type": "function"
    },
    {
      "inputs": [],
      "name": "borrowThreshold",
      "outputs": [
        {
          "internalType": "uint256",
          "name": "",
          "type": "uint256"
        }
      ],
      "stateMutability": "view",
      "type": "function"
    },
    {
      "inputs": [
        {
          "internalType": "address",
          "name": "_account",
          "type": "address"
        }
      ],
      "name": "calcInterest",
      "outputs": [
        {
          "internalType": "uint256",
          "name": "interest",
          "type": "uint256"
        }
      ],
      "stateMutability": "view",
      "type": "function"
    },
    {
      "inputs": [
        {
          "internalType": "uint256",
          "name": "_amount",
          "type": "uint256"
        }
      ],
      "name": "claimLiquidationFees",
      "outputs": [],
      "stateMutability": "nonpayable",
      "type": "function"
    },
    {
      "inputs": [
        {
          "internalType": "uint256",
          "name": "_amount",
          "type": "uint256"
        }
      ],
      "name": "deposit",
      "outputs": [],
      "stateMutability": "nonpayable",
      "type": "function"
    },
    {
      "inputs": [
        {
          "internalType": "address",
          "name": "_account",
          "type": "address"
        }
      ],
      "name": "getCurrentCollateralRatio",
      "outputs": [
        {
          "internalType": "uint256",
          "name": "",
          "type": "uint256"
        }
      ],
      "stateMutability": "view",
      "type": "function"
    },
    {
      "inputs": [
        {
          "internalType": "address",
          "name": "_account",
          "type": "address"
        },
        {
          "internalType": "uint256",
          "name": "_totalDebt",
          "type": "uint256"
        }
      ],
      "name": "getForwardCollateralRatio",
      "outputs": [
        {
          "internalType": "uint256",
          "name": "",
          "type": "uint256"
        }
      ],
      "stateMutability": "view",
      "type": "function"
    },
    {
      "inputs": [
        {
          "internalType": "address",
          "name": "_account",
          "type": "address"
        }
      ],
      "name": "getLiquidationFees",
      "outputs": [
        {
          "internalType": "uint256",
          "name": "",
          "type": "uint256"
        }
      ],
      "stateMutability": "view",
      "type": "function"
    },
    {
      "inputs": [
        {
          "internalType": "address",
          "name": "_account",
          "type": "address"
        }
      ],
      "name": "getPosition",
      "outputs": [
        {
          "internalType": "uint256",
          "name": "",
          "type": "uint256"
        },
        {
          "internalType": "uint256",
          "name": "",
          "type": "uint256"
        },
        {
          "internalType": "uint256",
          "name": "",
          "type": "uint256"
        },
        {
          "internalType": "uint256",
          "name": "",
          "type": "uint256"
        }
      ],
      "stateMutability": "view",
      "type": "function"
    },
    {
      "inputs": [],
      "name": "interestRate",
      "outputs": [
        {
          "internalType": "uint256",
          "name": "",
          "type": "uint256"
        }
      ],
      "stateMutability": "view",
      "type": "function"
    },
    {
      "inputs": [
        {
          "internalType": "address",
          "name": "_account",
          "type": "address"
        }
      ],
      "name": "isLiquidatable",
      "outputs": [
        {
          "internalType": "uint256",
          "name": "",
          "type": "uint256"
        },
        {
          "internalType": "bool",
          "name": "",
          "type": "bool"
        }
      ],
      "stateMutability": "view",
      "type": "function"
    },
    {
      "inputs": [],
      "name": "liqFeeProtocol",
      "outputs": [
        {
          "internalType": "uint256",
          "name": "",
          "type": "uint256"
        }
      ],
      "stateMutability": "view",
      "type": "function"
    },
    {
      "inputs": [],
      "name": "liqFeeSender",
      "outputs": [
        {
          "internalType": "uint256",
          "name": "",
          "type": "uint256"
        }
      ],
      "stateMutability": "view",
      "type": "function"
    },
    {
      "inputs": [],
      "name": "liqThreshold",
      "outputs": [
        {
          "internalType": "uint256",
          "name": "",
          "type": "uint256"
        }
      ],
      "stateMutability": "view",
      "type": "function"
    },
    {
      "inputs": [
        {
          "internalType": "address",
          "name": "_account",
          "type": "address"
        },
        {
          "internalType": "uint256",
          "name": "_maxDiscount",
          "type": "uint256"
        }
      ],
      "name": "liquidate",
      "outputs": [],
      "stateMutability": "nonpayable",
      "type": "function"
    },
    {
      "inputs": [],
      "name": "owner",
      "outputs": [
        {
          "internalType": "address",
          "name": "",
          "type": "address"
        }
      ],
      "stateMutability": "view",
      "type": "function"
    },
    {
      "inputs": [],
      "name": "protocolDebt",
      "outputs": [
        {
          "internalType": "uint256",
          "name": "",
          "type": "uint256"
        }
      ],
      "stateMutability": "view",
      "type": "function"
    },
    {
      "inputs": [],
      "name": "protocolIntRev",
      "outputs": [
        {
          "internalType": "uint256",
          "name": "",
          "type": "uint256"
        }
      ],
      "stateMutability": "view",
      "type": "function"
    },
    {
      "inputs": [],
      "name": "renounceOwnership",
      "outputs": [],
      "stateMutability": "nonpayable",
      "type": "function"
    },
    {
      "inputs": [
        {
          "internalType": "uint256",
          "name": "_amount",
          "type": "uint256"
        }
      ],
      "name": "repay",
      "outputs": [],
      "stateMutability": "nonpayable",
      "type": "function"
    },
    {
      "inputs": [
        {
          "internalType": "uint256",
          "name": "_liqFeeProtocol",
          "type": "uint256"
        },
        {
          "internalType": "uint256",
          "name": "_liqFeeSender",
          "type": "uint256"
        },
        {
          "internalType": "uint256",
          "name": "_interestRate",
          "type": "uint256"
        }
      ],
      "name": "setFeesAndRates",
      "outputs": [],
      "stateMutability": "nonpayable",
      "type": "function"
    },
    {
      "inputs": [
        {
          "internalType": "address",
          "name": "_sushiRouter",
          "type": "address"
        }
      ],
      "name": "setSushiAddresses",
      "outputs": [],
      "stateMutability": "nonpayable",
      "type": "function"
    },
    {
      "inputs": [
        {
          "internalType": "uint256",
          "name": "_borrowThreshold",
          "type": "uint256"
        },
        {
          "internalType": "uint256",
          "name": "_liqThreshold",
          "type": "uint256"
        }
      ],
      "name": "setThresholds",
      "outputs": [],
      "stateMutability": "nonpayable",
      "type": "function"
    },
    {
      "inputs": [
        {
          "internalType": "address",
          "name": "_usdz",
          "type": "address"
        },
        {
          "internalType": "address",
          "name": "_usdc",
          "type": "address"
        },
        {
          "internalType": "address",
          "name": "_xsushi",
          "type": "address"
        }
      ],
      "name": "setTokenAddresses",
      "outputs": [],
      "stateMutability": "nonpayable",
      "type": "function"
    },
    {
      "inputs": [],
      "name": "sushiRouterAddress",
      "outputs": [
        {
          "internalType": "address",
          "name": "",
          "type": "address"
        }
      ],
      "stateMutability": "view",
      "type": "function"
    },
    {
      "inputs": [
        {
          "internalType": "uint256",
          "name": "_usdcAmount",
          "type": "uint256"
        }
      ],
      "name": "swapUSDCforUSDZ",
      "outputs": [],
      "stateMutability": "nonpayable",
      "type": "function"
    },
    {
      "inputs": [
        {
          "internalType": "uint256",
          "name": "_usdzAmount",
          "type": "uint256"
        }
      ],
      "name": "swapUSDZforUSDC",
      "outputs": [],
      "stateMutability": "nonpayable",
      "type": "function"
    },
    {
      "inputs": [
        {
          "internalType": "address",
          "name": "newOwner",
          "type": "address"
        }
      ],
      "name": "transferOwnership",
      "outputs": [],
      "stateMutability": "nonpayable",
      "type": "function"
    },
    {
      "inputs": [],
      "name": "usdcAddress",
      "outputs": [
        {
          "internalType": "address",
          "name": "",
          "type": "address"
        }
      ],
      "stateMutability": "view",
      "type": "function"
    },
    {
      "inputs": [],
      "name": "usdzAddress",
      "outputs": [
        {
          "internalType": "address",
          "name": "",
          "type": "address"
        }
      ],
      "stateMutability": "view",
      "type": "function"
    },
    {
      "inputs": [
        {
          "internalType": "uint256",
          "name": "_amount",
          "type": "uint256"
        }
      ],
      "name": "withdraw",
      "outputs": [],
      "stateMutability": "nonpayable",
      "type": "function"
    },
    {
      "inputs": [],
      "name": "xSushiAddress",
      "outputs": [
        {
          "internalType": "address",
          "name": "",
          "type": "address"
        }
      ],
      "stateMutability": "view",
      "type": "function"
    },
    {
      "inputs": [
        {
          "internalType": "uint256",
          "name": "",
          "type": "uint256"
        }
      ],
      "name": "xSushiToUsdcPath",
      "outputs": [
        {
          "internalType": "address",
          "name": "",
          "type": "address"
        }
      ],
      "stateMutability": "view",
      "type": "function"
    }
  ],
  "bytecode": "0x60806040523480156200001157600080fd5b506040516200545438038062005454833981810160405281019062000037919062000586565b600062000049620003c560201b60201c565b9050806000806101000a81548173ffffffffffffffffffffffffffffffffffffffff021916908373ffffffffffffffffffffffffffffffffffffffff1602179055508073ffffffffffffffffffffffffffffffffffffffff16600073ffffffffffffffffffffffffffffffffffffffff167f8be0079c531659141344cd1fd0a4f28419497f9722a3daafe3b4186f6b6457e060405160405180910390a35089600660006101000a81548173ffffffffffffffffffffffffffffffffffffffff021916908373ffffffffffffffffffffffffffffffffffffffff16021790555088600560006101000a81548173ffffffffffffffffffffffffffffffffffffffff021916908373ffffffffffffffffffffffffffffffffffffffff16021790555087600760006101000a81548173ffffffffffffffffffffffffffffffffffffffff021916908373ffffffffffffffffffffffffffffffffffffffff16021790555086600860006101000a81548173ffffffffffffffffffffffffffffffffffffffff021916908373ffffffffffffffffffffffffffffffffffffffff16021790555084600a8190555083600b8190555082600c8190555081600d8190555080600e81905550856009908051906020019062000226929190620003f1565b50620002416301e18558620003cd60201b620028f11760201c565b600f60006101000a8154816fffffffffffffffffffffffffffffffff0219169083600f0b6fffffffffffffffffffffffffffffffff160217905550600760009054906101000a900473ffffffffffffffffffffffffffffffffffffffff1673ffffffffffffffffffffffffffffffffffffffff1663095ea7b3600860009054906101000a900473ffffffffffffffffffffffffffffffffffffffff167fffffffffffffffffffffffffffffffffffffffffffffffffffffffffffffffff6040518363ffffffff1660e01b81526004016200031d9291906200071f565b602060405180830381600087803b1580156200033857600080fd5b505af11580156200034d573d6000803e3d6000fd5b505050506040513d601f19601f820116820180604052508101906200037391906200068f565b620003b5576040517f08c379a0000000000000000000000000000000000000000000000000000000008152600401620003ac906200074c565b60405180910390fd5b50505050505050505050620008a9565b600033905090565b6000677fffffffffffffff821115620003e557600080fd5b604082901b9050919050565b8280548282559060005260206000209081019282156200046d579160200282015b828111156200046c5782518260006101000a81548173ffffffffffffffffffffffffffffffffffffffff021916908373ffffffffffffffffffffffffffffffffffffffff1602179055509160200191906001019062000412565b5b5090506200047c919062000480565b5090565b5b808211156200049b57600081600090555060010162000481565b5090565b6000620004b6620004b084620007a2565b6200076e565b90508083825260208201905082856020860282011115620004d657600080fd5b60005b858110156200050a5781620004ef888262000514565b845260208401935060208301925050600181019050620004d9565b5050509392505050565b60008151905062000525816200085b565b92915050565b600082601f8301126200053d57600080fd5b81516200054f8482602086016200049f565b91505092915050565b600081519050620005698162000875565b92915050565b60008151905062000580816200088f565b92915050565b6000806000806000806000806000806101408b8d031215620005a757600080fd5b6000620005b78d828e0162000514565b9a50506020620005ca8d828e0162000514565b9950506040620005dd8d828e0162000514565b9850506060620005f08d828e0162000514565b97505060808b015167ffffffffffffffff8111156200060e57600080fd5b6200061c8d828e016200052b565b96505060a06200062f8d828e016200056f565b95505060c0620006428d828e016200056f565b94505060e0620006558d828e016200056f565b935050610100620006698d828e016200056f565b9250506101206200067d8d828e016200056f565b9150509295989b9194979a5092959850565b600060208284031215620006a257600080fd5b6000620006b28482850162000558565b91505092915050565b620006c681620007e2565b82525050565b6000620006db601583620007d1565b91507f78737573686920617070726f7665206661696c656400000000000000000000006000830152602082019050919050565b620007198162000822565b82525050565b6000604082019050620007366000830185620006bb565b6200074560208301846200070e565b9392505050565b600060208201905081810360008301526200076781620006cc565b9050919050565b6000604051905081810181811067ffffffffffffffff821117156200079857620007976200082c565b5b8060405250919050565b600067ffffffffffffffff821115620007c057620007bf6200082c565b5b602082029050602081019050919050565b600082825260208201905092915050565b6000620007ef8262000802565b9050919050565b60008115159050919050565b600073ffffffffffffffffffffffffffffffffffffffff82169050919050565b6000819050919050565b7f4e487b7100000000000000000000000000000000000000000000000000000000600052604160045260246000fd5b6200086681620007e2565b81146200087257600080fd5b50565b6200088081620007f6565b81146200088c57600080fd5b50565b6200089a8162000822565b8114620008a657600080fd5b50565b614b9b80620008b96000396000f3fe608060405234801561001057600080fd5b50600436106102115760003560e01c806379bbce8f11610125578063bfaf48d4116100ad578063de0bb74f1161007c578063de0bb74f146105f6578063e3064a7714610612578063ef4cadc51461062e578063f248e7e81461064c578063f2fde38b1461066857610211565b8063bfaf48d414610572578063c5ebeaec1461058e578063cde5f672146105aa578063daf5539e146105c657610211565b8063ae2293d7116100f4578063ae2293d7146104e0578063b6b55f25146104fe578063bcbaf4871461051a578063bd48b2df14610536578063bdfccad31461055457610211565b806379bbce8f146104685780637c3a00fd146104865780638da5cb5b146104a4578063927e0a8f146104c257610211565b8063410e73f7116101a85780635dcc9391116101775780635dcc9391146103c257806369cb89c7146103e05780637046b7a914610410578063715018a614610440578063734872511461044a57610211565b8063410e73f71461033a5780634a63a5ce146103585780634d3f9d3e146103885780635ae547e3146103a457610211565b806320809c6b116101e457806320809c6b146102b457806320bdf800146102e45780632e1a7d4d14610302578063371fd8e61461031e57610211565b806302d4545714610216578063042e02cf1461023457806316c19739146102655780631d89b10314610298575b600080fd5b61021e610684565b60405161022b91906142fa565b60405180910390f35b61024e6004803603810190610249919061396a565b6106aa565b60405161025c929190614712565b60405180910390f35b61027f600480360381019061027a919061396a565b6106f1565b60405161028f94939291906147cc565b60405180910390f35b6102b260048036038101906102ad9190613a88565b6107e2565b005b6102ce60048036038101906102c9919061396a565b610a17565b6040516102db91906146c7565b60405180910390f35b6102ec610a60565b6040516102f991906142fa565b60405180910390f35b61031c60048036038101906103179190613a88565b610a86565b005b61033860048036038101906103339190613a88565b610d78565b005b6103426110a3565b60405161034f91906146c7565b60405180910390f35b610372600480360381019061036d9190613a88565b6110a9565b60405161037f91906142fa565b60405180910390f35b6103a2600480360381019061039d9190613993565b6110e8565b005b6103ac61130e565b6040516103b991906146c7565b60405180910390f35b6103ca611314565b6040516103d79190614375565b60405180910390f35b6103fa60048036038101906103f5919061396a565b611327565b60405161040791906146c7565b60405180910390f35b61042a600480360381019061042591906139e2565b611596565b60405161043791906146c7565b60405180910390f35b6104486115aa565b005b6104526116e4565b60405161045f91906146c7565b60405180910390f35b6104706116ea565b60405161047d91906142fa565b60405180910390f35b61048e611710565b60405161049b91906146c7565b60405180910390f35b6104ac611716565b6040516104b991906142fa565b60405180910390f35b6104ca61173f565b6040516104d791906146c7565b60405180910390f35b6104e8611745565b6040516104f591906146c7565b60405180910390f35b61051860048036038101906105139190613a88565b61174b565b005b610534600480360381019061052f91906139e2565b6118e5565b005b61053e611de6565b60405161054b91906146c7565b60405180910390f35b61055c611dec565b60405161056991906142fa565b60405180910390f35b61058c60048036038101906105879190613b16565b611e12565b005b6105a860048036038101906105a39190613a88565b611f3d565b005b6105c460048036038101906105bf9190613a88565b612155565b005b6105e060048036038101906105db919061396a565b61231a565b6040516105ed91906146c7565b60405180910390f35b610610600480360381019061060b9190613a88565b61236f565b005b61062c60048036038101906106279190613ada565b6124fa565b005b610636612612565b60405161064391906146c7565b60405180910390f35b6106666004803603810190610661919061396a565b612618565b005b610682600480360381019061067d919061396a565b612748565b005b600560009054906101000a900473ffffffffffffffffffffffffffffffffffffffff1681565b60008060008060006106bb866106f1565b909192505080925081935050506106dd8682846106d891906148bd565b611596565b925082600e54841094509450505050915091565b60008060008061070085611327565b50600160008673ffffffffffffffffffffffffffffffffffffffff1673ffffffffffffffffffffffffffffffffffffffff16815260200190815260200160002060000154600160008773ffffffffffffffffffffffffffffffffffffffff1673ffffffffffffffffffffffffffffffffffffffff1681526020019081526020016000206001015461079087611327565b600160008973ffffffffffffffffffffffffffffffffffffffff1673ffffffffffffffffffffffffffffffffffffffff1681526020019081526020016000206002015493509350935093509193509193565b6000600560009054906101000a900473ffffffffffffffffffffffffffffffffffffffff1673ffffffffffffffffffffffffffffffffffffffff166370a08231306040518263ffffffff1660e01b815260040161083f91906142fa565b60206040518083038186803b15801561085757600080fd5b505afa15801561086b573d6000803e3d6000fd5b505050506040513d601f19601f8201168201806040525081019061088f9190613ab1565b9050818110156108d4576040517f08c379a00000000000000000000000000000000000000000000000000000000081526004016108cb90614567565b60405180910390fd5b600660009054906101000a900473ffffffffffffffffffffffffffffffffffffffff1673ffffffffffffffffffffffffffffffffffffffff16639dc29fac33846040518363ffffffff1660e01b815260040161093192919061434c565b600060405180830381600087803b15801561094b57600080fd5b505af115801561095f573d6000803e3d6000fd5b50505050600560009054906101000a900473ffffffffffffffffffffffffffffffffffffffff1673ffffffffffffffffffffffffffffffffffffffff1663a9059cbb33846040518363ffffffff1660e01b81526004016109c092919061434c565b602060405180830381600087803b1580156109da57600080fd5b505af11580156109ee573d6000803e3d6000fd5b505050506040513d601f19601f82011682018060405250810190610a129190613a5f565b505050565b6000600260008373ffffffffffffffffffffffffffffffffffffffff1673ffffffffffffffffffffffffffffffffffffffff168152602001908152602001600020549050919050565b600660009054906101000a900473ffffffffffffffffffffffffffffffffffffffff1681565b6000600160003373ffffffffffffffffffffffffffffffffffffffff1673ffffffffffffffffffffffffffffffffffffffff16815260200190815260200160002090508181600001541015610b10576040517f08c379a0000000000000000000000000000000000000000000000000000000008152600401610b07906146a7565b60405180910390fd5b6000610b1b33611327565b905080826001016000828254610b3191906148bd565b925050819055504282600201819055506000610b4c3361231a565b9050600d548111610b92576040517f08c379a0000000000000000000000000000000000000000000000000000000008152600401610b8990614427565b60405180910390fd5b60008084600101541415610bac5783600001549050610bd7565b600d5482610bba919061499e565b828560000154610bca9190614913565b610bd49190614944565b90505b84811015610c1a576040517f08c379a0000000000000000000000000000000000000000000000000000000008152600401610c11906144e7565b60405180910390fd5b84846000016000828254610c2e919061499e565b92505081905550600760009054906101000a900473ffffffffffffffffffffffffffffffffffffffff1673ffffffffffffffffffffffffffffffffffffffff1663a9059cbb33876040518363ffffffff1660e01b8152600401610c9292919061434c565b602060405180830381600087803b158015610cac57600080fd5b505af1158015610cc0573d6000803e3d6000fd5b505050506040513d601f19601f82011682018060405250810190610ce49190613a5f565b610d23576040517f08c379a0000000000000000000000000000000000000000000000000000000008152600401610d1a906144a7565b60405180910390fd5b3373ffffffffffffffffffffffffffffffffffffffff167f884edad9ce6fa2440d8a54cc123490eb96d2768479d49ff9c7366125a942436486604051610d6991906146c7565b60405180910390a25050505050565b60008111610dbb576040517f08c379a0000000000000000000000000000000000000000000000000000000008152600401610db2906145c7565b60405180910390fd5b6000600160003373ffffffffffffffffffffffffffffffffffffffff1673ffffffffffffffffffffffffffffffffffffffff1681526020019081526020016000209050610e0733611327565b816001016000828254610e1a91906148bd565b925050819055504281600201819055508181600101541115610f4657600660009054906101000a900473ffffffffffffffffffffffffffffffffffffffff1673ffffffffffffffffffffffffffffffffffffffff166323b872dd3330856040518463ffffffff1660e01b8152600401610e9593929190614315565b602060405180830381600087803b158015610eaf57600080fd5b505af1158015610ec3573d6000803e3d6000fd5b505050506040513d601f19601f82011682018060405250810190610ee79190613a5f565b610f26576040517f08c379a0000000000000000000000000000000000000000000000000000000008152600401610f1d90614587565b60405180910390fd5b81816001016000828254610f3a919061499e565b92505081905550611045565b600660009054906101000a900473ffffffffffffffffffffffffffffffffffffffff1673ffffffffffffffffffffffffffffffffffffffff166323b872dd333084600101546040518463ffffffff1660e01b8152600401610fa993929190614315565b602060405180830381600087803b158015610fc357600080fd5b505af1158015610fd7573d6000803e3d6000fd5b505050506040513d601f19601f82011682018060405250810190610ffb9190613a5f565b61103a576040517f08c379a000000000000000000000000000000000000000000000000000000000815260040161103190614587565b60405180910390fd5b600081600101819055505b3373ffffffffffffffffffffffffffffffffffffffff167f2fe77b1c99aca6b022b8efc6e3e8dd1b48b30748709339b65c50ef3263443e09838360010154846000015460405161109793929190614795565b60405180910390a25050565b600a5481565b600981815481106110b957600080fd5b906000526020600020016000915054906101000a900473ffffffffffffffffffffffffffffffffffffffff1681565b6110f0612914565b73ffffffffffffffffffffffffffffffffffffffff1661110e611716565b73ffffffffffffffffffffffffffffffffffffffff1614611164576040517f08c379a000000000000000000000000000000000000000000000000000000000815260040161115b906145a7565b60405180910390fd5b600073ffffffffffffffffffffffffffffffffffffffff168373ffffffffffffffffffffffffffffffffffffffff16141580156111ce5750600073ffffffffffffffffffffffffffffffffffffffff168273ffffffffffffffffffffffffffffffffffffffff1614155b80156112075750600073ffffffffffffffffffffffffffffffffffffffff168173ffffffffffffffffffffffffffffffffffffffff1614155b611246576040517f08c379a000000000000000000000000000000000000000000000000000000000815260040161123d90614527565b60405180910390fd5b82600660006101000a81548173ffffffffffffffffffffffffffffffffffffffff021916908373ffffffffffffffffffffffffffffffffffffffff16021790555081600560006101000a81548173ffffffffffffffffffffffffffffffffffffffff021916908373ffffffffffffffffffffffffffffffffffffffff16021790555080600760006101000a81548173ffffffffffffffffffffffffffffffffffffffff021916908373ffffffffffffffffffffffffffffffffffffffff160217905550505050565b600d5481565b600f60009054906101000a9004600f0b81565b600080600160008473ffffffffffffffffffffffffffffffffffffffff1673ffffffffffffffffffffffffffffffffffffffff1681526020019081526020016000206001015414806113bb57506000600160008473ffffffffffffffffffffffffffffffffffffffff1673ffffffffffffffffffffffffffffffffffffffff16815260200190815260200160002060020154145b806113c857506000600c54145b806114145750600160008373ffffffffffffffffffffffffffffffffffffffff1673ffffffffffffffffffffffffffffffffffffffff1681526020019081526020016000206002015442145b156114225760009050611591565b6000600160008473ffffffffffffffffffffffffffffffffffffffff1673ffffffffffffffffffffffffffffffffffffffff1681526020019081526020016000206002015442611472919061499e565b90506000611497611482836128f1565b600f60009054906101000a9004600f0b61291c565b905060006114b96114a9600c546128f1565b6114b46127106128f1565b61291c565b90506000611508600160008873ffffffffffffffffffffffffffffffffffffffff1673ffffffffffffffffffffffffffffffffffffffff168152602001908152602001600020600101546128f1565b9050600061152f61152a8361152561152087896129cc565b612a37565b6129cc565b612ab0565b9050600160008873ffffffffffffffffffffffffffffffffffffffff1673ffffffffffffffffffffffffffffffffffffffff168152602001908152602001600020600101548167ffffffffffffffff16611589919061499e565b955050505050505b919050565b60006115a28383612ad1565b905092915050565b6115b2612914565b73ffffffffffffffffffffffffffffffffffffffff166115d0611716565b73ffffffffffffffffffffffffffffffffffffffff1614611626576040517f08c379a000000000000000000000000000000000000000000000000000000000815260040161161d906145a7565b60405180910390fd5b600073ffffffffffffffffffffffffffffffffffffffff1660008054906101000a900473ffffffffffffffffffffffffffffffffffffffff1673ffffffffffffffffffffffffffffffffffffffff167f8be0079c531659141344cd1fd0a4f28419497f9722a3daafe3b4186f6b6457e060405160405180910390a360008060006101000a81548173ffffffffffffffffffffffffffffffffffffffff021916908373ffffffffffffffffffffffffffffffffffffffff160217905550565b60045481565b600860009054906101000a900473ffffffffffffffffffffffffffffffffffffffff1681565b600c5481565b60008060009054906101000a900473ffffffffffffffffffffffffffffffffffffffff16905090565b60035481565b600e5481565b600760009054906101000a900473ffffffffffffffffffffffffffffffffffffffff1673ffffffffffffffffffffffffffffffffffffffff166323b872dd3330846040518463ffffffff1660e01b81526004016117aa93929190614315565b602060405180830381600087803b1580156117c457600080fd5b505af11580156117d8573d6000803e3d6000fd5b505050506040513d601f19601f820116820180604052508101906117fc9190613a5f565b61183b576040517f08c379a000000000000000000000000000000000000000000000000000000000815260040161183290614647565b60405180910390fd5b80600160003373ffffffffffffffffffffffffffffffffffffffff1673ffffffffffffffffffffffffffffffffffffffff168152602001908152602001600020600001600082825461188d91906148bd565b925050819055503373ffffffffffffffffffffffffffffffffffffffff167fe1fffcc4923d04b559f4d29a8bfc6cda04eb5b0d3c460751c2402c5c5cc9109c826040516118da91906146c7565b60405180910390a250565b6000600160008473ffffffffffffffffffffffffffffffffffffffff1673ffffffffffffffffffffffffffffffffffffffff1681526020019081526020016000209050600081600001541161196f576040517f08c379a000000000000000000000000000000000000000000000000000000000815260040161196690614487565b60405180910390fd5b600061197a84611327565b9050600e546119988583856001015461199391906148bd565b611596565b106119d8576040517f08c379a00000000000000000000000000000000000000000000000000000000081526004016119cf90614627565b60405180910390fd5b6000612710600a5484600001546119ef9190614944565b6119f99190614913565b90506000612710600b548560000154611a129190614944565b611a1c9190614913565b905083600001548183611a2f91906148bd565b1115611a70576040517f08c379a0000000000000000000000000000000000000000000000000000000008152600401611a67906145e7565b60405180910390fd5b612710851115611ab5576040517f08c379a0000000000000000000000000000000000000000000000000000000008152600401611aac90614607565b60405180910390fd5b81600260003073ffffffffffffffffffffffffffffffffffffffff1673ffffffffffffffffffffffffffffffffffffffff1681526020019081526020016000206000828254611b0491906148bd565b9250508190555080600260003373ffffffffffffffffffffffffffffffffffffffff1673ffffffffffffffffffffffffffffffffffffffff1681526020019081526020016000206000828254611b5a91906148bd565b925050819055506000600860009054906101000a900473ffffffffffffffffffffffffffffffffffffffff1673ffffffffffffffffffffffffffffffffffffffff1663d06ca61f866000015460096040518363ffffffff1660e01b8152600401611bc59291906146e2565b60006040518083038186803b158015611bdd57600080fd5b505afa158015611bf1573d6000803e3d6000fd5b505050506040513d6000823e3d601f19601f82011682018060405250810190611c1a9190613a1e565b600281518110611c53577f4e487b7100000000000000000000000000000000000000000000000000000000600052603260045260246000fd5b602002602001015190506000600860009054906101000a900473ffffffffffffffffffffffffffffffffffffffff1690508073ffffffffffffffffffffffffffffffffffffffff166338ed17398486611cac91906148bd565b8860000154611cbb919061499e565b6127108a612710611ccc919061499e565b86611cd79190614944565b611ce19190614913565b600930426040518663ffffffff1660e01b8152600401611d0595949392919061473b565b600060405180830381600087803b158015611d1f57600080fd5b505af1158015611d33573d6000803e3d6000fd5b505050506040513d6000823e3d601f19601f82011682018060405250810190611d5c9190613a1e565b5060008660000181905550600086600101819055503373ffffffffffffffffffffffffffffffffffffffff168873ffffffffffffffffffffffffffffffffffffffff167f5a821a618ddb1a1fd304234a69c9d7f20c129d122fcf35593d13a071926643076000806000604051611dd493929190614390565b60405180910390a35050505050505050565b600b5481565b600760009054906101000a900473ffffffffffffffffffffffffffffffffffffffff1681565b611e1a612914565b73ffffffffffffffffffffffffffffffffffffffff16611e38611716565b73ffffffffffffffffffffffffffffffffffffffff1614611e8e576040517f08c379a0000000000000000000000000000000000000000000000000000000008152600401611e85906145a7565b60405180910390fd5b6127108284611e9d91906148bd565b1115611ede576040517f08c379a0000000000000000000000000000000000000000000000000000000008152600401611ed590614507565b60405180910390fd5b82600a8190555081600b81905550612710811115611f31576040517f08c379a0000000000000000000000000000000000000000000000000000000008152600401611f2890614667565b60405180910390fd5b80600c81905550505050565b60008111611f80576040517f08c379a0000000000000000000000000000000000000000000000000000000008152600401611f7790614467565b60405180910390fd5b6000600160003373ffffffffffffffffffffffffffffffffffffffff1673ffffffffffffffffffffffffffffffffffffffff16815260200190815260200160002090506000611fce33611327565b9050600d54611ff73385848660010154611fe891906148bd565b611ff291906148bd565b611596565b1015612038576040517f08c379a000000000000000000000000000000000000000000000000000000000815260040161202f906143e7565b60405180910390fd5b808361204491906148bd565b82600101600082825461205791906148bd565b92505081905550428260020181905550600660009054906101000a900473ffffffffffffffffffffffffffffffffffffffff1673ffffffffffffffffffffffffffffffffffffffff166340c10f1933856040518363ffffffff1660e01b81526004016120c492919061434c565b600060405180830381600087803b1580156120de57600080fd5b505af11580156120f2573d6000803e3d6000fd5b505050503373ffffffffffffffffffffffffffffffffffffffff167f13ed6866d4e1ee6da46f845c46d7e54120883d75c5ea9a2dacc1c4ca8984ab80848460010154856000015460405161214893929190614795565b60405180910390a2505050565b60008111612198576040517f08c379a000000000000000000000000000000000000000000000000000000000815260040161218f90614447565b60405180910390fd5b600560009054906101000a900473ffffffffffffffffffffffffffffffffffffffff1673ffffffffffffffffffffffffffffffffffffffff166323b872dd3330846040518463ffffffff1660e01b81526004016121f793929190614315565b602060405180830381600087803b15801561221157600080fd5b505af1158015612225573d6000803e3d6000fd5b505050506040513d601f19601f820116820180604052508101906122499190613a5f565b612288576040517f08c379a000000000000000000000000000000000000000000000000000000000815260040161227f906143c7565b60405180910390fd5b600660009054906101000a900473ffffffffffffffffffffffffffffffffffffffff1673ffffffffffffffffffffffffffffffffffffffff166340c10f1933836040518363ffffffff1660e01b81526004016122e592919061434c565b600060405180830381600087803b1580156122ff57600080fd5b505af1158015612313573d6000803e3d6000fd5b5050505050565b600061236882600160008573ffffffffffffffffffffffffffffffffffffffff1673ffffffffffffffffffffffffffffffffffffffff16815260200190815260200160002060010154612ad1565b9050919050565b80600260003373ffffffffffffffffffffffffffffffffffffffff1673ffffffffffffffffffffffffffffffffffffffff1681526020019081526020016000205410156123f1576040517f08c379a00000000000000000000000000000000000000000000000000000000081526004016123e890614547565b60405180910390fd5b80600260003373ffffffffffffffffffffffffffffffffffffffff1673ffffffffffffffffffffffffffffffffffffffff1681526020019081526020016000206000828254612440919061499e565b92505081905550600760009054906101000a900473ffffffffffffffffffffffffffffffffffffffff1673ffffffffffffffffffffffffffffffffffffffff1663a9059cbb33836040518363ffffffff1660e01b81526004016124a492919061434c565b602060405180830381600087803b1580156124be57600080fd5b505af11580156124d2573d6000803e3d6000fd5b505050506040513d601f19601f820116820180604052508101906124f69190613a5f565b5050565b612502612914565b73ffffffffffffffffffffffffffffffffffffffff16612520611716565b73ffffffffffffffffffffffffffffffffffffffff1614612576576040517f08c379a000000000000000000000000000000000000000000000000000000000815260040161256d906145a7565b60405180910390fd5b6127108210156125bb576040517f08c379a00000000000000000000000000000000000000000000000000000000081526004016125b2906144c7565b60405180910390fd5b612710811015612600576040517f08c379a00000000000000000000000000000000000000000000000000000000081526004016125f790614687565b60405180910390fd5b81600d8190555080600e819055505050565b61271081565b612620612914565b73ffffffffffffffffffffffffffffffffffffffff1661263e611716565b73ffffffffffffffffffffffffffffffffffffffff1614612694576040517f08c379a000000000000000000000000000000000000000000000000000000000815260040161268b906145a7565b60405180910390fd5b600073ffffffffffffffffffffffffffffffffffffffff168173ffffffffffffffffffffffffffffffffffffffff161415612704576040517f08c379a00000000000000000000000000000000000000000000000000000000081526004016126fb90614527565b60405180910390fd5b80600860006101000a81548173ffffffffffffffffffffffffffffffffffffffff021916908373ffffffffffffffffffffffffffffffffffffffff16021790555050565b612750612914565b73ffffffffffffffffffffffffffffffffffffffff1661276e611716565b73ffffffffffffffffffffffffffffffffffffffff16146127c4576040517f08c379a00000000000000000000000000000000000000000000000000000000081526004016127bb906145a7565b60405180910390fd5b600073ffffffffffffffffffffffffffffffffffffffff168173ffffffffffffffffffffffffffffffffffffffff161415612834576040517f08c379a000000000000000000000000000000000000000000000000000000000815260040161282b90614407565b60405180910390fd5b8073ffffffffffffffffffffffffffffffffffffffff1660008054906101000a900473ffffffffffffffffffffffffffffffffffffffff1673ffffffffffffffffffffffffffffffffffffffff167f8be0079c531659141344cd1fd0a4f28419497f9722a3daafe3b4186f6b6457e060405160405180910390a3806000806101000a81548173ffffffffffffffffffffffffffffffffffffffff021916908373ffffffffffffffffffffffffffffffffffffffff16021790555050565b6000677fffffffffffffff82111561290857600080fd5b604082901b9050919050565b600033905090565b60008082600f0b141561292e57600080fd5b600082600f0b604085600f0b901b81612970577f4e487b7100000000000000000000000000000000000000000000000000000000600052601260045260246000fd5b0590507fffffffffffffffffffffffffffffffff80000000000000000000000000000000600f0b81121580156129b957506f7fffffffffffffffffffffffffffffff600f0b8113155b6129c257600080fd5b8091505092915050565b600080604083600f0b85600f0b02901d90507fffffffffffffffffffffffffffffffff80000000000000000000000000000000600f0b8112158015612a2457506f7fffffffffffffffffffffffffffffff600f0b8113155b612a2d57600080fd5b8091505092915050565b60006840000000000000000082600f0b12612a5157600080fd5b7fffffffffffffffffffffffffffffffffffffffffffffffc0000000000000000082600f0b1215612a855760009050612aab565b612aa86080700171547652b82fe1777d0ffda0d23a7d1284600f0b02901d612c80565b90505b919050565b60008082600f0b1215612ac257600080fd5b604082600f0b901d9050919050565b600080600160008573ffffffffffffffffffffffffffffffffffffffff1673ffffffffffffffffffffffffffffffffffffffff1681526020019081526020016000206000015490506000811415612b2c576000915050612c7a565b6000831415612b5e577fffffffffffffffffffffffffffffffffffffffffffffffffffffffffffffffff915050612c7a565b6000600860009054906101000a900473ffffffffffffffffffffffffffffffffffffffff16905060008173ffffffffffffffffffffffffffffffffffffffff1663d06ca61f8460096040518363ffffffff1660e01b8152600401612bc39291906146e2565b60006040518083038186803b158015612bdb57600080fd5b505afa158015612bef573d6000803e3d6000fd5b505050506040513d6000823e3d601f19601f82011682018060405250810190612c189190613a1e565b600281518110612c51577f4e487b7100000000000000000000000000000000000000000000000000000000600052603260045260246000fd5b602002602001015190508461271082612c6a9190614944565b612c749190614913565b93505050505b92915050565b60006840000000000000000082600f0b12612c9a57600080fd5b7fffffffffffffffffffffffffffffffffffffffffffffffc0000000000000000082600f0b1215612cce576000905061387b565b60006f80000000000000000000000000000000905060006780000000000000008416600f0b1315612d1457608070016a09e667f3bcc908b2fb1366ea957d3e8202901c90505b60006740000000000000008416600f0b1315612d455760807001306fe0a31b7152de8d5a46305c85edec8202901c90505b60006720000000000000008416600f0b1315612d765760807001172b83c7d517adcdf7c8c50eb14a791f8202901c90505b60006710000000000000008416600f0b1315612da757608070010b5586cf9890f6298b92b71842a983638202901c90505b60006708000000000000008416600f0b1315612dd85760807001059b0d31585743ae7c548eb68ca417fd8202901c90505b60006704000000000000008416600f0b1315612e09576080700102c9a3e778060ee6f7caca4f7a29bde88202901c90505b60006702000000000000008416600f0b1315612e3a57608070010163da9fb33356d84a66ae336dcdfa3f8202901c90505b60006701000000000000008416600f0b1315612e6b576080700100b1afa5abcbed6129ab13ec11dc95438202901c90505b600066800000000000008416600f0b1315612e9b57608070010058c86da1c09ea1ff19d294cf2f679b8202901c90505b600066400000000000008416600f0b1315612ecb5760807001002c605e2e8cec506d21bfc89a23a00f8202901c90505b600066200000000000008416600f0b1315612efb576080700100162f3904051fa128bca9c55c31e5df8202901c90505b600066100000000000008416600f0b1315612f2b5760807001000b175effdc76ba38e31671ca9397258202901c90505b600066080000000000008416600f0b1315612f5b576080700100058ba01fb9f96d6cacd4b180917c3d8202901c90505b600066040000000000008416600f0b1315612f8b57608070010002c5cc37da9491d0985c348c68e7b38202901c90505b600066020000000000008416600f0b1315612fbb5760807001000162e525ee054754457d59952920268202901c90505b600066010000000000008416600f0b1315612feb57608070010000b17255775c040618bf4a4ade83fc8202901c90505b6000658000000000008416600f0b131561301a5760807001000058b91b5bc9ae2eed81e9b7d4cfab8202901c90505b6000654000000000008416600f0b1315613049576080700100002c5c89d5ec6ca4d7c8acc017b7c98202901c90505b6000652000000000008416600f0b131561307857608070010000162e43f4f831060e02d839a9d16d8202901c90505b6000651000000000008416600f0b13156130a7576080700100000b1721bcfc99d9f890ea069117638202901c90505b6000650800000000008416600f0b13156130d657608070010000058b90cf1e6d97f9ca14dbcc16288202901c90505b6000650400000000008416600f0b13156131055760807001000002c5c863b73f016468f6bac5ca2b8202901c90505b6000650200000000008416600f0b1315613134576080700100000162e430e5a18f6119e3c02282a58202901c90505b6000650100000000008416600f0b13156131635760807001000000b1721835514b86e6d96efd1bfe8202901c90505b60006480000000008416600f0b1315613191576080700100000058b90c0b48c6be5df846c5b2ef8202901c90505b60006440000000008416600f0b13156131bf57608070010000002c5c8601cc6b9e94213c72737a8202901c90505b60006420000000008416600f0b13156131ed5760807001000000162e42fff037df38aa2b219f068202901c90505b60006410000000008416600f0b131561321b57608070010000000b17217fba9c739aa5819f44f98202901c90505b60006408000000008416600f0b13156132495760807001000000058b90bfcdee5acd3c1cedc8238202901c90505b60006404000000008416600f0b1315613277576080700100000002c5c85fe31f35a6a30da1be508202901c90505b60006402000000008416600f0b13156132a557608070010000000162e42ff0999ce3541b9fffcf8202901c90505b60006401000000008416600f0b13156132d3576080700100000000b17217f80f4ef5aadda455548202901c90505b600063800000008416600f0b131561330057608070010000000058b90bfbf8479bd5a81b51ad8202901c90505b600063400000008416600f0b131561332d5760807001000000002c5c85fdf84bd62ae30a74cc8202901c90505b600063200000008416600f0b131561335a576080700100000000162e42fefb2fed257559bdaa8202901c90505b600063100000008416600f0b13156133875760807001000000000b17217f7d5a7716bba4a9ae8202901c90505b600063080000008416600f0b13156133b4576080700100000000058b90bfbe9ddbac5e109cce8202901c90505b600063040000008416600f0b13156133e157608070010000000002c5c85fdf4b15de6f17eb0d8202901c90505b600063020000008416600f0b131561340e5760807001000000000162e42fefa494f1478fde058202901c90505b600063010000008416600f0b131561343b57608070010000000000b17217f7d20cf927c8e94c8202901c90505b6000628000008416600f0b13156134675760807001000000000058b90bfbe8f71cb4e4b33d8202901c90505b6000624000008416600f0b1315613493576080700100000000002c5c85fdf477b662b269458202901c90505b6000622000008416600f0b13156134bf57608070010000000000162e42fefa3ae53369388c8202901c90505b6000621000008416600f0b13156134eb576080700100000000000b17217f7d1d351a389d408202901c90505b6000620800008416600f0b131561351757608070010000000000058b90bfbe8e8b2d3d4ede8202901c90505b6000620400008416600f0b13156135435760807001000000000002c5c85fdf4741bea6e77e8202901c90505b6000620200008416600f0b131561356f576080700100000000000162e42fefa39fe95583c28202901c90505b6000620100008416600f0b131561359b5760807001000000000000b17217f7d1cfb72b45e18202901c90505b60006180008416600f0b13156135c6576080700100000000000058b90bfbe8e7cc35c3f08202901c90505b60006140008416600f0b13156135f157608070010000000000002c5c85fdf473e242ea388202901c90505b60006120008416600f0b131561361c5760807001000000000000162e42fefa39f02b772c8202901c90505b60006110008416600f0b131561364757608070010000000000000b17217f7d1cf7d83c1a8202901c90505b60006108008416600f0b13156136725760807001000000000000058b90bfbe8e7bdcbe2e8202901c90505b60006104008416600f0b131561369d576080700100000000000002c5c85fdf473dea871f8202901c90505b60006102008416600f0b13156136c857608070010000000000000162e42fefa39ef44d918202901c90505b60006101008416600f0b13156136f3576080700100000000000000b17217f7d1cf79e9498202901c90505b600060808416600f0b131561371d57608070010000000000000058b90bfbe8e7bce5448202901c90505b600060408416600f0b13156137475760807001000000000000002c5c85fdf473de6eca8202901c90505b600060208416600f0b1315613771576080700100000000000000162e42fefa39ef366f8202901c90505b600060108416600f0b131561379b5760807001000000000000000b17217f7d1cf79afa8202901c90505b600060088416600f0b13156137c5576080700100000000000000058b90bfbe8e7bcd6d8202901c90505b600060048416600f0b13156137ef57608070010000000000000002c5c85fdf473de6b28202901c90505b600060028416600f0b13156138195760807001000000000000000162e42fefa39ef3588202901c90505b600060018416600f0b131561384357608070010000000000000000b17217f7d1cf79ab8202901c90505b604083600f0b901d603f03600f0b81901c90506f7fffffffffffffffffffffffffffffff600f0b81111561387657600080fd5b809150505b919050565b600061389361388e84614842565b614811565b905080838252602082019050828560208602820111156138b257600080fd5b60005b858110156138e257816138c88882613955565b8452602084019350602083019250506001810190506138b5565b5050509392505050565b6000813590506138fb81614b20565b92915050565b600082601f83011261391257600080fd5b8151613922848260208601613880565b91505092915050565b60008151905061393a81614b37565b92915050565b60008135905061394f81614b4e565b92915050565b60008151905061396481614b4e565b92915050565b60006020828403121561397c57600080fd5b600061398a848285016138ec565b91505092915050565b6000806000606084860312156139a857600080fd5b60006139b6868287016138ec565b93505060206139c7868287016138ec565b92505060406139d8868287016138ec565b9150509250925092565b600080604083850312156139f557600080fd5b6000613a03858286016138ec565b9250506020613a1485828601613940565b9150509250929050565b600060208284031215613a3057600080fd5b600082015167ffffffffffffffff811115613a4a57600080fd5b613a5684828501613901565b91505092915050565b600060208284031215613a7157600080fd5b6000613a7f8482850161392b565b91505092915050565b600060208284031215613a9a57600080fd5b6000613aa884828501613940565b91505092915050565b600060208284031215613ac357600080fd5b6000613ad184828501613955565b91505092915050565b60008060408385031215613aed57600080fd5b6000613afb85828601613940565b9250506020613b0c85828601613940565b9150509250929050565b600080600060608486031215613b2b57600080fd5b6000613b3986828701613940565b9350506020613b4a86828701613940565b9250506040613b5b86828701613940565b9150509250925092565b6000613b718383613b7d565b60208301905092915050565b613b86816149f2565b82525050565b613b95816149f2565b82525050565b6000613ba682614883565b613bb0818561489b565b9350613bbb8361486e565b8060005b83811015613bf357613bd082614b00565b613bda8882613b65565b9750613be58361488e565b925050600181019050613bbf565b5085935050505092915050565b613c0981614a04565b82525050565b613c1881614a10565b82525050565b613c2781614a47565b82525050565b6000613c3a6014836148ac565b91507f55534443207472616e73666572206661696c65640000000000000000000000006000830152602082019050919050565b6000613c7a6029836148ac565b91507f6e6f7420656e6f75676820636f6c6c61746572616c20746f20626f72726f772060008301527f74686174206d75636800000000000000000000000000000000000000000000006020830152604082019050919050565b6000613ce06026836148ac565b91507f4f776e61626c653a206e6577206f776e657220697320746865207a65726f206160008301527f64647265737300000000000000000000000000000000000000000000000000006020830152604082019050919050565b6000613d466022836148ac565b91507f6163636f756e7420616c72656164792062656c6f77207361666574792072617460008301527f696f0000000000000000000000000000000000000000000000000000000000006020830152604082019050919050565b6000613dac6014836148ac565b91507f63616e2774206d696e74207a65726f205553445a0000000000000000000000006000830152602082019050919050565b6000613dec600e836148ac565b91507f63616e277420626f72726f7720300000000000000000000000000000000000006000830152602082019050919050565b6000613e2c6019836148ac565b91507f6163636f756e7420686173206e6f20636f6c6c61746572616c000000000000006000830152602082019050919050565b6000613e6c6018836148ac565b91507f7769746864726177207472616e73666572206661696c656400000000000000006000830152602082019050919050565b6000613eac6029836148ac565b91507f626f72726f77207468726573686f6c64206d757374206265203e207363616c6960008301527f6e6720666163746f7200000000000000000000000000000000000000000000006020830152604082019050919050565b6000613f126019836148ac565b91507f616d6f756e7420756e7361666520746f207769746864726177000000000000006000830152602082019050919050565b6000613f526015836148ac565b91507f6c69712066656573206f7574206f662072616e676500000000000000000000006000830152602082019050919050565b6000613f926018836148ac565b91507f7a65726f2061646472657373206e6f7420616c6c6f77656400000000000000006000830152602082019050919050565b6000613fd2601a836148ac565b91507f616d6f756e7420686967686572207468616e2062616c616e63650000000000006000830152602082019050919050565b60006140126014836148ac565b91507f55534443207265736572766520746f6f206c6f770000000000000000000000006000830152602082019050919050565b60006140526015836148ac565b91507f7265706179207472616e73666572206661696c656400000000000000000000006000830152602082019050919050565b60006140926020836148ac565b91507f4f776e61626c653a2063616c6c6572206973206e6f7420746865206f776e65726000830152602082019050919050565b60006140d2600d836148ac565b91507f63616e27742072657061792030000000000000000000000000000000000000006000830152602082019050919050565b60006141126018836148ac565b91507f6c6971206665657320696e636f72726563746c792073657400000000000000006000830152602082019050919050565b60006141526018836148ac565b91507f6d617820646973636f756e74206d6178206973203130302500000000000000006000830152602082019050919050565b6000614192601f836148ac565b91507f6163636f756e74206e6f742062656c6f77206c6971207468726573686f6c64006000830152602082019050919050565b60006141d2600e836148ac565b91507f6465706f736974206661696c65640000000000000000000000000000000000006000830152602082019050919050565b60006142126019836148ac565b91507f696e74657265737452617465206f7574206f662072616e6765000000000000006000830152602082019050919050565b60006142526026836148ac565b91507f6c6971207468726573686f6c64206d757374206265203e207363616c696e672060008301527f666163746f7200000000000000000000000000000000000000000000000000006020830152604082019050919050565b60006142b86020836148ac565b91507f6e6f7420656e6f75676820636f6c6c61746572616c20696e206163636f756e746000830152602082019050919050565b6142f481614a3d565b82525050565b600060208201905061430f6000830184613b8c565b92915050565b600060608201905061432a6000830186613b8c565b6143376020830185613b8c565b61434460408301846142eb565b949350505050565b60006040820190506143616000830185613b8c565b61436e60208301846142eb565b9392505050565b600060208201905061438a6000830184613c0f565b92915050565b60006060820190506143a56000830186613c1e565b6143b26020830185613c1e565b6143bf6040830184613c1e565b949350505050565b600060208201905081810360008301526143e081613c2d565b9050919050565b6000602082019050818103600083015261440081613c6d565b9050919050565b6000602082019050818103600083015261442081613cd3565b9050919050565b6000602082019050818103600083015261444081613d39565b9050919050565b6000602082019050818103600083015261446081613d9f565b9050919050565b6000602082019050818103600083015261448081613ddf565b9050919050565b600060208201905081810360008301526144a081613e1f565b9050919050565b600060208201905081810360008301526144c081613e5f565b9050919050565b600060208201905081810360008301526144e081613e9f565b9050919050565b6000602082019050818103600083015261450081613f05565b9050919050565b6000602082019050818103600083015261452081613f45565b9050919050565b6000602082019050818103600083015261454081613f85565b9050919050565b6000602082019050818103600083015261456081613fc5565b9050919050565b6000602082019050818103600083015261458081614005565b9050919050565b600060208201905081810360008301526145a081614045565b9050919050565b600060208201905081810360008301526145c081614085565b9050919050565b600060208201905081810360008301526145e0816140c5565b9050919050565b6000602082019050818103600083015261460081614105565b9050919050565b6000602082019050818103600083015261462081614145565b9050919050565b6000602082019050818103600083015261464081614185565b9050919050565b60006020820190508181036000830152614660816141c5565b9050919050565b6000602082019050818103600083015261468081614205565b9050919050565b600060208201905081810360008301526146a081614245565b9050919050565b600060208201905081810360008301526146c0816142ab565b9050919050565b60006020820190506146dc60008301846142eb565b92915050565b60006040820190506146f760008301856142eb565b81810360208301526147098184613b9b565b90509392505050565b600060408201905061472760008301856142eb565b6147346020830184613c00565b9392505050565b600060a08201905061475060008301886142eb565b61475d60208301876142eb565b818103604083015261476f8186613b9b565b905061477e6060830185613b8c565b61478b60808301846142eb565b9695505050505050565b60006060820190506147aa60008301866142eb565b6147b760208301856142eb565b6147c460408301846142eb565b949350505050565b60006080820190506147e160008301876142eb565b6147ee60208301866142eb565b6147fb60408301856142eb565b61480860608301846142eb565b95945050505050565b6000604051905081810181811067ffffffffffffffff8211171561483857614837614ad1565b5b8060405250919050565b600067ffffffffffffffff82111561485d5761485c614ad1565b5b602082029050602081019050919050565b60008190508160005260206000209050919050565b600081549050919050565b6000600182019050919050565b600082825260208201905092915050565b600082825260208201905092915050565b60006148c882614a3d565b91506148d383614a3d565b9250827fffffffffffffffffffffffffffffffffffffffffffffffffffffffffffffffff0382111561490857614907614a73565b5b828201905092915050565b600061491e82614a3d565b915061492983614a3d565b92508261493957614938614aa2565b5b828204905092915050565b600061494f82614a3d565b915061495a83614a3d565b9250817fffffffffffffffffffffffffffffffffffffffffffffffffffffffffffffffff048311821515161561499357614992614a73565b5b828202905092915050565b60006149a982614a3d565b91506149b483614a3d565b9250828210156149c7576149c6614a73565b5b828203905092915050565b600073ffffffffffffffffffffffffffffffffffffffff82169050919050565b60006149fd82614a1d565b9050919050565b60008115159050919050565b600081600f0b9050919050565b600073ffffffffffffffffffffffffffffffffffffffff82169050919050565b6000819050919050565b6000614a5282614a3d565b9050919050565b6000614a6c614a6783614b13565b6149d2565b9050919050565b7f4e487b7100000000000000000000000000000000000000000000000000000000600052601160045260246000fd5b7f4e487b7100000000000000000000000000000000000000000000000000000000600052601260045260246000fd5b7f4e487b7100000000000000000000000000000000000000000000000000000000600052604160045260246000fd5b6000614b0c8254614a59565b9050919050565b60008160001c9050919050565b614b29816149f2565b8114614b3457600080fd5b50565b614b4081614a04565b8114614b4b57600080fd5b50565b614b5781614a3d565b8114614b6257600080fd5b5056fea26469706673582212206d12669cfab7689ed7705a09685ebb0a6c5ae18e240c84283ded50ecf48eeff864736f6c63430008000033",
  "linkReferences": {},
  "deployedLinkReferences": {}
}