{
  "_format": "hh-sol-artifact-1",
  "contractName": "Controller",
  "sourceName": "contracts/Controller.sol",
  "abi": [
    {
      "inputs": [
        {
          "internalType": "address",
          "name": "_usdzAddress",
          "type": "address"
        },
        {
          "internalType": "address",
          "name": "_usdcAddress",
          "type": "address"
        },
        {
          "internalType": "address",
          "name": "_xSushiAddress",
          "type": "address"
        },
        {
          "internalType": "address",
          "name": "_routerAddress",
          "type": "address"
        },
        {
          "internalType": "address[]",
          "name": "_swapPath",
          "type": "address[]"
        },
        {
          "internalType": "uint256",
          "name": "_liqTotalFee",
          "type": "uint256"
        },
        {
          "internalType": "uint256",
          "name": "_liqFeeShare",
          "type": "uint256"
        },
        {
          "internalType": "uint256",
          "name": "_interestRate",
          "type": "uint256"
        },
        {
          "internalType": "uint256",
          "name": "_borrowThreshold",
          "type": "uint256"
        },
        {
          "internalType": "uint256",
          "name": "_liqThreshold",
          "type": "uint256"
        }
      ],
      "stateMutability": "nonpayable",
      "type": "constructor"
    },
    {
      "anonymous": false,
      "inputs": [
        {
          "indexed": true,
          "internalType": "address",
          "name": "account",
          "type": "address"
        },
        {
          "indexed": false,
          "internalType": "uint256",
          "name": "amountBorrowed",
          "type": "uint256"
        },
        {
          "indexed": false,
          "internalType": "uint256",
          "name": "totalDebt",
          "type": "uint256"
        },
        {
          "indexed": false,
          "internalType": "uint256",
          "name": "collateralAmount",
          "type": "uint256"
        }
      ],
      "name": "Borrow",
      "type": "event"
    },
    {
      "anonymous": false,
      "inputs": [
        {
          "indexed": true,
          "internalType": "address",
          "name": "account",
          "type": "address"
        },
        {
          "indexed": false,
          "internalType": "uint256",
          "name": "amount",
          "type": "uint256"
        }
      ],
      "name": "Deposit",
      "type": "event"
    },
    {
      "anonymous": false,
      "inputs": [
        {
          "indexed": true,
          "internalType": "address",
          "name": "account",
          "type": "address"
        },
        {
          "indexed": true,
          "internalType": "address",
          "name": "liquidator",
          "type": "address"
        },
        {
          "indexed": false,
          "internalType": "uint256",
          "name": "collateralLiquidated",
          "type": "uint256"
        },
        {
          "indexed": false,
          "internalType": "uint256",
          "name": "lastCollateralRatio",
          "type": "uint256"
        },
        {
          "indexed": false,
          "internalType": "uint256",
          "name": "lastDebtOutstanding",
          "type": "uint256"
        }
      ],
      "name": "Liquidation",
      "type": "event"
    },
    {
      "anonymous": false,
      "inputs": [
        {
          "indexed": true,
          "internalType": "address",
          "name": "previousOwner",
          "type": "address"
        },
        {
          "indexed": true,
          "internalType": "address",
          "name": "newOwner",
          "type": "address"
        }
      ],
      "name": "OwnershipTransferred",
      "type": "event"
    },
    {
      "anonymous": false,
      "inputs": [
        {
          "indexed": true,
          "internalType": "address",
          "name": "account",
          "type": "address"
        },
        {
          "indexed": false,
          "internalType": "uint256",
          "name": "debtRepaid",
          "type": "uint256"
        },
        {
          "indexed": false,
          "internalType": "uint256",
          "name": "debtRemaining",
          "type": "uint256"
        },
        {
          "indexed": false,
          "internalType": "uint256",
          "name": "collateralAmount",
          "type": "uint256"
        }
      ],
      "name": "Repay",
      "type": "event"
    },
    {
      "anonymous": false,
      "inputs": [
        {
          "indexed": true,
          "internalType": "address",
          "name": "account",
          "type": "address"
        },
        {
          "indexed": false,
          "internalType": "uint256",
          "name": "amount",
          "type": "uint256"
        }
      ],
      "name": "Withdraw",
      "type": "event"
    },
    {
      "inputs": [],
      "name": "SCALING_FACTOR",
      "outputs": [
        {
          "internalType": "uint256",
          "name": "",
          "type": "uint256"
        }
      ],
      "stateMutability": "view",
      "type": "function"
    },
    {
      "inputs": [],
      "name": "SECONDS_IN_YEAR",
      "outputs": [
        {
          "internalType": "int128",
          "name": "",
          "type": "int128"
        }
      ],
      "stateMutability": "view",
      "type": "function"
    },
    {
      "inputs": [
        {
          "internalType": "uint256",
          "name": "_amount",
          "type": "uint256"
        }
      ],
      "name": "borrow",
      "outputs": [],
      "stateMutability": "nonpayable",
      "type": "function"
    },
    {
      "inputs": [],
      "name": "borrowThreshold",
      "outputs": [
        {
          "internalType": "uint256",
          "name": "",
          "type": "uint256"
        }
      ],
      "stateMutability": "view",
      "type": "function"
    },
    {
      "inputs": [
        {
          "internalType": "address",
          "name": "_account",
          "type": "address"
        }
      ],
      "name": "calcInterest",
      "outputs": [
        {
          "internalType": "uint256",
          "name": "interest",
          "type": "uint256"
        }
      ],
      "stateMutability": "view",
      "type": "function"
    },
    {
      "inputs": [
        {
          "internalType": "uint256",
          "name": "_amount",
          "type": "uint256"
        }
      ],
      "name": "deposit",
      "outputs": [],
      "stateMutability": "nonpayable",
      "type": "function"
    },
    {
      "inputs": [
        {
          "internalType": "address",
          "name": "_account",
          "type": "address"
        }
      ],
      "name": "getCurrentCollateralRatio",
      "outputs": [
        {
          "internalType": "uint256",
          "name": "",
          "type": "uint256"
        }
      ],
      "stateMutability": "view",
      "type": "function"
    },
    {
      "inputs": [
        {
          "internalType": "address",
          "name": "_account",
          "type": "address"
        },
        {
          "internalType": "uint256",
          "name": "_totalDebt",
          "type": "uint256"
        }
      ],
      "name": "getForwardCollateralRatio",
      "outputs": [
        {
          "internalType": "uint256",
          "name": "",
          "type": "uint256"
        }
      ],
      "stateMutability": "view",
      "type": "function"
    },
    {
      "inputs": [
        {
          "internalType": "address",
          "name": "_account",
          "type": "address"
        }
      ],
      "name": "getPosition",
      "outputs": [
        {
          "internalType": "uint256",
          "name": "",
          "type": "uint256"
        },
        {
          "internalType": "uint256",
          "name": "",
          "type": "uint256"
        },
        {
          "internalType": "uint256",
          "name": "",
          "type": "uint256"
        },
        {
          "internalType": "uint256",
          "name": "",
          "type": "uint256"
        }
      ],
      "stateMutability": "view",
      "type": "function"
    },
    {
      "inputs": [],
      "name": "interestRate",
      "outputs": [
        {
          "internalType": "uint256",
          "name": "",
          "type": "uint256"
        }
      ],
      "stateMutability": "view",
      "type": "function"
    },
    {
      "inputs": [
        {
          "internalType": "address",
          "name": "_account",
          "type": "address"
        }
      ],
      "name": "liquidate",
      "outputs": [],
      "stateMutability": "nonpayable",
      "type": "function"
    },
    {
      "inputs": [],
      "name": "liquidationFee",
      "outputs": [
        {
          "internalType": "uint256",
          "name": "",
          "type": "uint256"
        }
      ],
      "stateMutability": "view",
      "type": "function"
    },
    {
      "inputs": [],
      "name": "liquidationThreshold",
      "outputs": [
        {
          "internalType": "uint256",
          "name": "",
          "type": "uint256"
        }
      ],
      "stateMutability": "view",
      "type": "function"
    },
    {
      "inputs": [],
      "name": "liquidatorFeeShare",
      "outputs": [
        {
          "internalType": "uint256",
          "name": "",
          "type": "uint256"
        }
      ],
      "stateMutability": "view",
      "type": "function"
    },
    {
      "inputs": [],
      "name": "owner",
      "outputs": [
        {
          "internalType": "address",
          "name": "",
          "type": "address"
        }
      ],
      "stateMutability": "view",
      "type": "function"
    },
    {
      "inputs": [],
      "name": "protocolShortfall",
      "outputs": [
        {
          "internalType": "uint256",
          "name": "",
          "type": "uint256"
        }
      ],
      "stateMutability": "view",
      "type": "function"
    },
    {
      "inputs": [],
      "name": "renounceOwnership",
      "outputs": [],
      "stateMutability": "nonpayable",
      "type": "function"
    },
    {
      "inputs": [
        {
          "internalType": "uint256",
          "name": "_amount",
          "type": "uint256"
        }
      ],
      "name": "repay",
      "outputs": [],
      "stateMutability": "nonpayable",
      "type": "function"
    },
    {
      "inputs": [
        {
          "internalType": "uint256",
          "name": "_liqTotalFee",
          "type": "uint256"
        },
        {
          "internalType": "uint256",
          "name": "_liqFeeShare",
          "type": "uint256"
        },
        {
          "internalType": "uint256",
          "name": "_interestRate",
          "type": "uint256"
        }
      ],
      "name": "setFeesAndRates",
      "outputs": [],
      "stateMutability": "nonpayable",
      "type": "function"
    },
    {
      "inputs": [
        {
          "internalType": "address",
          "name": "_sushiRouter",
          "type": "address"
        }
      ],
      "name": "setSushiAddresses",
      "outputs": [],
      "stateMutability": "nonpayable",
      "type": "function"
    },
    {
      "inputs": [
        {
          "internalType": "uint256",
          "name": "_borrowThreshold",
          "type": "uint256"
        },
        {
          "internalType": "uint256",
          "name": "_liqThreshold",
          "type": "uint256"
        }
      ],
      "name": "setThresholds",
      "outputs": [],
      "stateMutability": "nonpayable",
      "type": "function"
    },
    {
      "inputs": [
        {
          "internalType": "address",
          "name": "_usdz",
          "type": "address"
        },
        {
          "internalType": "address",
          "name": "_usdc",
          "type": "address"
        },
        {
          "internalType": "address",
          "name": "_xsushi",
          "type": "address"
        }
      ],
      "name": "setTokenAddresses",
      "outputs": [],
      "stateMutability": "nonpayable",
      "type": "function"
    },
    {
      "inputs": [],
      "name": "sushiRouterAddress",
      "outputs": [
        {
          "internalType": "address",
          "name": "",
          "type": "address"
        }
      ],
      "stateMutability": "view",
      "type": "function"
    },
    {
      "inputs": [
        {
          "internalType": "uint256",
          "name": "_usdcAmount",
          "type": "uint256"
        }
      ],
      "name": "swapUSDCforUSDZ",
      "outputs": [],
      "stateMutability": "nonpayable",
      "type": "function"
    },
    {
      "inputs": [
        {
          "internalType": "uint256",
          "name": "_usdzAmount",
          "type": "uint256"
        }
      ],
      "name": "swapUSDZforUSDC",
      "outputs": [],
      "stateMutability": "nonpayable",
      "type": "function"
    },
    {
      "inputs": [
        {
          "internalType": "address",
          "name": "newOwner",
          "type": "address"
        }
      ],
      "name": "transferOwnership",
      "outputs": [],
      "stateMutability": "nonpayable",
      "type": "function"
    },
    {
      "inputs": [],
      "name": "usdcAddress",
      "outputs": [
        {
          "internalType": "address",
          "name": "",
          "type": "address"
        }
      ],
      "stateMutability": "view",
      "type": "function"
    },
    {
      "inputs": [],
      "name": "usdzAddress",
      "outputs": [
        {
          "internalType": "address",
          "name": "",
          "type": "address"
        }
      ],
      "stateMutability": "view",
      "type": "function"
    },
    {
      "inputs": [
        {
          "internalType": "uint256",
          "name": "_amount",
          "type": "uint256"
        }
      ],
      "name": "withdraw",
      "outputs": [],
      "stateMutability": "nonpayable",
      "type": "function"
    },
    {
      "inputs": [],
      "name": "xSushiAddress",
      "outputs": [
        {
          "internalType": "address",
          "name": "",
          "type": "address"
        }
      ],
      "stateMutability": "view",
      "type": "function"
    },
    {
      "inputs": [
        {
          "internalType": "uint256",
          "name": "",
          "type": "uint256"
        }
      ],
      "name": "xSushiToUsdcPath",
      "outputs": [
        {
          "internalType": "address",
          "name": "",
          "type": "address"
        }
      ],
      "stateMutability": "view",
      "type": "function"
    }
  ],
  "bytecode": "0x60806040523480156200001157600080fd5b5060405162004ac138038062004ac1833981810160405281019062000037919062000436565b6000620000496200028c60201b60201c565b9050806000806101000a81548173ffffffffffffffffffffffffffffffffffffffff021916908373ffffffffffffffffffffffffffffffffffffffff1602179055508073ffffffffffffffffffffffffffffffffffffffff16600073ffffffffffffffffffffffffffffffffffffffff167f8be0079c531659141344cd1fd0a4f28419497f9722a3daafe3b4186f6b6457e060405160405180910390a35089600460006101000a81548173ffffffffffffffffffffffffffffffffffffffff021916908373ffffffffffffffffffffffffffffffffffffffff16021790555088600360006101000a81548173ffffffffffffffffffffffffffffffffffffffff021916908373ffffffffffffffffffffffffffffffffffffffff16021790555087600560006101000a81548173ffffffffffffffffffffffffffffffffffffffff021916908373ffffffffffffffffffffffffffffffffffffffff16021790555086600660006101000a81548173ffffffffffffffffffffffffffffffffffffffff021916908373ffffffffffffffffffffffffffffffffffffffff160217905550846008819055508360098190555082600a8190555081600b8190555080600c81905550856007908051906020019062000226929190620002b8565b50620002416301e185586200029460201b620023161760201c565b600d60006101000a8154816fffffffffffffffffffffffffffffffff0219169083600f0b6fffffffffffffffffffffffffffffffff1602179055505050505050505050505062000643565b600033905090565b6000677fffffffffffffff821115620002ac57600080fd5b604082901b9050919050565b82805482825590600052602060002090810192821562000334579160200282015b82811115620003335782518260006101000a81548173ffffffffffffffffffffffffffffffffffffffff021916908373ffffffffffffffffffffffffffffffffffffffff16021790555091602001919060010190620002d9565b5b50905062000343919062000347565b5090565b5b808211156200036257600081600090555060010162000348565b5090565b60006200037d620003778462000573565b6200053f565b905080838252602082019050828560208602820111156200039d57600080fd5b60005b85811015620003d15781620003b68882620003db565b845260208401935060208301925050600181019050620003a0565b5050509392505050565b600081519050620003ec816200060f565b92915050565b600082601f8301126200040457600080fd5b81516200041684826020860162000366565b91505092915050565b600081519050620004308162000629565b92915050565b6000806000806000806000806000806101408b8d0312156200045757600080fd5b6000620004678d828e01620003db565b9a505060206200047a8d828e01620003db565b99505060406200048d8d828e01620003db565b9850506060620004a08d828e01620003db565b97505060808b015167ffffffffffffffff811115620004be57600080fd5b620004cc8d828e01620003f2565b96505060a0620004df8d828e016200041f565b95505060c0620004f28d828e016200041f565b94505060e0620005058d828e016200041f565b935050610100620005198d828e016200041f565b9250506101206200052d8d828e016200041f565b9150509295989b9194979a5092959850565b6000604051905081810181811067ffffffffffffffff82111715620005695762000568620005e0565b5b8060405250919050565b600067ffffffffffffffff821115620005915762000590620005e0565b5b602082029050602081019050919050565b6000620005af82620005b6565b9050919050565b600073ffffffffffffffffffffffffffffffffffffffff82169050919050565b6000819050919050565b7f4e487b7100000000000000000000000000000000000000000000000000000000600052604160045260246000fd5b6200061a81620005a2565b81146200062657600080fd5b50565b6200063481620005d6565b81146200064057600080fd5b50565b61446e80620006536000396000f3fe608060405234801561001057600080fd5b50600436106101e55760003560e01c8063715018a61161010f578063bfaf48d4116100a2578063e3064a7711610071578063e3064a771461054b578063ef4cadc514610567578063f248e7e814610585578063f2fde38b146105a1576101e5565b8063bfaf48d4146104c7578063c5ebeaec146104e3578063cde5f672146104ff578063daf5539e1461051b576101e5565b8063a36a3630116100de578063a36a363014610451578063af1f556f1461046f578063b6b55f251461048d578063bdfccad3146104a9576101e5565b8063715018a6146103ed57806379bbce8f146103f75780637c3a00fd146104155780638da5cb5b14610433576101e5565b80634031234c116101875780635ae547e3116101565780635ae547e3146103515780635dcc93911461036f57806369cb89c71461038d5780637046b7a9146103bd576101e5565b80634031234c146102c95780634a63a5ce146102e75780634d3f9d3e146103175780635405480814610333576101e5565b806320bdf800116101c357806320bdf800146102575780632e1a7d4d146102755780632f86556814610291578063371fd8e6146102ad576101e5565b806302d45457146101ea57806316c19739146102085780631d89b1031461023b575b600080fd5b6101f26105bd565b6040516101ff9190613c90565b60405180910390f35b610222600480360381019061021d919061338f565b6105e3565b604051610232949392919061409f565b60405180910390f35b610255600480360381019061025091906134ad565b6106d4565b005b61025f610909565b60405161026c9190613c90565b60405180910390f35b61028f600480360381019061028a91906134ad565b61092f565b005b6102ab60048036038101906102a6919061338f565b610c21565b005b6102c760048036038101906102c291906134ad565b610dc2565b005b6102d16110ed565b6040516102de919061401d565b60405180910390f35b61030160048036038101906102fc91906134ad565b6110f3565b60405161030e9190613c90565b60405180910390f35b610331600480360381019061032c91906133b8565b611132565b005b61033b611358565b604051610348919061401d565b60405180910390f35b61035961135e565b604051610366919061401d565b60405180910390f35b610377611364565b6040516103849190613d0b565b60405180910390f35b6103a760048036038101906103a2919061338f565b611377565b6040516103b4919061401d565b60405180910390f35b6103d760048036038101906103d29190613407565b6115e6565b6040516103e4919061401d565b60405180910390f35b6103f56115fa565b005b6103ff611734565b60405161040c9190613c90565b60405180910390f35b61041d61175a565b60405161042a919061401d565b60405180910390f35b61043b611760565b6040516104489190613c90565b60405180910390f35b610459611789565b604051610466919061401d565b60405180910390f35b61047761178f565b604051610484919061401d565b60405180910390f35b6104a760048036038101906104a291906134ad565b611795565b005b6104b161192f565b6040516104be9190613c90565b60405180910390f35b6104e160048036038101906104dc919061353b565b611955565b005b6104fd60048036038101906104f891906134ad565b611aed565b005b610519600480360381019061051491906134ad565b611d05565b005b6105356004803603810190610530919061338f565b611eca565b604051610542919061401d565b60405180910390f35b610565600480360381019061056091906134ff565b611f1f565b005b61056f612037565b60405161057c919061401d565b60405180910390f35b61059f600480360381019061059a919061338f565b61203d565b005b6105bb60048036038101906105b6919061338f565b61216d565b005b600360009054906101000a900473ffffffffffffffffffffffffffffffffffffffff1681565b6000806000806105f285611377565b50600160008673ffffffffffffffffffffffffffffffffffffffff1673ffffffffffffffffffffffffffffffffffffffff16815260200190815260200160002060000154600160008773ffffffffffffffffffffffffffffffffffffffff1673ffffffffffffffffffffffffffffffffffffffff1681526020019081526020016000206001015461068287611377565b600160008973ffffffffffffffffffffffffffffffffffffffff1673ffffffffffffffffffffffffffffffffffffffff1681526020019081526020016000206002015493509350935093509193509193565b6000600360009054906101000a900473ffffffffffffffffffffffffffffffffffffffff1673ffffffffffffffffffffffffffffffffffffffff166370a08231306040518263ffffffff1660e01b81526004016107319190613c90565b60206040518083038186803b15801561074957600080fd5b505afa15801561075d573d6000803e3d6000fd5b505050506040513d601f19601f8201168201806040525081019061078191906134d6565b9050818110156107c6576040517f08c379a00000000000000000000000000000000000000000000000000000000081526004016107bd90613edd565b60405180910390fd5b600460009054906101000a900473ffffffffffffffffffffffffffffffffffffffff1673ffffffffffffffffffffffffffffffffffffffff16639dc29fac33846040518363ffffffff1660e01b8152600401610823929190613ce2565b600060405180830381600087803b15801561083d57600080fd5b505af1158015610851573d6000803e3d6000fd5b50505050600360009054906101000a900473ffffffffffffffffffffffffffffffffffffffff1673ffffffffffffffffffffffffffffffffffffffff1663a9059cbb33846040518363ffffffff1660e01b81526004016108b2929190613ce2565b602060405180830381600087803b1580156108cc57600080fd5b505af11580156108e0573d6000803e3d6000fd5b505050506040513d601f19601f820116820180604052508101906109049190613484565b505050565b600460009054906101000a900473ffffffffffffffffffffffffffffffffffffffff1681565b6000600160003373ffffffffffffffffffffffffffffffffffffffff1673ffffffffffffffffffffffffffffffffffffffff168152602001908152602001600020905081816000015410156109b9576040517f08c379a00000000000000000000000000000000000000000000000000000000081526004016109b090613ffd565b60405180910390fd5b60006109c433611377565b9050808260010160008282546109da9190614190565b9250508190555042826002018190555060006109f533611eca565b9050600b548111610a3b576040517f08c379a0000000000000000000000000000000000000000000000000000000008152600401610a3290613ddd565b60405180910390fd5b60008084600101541415610a555783600001549050610a80565b600b5482610a639190614271565b828560000154610a7391906141e6565b610a7d9190614217565b90505b84811015610ac3576040517f08c379a0000000000000000000000000000000000000000000000000000000008152600401610aba90613e9d565b60405180910390fd5b84846000016000828254610ad79190614271565b92505081905550600560009054906101000a900473ffffffffffffffffffffffffffffffffffffffff1673ffffffffffffffffffffffffffffffffffffffff1663a9059cbb33876040518363ffffffff1660e01b8152600401610b3b929190613ce2565b602060405180830381600087803b158015610b5557600080fd5b505af1158015610b69573d6000803e3d6000fd5b505050506040513d601f19601f82011682018060405250810190610b8d9190613484565b610bcc576040517f08c379a0000000000000000000000000000000000000000000000000000000008152600401610bc390613e5d565b60405180910390fd5b3373ffffffffffffffffffffffffffffffffffffffff167f884edad9ce6fa2440d8a54cc123490eb96d2768479d49ff9c7366125a942436486604051610c12919061401d565b60405180910390a25050505050565b6000600160008373ffffffffffffffffffffffffffffffffffffffff1673ffffffffffffffffffffffffffffffffffffffff1681526020019081526020016000206000015411610ca6576040517f08c379a0000000000000000000000000000000000000000000000000000000008152600401610c9d90613e3d565b60405180910390fd5b6000600160008373ffffffffffffffffffffffffffffffffffffffff1673ffffffffffffffffffffffffffffffffffffffff16815260200190815260200160002090506000610cf483611377565b9050600c54610d1284838560010154610d0d9190614190565b6115e6565b10610d52576040517f08c379a0000000000000000000000000000000000000000000000000000000008152600401610d4990613f7d565b60405180910390fd5b3373ffffffffffffffffffffffffffffffffffffffff168373ffffffffffffffffffffffffffffffffffffffff167f5a821a618ddb1a1fd304234a69c9d7f20c129d122fcf35593d13a071926643076000806000604051610db593929190613d26565b60405180910390a3505050565b60008111610e05576040517f08c379a0000000000000000000000000000000000000000000000000000000008152600401610dfc90613f5d565b60405180910390fd5b6000600160003373ffffffffffffffffffffffffffffffffffffffff1673ffffffffffffffffffffffffffffffffffffffff1681526020019081526020016000209050610e5133611377565b816001016000828254610e649190614190565b925050819055504281600201819055508181600101541115610f9057600460009054906101000a900473ffffffffffffffffffffffffffffffffffffffff1673ffffffffffffffffffffffffffffffffffffffff166323b872dd3330856040518463ffffffff1660e01b8152600401610edf93929190613cab565b602060405180830381600087803b158015610ef957600080fd5b505af1158015610f0d573d6000803e3d6000fd5b505050506040513d601f19601f82011682018060405250810190610f319190613484565b610f70576040517f08c379a0000000000000000000000000000000000000000000000000000000008152600401610f6790613efd565b60405180910390fd5b81816001016000828254610f849190614271565b9250508190555061108f565b600460009054906101000a900473ffffffffffffffffffffffffffffffffffffffff1673ffffffffffffffffffffffffffffffffffffffff166323b872dd333084600101546040518463ffffffff1660e01b8152600401610ff393929190613cab565b602060405180830381600087803b15801561100d57600080fd5b505af1158015611021573d6000803e3d6000fd5b505050506040513d601f19601f820116820180604052508101906110459190613484565b611084576040517f08c379a000000000000000000000000000000000000000000000000000000000815260040161107b90613efd565b60405180910390fd5b600081600101819055505b3373ffffffffffffffffffffffffffffffffffffffff167f2fe77b1c99aca6b022b8efc6e3e8dd1b48b30748709339b65c50ef3263443e0983836001015484600001546040516110e193929190614068565b60405180910390a25050565b600c5481565b6007818154811061110357600080fd5b906000526020600020016000915054906101000a900473ffffffffffffffffffffffffffffffffffffffff1681565b61113a612339565b73ffffffffffffffffffffffffffffffffffffffff16611158611760565b73ffffffffffffffffffffffffffffffffffffffff16146111ae576040517f08c379a00000000000000000000000000000000000000000000000000000000081526004016111a590613f1d565b60405180910390fd5b600073ffffffffffffffffffffffffffffffffffffffff168373ffffffffffffffffffffffffffffffffffffffff16141580156112185750600073ffffffffffffffffffffffffffffffffffffffff168273ffffffffffffffffffffffffffffffffffffffff1614155b80156112515750600073ffffffffffffffffffffffffffffffffffffffff168173ffffffffffffffffffffffffffffffffffffffff1614155b611290576040517f08c379a000000000000000000000000000000000000000000000000000000000815260040161128790613ebd565b60405180910390fd5b82600460006101000a81548173ffffffffffffffffffffffffffffffffffffffff021916908373ffffffffffffffffffffffffffffffffffffffff16021790555081600360006101000a81548173ffffffffffffffffffffffffffffffffffffffff021916908373ffffffffffffffffffffffffffffffffffffffff16021790555080600560006101000a81548173ffffffffffffffffffffffffffffffffffffffff021916908373ffffffffffffffffffffffffffffffffffffffff160217905550505050565b60095481565b600b5481565b600d60009054906101000a9004600f0b81565b600080600160008473ffffffffffffffffffffffffffffffffffffffff1673ffffffffffffffffffffffffffffffffffffffff16815260200190815260200160002060010154148061140b57506000600160008473ffffffffffffffffffffffffffffffffffffffff1673ffffffffffffffffffffffffffffffffffffffff16815260200190815260200160002060020154145b8061141857506000600a54145b806114645750600160008373ffffffffffffffffffffffffffffffffffffffff1673ffffffffffffffffffffffffffffffffffffffff1681526020019081526020016000206002015442145b1561147257600090506115e1565b6000600160008473ffffffffffffffffffffffffffffffffffffffff1673ffffffffffffffffffffffffffffffffffffffff16815260200190815260200160002060020154426114c29190614271565b905060006114e76114d283612316565b600d60009054906101000a9004600f0b612341565b905060006115096114f9600a54612316565b611504612710612316565b612341565b90506000611558600160008873ffffffffffffffffffffffffffffffffffffffff1673ffffffffffffffffffffffffffffffffffffffff16815260200190815260200160002060010154612316565b9050600061157f61157a8361157561157087896123f1565b61245c565b6123f1565b6124d5565b9050600160008873ffffffffffffffffffffffffffffffffffffffff1673ffffffffffffffffffffffffffffffffffffffff168152602001908152602001600020600101548167ffffffffffffffff166115d99190614271565b955050505050505b919050565b60006115f283836124f6565b905092915050565b611602612339565b73ffffffffffffffffffffffffffffffffffffffff16611620611760565b73ffffffffffffffffffffffffffffffffffffffff1614611676576040517f08c379a000000000000000000000000000000000000000000000000000000000815260040161166d90613f1d565b60405180910390fd5b600073ffffffffffffffffffffffffffffffffffffffff1660008054906101000a900473ffffffffffffffffffffffffffffffffffffffff1673ffffffffffffffffffffffffffffffffffffffff167f8be0079c531659141344cd1fd0a4f28419497f9722a3daafe3b4186f6b6457e060405160405180910390a360008060006101000a81548173ffffffffffffffffffffffffffffffffffffffff021916908373ffffffffffffffffffffffffffffffffffffffff160217905550565b600660009054906101000a900473ffffffffffffffffffffffffffffffffffffffff1681565b600a5481565b60008060009054906101000a900473ffffffffffffffffffffffffffffffffffffffff16905090565b60085481565b60025481565b600560009054906101000a900473ffffffffffffffffffffffffffffffffffffffff1673ffffffffffffffffffffffffffffffffffffffff166323b872dd3330846040518463ffffffff1660e01b81526004016117f493929190613cab565b602060405180830381600087803b15801561180e57600080fd5b505af1158015611822573d6000803e3d6000fd5b505050506040513d601f19601f820116820180604052508101906118469190613484565b611885576040517f08c379a000000000000000000000000000000000000000000000000000000000815260040161187c90613f9d565b60405180910390fd5b80600160003373ffffffffffffffffffffffffffffffffffffffff1673ffffffffffffffffffffffffffffffffffffffff16815260200190815260200160002060000160008282546118d79190614190565b925050819055503373ffffffffffffffffffffffffffffffffffffffff167fe1fffcc4923d04b559f4d29a8bfc6cda04eb5b0d3c460751c2402c5c5cc9109c82604051611924919061401d565b60405180910390a250565b600560009054906101000a900473ffffffffffffffffffffffffffffffffffffffff1681565b61195d612339565b73ffffffffffffffffffffffffffffffffffffffff1661197b611760565b73ffffffffffffffffffffffffffffffffffffffff16146119d1576040517f08c379a00000000000000000000000000000000000000000000000000000000081526004016119c890613f1d565b60405180910390fd5b61271083111580156119e4575060008310155b611a23576040517f08c379a0000000000000000000000000000000000000000000000000000000008152600401611a1a90613f3d565b60405180910390fd5b6127108211158015611a36575060008210155b8015611a425750828211155b611a81576040517f08c379a0000000000000000000000000000000000000000000000000000000008152600401611a7890613dbd565b60405180910390fd5b82600881905550816009819055506127108111158015611aa2575060008110155b611ae1576040517f08c379a0000000000000000000000000000000000000000000000000000000008152600401611ad890613fbd565b60405180910390fd5b80600a81905550505050565b60008111611b30576040517f08c379a0000000000000000000000000000000000000000000000000000000008152600401611b2790613e1d565b60405180910390fd5b6000600160003373ffffffffffffffffffffffffffffffffffffffff1673ffffffffffffffffffffffffffffffffffffffff16815260200190815260200160002090506000611b7e33611377565b9050600b54611ba73385848660010154611b989190614190565b611ba29190614190565b6115e6565b1015611be8576040517f08c379a0000000000000000000000000000000000000000000000000000000008152600401611bdf90613d7d565b60405180910390fd5b8083611bf49190614190565b826001016000828254611c079190614190565b92505081905550428260020181905550600460009054906101000a900473ffffffffffffffffffffffffffffffffffffffff1673ffffffffffffffffffffffffffffffffffffffff166340c10f1933856040518363ffffffff1660e01b8152600401611c74929190613ce2565b600060405180830381600087803b158015611c8e57600080fd5b505af1158015611ca2573d6000803e3d6000fd5b505050503373ffffffffffffffffffffffffffffffffffffffff167f13ed6866d4e1ee6da46f845c46d7e54120883d75c5ea9a2dacc1c4ca8984ab808484600101548560000154604051611cf893929190614068565b60405180910390a2505050565b60008111611d48576040517f08c379a0000000000000000000000000000000000000000000000000000000008152600401611d3f90613dfd565b60405180910390fd5b600360009054906101000a900473ffffffffffffffffffffffffffffffffffffffff1673ffffffffffffffffffffffffffffffffffffffff166323b872dd3330846040518463ffffffff1660e01b8152600401611da793929190613cab565b602060405180830381600087803b158015611dc157600080fd5b505af1158015611dd5573d6000803e3d6000fd5b505050506040513d601f19601f82011682018060405250810190611df99190613484565b611e38576040517f08c379a0000000000000000000000000000000000000000000000000000000008152600401611e2f90613d5d565b60405180910390fd5b600460009054906101000a900473ffffffffffffffffffffffffffffffffffffffff1673ffffffffffffffffffffffffffffffffffffffff166340c10f1933836040518363ffffffff1660e01b8152600401611e95929190613ce2565b600060405180830381600087803b158015611eaf57600080fd5b505af1158015611ec3573d6000803e3d6000fd5b5050505050565b6000611f1882600160008573ffffffffffffffffffffffffffffffffffffffff1673ffffffffffffffffffffffffffffffffffffffff168152602001908152602001600020600101546124f6565b9050919050565b611f27612339565b73ffffffffffffffffffffffffffffffffffffffff16611f45611760565b73ffffffffffffffffffffffffffffffffffffffff1614611f9b576040517f08c379a0000000000000000000000000000000000000000000000000000000008152600401611f9290613f1d565b60405180910390fd5b612710821015611fe0576040517f08c379a0000000000000000000000000000000000000000000000000000000008152600401611fd790613e7d565b60405180910390fd5b612710811015612025576040517f08c379a000000000000000000000000000000000000000000000000000000000815260040161201c90613fdd565b60405180910390fd5b81600b8190555080600c819055505050565b61271081565b612045612339565b73ffffffffffffffffffffffffffffffffffffffff16612063611760565b73ffffffffffffffffffffffffffffffffffffffff16146120b9576040517f08c379a00000000000000000000000000000000000000000000000000000000081526004016120b090613f1d565b60405180910390fd5b600073ffffffffffffffffffffffffffffffffffffffff168173ffffffffffffffffffffffffffffffffffffffff161415612129576040517f08c379a000000000000000000000000000000000000000000000000000000000815260040161212090613ebd565b60405180910390fd5b80600660006101000a81548173ffffffffffffffffffffffffffffffffffffffff021916908373ffffffffffffffffffffffffffffffffffffffff16021790555050565b612175612339565b73ffffffffffffffffffffffffffffffffffffffff16612193611760565b73ffffffffffffffffffffffffffffffffffffffff16146121e9576040517f08c379a00000000000000000000000000000000000000000000000000000000081526004016121e090613f1d565b60405180910390fd5b600073ffffffffffffffffffffffffffffffffffffffff168173ffffffffffffffffffffffffffffffffffffffff161415612259576040517f08c379a000000000000000000000000000000000000000000000000000000000815260040161225090613d9d565b60405180910390fd5b8073ffffffffffffffffffffffffffffffffffffffff1660008054906101000a900473ffffffffffffffffffffffffffffffffffffffff1673ffffffffffffffffffffffffffffffffffffffff167f8be0079c531659141344cd1fd0a4f28419497f9722a3daafe3b4186f6b6457e060405160405180910390a3806000806101000a81548173ffffffffffffffffffffffffffffffffffffffff021916908373ffffffffffffffffffffffffffffffffffffffff16021790555050565b6000677fffffffffffffff82111561232d57600080fd5b604082901b9050919050565b600033905090565b60008082600f0b141561235357600080fd5b600082600f0b604085600f0b901b81612395577f4e487b7100000000000000000000000000000000000000000000000000000000600052601260045260246000fd5b0590507fffffffffffffffffffffffffffffffff80000000000000000000000000000000600f0b81121580156123de57506f7fffffffffffffffffffffffffffffff600f0b8113155b6123e757600080fd5b8091505092915050565b600080604083600f0b85600f0b02901d90507fffffffffffffffffffffffffffffffff80000000000000000000000000000000600f0b811215801561244957506f7fffffffffffffffffffffffffffffff600f0b8113155b61245257600080fd5b8091505092915050565b60006840000000000000000082600f0b1261247657600080fd5b7fffffffffffffffffffffffffffffffffffffffffffffffc0000000000000000082600f0b12156124aa57600090506124d0565b6124cd6080700171547652b82fe1777d0ffda0d23a7d1284600f0b02901d6126a5565b90505b919050565b60008082600f0b12156124e757600080fd5b604082600f0b901d9050919050565b600080600160008573ffffffffffffffffffffffffffffffffffffffff1673ffffffffffffffffffffffffffffffffffffffff168152602001908152602001600020600001549050600081141561255157600091505061269f565b6000831415612583577fffffffffffffffffffffffffffffffffffffffffffffffffffffffffffffffff91505061269f565b6000600660009054906101000a900473ffffffffffffffffffffffffffffffffffffffff16905060008173ffffffffffffffffffffffffffffffffffffffff1663d06ca61f8460076040518363ffffffff1660e01b81526004016125e8929190614038565b60006040518083038186803b15801561260057600080fd5b505afa158015612614573d6000803e3d6000fd5b505050506040513d6000823e3d601f19601f8201168201806040525081019061263d9190613443565b600281518110612676577f4e487b7100000000000000000000000000000000000000000000000000000000600052603260045260246000fd5b60200260200101519050846127108261268f9190614217565b61269991906141e6565b93505050505b92915050565b60006840000000000000000082600f0b126126bf57600080fd5b7fffffffffffffffffffffffffffffffffffffffffffffffc0000000000000000082600f0b12156126f357600090506132a0565b60006f80000000000000000000000000000000905060006780000000000000008416600f0b131561273957608070016a09e667f3bcc908b2fb1366ea957d3e8202901c90505b60006740000000000000008416600f0b131561276a5760807001306fe0a31b7152de8d5a46305c85edec8202901c90505b60006720000000000000008416600f0b131561279b5760807001172b83c7d517adcdf7c8c50eb14a791f8202901c90505b60006710000000000000008416600f0b13156127cc57608070010b5586cf9890f6298b92b71842a983638202901c90505b60006708000000000000008416600f0b13156127fd5760807001059b0d31585743ae7c548eb68ca417fd8202901c90505b60006704000000000000008416600f0b131561282e576080700102c9a3e778060ee6f7caca4f7a29bde88202901c90505b60006702000000000000008416600f0b131561285f57608070010163da9fb33356d84a66ae336dcdfa3f8202901c90505b60006701000000000000008416600f0b1315612890576080700100b1afa5abcbed6129ab13ec11dc95438202901c90505b600066800000000000008416600f0b13156128c057608070010058c86da1c09ea1ff19d294cf2f679b8202901c90505b600066400000000000008416600f0b13156128f05760807001002c605e2e8cec506d21bfc89a23a00f8202901c90505b600066200000000000008416600f0b1315612920576080700100162f3904051fa128bca9c55c31e5df8202901c90505b600066100000000000008416600f0b13156129505760807001000b175effdc76ba38e31671ca9397258202901c90505b600066080000000000008416600f0b1315612980576080700100058ba01fb9f96d6cacd4b180917c3d8202901c90505b600066040000000000008416600f0b13156129b057608070010002c5cc37da9491d0985c348c68e7b38202901c90505b600066020000000000008416600f0b13156129e05760807001000162e525ee054754457d59952920268202901c90505b600066010000000000008416600f0b1315612a1057608070010000b17255775c040618bf4a4ade83fc8202901c90505b6000658000000000008416600f0b1315612a3f5760807001000058b91b5bc9ae2eed81e9b7d4cfab8202901c90505b6000654000000000008416600f0b1315612a6e576080700100002c5c89d5ec6ca4d7c8acc017b7c98202901c90505b6000652000000000008416600f0b1315612a9d57608070010000162e43f4f831060e02d839a9d16d8202901c90505b6000651000000000008416600f0b1315612acc576080700100000b1721bcfc99d9f890ea069117638202901c90505b6000650800000000008416600f0b1315612afb57608070010000058b90cf1e6d97f9ca14dbcc16288202901c90505b6000650400000000008416600f0b1315612b2a5760807001000002c5c863b73f016468f6bac5ca2b8202901c90505b6000650200000000008416600f0b1315612b59576080700100000162e430e5a18f6119e3c02282a58202901c90505b6000650100000000008416600f0b1315612b885760807001000000b1721835514b86e6d96efd1bfe8202901c90505b60006480000000008416600f0b1315612bb6576080700100000058b90c0b48c6be5df846c5b2ef8202901c90505b60006440000000008416600f0b1315612be457608070010000002c5c8601cc6b9e94213c72737a8202901c90505b60006420000000008416600f0b1315612c125760807001000000162e42fff037df38aa2b219f068202901c90505b60006410000000008416600f0b1315612c4057608070010000000b17217fba9c739aa5819f44f98202901c90505b60006408000000008416600f0b1315612c6e5760807001000000058b90bfcdee5acd3c1cedc8238202901c90505b60006404000000008416600f0b1315612c9c576080700100000002c5c85fe31f35a6a30da1be508202901c90505b60006402000000008416600f0b1315612cca57608070010000000162e42ff0999ce3541b9fffcf8202901c90505b60006401000000008416600f0b1315612cf8576080700100000000b17217f80f4ef5aadda455548202901c90505b600063800000008416600f0b1315612d2557608070010000000058b90bfbf8479bd5a81b51ad8202901c90505b600063400000008416600f0b1315612d525760807001000000002c5c85fdf84bd62ae30a74cc8202901c90505b600063200000008416600f0b1315612d7f576080700100000000162e42fefb2fed257559bdaa8202901c90505b600063100000008416600f0b1315612dac5760807001000000000b17217f7d5a7716bba4a9ae8202901c90505b600063080000008416600f0b1315612dd9576080700100000000058b90bfbe9ddbac5e109cce8202901c90505b600063040000008416600f0b1315612e0657608070010000000002c5c85fdf4b15de6f17eb0d8202901c90505b600063020000008416600f0b1315612e335760807001000000000162e42fefa494f1478fde058202901c90505b600063010000008416600f0b1315612e6057608070010000000000b17217f7d20cf927c8e94c8202901c90505b6000628000008416600f0b1315612e8c5760807001000000000058b90bfbe8f71cb4e4b33d8202901c90505b6000624000008416600f0b1315612eb8576080700100000000002c5c85fdf477b662b269458202901c90505b6000622000008416600f0b1315612ee457608070010000000000162e42fefa3ae53369388c8202901c90505b6000621000008416600f0b1315612f10576080700100000000000b17217f7d1d351a389d408202901c90505b6000620800008416600f0b1315612f3c57608070010000000000058b90bfbe8e8b2d3d4ede8202901c90505b6000620400008416600f0b1315612f685760807001000000000002c5c85fdf4741bea6e77e8202901c90505b6000620200008416600f0b1315612f94576080700100000000000162e42fefa39fe95583c28202901c90505b6000620100008416600f0b1315612fc05760807001000000000000b17217f7d1cfb72b45e18202901c90505b60006180008416600f0b1315612feb576080700100000000000058b90bfbe8e7cc35c3f08202901c90505b60006140008416600f0b131561301657608070010000000000002c5c85fdf473e242ea388202901c90505b60006120008416600f0b13156130415760807001000000000000162e42fefa39f02b772c8202901c90505b60006110008416600f0b131561306c57608070010000000000000b17217f7d1cf7d83c1a8202901c90505b60006108008416600f0b13156130975760807001000000000000058b90bfbe8e7bdcbe2e8202901c90505b60006104008416600f0b13156130c2576080700100000000000002c5c85fdf473dea871f8202901c90505b60006102008416600f0b13156130ed57608070010000000000000162e42fefa39ef44d918202901c90505b60006101008416600f0b1315613118576080700100000000000000b17217f7d1cf79e9498202901c90505b600060808416600f0b131561314257608070010000000000000058b90bfbe8e7bce5448202901c90505b600060408416600f0b131561316c5760807001000000000000002c5c85fdf473de6eca8202901c90505b600060208416600f0b1315613196576080700100000000000000162e42fefa39ef366f8202901c90505b600060108416600f0b13156131c05760807001000000000000000b17217f7d1cf79afa8202901c90505b600060088416600f0b13156131ea576080700100000000000000058b90bfbe8e7bcd6d8202901c90505b600060048416600f0b131561321457608070010000000000000002c5c85fdf473de6b28202901c90505b600060028416600f0b131561323e5760807001000000000000000162e42fefa39ef3588202901c90505b600060018416600f0b131561326857608070010000000000000000b17217f7d1cf79ab8202901c90505b604083600f0b901d603f03600f0b81901c90506f7fffffffffffffffffffffffffffffff600f0b81111561329b57600080fd5b809150505b919050565b60006132b86132b384614115565b6140e4565b905080838252602082019050828560208602820111156132d757600080fd5b60005b8581101561330757816132ed888261337a565b8452602084019350602083019250506001810190506132da565b5050509392505050565b600081359050613320816143f3565b92915050565b600082601f83011261333757600080fd5b81516133478482602086016132a5565b91505092915050565b60008151905061335f8161440a565b92915050565b60008135905061337481614421565b92915050565b60008151905061338981614421565b92915050565b6000602082840312156133a157600080fd5b60006133af84828501613311565b91505092915050565b6000806000606084860312156133cd57600080fd5b60006133db86828701613311565b93505060206133ec86828701613311565b92505060406133fd86828701613311565b9150509250925092565b6000806040838503121561341a57600080fd5b600061342885828601613311565b925050602061343985828601613365565b9150509250929050565b60006020828403121561345557600080fd5b600082015167ffffffffffffffff81111561346f57600080fd5b61347b84828501613326565b91505092915050565b60006020828403121561349657600080fd5b60006134a484828501613350565b91505092915050565b6000602082840312156134bf57600080fd5b60006134cd84828501613365565b91505092915050565b6000602082840312156134e857600080fd5b60006134f68482850161337a565b91505092915050565b6000806040838503121561351257600080fd5b600061352085828601613365565b925050602061353185828601613365565b9150509250929050565b60008060006060848603121561355057600080fd5b600061355e86828701613365565b935050602061356f86828701613365565b925050604061358086828701613365565b9150509250925092565b600061359683836135a2565b60208301905092915050565b6135ab816142c5565b82525050565b6135ba816142c5565b82525050565b60006135cb82614156565b6135d5818561416e565b93506135e083614141565b8060005b83811015613618576135f5826143d3565b6135ff888261358a565b975061360a83614161565b9250506001810190506135e4565b5085935050505092915050565b61362e816142e3565b82525050565b61363d8161431a565b82525050565b600061365060148361417f565b91507f55534443207472616e73666572206661696c65640000000000000000000000006000830152602082019050919050565b600061369060298361417f565b91507f6e6f7420656e6f75676820636f6c6c61746572616c20746f20626f72726f772060008301527f74686174206d75636800000000000000000000000000000000000000000000006020830152604082019050919050565b60006136f660268361417f565b91507f4f776e61626c653a206e6577206f776e657220697320746865207a65726f206160008301527f64647265737300000000000000000000000000000000000000000000000000006020830152604082019050919050565b600061375c60188361417f565b91507f6c69714665655368617265206f7574206f662072616e676500000000000000006000830152602082019050919050565b600061379c60228361417f565b91507f6163636f756e7420616c72656164792062656c6f77207361666574792072617460008301527f696f0000000000000000000000000000000000000000000000000000000000006020830152604082019050919050565b600061380260148361417f565b91507f63616e2774206d696e74207a65726f205553445a0000000000000000000000006000830152602082019050919050565b6000613842600e8361417f565b91507f63616e277420626f72726f7720300000000000000000000000000000000000006000830152602082019050919050565b600061388260198361417f565b91507f6163636f756e7420686173206e6f20636f6c6c61746572616c000000000000006000830152602082019050919050565b60006138c260188361417f565b91507f7769746864726177207472616e73666572206661696c656400000000000000006000830152602082019050919050565b600061390260298361417f565b91507f626f72726f77207468726573686f6c64206d757374206265203e207363616c6960008301527f6e6720666163746f7200000000000000000000000000000000000000000000006020830152604082019050919050565b600061396860198361417f565b91507f616d6f756e7420756e7361666520746f207769746864726177000000000000006000830152602082019050919050565b60006139a860188361417f565b91507f7a65726f2061646472657373206e6f7420616c6c6f77656400000000000000006000830152602082019050919050565b60006139e860148361417f565b91507f55534443207265736572766520746f6f206c6f770000000000000000000000006000830152602082019050919050565b6000613a2860158361417f565b91507f7265706179207472616e73666572206661696c656400000000000000000000006000830152602082019050919050565b6000613a6860208361417f565b91507f4f776e61626c653a2063616c6c6572206973206e6f7420746865206f776e65726000830152602082019050919050565b6000613aa860188361417f565b91507f6c6971546f74616c466565206f7574206f662072616e676500000000000000006000830152602082019050919050565b6000613ae8600d8361417f565b91507f63616e27742072657061792030000000000000000000000000000000000000006000830152602082019050919050565b6000613b28601f8361417f565b91507f6163636f756e74206e6f742062656c6f77206c6971207468726573686f6c64006000830152602082019050919050565b6000613b68600e8361417f565b91507f6465706f736974206661696c65640000000000000000000000000000000000006000830152602082019050919050565b6000613ba860198361417f565b91507f696e74657265737452617465206f7574206f662072616e6765000000000000006000830152602082019050919050565b6000613be860268361417f565b91507f6c6971207468726573686f6c64206d757374206265203e207363616c696e672060008301527f666163746f7200000000000000000000000000000000000000000000000000006020830152604082019050919050565b6000613c4e60208361417f565b91507f6e6f7420656e6f75676820636f6c6c61746572616c20696e206163636f756e746000830152602082019050919050565b613c8a81614310565b82525050565b6000602082019050613ca560008301846135b1565b92915050565b6000606082019050613cc060008301866135b1565b613ccd60208301856135b1565b613cda6040830184613c81565b949350505050565b6000604082019050613cf760008301856135b1565b613d046020830184613c81565b9392505050565b6000602082019050613d206000830184613625565b92915050565b6000606082019050613d3b6000830186613634565b613d486020830185613634565b613d556040830184613634565b949350505050565b60006020820190508181036000830152613d7681613643565b9050919050565b60006020820190508181036000830152613d9681613683565b9050919050565b60006020820190508181036000830152613db6816136e9565b9050919050565b60006020820190508181036000830152613dd68161374f565b9050919050565b60006020820190508181036000830152613df68161378f565b9050919050565b60006020820190508181036000830152613e16816137f5565b9050919050565b60006020820190508181036000830152613e3681613835565b9050919050565b60006020820190508181036000830152613e5681613875565b9050919050565b60006020820190508181036000830152613e76816138b5565b9050919050565b60006020820190508181036000830152613e96816138f5565b9050919050565b60006020820190508181036000830152613eb68161395b565b9050919050565b60006020820190508181036000830152613ed68161399b565b9050919050565b60006020820190508181036000830152613ef6816139db565b9050919050565b60006020820190508181036000830152613f1681613a1b565b9050919050565b60006020820190508181036000830152613f3681613a5b565b9050919050565b60006020820190508181036000830152613f5681613a9b565b9050919050565b60006020820190508181036000830152613f7681613adb565b9050919050565b60006020820190508181036000830152613f9681613b1b565b9050919050565b60006020820190508181036000830152613fb681613b5b565b9050919050565b60006020820190508181036000830152613fd681613b9b565b9050919050565b60006020820190508181036000830152613ff681613bdb565b9050919050565b6000602082019050818103600083015261401681613c41565b9050919050565b60006020820190506140326000830184613c81565b92915050565b600060408201905061404d6000830185613c81565b818103602083015261405f81846135c0565b90509392505050565b600060608201905061407d6000830186613c81565b61408a6020830185613c81565b6140976040830184613c81565b949350505050565b60006080820190506140b46000830187613c81565b6140c16020830186613c81565b6140ce6040830185613c81565b6140db6060830184613c81565b95945050505050565b6000604051905081810181811067ffffffffffffffff8211171561410b5761410a6143a4565b5b8060405250919050565b600067ffffffffffffffff8211156141305761412f6143a4565b5b602082029050602081019050919050565b60008190508160005260206000209050919050565b600081549050919050565b6000600182019050919050565b600082825260208201905092915050565b600082825260208201905092915050565b600061419b82614310565b91506141a683614310565b9250827fffffffffffffffffffffffffffffffffffffffffffffffffffffffffffffffff038211156141db576141da614346565b5b828201905092915050565b60006141f182614310565b91506141fc83614310565b92508261420c5761420b614375565b5b828204905092915050565b600061422282614310565b915061422d83614310565b9250817fffffffffffffffffffffffffffffffffffffffffffffffffffffffffffffffff048311821515161561426657614265614346565b5b828202905092915050565b600061427c82614310565b915061428783614310565b92508282101561429a57614299614346565b5b828203905092915050565b600073ffffffffffffffffffffffffffffffffffffffff82169050919050565b60006142d0826142f0565b9050919050565b60008115159050919050565b600081600f0b9050919050565b600073ffffffffffffffffffffffffffffffffffffffff82169050919050565b6000819050919050565b600061432582614310565b9050919050565b600061433f61433a836143e6565b6142a5565b9050919050565b7f4e487b7100000000000000000000000000000000000000000000000000000000600052601160045260246000fd5b7f4e487b7100000000000000000000000000000000000000000000000000000000600052601260045260246000fd5b7f4e487b7100000000000000000000000000000000000000000000000000000000600052604160045260246000fd5b60006143df825461432c565b9050919050565b60008160001c9050919050565b6143fc816142c5565b811461440757600080fd5b50565b614413816142d7565b811461441e57600080fd5b50565b61442a81614310565b811461443557600080fd5b5056fea2646970667358221220ea3ea8d2fdd79751d5a002ff6d646d5d59512b843ab3c0597f36dedb04e6430364736f6c63430008000033",
  "linkReferences": {},
  "deployedLinkReferences": {}
}