{
  "_format": "hh-sol-artifact-1",
  "contractName": "Controller",
  "sourceName": "contracts/Controller.sol",
  "abi": [
    {
      "inputs": [
        {
          "internalType": "address",
          "name": "_usdzAddress",
          "type": "address"
        },
        {
          "internalType": "address",
          "name": "_xSushiAddress",
          "type": "address"
        },
        {
          "internalType": "uint256",
          "name": "_liqTotalFee",
          "type": "uint256"
        },
        {
          "internalType": "uint256",
          "name": "_liqFeeShare",
          "type": "uint256"
        },
        {
          "internalType": "uint256",
          "name": "_interestRate",
          "type": "uint256"
        },
        {
          "internalType": "uint256",
          "name": "_borrowThreshold",
          "type": "uint256"
        },
        {
          "internalType": "uint256",
          "name": "_liqThreshold",
          "type": "uint256"
        }
      ],
      "stateMutability": "nonpayable",
      "type": "constructor"
    },
    {
      "anonymous": false,
      "inputs": [
        {
          "indexed": true,
          "internalType": "address",
          "name": "sender",
          "type": "address"
        },
        {
          "indexed": true,
          "internalType": "address",
          "name": "token",
          "type": "address"
        },
        {
          "indexed": false,
          "internalType": "uint256",
          "name": "amount",
          "type": "uint256"
        }
      ],
      "name": "Deposit",
      "type": "event"
    },
    {
      "anonymous": false,
      "inputs": [
        {
          "indexed": true,
          "internalType": "address",
          "name": "previousOwner",
          "type": "address"
        },
        {
          "indexed": true,
          "internalType": "address",
          "name": "newOwner",
          "type": "address"
        }
      ],
      "name": "OwnershipTransferred",
      "type": "event"
    },
    {
      "anonymous": false,
      "inputs": [
        {
          "indexed": true,
          "internalType": "address",
          "name": "sender",
          "type": "address"
        },
        {
          "indexed": true,
          "internalType": "address",
          "name": "token",
          "type": "address"
        },
        {
          "indexed": false,
          "internalType": "uint256",
          "name": "amount",
          "type": "uint256"
        }
      ],
      "name": "Withdraw",
      "type": "event"
    },
    {
      "inputs": [],
      "name": "SCALING_FACTOR",
      "outputs": [
        {
          "internalType": "uint256",
          "name": "",
          "type": "uint256"
        }
      ],
      "stateMutability": "view",
      "type": "function"
    },
    {
      "inputs": [
        {
          "internalType": "uint256",
          "name": "_amount",
          "type": "uint256"
        }
      ],
      "name": "borrow",
      "outputs": [],
      "stateMutability": "nonpayable",
      "type": "function"
    },
    {
      "inputs": [],
      "name": "borrowThreshold",
      "outputs": [
        {
          "internalType": "uint256",
          "name": "",
          "type": "uint256"
        }
      ],
      "stateMutability": "view",
      "type": "function"
    },
    {
      "inputs": [
        {
          "internalType": "uint256",
          "name": "_amount",
          "type": "uint256"
        }
      ],
      "name": "deposit",
      "outputs": [],
      "stateMutability": "nonpayable",
      "type": "function"
    },
    {
      "inputs": [],
      "name": "interestRate",
      "outputs": [
        {
          "internalType": "uint256",
          "name": "",
          "type": "uint256"
        }
      ],
      "stateMutability": "view",
      "type": "function"
    },
    {
      "inputs": [
        {
          "internalType": "address",
          "name": "_account",
          "type": "address"
        }
      ],
      "name": "liquidate",
      "outputs": [],
      "stateMutability": "nonpayable",
      "type": "function"
    },
    {
      "inputs": [],
      "name": "liquidationFee",
      "outputs": [
        {
          "internalType": "uint256",
          "name": "",
          "type": "uint256"
        }
      ],
      "stateMutability": "view",
      "type": "function"
    },
    {
      "inputs": [],
      "name": "liquidationThreshold",
      "outputs": [
        {
          "internalType": "uint256",
          "name": "",
          "type": "uint256"
        }
      ],
      "stateMutability": "view",
      "type": "function"
    },
    {
      "inputs": [],
      "name": "liquidatorFeeShare",
      "outputs": [
        {
          "internalType": "uint256",
          "name": "",
          "type": "uint256"
        }
      ],
      "stateMutability": "view",
      "type": "function"
    },
    {
      "inputs": [],
      "name": "owner",
      "outputs": [
        {
          "internalType": "address",
          "name": "",
          "type": "address"
        }
      ],
      "stateMutability": "view",
      "type": "function"
    },
    {
      "inputs": [],
      "name": "renounceOwnership",
      "outputs": [],
      "stateMutability": "nonpayable",
      "type": "function"
    },
    {
      "inputs": [
        {
          "internalType": "uint256",
          "name": "_liqTotalFee",
          "type": "uint256"
        },
        {
          "internalType": "uint256",
          "name": "_liqFeeShare",
          "type": "uint256"
        },
        {
          "internalType": "uint256",
          "name": "_interestRate",
          "type": "uint256"
        }
      ],
      "name": "setFeesAndRates",
      "outputs": [],
      "stateMutability": "nonpayable",
      "type": "function"
    },
    {
      "inputs": [
        {
          "internalType": "uint256",
          "name": "_borrowThreshold",
          "type": "uint256"
        },
        {
          "internalType": "uint256",
          "name": "_liqThreshold",
          "type": "uint256"
        }
      ],
      "name": "setThresholds",
      "outputs": [],
      "stateMutability": "nonpayable",
      "type": "function"
    },
    {
      "inputs": [
        {
          "internalType": "address",
          "name": "_newAddress",
          "type": "address"
        }
      ],
      "name": "setUSDZAddress",
      "outputs": [],
      "stateMutability": "nonpayable",
      "type": "function"
    },
    {
      "inputs": [
        {
          "internalType": "address",
          "name": "_newAddress",
          "type": "address"
        }
      ],
      "name": "setXSUSHIAddress",
      "outputs": [],
      "stateMutability": "nonpayable",
      "type": "function"
    },
    {
      "inputs": [
        {
          "internalType": "address",
          "name": "newOwner",
          "type": "address"
        }
      ],
      "name": "transferOwnership",
      "outputs": [],
      "stateMutability": "nonpayable",
      "type": "function"
    },
    {
      "inputs": [],
      "name": "usdzAddress",
      "outputs": [
        {
          "internalType": "address",
          "name": "",
          "type": "address"
        }
      ],
      "stateMutability": "view",
      "type": "function"
    },
    {
      "inputs": [
        {
          "internalType": "uint256",
          "name": "_amount",
          "type": "uint256"
        }
      ],
      "name": "withdraw",
      "outputs": [],
      "stateMutability": "nonpayable",
      "type": "function"
    },
    {
      "inputs": [],
      "name": "xSushiAddress",
      "outputs": [
        {
          "internalType": "address",
          "name": "",
          "type": "address"
        }
      ],
      "stateMutability": "view",
      "type": "function"
    }
  ],
  "bytecode": "0x60806040526127106009553480156200001757600080fd5b50604051620018303803806200183083398181016040528101906200003d9190620001d5565b60006200004f6200019f60201b60201c565b9050806000806101000a81548173ffffffffffffffffffffffffffffffffffffffff021916908373ffffffffffffffffffffffffffffffffffffffff1602179055508073ffffffffffffffffffffffffffffffffffffffff16600073ffffffffffffffffffffffffffffffffffffffff167f8be0079c531659141344cd1fd0a4f28419497f9722a3daafe3b4186f6b6457e060405160405180910390a35086600260006101000a81548173ffffffffffffffffffffffffffffffffffffffff021916908373ffffffffffffffffffffffffffffffffffffffff16021790555085600360006101000a81548173ffffffffffffffffffffffffffffffffffffffff021916908373ffffffffffffffffffffffffffffffffffffffff160217905550846004819055508360058190555082600681905550816007819055508060088190555050505050505050620002f4565b600033905090565b600081519050620001b881620002c0565b92915050565b600081519050620001cf81620002da565b92915050565b600080600080600080600060e0888a031215620001f157600080fd5b6000620002018a828b01620001a7565b9750506020620002148a828b01620001a7565b9650506040620002278a828b01620001be565b95505060606200023a8a828b01620001be565b94505060806200024d8a828b01620001be565b93505060a0620002608a828b01620001be565b92505060c0620002738a828b01620001be565b91505092959891949750929550565b60006200028f8262000296565b9050919050565b600073ffffffffffffffffffffffffffffffffffffffff82169050919050565b6000819050919050565b620002cb8162000282565b8114620002d757600080fd5b50565b620002e581620002b6565b8114620002f157600080fd5b50565b61152c80620003046000396000f3fe608060405234801561001057600080fd5b50600436106101215760003560e01c80638da5cb5b116100ad578063bfaf48d411610071578063bfaf48d4146102ac578063c5ebeaec146102c8578063e3064a77146102e4578063ef4cadc514610300578063f2fde38b1461031e57610121565b80638da5cb5b1461021a5780638f6ba29a14610238578063a36a363014610254578063b6b55f2514610272578063bdfccad31461028e57610121565b806354054808116100f4578063540548081461019a5780635ae547e3146101b8578063715018a6146101d65780637c3a00fd146101e05780638456b755146101fe57610121565b806320bdf800146101265780632e1a7d4d146101445780632f865568146101605780634031234c1461017c575b600080fd5b61012e61033a565b60405161013b919061109f565b60405180910390f35b61015e60048036038101906101599190610e6f565b610360565b005b61017a60048036038101906101759190610e1d565b6103ea565b005b6101846103ed565b6040516101919190611231565b60405180910390f35b6101a26103f3565b6040516101af9190611231565b60405180910390f35b6101c06103f9565b6040516101cd9190611231565b60405180910390f35b6101de6103ff565b005b6101e8610539565b6040516101f59190611231565b60405180910390f35b61021860048036038101906102139190610e1d565b61053f565b005b61022261066f565b60405161022f919061109f565b60405180910390f35b610252600480360381019061024d9190610e1d565b610698565b005b61025c6107c8565b6040516102699190611231565b60405180910390f35b61028c60048036038101906102879190610e6f565b6107ce565b005b61029661094e565b6040516102a3919061109f565b60405180910390f35b6102c660048036038101906102c19190610ed4565b610974565b005b6102e260048036038101906102dd9190610e6f565b610b0c565b005b6102fe60048036038101906102f99190610e98565b610b0f565b005b610308610c27565b6040516103159190611231565b60405180910390f35b61033860048036038101906103339190610e1d565b610c2d565b005b600260009054906101000a900473ffffffffffffffffffffffffffffffffffffffff1681565b600360009054906101000a900473ffffffffffffffffffffffffffffffffffffffff1673ffffffffffffffffffffffffffffffffffffffff163373ffffffffffffffffffffffffffffffffffffffff167f9b1bfa7fa9ee420a16e124f794c35ac9f90472acc99140eb2f6447c714cad8eb836040516103df9190611231565b60405180910390a350565b50565b60085481565b60055481565b60075481565b610407610dd6565b73ffffffffffffffffffffffffffffffffffffffff1661042561066f565b73ffffffffffffffffffffffffffffffffffffffff161461047b576040517f08c379a0000000000000000000000000000000000000000000000000000000008152600401610472906111b1565b60405180910390fd5b600073ffffffffffffffffffffffffffffffffffffffff1660008054906101000a900473ffffffffffffffffffffffffffffffffffffffff1673ffffffffffffffffffffffffffffffffffffffff167f8be0079c531659141344cd1fd0a4f28419497f9722a3daafe3b4186f6b6457e060405160405180910390a360008060006101000a81548173ffffffffffffffffffffffffffffffffffffffff021916908373ffffffffffffffffffffffffffffffffffffffff160217905550565b60065481565b610547610dd6565b73ffffffffffffffffffffffffffffffffffffffff1661056561066f565b73ffffffffffffffffffffffffffffffffffffffff16146105bb576040517f08c379a00000000000000000000000000000000000000000000000000000000081526004016105b2906111b1565b60405180910390fd5b600073ffffffffffffffffffffffffffffffffffffffff168173ffffffffffffffffffffffffffffffffffffffff16141561062b576040517f08c379a000000000000000000000000000000000000000000000000000000000815260040161062290611151565b60405180910390fd5b80600360006101000a81548173ffffffffffffffffffffffffffffffffffffffff021916908373ffffffffffffffffffffffffffffffffffffffff16021790555050565b60008060009054906101000a900473ffffffffffffffffffffffffffffffffffffffff16905090565b6106a0610dd6565b73ffffffffffffffffffffffffffffffffffffffff166106be61066f565b73ffffffffffffffffffffffffffffffffffffffff1614610714576040517f08c379a000000000000000000000000000000000000000000000000000000000815260040161070b906111b1565b60405180910390fd5b600073ffffffffffffffffffffffffffffffffffffffff168173ffffffffffffffffffffffffffffffffffffffff161415610784576040517f08c379a000000000000000000000000000000000000000000000000000000000815260040161077b90611191565b60405180910390fd5b80600260006101000a81548173ffffffffffffffffffffffffffffffffffffffff021916908373ffffffffffffffffffffffffffffffffffffffff16021790555050565b60045481565b6000600260009054906101000a900473ffffffffffffffffffffffffffffffffffffffff1690508073ffffffffffffffffffffffffffffffffffffffff166323b872dd3330856040518463ffffffff1660e01b8152600401610832939291906110ba565b602060405180830381600087803b15801561084c57600080fd5b505af1158015610860573d6000803e3d6000fd5b505050506040513d601f19601f820116820180604052508101906108849190610e46565b6108c3576040517f08c379a00000000000000000000000000000000000000000000000000000000081526004016108ba90611131565b60405180910390fd5b600360009054906101000a900473ffffffffffffffffffffffffffffffffffffffff1673ffffffffffffffffffffffffffffffffffffffff163373ffffffffffffffffffffffffffffffffffffffff167f5548c837ab068cf56a2c2479df0882a4922fd203edb7517321831d95078c5f62846040516109429190611231565b60405180910390a35050565b600360009054906101000a900473ffffffffffffffffffffffffffffffffffffffff1681565b61097c610dd6565b73ffffffffffffffffffffffffffffffffffffffff1661099a61066f565b73ffffffffffffffffffffffffffffffffffffffff16146109f0576040517f08c379a00000000000000000000000000000000000000000000000000000000081526004016109e7906111b1565b60405180910390fd5b6009548311158015610a03575060008310155b610a42576040517f08c379a0000000000000000000000000000000000000000000000000000000008152600401610a39906111d1565b60405180910390fd5b6009548211158015610a55575060008210155b8015610a615750828211155b610aa0576040517f08c379a0000000000000000000000000000000000000000000000000000000008152600401610a9790611111565b60405180910390fd5b82600481905550816005819055506009548111158015610ac1575060008110155b610b00576040517f08c379a0000000000000000000000000000000000000000000000000000000008152600401610af7906111f1565b60405180910390fd5b80600681905550505050565b50565b610b17610dd6565b73ffffffffffffffffffffffffffffffffffffffff16610b3561066f565b73ffffffffffffffffffffffffffffffffffffffff1614610b8b576040517f08c379a0000000000000000000000000000000000000000000000000000000008152600401610b82906111b1565b60405180910390fd5b600954821015610bd0576040517f08c379a0000000000000000000000000000000000000000000000000000000008152600401610bc790611171565b60405180910390fd5b600954811015610c15576040517f08c379a0000000000000000000000000000000000000000000000000000000008152600401610c0c90611211565b60405180910390fd5b81600781905550806008819055505050565b60095481565b610c35610dd6565b73ffffffffffffffffffffffffffffffffffffffff16610c5361066f565b73ffffffffffffffffffffffffffffffffffffffff1614610ca9576040517f08c379a0000000000000000000000000000000000000000000000000000000008152600401610ca0906111b1565b60405180910390fd5b600073ffffffffffffffffffffffffffffffffffffffff168173ffffffffffffffffffffffffffffffffffffffff161415610d19576040517f08c379a0000000000000000000000000000000000000000000000000000000008152600401610d10906110f1565b60405180910390fd5b8073ffffffffffffffffffffffffffffffffffffffff1660008054906101000a900473ffffffffffffffffffffffffffffffffffffffff1673ffffffffffffffffffffffffffffffffffffffff167f8be0079c531659141344cd1fd0a4f28419497f9722a3daafe3b4186f6b6457e060405160405180910390a3806000806101000a81548173ffffffffffffffffffffffffffffffffffffffff021916908373ffffffffffffffffffffffffffffffffffffffff16021790555050565b600033905090565b600081359050610ded816114b1565b92915050565b600081519050610e02816114c8565b92915050565b600081359050610e17816114df565b92915050565b600060208284031215610e2f57600080fd5b6000610e3d84828501610dde565b91505092915050565b600060208284031215610e5857600080fd5b6000610e6684828501610df3565b91505092915050565b600060208284031215610e8157600080fd5b6000610e8f84828501610e08565b91505092915050565b60008060408385031215610eab57600080fd5b6000610eb985828601610e08565b9250506020610eca85828601610e08565b9150509250929050565b600080600060608486031215610ee957600080fd5b6000610ef786828701610e08565b9350506020610f0886828701610e08565b9250506040610f1986828701610e08565b9150509250925092565b610f2c8161125d565b82525050565b6000610f3f60268361124c565b9150610f4a826112a5565b604082019050919050565b6000610f6260188361124c565b9150610f6d826112f4565b602082019050919050565b6000610f8560178361124c565b9150610f908261131d565b602082019050919050565b6000610fa860208361124c565b9150610fb382611346565b602082019050919050565b6000610fcb60298361124c565b9150610fd68261136f565b604082019050919050565b6000610fee601e8361124c565b9150610ff9826113be565b602082019050919050565b600061101160208361124c565b915061101c826113e7565b602082019050919050565b600061103460188361124c565b915061103f82611410565b602082019050919050565b600061105760198361124c565b915061106282611439565b602082019050919050565b600061107a60268361124c565b915061108582611462565b604082019050919050565b6110998161129b565b82525050565b60006020820190506110b46000830184610f23565b92915050565b60006060820190506110cf6000830186610f23565b6110dc6020830185610f23565b6110e96040830184611090565b949350505050565b6000602082019050818103600083015261110a81610f32565b9050919050565b6000602082019050818103600083015261112a81610f55565b9050919050565b6000602082019050818103600083015261114a81610f78565b9050919050565b6000602082019050818103600083015261116a81610f9b565b9050919050565b6000602082019050818103600083015261118a81610fbe565b9050919050565b600060208201905081810360008301526111aa81610fe1565b9050919050565b600060208201905081810360008301526111ca81611004565b9050919050565b600060208201905081810360008301526111ea81611027565b9050919050565b6000602082019050818103600083015261120a8161104a565b9050919050565b6000602082019050818103600083015261122a8161106d565b9050919050565b60006020820190506112466000830184611090565b92915050565b600082825260208201905092915050565b60006112688261127b565b9050919050565b60008115159050919050565b600073ffffffffffffffffffffffffffffffffffffffff82169050919050565b6000819050919050565b7f4f776e61626c653a206e6577206f776e657220697320746865207a65726f206160008201527f6464726573730000000000000000000000000000000000000000000000000000602082015250565b7f6c69714665655368617265206f7574206f662072616e67650000000000000000600082015250565b7f6465706f736974207472616e73666572206661696c6564000000000000000000600082015250565b7f78535553484920636f6e7472616374206e6f74207a65726f2061646472657373600082015250565b7f626f72726f77207468726573686f6c64206d757374206265203e207363616c6960008201527f6e6720666163746f720000000000000000000000000000000000000000000000602082015250565b7f7573647a20636f6e7472616374206e6f74207a65726f20616464726573730000600082015250565b7f4f776e61626c653a2063616c6c6572206973206e6f7420746865206f776e6572600082015250565b7f6c6971546f74616c466565206f7574206f662072616e67650000000000000000600082015250565b7f696e74657265737452617465206f7574206f662072616e676500000000000000600082015250565b7f6c6971207468726573686f6c64206d757374206265203e207363616c696e672060008201527f666163746f720000000000000000000000000000000000000000000000000000602082015250565b6114ba8161125d565b81146114c557600080fd5b50565b6114d18161126f565b81146114dc57600080fd5b50565b6114e88161129b565b81146114f357600080fd5b5056fea264697066735822122012e20331c6e90364df02fa8071c4c12cf143d1408dd24618c2ce77cf8a1b432c64736f6c63430008040033",
  "linkReferences": {},
  "deployedLinkReferences": {}
}