{
  "_format": "hh-sol-artifact-1",
  "contractName": "Controller",
  "sourceName": "contracts/Controller.sol",
  "abi": [
    {
      "inputs": [
        {
          "internalType": "address",
          "name": "_usdzAddress",
          "type": "address"
        },
        {
          "internalType": "address",
          "name": "_usdcAddress",
          "type": "address"
        },
        {
          "internalType": "address",
          "name": "_xSushiAddress",
          "type": "address"
        },
        {
          "internalType": "address",
          "name": "_wethAddress",
          "type": "address"
        },
        {
          "internalType": "address",
          "name": "_routerAddress",
          "type": "address"
        },
        {
          "internalType": "address[]",
          "name": "_swapPath",
          "type": "address[]"
        },
        {
          "internalType": "uint256",
          "name": "_liqTotalFee",
          "type": "uint256"
        },
        {
          "internalType": "uint256",
          "name": "_liqFeeShare",
          "type": "uint256"
        },
        {
          "internalType": "uint256",
          "name": "_interestRate",
          "type": "uint256"
        },
        {
          "internalType": "uint256",
          "name": "_borrowThreshold",
          "type": "uint256"
        },
        {
          "internalType": "uint256",
          "name": "_liqThreshold",
          "type": "uint256"
        }
      ],
      "stateMutability": "nonpayable",
      "type": "constructor"
    },
    {
      "anonymous": false,
      "inputs": [
        {
          "indexed": true,
          "internalType": "address",
          "name": "account",
          "type": "address"
        },
        {
          "indexed": false,
          "internalType": "uint256",
          "name": "amountBorrowed",
          "type": "uint256"
        },
        {
          "indexed": false,
          "internalType": "uint256",
          "name": "totalDebt",
          "type": "uint256"
        },
        {
          "indexed": false,
          "internalType": "uint256",
          "name": "collateralAmount",
          "type": "uint256"
        }
      ],
      "name": "Borrow",
      "type": "event"
    },
    {
      "anonymous": false,
      "inputs": [
        {
          "indexed": true,
          "internalType": "address",
          "name": "account",
          "type": "address"
        },
        {
          "indexed": false,
          "internalType": "uint256",
          "name": "amount",
          "type": "uint256"
        }
      ],
      "name": "Deposit",
      "type": "event"
    },
    {
      "anonymous": false,
      "inputs": [
        {
          "indexed": true,
          "internalType": "address",
          "name": "account",
          "type": "address"
        },
        {
          "indexed": true,
          "internalType": "address",
          "name": "liquidator",
          "type": "address"
        },
        {
          "indexed": false,
          "internalType": "uint256",
          "name": "collateralLiquidated",
          "type": "uint256"
        },
        {
          "indexed": false,
          "internalType": "uint256",
          "name": "lastCollateralRatio",
          "type": "uint256"
        },
        {
          "indexed": false,
          "internalType": "uint256",
          "name": "lastDebtOutstanding",
          "type": "uint256"
        }
      ],
      "name": "Liquidation",
      "type": "event"
    },
    {
      "anonymous": false,
      "inputs": [
        {
          "indexed": true,
          "internalType": "address",
          "name": "previousOwner",
          "type": "address"
        },
        {
          "indexed": true,
          "internalType": "address",
          "name": "newOwner",
          "type": "address"
        }
      ],
      "name": "OwnershipTransferred",
      "type": "event"
    },
    {
      "anonymous": false,
      "inputs": [
        {
          "indexed": true,
          "internalType": "address",
          "name": "account",
          "type": "address"
        },
        {
          "indexed": false,
          "internalType": "uint256",
          "name": "debtRepaid",
          "type": "uint256"
        },
        {
          "indexed": false,
          "internalType": "uint256",
          "name": "debtRemaining",
          "type": "uint256"
        },
        {
          "indexed": false,
          "internalType": "uint256",
          "name": "collateralAmount",
          "type": "uint256"
        }
      ],
      "name": "Repay",
      "type": "event"
    },
    {
      "anonymous": false,
      "inputs": [
        {
          "indexed": true,
          "internalType": "address",
          "name": "account",
          "type": "address"
        },
        {
          "indexed": false,
          "internalType": "uint256",
          "name": "amount",
          "type": "uint256"
        }
      ],
      "name": "Withdraw",
      "type": "event"
    },
    {
      "inputs": [],
      "name": "SCALING_FACTOR",
      "outputs": [
        {
          "internalType": "uint256",
          "name": "",
          "type": "uint256"
        }
      ],
      "stateMutability": "view",
      "type": "function"
    },
    {
      "inputs": [],
      "name": "SECONDS_IN_YEAR",
      "outputs": [
        {
          "internalType": "int128",
          "name": "",
          "type": "int128"
        }
      ],
      "stateMutability": "view",
      "type": "function"
    },
    {
      "inputs": [
        {
          "internalType": "uint256",
          "name": "_amount",
          "type": "uint256"
        }
      ],
      "name": "borrow",
      "outputs": [],
      "stateMutability": "nonpayable",
      "type": "function"
    },
    {
      "inputs": [],
      "name": "borrowThreshold",
      "outputs": [
        {
          "internalType": "uint256",
          "name": "",
          "type": "uint256"
        }
      ],
      "stateMutability": "view",
      "type": "function"
    },
    {
      "inputs": [
        {
          "internalType": "address",
          "name": "_account",
          "type": "address"
        }
      ],
      "name": "calcInterest",
      "outputs": [
        {
          "internalType": "uint256",
          "name": "interest",
          "type": "uint256"
        }
      ],
      "stateMutability": "view",
      "type": "function"
    },
    {
      "inputs": [
        {
          "internalType": "uint256",
          "name": "_amount",
          "type": "uint256"
        }
      ],
      "name": "deposit",
      "outputs": [],
      "stateMutability": "nonpayable",
      "type": "function"
    },
    {
      "inputs": [
        {
          "internalType": "address",
          "name": "_account",
          "type": "address"
        }
      ],
      "name": "getCurrentCollateralRatio",
      "outputs": [
        {
          "internalType": "uint256",
          "name": "",
          "type": "uint256"
        }
      ],
      "stateMutability": "view",
      "type": "function"
    },
    {
      "inputs": [
        {
          "internalType": "address",
          "name": "_account",
          "type": "address"
        },
        {
          "internalType": "uint256",
          "name": "_totalDebt",
          "type": "uint256"
        }
      ],
      "name": "getForwardCollateralRatio",
      "outputs": [
        {
          "internalType": "uint256",
          "name": "",
          "type": "uint256"
        }
      ],
      "stateMutability": "view",
      "type": "function"
    },
    {
      "inputs": [
        {
          "internalType": "address",
          "name": "_account",
          "type": "address"
        }
      ],
      "name": "getPosition",
      "outputs": [
        {
          "internalType": "uint256",
          "name": "",
          "type": "uint256"
        },
        {
          "internalType": "uint256",
          "name": "",
          "type": "uint256"
        },
        {
          "internalType": "uint256",
          "name": "",
          "type": "uint256"
        }
      ],
      "stateMutability": "view",
      "type": "function"
    },
    {
      "inputs": [],
      "name": "interestRate",
      "outputs": [
        {
          "internalType": "uint256",
          "name": "",
          "type": "uint256"
        }
      ],
      "stateMutability": "view",
      "type": "function"
    },
    {
      "inputs": [
        {
          "internalType": "address",
          "name": "_account",
          "type": "address"
        }
      ],
      "name": "liquidate",
      "outputs": [],
      "stateMutability": "nonpayable",
      "type": "function"
    },
    {
      "inputs": [],
      "name": "liquidationFee",
      "outputs": [
        {
          "internalType": "uint256",
          "name": "",
          "type": "uint256"
        }
      ],
      "stateMutability": "view",
      "type": "function"
    },
    {
      "inputs": [],
      "name": "liquidationThreshold",
      "outputs": [
        {
          "internalType": "uint256",
          "name": "",
          "type": "uint256"
        }
      ],
      "stateMutability": "view",
      "type": "function"
    },
    {
      "inputs": [],
      "name": "liquidatorFeeShare",
      "outputs": [
        {
          "internalType": "uint256",
          "name": "",
          "type": "uint256"
        }
      ],
      "stateMutability": "view",
      "type": "function"
    },
    {
      "inputs": [],
      "name": "owner",
      "outputs": [
        {
          "internalType": "address",
          "name": "",
          "type": "address"
        }
      ],
      "stateMutability": "view",
      "type": "function"
    },
    {
      "inputs": [],
      "name": "protocolShortfall",
      "outputs": [
        {
          "internalType": "uint256",
          "name": "",
          "type": "uint256"
        }
      ],
      "stateMutability": "view",
      "type": "function"
    },
    {
      "inputs": [],
      "name": "renounceOwnership",
      "outputs": [],
      "stateMutability": "nonpayable",
      "type": "function"
    },
    {
      "inputs": [
        {
          "internalType": "uint256",
          "name": "_amount",
          "type": "uint256"
        }
      ],
      "name": "repay",
      "outputs": [],
      "stateMutability": "nonpayable",
      "type": "function"
    },
    {
      "inputs": [
        {
          "internalType": "uint256",
          "name": "_liqTotalFee",
          "type": "uint256"
        },
        {
          "internalType": "uint256",
          "name": "_liqFeeShare",
          "type": "uint256"
        },
        {
          "internalType": "uint256",
          "name": "_interestRate",
          "type": "uint256"
        }
      ],
      "name": "setFeesAndRates",
      "outputs": [],
      "stateMutability": "nonpayable",
      "type": "function"
    },
    {
      "inputs": [
        {
          "internalType": "address",
          "name": "_sushiRouter",
          "type": "address"
        }
      ],
      "name": "setSushiAddresses",
      "outputs": [],
      "stateMutability": "nonpayable",
      "type": "function"
    },
    {
      "inputs": [
        {
          "internalType": "uint256",
          "name": "_borrowThreshold",
          "type": "uint256"
        },
        {
          "internalType": "uint256",
          "name": "_liqThreshold",
          "type": "uint256"
        }
      ],
      "name": "setThresholds",
      "outputs": [],
      "stateMutability": "nonpayable",
      "type": "function"
    },
    {
      "inputs": [
        {
          "internalType": "address",
          "name": "_usdz",
          "type": "address"
        },
        {
          "internalType": "address",
          "name": "_usdc",
          "type": "address"
        },
        {
          "internalType": "address",
          "name": "_xsushi",
          "type": "address"
        },
        {
          "internalType": "address",
          "name": "_weth",
          "type": "address"
        }
      ],
      "name": "setTokenAddresses",
      "outputs": [],
      "stateMutability": "nonpayable",
      "type": "function"
    },
    {
      "inputs": [],
      "name": "sushiRouterAddress",
      "outputs": [
        {
          "internalType": "address",
          "name": "",
          "type": "address"
        }
      ],
      "stateMutability": "view",
      "type": "function"
    },
    {
      "inputs": [
        {
          "internalType": "address",
          "name": "newOwner",
          "type": "address"
        }
      ],
      "name": "transferOwnership",
      "outputs": [],
      "stateMutability": "nonpayable",
      "type": "function"
    },
    {
      "inputs": [],
      "name": "usdcAddress",
      "outputs": [
        {
          "internalType": "address",
          "name": "",
          "type": "address"
        }
      ],
      "stateMutability": "view",
      "type": "function"
    },
    {
      "inputs": [],
      "name": "usdzAddress",
      "outputs": [
        {
          "internalType": "address",
          "name": "",
          "type": "address"
        }
      ],
      "stateMutability": "view",
      "type": "function"
    },
    {
      "inputs": [],
      "name": "wethAddress",
      "outputs": [
        {
          "internalType": "address",
          "name": "",
          "type": "address"
        }
      ],
      "stateMutability": "view",
      "type": "function"
    },
    {
      "inputs": [
        {
          "internalType": "uint256",
          "name": "_amount",
          "type": "uint256"
        }
      ],
      "name": "withdraw",
      "outputs": [],
      "stateMutability": "nonpayable",
      "type": "function"
    },
    {
      "inputs": [],
      "name": "xSushiAddress",
      "outputs": [
        {
          "internalType": "address",
          "name": "",
          "type": "address"
        }
      ],
      "stateMutability": "view",
      "type": "function"
    },
    {
      "inputs": [
        {
          "internalType": "uint256",
          "name": "",
          "type": "uint256"
        }
      ],
      "name": "xSushiToUsdcPath",
      "outputs": [
        {
          "internalType": "address",
          "name": "",
          "type": "address"
        }
      ],
      "stateMutability": "view",
      "type": "function"
    }
  ],
  "bytecode": "0x60806040523480156200001157600080fd5b506040516200492538038062004925833981810160405281019062000037919062000478565b600062000049620002ce60201b60201c565b9050806000806101000a81548173ffffffffffffffffffffffffffffffffffffffff021916908373ffffffffffffffffffffffffffffffffffffffff1602179055508073ffffffffffffffffffffffffffffffffffffffff16600073ffffffffffffffffffffffffffffffffffffffff167f8be0079c531659141344cd1fd0a4f28419497f9722a3daafe3b4186f6b6457e060405160405180910390a3508a600460006101000a81548173ffffffffffffffffffffffffffffffffffffffff021916908373ffffffffffffffffffffffffffffffffffffffff16021790555089600560006101000a81548173ffffffffffffffffffffffffffffffffffffffff021916908373ffffffffffffffffffffffffffffffffffffffff16021790555088600660006101000a81548173ffffffffffffffffffffffffffffffffffffffff021916908373ffffffffffffffffffffffffffffffffffffffff16021790555087600360006101000a81548173ffffffffffffffffffffffffffffffffffffffff021916908373ffffffffffffffffffffffffffffffffffffffff16021790555086600760006101000a81548173ffffffffffffffffffffffffffffffffffffffff021916908373ffffffffffffffffffffffffffffffffffffffff1602179055508460098190555083600a8190555082600b8190555081600c8190555080600d81905550856008908051906020019062000267929190620002fa565b50620002826301e18558620002d660201b620020ef1760201c565b600e60006101000a8154816fffffffffffffffffffffffffffffffff0219169083600f0b6fffffffffffffffffffffffffffffffff16021790555050505050505050505050506200069c565b600033905090565b6000677fffffffffffffff821115620002ee57600080fd5b604082901b9050919050565b82805482825590600052602060002090810192821562000376579160200282015b82811115620003755782518260006101000a81548173ffffffffffffffffffffffffffffffffffffffff021916908373ffffffffffffffffffffffffffffffffffffffff160217905550916020019190600101906200031b565b5b50905062000385919062000389565b5090565b5b80821115620003a45760008160009055506001016200038a565b5090565b6000620003bf620003b984620005cc565b62000598565b90508083825260208201905082856020860282011115620003df57600080fd5b60005b85811015620004135781620003f888826200041d565b845260208401935060208301925050600181019050620003e2565b5050509392505050565b6000815190506200042e8162000668565b92915050565b600082601f8301126200044657600080fd5b815162000458848260208601620003a8565b91505092915050565b600081519050620004728162000682565b92915050565b60008060008060008060008060008060006101608c8e0312156200049b57600080fd5b6000620004ab8e828f016200041d565b9b50506020620004be8e828f016200041d565b9a50506040620004d18e828f016200041d565b9950506060620004e48e828f016200041d565b9850506080620004f78e828f016200041d565b97505060a08c015167ffffffffffffffff8111156200051557600080fd5b620005238e828f0162000434565b96505060c0620005368e828f0162000461565b95505060e0620005498e828f0162000461565b9450506101006200055d8e828f0162000461565b935050610120620005718e828f0162000461565b925050610140620005858e828f0162000461565b9150509295989b509295989b9093969950565b6000604051905081810181811067ffffffffffffffff82111715620005c257620005c162000639565b5b8060405250919050565b600067ffffffffffffffff821115620005ea57620005e962000639565b5b602082029050602081019050919050565b600062000608826200060f565b9050919050565b600073ffffffffffffffffffffffffffffffffffffffff82169050919050565b6000819050919050565b7f4e487b7100000000000000000000000000000000000000000000000000000000600052604160045260246000fd5b6200067381620005fb565b81146200067f57600080fd5b50565b6200068d816200062f565b81146200069957600080fd5b50565b61427980620006ac6000396000f3fe608060405234801561001057600080fd5b50600436106101da5760003560e01c806379bbce8f11610104578063bdfccad3116100a2578063e3064a7711610071578063e3064a7714610525578063ef4cadc514610541578063f248e7e81461055f578063f2fde38b1461057b576101da565b8063bdfccad31461049f578063bfaf48d4146104bd578063c5ebeaec146104d9578063daf5539e146104f5576101da565b80638da5cb5b116100de5780638da5cb5b14610429578063a36a363014610447578063af1f556f14610465578063b6b55f2514610483576101da565b806379bbce8f146103d15780637c3a00fd146103ef57806385832bac1461040d576101da565b80634a63a5ce1161017c5780635dcc93911161014b5780635dcc93911461034957806369cb89c7146103675780637046b7a914610397578063715018a6146103c7576101da565b80634a63a5ce146102bf5780634f0e0ef3146102ef578063540548081461030d5780635ae547e31461032b576101da565b80632e1a7d4d116101b85780632e1a7d4d1461024d5780632f86556814610269578063371fd8e6146102855780634031234c146102a1576101da565b806302d45457146101df57806316c19739146101fd57806320bdf8001461022f575b600080fd5b6101e7610597565b6040516101f49190613b01565b60405180910390f35b610217600480360381019061021291906132f6565b6105bd565b60405161022693929190613e69565b60405180910390f35b610237610698565b6040516102449190613b01565b60405180910390f35b61026760048036038101906102629190613428565b6106be565b005b610283600480360381019061027e91906132f6565b610a73565b005b61029f600480360381019061029a9190613428565b610ae1565b005b6102a9610e0c565b6040516102b69190613e1e565b60405180910390f35b6102d960048036038101906102d49190613428565b610e12565b6040516102e69190613b01565b60405180910390f35b6102f7610e51565b6040516103049190613b01565b60405180910390f35b610315610e77565b6040516103229190613e1e565b60405180910390f35b610333610e7d565b6040516103409190613e1e565b60405180910390f35b610351610e83565b60405161035e9190613b7c565b60405180910390f35b610381600480360381019061037c91906132f6565b610e96565b60405161038e9190613e1e565b60405180910390f35b6103b160048036038101906103ac9190613382565b611105565b6040516103be9190613e1e565b60405180910390f35b6103cf611119565b005b6103d9611253565b6040516103e69190613b01565b60405180910390f35b6103f7611279565b6040516104049190613e1e565b60405180910390f35b6104276004803603810190610422919061331f565b61127f565b005b6104316115c5565b60405161043e9190613b01565b60405180910390f35b61044f6115ee565b60405161045c9190613e1e565b60405180910390f35b61046d6115f4565b60405161047a9190613e1e565b60405180910390f35b61049d60048036038101906104989190613428565b6115fa565b005b6104a76117db565b6040516104b49190613b01565b60405180910390f35b6104d760048036038101906104d2919061348d565b611801565b005b6104f360048036038101906104ee9190613428565b611999565b005b61050f600480360381019061050a91906132f6565b611ca3565b60405161051c9190613e1e565b60405180910390f35b61053f600480360381019061053a9190613451565b611cf8565b005b610549611e10565b6040516105569190613e1e565b60405180910390f35b610579600480360381019061057491906132f6565b611e16565b005b610595600480360381019061059091906132f6565b611f46565b005b600560009054906101000a900473ffffffffffffffffffffffffffffffffffffffff1681565b6000806000600160008573ffffffffffffffffffffffffffffffffffffffff1673ffffffffffffffffffffffffffffffffffffffff16815260200190815260200160002060000154600160008673ffffffffffffffffffffffffffffffffffffffff1673ffffffffffffffffffffffffffffffffffffffff16815260200190815260200160002060010154600160008773ffffffffffffffffffffffffffffffffffffffff1673ffffffffffffffffffffffffffffffffffffffff168152602001908152602001600020600201549250925092509193909250565b600460009054906101000a900473ffffffffffffffffffffffffffffffffffffffff1681565b6000600160003373ffffffffffffffffffffffffffffffffffffffff1673ffffffffffffffffffffffffffffffffffffffff16815260200190815260200160002060000154905081811015610748576040517f08c379a000000000000000000000000000000000000000000000000000000000815260040161073f90613dfe565b60405180910390fd5b600061075333610e96565b905080600160003373ffffffffffffffffffffffffffffffffffffffff1673ffffffffffffffffffffffffffffffffffffffff16815260200190815260200160002060010160008282546107a79190613f57565b9250508190555042600160003373ffffffffffffffffffffffffffffffffffffffff1673ffffffffffffffffffffffffffffffffffffffff16815260200190815260200160002060020181905550600061080033611ca3565b9050600c548111610846576040517f08c379a000000000000000000000000000000000000000000000000000000000815260040161083d90613cfe565b60405180910390fd5b6000837fffffffffffffffffffffffffffffffffffffffffffffffffffffffffffffffff612710600c5461087a9190613fad565b846108859190614038565b61088f9190613fad565b6108999190613fde565b9050848110156108de576040517f08c379a00000000000000000000000000000000000000000000000000000000081526004016108d590613c7e565b60405180910390fd5b84846108ea9190614038565b600160003373ffffffffffffffffffffffffffffffffffffffff1673ffffffffffffffffffffffffffffffffffffffff16815260200190815260200160002060000181905550600660009054906101000a900473ffffffffffffffffffffffffffffffffffffffff1673ffffffffffffffffffffffffffffffffffffffff1663a9059cbb33876040518363ffffffff1660e01b815260040161098d929190613b53565b602060405180830381600087803b1580156109a757600080fd5b505af11580156109bb573d6000803e3d6000fd5b505050506040513d601f19601f820116820180604052508101906109df91906133ff565b610a1e576040517f08c379a0000000000000000000000000000000000000000000000000000000008152600401610a1590613c9e565b60405180910390fd5b3373ffffffffffffffffffffffffffffffffffffffff167f884edad9ce6fa2440d8a54cc123490eb96d2768479d49ff9c7366125a942436486604051610a649190613e1e565b60405180910390a25050505050565b3373ffffffffffffffffffffffffffffffffffffffff168173ffffffffffffffffffffffffffffffffffffffff167f5a821a618ddb1a1fd304234a69c9d7f20c129d122fcf35593d13a071926643076000806000604051610ad693929190613b97565b60405180910390a350565b60008111610b24576040517f08c379a0000000000000000000000000000000000000000000000000000000008152600401610b1b90613d7e565b60405180910390fd5b6000600160003373ffffffffffffffffffffffffffffffffffffffff1673ffffffffffffffffffffffffffffffffffffffff1681526020019081526020016000209050610b7033610e96565b816001016000828254610b839190613f57565b925050819055504281600201819055508181600101541115610caf57600460009054906101000a900473ffffffffffffffffffffffffffffffffffffffff1673ffffffffffffffffffffffffffffffffffffffff166323b872dd3330856040518463ffffffff1660e01b8152600401610bfe93929190613b1c565b602060405180830381600087803b158015610c1857600080fd5b505af1158015610c2c573d6000803e3d6000fd5b505050506040513d601f19601f82011682018060405250810190610c5091906133ff565b610c8f576040517f08c379a0000000000000000000000000000000000000000000000000000000008152600401610c8690613d1e565b60405180910390fd5b81816001016000828254610ca39190614038565b92505081905550610dae565b600460009054906101000a900473ffffffffffffffffffffffffffffffffffffffff1673ffffffffffffffffffffffffffffffffffffffff166323b872dd333084600101546040518463ffffffff1660e01b8152600401610d1293929190613b1c565b602060405180830381600087803b158015610d2c57600080fd5b505af1158015610d40573d6000803e3d6000fd5b505050506040513d601f19601f82011682018060405250810190610d6491906133ff565b610da3576040517f08c379a0000000000000000000000000000000000000000000000000000000008152600401610d9a90613d1e565b60405180910390fd5b600081600101819055505b3373ffffffffffffffffffffffffffffffffffffffff167f2fe77b1c99aca6b022b8efc6e3e8dd1b48b30748709339b65c50ef3263443e098383600101548460000154604051610e0093929190613e69565b60405180910390a25050565b600d5481565b60088181548110610e2257600080fd5b906000526020600020016000915054906101000a900473ffffffffffffffffffffffffffffffffffffffff1681565b600360009054906101000a900473ffffffffffffffffffffffffffffffffffffffff1681565b600a5481565b600c5481565b600e60009054906101000a9004600f0b81565b600080600160008473ffffffffffffffffffffffffffffffffffffffff1673ffffffffffffffffffffffffffffffffffffffff168152602001908152602001600020600101541480610f2a57506000600160008473ffffffffffffffffffffffffffffffffffffffff1673ffffffffffffffffffffffffffffffffffffffff16815260200190815260200160002060020154145b80610f3757506000600b54145b80610f835750600160008373ffffffffffffffffffffffffffffffffffffffff1673ffffffffffffffffffffffffffffffffffffffff1681526020019081526020016000206002015442145b15610f915760009050611100565b6000600160008473ffffffffffffffffffffffffffffffffffffffff1673ffffffffffffffffffffffffffffffffffffffff1681526020019081526020016000206002015442610fe19190614038565b90506000611006610ff1836120ef565b600e60009054906101000a9004600f0b612112565b90506000611028611018600b546120ef565b6110236127106120ef565b612112565b90506000611077600160008873ffffffffffffffffffffffffffffffffffffffff1673ffffffffffffffffffffffffffffffffffffffff168152602001908152602001600020600101546120ef565b9050600061109e6110998361109461108f87896121c2565b61222d565b6121c2565b6122a6565b9050600160008873ffffffffffffffffffffffffffffffffffffffff1673ffffffffffffffffffffffffffffffffffffffff168152602001908152602001600020600101548167ffffffffffffffff166110f89190614038565b955050505050505b919050565b600061111183836122c7565b905092915050565b61112161253f565b73ffffffffffffffffffffffffffffffffffffffff1661113f6115c5565b73ffffffffffffffffffffffffffffffffffffffff1614611195576040517f08c379a000000000000000000000000000000000000000000000000000000000815260040161118c90613d3e565b60405180910390fd5b600073ffffffffffffffffffffffffffffffffffffffff1660008054906101000a900473ffffffffffffffffffffffffffffffffffffffff1673ffffffffffffffffffffffffffffffffffffffff167f8be0079c531659141344cd1fd0a4f28419497f9722a3daafe3b4186f6b6457e060405160405180910390a360008060006101000a81548173ffffffffffffffffffffffffffffffffffffffff021916908373ffffffffffffffffffffffffffffffffffffffff160217905550565b600760009054906101000a900473ffffffffffffffffffffffffffffffffffffffff1681565b600b5481565b61128761253f565b73ffffffffffffffffffffffffffffffffffffffff166112a56115c5565b73ffffffffffffffffffffffffffffffffffffffff16146112fb576040517f08c379a00000000000000000000000000000000000000000000000000000000081526004016112f290613d3e565b60405180910390fd5b600073ffffffffffffffffffffffffffffffffffffffff168473ffffffffffffffffffffffffffffffffffffffff16141561136b576040517f08c379a000000000000000000000000000000000000000000000000000000000815260040161136290613cde565b60405180910390fd5b600073ffffffffffffffffffffffffffffffffffffffff168373ffffffffffffffffffffffffffffffffffffffff1614156113db576040517f08c379a00000000000000000000000000000000000000000000000000000000081526004016113d290613cde565b60405180910390fd5b600073ffffffffffffffffffffffffffffffffffffffff168273ffffffffffffffffffffffffffffffffffffffff16141561144b576040517f08c379a000000000000000000000000000000000000000000000000000000000815260040161144290613cde565b60405180910390fd5b600073ffffffffffffffffffffffffffffffffffffffff168173ffffffffffffffffffffffffffffffffffffffff1614156114bb576040517f08c379a00000000000000000000000000000000000000000000000000000000081526004016114b290613cde565b60405180910390fd5b81600660006101000a81548173ffffffffffffffffffffffffffffffffffffffff021916908373ffffffffffffffffffffffffffffffffffffffff16021790555083600460006101000a81548173ffffffffffffffffffffffffffffffffffffffff021916908373ffffffffffffffffffffffffffffffffffffffff16021790555082600560006101000a81548173ffffffffffffffffffffffffffffffffffffffff021916908373ffffffffffffffffffffffffffffffffffffffff16021790555080600360006101000a81548173ffffffffffffffffffffffffffffffffffffffff021916908373ffffffffffffffffffffffffffffffffffffffff16021790555050505050565b60008060009054906101000a900473ffffffffffffffffffffffffffffffffffffffff16905090565b60095481565b60025481565b6000600660009054906101000a900473ffffffffffffffffffffffffffffffffffffffff1690508073ffffffffffffffffffffffffffffffffffffffff166323b872dd3330856040518463ffffffff1660e01b815260040161165e93929190613b1c565b602060405180830381600087803b15801561167857600080fd5b505af115801561168c573d6000803e3d6000fd5b505050506040513d601f19601f820116820180604052508101906116b091906133ff565b6116ef576040517f08c379a00000000000000000000000000000000000000000000000000000000081526004016116e690613d9e565b60405180910390fd5b6000600160003373ffffffffffffffffffffffffffffffffffffffff1673ffffffffffffffffffffffffffffffffffffffff16815260200190815260200160002060000154905082816117429190613f57565b600160003373ffffffffffffffffffffffffffffffffffffffff1673ffffffffffffffffffffffffffffffffffffffff168152602001908152602001600020600001819055503373ffffffffffffffffffffffffffffffffffffffff167fe1fffcc4923d04b559f4d29a8bfc6cda04eb5b0d3c460751c2402c5c5cc9109c846040516117ce9190613e1e565b60405180910390a2505050565b600660009054906101000a900473ffffffffffffffffffffffffffffffffffffffff1681565b61180961253f565b73ffffffffffffffffffffffffffffffffffffffff166118276115c5565b73ffffffffffffffffffffffffffffffffffffffff161461187d576040517f08c379a000000000000000000000000000000000000000000000000000000000815260040161187490613d3e565b60405180910390fd5b6127108311158015611890575060008310155b6118cf576040517f08c379a00000000000000000000000000000000000000000000000000000000081526004016118c690613d5e565b60405180910390fd5b61271082111580156118e2575060008210155b80156118ee5750828211155b61192d576040517f08c379a000000000000000000000000000000000000000000000000000000000815260040161192490613c3e565b60405180910390fd5b8260098190555081600a81905550612710811115801561194e575060008110155b61198d576040517f08c379a000000000000000000000000000000000000000000000000000000000815260040161198490613dbe565b60405180910390fd5b80600b81905550505050565b600081116119dc576040517f08c379a00000000000000000000000000000000000000000000000000000000081526004016119d390613c5e565b60405180910390fd5b60006119e733610e96565b9050600c54611a4e338484600160003373ffffffffffffffffffffffffffffffffffffffff1673ffffffffffffffffffffffffffffffffffffffff16815260200190815260200160002060010154611a3f9190613f57565b611a499190613f57565b611105565b1015611a8f576040517f08c379a0000000000000000000000000000000000000000000000000000000008152600401611a8690613bfe565b60405180910390fd5b8082611a9b9190613f57565b600160003373ffffffffffffffffffffffffffffffffffffffff1673ffffffffffffffffffffffffffffffffffffffff1681526020019081526020016000206001016000828254611aec9190613f57565b9250508190555042600160003373ffffffffffffffffffffffffffffffffffffffff1673ffffffffffffffffffffffffffffffffffffffff16815260200190815260200160002060020181905550600460009054906101000a900473ffffffffffffffffffffffffffffffffffffffff1673ffffffffffffffffffffffffffffffffffffffff166340c10f1933846040518363ffffffff1660e01b8152600401611b97929190613b53565b600060405180830381600087803b158015611bb157600080fd5b505af1158015611bc5573d6000803e3d6000fd5b505050503373ffffffffffffffffffffffffffffffffffffffff167f13ed6866d4e1ee6da46f845c46d7e54120883d75c5ea9a2dacc1c4ca8984ab8083600160003373ffffffffffffffffffffffffffffffffffffffff1673ffffffffffffffffffffffffffffffffffffffff16815260200190815260200160002060010154600160003373ffffffffffffffffffffffffffffffffffffffff1673ffffffffffffffffffffffffffffffffffffffff16815260200190815260200160002060000154604051611c9793929190613e69565b60405180910390a25050565b6000611cf182600160008573ffffffffffffffffffffffffffffffffffffffff1673ffffffffffffffffffffffffffffffffffffffff168152602001908152602001600020600101546122c7565b9050919050565b611d0061253f565b73ffffffffffffffffffffffffffffffffffffffff16611d1e6115c5565b73ffffffffffffffffffffffffffffffffffffffff1614611d74576040517f08c379a0000000000000000000000000000000000000000000000000000000008152600401611d6b90613d3e565b60405180910390fd5b612710821015611db9576040517f08c379a0000000000000000000000000000000000000000000000000000000008152600401611db090613cbe565b60405180910390fd5b612710811015611dfe576040517f08c379a0000000000000000000000000000000000000000000000000000000008152600401611df590613dde565b60405180910390fd5b81600c8190555080600d819055505050565b61271081565b611e1e61253f565b73ffffffffffffffffffffffffffffffffffffffff16611e3c6115c5565b73ffffffffffffffffffffffffffffffffffffffff1614611e92576040517f08c379a0000000000000000000000000000000000000000000000000000000008152600401611e8990613d3e565b60405180910390fd5b600073ffffffffffffffffffffffffffffffffffffffff168173ffffffffffffffffffffffffffffffffffffffff161415611f02576040517f08c379a0000000000000000000000000000000000000000000000000000000008152600401611ef990613cde565b60405180910390fd5b80600760006101000a81548173ffffffffffffffffffffffffffffffffffffffff021916908373ffffffffffffffffffffffffffffffffffffffff16021790555050565b611f4e61253f565b73ffffffffffffffffffffffffffffffffffffffff16611f6c6115c5565b73ffffffffffffffffffffffffffffffffffffffff1614611fc2576040517f08c379a0000000000000000000000000000000000000000000000000000000008152600401611fb990613d3e565b60405180910390fd5b600073ffffffffffffffffffffffffffffffffffffffff168173ffffffffffffffffffffffffffffffffffffffff161415612032576040517f08c379a000000000000000000000000000000000000000000000000000000000815260040161202990613c1e565b60405180910390fd5b8073ffffffffffffffffffffffffffffffffffffffff1660008054906101000a900473ffffffffffffffffffffffffffffffffffffffff1673ffffffffffffffffffffffffffffffffffffffff167f8be0079c531659141344cd1fd0a4f28419497f9722a3daafe3b4186f6b6457e060405160405180910390a3806000806101000a81548173ffffffffffffffffffffffffffffffffffffffff021916908373ffffffffffffffffffffffffffffffffffffffff16021790555050565b6000677fffffffffffffff82111561210657600080fd5b604082901b9050919050565b60008082600f0b141561212457600080fd5b600082600f0b604085600f0b901b81612166577f4e487b7100000000000000000000000000000000000000000000000000000000600052601260045260246000fd5b0590507fffffffffffffffffffffffffffffffff80000000000000000000000000000000600f0b81121580156121af57506f7fffffffffffffffffffffffffffffff600f0b8113155b6121b857600080fd5b8091505092915050565b600080604083600f0b85600f0b02901d90507fffffffffffffffffffffffffffffffff80000000000000000000000000000000600f0b811215801561221a57506f7fffffffffffffffffffffffffffffff600f0b8113155b61222357600080fd5b8091505092915050565b60006840000000000000000082600f0b1261224757600080fd5b7fffffffffffffffffffffffffffffffffffffffffffffffc0000000000000000082600f0b121561227b57600090506122a1565b61229e6080700171547652b82fe1777d0ffda0d23a7d1284600f0b02901d612547565b90505b919050565b60008082600f0b12156122b857600080fd5b604082600f0b901d9050919050565b600080600160008573ffffffffffffffffffffffffffffffffffffffff1673ffffffffffffffffffffffffffffffffffffffff1681526020019081526020016000206000015490506000811415612322576000915050612539565b6000831415612354577fffffffffffffffffffffffffffffffffffffffffffffffffffffffffffffffff915050612539565b6000600760009054906101000a900473ffffffffffffffffffffffffffffffffffffffff16905060008173ffffffffffffffffffffffffffffffffffffffff1663d06ca61f8460086040518363ffffffff1660e01b81526004016123b9929190613e39565b60006040518083038186803b1580156123d157600080fd5b505afa1580156123e5573d6000803e3d6000fd5b505050506040513d6000823e3d601f19601f8201168201806040525081019061240e91906133be565b600281518110612447577f4e487b7100000000000000000000000000000000000000000000000000000000600052603260045260246000fd5b602002602001015190506124906040518060400160405280600b81526020017f636f6c6c61746572616c3a00000000000000000000000000000000000000000081525084613147565b6124cf6040518060400160405280600581526020017f646562743a00000000000000000000000000000000000000000000000000000081525086613147565b61250e6040518060400160405280600a81526020017f636f6c2076616c75653a0000000000000000000000000000000000000000000081525082613147565b8460646127108361251f9190613fde565b6125299190613fde565b6125339190613fad565b93505050505b92915050565b600033905090565b60006840000000000000000082600f0b1261256157600080fd5b7fffffffffffffffffffffffffffffffffffffffffffffffc0000000000000000082600f0b12156125955760009050613142565b60006f80000000000000000000000000000000905060006780000000000000008416600f0b13156125db57608070016a09e667f3bcc908b2fb1366ea957d3e8202901c90505b60006740000000000000008416600f0b131561260c5760807001306fe0a31b7152de8d5a46305c85edec8202901c90505b60006720000000000000008416600f0b131561263d5760807001172b83c7d517adcdf7c8c50eb14a791f8202901c90505b60006710000000000000008416600f0b131561266e57608070010b5586cf9890f6298b92b71842a983638202901c90505b60006708000000000000008416600f0b131561269f5760807001059b0d31585743ae7c548eb68ca417fd8202901c90505b60006704000000000000008416600f0b13156126d0576080700102c9a3e778060ee6f7caca4f7a29bde88202901c90505b60006702000000000000008416600f0b131561270157608070010163da9fb33356d84a66ae336dcdfa3f8202901c90505b60006701000000000000008416600f0b1315612732576080700100b1afa5abcbed6129ab13ec11dc95438202901c90505b600066800000000000008416600f0b131561276257608070010058c86da1c09ea1ff19d294cf2f679b8202901c90505b600066400000000000008416600f0b13156127925760807001002c605e2e8cec506d21bfc89a23a00f8202901c90505b600066200000000000008416600f0b13156127c2576080700100162f3904051fa128bca9c55c31e5df8202901c90505b600066100000000000008416600f0b13156127f25760807001000b175effdc76ba38e31671ca9397258202901c90505b600066080000000000008416600f0b1315612822576080700100058ba01fb9f96d6cacd4b180917c3d8202901c90505b600066040000000000008416600f0b131561285257608070010002c5cc37da9491d0985c348c68e7b38202901c90505b600066020000000000008416600f0b13156128825760807001000162e525ee054754457d59952920268202901c90505b600066010000000000008416600f0b13156128b257608070010000b17255775c040618bf4a4ade83fc8202901c90505b6000658000000000008416600f0b13156128e15760807001000058b91b5bc9ae2eed81e9b7d4cfab8202901c90505b6000654000000000008416600f0b1315612910576080700100002c5c89d5ec6ca4d7c8acc017b7c98202901c90505b6000652000000000008416600f0b131561293f57608070010000162e43f4f831060e02d839a9d16d8202901c90505b6000651000000000008416600f0b131561296e576080700100000b1721bcfc99d9f890ea069117638202901c90505b6000650800000000008416600f0b131561299d57608070010000058b90cf1e6d97f9ca14dbcc16288202901c90505b6000650400000000008416600f0b13156129cc5760807001000002c5c863b73f016468f6bac5ca2b8202901c90505b6000650200000000008416600f0b13156129fb576080700100000162e430e5a18f6119e3c02282a58202901c90505b6000650100000000008416600f0b1315612a2a5760807001000000b1721835514b86e6d96efd1bfe8202901c90505b60006480000000008416600f0b1315612a58576080700100000058b90c0b48c6be5df846c5b2ef8202901c90505b60006440000000008416600f0b1315612a8657608070010000002c5c8601cc6b9e94213c72737a8202901c90505b60006420000000008416600f0b1315612ab45760807001000000162e42fff037df38aa2b219f068202901c90505b60006410000000008416600f0b1315612ae257608070010000000b17217fba9c739aa5819f44f98202901c90505b60006408000000008416600f0b1315612b105760807001000000058b90bfcdee5acd3c1cedc8238202901c90505b60006404000000008416600f0b1315612b3e576080700100000002c5c85fe31f35a6a30da1be508202901c90505b60006402000000008416600f0b1315612b6c57608070010000000162e42ff0999ce3541b9fffcf8202901c90505b60006401000000008416600f0b1315612b9a576080700100000000b17217f80f4ef5aadda455548202901c90505b600063800000008416600f0b1315612bc757608070010000000058b90bfbf8479bd5a81b51ad8202901c90505b600063400000008416600f0b1315612bf45760807001000000002c5c85fdf84bd62ae30a74cc8202901c90505b600063200000008416600f0b1315612c21576080700100000000162e42fefb2fed257559bdaa8202901c90505b600063100000008416600f0b1315612c4e5760807001000000000b17217f7d5a7716bba4a9ae8202901c90505b600063080000008416600f0b1315612c7b576080700100000000058b90bfbe9ddbac5e109cce8202901c90505b600063040000008416600f0b1315612ca857608070010000000002c5c85fdf4b15de6f17eb0d8202901c90505b600063020000008416600f0b1315612cd55760807001000000000162e42fefa494f1478fde058202901c90505b600063010000008416600f0b1315612d0257608070010000000000b17217f7d20cf927c8e94c8202901c90505b6000628000008416600f0b1315612d2e5760807001000000000058b90bfbe8f71cb4e4b33d8202901c90505b6000624000008416600f0b1315612d5a576080700100000000002c5c85fdf477b662b269458202901c90505b6000622000008416600f0b1315612d8657608070010000000000162e42fefa3ae53369388c8202901c90505b6000621000008416600f0b1315612db2576080700100000000000b17217f7d1d351a389d408202901c90505b6000620800008416600f0b1315612dde57608070010000000000058b90bfbe8e8b2d3d4ede8202901c90505b6000620400008416600f0b1315612e0a5760807001000000000002c5c85fdf4741bea6e77e8202901c90505b6000620200008416600f0b1315612e36576080700100000000000162e42fefa39fe95583c28202901c90505b6000620100008416600f0b1315612e625760807001000000000000b17217f7d1cfb72b45e18202901c90505b60006180008416600f0b1315612e8d576080700100000000000058b90bfbe8e7cc35c3f08202901c90505b60006140008416600f0b1315612eb857608070010000000000002c5c85fdf473e242ea388202901c90505b60006120008416600f0b1315612ee35760807001000000000000162e42fefa39f02b772c8202901c90505b60006110008416600f0b1315612f0e57608070010000000000000b17217f7d1cf7d83c1a8202901c90505b60006108008416600f0b1315612f395760807001000000000000058b90bfbe8e7bdcbe2e8202901c90505b60006104008416600f0b1315612f64576080700100000000000002c5c85fdf473dea871f8202901c90505b60006102008416600f0b1315612f8f57608070010000000000000162e42fefa39ef44d918202901c90505b60006101008416600f0b1315612fba576080700100000000000000b17217f7d1cf79e9498202901c90505b600060808416600f0b1315612fe457608070010000000000000058b90bfbe8e7bce5448202901c90505b600060408416600f0b131561300e5760807001000000000000002c5c85fdf473de6eca8202901c90505b600060208416600f0b1315613038576080700100000000000000162e42fefa39ef366f8202901c90505b600060108416600f0b13156130625760807001000000000000000b17217f7d1cf79afa8202901c90505b600060088416600f0b131561308c576080700100000000000000058b90bfbe8e7bcd6d8202901c90505b600060048416600f0b13156130b657608070010000000000000002c5c85fdf473de6b28202901c90505b600060028416600f0b13156130e05760807001000000000000000162e42fefa39ef3588202901c90505b600060018416600f0b131561310a57608070010000000000000000b17217f7d1cf79ab8202901c90505b604083600f0b901d603f03600f0b81901c90506f7fffffffffffffffffffffffffffffff600f0b81111561313d57600080fd5b809150505b919050565b6131df828260405160240161315d929190613bce565b6040516020818303038152906040527f9710a9d0000000000000000000000000000000000000000000000000000000007bffffffffffffffffffffffffffffffffffffffffffffffffffffffff19166020820180517bffffffffffffffffffffffffffffffffffffffffffffffffffffffff83818316178352505050506131e3565b5050565b60008151905060006a636f6e736f6c652e6c6f679050602083016000808483855afa5050505050565b600061321f61321a84613ed1565b613ea0565b9050808382526020820190508285602086028201111561323e57600080fd5b60005b8581101561326e578161325488826132e1565b845260208401935060208301925050600181019050613241565b5050509392505050565b600081359050613287816141fe565b92915050565b600082601f83011261329e57600080fd5b81516132ae84826020860161320c565b91505092915050565b6000815190506132c681614215565b92915050565b6000813590506132db8161422c565b92915050565b6000815190506132f08161422c565b92915050565b60006020828403121561330857600080fd5b600061331684828501613278565b91505092915050565b6000806000806080858703121561333557600080fd5b600061334387828801613278565b945050602061335487828801613278565b935050604061336587828801613278565b925050606061337687828801613278565b91505092959194509250565b6000806040838503121561339557600080fd5b60006133a385828601613278565b92505060206133b4858286016132cc565b9150509250929050565b6000602082840312156133d057600080fd5b600082015167ffffffffffffffff8111156133ea57600080fd5b6133f68482850161328d565b91505092915050565b60006020828403121561341157600080fd5b600061341f848285016132b7565b91505092915050565b60006020828403121561343a57600080fd5b6000613448848285016132cc565b91505092915050565b6000806040838503121561346457600080fd5b6000613472858286016132cc565b9250506020613483858286016132cc565b9150509250929050565b6000806000606084860312156134a257600080fd5b60006134b0868287016132cc565b93505060206134c1868287016132cc565b92505060406134d2868287016132cc565b9150509250925092565b60006134e883836134f4565b60208301905092915050565b6134fd8161408c565b82525050565b61350c8161408c565b82525050565b600061351d82613f12565b6135278185613f35565b935061353283613efd565b8060005b8381101561356a57613547826141cd565b61355188826134dc565b975061355c83613f28565b925050600181019050613536565b5085935050505092915050565b613580816140aa565b82525050565b61358f816140e1565b82525050565b60006135a082613f1d565b6135aa8185613f46565b93506135ba8185602086016140f3565b6135c3816141e0565b840191505092915050565b60006135db602983613f46565b91507f6e6f7420656e6f75676820636f6c6c61746572616c20746f20626f72726f772060008301527f74686174206d75636800000000000000000000000000000000000000000000006020830152604082019050919050565b6000613641602683613f46565b91507f4f776e61626c653a206e6577206f776e657220697320746865207a65726f206160008301527f64647265737300000000000000000000000000000000000000000000000000006020830152604082019050919050565b60006136a7601883613f46565b91507f6c69714665655368617265206f7574206f662072616e676500000000000000006000830152602082019050919050565b60006136e7600e83613f46565b91507f63616e277420626f72726f7720300000000000000000000000000000000000006000830152602082019050919050565b6000613727603083613f46565b91507f7769746864726177206c657373206f6620636f6c6c61746572616c207261746960008301527f6f206265636f6d657320756e73616665000000000000000000000000000000006020830152604082019050919050565b600061378d601883613f46565b91507f7769746864726177207472616e73666572206661696c656400000000000000006000830152602082019050919050565b60006137cd602983613f46565b91507f626f72726f77207468726573686f6c64206d757374206265203e207363616c6960008301527f6e6720666163746f7200000000000000000000000000000000000000000000006020830152604082019050919050565b6000613833601883613f46565b91507f7a65726f2061646472657373206e6f7420616c6c6f77656400000000000000006000830152602082019050919050565b6000613873602783613f46565b91507f636f6c6c61746572616c20726174696f206973203c3d20626f72726f7720746860008301527f726573686f6c64000000000000000000000000000000000000000000000000006020830152604082019050919050565b60006138d9601583613f46565b91507f7265706179207472616e73666572206661696c656400000000000000000000006000830152602082019050919050565b6000613919602083613f46565b91507f4f776e61626c653a2063616c6c6572206973206e6f7420746865206f776e65726000830152602082019050919050565b6000613959601883613f46565b91507f6c6971546f74616c466565206f7574206f662072616e676500000000000000006000830152602082019050919050565b6000613999600d83613f46565b91507f63616e27742072657061792030000000000000000000000000000000000000006000830152602082019050919050565b60006139d9600e83613f46565b91507f6465706f736974206661696c65640000000000000000000000000000000000006000830152602082019050919050565b6000613a19601983613f46565b91507f696e74657265737452617465206f7574206f662072616e6765000000000000006000830152602082019050919050565b6000613a59602683613f46565b91507f6c6971207468726573686f6c64206d757374206265203e207363616c696e672060008301527f666163746f7200000000000000000000000000000000000000000000000000006020830152604082019050919050565b6000613abf602083613f46565b91507f6e6f7420656e6f75676820636f6c6c61746572616c20696e206163636f756e746000830152602082019050919050565b613afb816140d7565b82525050565b6000602082019050613b166000830184613503565b92915050565b6000606082019050613b316000830186613503565b613b3e6020830185613503565b613b4b6040830184613af2565b949350505050565b6000604082019050613b686000830185613503565b613b756020830184613af2565b9392505050565b6000602082019050613b916000830184613577565b92915050565b6000606082019050613bac6000830186613586565b613bb96020830185613586565b613bc66040830184613586565b949350505050565b60006040820190508181036000830152613be88185613595565b9050613bf76020830184613af2565b9392505050565b60006020820190508181036000830152613c17816135ce565b9050919050565b60006020820190508181036000830152613c3781613634565b9050919050565b60006020820190508181036000830152613c578161369a565b9050919050565b60006020820190508181036000830152613c77816136da565b9050919050565b60006020820190508181036000830152613c978161371a565b9050919050565b60006020820190508181036000830152613cb781613780565b9050919050565b60006020820190508181036000830152613cd7816137c0565b9050919050565b60006020820190508181036000830152613cf781613826565b9050919050565b60006020820190508181036000830152613d1781613866565b9050919050565b60006020820190508181036000830152613d37816138cc565b9050919050565b60006020820190508181036000830152613d578161390c565b9050919050565b60006020820190508181036000830152613d778161394c565b9050919050565b60006020820190508181036000830152613d978161398c565b9050919050565b60006020820190508181036000830152613db7816139cc565b9050919050565b60006020820190508181036000830152613dd781613a0c565b9050919050565b60006020820190508181036000830152613df781613a4c565b9050919050565b60006020820190508181036000830152613e1781613ab2565b9050919050565b6000602082019050613e336000830184613af2565b92915050565b6000604082019050613e4e6000830185613af2565b8181036020830152613e608184613512565b90509392505050565b6000606082019050613e7e6000830186613af2565b613e8b6020830185613af2565b613e986040830184613af2565b949350505050565b6000604051905081810181811067ffffffffffffffff82111715613ec757613ec661419e565b5b8060405250919050565b600067ffffffffffffffff821115613eec57613eeb61419e565b5b602082029050602081019050919050565b60008190508160005260206000209050919050565b600081549050919050565b600081519050919050565b6000600182019050919050565b600082825260208201905092915050565b600082825260208201905092915050565b6000613f62826140d7565b9150613f6d836140d7565b9250827fffffffffffffffffffffffffffffffffffffffffffffffffffffffffffffffff03821115613fa257613fa1614140565b5b828201905092915050565b6000613fb8826140d7565b9150613fc3836140d7565b925082613fd357613fd261416f565b5b828204905092915050565b6000613fe9826140d7565b9150613ff4836140d7565b9250817fffffffffffffffffffffffffffffffffffffffffffffffffffffffffffffffff048311821515161561402d5761402c614140565b5b828202905092915050565b6000614043826140d7565b915061404e836140d7565b92508282101561406157614060614140565b5b828203905092915050565b600073ffffffffffffffffffffffffffffffffffffffff82169050919050565b6000614097826140b7565b9050919050565b60008115159050919050565b600081600f0b9050919050565b600073ffffffffffffffffffffffffffffffffffffffff82169050919050565b6000819050919050565b60006140ec826140d7565b9050919050565b60005b838110156141115780820151818401526020810190506140f6565b83811115614120576000848401525b50505050565b6000614139614134836141f1565b61406c565b9050919050565b7f4e487b7100000000000000000000000000000000000000000000000000000000600052601160045260246000fd5b7f4e487b7100000000000000000000000000000000000000000000000000000000600052601260045260246000fd5b7f4e487b7100000000000000000000000000000000000000000000000000000000600052604160045260246000fd5b60006141d98254614126565b9050919050565b6000601f19601f8301169050919050565b60008160001c9050919050565b6142078161408c565b811461421257600080fd5b50565b61421e8161409e565b811461422957600080fd5b50565b614235816140d7565b811461424057600080fd5b5056fea2646970667358221220ddc5bbd72a8f976f2d1e8118f53c4ca2844dd3049d55d63fcd5983ec5a34b14e64736f6c63430008000033",
  "linkReferences": {},
  "deployedLinkReferences": {}
}