{
  "_format": "hh-sol-artifact-1",
  "contractName": "Controller",
  "sourceName": "contracts/Controller.sol",
  "abi": [
    {
      "inputs": [
        {
          "internalType": "address",
          "name": "_usdzAddress",
          "type": "address"
        },
        {
          "internalType": "address",
          "name": "_xSushiAddress",
          "type": "address"
        },
        {
          "internalType": "uint256",
          "name": "_liqTotalFee",
          "type": "uint256"
        },
        {
          "internalType": "uint256",
          "name": "_liqFeeShare",
          "type": "uint256"
        },
        {
          "internalType": "uint256",
          "name": "_interestRate",
          "type": "uint256"
        },
        {
          "internalType": "uint256",
          "name": "_borrowThreshold",
          "type": "uint256"
        },
        {
          "internalType": "uint256",
          "name": "_liqThreshold",
          "type": "uint256"
        }
      ],
      "stateMutability": "nonpayable",
      "type": "constructor"
    },
    {
      "anonymous": false,
      "inputs": [
        {
          "indexed": true,
          "internalType": "address",
          "name": "sender",
          "type": "address"
        },
        {
          "indexed": true,
          "internalType": "address",
          "name": "token",
          "type": "address"
        },
        {
          "indexed": false,
          "internalType": "uint256",
          "name": "amount",
          "type": "uint256"
        }
      ],
      "name": "Deposit",
      "type": "event"
    },
    {
      "anonymous": false,
      "inputs": [
        {
          "indexed": true,
          "internalType": "address",
          "name": "previousOwner",
          "type": "address"
        },
        {
          "indexed": true,
          "internalType": "address",
          "name": "newOwner",
          "type": "address"
        }
      ],
      "name": "OwnershipTransferred",
      "type": "event"
    },
    {
      "anonymous": false,
      "inputs": [
        {
          "indexed": true,
          "internalType": "address",
          "name": "sender",
          "type": "address"
        },
        {
          "indexed": true,
          "internalType": "address",
          "name": "token",
          "type": "address"
        },
        {
          "indexed": false,
          "internalType": "uint256",
          "name": "amount",
          "type": "uint256"
        }
      ],
      "name": "Withdraw",
      "type": "event"
    },
    {
      "inputs": [],
      "name": "SCALING_FACTOR",
      "outputs": [
        {
          "internalType": "uint256",
          "name": "",
          "type": "uint256"
        }
      ],
      "stateMutability": "view",
      "type": "function"
    },
    {
      "inputs": [
        {
          "internalType": "uint256",
          "name": "_amount",
          "type": "uint256"
        }
      ],
      "name": "borrow",
      "outputs": [],
      "stateMutability": "nonpayable",
      "type": "function"
    },
    {
      "inputs": [],
      "name": "borrowThreshold",
      "outputs": [
        {
          "internalType": "uint256",
          "name": "",
          "type": "uint256"
        }
      ],
      "stateMutability": "view",
      "type": "function"
    },
    {
      "inputs": [
        {
          "internalType": "uint256",
          "name": "_amount",
          "type": "uint256"
        }
      ],
      "name": "deposit",
      "outputs": [],
      "stateMutability": "nonpayable",
      "type": "function"
    },
    {
      "inputs": [],
      "name": "interestRate",
      "outputs": [
        {
          "internalType": "uint256",
          "name": "",
          "type": "uint256"
        }
      ],
      "stateMutability": "view",
      "type": "function"
    },
    {
      "inputs": [
        {
          "internalType": "address",
          "name": "_account",
          "type": "address"
        }
      ],
      "name": "liquidate",
      "outputs": [],
      "stateMutability": "nonpayable",
      "type": "function"
    },
    {
      "inputs": [],
      "name": "liquidationFee",
      "outputs": [
        {
          "internalType": "uint256",
          "name": "",
          "type": "uint256"
        }
      ],
      "stateMutability": "view",
      "type": "function"
    },
    {
      "inputs": [],
      "name": "liquidationThreshold",
      "outputs": [
        {
          "internalType": "uint256",
          "name": "",
          "type": "uint256"
        }
      ],
      "stateMutability": "view",
      "type": "function"
    },
    {
      "inputs": [],
      "name": "liquidatorFeeShare",
      "outputs": [
        {
          "internalType": "uint256",
          "name": "",
          "type": "uint256"
        }
      ],
      "stateMutability": "view",
      "type": "function"
    },
    {
      "inputs": [],
      "name": "owner",
      "outputs": [
        {
          "internalType": "address",
          "name": "",
          "type": "address"
        }
      ],
      "stateMutability": "view",
      "type": "function"
    },
    {
      "inputs": [],
      "name": "renounceOwnership",
      "outputs": [],
      "stateMutability": "nonpayable",
      "type": "function"
    },
    {
      "inputs": [
        {
          "internalType": "uint256",
          "name": "_liqTotalFee",
          "type": "uint256"
        },
        {
          "internalType": "uint256",
          "name": "_liqFeeShare",
          "type": "uint256"
        },
        {
          "internalType": "uint256",
          "name": "_interestRate",
          "type": "uint256"
        }
      ],
      "name": "setFeesAndRates",
      "outputs": [],
      "stateMutability": "nonpayable",
      "type": "function"
    },
    {
      "inputs": [
        {
          "internalType": "address",
          "name": "_newAddress",
          "type": "address"
        }
      ],
      "name": "setUSDZAddress",
      "outputs": [],
      "stateMutability": "nonpayable",
      "type": "function"
    },
    {
      "inputs": [
        {
          "internalType": "address",
          "name": "_newAddress",
          "type": "address"
        }
      ],
      "name": "setXSUSHIAddress",
      "outputs": [],
      "stateMutability": "nonpayable",
      "type": "function"
    },
    {
      "inputs": [
        {
          "internalType": "address",
          "name": "newOwner",
          "type": "address"
        }
      ],
      "name": "transferOwnership",
      "outputs": [],
      "stateMutability": "nonpayable",
      "type": "function"
    },
    {
      "inputs": [],
      "name": "usdzAddress",
      "outputs": [
        {
          "internalType": "address",
          "name": "",
          "type": "address"
        }
      ],
      "stateMutability": "view",
      "type": "function"
    },
    {
      "inputs": [
        {
          "internalType": "uint256",
          "name": "_amount",
          "type": "uint256"
        }
      ],
      "name": "withdraw",
      "outputs": [],
      "stateMutability": "nonpayable",
      "type": "function"
    },
    {
      "inputs": [],
      "name": "xSushiAddress",
      "outputs": [
        {
          "internalType": "address",
          "name": "",
          "type": "address"
        }
      ],
      "stateMutability": "view",
      "type": "function"
    }
  ],
  "bytecode": "0x60806040526127106009553480156200001757600080fd5b50604051620015913803806200159183398181016040528101906200003d9190620001d5565b60006200004f6200019f60201b60201c565b9050806000806101000a81548173ffffffffffffffffffffffffffffffffffffffff021916908373ffffffffffffffffffffffffffffffffffffffff1602179055508073ffffffffffffffffffffffffffffffffffffffff16600073ffffffffffffffffffffffffffffffffffffffff167f8be0079c531659141344cd1fd0a4f28419497f9722a3daafe3b4186f6b6457e060405160405180910390a35086600260006101000a81548173ffffffffffffffffffffffffffffffffffffffff021916908373ffffffffffffffffffffffffffffffffffffffff16021790555085600360006101000a81548173ffffffffffffffffffffffffffffffffffffffff021916908373ffffffffffffffffffffffffffffffffffffffff160217905550846004819055508360058190555082600681905550816007819055508060088190555050505050505050620002f4565b600033905090565b600081519050620001b881620002c0565b92915050565b600081519050620001cf81620002da565b92915050565b600080600080600080600060e0888a031215620001f157600080fd5b6000620002018a828b01620001a7565b9750506020620002148a828b01620001a7565b9650506040620002278a828b01620001be565b95505060606200023a8a828b01620001be565b94505060806200024d8a828b01620001be565b93505060a0620002608a828b01620001be565b92505060c0620002738a828b01620001be565b91505092959891949750929550565b60006200028f8262000296565b9050919050565b600073ffffffffffffffffffffffffffffffffffffffff82169050919050565b6000819050919050565b620002cb8162000282565b8114620002d757600080fd5b50565b620002e581620002b6565b8114620002f157600080fd5b50565b61128d80620003046000396000f3fe608060405234801561001057600080fd5b50600436106101165760003560e01c80638da5cb5b116100a2578063bdfccad311610071578063bdfccad314610283578063bfaf48d4146102a1578063c5ebeaec146102bd578063ef4cadc5146102d9578063f2fde38b146102f757610116565b80638da5cb5b1461020f5780638f6ba29a1461022d578063a36a363014610249578063b6b55f251461026757610116565b806354054808116100e9578063540548081461018f5780635ae547e3146101ad578063715018a6146101cb5780637c3a00fd146101d55780638456b755146101f357610116565b806320bdf8001461011b5780632e1a7d4d146101395780632f865568146101555780634031234c14610171575b600080fd5b610123610313565b6040516101309190610ede565b60405180910390f35b610153600480360381019061014e9190610d30565b610339565b005b61016f600480360381019061016a9190610cde565b6103c3565b005b6101796103c6565b6040516101869190611030565b60405180910390f35b6101976103cc565b6040516101a49190611030565b60405180910390f35b6101b56103d2565b6040516101c29190611030565b60405180910390f35b6101d36103d8565b005b6101dd610512565b6040516101ea9190611030565b60405180910390f35b61020d60048036038101906102089190610cde565b610518565b005b610217610648565b6040516102249190610ede565b60405180910390f35b61024760048036038101906102429190610cde565b610671565b005b6102516107a1565b60405161025e9190611030565b60405180910390f35b610281600480360381019061027c9190610d30565b6107a7565b005b61028b610927565b6040516102989190610ede565b60405180910390f35b6102bb60048036038101906102b69190610d59565b61094d565b005b6102d760048036038101906102d29190610d30565b610ae5565b005b6102e1610ae8565b6040516102ee9190611030565b60405180910390f35b610311600480360381019061030c9190610cde565b610aee565b005b600260009054906101000a900473ffffffffffffffffffffffffffffffffffffffff1681565b600360009054906101000a900473ffffffffffffffffffffffffffffffffffffffff1673ffffffffffffffffffffffffffffffffffffffff163373ffffffffffffffffffffffffffffffffffffffff167f9b1bfa7fa9ee420a16e124f794c35ac9f90472acc99140eb2f6447c714cad8eb836040516103b89190611030565b60405180910390a350565b50565b60085481565b60055481565b60075481565b6103e0610c97565b73ffffffffffffffffffffffffffffffffffffffff166103fe610648565b73ffffffffffffffffffffffffffffffffffffffff1614610454576040517f08c379a000000000000000000000000000000000000000000000000000000000815260040161044b90610fd0565b60405180910390fd5b600073ffffffffffffffffffffffffffffffffffffffff1660008054906101000a900473ffffffffffffffffffffffffffffffffffffffff1673ffffffffffffffffffffffffffffffffffffffff167f8be0079c531659141344cd1fd0a4f28419497f9722a3daafe3b4186f6b6457e060405160405180910390a360008060006101000a81548173ffffffffffffffffffffffffffffffffffffffff021916908373ffffffffffffffffffffffffffffffffffffffff160217905550565b60065481565b610520610c97565b73ffffffffffffffffffffffffffffffffffffffff1661053e610648565b73ffffffffffffffffffffffffffffffffffffffff1614610594576040517f08c379a000000000000000000000000000000000000000000000000000000000815260040161058b90610fd0565b60405180910390fd5b600073ffffffffffffffffffffffffffffffffffffffff168173ffffffffffffffffffffffffffffffffffffffff161415610604576040517f08c379a00000000000000000000000000000000000000000000000000000000081526004016105fb90610f90565b60405180910390fd5b80600360006101000a81548173ffffffffffffffffffffffffffffffffffffffff021916908373ffffffffffffffffffffffffffffffffffffffff16021790555050565b60008060009054906101000a900473ffffffffffffffffffffffffffffffffffffffff16905090565b610679610c97565b73ffffffffffffffffffffffffffffffffffffffff16610697610648565b73ffffffffffffffffffffffffffffffffffffffff16146106ed576040517f08c379a00000000000000000000000000000000000000000000000000000000081526004016106e490610fd0565b60405180910390fd5b600073ffffffffffffffffffffffffffffffffffffffff168173ffffffffffffffffffffffffffffffffffffffff16141561075d576040517f08c379a000000000000000000000000000000000000000000000000000000000815260040161075490610fb0565b60405180910390fd5b80600260006101000a81548173ffffffffffffffffffffffffffffffffffffffff021916908373ffffffffffffffffffffffffffffffffffffffff16021790555050565b60045481565b6000600260009054906101000a900473ffffffffffffffffffffffffffffffffffffffff1690508073ffffffffffffffffffffffffffffffffffffffff166323b872dd3330856040518463ffffffff1660e01b815260040161080b93929190610ef9565b602060405180830381600087803b15801561082557600080fd5b505af1158015610839573d6000803e3d6000fd5b505050506040513d601f19601f8201168201806040525081019061085d9190610d07565b61089c576040517f08c379a000000000000000000000000000000000000000000000000000000000815260040161089390610f70565b60405180910390fd5b600360009054906101000a900473ffffffffffffffffffffffffffffffffffffffff1673ffffffffffffffffffffffffffffffffffffffff163373ffffffffffffffffffffffffffffffffffffffff167f5548c837ab068cf56a2c2479df0882a4922fd203edb7517321831d95078c5f628460405161091b9190611030565b60405180910390a35050565b600360009054906101000a900473ffffffffffffffffffffffffffffffffffffffff1681565b610955610c97565b73ffffffffffffffffffffffffffffffffffffffff16610973610648565b73ffffffffffffffffffffffffffffffffffffffff16146109c9576040517f08c379a00000000000000000000000000000000000000000000000000000000081526004016109c090610fd0565b60405180910390fd5b60095483111580156109dc575060008310155b610a1b576040517f08c379a0000000000000000000000000000000000000000000000000000000008152600401610a1290610ff0565b60405180910390fd5b6009548211158015610a2e575060008210155b8015610a3a5750828211155b610a79576040517f08c379a0000000000000000000000000000000000000000000000000000000008152600401610a7090610f50565b60405180910390fd5b82600481905550816005819055506009548111158015610a9a575060008110155b610ad9576040517f08c379a0000000000000000000000000000000000000000000000000000000008152600401610ad090611010565b60405180910390fd5b80600681905550505050565b50565b60095481565b610af6610c97565b73ffffffffffffffffffffffffffffffffffffffff16610b14610648565b73ffffffffffffffffffffffffffffffffffffffff1614610b6a576040517f08c379a0000000000000000000000000000000000000000000000000000000008152600401610b6190610fd0565b60405180910390fd5b600073ffffffffffffffffffffffffffffffffffffffff168173ffffffffffffffffffffffffffffffffffffffff161415610bda576040517f08c379a0000000000000000000000000000000000000000000000000000000008152600401610bd190610f30565b60405180910390fd5b8073ffffffffffffffffffffffffffffffffffffffff1660008054906101000a900473ffffffffffffffffffffffffffffffffffffffff1673ffffffffffffffffffffffffffffffffffffffff167f8be0079c531659141344cd1fd0a4f28419497f9722a3daafe3b4186f6b6457e060405160405180910390a3806000806101000a81548173ffffffffffffffffffffffffffffffffffffffff021916908373ffffffffffffffffffffffffffffffffffffffff16021790555050565b600033905090565b600081359050610cae81611212565b92915050565b600081519050610cc381611229565b92915050565b600081359050610cd881611240565b92915050565b600060208284031215610cf057600080fd5b6000610cfe84828501610c9f565b91505092915050565b600060208284031215610d1957600080fd5b6000610d2784828501610cb4565b91505092915050565b600060208284031215610d4257600080fd5b6000610d5084828501610cc9565b91505092915050565b600080600060608486031215610d6e57600080fd5b6000610d7c86828701610cc9565b9350506020610d8d86828701610cc9565b9250506040610d9e86828701610cc9565b9150509250925092565b610db18161105c565b82525050565b6000610dc460268361104b565b9150610dcf826110a4565b604082019050919050565b6000610de760188361104b565b9150610df2826110f3565b602082019050919050565b6000610e0a60178361104b565b9150610e158261111c565b602082019050919050565b6000610e2d60208361104b565b9150610e3882611145565b602082019050919050565b6000610e50601e8361104b565b9150610e5b8261116e565b602082019050919050565b6000610e7360208361104b565b9150610e7e82611197565b602082019050919050565b6000610e9660188361104b565b9150610ea1826111c0565b602082019050919050565b6000610eb960198361104b565b9150610ec4826111e9565b602082019050919050565b610ed88161109a565b82525050565b6000602082019050610ef36000830184610da8565b92915050565b6000606082019050610f0e6000830186610da8565b610f1b6020830185610da8565b610f286040830184610ecf565b949350505050565b60006020820190508181036000830152610f4981610db7565b9050919050565b60006020820190508181036000830152610f6981610dda565b9050919050565b60006020820190508181036000830152610f8981610dfd565b9050919050565b60006020820190508181036000830152610fa981610e20565b9050919050565b60006020820190508181036000830152610fc981610e43565b9050919050565b60006020820190508181036000830152610fe981610e66565b9050919050565b6000602082019050818103600083015261100981610e89565b9050919050565b6000602082019050818103600083015261102981610eac565b9050919050565b60006020820190506110456000830184610ecf565b92915050565b600082825260208201905092915050565b60006110678261107a565b9050919050565b60008115159050919050565b600073ffffffffffffffffffffffffffffffffffffffff82169050919050565b6000819050919050565b7f4f776e61626c653a206e6577206f776e657220697320746865207a65726f206160008201527f6464726573730000000000000000000000000000000000000000000000000000602082015250565b7f6c69714665655368617265206f7574206f662072616e67650000000000000000600082015250565b7f6465706f736974207472616e73666572206661696c6564000000000000000000600082015250565b7f78535553484920636f6e7472616374206e6f74207a65726f2061646472657373600082015250565b7f7573647a20636f6e7472616374206e6f74207a65726f20616464726573730000600082015250565b7f4f776e61626c653a2063616c6c6572206973206e6f7420746865206f776e6572600082015250565b7f6c6971546f74616c466565206f7574206f662072616e67650000000000000000600082015250565b7f696e74657265737452617465206f7574206f662072616e676500000000000000600082015250565b61121b8161105c565b811461122657600080fd5b50565b6112328161106e565b811461123d57600080fd5b50565b6112498161109a565b811461125457600080fd5b5056fea2646970667358221220a3fcb5abdf3d32195a8b6c5ff0a467073137a90e83ad25e5b1f9f0b82be23e6264736f6c63430008040033",
  "linkReferences": {},
  "deployedLinkReferences": {}
}