{
  "_format": "hh-sol-artifact-1",
  "contractName": "Controller",
  "sourceName": "contracts/Controller.sol",
  "abi": [
    {
      "inputs": [
        {
          "internalType": "address",
          "name": "_usdzAddress",
          "type": "address"
        },
        {
          "internalType": "address",
          "name": "_usdcAddress",
          "type": "address"
        },
        {
          "internalType": "address",
          "name": "_xSushiAddress",
          "type": "address"
        },
        {
          "internalType": "address",
          "name": "_routerAddress",
          "type": "address"
        },
        {
          "internalType": "uint256",
          "name": "_liqTotalFee",
          "type": "uint256"
        },
        {
          "internalType": "uint256",
          "name": "_liqFeeShare",
          "type": "uint256"
        },
        {
          "internalType": "uint256",
          "name": "_interestRate",
          "type": "uint256"
        },
        {
          "internalType": "uint256",
          "name": "_borrowThreshold",
          "type": "uint256"
        },
        {
          "internalType": "uint256",
          "name": "_liqThreshold",
          "type": "uint256"
        }
      ],
      "stateMutability": "nonpayable",
      "type": "constructor"
    },
    {
      "anonymous": false,
      "inputs": [
        {
          "indexed": true,
          "internalType": "address",
          "name": "account",
          "type": "address"
        },
        {
          "indexed": false,
          "internalType": "uint256",
          "name": "amountBorrowed",
          "type": "uint256"
        },
        {
          "indexed": false,
          "internalType": "uint256",
          "name": "collateral",
          "type": "uint256"
        },
        {
          "indexed": false,
          "internalType": "uint256",
          "name": "totalDebt",
          "type": "uint256"
        }
      ],
      "name": "Borrow",
      "type": "event"
    },
    {
      "anonymous": false,
      "inputs": [
        {
          "indexed": true,
          "internalType": "address",
          "name": "account",
          "type": "address"
        },
        {
          "indexed": false,
          "internalType": "uint256",
          "name": "amount",
          "type": "uint256"
        }
      ],
      "name": "Deposit",
      "type": "event"
    },
    {
      "anonymous": false,
      "inputs": [
        {
          "indexed": true,
          "internalType": "address",
          "name": "account",
          "type": "address"
        },
        {
          "indexed": true,
          "internalType": "address",
          "name": "liquidator",
          "type": "address"
        },
        {
          "indexed": false,
          "internalType": "uint256",
          "name": "collateralLiquidated",
          "type": "uint256"
        },
        {
          "indexed": false,
          "internalType": "uint256",
          "name": "lastCollateralRatio",
          "type": "uint256"
        },
        {
          "indexed": false,
          "internalType": "uint256",
          "name": "lastDebtOutstanding",
          "type": "uint256"
        }
      ],
      "name": "Liquidation",
      "type": "event"
    },
    {
      "anonymous": false,
      "inputs": [
        {
          "indexed": true,
          "internalType": "address",
          "name": "previousOwner",
          "type": "address"
        },
        {
          "indexed": true,
          "internalType": "address",
          "name": "newOwner",
          "type": "address"
        }
      ],
      "name": "OwnershipTransferred",
      "type": "event"
    },
    {
      "anonymous": false,
      "inputs": [
        {
          "indexed": true,
          "internalType": "address",
          "name": "account",
          "type": "address"
        },
        {
          "indexed": false,
          "internalType": "uint256",
          "name": "debtRepaid",
          "type": "uint256"
        },
        {
          "indexed": false,
          "internalType": "uint256",
          "name": "debtRemaining",
          "type": "uint256"
        },
        {
          "indexed": false,
          "internalType": "uint256",
          "name": "collateral",
          "type": "uint256"
        }
      ],
      "name": "Repay",
      "type": "event"
    },
    {
      "anonymous": false,
      "inputs": [
        {
          "indexed": true,
          "internalType": "address",
          "name": "account",
          "type": "address"
        },
        {
          "indexed": false,
          "internalType": "uint256",
          "name": "amount",
          "type": "uint256"
        }
      ],
      "name": "Withdraw",
      "type": "event"
    },
    {
      "inputs": [],
      "name": "SCALING_FACTOR",
      "outputs": [
        {
          "internalType": "uint256",
          "name": "",
          "type": "uint256"
        }
      ],
      "stateMutability": "view",
      "type": "function"
    },
    {
      "inputs": [
        {
          "internalType": "uint256",
          "name": "_amount",
          "type": "uint256"
        }
      ],
      "name": "borrow",
      "outputs": [],
      "stateMutability": "nonpayable",
      "type": "function"
    },
    {
      "inputs": [],
      "name": "borrowThreshold",
      "outputs": [
        {
          "internalType": "uint256",
          "name": "",
          "type": "uint256"
        }
      ],
      "stateMutability": "view",
      "type": "function"
    },
    {
      "inputs": [
        {
          "internalType": "address",
          "name": "_account",
          "type": "address"
        }
      ],
      "name": "calcInterest",
      "outputs": [
        {
          "internalType": "uint256",
          "name": "interest",
          "type": "uint256"
        }
      ],
      "stateMutability": "view",
      "type": "function"
    },
    {
      "inputs": [
        {
          "internalType": "uint256",
          "name": "_amount",
          "type": "uint256"
        }
      ],
      "name": "deposit",
      "outputs": [],
      "stateMutability": "nonpayable",
      "type": "function"
    },
    {
      "inputs": [
        {
          "internalType": "address",
          "name": "_account",
          "type": "address"
        }
      ],
      "name": "getCollateralRatio",
      "outputs": [
        {
          "internalType": "uint256",
          "name": "",
          "type": "uint256"
        }
      ],
      "stateMutability": "view",
      "type": "function"
    },
    {
      "inputs": [],
      "name": "interestRate",
      "outputs": [
        {
          "internalType": "uint256",
          "name": "",
          "type": "uint256"
        }
      ],
      "stateMutability": "view",
      "type": "function"
    },
    {
      "inputs": [
        {
          "internalType": "address",
          "name": "_account",
          "type": "address"
        }
      ],
      "name": "liquidate",
      "outputs": [],
      "stateMutability": "nonpayable",
      "type": "function"
    },
    {
      "inputs": [],
      "name": "liquidationFee",
      "outputs": [
        {
          "internalType": "uint256",
          "name": "",
          "type": "uint256"
        }
      ],
      "stateMutability": "view",
      "type": "function"
    },
    {
      "inputs": [],
      "name": "liquidationThreshold",
      "outputs": [
        {
          "internalType": "uint256",
          "name": "",
          "type": "uint256"
        }
      ],
      "stateMutability": "view",
      "type": "function"
    },
    {
      "inputs": [],
      "name": "liquidatorFeeShare",
      "outputs": [
        {
          "internalType": "uint256",
          "name": "",
          "type": "uint256"
        }
      ],
      "stateMutability": "view",
      "type": "function"
    },
    {
      "inputs": [],
      "name": "owner",
      "outputs": [
        {
          "internalType": "address",
          "name": "",
          "type": "address"
        }
      ],
      "stateMutability": "view",
      "type": "function"
    },
    {
      "inputs": [],
      "name": "protocolShortfall",
      "outputs": [
        {
          "internalType": "uint256",
          "name": "",
          "type": "uint256"
        }
      ],
      "stateMutability": "view",
      "type": "function"
    },
    {
      "inputs": [],
      "name": "renounceOwnership",
      "outputs": [],
      "stateMutability": "nonpayable",
      "type": "function"
    },
    {
      "inputs": [
        {
          "internalType": "uint256",
          "name": "_amount",
          "type": "uint256"
        }
      ],
      "name": "repay",
      "outputs": [],
      "stateMutability": "nonpayable",
      "type": "function"
    },
    {
      "inputs": [
        {
          "internalType": "uint256",
          "name": "_liqTotalFee",
          "type": "uint256"
        },
        {
          "internalType": "uint256",
          "name": "_liqFeeShare",
          "type": "uint256"
        },
        {
          "internalType": "uint256",
          "name": "_interestRate",
          "type": "uint256"
        }
      ],
      "name": "setFeesAndRates",
      "outputs": [],
      "stateMutability": "nonpayable",
      "type": "function"
    },
    {
      "inputs": [
        {
          "internalType": "uint256",
          "name": "_borrowThreshold",
          "type": "uint256"
        },
        {
          "internalType": "uint256",
          "name": "_liqThreshold",
          "type": "uint256"
        }
      ],
      "name": "setThresholds",
      "outputs": [],
      "stateMutability": "nonpayable",
      "type": "function"
    },
    {
      "inputs": [
        {
          "internalType": "address",
          "name": "_newAddress",
          "type": "address"
        }
      ],
      "name": "setUSDZAddress",
      "outputs": [],
      "stateMutability": "nonpayable",
      "type": "function"
    },
    {
      "inputs": [
        {
          "internalType": "address",
          "name": "_newAddress",
          "type": "address"
        }
      ],
      "name": "setXSUSHIAddress",
      "outputs": [],
      "stateMutability": "nonpayable",
      "type": "function"
    },
    {
      "inputs": [],
      "name": "sushiRouterAddress",
      "outputs": [
        {
          "internalType": "address",
          "name": "",
          "type": "address"
        }
      ],
      "stateMutability": "view",
      "type": "function"
    },
    {
      "inputs": [
        {
          "internalType": "address",
          "name": "newOwner",
          "type": "address"
        }
      ],
      "name": "transferOwnership",
      "outputs": [],
      "stateMutability": "nonpayable",
      "type": "function"
    },
    {
      "inputs": [],
      "name": "usdcAddress",
      "outputs": [
        {
          "internalType": "address",
          "name": "",
          "type": "address"
        }
      ],
      "stateMutability": "view",
      "type": "function"
    },
    {
      "inputs": [],
      "name": "usdzAddress",
      "outputs": [
        {
          "internalType": "address",
          "name": "",
          "type": "address"
        }
      ],
      "stateMutability": "view",
      "type": "function"
    },
    {
      "inputs": [
        {
          "internalType": "uint256",
          "name": "_amount",
          "type": "uint256"
        }
      ],
      "name": "withdraw",
      "outputs": [],
      "stateMutability": "nonpayable",
      "type": "function"
    },
    {
      "inputs": [],
      "name": "xSushiAddress",
      "outputs": [
        {
          "internalType": "address",
          "name": "",
          "type": "address"
        }
      ],
      "stateMutability": "view",
      "type": "function"
    },
    {
      "inputs": [
        {
          "internalType": "uint256",
          "name": "",
          "type": "uint256"
        }
      ],
      "name": "xSushiToUsdcPath",
      "outputs": [
        {
          "internalType": "address",
          "name": "",
          "type": "address"
        }
      ],
      "stateMutability": "view",
      "type": "function"
    }
  ],
  "bytecode": "0x60a06040526127106080908152503480156200001a57600080fd5b5060405162002bbe38038062002bbe83398181016040528101906200004091906200049e565b600062000052620003ba60201b60201c565b9050806000806101000a81548173ffffffffffffffffffffffffffffffffffffffff021916908373ffffffffffffffffffffffffffffffffffffffff1602179055508073ffffffffffffffffffffffffffffffffffffffff16600073ffffffffffffffffffffffffffffffffffffffff167f8be0079c531659141344cd1fd0a4f28419497f9722a3daafe3b4186f6b6457e060405160405180910390a35088600360006101000a81548173ffffffffffffffffffffffffffffffffffffffff021916908373ffffffffffffffffffffffffffffffffffffffff16021790555087600460006101000a81548173ffffffffffffffffffffffffffffffffffffffff021916908373ffffffffffffffffffffffffffffffffffffffff16021790555086600560006101000a81548173ffffffffffffffffffffffffffffffffffffffff021916908373ffffffffffffffffffffffffffffffffffffffff16021790555085600660006101000a81548173ffffffffffffffffffffffffffffffffffffffff021916908373ffffffffffffffffffffffffffffffffffffffff160217905550846008819055508360098190555082600a8190555081600b8190555080600c81905550600267ffffffffffffffff81111562000259577f4e487b7100000000000000000000000000000000000000000000000000000000600052604160045260246000fd5b604051908082528060200260200182016040528015620002885781602001602082028036833780820191505090505b5060079080519060200190620002a0929190620003c2565b50866007600081548110620002de577f4e487b7100000000000000000000000000000000000000000000000000000000600052603260045260246000fd5b9060005260206000200160006101000a81548173ffffffffffffffffffffffffffffffffffffffff021916908373ffffffffffffffffffffffffffffffffffffffff16021790555087600760018154811062000363577f4e487b7100000000000000000000000000000000000000000000000000000000600052603260045260246000fd5b9060005260206000200160006101000a81548173ffffffffffffffffffffffffffffffffffffffff021916908373ffffffffffffffffffffffffffffffffffffffff160217905550505050505050505050620005e9565b600033905090565b8280548282559060005260206000209081019282156200043e579160200282015b828111156200043d5782518260006101000a81548173ffffffffffffffffffffffffffffffffffffffff021916908373ffffffffffffffffffffffffffffffffffffffff16021790555091602001919060010190620003e3565b5b5090506200044d919062000451565b5090565b5b808211156200046c57600081600090555060010162000452565b5090565b6000815190506200048181620005b5565b92915050565b6000815190506200049881620005cf565b92915050565b60008060008060008060008060006101208a8c031215620004be57600080fd5b6000620004ce8c828d0162000470565b9950506020620004e18c828d0162000470565b9850506040620004f48c828d0162000470565b9750506060620005078c828d0162000470565b96505060806200051a8c828d0162000487565b95505060a06200052d8c828d0162000487565b94505060c0620005408c828d0162000487565b93505060e0620005538c828d0162000487565b925050610100620005678c828d0162000487565b9150509295985092959850929598565b600062000584826200058b565b9050919050565b600073ffffffffffffffffffffffffffffffffffffffff82169050919050565b6000819050919050565b620005c08162000577565b8114620005cc57600080fd5b50565b620005da81620005ab565b8114620005e657600080fd5b50565b60805161258862000636600039600081816106ec01528181610853015281816112c201528181611332015281816113bc0152818161150a0152818161156d01526115e201526125886000f3fe608060405234801561001057600080fd5b506004361061018e5760003560e01c80637c3a00fd116100de578063b6b55f2511610097578063c5ebeaec11610071578063c5ebeaec1461043b578063e3064a7714610457578063ef4cadc514610473578063f2fde38b146104915761018e565b8063b6b55f25146103e5578063bdfccad314610401578063bfaf48d41461041f5761018e565b80637c3a00fd146103355780638456b755146103535780638da5cb5b1461036f5780638f6ba29a1461038d578063a36a3630146103a9578063af1f556f146103c75761018e565b80634031234c1161014b5780635ae547e3116101255780635ae547e3146102bf57806369cb89c7146102dd578063715018a61461030d57806379bbce8f146103175761018e565b80634031234c146102535780634a63a5ce1461027157806354054808146102a15761018e565b806302d454571461019357806315a3ba43146101b157806320bdf800146101e15780632e1a7d4d146101ff5780632f8655681461021b578063371fd8e614610237575b600080fd5b61019b6104ad565b6040516101a89190611ef7565b60405180910390f35b6101cb60048036038101906101c6919061189f565b6104d3565b6040516101d89190612189565b60405180910390f35b6101e961072c565b6040516101f69190611ef7565b60405180910390f35b61021960048036038101906102149190611932565b610752565b005b6102356004803603810190610230919061189f565b610a77565b005b610251600480360381019061024c9190611932565b610ae5565b005b61025b610b3b565b6040516102689190612189565b60405180910390f35b61028b60048036038101906102869190611932565b610b41565b6040516102989190611ef7565b60405180910390f35b6102a9610b80565b6040516102b69190612189565b60405180910390f35b6102c7610b86565b6040516102d49190612189565b60405180910390f35b6102f760048036038101906102f2919061189f565b610b8c565b6040516103049190612189565b60405180910390f35b610315610c42565b005b61031f610d7c565b60405161032c9190611ef7565b60405180910390f35b61033d610da2565b60405161034a9190612189565b60405180910390f35b61036d6004803603810190610368919061189f565b610da8565b005b610377610ed8565b6040516103849190611ef7565b60405180910390f35b6103a760048036038101906103a2919061189f565b610f01565b005b6103b1611031565b6040516103be9190612189565b60405180910390f35b6103cf611037565b6040516103dc9190612189565b60405180910390f35b6103ff60048036038101906103fa9190611932565b61103d565b005b61040961121e565b6040516104169190611ef7565b60405180910390f35b61043960048036038101906104349190611997565b611244565b005b61045560048036038101906104509190611932565b611436565b005b610471600480360381019061046c919061195b565b61148c565b005b61047b6115e0565b6040516104889190612189565b60405180910390f35b6104ab60048036038101906104a6919061189f565b611604565b005b600460009054906101000a900473ffffffffffffffffffffffffffffffffffffffff1681565b600080600160008473ffffffffffffffffffffffffffffffffffffffff1673ffffffffffffffffffffffffffffffffffffffff1681526020019081526020016000206000015490506000600160008573ffffffffffffffffffffffffffffffffffffffff1673ffffffffffffffffffffffffffffffffffffffff168152602001908152602001600020600101549050600082141561057657600092505050610727565b60008114156105a9577fffffffffffffffffffffffffffffffffffffffffffffffffffffffffffffffff92505050610727565b600082116105ec576040517f08c379a00000000000000000000000000000000000000000000000000000000081526004016105e3906120e9565b60405180910390fd5b6000600660009054906101000a900473ffffffffffffffffffffffffffffffffffffffff16905060008173ffffffffffffffffffffffffffffffffffffffff1663d06ca61f8560076040518363ffffffff1660e01b81526004016106519291906121a4565b60006040518083038186803b15801561066957600080fd5b505afa15801561067d573d6000803e3d6000fd5b505050506040513d6000823e3d601f19601f820116820180604052508101906106a691906118c8565b6001815181106106df577f4e487b7100000000000000000000000000000000000000000000000000000000600052603260045260246000fd5b60200260200101519050827f000000000000000000000000000000000000000000000000000000000000000082610716919061233e565b610720919061230d565b9450505050505b919050565b600360009054906101000a900473ffffffffffffffffffffffffffffffffffffffff1681565b6000600160003373ffffffffffffffffffffffffffffffffffffffff1673ffffffffffffffffffffffffffffffffffffffff168152602001908152602001600020600001549050818110156107dc576040517f08c379a00000000000000000000000000000000000000000000000000000000081526004016107d390612169565b60405180910390fd5b60006107e7336104d3565b9050600b54811161082d576040517f08c379a000000000000000000000000000000000000000000000000000000000815260040161082490612069565b60405180910390fd5b6000827fffffffffffffffffffffffffffffffffffffffffffffffffffffffffffffffff7f0000000000000000000000000000000000000000000000000000000000000000600b5461087f919061230d565b8461088a9190612398565b610894919061230d565b61089e919061233e565b9050838110156108e3576040517f08c379a00000000000000000000000000000000000000000000000000000000081526004016108da90611fe9565b60405180910390fd5b83836108ef9190612398565b600160003373ffffffffffffffffffffffffffffffffffffffff1673ffffffffffffffffffffffffffffffffffffffff16815260200190815260200160002060000181905550600560009054906101000a900473ffffffffffffffffffffffffffffffffffffffff1673ffffffffffffffffffffffffffffffffffffffff1663a9059cbb33866040518363ffffffff1660e01b8152600401610992929190611f49565b602060405180830381600087803b1580156109ac57600080fd5b505af11580156109c0573d6000803e3d6000fd5b505050506040513d601f19601f820116820180604052508101906109e49190611909565b610a23576040517f08c379a0000000000000000000000000000000000000000000000000000000008152600401610a1a90612009565b60405180910390fd5b3373ffffffffffffffffffffffffffffffffffffffff167f884edad9ce6fa2440d8a54cc123490eb96d2768479d49ff9c7366125a942436485604051610a699190612189565b60405180910390a250505050565b3373ffffffffffffffffffffffffffffffffffffffff168173ffffffffffffffffffffffffffffffffffffffff167f5a821a618ddb1a1fd304234a69c9d7f20c129d122fcf35593d13a071926643076000806000604051610ada93929190611f72565b60405180910390a350565b3373ffffffffffffffffffffffffffffffffffffffff167f2fe77b1c99aca6b022b8efc6e3e8dd1b48b30748709339b65c50ef3263443e0982600080604051610b30939291906121d4565b60405180910390a250565b600c5481565b60078181548110610b5157600080fd5b906000526020600020016000915054906101000a900473ffffffffffffffffffffffffffffffffffffffff1681565b60095481565b600b5481565b600080600160008473ffffffffffffffffffffffffffffffffffffffff1673ffffffffffffffffffffffffffffffffffffffff1681526020019081526020016000206001015490506000600160008573ffffffffffffffffffffffffffffffffffffffff1673ffffffffffffffffffffffffffffffffffffffff1681526020019081526020016000206002015490506000821480610c2a5750600081145b15610c3a57600092505050610c3d565b50505b919050565b610c4a6117ad565b73ffffffffffffffffffffffffffffffffffffffff16610c68610ed8565b73ffffffffffffffffffffffffffffffffffffffff1614610cbe576040517f08c379a0000000000000000000000000000000000000000000000000000000008152600401610cb5906120a9565b60405180910390fd5b600073ffffffffffffffffffffffffffffffffffffffff1660008054906101000a900473ffffffffffffffffffffffffffffffffffffffff1673ffffffffffffffffffffffffffffffffffffffff167f8be0079c531659141344cd1fd0a4f28419497f9722a3daafe3b4186f6b6457e060405160405180910390a360008060006101000a81548173ffffffffffffffffffffffffffffffffffffffff021916908373ffffffffffffffffffffffffffffffffffffffff160217905550565b600660009054906101000a900473ffffffffffffffffffffffffffffffffffffffff1681565b600a5481565b610db06117ad565b73ffffffffffffffffffffffffffffffffffffffff16610dce610ed8565b73ffffffffffffffffffffffffffffffffffffffff1614610e24576040517f08c379a0000000000000000000000000000000000000000000000000000000008152600401610e1b906120a9565b60405180910390fd5b600073ffffffffffffffffffffffffffffffffffffffff168173ffffffffffffffffffffffffffffffffffffffff161415610e94576040517f08c379a0000000000000000000000000000000000000000000000000000000008152600401610e8b90612029565b60405180910390fd5b80600560006101000a81548173ffffffffffffffffffffffffffffffffffffffff021916908373ffffffffffffffffffffffffffffffffffffffff16021790555050565b60008060009054906101000a900473ffffffffffffffffffffffffffffffffffffffff16905090565b610f096117ad565b73ffffffffffffffffffffffffffffffffffffffff16610f27610ed8565b73ffffffffffffffffffffffffffffffffffffffff1614610f7d576040517f08c379a0000000000000000000000000000000000000000000000000000000008152600401610f74906120a9565b60405180910390fd5b600073ffffffffffffffffffffffffffffffffffffffff168173ffffffffffffffffffffffffffffffffffffffff161415610fed576040517f08c379a0000000000000000000000000000000000000000000000000000000008152600401610fe490612089565b60405180910390fd5b80600360006101000a81548173ffffffffffffffffffffffffffffffffffffffff021916908373ffffffffffffffffffffffffffffffffffffffff16021790555050565b60085481565b60025481565b6000600560009054906101000a900473ffffffffffffffffffffffffffffffffffffffff1690508073ffffffffffffffffffffffffffffffffffffffff166323b872dd3330856040518463ffffffff1660e01b81526004016110a193929190611f12565b602060405180830381600087803b1580156110bb57600080fd5b505af11580156110cf573d6000803e3d6000fd5b505050506040513d601f19601f820116820180604052508101906110f39190611909565b611132576040517f08c379a000000000000000000000000000000000000000000000000000000000815260040161112990612109565b60405180910390fd5b6000600160003373ffffffffffffffffffffffffffffffffffffffff1673ffffffffffffffffffffffffffffffffffffffff168152602001908152602001600020600001549050828161118591906122b7565b600160003373ffffffffffffffffffffffffffffffffffffffff1673ffffffffffffffffffffffffffffffffffffffff168152602001908152602001600020600001819055503373ffffffffffffffffffffffffffffffffffffffff167fe1fffcc4923d04b559f4d29a8bfc6cda04eb5b0d3c460751c2402c5c5cc9109c846040516112119190612189565b60405180910390a2505050565b600560009054906101000a900473ffffffffffffffffffffffffffffffffffffffff1681565b61124c6117ad565b73ffffffffffffffffffffffffffffffffffffffff1661126a610ed8565b73ffffffffffffffffffffffffffffffffffffffff16146112c0576040517f08c379a00000000000000000000000000000000000000000000000000000000081526004016112b7906120a9565b60405180910390fd5b7f000000000000000000000000000000000000000000000000000000000000000083111580156112f1575060008310155b611330576040517f08c379a0000000000000000000000000000000000000000000000000000000008152600401611327906120c9565b60405180910390fd5b7f00000000000000000000000000000000000000000000000000000000000000008211158015611361575060008210155b801561136d5750828211155b6113ac576040517f08c379a00000000000000000000000000000000000000000000000000000000081526004016113a390611fc9565b60405180910390fd5b82600881905550816009819055507f000000000000000000000000000000000000000000000000000000000000000081111580156113eb575060008110155b61142a576040517f08c379a000000000000000000000000000000000000000000000000000000000815260040161142190612129565b60405180910390fd5b80600a81905550505050565b3373ffffffffffffffffffffffffffffffffffffffff167f13ed6866d4e1ee6da46f845c46d7e54120883d75c5ea9a2dacc1c4ca8984ab8082600080604051611481939291906121d4565b60405180910390a250565b6114946117ad565b73ffffffffffffffffffffffffffffffffffffffff166114b2610ed8565b73ffffffffffffffffffffffffffffffffffffffff1614611508576040517f08c379a00000000000000000000000000000000000000000000000000000000081526004016114ff906120a9565b60405180910390fd5b7f000000000000000000000000000000000000000000000000000000000000000082101561156b576040517f08c379a000000000000000000000000000000000000000000000000000000000815260040161156290612049565b60405180910390fd5b7f00000000000000000000000000000000000000000000000000000000000000008110156115ce576040517f08c379a00000000000000000000000000000000000000000000000000000000081526004016115c590612149565b60405180910390fd5b81600b8190555080600c819055505050565b7f000000000000000000000000000000000000000000000000000000000000000081565b61160c6117ad565b73ffffffffffffffffffffffffffffffffffffffff1661162a610ed8565b73ffffffffffffffffffffffffffffffffffffffff1614611680576040517f08c379a0000000000000000000000000000000000000000000000000000000008152600401611677906120a9565b60405180910390fd5b600073ffffffffffffffffffffffffffffffffffffffff168173ffffffffffffffffffffffffffffffffffffffff1614156116f0576040517f08c379a00000000000000000000000000000000000000000000000000000000081526004016116e790611fa9565b60405180910390fd5b8073ffffffffffffffffffffffffffffffffffffffff1660008054906101000a900473ffffffffffffffffffffffffffffffffffffffff1673ffffffffffffffffffffffffffffffffffffffff167f8be0079c531659141344cd1fd0a4f28419497f9722a3daafe3b4186f6b6457e060405160405180910390a3806000806101000a81548173ffffffffffffffffffffffffffffffffffffffff021916908373ffffffffffffffffffffffffffffffffffffffff16021790555050565b600033905090565b60006117c86117c38461223c565b61220b565b905080838252602082019050828560208602820111156117e757600080fd5b60005b8581101561181757816117fd888261188a565b8452602084019350602083019250506001810190506117ea565b5050509392505050565b6000813590506118308161250d565b92915050565b600082601f83011261184757600080fd5b81516118578482602086016117b5565b91505092915050565b60008151905061186f81612524565b92915050565b6000813590506118848161253b565b92915050565b6000815190506118998161253b565b92915050565b6000602082840312156118b157600080fd5b60006118bf84828501611821565b91505092915050565b6000602082840312156118da57600080fd5b600082015167ffffffffffffffff8111156118f457600080fd5b61190084828501611836565b91505092915050565b60006020828403121561191b57600080fd5b600061192984828501611860565b91505092915050565b60006020828403121561194457600080fd5b600061195284828501611875565b91505092915050565b6000806040838503121561196e57600080fd5b600061197c85828601611875565b925050602061198d85828601611875565b9150509250929050565b6000806000606084860312156119ac57600080fd5b60006119ba86828701611875565b93505060206119cb86828701611875565b92505060406119dc86828701611875565b9150509250925092565b60006119f283836119fe565b60208301905092915050565b611a07816123ec565b82525050565b611a16816123ec565b82525050565b6000611a278261227d565b611a318185612295565b9350611a3c83612268565b8060005b83811015611a7457611a51826124ed565b611a5b88826119e6565b9750611a6683612288565b925050600181019050611a40565b5085935050505092915050565b611a8a81612434565b82525050565b6000611a9d6026836122a6565b91507f4f776e61626c653a206e6577206f776e657220697320746865207a65726f206160008301527f64647265737300000000000000000000000000000000000000000000000000006020830152604082019050919050565b6000611b036018836122a6565b91507f6c69714665655368617265206f7574206f662072616e676500000000000000006000830152602082019050919050565b6000611b436030836122a6565b91507f7769746864726177206c657373206f6620636f6c6c61746572616c207261746960008301527f6f206265636f6d657320756e73616665000000000000000000000000000000006020830152604082019050919050565b6000611ba96018836122a6565b91507f7769746864726177207472616e73666572206661696c656400000000000000006000830152602082019050919050565b6000611be96020836122a6565b91507f78535553484920636f6e7472616374206e6f74207a65726f20616464726573736000830152602082019050919050565b6000611c296029836122a6565b91507f626f72726f77207468726573686f6c64206d757374206265203e207363616c6960008301527f6e6720666163746f7200000000000000000000000000000000000000000000006020830152604082019050919050565b6000611c8f6027836122a6565b91507f636f6c6c61746572616c20726174696f206973203c3d20626f72726f7720746860008301527f726573686f6c64000000000000000000000000000000000000000000000000006020830152604082019050919050565b6000611cf5601e836122a6565b91507f7573647a20636f6e7472616374206e6f74207a65726f206164647265737300006000830152602082019050919050565b6000611d356020836122a6565b91507f4f776e61626c653a2063616c6c6572206973206e6f7420746865206f776e65726000830152602082019050919050565b6000611d756018836122a6565b91507f6c6971546f74616c466565206f7574206f662072616e676500000000000000006000830152602082019050919050565b6000611db56000836122a6565b9150600082019050919050565b6000611dcf600e836122a6565b91507f6465706f736974206661696c65640000000000000000000000000000000000006000830152602082019050919050565b6000611e0f6019836122a6565b91507f696e74657265737452617465206f7574206f662072616e6765000000000000006000830152602082019050919050565b6000611e4f6026836122a6565b91507f6c6971207468726573686f6c64206d757374206265203e207363616c696e672060008301527f666163746f7200000000000000000000000000000000000000000000000000006020830152604082019050919050565b6000611eb56020836122a6565b91507f6e6f7420656e6f75676820636f6c6c61746572616c20696e206163636f756e746000830152602082019050919050565b611ef18161242a565b82525050565b6000602082019050611f0c6000830184611a0d565b92915050565b6000606082019050611f276000830186611a0d565b611f346020830185611a0d565b611f416040830184611ee8565b949350505050565b6000604082019050611f5e6000830185611a0d565b611f6b6020830184611ee8565b9392505050565b6000606082019050611f876000830186611a81565b611f946020830185611a81565b611fa16040830184611a81565b949350505050565b60006020820190508181036000830152611fc281611a90565b9050919050565b60006020820190508181036000830152611fe281611af6565b9050919050565b6000602082019050818103600083015261200281611b36565b9050919050565b6000602082019050818103600083015261202281611b9c565b9050919050565b6000602082019050818103600083015261204281611bdc565b9050919050565b6000602082019050818103600083015261206281611c1c565b9050919050565b6000602082019050818103600083015261208281611c82565b9050919050565b600060208201905081810360008301526120a281611ce8565b9050919050565b600060208201905081810360008301526120c281611d28565b9050919050565b600060208201905081810360008301526120e281611d68565b9050919050565b6000602082019050818103600083015261210281611da8565b9050919050565b6000602082019050818103600083015261212281611dc2565b9050919050565b6000602082019050818103600083015261214281611e02565b9050919050565b6000602082019050818103600083015261216281611e42565b9050919050565b6000602082019050818103600083015261218281611ea8565b9050919050565b600060208201905061219e6000830184611ee8565b92915050565b60006040820190506121b96000830185611ee8565b81810360208301526121cb8184611a1c565b90509392505050565b60006060820190506121e96000830186611ee8565b6121f66020830185611a81565b6122036040830184611a81565b949350505050565b6000604051905081810181811067ffffffffffffffff82111715612232576122316124be565b5b8060405250919050565b600067ffffffffffffffff821115612257576122566124be565b5b602082029050602081019050919050565b60008190508160005260206000209050919050565b600081549050919050565b6000600182019050919050565b600082825260208201905092915050565b600082825260208201905092915050565b60006122c28261242a565b91506122cd8361242a565b9250827fffffffffffffffffffffffffffffffffffffffffffffffffffffffffffffffff0382111561230257612301612460565b5b828201905092915050565b60006123188261242a565b91506123238361242a565b9250826123335761233261248f565b5b828204905092915050565b60006123498261242a565b91506123548361242a565b9250817fffffffffffffffffffffffffffffffffffffffffffffffffffffffffffffffff048311821515161561238d5761238c612460565b5b828202905092915050565b60006123a38261242a565b91506123ae8361242a565b9250828210156123c1576123c0612460565b5b828203905092915050565b600073ffffffffffffffffffffffffffffffffffffffff82169050919050565b60006123f78261240a565b9050919050565b60008115159050919050565b600073ffffffffffffffffffffffffffffffffffffffff82169050919050565b6000819050919050565b600061243f8261242a565b9050919050565b600061245961245483612500565b6123cc565b9050919050565b7f4e487b7100000000000000000000000000000000000000000000000000000000600052601160045260246000fd5b7f4e487b7100000000000000000000000000000000000000000000000000000000600052601260045260246000fd5b7f4e487b7100000000000000000000000000000000000000000000000000000000600052604160045260246000fd5b60006124f98254612446565b9050919050565b60008160001c9050919050565b612516816123ec565b811461252157600080fd5b50565b61252d816123fe565b811461253857600080fd5b50565b6125448161242a565b811461254f57600080fd5b5056fea2646970667358221220d0dc3955e5211b8e3fc793cd8754826fee2fa4b4dd20c65ba079d7906198144964736f6c63430008000033",
  "linkReferences": {},
  "deployedLinkReferences": {}
}