{
  "_format": "hh-sol-artifact-1",
  "contractName": "Controller",
  "sourceName": "contracts/Controller.sol",
  "abi": [
    {
      "inputs": [
        {
          "internalType": "address",
          "name": "_usdzAddress",
          "type": "address"
        },
        {
          "internalType": "address",
          "name": "_usdcAddress",
          "type": "address"
        },
        {
          "internalType": "address",
          "name": "_xSushiAddress",
          "type": "address"
        },
        {
          "internalType": "address",
          "name": "_routerAddress",
          "type": "address"
        },
        {
          "internalType": "address[]",
          "name": "_swapPath",
          "type": "address[]"
        },
        {
          "internalType": "uint256",
          "name": "_liqFeeProtocol",
          "type": "uint256"
        },
        {
          "internalType": "uint256",
          "name": "_liqFeeSender",
          "type": "uint256"
        },
        {
          "internalType": "uint256",
          "name": "_interestRate",
          "type": "uint256"
        },
        {
          "internalType": "uint256",
          "name": "_borrowThreshold",
          "type": "uint256"
        },
        {
          "internalType": "uint256",
          "name": "_liqThreshold",
          "type": "uint256"
        }
      ],
      "stateMutability": "nonpayable",
      "type": "constructor"
    },
    {
      "anonymous": false,
      "inputs": [
        {
          "indexed": true,
          "internalType": "address",
          "name": "account",
          "type": "address"
        },
        {
          "indexed": false,
          "internalType": "uint256",
          "name": "amountBorrowed",
          "type": "uint256"
        },
        {
          "indexed": false,
          "internalType": "uint256",
          "name": "totalDebt",
          "type": "uint256"
        },
        {
          "indexed": false,
          "internalType": "uint256",
          "name": "collateralAmount",
          "type": "uint256"
        }
      ],
      "name": "Borrow",
      "type": "event"
    },
    {
      "anonymous": false,
      "inputs": [
        {
          "indexed": true,
          "internalType": "address",
          "name": "account",
          "type": "address"
        },
        {
          "indexed": false,
          "internalType": "uint256",
          "name": "amount",
          "type": "uint256"
        }
      ],
      "name": "Deposit",
      "type": "event"
    },
    {
      "anonymous": false,
      "inputs": [
        {
          "indexed": true,
          "internalType": "address",
          "name": "account",
          "type": "address"
        },
        {
          "indexed": true,
          "internalType": "address",
          "name": "liquidator",
          "type": "address"
        },
        {
          "indexed": false,
          "internalType": "uint256",
          "name": "collateralLiquidated",
          "type": "uint256"
        },
        {
          "indexed": false,
          "internalType": "uint256",
          "name": "lastCollateralRatio",
          "type": "uint256"
        },
        {
          "indexed": false,
          "internalType": "uint256",
          "name": "lastDebtOutstanding",
          "type": "uint256"
        }
      ],
      "name": "Liquidation",
      "type": "event"
    },
    {
      "anonymous": false,
      "inputs": [
        {
          "indexed": true,
          "internalType": "address",
          "name": "previousOwner",
          "type": "address"
        },
        {
          "indexed": true,
          "internalType": "address",
          "name": "newOwner",
          "type": "address"
        }
      ],
      "name": "OwnershipTransferred",
      "type": "event"
    },
    {
      "anonymous": false,
      "inputs": [
        {
          "indexed": true,
          "internalType": "address",
          "name": "account",
          "type": "address"
        },
        {
          "indexed": false,
          "internalType": "uint256",
          "name": "debtRepaid",
          "type": "uint256"
        },
        {
          "indexed": false,
          "internalType": "uint256",
          "name": "debtRemaining",
          "type": "uint256"
        },
        {
          "indexed": false,
          "internalType": "uint256",
          "name": "collateralAmount",
          "type": "uint256"
        }
      ],
      "name": "Repay",
      "type": "event"
    },
    {
      "anonymous": false,
      "inputs": [
        {
          "indexed": true,
          "internalType": "address",
          "name": "account",
          "type": "address"
        },
        {
          "indexed": false,
          "internalType": "uint256",
          "name": "amount",
          "type": "uint256"
        }
      ],
      "name": "Withdraw",
      "type": "event"
    },
    {
      "inputs": [],
      "name": "SCALING_FACTOR",
      "outputs": [
        {
          "internalType": "uint256",
          "name": "",
          "type": "uint256"
        }
      ],
      "stateMutability": "view",
      "type": "function"
    },
    {
      "inputs": [],
      "name": "SECONDS_IN_YEAR",
      "outputs": [
        {
          "internalType": "int128",
          "name": "",
          "type": "int128"
        }
      ],
      "stateMutability": "view",
      "type": "function"
    },
    {
      "inputs": [
        {
          "internalType": "uint256",
          "name": "_amount",
          "type": "uint256"
        }
      ],
      "name": "borrow",
      "outputs": [],
      "stateMutability": "nonpayable",
      "type": "function"
    },
    {
      "inputs": [],
      "name": "borrowThreshold",
      "outputs": [
        {
          "internalType": "uint256",
          "name": "",
          "type": "uint256"
        }
      ],
      "stateMutability": "view",
      "type": "function"
    },
    {
      "inputs": [
        {
          "internalType": "address",
          "name": "_account",
          "type": "address"
        }
      ],
      "name": "calcInterest",
      "outputs": [
        {
          "internalType": "uint256",
          "name": "interest",
          "type": "uint256"
        }
      ],
      "stateMutability": "view",
      "type": "function"
    },
    {
      "inputs": [
        {
          "internalType": "uint256",
          "name": "_amount",
          "type": "uint256"
        }
      ],
      "name": "claimLiquidationFees",
      "outputs": [],
      "stateMutability": "nonpayable",
      "type": "function"
    },
    {
      "inputs": [
        {
          "internalType": "uint256",
          "name": "_amount",
          "type": "uint256"
        }
      ],
      "name": "deposit",
      "outputs": [],
      "stateMutability": "nonpayable",
      "type": "function"
    },
    {
      "inputs": [
        {
          "internalType": "address",
          "name": "_account",
          "type": "address"
        }
      ],
      "name": "getCurrentCollateralRatio",
      "outputs": [
        {
          "internalType": "uint256",
          "name": "",
          "type": "uint256"
        }
      ],
      "stateMutability": "view",
      "type": "function"
    },
    {
      "inputs": [
        {
          "internalType": "address",
          "name": "_account",
          "type": "address"
        },
        {
          "internalType": "uint256",
          "name": "_totalDebt",
          "type": "uint256"
        }
      ],
      "name": "getForwardCollateralRatio",
      "outputs": [
        {
          "internalType": "uint256",
          "name": "",
          "type": "uint256"
        }
      ],
      "stateMutability": "view",
      "type": "function"
    },
    {
      "inputs": [
        {
          "internalType": "address",
          "name": "_account",
          "type": "address"
        }
      ],
      "name": "getLiquidationFees",
      "outputs": [
        {
          "internalType": "uint256",
          "name": "",
          "type": "uint256"
        }
      ],
      "stateMutability": "view",
      "type": "function"
    },
    {
      "inputs": [
        {
          "internalType": "address",
          "name": "_account",
          "type": "address"
        }
      ],
      "name": "getPosition",
      "outputs": [
        {
          "internalType": "uint256",
          "name": "",
          "type": "uint256"
        },
        {
          "internalType": "uint256",
          "name": "",
          "type": "uint256"
        },
        {
          "internalType": "uint256",
          "name": "",
          "type": "uint256"
        },
        {
          "internalType": "uint256",
          "name": "",
          "type": "uint256"
        }
      ],
      "stateMutability": "view",
      "type": "function"
    },
    {
      "inputs": [],
      "name": "interestRate",
      "outputs": [
        {
          "internalType": "uint256",
          "name": "",
          "type": "uint256"
        }
      ],
      "stateMutability": "view",
      "type": "function"
    },
    {
      "inputs": [],
      "name": "liqFeeProtocol",
      "outputs": [
        {
          "internalType": "uint256",
          "name": "",
          "type": "uint256"
        }
      ],
      "stateMutability": "view",
      "type": "function"
    },
    {
      "inputs": [],
      "name": "liqFeeSender",
      "outputs": [
        {
          "internalType": "uint256",
          "name": "",
          "type": "uint256"
        }
      ],
      "stateMutability": "view",
      "type": "function"
    },
    {
      "inputs": [],
      "name": "liqThreshold",
      "outputs": [
        {
          "internalType": "uint256",
          "name": "",
          "type": "uint256"
        }
      ],
      "stateMutability": "view",
      "type": "function"
    },
    {
      "inputs": [
        {
          "internalType": "address",
          "name": "_account",
          "type": "address"
        },
        {
          "internalType": "uint256",
          "name": "_maxDiscount",
          "type": "uint256"
        }
      ],
      "name": "liquidate",
      "outputs": [],
      "stateMutability": "nonpayable",
      "type": "function"
    },
    {
      "inputs": [],
      "name": "owner",
      "outputs": [
        {
          "internalType": "address",
          "name": "",
          "type": "address"
        }
      ],
      "stateMutability": "view",
      "type": "function"
    },
    {
      "inputs": [],
      "name": "protocolDebt",
      "outputs": [
        {
          "internalType": "uint256",
          "name": "",
          "type": "uint256"
        }
      ],
      "stateMutability": "view",
      "type": "function"
    },
    {
      "inputs": [],
      "name": "protocolIntRev",
      "outputs": [
        {
          "internalType": "uint256",
          "name": "",
          "type": "uint256"
        }
      ],
      "stateMutability": "view",
      "type": "function"
    },
    {
      "inputs": [],
      "name": "renounceOwnership",
      "outputs": [],
      "stateMutability": "nonpayable",
      "type": "function"
    },
    {
      "inputs": [
        {
          "internalType": "uint256",
          "name": "_amount",
          "type": "uint256"
        }
      ],
      "name": "repay",
      "outputs": [],
      "stateMutability": "nonpayable",
      "type": "function"
    },
    {
      "inputs": [
        {
          "internalType": "uint256",
          "name": "_liqFeeProtocol",
          "type": "uint256"
        },
        {
          "internalType": "uint256",
          "name": "_liqFeeSender",
          "type": "uint256"
        },
        {
          "internalType": "uint256",
          "name": "_interestRate",
          "type": "uint256"
        }
      ],
      "name": "setFeesAndRates",
      "outputs": [],
      "stateMutability": "nonpayable",
      "type": "function"
    },
    {
      "inputs": [
        {
          "internalType": "address",
          "name": "_sushiRouter",
          "type": "address"
        }
      ],
      "name": "setSushiAddresses",
      "outputs": [],
      "stateMutability": "nonpayable",
      "type": "function"
    },
    {
      "inputs": [
        {
          "internalType": "uint256",
          "name": "_borrowThreshold",
          "type": "uint256"
        },
        {
          "internalType": "uint256",
          "name": "_liqThreshold",
          "type": "uint256"
        }
      ],
      "name": "setThresholds",
      "outputs": [],
      "stateMutability": "nonpayable",
      "type": "function"
    },
    {
      "inputs": [
        {
          "internalType": "address",
          "name": "_usdz",
          "type": "address"
        },
        {
          "internalType": "address",
          "name": "_usdc",
          "type": "address"
        },
        {
          "internalType": "address",
          "name": "_xsushi",
          "type": "address"
        }
      ],
      "name": "setTokenAddresses",
      "outputs": [],
      "stateMutability": "nonpayable",
      "type": "function"
    },
    {
      "inputs": [],
      "name": "sushiRouterAddress",
      "outputs": [
        {
          "internalType": "address",
          "name": "",
          "type": "address"
        }
      ],
      "stateMutability": "view",
      "type": "function"
    },
    {
      "inputs": [
        {
          "internalType": "uint256",
          "name": "_usdcAmount",
          "type": "uint256"
        }
      ],
      "name": "swapUSDCforUSDZ",
      "outputs": [],
      "stateMutability": "nonpayable",
      "type": "function"
    },
    {
      "inputs": [
        {
          "internalType": "uint256",
          "name": "_usdzAmount",
          "type": "uint256"
        }
      ],
      "name": "swapUSDZforUSDC",
      "outputs": [],
      "stateMutability": "nonpayable",
      "type": "function"
    },
    {
      "inputs": [
        {
          "internalType": "address",
          "name": "newOwner",
          "type": "address"
        }
      ],
      "name": "transferOwnership",
      "outputs": [],
      "stateMutability": "nonpayable",
      "type": "function"
    },
    {
      "inputs": [],
      "name": "usdcAddress",
      "outputs": [
        {
          "internalType": "address",
          "name": "",
          "type": "address"
        }
      ],
      "stateMutability": "view",
      "type": "function"
    },
    {
      "inputs": [],
      "name": "usdzAddress",
      "outputs": [
        {
          "internalType": "address",
          "name": "",
          "type": "address"
        }
      ],
      "stateMutability": "view",
      "type": "function"
    },
    {
      "inputs": [
        {
          "internalType": "uint256",
          "name": "_amount",
          "type": "uint256"
        }
      ],
      "name": "withdraw",
      "outputs": [],
      "stateMutability": "nonpayable",
      "type": "function"
    },
    {
      "inputs": [],
      "name": "xSushiAddress",
      "outputs": [
        {
          "internalType": "address",
          "name": "",
          "type": "address"
        }
      ],
      "stateMutability": "view",
      "type": "function"
    },
    {
      "inputs": [
        {
          "internalType": "uint256",
          "name": "",
          "type": "uint256"
        }
      ],
      "name": "xSushiToUsdcPath",
      "outputs": [
        {
          "internalType": "address",
          "name": "",
          "type": "address"
        }
      ],
      "stateMutability": "view",
      "type": "function"
    }
  ],
  "bytecode": "0x60806040523480156200001157600080fd5b506040516200539938038062005399833981810160405281019062000037919062000586565b600062000049620003c560201b60201c565b9050806000806101000a81548173ffffffffffffffffffffffffffffffffffffffff021916908373ffffffffffffffffffffffffffffffffffffffff1602179055508073ffffffffffffffffffffffffffffffffffffffff16600073ffffffffffffffffffffffffffffffffffffffff167f8be0079c531659141344cd1fd0a4f28419497f9722a3daafe3b4186f6b6457e060405160405180910390a35089600660006101000a81548173ffffffffffffffffffffffffffffffffffffffff021916908373ffffffffffffffffffffffffffffffffffffffff16021790555088600560006101000a81548173ffffffffffffffffffffffffffffffffffffffff021916908373ffffffffffffffffffffffffffffffffffffffff16021790555087600760006101000a81548173ffffffffffffffffffffffffffffffffffffffff021916908373ffffffffffffffffffffffffffffffffffffffff16021790555086600860006101000a81548173ffffffffffffffffffffffffffffffffffffffff021916908373ffffffffffffffffffffffffffffffffffffffff16021790555084600a8190555083600b8190555082600c8190555081600d8190555080600e81905550856009908051906020019062000226929190620003f1565b50620002416301e18558620003cd60201b6200286e1760201c565b600f60006101000a8154816fffffffffffffffffffffffffffffffff0219169083600f0b6fffffffffffffffffffffffffffffffff160217905550600760009054906101000a900473ffffffffffffffffffffffffffffffffffffffff1673ffffffffffffffffffffffffffffffffffffffff1663095ea7b3600860009054906101000a900473ffffffffffffffffffffffffffffffffffffffff167fffffffffffffffffffffffffffffffffffffffffffffffffffffffffffffffff6040518363ffffffff1660e01b81526004016200031d9291906200071f565b602060405180830381600087803b1580156200033857600080fd5b505af11580156200034d573d6000803e3d6000fd5b505050506040513d601f19601f820116820180604052508101906200037391906200068f565b620003b5576040517f08c379a0000000000000000000000000000000000000000000000000000000008152600401620003ac906200074c565b60405180910390fd5b50505050505050505050620008a9565b600033905090565b6000677fffffffffffffff821115620003e557600080fd5b604082901b9050919050565b8280548282559060005260206000209081019282156200046d579160200282015b828111156200046c5782518260006101000a81548173ffffffffffffffffffffffffffffffffffffffff021916908373ffffffffffffffffffffffffffffffffffffffff1602179055509160200191906001019062000412565b5b5090506200047c919062000480565b5090565b5b808211156200049b57600081600090555060010162000481565b5090565b6000620004b6620004b084620007a2565b6200076e565b90508083825260208201905082856020860282011115620004d657600080fd5b60005b858110156200050a5781620004ef888262000514565b845260208401935060208301925050600181019050620004d9565b5050509392505050565b60008151905062000525816200085b565b92915050565b600082601f8301126200053d57600080fd5b81516200054f8482602086016200049f565b91505092915050565b600081519050620005698162000875565b92915050565b60008151905062000580816200088f565b92915050565b6000806000806000806000806000806101408b8d031215620005a757600080fd5b6000620005b78d828e0162000514565b9a50506020620005ca8d828e0162000514565b9950506040620005dd8d828e0162000514565b9850506060620005f08d828e0162000514565b97505060808b015167ffffffffffffffff8111156200060e57600080fd5b6200061c8d828e016200052b565b96505060a06200062f8d828e016200056f565b95505060c0620006428d828e016200056f565b94505060e0620006558d828e016200056f565b935050610100620006698d828e016200056f565b9250506101206200067d8d828e016200056f565b9150509295989b9194979a5092959850565b600060208284031215620006a257600080fd5b6000620006b28482850162000558565b91505092915050565b620006c681620007e2565b82525050565b6000620006db601583620007d1565b91507f78737573686920617070726f7665206661696c656400000000000000000000006000830152602082019050919050565b620007198162000822565b82525050565b6000604082019050620007366000830185620006bb565b6200074560208301846200070e565b9392505050565b600060208201905081810360008301526200076781620006cc565b9050919050565b6000604051905081810181811067ffffffffffffffff821117156200079857620007976200082c565b5b8060405250919050565b600067ffffffffffffffff821115620007c057620007bf6200082c565b5b602082029050602081019050919050565b600082825260208201905092915050565b6000620007ef8262000802565b9050919050565b60008115159050919050565b600073ffffffffffffffffffffffffffffffffffffffff82169050919050565b6000819050919050565b7f4e487b7100000000000000000000000000000000000000000000000000000000600052604160045260246000fd5b6200086681620007e2565b81146200087257600080fd5b50565b6200088081620007f6565b81146200088c57600080fd5b50565b6200089a8162000822565b8114620008a657600080fd5b50565b614ae080620008b96000396000f3fe608060405234801561001057600080fd5b50600436106102065760003560e01c80637c3a00fd1161011a578063bfaf48d4116100ad578063de0bb74f1161007c578063de0bb74f146105ba578063e3064a77146105d6578063ef4cadc5146105f2578063f248e7e814610610578063f2fde38b1461062c57610206565b8063bfaf48d414610536578063c5ebeaec14610552578063cde5f6721461056e578063daf5539e1461058a57610206565b8063b6b55f25116100e9578063b6b55f25146104c2578063bcbaf487146104de578063bd48b2df146104fa578063bdfccad31461051857610206565b80637c3a00fd1461044a5780638da5cb5b14610468578063927e0a8f14610486578063ae2293d7146104a457610206565b80634a63a5ce1161019d57806369cb89c71161016c57806369cb89c7146103a45780637046b7a9146103d4578063715018a614610404578063734872511461040e57806379bbce8f1461042c57610206565b80634a63a5ce1461031c5780634d3f9d3e1461034c5780635ae547e3146103685780635dcc93911461038657610206565b806320bdf800116101d957806320bdf800146102a85780632e1a7d4d146102c6578063371fd8e6146102e2578063410e73f7146102fe57610206565b806302d454571461020b57806316c19739146102295780631d89b1031461025c57806320809c6b14610278575b600080fd5b610213610648565b6040516102209190614268565b60405180910390f35b610243600480360381019061023e91906138e7565b61066e565b6040516102539493929190614711565b60405180910390f35b61027660048036038101906102719190613a05565b61075f565b005b610292600480360381019061028d91906138e7565b610994565b60405161029f9190614635565b60405180910390f35b6102b06109dd565b6040516102bd9190614268565b60405180910390f35b6102e060048036038101906102db9190613a05565b610a03565b005b6102fc60048036038101906102f79190613a05565b610cf5565b005b610306611020565b6040516103139190614635565b60405180910390f35b61033660048036038101906103319190613a05565b611026565b6040516103439190614268565b60405180910390f35b61036660048036038101906103619190613910565b611065565b005b61037061128b565b60405161037d9190614635565b60405180910390f35b61038e611291565b60405161039b91906142e3565b60405180910390f35b6103be60048036038101906103b991906138e7565b6112a4565b6040516103cb9190614635565b60405180910390f35b6103ee60048036038101906103e9919061395f565b611513565b6040516103fb9190614635565b60405180910390f35b61040c611527565b005b610416611661565b6040516104239190614635565b60405180910390f35b610434611667565b6040516104419190614268565b60405180910390f35b61045261168d565b60405161045f9190614635565b60405180910390f35b610470611693565b60405161047d9190614268565b60405180910390f35b61048e6116bc565b60405161049b9190614635565b60405180910390f35b6104ac6116c2565b6040516104b99190614635565b60405180910390f35b6104dc60048036038101906104d79190613a05565b6116c8565b005b6104f860048036038101906104f3919061395f565b611862565b005b610502611d63565b60405161050f9190614635565b60405180910390f35b610520611d69565b60405161052d9190614268565b60405180910390f35b610550600480360381019061054b9190613a93565b611d8f565b005b61056c60048036038101906105679190613a05565b611eba565b005b61058860048036038101906105839190613a05565b6120d2565b005b6105a4600480360381019061059f91906138e7565b612297565b6040516105b19190614635565b60405180910390f35b6105d460048036038101906105cf9190613a05565b6122ec565b005b6105f060048036038101906105eb9190613a57565b612477565b005b6105fa61258f565b6040516106079190614635565b60405180910390f35b61062a600480360381019061062591906138e7565b612595565b005b610646600480360381019061064191906138e7565b6126c5565b005b600560009054906101000a900473ffffffffffffffffffffffffffffffffffffffff1681565b60008060008061067d856112a4565b50600160008673ffffffffffffffffffffffffffffffffffffffff1673ffffffffffffffffffffffffffffffffffffffff16815260200190815260200160002060000154600160008773ffffffffffffffffffffffffffffffffffffffff1673ffffffffffffffffffffffffffffffffffffffff1681526020019081526020016000206001015461070d876112a4565b600160008973ffffffffffffffffffffffffffffffffffffffff1673ffffffffffffffffffffffffffffffffffffffff1681526020019081526020016000206002015493509350935093509193509193565b6000600560009054906101000a900473ffffffffffffffffffffffffffffffffffffffff1673ffffffffffffffffffffffffffffffffffffffff166370a08231306040518263ffffffff1660e01b81526004016107bc9190614268565b60206040518083038186803b1580156107d457600080fd5b505afa1580156107e8573d6000803e3d6000fd5b505050506040513d601f19601f8201168201806040525081019061080c9190613a2e565b905081811015610851576040517f08c379a0000000000000000000000000000000000000000000000000000000008152600401610848906144d5565b60405180910390fd5b600660009054906101000a900473ffffffffffffffffffffffffffffffffffffffff1673ffffffffffffffffffffffffffffffffffffffff16639dc29fac33846040518363ffffffff1660e01b81526004016108ae9291906142ba565b600060405180830381600087803b1580156108c857600080fd5b505af11580156108dc573d6000803e3d6000fd5b50505050600560009054906101000a900473ffffffffffffffffffffffffffffffffffffffff1673ffffffffffffffffffffffffffffffffffffffff1663a9059cbb33846040518363ffffffff1660e01b815260040161093d9291906142ba565b602060405180830381600087803b15801561095757600080fd5b505af115801561096b573d6000803e3d6000fd5b505050506040513d601f19601f8201168201806040525081019061098f91906139dc565b505050565b6000600260008373ffffffffffffffffffffffffffffffffffffffff1673ffffffffffffffffffffffffffffffffffffffff168152602001908152602001600020549050919050565b600660009054906101000a900473ffffffffffffffffffffffffffffffffffffffff1681565b6000600160003373ffffffffffffffffffffffffffffffffffffffff1673ffffffffffffffffffffffffffffffffffffffff16815260200190815260200160002090508181600001541015610a8d576040517f08c379a0000000000000000000000000000000000000000000000000000000008152600401610a8490614615565b60405180910390fd5b6000610a98336112a4565b905080826001016000828254610aae9190614802565b925050819055504282600201819055506000610ac933612297565b9050600d548111610b0f576040517f08c379a0000000000000000000000000000000000000000000000000000000008152600401610b0690614395565b60405180910390fd5b60008084600101541415610b295783600001549050610b54565b600d5482610b3791906148e3565b828560000154610b479190614858565b610b519190614889565b90505b84811015610b97576040517f08c379a0000000000000000000000000000000000000000000000000000000008152600401610b8e90614455565b60405180910390fd5b84846000016000828254610bab91906148e3565b92505081905550600760009054906101000a900473ffffffffffffffffffffffffffffffffffffffff1673ffffffffffffffffffffffffffffffffffffffff1663a9059cbb33876040518363ffffffff1660e01b8152600401610c0f9291906142ba565b602060405180830381600087803b158015610c2957600080fd5b505af1158015610c3d573d6000803e3d6000fd5b505050506040513d601f19601f82011682018060405250810190610c6191906139dc565b610ca0576040517f08c379a0000000000000000000000000000000000000000000000000000000008152600401610c9790614415565b60405180910390fd5b3373ffffffffffffffffffffffffffffffffffffffff167f884edad9ce6fa2440d8a54cc123490eb96d2768479d49ff9c7366125a942436486604051610ce69190614635565b60405180910390a25050505050565b60008111610d38576040517f08c379a0000000000000000000000000000000000000000000000000000000008152600401610d2f90614535565b60405180910390fd5b6000600160003373ffffffffffffffffffffffffffffffffffffffff1673ffffffffffffffffffffffffffffffffffffffff1681526020019081526020016000209050610d84336112a4565b816001016000828254610d979190614802565b925050819055504281600201819055508181600101541115610ec357600660009054906101000a900473ffffffffffffffffffffffffffffffffffffffff1673ffffffffffffffffffffffffffffffffffffffff166323b872dd3330856040518463ffffffff1660e01b8152600401610e1293929190614283565b602060405180830381600087803b158015610e2c57600080fd5b505af1158015610e40573d6000803e3d6000fd5b505050506040513d601f19601f82011682018060405250810190610e6491906139dc565b610ea3576040517f08c379a0000000000000000000000000000000000000000000000000000000008152600401610e9a906144f5565b60405180910390fd5b81816001016000828254610eb791906148e3565b92505081905550610fc2565b600660009054906101000a900473ffffffffffffffffffffffffffffffffffffffff1673ffffffffffffffffffffffffffffffffffffffff166323b872dd333084600101546040518463ffffffff1660e01b8152600401610f2693929190614283565b602060405180830381600087803b158015610f4057600080fd5b505af1158015610f54573d6000803e3d6000fd5b505050506040513d601f19601f82011682018060405250810190610f7891906139dc565b610fb7576040517f08c379a0000000000000000000000000000000000000000000000000000000008152600401610fae906144f5565b60405180910390fd5b600081600101819055505b3373ffffffffffffffffffffffffffffffffffffffff167f2fe77b1c99aca6b022b8efc6e3e8dd1b48b30748709339b65c50ef3263443e098383600101548460000154604051611014939291906146da565b60405180910390a25050565b600a5481565b6009818154811061103657600080fd5b906000526020600020016000915054906101000a900473ffffffffffffffffffffffffffffffffffffffff1681565b61106d612891565b73ffffffffffffffffffffffffffffffffffffffff1661108b611693565b73ffffffffffffffffffffffffffffffffffffffff16146110e1576040517f08c379a00000000000000000000000000000000000000000000000000000000081526004016110d890614515565b60405180910390fd5b600073ffffffffffffffffffffffffffffffffffffffff168373ffffffffffffffffffffffffffffffffffffffff161415801561114b5750600073ffffffffffffffffffffffffffffffffffffffff168273ffffffffffffffffffffffffffffffffffffffff1614155b80156111845750600073ffffffffffffffffffffffffffffffffffffffff168173ffffffffffffffffffffffffffffffffffffffff1614155b6111c3576040517f08c379a00000000000000000000000000000000000000000000000000000000081526004016111ba90614495565b60405180910390fd5b82600660006101000a81548173ffffffffffffffffffffffffffffffffffffffff021916908373ffffffffffffffffffffffffffffffffffffffff16021790555081600560006101000a81548173ffffffffffffffffffffffffffffffffffffffff021916908373ffffffffffffffffffffffffffffffffffffffff16021790555080600760006101000a81548173ffffffffffffffffffffffffffffffffffffffff021916908373ffffffffffffffffffffffffffffffffffffffff160217905550505050565b600d5481565b600f60009054906101000a9004600f0b81565b600080600160008473ffffffffffffffffffffffffffffffffffffffff1673ffffffffffffffffffffffffffffffffffffffff16815260200190815260200160002060010154148061133857506000600160008473ffffffffffffffffffffffffffffffffffffffff1673ffffffffffffffffffffffffffffffffffffffff16815260200190815260200160002060020154145b8061134557506000600c54145b806113915750600160008373ffffffffffffffffffffffffffffffffffffffff1673ffffffffffffffffffffffffffffffffffffffff1681526020019081526020016000206002015442145b1561139f576000905061150e565b6000600160008473ffffffffffffffffffffffffffffffffffffffff1673ffffffffffffffffffffffffffffffffffffffff16815260200190815260200160002060020154426113ef91906148e3565b905060006114146113ff8361286e565b600f60009054906101000a9004600f0b612899565b90506000611436611426600c5461286e565b61143161271061286e565b612899565b90506000611485600160008873ffffffffffffffffffffffffffffffffffffffff1673ffffffffffffffffffffffffffffffffffffffff1681526020019081526020016000206001015461286e565b905060006114ac6114a7836114a261149d8789612949565b6129b4565b612949565b612a2d565b9050600160008873ffffffffffffffffffffffffffffffffffffffff1673ffffffffffffffffffffffffffffffffffffffff168152602001908152602001600020600101548167ffffffffffffffff1661150691906148e3565b955050505050505b919050565b600061151f8383612a4e565b905092915050565b61152f612891565b73ffffffffffffffffffffffffffffffffffffffff1661154d611693565b73ffffffffffffffffffffffffffffffffffffffff16146115a3576040517f08c379a000000000000000000000000000000000000000000000000000000000815260040161159a90614515565b60405180910390fd5b600073ffffffffffffffffffffffffffffffffffffffff1660008054906101000a900473ffffffffffffffffffffffffffffffffffffffff1673ffffffffffffffffffffffffffffffffffffffff167f8be0079c531659141344cd1fd0a4f28419497f9722a3daafe3b4186f6b6457e060405160405180910390a360008060006101000a81548173ffffffffffffffffffffffffffffffffffffffff021916908373ffffffffffffffffffffffffffffffffffffffff160217905550565b60045481565b600860009054906101000a900473ffffffffffffffffffffffffffffffffffffffff1681565b600c5481565b60008060009054906101000a900473ffffffffffffffffffffffffffffffffffffffff16905090565b60035481565b600e5481565b600760009054906101000a900473ffffffffffffffffffffffffffffffffffffffff1673ffffffffffffffffffffffffffffffffffffffff166323b872dd3330846040518463ffffffff1660e01b815260040161172793929190614283565b602060405180830381600087803b15801561174157600080fd5b505af1158015611755573d6000803e3d6000fd5b505050506040513d601f19601f8201168201806040525081019061177991906139dc565b6117b8576040517f08c379a00000000000000000000000000000000000000000000000000000000081526004016117af906145b5565b60405180910390fd5b80600160003373ffffffffffffffffffffffffffffffffffffffff1673ffffffffffffffffffffffffffffffffffffffff168152602001908152602001600020600001600082825461180a9190614802565b925050819055503373ffffffffffffffffffffffffffffffffffffffff167fe1fffcc4923d04b559f4d29a8bfc6cda04eb5b0d3c460751c2402c5c5cc9109c826040516118579190614635565b60405180910390a250565b6000600160008473ffffffffffffffffffffffffffffffffffffffff1673ffffffffffffffffffffffffffffffffffffffff168152602001908152602001600020905060008160000154116118ec576040517f08c379a00000000000000000000000000000000000000000000000000000000081526004016118e3906143f5565b60405180910390fd5b60006118f7846112a4565b9050600e54611915858385600101546119109190614802565b611513565b10611955576040517f08c379a000000000000000000000000000000000000000000000000000000000815260040161194c90614595565b60405180910390fd5b6000612710600a54846000015461196c9190614889565b6119769190614858565b90506000612710600a54856000015461198f9190614889565b6119999190614858565b9050836000015481836119ac9190614802565b11156119ed576040517f08c379a00000000000000000000000000000000000000000000000000000000081526004016119e490614555565b60405180910390fd5b612710851115611a32576040517f08c379a0000000000000000000000000000000000000000000000000000000008152600401611a2990614575565b60405180910390fd5b81600260003073ffffffffffffffffffffffffffffffffffffffff1673ffffffffffffffffffffffffffffffffffffffff1681526020019081526020016000206000828254611a819190614802565b9250508190555080600260003373ffffffffffffffffffffffffffffffffffffffff1673ffffffffffffffffffffffffffffffffffffffff1681526020019081526020016000206000828254611ad79190614802565b925050819055506000600860009054906101000a900473ffffffffffffffffffffffffffffffffffffffff1673ffffffffffffffffffffffffffffffffffffffff1663d06ca61f866000015460096040518363ffffffff1660e01b8152600401611b42929190614650565b60006040518083038186803b158015611b5a57600080fd5b505afa158015611b6e573d6000803e3d6000fd5b505050506040513d6000823e3d601f19601f82011682018060405250810190611b97919061399b565b600281518110611bd0577f4e487b7100000000000000000000000000000000000000000000000000000000600052603260045260246000fd5b602002602001015190506000600860009054906101000a900473ffffffffffffffffffffffffffffffffffffffff1690508073ffffffffffffffffffffffffffffffffffffffff166338ed17398486611c299190614802565b8860000154611c3891906148e3565b6127108a612710611c4991906148e3565b86611c549190614889565b611c5e9190614858565b600930426040518663ffffffff1660e01b8152600401611c82959493929190614680565b600060405180830381600087803b158015611c9c57600080fd5b505af1158015611cb0573d6000803e3d6000fd5b505050506040513d6000823e3d601f19601f82011682018060405250810190611cd9919061399b565b5060008660000181905550600086600101819055503373ffffffffffffffffffffffffffffffffffffffff168873ffffffffffffffffffffffffffffffffffffffff167f5a821a618ddb1a1fd304234a69c9d7f20c129d122fcf35593d13a071926643076000806000604051611d51939291906142fe565b60405180910390a35050505050505050565b600b5481565b600760009054906101000a900473ffffffffffffffffffffffffffffffffffffffff1681565b611d97612891565b73ffffffffffffffffffffffffffffffffffffffff16611db5611693565b73ffffffffffffffffffffffffffffffffffffffff1614611e0b576040517f08c379a0000000000000000000000000000000000000000000000000000000008152600401611e0290614515565b60405180910390fd5b6127108284611e1a9190614802565b1115611e5b576040517f08c379a0000000000000000000000000000000000000000000000000000000008152600401611e5290614475565b60405180910390fd5b82600a8190555081600b81905550612710811115611eae576040517f08c379a0000000000000000000000000000000000000000000000000000000008152600401611ea5906145d5565b60405180910390fd5b80600c81905550505050565b60008111611efd576040517f08c379a0000000000000000000000000000000000000000000000000000000008152600401611ef4906143d5565b60405180910390fd5b6000600160003373ffffffffffffffffffffffffffffffffffffffff1673ffffffffffffffffffffffffffffffffffffffff16815260200190815260200160002090506000611f4b336112a4565b9050600d54611f743385848660010154611f659190614802565b611f6f9190614802565b611513565b1015611fb5576040517f08c379a0000000000000000000000000000000000000000000000000000000008152600401611fac90614355565b60405180910390fd5b8083611fc19190614802565b826001016000828254611fd49190614802565b92505081905550428260020181905550600660009054906101000a900473ffffffffffffffffffffffffffffffffffffffff1673ffffffffffffffffffffffffffffffffffffffff166340c10f1933856040518363ffffffff1660e01b81526004016120419291906142ba565b600060405180830381600087803b15801561205b57600080fd5b505af115801561206f573d6000803e3d6000fd5b505050503373ffffffffffffffffffffffffffffffffffffffff167f13ed6866d4e1ee6da46f845c46d7e54120883d75c5ea9a2dacc1c4ca8984ab8084846001015485600001546040516120c5939291906146da565b60405180910390a2505050565b60008111612115576040517f08c379a000000000000000000000000000000000000000000000000000000000815260040161210c906143b5565b60405180910390fd5b600560009054906101000a900473ffffffffffffffffffffffffffffffffffffffff1673ffffffffffffffffffffffffffffffffffffffff166323b872dd3330846040518463ffffffff1660e01b815260040161217493929190614283565b602060405180830381600087803b15801561218e57600080fd5b505af11580156121a2573d6000803e3d6000fd5b505050506040513d601f19601f820116820180604052508101906121c691906139dc565b612205576040517f08c379a00000000000000000000000000000000000000000000000000000000081526004016121fc90614335565b60405180910390fd5b600660009054906101000a900473ffffffffffffffffffffffffffffffffffffffff1673ffffffffffffffffffffffffffffffffffffffff166340c10f1933836040518363ffffffff1660e01b81526004016122629291906142ba565b600060405180830381600087803b15801561227c57600080fd5b505af1158015612290573d6000803e3d6000fd5b5050505050565b60006122e582600160008573ffffffffffffffffffffffffffffffffffffffff1673ffffffffffffffffffffffffffffffffffffffff16815260200190815260200160002060010154612a4e565b9050919050565b80600260003373ffffffffffffffffffffffffffffffffffffffff1673ffffffffffffffffffffffffffffffffffffffff16815260200190815260200160002054101561236e576040517f08c379a0000000000000000000000000000000000000000000000000000000008152600401612365906144b5565b60405180910390fd5b80600260003373ffffffffffffffffffffffffffffffffffffffff1673ffffffffffffffffffffffffffffffffffffffff16815260200190815260200160002060008282546123bd91906148e3565b92505081905550600760009054906101000a900473ffffffffffffffffffffffffffffffffffffffff1673ffffffffffffffffffffffffffffffffffffffff1663a9059cbb33836040518363ffffffff1660e01b81526004016124219291906142ba565b602060405180830381600087803b15801561243b57600080fd5b505af115801561244f573d6000803e3d6000fd5b505050506040513d601f19601f8201168201806040525081019061247391906139dc565b5050565b61247f612891565b73ffffffffffffffffffffffffffffffffffffffff1661249d611693565b73ffffffffffffffffffffffffffffffffffffffff16146124f3576040517f08c379a00000000000000000000000000000000000000000000000000000000081526004016124ea90614515565b60405180910390fd5b612710821015612538576040517f08c379a000000000000000000000000000000000000000000000000000000000815260040161252f90614435565b60405180910390fd5b61271081101561257d576040517f08c379a0000000000000000000000000000000000000000000000000000000008152600401612574906145f5565b60405180910390fd5b81600d8190555080600e819055505050565b61271081565b61259d612891565b73ffffffffffffffffffffffffffffffffffffffff166125bb611693565b73ffffffffffffffffffffffffffffffffffffffff1614612611576040517f08c379a000000000000000000000000000000000000000000000000000000000815260040161260890614515565b60405180910390fd5b600073ffffffffffffffffffffffffffffffffffffffff168173ffffffffffffffffffffffffffffffffffffffff161415612681576040517f08c379a000000000000000000000000000000000000000000000000000000000815260040161267890614495565b60405180910390fd5b80600860006101000a81548173ffffffffffffffffffffffffffffffffffffffff021916908373ffffffffffffffffffffffffffffffffffffffff16021790555050565b6126cd612891565b73ffffffffffffffffffffffffffffffffffffffff166126eb611693565b73ffffffffffffffffffffffffffffffffffffffff1614612741576040517f08c379a000000000000000000000000000000000000000000000000000000000815260040161273890614515565b60405180910390fd5b600073ffffffffffffffffffffffffffffffffffffffff168173ffffffffffffffffffffffffffffffffffffffff1614156127b1576040517f08c379a00000000000000000000000000000000000000000000000000000000081526004016127a890614375565b60405180910390fd5b8073ffffffffffffffffffffffffffffffffffffffff1660008054906101000a900473ffffffffffffffffffffffffffffffffffffffff1673ffffffffffffffffffffffffffffffffffffffff167f8be0079c531659141344cd1fd0a4f28419497f9722a3daafe3b4186f6b6457e060405160405180910390a3806000806101000a81548173ffffffffffffffffffffffffffffffffffffffff021916908373ffffffffffffffffffffffffffffffffffffffff16021790555050565b6000677fffffffffffffff82111561288557600080fd5b604082901b9050919050565b600033905090565b60008082600f0b14156128ab57600080fd5b600082600f0b604085600f0b901b816128ed577f4e487b7100000000000000000000000000000000000000000000000000000000600052601260045260246000fd5b0590507fffffffffffffffffffffffffffffffff80000000000000000000000000000000600f0b811215801561293657506f7fffffffffffffffffffffffffffffff600f0b8113155b61293f57600080fd5b8091505092915050565b600080604083600f0b85600f0b02901d90507fffffffffffffffffffffffffffffffff80000000000000000000000000000000600f0b81121580156129a157506f7fffffffffffffffffffffffffffffff600f0b8113155b6129aa57600080fd5b8091505092915050565b60006840000000000000000082600f0b126129ce57600080fd5b7fffffffffffffffffffffffffffffffffffffffffffffffc0000000000000000082600f0b1215612a025760009050612a28565b612a256080700171547652b82fe1777d0ffda0d23a7d1284600f0b02901d612bfd565b90505b919050565b60008082600f0b1215612a3f57600080fd5b604082600f0b901d9050919050565b600080600160008573ffffffffffffffffffffffffffffffffffffffff1673ffffffffffffffffffffffffffffffffffffffff1681526020019081526020016000206000015490506000811415612aa9576000915050612bf7565b6000831415612adb577fffffffffffffffffffffffffffffffffffffffffffffffffffffffffffffffff915050612bf7565b6000600860009054906101000a900473ffffffffffffffffffffffffffffffffffffffff16905060008173ffffffffffffffffffffffffffffffffffffffff1663d06ca61f8460096040518363ffffffff1660e01b8152600401612b40929190614650565b60006040518083038186803b158015612b5857600080fd5b505afa158015612b6c573d6000803e3d6000fd5b505050506040513d6000823e3d601f19601f82011682018060405250810190612b95919061399b565b600281518110612bce577f4e487b7100000000000000000000000000000000000000000000000000000000600052603260045260246000fd5b602002602001015190508461271082612be79190614889565b612bf19190614858565b93505050505b92915050565b60006840000000000000000082600f0b12612c1757600080fd5b7fffffffffffffffffffffffffffffffffffffffffffffffc0000000000000000082600f0b1215612c4b57600090506137f8565b60006f80000000000000000000000000000000905060006780000000000000008416600f0b1315612c9157608070016a09e667f3bcc908b2fb1366ea957d3e8202901c90505b60006740000000000000008416600f0b1315612cc25760807001306fe0a31b7152de8d5a46305c85edec8202901c90505b60006720000000000000008416600f0b1315612cf35760807001172b83c7d517adcdf7c8c50eb14a791f8202901c90505b60006710000000000000008416600f0b1315612d2457608070010b5586cf9890f6298b92b71842a983638202901c90505b60006708000000000000008416600f0b1315612d555760807001059b0d31585743ae7c548eb68ca417fd8202901c90505b60006704000000000000008416600f0b1315612d86576080700102c9a3e778060ee6f7caca4f7a29bde88202901c90505b60006702000000000000008416600f0b1315612db757608070010163da9fb33356d84a66ae336dcdfa3f8202901c90505b60006701000000000000008416600f0b1315612de8576080700100b1afa5abcbed6129ab13ec11dc95438202901c90505b600066800000000000008416600f0b1315612e1857608070010058c86da1c09ea1ff19d294cf2f679b8202901c90505b600066400000000000008416600f0b1315612e485760807001002c605e2e8cec506d21bfc89a23a00f8202901c90505b600066200000000000008416600f0b1315612e78576080700100162f3904051fa128bca9c55c31e5df8202901c90505b600066100000000000008416600f0b1315612ea85760807001000b175effdc76ba38e31671ca9397258202901c90505b600066080000000000008416600f0b1315612ed8576080700100058ba01fb9f96d6cacd4b180917c3d8202901c90505b600066040000000000008416600f0b1315612f0857608070010002c5cc37da9491d0985c348c68e7b38202901c90505b600066020000000000008416600f0b1315612f385760807001000162e525ee054754457d59952920268202901c90505b600066010000000000008416600f0b1315612f6857608070010000b17255775c040618bf4a4ade83fc8202901c90505b6000658000000000008416600f0b1315612f975760807001000058b91b5bc9ae2eed81e9b7d4cfab8202901c90505b6000654000000000008416600f0b1315612fc6576080700100002c5c89d5ec6ca4d7c8acc017b7c98202901c90505b6000652000000000008416600f0b1315612ff557608070010000162e43f4f831060e02d839a9d16d8202901c90505b6000651000000000008416600f0b1315613024576080700100000b1721bcfc99d9f890ea069117638202901c90505b6000650800000000008416600f0b131561305357608070010000058b90cf1e6d97f9ca14dbcc16288202901c90505b6000650400000000008416600f0b13156130825760807001000002c5c863b73f016468f6bac5ca2b8202901c90505b6000650200000000008416600f0b13156130b1576080700100000162e430e5a18f6119e3c02282a58202901c90505b6000650100000000008416600f0b13156130e05760807001000000b1721835514b86e6d96efd1bfe8202901c90505b60006480000000008416600f0b131561310e576080700100000058b90c0b48c6be5df846c5b2ef8202901c90505b60006440000000008416600f0b131561313c57608070010000002c5c8601cc6b9e94213c72737a8202901c90505b60006420000000008416600f0b131561316a5760807001000000162e42fff037df38aa2b219f068202901c90505b60006410000000008416600f0b131561319857608070010000000b17217fba9c739aa5819f44f98202901c90505b60006408000000008416600f0b13156131c65760807001000000058b90bfcdee5acd3c1cedc8238202901c90505b60006404000000008416600f0b13156131f4576080700100000002c5c85fe31f35a6a30da1be508202901c90505b60006402000000008416600f0b131561322257608070010000000162e42ff0999ce3541b9fffcf8202901c90505b60006401000000008416600f0b1315613250576080700100000000b17217f80f4ef5aadda455548202901c90505b600063800000008416600f0b131561327d57608070010000000058b90bfbf8479bd5a81b51ad8202901c90505b600063400000008416600f0b13156132aa5760807001000000002c5c85fdf84bd62ae30a74cc8202901c90505b600063200000008416600f0b13156132d7576080700100000000162e42fefb2fed257559bdaa8202901c90505b600063100000008416600f0b13156133045760807001000000000b17217f7d5a7716bba4a9ae8202901c90505b600063080000008416600f0b1315613331576080700100000000058b90bfbe9ddbac5e109cce8202901c90505b600063040000008416600f0b131561335e57608070010000000002c5c85fdf4b15de6f17eb0d8202901c90505b600063020000008416600f0b131561338b5760807001000000000162e42fefa494f1478fde058202901c90505b600063010000008416600f0b13156133b857608070010000000000b17217f7d20cf927c8e94c8202901c90505b6000628000008416600f0b13156133e45760807001000000000058b90bfbe8f71cb4e4b33d8202901c90505b6000624000008416600f0b1315613410576080700100000000002c5c85fdf477b662b269458202901c90505b6000622000008416600f0b131561343c57608070010000000000162e42fefa3ae53369388c8202901c90505b6000621000008416600f0b1315613468576080700100000000000b17217f7d1d351a389d408202901c90505b6000620800008416600f0b131561349457608070010000000000058b90bfbe8e8b2d3d4ede8202901c90505b6000620400008416600f0b13156134c05760807001000000000002c5c85fdf4741bea6e77e8202901c90505b6000620200008416600f0b13156134ec576080700100000000000162e42fefa39fe95583c28202901c90505b6000620100008416600f0b13156135185760807001000000000000b17217f7d1cfb72b45e18202901c90505b60006180008416600f0b1315613543576080700100000000000058b90bfbe8e7cc35c3f08202901c90505b60006140008416600f0b131561356e57608070010000000000002c5c85fdf473e242ea388202901c90505b60006120008416600f0b13156135995760807001000000000000162e42fefa39f02b772c8202901c90505b60006110008416600f0b13156135c457608070010000000000000b17217f7d1cf7d83c1a8202901c90505b60006108008416600f0b13156135ef5760807001000000000000058b90bfbe8e7bdcbe2e8202901c90505b60006104008416600f0b131561361a576080700100000000000002c5c85fdf473dea871f8202901c90505b60006102008416600f0b131561364557608070010000000000000162e42fefa39ef44d918202901c90505b60006101008416600f0b1315613670576080700100000000000000b17217f7d1cf79e9498202901c90505b600060808416600f0b131561369a57608070010000000000000058b90bfbe8e7bce5448202901c90505b600060408416600f0b13156136c45760807001000000000000002c5c85fdf473de6eca8202901c90505b600060208416600f0b13156136ee576080700100000000000000162e42fefa39ef366f8202901c90505b600060108416600f0b13156137185760807001000000000000000b17217f7d1cf79afa8202901c90505b600060088416600f0b1315613742576080700100000000000000058b90bfbe8e7bcd6d8202901c90505b600060048416600f0b131561376c57608070010000000000000002c5c85fdf473de6b28202901c90505b600060028416600f0b13156137965760807001000000000000000162e42fefa39ef3588202901c90505b600060018416600f0b13156137c057608070010000000000000000b17217f7d1cf79ab8202901c90505b604083600f0b901d603f03600f0b81901c90506f7fffffffffffffffffffffffffffffff600f0b8111156137f357600080fd5b809150505b919050565b600061381061380b84614787565b614756565b9050808382526020820190508285602086028201111561382f57600080fd5b60005b8581101561385f578161384588826138d2565b845260208401935060208301925050600181019050613832565b5050509392505050565b60008135905061387881614a65565b92915050565b600082601f83011261388f57600080fd5b815161389f8482602086016137fd565b91505092915050565b6000815190506138b781614a7c565b92915050565b6000813590506138cc81614a93565b92915050565b6000815190506138e181614a93565b92915050565b6000602082840312156138f957600080fd5b600061390784828501613869565b91505092915050565b60008060006060848603121561392557600080fd5b600061393386828701613869565b935050602061394486828701613869565b925050604061395586828701613869565b9150509250925092565b6000806040838503121561397257600080fd5b600061398085828601613869565b9250506020613991858286016138bd565b9150509250929050565b6000602082840312156139ad57600080fd5b600082015167ffffffffffffffff8111156139c757600080fd5b6139d38482850161387e565b91505092915050565b6000602082840312156139ee57600080fd5b60006139fc848285016138a8565b91505092915050565b600060208284031215613a1757600080fd5b6000613a25848285016138bd565b91505092915050565b600060208284031215613a4057600080fd5b6000613a4e848285016138d2565b91505092915050565b60008060408385031215613a6a57600080fd5b6000613a78858286016138bd565b9250506020613a89858286016138bd565b9150509250929050565b600080600060608486031215613aa857600080fd5b6000613ab6868287016138bd565b9350506020613ac7868287016138bd565b9250506040613ad8868287016138bd565b9150509250925092565b6000613aee8383613afa565b60208301905092915050565b613b0381614937565b82525050565b613b1281614937565b82525050565b6000613b23826147c8565b613b2d81856147e0565b9350613b38836147b3565b8060005b83811015613b7057613b4d82614a45565b613b578882613ae2565b9750613b62836147d3565b925050600181019050613b3c565b5085935050505092915050565b613b8681614955565b82525050565b613b958161498c565b82525050565b6000613ba86014836147f1565b91507f55534443207472616e73666572206661696c65640000000000000000000000006000830152602082019050919050565b6000613be86029836147f1565b91507f6e6f7420656e6f75676820636f6c6c61746572616c20746f20626f72726f772060008301527f74686174206d75636800000000000000000000000000000000000000000000006020830152604082019050919050565b6000613c4e6026836147f1565b91507f4f776e61626c653a206e6577206f776e657220697320746865207a65726f206160008301527f64647265737300000000000000000000000000000000000000000000000000006020830152604082019050919050565b6000613cb46022836147f1565b91507f6163636f756e7420616c72656164792062656c6f77207361666574792072617460008301527f696f0000000000000000000000000000000000000000000000000000000000006020830152604082019050919050565b6000613d1a6014836147f1565b91507f63616e2774206d696e74207a65726f205553445a0000000000000000000000006000830152602082019050919050565b6000613d5a600e836147f1565b91507f63616e277420626f72726f7720300000000000000000000000000000000000006000830152602082019050919050565b6000613d9a6019836147f1565b91507f6163636f756e7420686173206e6f20636f6c6c61746572616c000000000000006000830152602082019050919050565b6000613dda6018836147f1565b91507f7769746864726177207472616e73666572206661696c656400000000000000006000830152602082019050919050565b6000613e1a6029836147f1565b91507f626f72726f77207468726573686f6c64206d757374206265203e207363616c6960008301527f6e6720666163746f7200000000000000000000000000000000000000000000006020830152604082019050919050565b6000613e806019836147f1565b91507f616d6f756e7420756e7361666520746f207769746864726177000000000000006000830152602082019050919050565b6000613ec06015836147f1565b91507f6c69712066656573206f7574206f662072616e676500000000000000000000006000830152602082019050919050565b6000613f006018836147f1565b91507f7a65726f2061646472657373206e6f7420616c6c6f77656400000000000000006000830152602082019050919050565b6000613f40601a836147f1565b91507f616d6f756e7420686967686572207468616e2062616c616e63650000000000006000830152602082019050919050565b6000613f806014836147f1565b91507f55534443207265736572766520746f6f206c6f770000000000000000000000006000830152602082019050919050565b6000613fc06015836147f1565b91507f7265706179207472616e73666572206661696c656400000000000000000000006000830152602082019050919050565b60006140006020836147f1565b91507f4f776e61626c653a2063616c6c6572206973206e6f7420746865206f776e65726000830152602082019050919050565b6000614040600d836147f1565b91507f63616e27742072657061792030000000000000000000000000000000000000006000830152602082019050919050565b60006140806018836147f1565b91507f6c6971206665657320696e636f72726563746c792073657400000000000000006000830152602082019050919050565b60006140c06018836147f1565b91507f6d617820646973636f756e74206d6178206973203130302500000000000000006000830152602082019050919050565b6000614100601f836147f1565b91507f6163636f756e74206e6f742062656c6f77206c6971207468726573686f6c64006000830152602082019050919050565b6000614140600e836147f1565b91507f6465706f736974206661696c65640000000000000000000000000000000000006000830152602082019050919050565b60006141806019836147f1565b91507f696e74657265737452617465206f7574206f662072616e6765000000000000006000830152602082019050919050565b60006141c06026836147f1565b91507f6c6971207468726573686f6c64206d757374206265203e207363616c696e672060008301527f666163746f7200000000000000000000000000000000000000000000000000006020830152604082019050919050565b60006142266020836147f1565b91507f6e6f7420656e6f75676820636f6c6c61746572616c20696e206163636f756e746000830152602082019050919050565b61426281614982565b82525050565b600060208201905061427d6000830184613b09565b92915050565b60006060820190506142986000830186613b09565b6142a56020830185613b09565b6142b26040830184614259565b949350505050565b60006040820190506142cf6000830185613b09565b6142dc6020830184614259565b9392505050565b60006020820190506142f86000830184613b7d565b92915050565b60006060820190506143136000830186613b8c565b6143206020830185613b8c565b61432d6040830184613b8c565b949350505050565b6000602082019050818103600083015261434e81613b9b565b9050919050565b6000602082019050818103600083015261436e81613bdb565b9050919050565b6000602082019050818103600083015261438e81613c41565b9050919050565b600060208201905081810360008301526143ae81613ca7565b9050919050565b600060208201905081810360008301526143ce81613d0d565b9050919050565b600060208201905081810360008301526143ee81613d4d565b9050919050565b6000602082019050818103600083015261440e81613d8d565b9050919050565b6000602082019050818103600083015261442e81613dcd565b9050919050565b6000602082019050818103600083015261444e81613e0d565b9050919050565b6000602082019050818103600083015261446e81613e73565b9050919050565b6000602082019050818103600083015261448e81613eb3565b9050919050565b600060208201905081810360008301526144ae81613ef3565b9050919050565b600060208201905081810360008301526144ce81613f33565b9050919050565b600060208201905081810360008301526144ee81613f73565b9050919050565b6000602082019050818103600083015261450e81613fb3565b9050919050565b6000602082019050818103600083015261452e81613ff3565b9050919050565b6000602082019050818103600083015261454e81614033565b9050919050565b6000602082019050818103600083015261456e81614073565b9050919050565b6000602082019050818103600083015261458e816140b3565b9050919050565b600060208201905081810360008301526145ae816140f3565b9050919050565b600060208201905081810360008301526145ce81614133565b9050919050565b600060208201905081810360008301526145ee81614173565b9050919050565b6000602082019050818103600083015261460e816141b3565b9050919050565b6000602082019050818103600083015261462e81614219565b9050919050565b600060208201905061464a6000830184614259565b92915050565b60006040820190506146656000830185614259565b81810360208301526146778184613b18565b90509392505050565b600060a0820190506146956000830188614259565b6146a26020830187614259565b81810360408301526146b48186613b18565b90506146c36060830185613b09565b6146d06080830184614259565b9695505050505050565b60006060820190506146ef6000830186614259565b6146fc6020830185614259565b6147096040830184614259565b949350505050565b60006080820190506147266000830187614259565b6147336020830186614259565b6147406040830185614259565b61474d6060830184614259565b95945050505050565b6000604051905081810181811067ffffffffffffffff8211171561477d5761477c614a16565b5b8060405250919050565b600067ffffffffffffffff8211156147a2576147a1614a16565b5b602082029050602081019050919050565b60008190508160005260206000209050919050565b600081549050919050565b6000600182019050919050565b600082825260208201905092915050565b600082825260208201905092915050565b600061480d82614982565b915061481883614982565b9250827fffffffffffffffffffffffffffffffffffffffffffffffffffffffffffffffff0382111561484d5761484c6149b8565b5b828201905092915050565b600061486382614982565b915061486e83614982565b92508261487e5761487d6149e7565b5b828204905092915050565b600061489482614982565b915061489f83614982565b9250817fffffffffffffffffffffffffffffffffffffffffffffffffffffffffffffffff04831182151516156148d8576148d76149b8565b5b828202905092915050565b60006148ee82614982565b91506148f983614982565b92508282101561490c5761490b6149b8565b5b828203905092915050565b600073ffffffffffffffffffffffffffffffffffffffff82169050919050565b600061494282614962565b9050919050565b60008115159050919050565b600081600f0b9050919050565b600073ffffffffffffffffffffffffffffffffffffffff82169050919050565b6000819050919050565b600061499782614982565b9050919050565b60006149b16149ac83614a58565b614917565b9050919050565b7f4e487b7100000000000000000000000000000000000000000000000000000000600052601160045260246000fd5b7f4e487b7100000000000000000000000000000000000000000000000000000000600052601260045260246000fd5b7f4e487b7100000000000000000000000000000000000000000000000000000000600052604160045260246000fd5b6000614a51825461499e565b9050919050565b60008160001c9050919050565b614a6e81614937565b8114614a7957600080fd5b50565b614a8581614949565b8114614a9057600080fd5b50565b614a9c81614982565b8114614aa757600080fd5b5056fea26469706673582212208cdbcb26468822ab08ba296d4587315183f84dd836f6a3e1d3cd573f9344f64664736f6c63430008000033",
  "linkReferences": {},
  "deployedLinkReferences": {}
}