{
  "_format": "hh-sol-artifact-1",
  "contractName": "Controller",
  "sourceName": "contracts/Controller.sol",
  "abi": [
    {
      "inputs": [
        {
          "internalType": "address",
          "name": "_usdzAddress",
          "type": "address"
        },
        {
          "internalType": "address",
          "name": "_usdcAddress",
          "type": "address"
        },
        {
          "internalType": "address",
          "name": "_xSushiAddress",
          "type": "address"
        },
        {
          "internalType": "address",
          "name": "_routerAddress",
          "type": "address"
        },
        {
          "internalType": "address[]",
          "name": "_swapPath",
          "type": "address[]"
        },
        {
          "internalType": "uint256",
          "name": "_liqFeeProtocol",
          "type": "uint256"
        },
        {
          "internalType": "uint256",
          "name": "_liqFeeSender",
          "type": "uint256"
        },
        {
          "internalType": "uint256",
          "name": "_interestRate",
          "type": "uint256"
        },
        {
          "internalType": "uint256",
          "name": "_borrowThreshold",
          "type": "uint256"
        },
        {
          "internalType": "uint256",
          "name": "_liqThreshold",
          "type": "uint256"
        }
      ],
      "stateMutability": "nonpayable",
      "type": "constructor"
    },
    {
      "anonymous": false,
      "inputs": [
        {
          "indexed": true,
          "internalType": "address",
          "name": "account",
          "type": "address"
        },
        {
          "indexed": false,
          "internalType": "uint256",
          "name": "amountBorrowed",
          "type": "uint256"
        },
        {
          "indexed": false,
          "internalType": "uint256",
          "name": "totalDebt",
          "type": "uint256"
        },
        {
          "indexed": false,
          "internalType": "uint256",
          "name": "collateralAmount",
          "type": "uint256"
        }
      ],
      "name": "Borrow",
      "type": "event"
    },
    {
      "anonymous": false,
      "inputs": [
        {
          "indexed": true,
          "internalType": "address",
          "name": "account",
          "type": "address"
        },
        {
          "indexed": false,
          "internalType": "uint256",
          "name": "amount",
          "type": "uint256"
        }
      ],
      "name": "Deposit",
      "type": "event"
    },
    {
      "anonymous": false,
      "inputs": [
        {
          "indexed": true,
          "internalType": "address",
          "name": "account",
          "type": "address"
        },
        {
          "indexed": true,
          "internalType": "address",
          "name": "liquidator",
          "type": "address"
        },
        {
          "indexed": false,
          "internalType": "uint256",
          "name": "collateralLiquidated",
          "type": "uint256"
        },
        {
          "indexed": false,
          "internalType": "uint256",
          "name": "lastCollateralRatio",
          "type": "uint256"
        },
        {
          "indexed": false,
          "internalType": "uint256",
          "name": "lastDebtOutstanding",
          "type": "uint256"
        },
        {
          "indexed": false,
          "internalType": "uint256",
          "name": "protocolDebtCreated",
          "type": "uint256"
        }
      ],
      "name": "Liquidation",
      "type": "event"
    },
    {
      "anonymous": false,
      "inputs": [
        {
          "indexed": true,
          "internalType": "address",
          "name": "previousOwner",
          "type": "address"
        },
        {
          "indexed": true,
          "internalType": "address",
          "name": "newOwner",
          "type": "address"
        }
      ],
      "name": "OwnershipTransferred",
      "type": "event"
    },
    {
      "anonymous": false,
      "inputs": [
        {
          "indexed": true,
          "internalType": "address",
          "name": "account",
          "type": "address"
        },
        {
          "indexed": false,
          "internalType": "uint256",
          "name": "debtRepaid",
          "type": "uint256"
        },
        {
          "indexed": false,
          "internalType": "uint256",
          "name": "debtRemaining",
          "type": "uint256"
        },
        {
          "indexed": false,
          "internalType": "uint256",
          "name": "collateralAmount",
          "type": "uint256"
        }
      ],
      "name": "Repay",
      "type": "event"
    },
    {
      "anonymous": false,
      "inputs": [
        {
          "indexed": true,
          "internalType": "address",
          "name": "account",
          "type": "address"
        },
        {
          "indexed": false,
          "internalType": "uint256",
          "name": "amount",
          "type": "uint256"
        }
      ],
      "name": "Withdraw",
      "type": "event"
    },
    {
      "inputs": [],
      "name": "SCALING_FACTOR",
      "outputs": [
        {
          "internalType": "uint256",
          "name": "",
          "type": "uint256"
        }
      ],
      "stateMutability": "view",
      "type": "function"
    },
    {
      "inputs": [],
      "name": "SECONDS_IN_YEAR",
      "outputs": [
        {
          "internalType": "int128",
          "name": "",
          "type": "int128"
        }
      ],
      "stateMutability": "view",
      "type": "function"
    },
    {
      "inputs": [
        {
          "internalType": "uint256",
          "name": "_amount",
          "type": "uint256"
        }
      ],
      "name": "borrow",
      "outputs": [],
      "stateMutability": "nonpayable",
      "type": "function"
    },
    {
      "inputs": [],
      "name": "borrowThreshold",
      "outputs": [
        {
          "internalType": "uint256",
          "name": "",
          "type": "uint256"
        }
      ],
      "stateMutability": "view",
      "type": "function"
    },
    {
      "inputs": [
        {
          "internalType": "address",
          "name": "_account",
          "type": "address"
        }
      ],
      "name": "calcInterest",
      "outputs": [
        {
          "internalType": "uint256",
          "name": "interest",
          "type": "uint256"
        }
      ],
      "stateMutability": "view",
      "type": "function"
    },
    {
      "inputs": [
        {
          "internalType": "uint256",
          "name": "_amount",
          "type": "uint256"
        }
      ],
      "name": "claimLiquidationFees",
      "outputs": [],
      "stateMutability": "nonpayable",
      "type": "function"
    },
    {
      "inputs": [
        {
          "internalType": "uint256",
          "name": "_amount",
          "type": "uint256"
        }
      ],
      "name": "deposit",
      "outputs": [],
      "stateMutability": "nonpayable",
      "type": "function"
    },
    {
      "inputs": [
        {
          "internalType": "address",
          "name": "_account",
          "type": "address"
        }
      ],
      "name": "getCurrentCollateralRatio",
      "outputs": [
        {
          "internalType": "uint256",
          "name": "",
          "type": "uint256"
        }
      ],
      "stateMutability": "view",
      "type": "function"
    },
    {
      "inputs": [
        {
          "internalType": "address",
          "name": "_account",
          "type": "address"
        },
        {
          "internalType": "uint256",
          "name": "_totalDebt",
          "type": "uint256"
        }
      ],
      "name": "getForwardCollateralRatio",
      "outputs": [
        {
          "internalType": "uint256",
          "name": "",
          "type": "uint256"
        }
      ],
      "stateMutability": "view",
      "type": "function"
    },
    {
      "inputs": [
        {
          "internalType": "address",
          "name": "_account",
          "type": "address"
        }
      ],
      "name": "getLiquidationFees",
      "outputs": [
        {
          "internalType": "uint256",
          "name": "",
          "type": "uint256"
        }
      ],
      "stateMutability": "view",
      "type": "function"
    },
    {
      "inputs": [
        {
          "internalType": "address",
          "name": "_account",
          "type": "address"
        }
      ],
      "name": "getPosition",
      "outputs": [
        {
          "internalType": "uint256",
          "name": "",
          "type": "uint256"
        },
        {
          "internalType": "uint256",
          "name": "",
          "type": "uint256"
        },
        {
          "internalType": "uint256",
          "name": "",
          "type": "uint256"
        },
        {
          "internalType": "uint256",
          "name": "",
          "type": "uint256"
        }
      ],
      "stateMutability": "view",
      "type": "function"
    },
    {
      "inputs": [],
      "name": "interestRate",
      "outputs": [
        {
          "internalType": "uint256",
          "name": "",
          "type": "uint256"
        }
      ],
      "stateMutability": "view",
      "type": "function"
    },
    {
      "inputs": [
        {
          "internalType": "address",
          "name": "_account",
          "type": "address"
        }
      ],
      "name": "isLiquidatable",
      "outputs": [
        {
          "internalType": "uint256",
          "name": "",
          "type": "uint256"
        },
        {
          "internalType": "bool",
          "name": "",
          "type": "bool"
        }
      ],
      "stateMutability": "view",
      "type": "function"
    },
    {
      "inputs": [],
      "name": "liqFeeProtocol",
      "outputs": [
        {
          "internalType": "uint256",
          "name": "",
          "type": "uint256"
        }
      ],
      "stateMutability": "view",
      "type": "function"
    },
    {
      "inputs": [],
      "name": "liqFeeSender",
      "outputs": [
        {
          "internalType": "uint256",
          "name": "",
          "type": "uint256"
        }
      ],
      "stateMutability": "view",
      "type": "function"
    },
    {
      "inputs": [],
      "name": "liqThreshold",
      "outputs": [
        {
          "internalType": "uint256",
          "name": "",
          "type": "uint256"
        }
      ],
      "stateMutability": "view",
      "type": "function"
    },
    {
      "inputs": [
        {
          "internalType": "address",
          "name": "_account",
          "type": "address"
        }
      ],
      "name": "liquidate",
      "outputs": [],
      "stateMutability": "nonpayable",
      "type": "function"
    },
    {
      "inputs": [],
      "name": "owner",
      "outputs": [
        {
          "internalType": "address",
          "name": "",
          "type": "address"
        }
      ],
      "stateMutability": "view",
      "type": "function"
    },
    {
      "inputs": [],
      "name": "protocolDebt",
      "outputs": [
        {
          "internalType": "uint256",
          "name": "",
          "type": "uint256"
        }
      ],
      "stateMutability": "view",
      "type": "function"
    },
    {
      "inputs": [],
      "name": "protocolIntRev",
      "outputs": [
        {
          "internalType": "uint256",
          "name": "",
          "type": "uint256"
        }
      ],
      "stateMutability": "view",
      "type": "function"
    },
    {
      "inputs": [],
      "name": "renounceOwnership",
      "outputs": [],
      "stateMutability": "nonpayable",
      "type": "function"
    },
    {
      "inputs": [
        {
          "internalType": "uint256",
          "name": "_amount",
          "type": "uint256"
        }
      ],
      "name": "repay",
      "outputs": [],
      "stateMutability": "nonpayable",
      "type": "function"
    },
    {
      "inputs": [
        {
          "internalType": "uint256",
          "name": "_liqFeeProtocol",
          "type": "uint256"
        },
        {
          "internalType": "uint256",
          "name": "_liqFeeSender",
          "type": "uint256"
        },
        {
          "internalType": "uint256",
          "name": "_interestRate",
          "type": "uint256"
        }
      ],
      "name": "setFeesAndRates",
      "outputs": [],
      "stateMutability": "nonpayable",
      "type": "function"
    },
    {
      "inputs": [
        {
          "internalType": "address",
          "name": "_sushiRouter",
          "type": "address"
        }
      ],
      "name": "setSushiAddresses",
      "outputs": [],
      "stateMutability": "nonpayable",
      "type": "function"
    },
    {
      "inputs": [
        {
          "internalType": "uint256",
          "name": "_borrowThreshold",
          "type": "uint256"
        },
        {
          "internalType": "uint256",
          "name": "_liqThreshold",
          "type": "uint256"
        }
      ],
      "name": "setThresholds",
      "outputs": [],
      "stateMutability": "nonpayable",
      "type": "function"
    },
    {
      "inputs": [
        {
          "internalType": "address",
          "name": "_usdz",
          "type": "address"
        },
        {
          "internalType": "address",
          "name": "_usdc",
          "type": "address"
        },
        {
          "internalType": "address",
          "name": "_xsushi",
          "type": "address"
        }
      ],
      "name": "setTokenAddresses",
      "outputs": [],
      "stateMutability": "nonpayable",
      "type": "function"
    },
    {
      "inputs": [],
      "name": "sushiRouterAddress",
      "outputs": [
        {
          "internalType": "address",
          "name": "",
          "type": "address"
        }
      ],
      "stateMutability": "view",
      "type": "function"
    },
    {
      "inputs": [
        {
          "internalType": "uint256",
          "name": "_usdcAmount",
          "type": "uint256"
        }
      ],
      "name": "swapUSDCforUSDZ",
      "outputs": [],
      "stateMutability": "nonpayable",
      "type": "function"
    },
    {
      "inputs": [
        {
          "internalType": "uint256",
          "name": "_usdzAmount",
          "type": "uint256"
        }
      ],
      "name": "swapUSDZforUSDC",
      "outputs": [],
      "stateMutability": "nonpayable",
      "type": "function"
    },
    {
      "inputs": [
        {
          "internalType": "address",
          "name": "newOwner",
          "type": "address"
        }
      ],
      "name": "transferOwnership",
      "outputs": [],
      "stateMutability": "nonpayable",
      "type": "function"
    },
    {
      "inputs": [],
      "name": "usdcAddress",
      "outputs": [
        {
          "internalType": "address",
          "name": "",
          "type": "address"
        }
      ],
      "stateMutability": "view",
      "type": "function"
    },
    {
      "inputs": [],
      "name": "usdzAddress",
      "outputs": [
        {
          "internalType": "address",
          "name": "",
          "type": "address"
        }
      ],
      "stateMutability": "view",
      "type": "function"
    },
    {
      "inputs": [
        {
          "internalType": "uint256",
          "name": "_amount",
          "type": "uint256"
        }
      ],
      "name": "withdraw",
      "outputs": [],
      "stateMutability": "nonpayable",
      "type": "function"
    },
    {
      "inputs": [],
      "name": "xSushiAddress",
      "outputs": [
        {
          "internalType": "address",
          "name": "",
          "type": "address"
        }
      ],
      "stateMutability": "view",
      "type": "function"
    },
    {
      "inputs": [
        {
          "internalType": "uint256",
          "name": "",
          "type": "uint256"
        }
      ],
      "name": "xSushiToUsdcPath",
      "outputs": [
        {
          "internalType": "address",
          "name": "",
          "type": "address"
        }
      ],
      "stateMutability": "view",
      "type": "function"
    }
  ],
  "bytecode": "0x60806040523480156200001157600080fd5b506040516200546638038062005466833981810160405281019062000037919062000586565b600062000049620003c560201b60201c565b9050806000806101000a81548173ffffffffffffffffffffffffffffffffffffffff021916908373ffffffffffffffffffffffffffffffffffffffff1602179055508073ffffffffffffffffffffffffffffffffffffffff16600073ffffffffffffffffffffffffffffffffffffffff167f8be0079c531659141344cd1fd0a4f28419497f9722a3daafe3b4186f6b6457e060405160405180910390a35089600660006101000a81548173ffffffffffffffffffffffffffffffffffffffff021916908373ffffffffffffffffffffffffffffffffffffffff16021790555088600560006101000a81548173ffffffffffffffffffffffffffffffffffffffff021916908373ffffffffffffffffffffffffffffffffffffffff16021790555087600760006101000a81548173ffffffffffffffffffffffffffffffffffffffff021916908373ffffffffffffffffffffffffffffffffffffffff16021790555086600860006101000a81548173ffffffffffffffffffffffffffffffffffffffff021916908373ffffffffffffffffffffffffffffffffffffffff16021790555084600a8190555083600b8190555082600c8190555081600d8190555080600e81905550856009908051906020019062000226929190620003f1565b50620002416301e18558620003cd60201b6200299a1760201c565b600f60006101000a8154816fffffffffffffffffffffffffffffffff0219169083600f0b6fffffffffffffffffffffffffffffffff160217905550600760009054906101000a900473ffffffffffffffffffffffffffffffffffffffff1673ffffffffffffffffffffffffffffffffffffffff1663095ea7b3600860009054906101000a900473ffffffffffffffffffffffffffffffffffffffff167fffffffffffffffffffffffffffffffffffffffffffffffffffffffffffffffff6040518363ffffffff1660e01b81526004016200031d9291906200071f565b602060405180830381600087803b1580156200033857600080fd5b505af11580156200034d573d6000803e3d6000fd5b505050506040513d601f19601f820116820180604052508101906200037391906200068f565b620003b5576040517f08c379a0000000000000000000000000000000000000000000000000000000008152600401620003ac906200074c565b60405180910390fd5b50505050505050505050620008a9565b600033905090565b6000677fffffffffffffff821115620003e557600080fd5b604082901b9050919050565b8280548282559060005260206000209081019282156200046d579160200282015b828111156200046c5782518260006101000a81548173ffffffffffffffffffffffffffffffffffffffff021916908373ffffffffffffffffffffffffffffffffffffffff1602179055509160200191906001019062000412565b5b5090506200047c919062000480565b5090565b5b808211156200049b57600081600090555060010162000481565b5090565b6000620004b6620004b084620007a2565b6200076e565b90508083825260208201905082856020860282011115620004d657600080fd5b60005b858110156200050a5781620004ef888262000514565b845260208401935060208301925050600181019050620004d9565b5050509392505050565b60008151905062000525816200085b565b92915050565b600082601f8301126200053d57600080fd5b81516200054f8482602086016200049f565b91505092915050565b600081519050620005698162000875565b92915050565b60008151905062000580816200088f565b92915050565b6000806000806000806000806000806101408b8d031215620005a757600080fd5b6000620005b78d828e0162000514565b9a50506020620005ca8d828e0162000514565b9950506040620005dd8d828e0162000514565b9850506060620005f08d828e0162000514565b97505060808b015167ffffffffffffffff8111156200060e57600080fd5b6200061c8d828e016200052b565b96505060a06200062f8d828e016200056f565b95505060c0620006428d828e016200056f565b94505060e0620006558d828e016200056f565b935050610100620006698d828e016200056f565b9250506101206200067d8d828e016200056f565b9150509295989b9194979a5092959850565b600060208284031215620006a257600080fd5b6000620006b28482850162000558565b91505092915050565b620006c681620007e2565b82525050565b6000620006db601583620007d1565b91507f78737573686920617070726f7665206661696c656400000000000000000000006000830152602082019050919050565b620007198162000822565b82525050565b6000604082019050620007366000830185620006bb565b6200074560208301846200070e565b9392505050565b600060208201905081810360008301526200076781620006cc565b9050919050565b6000604051905081810181811067ffffffffffffffff821117156200079857620007976200082c565b5b8060405250919050565b600067ffffffffffffffff821115620007c057620007bf6200082c565b5b602082029050602081019050919050565b600082825260208201905092915050565b6000620007ef8262000802565b9050919050565b60008115159050919050565b600073ffffffffffffffffffffffffffffffffffffffff82169050919050565b6000819050919050565b7f4e487b7100000000000000000000000000000000000000000000000000000000600052604160045260246000fd5b6200086681620007e2565b81146200087257600080fd5b50565b6200088081620007f6565b81146200088c57600080fd5b50565b6200089a8162000822565b8114620008a657600080fd5b50565b614bad80620008b96000396000f3fe608060405234801561001057600080fd5b50600436106102115760003560e01c80637348725111610125578063bfaf48d4116100ad578063de0bb74f1161007c578063de0bb74f146105f6578063e3064a7714610612578063ef4cadc51461062e578063f248e7e81461064c578063f2fde38b1461066857610211565b8063bfaf48d414610572578063c5ebeaec1461058e578063cde5f672146105aa578063daf5539e146105c657610211565b8063927e0a8f116100f4578063927e0a8f146104de578063ae2293d7146104fc578063b6b55f251461051a578063bd48b2df14610536578063bdfccad31461055457610211565b8063734872511461046657806379bbce8f146104845780637c3a00fd146104a25780638da5cb5b146104c057610211565b8063371fd8e6116101a85780635ae547e3116101775780635ae547e3146103c05780635dcc9391146103de57806369cb89c7146103fc5780637046b7a91461042c578063715018a61461045c57610211565b8063371fd8e61461033a578063410e73f7146103565780634a63a5ce146103745780634d3f9d3e146103a457610211565b806320809c6b116101e457806320809c6b146102b457806320bdf800146102e45780632e1a7d4d146103025780632f8655681461031e57610211565b806302d4545714610216578063042e02cf1461023457806316c19739146102655780631d89b10314610298575b600080fd5b61021e610684565b60405161022b9190614363565b60405180910390f35b61024e60048036038101906102499190613a13565b6106aa565b60405161025c929190614724565b60405180910390f35b61027f600480360381019061027a9190613a13565b6106f1565b60405161028f94939291906147de565b60405180910390f35b6102b260048036038101906102ad9190613b31565b6107e2565b005b6102ce60048036038101906102c99190613a13565b610a17565b6040516102db91906146d9565b60405180910390f35b6102ec610a60565b6040516102f99190614363565b60405180910390f35b61031c60048036038101906103179190613b31565b610a86565b005b61033860048036038101906103339190613a13565b610d78565b005b610354600480360381019061034f9190613b31565b6111a9565b005b61035e61164d565b60405161036b91906146d9565b60405180910390f35b61038e60048036038101906103899190613b31565b611653565b60405161039b9190614363565b60405180910390f35b6103be60048036038101906103b99190613a3c565b611692565b005b6103c86118b8565b6040516103d591906146d9565b60405180910390f35b6103e66118be565b6040516103f391906143de565b60405180910390f35b61041660048036038101906104119190613a13565b6118d1565b60405161042391906146d9565b60405180910390f35b61044660048036038101906104419190613a8b565b611b40565b60405161045391906146d9565b60405180910390f35b610464611b54565b005b61046e611c8e565b60405161047b91906146d9565b60405180910390f35b61048c611c94565b6040516104999190614363565b60405180910390f35b6104aa611cba565b6040516104b791906146d9565b60405180910390f35b6104c8611cc0565b6040516104d59190614363565b60405180910390f35b6104e6611ce9565b6040516104f391906146d9565b60405180910390f35b610504611cef565b60405161051191906146d9565b60405180910390f35b610534600480360381019061052f9190613b31565b611cf5565b005b61053e611e8f565b60405161054b91906146d9565b60405180910390f35b61055c611e95565b6040516105699190614363565b60405180910390f35b61058c60048036038101906105879190613bbf565b611ebb565b005b6105a860048036038101906105a39190613b31565b611fe6565b005b6105c460048036038101906105bf9190613b31565b6121fe565b005b6105e060048036038101906105db9190613a13565b6123c3565b6040516105ed91906146d9565b60405180910390f35b610610600480360381019061060b9190613b31565b612418565b005b61062c60048036038101906106279190613b83565b6125a3565b005b6106366126bb565b60405161064391906146d9565b60405180910390f35b61066660048036038101906106619190613a13565b6126c1565b005b610682600480360381019061067d9190613a13565b6127f1565b005b600560009054906101000a900473ffffffffffffffffffffffffffffffffffffffff1681565b60008060008060006106bb866106f1565b909192505080925081935050506106dd8682846106d891906148cf565b611b40565b925082600e54841094509450505050915091565b600080600080610700856118d1565b50600160008673ffffffffffffffffffffffffffffffffffffffff1673ffffffffffffffffffffffffffffffffffffffff16815260200190815260200160002060000154600160008773ffffffffffffffffffffffffffffffffffffffff1673ffffffffffffffffffffffffffffffffffffffff16815260200190815260200160002060010154610790876118d1565b600160008973ffffffffffffffffffffffffffffffffffffffff1673ffffffffffffffffffffffffffffffffffffffff1681526020019081526020016000206002015493509350935093509193509193565b6000600560009054906101000a900473ffffffffffffffffffffffffffffffffffffffff1673ffffffffffffffffffffffffffffffffffffffff166370a08231306040518263ffffffff1660e01b815260040161083f9190614363565b60206040518083038186803b15801561085757600080fd5b505afa15801561086b573d6000803e3d6000fd5b505050506040513d601f19601f8201168201806040525081019061088f9190613b5a565b9050818110156108d4576040517f08c379a00000000000000000000000000000000000000000000000000000000081526004016108cb90614599565b60405180910390fd5b600660009054906101000a900473ffffffffffffffffffffffffffffffffffffffff1673ffffffffffffffffffffffffffffffffffffffff16639dc29fac33846040518363ffffffff1660e01b81526004016109319291906143b5565b600060405180830381600087803b15801561094b57600080fd5b505af115801561095f573d6000803e3d6000fd5b50505050600560009054906101000a900473ffffffffffffffffffffffffffffffffffffffff1673ffffffffffffffffffffffffffffffffffffffff1663a9059cbb33846040518363ffffffff1660e01b81526004016109c09291906143b5565b602060405180830381600087803b1580156109da57600080fd5b505af11580156109ee573d6000803e3d6000fd5b505050506040513d601f19601f82011682018060405250810190610a129190613b08565b505050565b6000600260008373ffffffffffffffffffffffffffffffffffffffff1673ffffffffffffffffffffffffffffffffffffffff168152602001908152602001600020549050919050565b600660009054906101000a900473ffffffffffffffffffffffffffffffffffffffff1681565b6000600160003373ffffffffffffffffffffffffffffffffffffffff1673ffffffffffffffffffffffffffffffffffffffff16815260200190815260200160002090508181600001541015610b10576040517f08c379a0000000000000000000000000000000000000000000000000000000008152600401610b07906146b9565b60405180910390fd5b6000610b1b336118d1565b905080826001016000828254610b3191906148cf565b925050819055504282600201819055506000610b4c336123c3565b9050600d548111610b92576040517f08c379a0000000000000000000000000000000000000000000000000000000008152600401610b8990614459565b60405180910390fd5b60008084600101541415610bac5783600001549050610bd7565b600d5482610bba91906149b0565b828560000154610bca9190614925565b610bd49190614956565b90505b84811015610c1a576040517f08c379a0000000000000000000000000000000000000000000000000000000008152600401610c1190614519565b60405180910390fd5b84846000016000828254610c2e91906149b0565b92505081905550600760009054906101000a900473ffffffffffffffffffffffffffffffffffffffff1673ffffffffffffffffffffffffffffffffffffffff1663a9059cbb33876040518363ffffffff1660e01b8152600401610c929291906143b5565b602060405180830381600087803b158015610cac57600080fd5b505af1158015610cc0573d6000803e3d6000fd5b505050506040513d601f19601f82011682018060405250810190610ce49190613b08565b610d23576040517f08c379a0000000000000000000000000000000000000000000000000000000008152600401610d1a906144d9565b60405180910390fd5b3373ffffffffffffffffffffffffffffffffffffffff167f884edad9ce6fa2440d8a54cc123490eb96d2768479d49ff9c7366125a942436486604051610d6991906146d9565b60405180910390a25050505050565b6000600160008373ffffffffffffffffffffffffffffffffffffffff1673ffffffffffffffffffffffffffffffffffffffff16815260200190815260200160002090506000816000015411610e02576040517f08c379a0000000000000000000000000000000000000000000000000000000008152600401610df9906144b9565b60405180910390fd5b6000610e0d836118d1565b90506000826000015490506000610e3385848660010154610e2e91906148cf565b611b40565b9050600e548110610e79576040517f08c379a0000000000000000000000000000000000000000000000000000000008152600401610e7090614639565b60405180910390fd5b6000612710600a548660000154610e909190614956565b610e9a9190614925565b90506000612710600b548760000154610eb39190614956565b610ebd9190614925565b905085600001548183610ed091906148cf565b1115610f11576040517f08c379a0000000000000000000000000000000000000000000000000000000008152600401610f0890614619565b60405180910390fd5b81600260003073ffffffffffffffffffffffffffffffffffffffff1673ffffffffffffffffffffffffffffffffffffffff1681526020019081526020016000206000828254610f6091906148cf565b9250508190555080600260003373ffffffffffffffffffffffffffffffffffffffff1673ffffffffffffffffffffffffffffffffffffffff1681526020019081526020016000206000828254610fb691906148cf565b9250508190555060008183610fcb91906148cf565b8760000154610fda91906149b0565b9050600860009054906101000a900473ffffffffffffffffffffffffffffffffffffffff1673ffffffffffffffffffffffffffffffffffffffff166338ed1739826000600930426040518663ffffffff1660e01b815260040161104195949392919061474d565b600060405180830381600087803b15801561105b57600080fd5b505af115801561106f573d6000803e3d6000fd5b505050506040513d6000823e3d601f19601f820116820180604052508101906110989190613ac7565b5081836110a591906148cf565b856110b091906149b0565b876000018190555060006110d389888a600101546110ce91906148cf565b611b40565b90506000612710821015611101578860000154826127106110f491906149b0565b6110fe9190614956565b90505b806003600082825461111391906148cf565b925050819055503373ffffffffffffffffffffffffffffffffffffffff168a73ffffffffffffffffffffffffffffffffffffffff167fc70fd1eb40d7ae44a5425c09dece5a023b47277356e005b6caef1600cfc7334e89898d600101548660405161118194939291906147de565b60405180910390a3600089600001819055506000896001018190555050505050505050505050565b600081116111ec576040517f08c379a00000000000000000000000000000000000000000000000000000000081526004016111e3906145f9565b60405180910390fd5b6000600160003373ffffffffffffffffffffffffffffffffffffffff1673ffffffffffffffffffffffffffffffffffffffff1681526020019081526020016000209050600061123a336118d1565b905081600101548161124c91906148cf565b831061137957600660009054906101000a900473ffffffffffffffffffffffffffffffffffffffff1673ffffffffffffffffffffffffffffffffffffffff166323b872dd33308486600101546112a291906148cf565b6040518463ffffffff1660e01b81526004016112c09392919061437e565b602060405180830381600087803b1580156112da57600080fd5b505af11580156112ee573d6000803e3d6000fd5b505050506040513d601f19601f820116820180604052508101906113129190613b08565b611351576040517f08c379a0000000000000000000000000000000000000000000000000000000008152600401611348906145b9565b60405180910390fd5b806004600082825461136391906148cf565b92505081905550600082600101819055506115e5565b8083106114b457600660009054906101000a900473ffffffffffffffffffffffffffffffffffffffff1673ffffffffffffffffffffffffffffffffffffffff166323b872dd3330866040518463ffffffff1660e01b81526004016113df9392919061437e565b602060405180830381600087803b1580156113f957600080fd5b505af115801561140d573d6000803e3d6000fd5b505050506040513d601f19601f820116820180604052508101906114319190613b08565b611470576040517f08c379a0000000000000000000000000000000000000000000000000000000008152600401611467906145b9565b60405180910390fd5b826004600082825461148291906148cf565b92505081905550808361149591906149b0565b8260010160008282546114a891906149b0565b925050819055506115e4565b600660009054906101000a900473ffffffffffffffffffffffffffffffffffffffff1673ffffffffffffffffffffffffffffffffffffffff166323b872dd3330866040518463ffffffff1660e01b81526004016115139392919061437e565b602060405180830381600087803b15801561152d57600080fd5b505af1158015611541573d6000803e3d6000fd5b505050506040513d601f19601f820116820180604052508101906115659190613b08565b6115a4576040517f08c379a000000000000000000000000000000000000000000000000000000000815260040161159b906145b9565b60405180910390fd5b82600460008282546115b691906148cf565b9250508190555082816115c991906149b0565b8260010160008282546115dc91906148cf565b925050819055505b5b4282600201819055503373ffffffffffffffffffffffffffffffffffffffff167f2fe77b1c99aca6b022b8efc6e3e8dd1b48b30748709339b65c50ef3263443e098484600101548560000154604051611640939291906147a7565b60405180910390a2505050565b600a5481565b6009818154811061166357600080fd5b906000526020600020016000915054906101000a900473ffffffffffffffffffffffffffffffffffffffff1681565b61169a6129bd565b73ffffffffffffffffffffffffffffffffffffffff166116b8611cc0565b73ffffffffffffffffffffffffffffffffffffffff161461170e576040517f08c379a0000000000000000000000000000000000000000000000000000000008152600401611705906145d9565b60405180910390fd5b600073ffffffffffffffffffffffffffffffffffffffff168373ffffffffffffffffffffffffffffffffffffffff16141580156117785750600073ffffffffffffffffffffffffffffffffffffffff168273ffffffffffffffffffffffffffffffffffffffff1614155b80156117b15750600073ffffffffffffffffffffffffffffffffffffffff168173ffffffffffffffffffffffffffffffffffffffff1614155b6117f0576040517f08c379a00000000000000000000000000000000000000000000000000000000081526004016117e790614559565b60405180910390fd5b82600660006101000a81548173ffffffffffffffffffffffffffffffffffffffff021916908373ffffffffffffffffffffffffffffffffffffffff16021790555081600560006101000a81548173ffffffffffffffffffffffffffffffffffffffff021916908373ffffffffffffffffffffffffffffffffffffffff16021790555080600760006101000a81548173ffffffffffffffffffffffffffffffffffffffff021916908373ffffffffffffffffffffffffffffffffffffffff160217905550505050565b600d5481565b600f60009054906101000a9004600f0b81565b600080600160008473ffffffffffffffffffffffffffffffffffffffff1673ffffffffffffffffffffffffffffffffffffffff16815260200190815260200160002060010154148061196557506000600160008473ffffffffffffffffffffffffffffffffffffffff1673ffffffffffffffffffffffffffffffffffffffff16815260200190815260200160002060020154145b8061197257506000600c54145b806119be5750600160008373ffffffffffffffffffffffffffffffffffffffff1673ffffffffffffffffffffffffffffffffffffffff1681526020019081526020016000206002015442145b156119cc5760009050611b3b565b6000600160008473ffffffffffffffffffffffffffffffffffffffff1673ffffffffffffffffffffffffffffffffffffffff1681526020019081526020016000206002015442611a1c91906149b0565b90506000611a41611a2c8361299a565b600f60009054906101000a9004600f0b6129c5565b90506000611a63611a53600c5461299a565b611a5e61271061299a565b6129c5565b90506000611ab2600160008873ffffffffffffffffffffffffffffffffffffffff1673ffffffffffffffffffffffffffffffffffffffff1681526020019081526020016000206001015461299a565b90506000611ad9611ad483611acf611aca8789612a75565b612ae0565b612a75565b612b59565b9050600160008873ffffffffffffffffffffffffffffffffffffffff1673ffffffffffffffffffffffffffffffffffffffff168152602001908152602001600020600101548167ffffffffffffffff16611b3391906149b0565b955050505050505b919050565b6000611b4c8383612b7a565b905092915050565b611b5c6129bd565b73ffffffffffffffffffffffffffffffffffffffff16611b7a611cc0565b73ffffffffffffffffffffffffffffffffffffffff1614611bd0576040517f08c379a0000000000000000000000000000000000000000000000000000000008152600401611bc7906145d9565b60405180910390fd5b600073ffffffffffffffffffffffffffffffffffffffff1660008054906101000a900473ffffffffffffffffffffffffffffffffffffffff1673ffffffffffffffffffffffffffffffffffffffff167f8be0079c531659141344cd1fd0a4f28419497f9722a3daafe3b4186f6b6457e060405160405180910390a360008060006101000a81548173ffffffffffffffffffffffffffffffffffffffff021916908373ffffffffffffffffffffffffffffffffffffffff160217905550565b60045481565b600860009054906101000a900473ffffffffffffffffffffffffffffffffffffffff1681565b600c5481565b60008060009054906101000a900473ffffffffffffffffffffffffffffffffffffffff16905090565b60035481565b600e5481565b600760009054906101000a900473ffffffffffffffffffffffffffffffffffffffff1673ffffffffffffffffffffffffffffffffffffffff166323b872dd3330846040518463ffffffff1660e01b8152600401611d549392919061437e565b602060405180830381600087803b158015611d6e57600080fd5b505af1158015611d82573d6000803e3d6000fd5b505050506040513d601f19601f82011682018060405250810190611da69190613b08565b611de5576040517f08c379a0000000000000000000000000000000000000000000000000000000008152600401611ddc90614659565b60405180910390fd5b80600160003373ffffffffffffffffffffffffffffffffffffffff1673ffffffffffffffffffffffffffffffffffffffff1681526020019081526020016000206000016000828254611e3791906148cf565b925050819055503373ffffffffffffffffffffffffffffffffffffffff167fe1fffcc4923d04b559f4d29a8bfc6cda04eb5b0d3c460751c2402c5c5cc9109c82604051611e8491906146d9565b60405180910390a250565b600b5481565b600760009054906101000a900473ffffffffffffffffffffffffffffffffffffffff1681565b611ec36129bd565b73ffffffffffffffffffffffffffffffffffffffff16611ee1611cc0565b73ffffffffffffffffffffffffffffffffffffffff1614611f37576040517f08c379a0000000000000000000000000000000000000000000000000000000008152600401611f2e906145d9565b60405180910390fd5b6127108284611f4691906148cf565b1115611f87576040517f08c379a0000000000000000000000000000000000000000000000000000000008152600401611f7e90614539565b60405180910390fd5b82600a8190555081600b81905550612710811115611fda576040517f08c379a0000000000000000000000000000000000000000000000000000000008152600401611fd190614679565b60405180910390fd5b80600c81905550505050565b60008111612029576040517f08c379a000000000000000000000000000000000000000000000000000000000815260040161202090614499565b60405180910390fd5b6000600160003373ffffffffffffffffffffffffffffffffffffffff1673ffffffffffffffffffffffffffffffffffffffff16815260200190815260200160002090506000612077336118d1565b9050600d546120a0338584866001015461209191906148cf565b61209b91906148cf565b611b40565b10156120e1576040517f08c379a00000000000000000000000000000000000000000000000000000000081526004016120d890614419565b60405180910390fd5b80836120ed91906148cf565b82600101600082825461210091906148cf565b92505081905550428260020181905550600660009054906101000a900473ffffffffffffffffffffffffffffffffffffffff1673ffffffffffffffffffffffffffffffffffffffff166340c10f1933856040518363ffffffff1660e01b815260040161216d9291906143b5565b600060405180830381600087803b15801561218757600080fd5b505af115801561219b573d6000803e3d6000fd5b505050503373ffffffffffffffffffffffffffffffffffffffff167f13ed6866d4e1ee6da46f845c46d7e54120883d75c5ea9a2dacc1c4ca8984ab8084846001015485600001546040516121f1939291906147a7565b60405180910390a2505050565b60008111612241576040517f08c379a000000000000000000000000000000000000000000000000000000000815260040161223890614479565b60405180910390fd5b600560009054906101000a900473ffffffffffffffffffffffffffffffffffffffff1673ffffffffffffffffffffffffffffffffffffffff166323b872dd3330846040518463ffffffff1660e01b81526004016122a09392919061437e565b602060405180830381600087803b1580156122ba57600080fd5b505af11580156122ce573d6000803e3d6000fd5b505050506040513d601f19601f820116820180604052508101906122f29190613b08565b612331576040517f08c379a0000000000000000000000000000000000000000000000000000000008152600401612328906143f9565b60405180910390fd5b600660009054906101000a900473ffffffffffffffffffffffffffffffffffffffff1673ffffffffffffffffffffffffffffffffffffffff166340c10f1933836040518363ffffffff1660e01b815260040161238e9291906143b5565b600060405180830381600087803b1580156123a857600080fd5b505af11580156123bc573d6000803e3d6000fd5b5050505050565b600061241182600160008573ffffffffffffffffffffffffffffffffffffffff1673ffffffffffffffffffffffffffffffffffffffff16815260200190815260200160002060010154612b7a565b9050919050565b80600260003373ffffffffffffffffffffffffffffffffffffffff1673ffffffffffffffffffffffffffffffffffffffff16815260200190815260200160002054101561249a576040517f08c379a000000000000000000000000000000000000000000000000000000000815260040161249190614579565b60405180910390fd5b80600260003373ffffffffffffffffffffffffffffffffffffffff1673ffffffffffffffffffffffffffffffffffffffff16815260200190815260200160002060008282546124e991906149b0565b92505081905550600760009054906101000a900473ffffffffffffffffffffffffffffffffffffffff1673ffffffffffffffffffffffffffffffffffffffff1663a9059cbb33836040518363ffffffff1660e01b815260040161254d9291906143b5565b602060405180830381600087803b15801561256757600080fd5b505af115801561257b573d6000803e3d6000fd5b505050506040513d601f19601f8201168201806040525081019061259f9190613b08565b5050565b6125ab6129bd565b73ffffffffffffffffffffffffffffffffffffffff166125c9611cc0565b73ffffffffffffffffffffffffffffffffffffffff161461261f576040517f08c379a0000000000000000000000000000000000000000000000000000000008152600401612616906145d9565b60405180910390fd5b612710821015612664576040517f08c379a000000000000000000000000000000000000000000000000000000000815260040161265b906144f9565b60405180910390fd5b6127108110156126a9576040517f08c379a00000000000000000000000000000000000000000000000000000000081526004016126a090614699565b60405180910390fd5b81600d8190555080600e819055505050565b61271081565b6126c96129bd565b73ffffffffffffffffffffffffffffffffffffffff166126e7611cc0565b73ffffffffffffffffffffffffffffffffffffffff161461273d576040517f08c379a0000000000000000000000000000000000000000000000000000000008152600401612734906145d9565b60405180910390fd5b600073ffffffffffffffffffffffffffffffffffffffff168173ffffffffffffffffffffffffffffffffffffffff1614156127ad576040517f08c379a00000000000000000000000000000000000000000000000000000000081526004016127a490614559565b60405180910390fd5b80600860006101000a81548173ffffffffffffffffffffffffffffffffffffffff021916908373ffffffffffffffffffffffffffffffffffffffff16021790555050565b6127f96129bd565b73ffffffffffffffffffffffffffffffffffffffff16612817611cc0565b73ffffffffffffffffffffffffffffffffffffffff161461286d576040517f08c379a0000000000000000000000000000000000000000000000000000000008152600401612864906145d9565b60405180910390fd5b600073ffffffffffffffffffffffffffffffffffffffff168173ffffffffffffffffffffffffffffffffffffffff1614156128dd576040517f08c379a00000000000000000000000000000000000000000000000000000000081526004016128d490614439565b60405180910390fd5b8073ffffffffffffffffffffffffffffffffffffffff1660008054906101000a900473ffffffffffffffffffffffffffffffffffffffff1673ffffffffffffffffffffffffffffffffffffffff167f8be0079c531659141344cd1fd0a4f28419497f9722a3daafe3b4186f6b6457e060405160405180910390a3806000806101000a81548173ffffffffffffffffffffffffffffffffffffffff021916908373ffffffffffffffffffffffffffffffffffffffff16021790555050565b6000677fffffffffffffff8211156129b157600080fd5b604082901b9050919050565b600033905090565b60008082600f0b14156129d757600080fd5b600082600f0b604085600f0b901b81612a19577f4e487b7100000000000000000000000000000000000000000000000000000000600052601260045260246000fd5b0590507fffffffffffffffffffffffffffffffff80000000000000000000000000000000600f0b8112158015612a6257506f7fffffffffffffffffffffffffffffff600f0b8113155b612a6b57600080fd5b8091505092915050565b600080604083600f0b85600f0b02901d90507fffffffffffffffffffffffffffffffff80000000000000000000000000000000600f0b8112158015612acd57506f7fffffffffffffffffffffffffffffff600f0b8113155b612ad657600080fd5b8091505092915050565b60006840000000000000000082600f0b12612afa57600080fd5b7fffffffffffffffffffffffffffffffffffffffffffffffc0000000000000000082600f0b1215612b2e5760009050612b54565b612b516080700171547652b82fe1777d0ffda0d23a7d1284600f0b02901d612d29565b90505b919050565b60008082600f0b1215612b6b57600080fd5b604082600f0b901d9050919050565b600080600160008573ffffffffffffffffffffffffffffffffffffffff1673ffffffffffffffffffffffffffffffffffffffff1681526020019081526020016000206000015490506000811415612bd5576000915050612d23565b6000831415612c07577fffffffffffffffffffffffffffffffffffffffffffffffffffffffffffffffff915050612d23565b6000600860009054906101000a900473ffffffffffffffffffffffffffffffffffffffff16905060008173ffffffffffffffffffffffffffffffffffffffff1663d06ca61f8460096040518363ffffffff1660e01b8152600401612c6c9291906146f4565b60006040518083038186803b158015612c8457600080fd5b505afa158015612c98573d6000803e3d6000fd5b505050506040513d6000823e3d601f19601f82011682018060405250810190612cc19190613ac7565b600281518110612cfa577f4e487b7100000000000000000000000000000000000000000000000000000000600052603260045260246000fd5b602002602001015190508461271082612d139190614956565b612d1d9190614925565b93505050505b92915050565b60006840000000000000000082600f0b12612d4357600080fd5b7fffffffffffffffffffffffffffffffffffffffffffffffc0000000000000000082600f0b1215612d775760009050613924565b60006f80000000000000000000000000000000905060006780000000000000008416600f0b1315612dbd57608070016a09e667f3bcc908b2fb1366ea957d3e8202901c90505b60006740000000000000008416600f0b1315612dee5760807001306fe0a31b7152de8d5a46305c85edec8202901c90505b60006720000000000000008416600f0b1315612e1f5760807001172b83c7d517adcdf7c8c50eb14a791f8202901c90505b60006710000000000000008416600f0b1315612e5057608070010b5586cf9890f6298b92b71842a983638202901c90505b60006708000000000000008416600f0b1315612e815760807001059b0d31585743ae7c548eb68ca417fd8202901c90505b60006704000000000000008416600f0b1315612eb2576080700102c9a3e778060ee6f7caca4f7a29bde88202901c90505b60006702000000000000008416600f0b1315612ee357608070010163da9fb33356d84a66ae336dcdfa3f8202901c90505b60006701000000000000008416600f0b1315612f14576080700100b1afa5abcbed6129ab13ec11dc95438202901c90505b600066800000000000008416600f0b1315612f4457608070010058c86da1c09ea1ff19d294cf2f679b8202901c90505b600066400000000000008416600f0b1315612f745760807001002c605e2e8cec506d21bfc89a23a00f8202901c90505b600066200000000000008416600f0b1315612fa4576080700100162f3904051fa128bca9c55c31e5df8202901c90505b600066100000000000008416600f0b1315612fd45760807001000b175effdc76ba38e31671ca9397258202901c90505b600066080000000000008416600f0b1315613004576080700100058ba01fb9f96d6cacd4b180917c3d8202901c90505b600066040000000000008416600f0b131561303457608070010002c5cc37da9491d0985c348c68e7b38202901c90505b600066020000000000008416600f0b13156130645760807001000162e525ee054754457d59952920268202901c90505b600066010000000000008416600f0b131561309457608070010000b17255775c040618bf4a4ade83fc8202901c90505b6000658000000000008416600f0b13156130c35760807001000058b91b5bc9ae2eed81e9b7d4cfab8202901c90505b6000654000000000008416600f0b13156130f2576080700100002c5c89d5ec6ca4d7c8acc017b7c98202901c90505b6000652000000000008416600f0b131561312157608070010000162e43f4f831060e02d839a9d16d8202901c90505b6000651000000000008416600f0b1315613150576080700100000b1721bcfc99d9f890ea069117638202901c90505b6000650800000000008416600f0b131561317f57608070010000058b90cf1e6d97f9ca14dbcc16288202901c90505b6000650400000000008416600f0b13156131ae5760807001000002c5c863b73f016468f6bac5ca2b8202901c90505b6000650200000000008416600f0b13156131dd576080700100000162e430e5a18f6119e3c02282a58202901c90505b6000650100000000008416600f0b131561320c5760807001000000b1721835514b86e6d96efd1bfe8202901c90505b60006480000000008416600f0b131561323a576080700100000058b90c0b48c6be5df846c5b2ef8202901c90505b60006440000000008416600f0b131561326857608070010000002c5c8601cc6b9e94213c72737a8202901c90505b60006420000000008416600f0b13156132965760807001000000162e42fff037df38aa2b219f068202901c90505b60006410000000008416600f0b13156132c457608070010000000b17217fba9c739aa5819f44f98202901c90505b60006408000000008416600f0b13156132f25760807001000000058b90bfcdee5acd3c1cedc8238202901c90505b60006404000000008416600f0b1315613320576080700100000002c5c85fe31f35a6a30da1be508202901c90505b60006402000000008416600f0b131561334e57608070010000000162e42ff0999ce3541b9fffcf8202901c90505b60006401000000008416600f0b131561337c576080700100000000b17217f80f4ef5aadda455548202901c90505b600063800000008416600f0b13156133a957608070010000000058b90bfbf8479bd5a81b51ad8202901c90505b600063400000008416600f0b13156133d65760807001000000002c5c85fdf84bd62ae30a74cc8202901c90505b600063200000008416600f0b1315613403576080700100000000162e42fefb2fed257559bdaa8202901c90505b600063100000008416600f0b13156134305760807001000000000b17217f7d5a7716bba4a9ae8202901c90505b600063080000008416600f0b131561345d576080700100000000058b90bfbe9ddbac5e109cce8202901c90505b600063040000008416600f0b131561348a57608070010000000002c5c85fdf4b15de6f17eb0d8202901c90505b600063020000008416600f0b13156134b75760807001000000000162e42fefa494f1478fde058202901c90505b600063010000008416600f0b13156134e457608070010000000000b17217f7d20cf927c8e94c8202901c90505b6000628000008416600f0b13156135105760807001000000000058b90bfbe8f71cb4e4b33d8202901c90505b6000624000008416600f0b131561353c576080700100000000002c5c85fdf477b662b269458202901c90505b6000622000008416600f0b131561356857608070010000000000162e42fefa3ae53369388c8202901c90505b6000621000008416600f0b1315613594576080700100000000000b17217f7d1d351a389d408202901c90505b6000620800008416600f0b13156135c057608070010000000000058b90bfbe8e8b2d3d4ede8202901c90505b6000620400008416600f0b13156135ec5760807001000000000002c5c85fdf4741bea6e77e8202901c90505b6000620200008416600f0b1315613618576080700100000000000162e42fefa39fe95583c28202901c90505b6000620100008416600f0b13156136445760807001000000000000b17217f7d1cfb72b45e18202901c90505b60006180008416600f0b131561366f576080700100000000000058b90bfbe8e7cc35c3f08202901c90505b60006140008416600f0b131561369a57608070010000000000002c5c85fdf473e242ea388202901c90505b60006120008416600f0b13156136c55760807001000000000000162e42fefa39f02b772c8202901c90505b60006110008416600f0b13156136f057608070010000000000000b17217f7d1cf7d83c1a8202901c90505b60006108008416600f0b131561371b5760807001000000000000058b90bfbe8e7bdcbe2e8202901c90505b60006104008416600f0b1315613746576080700100000000000002c5c85fdf473dea871f8202901c90505b60006102008416600f0b131561377157608070010000000000000162e42fefa39ef44d918202901c90505b60006101008416600f0b131561379c576080700100000000000000b17217f7d1cf79e9498202901c90505b600060808416600f0b13156137c657608070010000000000000058b90bfbe8e7bce5448202901c90505b600060408416600f0b13156137f05760807001000000000000002c5c85fdf473de6eca8202901c90505b600060208416600f0b131561381a576080700100000000000000162e42fefa39ef366f8202901c90505b600060108416600f0b13156138445760807001000000000000000b17217f7d1cf79afa8202901c90505b600060088416600f0b131561386e576080700100000000000000058b90bfbe8e7bcd6d8202901c90505b600060048416600f0b131561389857608070010000000000000002c5c85fdf473de6b28202901c90505b600060028416600f0b13156138c25760807001000000000000000162e42fefa39ef3588202901c90505b600060018416600f0b13156138ec57608070010000000000000000b17217f7d1cf79ab8202901c90505b604083600f0b901d603f03600f0b81901c90506f7fffffffffffffffffffffffffffffff600f0b81111561391f57600080fd5b809150505b919050565b600061393c61393784614854565b614823565b9050808382526020820190508285602086028201111561395b57600080fd5b60005b8581101561398b578161397188826139fe565b84526020840193506020830192505060018101905061395e565b5050509392505050565b6000813590506139a481614b32565b92915050565b600082601f8301126139bb57600080fd5b81516139cb848260208601613929565b91505092915050565b6000815190506139e381614b49565b92915050565b6000813590506139f881614b60565b92915050565b600081519050613a0d81614b60565b92915050565b600060208284031215613a2557600080fd5b6000613a3384828501613995565b91505092915050565b600080600060608486031215613a5157600080fd5b6000613a5f86828701613995565b9350506020613a7086828701613995565b9250506040613a8186828701613995565b9150509250925092565b60008060408385031215613a9e57600080fd5b6000613aac85828601613995565b9250506020613abd858286016139e9565b9150509250929050565b600060208284031215613ad957600080fd5b600082015167ffffffffffffffff811115613af357600080fd5b613aff848285016139aa565b91505092915050565b600060208284031215613b1a57600080fd5b6000613b28848285016139d4565b91505092915050565b600060208284031215613b4357600080fd5b6000613b51848285016139e9565b91505092915050565b600060208284031215613b6c57600080fd5b6000613b7a848285016139fe565b91505092915050565b60008060408385031215613b9657600080fd5b6000613ba4858286016139e9565b9250506020613bb5858286016139e9565b9150509250929050565b600080600060608486031215613bd457600080fd5b6000613be2868287016139e9565b9350506020613bf3868287016139e9565b9250506040613c04868287016139e9565b9150509250925092565b6000613c1a8383613c26565b60208301905092915050565b613c2f81614a04565b82525050565b613c3e81614a04565b82525050565b6000613c4f82614895565b613c5981856148ad565b9350613c6483614880565b8060005b83811015613c9c57613c7982614b12565b613c838882613c0e565b9750613c8e836148a0565b925050600181019050613c68565b5085935050505092915050565b613cb281614a16565b82525050565b613cc181614a22565b82525050565b613cd081614a59565b82525050565b6000613ce36014836148be565b91507f55534443207472616e73666572206661696c65640000000000000000000000006000830152602082019050919050565b6000613d236029836148be565b91507f6e6f7420656e6f75676820636f6c6c61746572616c20746f20626f72726f772060008301527f74686174206d75636800000000000000000000000000000000000000000000006020830152604082019050919050565b6000613d896026836148be565b91507f4f776e61626c653a206e6577206f776e657220697320746865207a65726f206160008301527f64647265737300000000000000000000000000000000000000000000000000006020830152604082019050919050565b6000613def6022836148be565b91507f6163636f756e7420616c72656164792062656c6f77207361666574792072617460008301527f696f0000000000000000000000000000000000000000000000000000000000006020830152604082019050919050565b6000613e556014836148be565b91507f63616e2774206d696e74207a65726f205553445a0000000000000000000000006000830152602082019050919050565b6000613e95600e836148be565b91507f63616e277420626f72726f7720300000000000000000000000000000000000006000830152602082019050919050565b6000613ed56019836148be565b91507f6163636f756e7420686173206e6f20636f6c6c61746572616c000000000000006000830152602082019050919050565b6000613f156018836148be565b91507f7769746864726177207472616e73666572206661696c656400000000000000006000830152602082019050919050565b6000613f556029836148be565b91507f626f72726f77207468726573686f6c64206d757374206265203e207363616c6960008301527f6e6720666163746f7200000000000000000000000000000000000000000000006020830152604082019050919050565b6000613fbb6019836148be565b91507f616d6f756e7420756e7361666520746f207769746864726177000000000000006000830152602082019050919050565b6000613ffb6015836148be565b91507f6c69712066656573206f7574206f662072616e676500000000000000000000006000830152602082019050919050565b600061403b6018836148be565b91507f7a65726f2061646472657373206e6f7420616c6c6f77656400000000000000006000830152602082019050919050565b600061407b601a836148be565b91507f616d6f756e7420686967686572207468616e2062616c616e63650000000000006000830152602082019050919050565b60006140bb6014836148be565b91507f55534443207265736572766520746f6f206c6f770000000000000000000000006000830152602082019050919050565b60006140fb6015836148be565b91507f7265706179207472616e73666572206661696c656400000000000000000000006000830152602082019050919050565b600061413b6020836148be565b91507f4f776e61626c653a2063616c6c6572206973206e6f7420746865206f776e65726000830152602082019050919050565b600061417b600d836148be565b91507f63616e27742072657061792030000000000000000000000000000000000000006000830152602082019050919050565b60006141bb6018836148be565b91507f6c6971206665657320696e636f72726563746c792073657400000000000000006000830152602082019050919050565b60006141fb601f836148be565b91507f6163636f756e74206e6f742062656c6f77206c6971207468726573686f6c64006000830152602082019050919050565b600061423b600e836148be565b91507f6465706f736974206661696c65640000000000000000000000000000000000006000830152602082019050919050565b600061427b6019836148be565b91507f696e74657265737452617465206f7574206f662072616e6765000000000000006000830152602082019050919050565b60006142bb6026836148be565b91507f6c6971207468726573686f6c64206d757374206265203e207363616c696e672060008301527f666163746f7200000000000000000000000000000000000000000000000000006020830152604082019050919050565b60006143216020836148be565b91507f6e6f7420656e6f75676820636f6c6c61746572616c20696e206163636f756e746000830152602082019050919050565b61435d81614a4f565b82525050565b60006020820190506143786000830184613c35565b92915050565b60006060820190506143936000830186613c35565b6143a06020830185613c35565b6143ad6040830184614354565b949350505050565b60006040820190506143ca6000830185613c35565b6143d76020830184614354565b9392505050565b60006020820190506143f36000830184613cb8565b92915050565b6000602082019050818103600083015261441281613cd6565b9050919050565b6000602082019050818103600083015261443281613d16565b9050919050565b6000602082019050818103600083015261445281613d7c565b9050919050565b6000602082019050818103600083015261447281613de2565b9050919050565b6000602082019050818103600083015261449281613e48565b9050919050565b600060208201905081810360008301526144b281613e88565b9050919050565b600060208201905081810360008301526144d281613ec8565b9050919050565b600060208201905081810360008301526144f281613f08565b9050919050565b6000602082019050818103600083015261451281613f48565b9050919050565b6000602082019050818103600083015261453281613fae565b9050919050565b6000602082019050818103600083015261455281613fee565b9050919050565b600060208201905081810360008301526145728161402e565b9050919050565b600060208201905081810360008301526145928161406e565b9050919050565b600060208201905081810360008301526145b2816140ae565b9050919050565b600060208201905081810360008301526145d2816140ee565b9050919050565b600060208201905081810360008301526145f28161412e565b9050919050565b600060208201905081810360008301526146128161416e565b9050919050565b60006020820190508181036000830152614632816141ae565b9050919050565b60006020820190508181036000830152614652816141ee565b9050919050565b600060208201905081810360008301526146728161422e565b9050919050565b600060208201905081810360008301526146928161426e565b9050919050565b600060208201905081810360008301526146b2816142ae565b9050919050565b600060208201905081810360008301526146d281614314565b9050919050565b60006020820190506146ee6000830184614354565b92915050565b60006040820190506147096000830185614354565b818103602083015261471b8184613c44565b90509392505050565b60006040820190506147396000830185614354565b6147466020830184613ca9565b9392505050565b600060a0820190506147626000830188614354565b61476f6020830187613cc7565b81810360408301526147818186613c44565b90506147906060830185613c35565b61479d6080830184614354565b9695505050505050565b60006060820190506147bc6000830186614354565b6147c96020830185614354565b6147d66040830184614354565b949350505050565b60006080820190506147f36000830187614354565b6148006020830186614354565b61480d6040830185614354565b61481a6060830184614354565b95945050505050565b6000604051905081810181811067ffffffffffffffff8211171561484a57614849614ae3565b5b8060405250919050565b600067ffffffffffffffff82111561486f5761486e614ae3565b5b602082029050602081019050919050565b60008190508160005260206000209050919050565b600081549050919050565b6000600182019050919050565b600082825260208201905092915050565b600082825260208201905092915050565b60006148da82614a4f565b91506148e583614a4f565b9250827fffffffffffffffffffffffffffffffffffffffffffffffffffffffffffffffff0382111561491a57614919614a85565b5b828201905092915050565b600061493082614a4f565b915061493b83614a4f565b92508261494b5761494a614ab4565b5b828204905092915050565b600061496182614a4f565b915061496c83614a4f565b9250817fffffffffffffffffffffffffffffffffffffffffffffffffffffffffffffffff04831182151516156149a5576149a4614a85565b5b828202905092915050565b60006149bb82614a4f565b91506149c683614a4f565b9250828210156149d9576149d8614a85565b5b828203905092915050565b600073ffffffffffffffffffffffffffffffffffffffff82169050919050565b6000614a0f82614a2f565b9050919050565b60008115159050919050565b600081600f0b9050919050565b600073ffffffffffffffffffffffffffffffffffffffff82169050919050565b6000819050919050565b6000614a6482614a4f565b9050919050565b6000614a7e614a7983614b25565b6149e4565b9050919050565b7f4e487b7100000000000000000000000000000000000000000000000000000000600052601160045260246000fd5b7f4e487b7100000000000000000000000000000000000000000000000000000000600052601260045260246000fd5b7f4e487b7100000000000000000000000000000000000000000000000000000000600052604160045260246000fd5b6000614b1e8254614a6b565b9050919050565b60008160001c9050919050565b614b3b81614a04565b8114614b4657600080fd5b50565b614b5281614a16565b8114614b5d57600080fd5b50565b614b6981614a4f565b8114614b7457600080fd5b5056fea2646970667358221220bbcb9a814b3b99580e612e066d4117fa2a914dc2ab0f796fd3b6d12d86b07c8764736f6c63430008000033",
  "linkReferences": {},
  "deployedLinkReferences": {}
}